{"abi":[{"type":"constructor","inputs":[],"stateMutability":"nonpayable"},{"type":"function","name":"UPGRADE_INTERFACE_VERSION","inputs":[],"outputs":[{"name":"","type":"string","internalType":"string"}],"stateMutability":"view"},{"type":"function","name":"_erc20_escrow","inputs":[],"outputs":[{"name":"","type":"address","internalType":"address"}],"stateMutability":"view"},{"type":"function","name":"_escrow","inputs":[],"outputs":[{"name":"","type":"address","internalType":"address"}],"stateMutability":"view"},{"type":"function","name":"_serviceRegistry","inputs":[],"outputs":[{"name":"","type":"address","internalType":"address"}],"stateMutability":"view"},{"type":"function","name":"beneficiaryWithdraw","inputs":[{"name":"serviceID","type":"uint256","internalType":"uint256"}],"outputs":[],"stateMutability":"nonpayable"},{"type":"function","name":"beneficiaryWithdrawERC20","inputs":[{"name":"serviceID","type":"uint256","internalType":"uint256"},{"name":"token","type":"address","internalType":"address"}],"outputs":[],"stateMutability":"nonpayable"},{"type":"function","name":"initialize","inputs":[{"name":"initialOwner","type":"address","internalType":"address"}],"outputs":[],"stateMutability":"nonpayable"},{"type":"function","name":"owner","inputs":[],"outputs":[{"name":"","type":"address","internalType":"address"}],"stateMutability":"view"},{"type":"function","name":"proxiableUUID","inputs":[],"outputs":[{"name":"","type":"bytes32","internalType":"bytes32"}],"stateMutability":"view"},{"type":"function","name":"registerERC20Fulfillment","inputs":[{"name":"serviceID","type":"uint256","internalType":"uint256"},{"name":"fulfillment","type":"tuple","internalType":"struct FulFillmentResult","components":[{"name":"id","type":"uint256","internalType":"uint256"},{"name":"externalID","type":"string","internalType":"string"},{"name":"receiptURI","type":"string","internalType":"string"},{"name":"status","type":"uint8","internalType":"enum FulFillmentResultState"}]}],"outputs":[],"stateMutability":"nonpayable"},{"type":"function","name":"registerFulfillment","inputs":[{"name":"serviceID","type":"uint256","internalType":"uint256"},{"name":"fulfillment","type":"tuple","internalType":"struct FulFillmentResult","components":[{"name":"id","type":"uint256","internalType":"uint256"},{"name":"externalID","type":"string","internalType":"string"},{"name":"receiptURI","type":"string","internalType":"string"},{"name":"status","type":"uint8","internalType":"enum FulFillmentResultState"}]}],"outputs":[],"stateMutability":"nonpayable"},{"type":"function","name":"renounceOwnership","inputs":[],"outputs":[],"stateMutability":"nonpayable"},{"type":"function","name":"setERC20Escrow","inputs":[{"name":"erc20Escrow_","type":"address","internalType":"address payable"}],"outputs":[],"stateMutability":"nonpayable"},{"type":"function","name":"setEscrow","inputs":[{"name":"escrow_","type":"address","internalType":"address payable"}],"outputs":[],"stateMutability":"nonpayable"},{"type":"function","name":"setService","inputs":[{"name":"serviceID","type":"uint256","internalType":"uint256"},{"name":"feeAmountBasisPoints","type":"uint16","internalType":"uint16"},{"name":"fulfiller","type":"address","internalType":"address"},{"name":"beneficiary","type":"address","internalType":"address payable"}],"outputs":[{"name":"","type":"tuple","internalType":"struct Service","components":[{"name":"serviceId","type":"uint256","internalType":"uint256"},{"name":"beneficiary","type":"address","internalType":"address payable"},{"name":"fulfiller","type":"address","internalType":"address"}]}],"stateMutability":"nonpayable"},{"type":"function","name":"setServiceFulfillmentFee","inputs":[{"name":"serviceID","type":"uint256","internalType":"uint256"},{"name":"fulfillmentFeeBasisPoints","type":"uint16","internalType":"uint16"}],"outputs":[],"stateMutability":"nonpayable"},{"type":"function","name":"setServiceRef","inputs":[{"name":"serviceID","type":"uint256","internalType":"uint256"},{"name":"serviceRef","type":"string","internalType":"string"}],"outputs":[],"stateMutability":"nonpayable"},{"type":"function","name":"setServiceRegistry","inputs":[{"name":"serviceRegistry_","type":"address","internalType":"address"}],"outputs":[],"stateMutability":"nonpayable"},{"type":"function","name":"transferOwnership","inputs":[{"name":"newOwner","type":"address","internalType":"address"}],"outputs":[],"stateMutability":"nonpayable"},{"type":"function","name":"upgradeToAndCall","inputs":[{"name":"newImplementation","type":"address","internalType":"address"},{"name":"data","type":"bytes","internalType":"bytes"}],"outputs":[],"stateMutability":"payable"},{"type":"function","name":"withdrawERC20Fees","inputs":[{"name":"serviceID","type":"uint256","internalType":"uint256"},{"name":"token","type":"address","internalType":"address"}],"outputs":[],"stateMutability":"nonpayable"},{"type":"function","name":"withdrawNativeFees","inputs":[{"name":"serviceID","type":"uint256","internalType":"uint256"}],"outputs":[],"stateMutability":"nonpayable"},{"type":"event","name":"ERC20EscrowUpdated","inputs":[{"name":"erc20Escrow","type":"address","indexed":true,"internalType":"address"}],"anonymous":false},{"type":"event","name":"EscrowUpdated","inputs":[{"name":"escrow","type":"address","indexed":true,"internalType":"address"}],"anonymous":false},{"type":"event","name":"Initialized","inputs":[{"name":"version","type":"uint64","indexed":false,"internalType":"uint64"}],"anonymous":false},{"type":"event","name":"OwnershipTransferred","inputs":[{"name":"previousOwner","type":"address","indexed":true,"internalType":"address"},{"name":"newOwner","type":"address","indexed":true,"internalType":"address"}],"anonymous":false},{"type":"event","name":"RegistryUpdated","inputs":[{"name":"registry","type":"address","indexed":true,"internalType":"address"}],"anonymous":false},{"type":"event","name":"Upgraded","inputs":[{"name":"implementation","type":"address","indexed":true,"internalType":"address"}],"anonymous":false},{"type":"error","name":"AddressEmptyCode","inputs":[{"name":"target","type":"address","internalType":"address"}]},{"type":"error","name":"ERC1967InvalidImplementation","inputs":[{"name":"implementation","type":"address","internalType":"address"}]},{"type":"error","name":"ERC1967NonPayable","inputs":[]},{"type":"error","name":"FailedInnerCall","inputs":[]},{"type":"error","name":"InvalidAddress","inputs":[{"name":"address_","type":"address","internalType":"address"}]},{"type":"error","name":"InvalidBeneficiary","inputs":[{"name":"beneficiary_","type":"address","internalType":"address"}]},{"type":"error","name":"InvalidFulfiller","inputs":[{"name":"fulfiller_","type":"address","internalType":"address"}]},{"type":"error","name":"InvalidInitialization","inputs":[]},{"type":"error","name":"InvalidServiceId","inputs":[{"name":"serviceID_","type":"uint256","internalType":"uint256"}]},{"type":"error","name":"NotInitializing","inputs":[]},{"type":"error","name":"OwnableInvalidOwner","inputs":[{"name":"owner","type":"address","internalType":"address"}]},{"type":"error","name":"OwnableUnauthorizedAccount","inputs":[{"name":"account","type":"address","internalType":"address"}]},{"type":"error","name":"UUPSUnauthorizedCallContext","inputs":[]},{"type":"error","name":"UUPSUnsupportedProxiableUUID","inputs":[{"name":"slot","type":"bytes32","internalType":"bytes32"}]}],"bytecode":{"object":"0x60a060405230608052348015610013575f5ffd5b5061001c610021565b6100d3565b7ff0c57e16840df040f15088dc2f81fe391c3923bec73e23a9662efc9c229c6a00805468010000000000000000900460ff16156100715760405163f92ee8a960e01b815260040160405180910390fd5b80546001600160401b03908116146100d05780546001600160401b0319166001600160401b0390811782556040519081527fc7f505b2f371ae2175ee4913f4499e1f2633a7b5936321eed1cdaeb6115181d29060200160405180910390a15b50565b6080516123826100f95f395f81816116ac015281816116d501526118f601526123825ff3fe60806040526004361061016d575f3560e01c8063b4b9bb7c116100c6578063cebae8101161007c578063ecaec54311610057578063ecaec54314610469578063eede444c14610488578063f2fde38b146104a7575f5ffd5b8063cebae8101461040c578063d7071b1f1461042b578063ea5447e61461044a575f5ffd5b8063bf75f119116100ac578063bf75f119146103af578063c10c3546146103ce578063c4d66de8146103ed575f5ffd5b8063b4b9bb7c14610371578063be03f65c14610390575f5ffd5b806358735e631161012657806390eafe581161010157806390eafe58146102c557806391d95f3e146102f1578063ad3cb1cc1461031c575f5ffd5b806358735e6314610249578063715018a6146102685780638da5cb5b1461027c575f5ffd5b80632248d9d6116101565780632248d9d6146101e85780634f1ef2861461021457806352d1902d14610227575f5ffd5b80630619c07a1461017157806307073d91146101c7575b5f5ffd5b34801561017c575f5ffd5b5060015461019d9073ffffffffffffffffffffffffffffffffffffffff1681565b60405173ffffffffffffffffffffffffffffffffffffffff90911681526020015b60405180910390f35b3480156101d2575f5ffd5b506101e66101e1366004611e30565b6104c6565b005b3480156101f3575f5ffd5b50610207610202366004611ea4565b610556565b6040516101be9190611ef4565b6101e6610222366004611f45565b610743565b348015610232575f5ffd5b5061023b610762565b6040519081526020016101be565b348015610254575f5ffd5b506101e6610263366004611f9b565b610790565b348015610273575f5ffd5b506101e6610907565b348015610287575f5ffd5b507f9016d09d72d40fdae2fd8ceac6b6234c7706214fd39c1cd1e609a0528c1993005473ffffffffffffffffffffffffffffffffffffffff1661019d565b3480156102d0575f5ffd5b5060025461019d9073ffffffffffffffffffffffffffffffffffffffff1681565b3480156102fc575f5ffd5b505f5461019d9073ffffffffffffffffffffffffffffffffffffffff1681565b348015610327575f5ffd5b506103646040518060400160405280600581526020017f352e302e3000000000000000000000000000000000000000000000000000000081525081565b6040516101be9190612015565b34801561037c575f5ffd5b506101e661038b366004612027565b61091a565b34801561039b575f5ffd5b506101e66103aa3660046120ed565b610afc565b3480156103ba575f5ffd5b506101e66103c9366004612108565b610bd7565b3480156103d9575f5ffd5b506101e66103e83660046120ed565b610c3f565b3480156103f8575f5ffd5b506101e66104073660046120ed565b610d1a565b348015610417575f5ffd5b506101e661042636600461212b565b610e9f565b348015610436575f5ffd5b506101e66104453660046120ed565b610fe0565b348015610455575f5ffd5b506101e6610464366004612027565b6110b9565b348015610474575f5ffd5b506101e661048336600461212b565b611255565b348015610493575f5ffd5b506101e66104a2366004611f9b565b6113f8565b3480156104b2575f5ffd5b506101e66104c13660046120ed565b6115a3565b6104ce611606565b5f546040517f3f8a7fe000000000000000000000000000000000000000000000000000000000815273ffffffffffffffffffffffffffffffffffffffff90911690633f8a7fe0906105259085908590600401612142565b5f604051808303815f87803b15801561053c575f5ffd5b505af115801561054e573d5f5f3e3d5ffd5b505050505050565b604080516060810182525f808252602082018190529181019190915261057a611606565b845f036105bb576040517fe0d4974b000000000000000000000000000000000000000000000000000000008152600481018690526024015b60405180910390fd5b73ffffffffffffffffffffffffffffffffffffffff8316610620576040517f8e4c8aa600000000000000000000000000000000000000000000000000000000815273ffffffffffffffffffffffffffffffffffffffff841660048201526024016105b2565b73ffffffffffffffffffffffffffffffffffffffff8216610685576040517f8e4c8aa600000000000000000000000000000000000000000000000000000000815273ffffffffffffffffffffffffffffffffffffffff831660048201526024016105b2565b6040805160608101825286815273ffffffffffffffffffffffffffffffffffffffff8085166020830152858116828401525f5492517f4f38e25800000000000000000000000000000000000000000000000000000000815291921690634f38e258906106f990899085908a90600401612162565b6020604051808303815f875af1158015610715573d5f5f3e3d5ffd5b505050506040513d601f19601f8201168201806040525081019061073991906121cb565b5095945050505050565b61074b611694565b61075482611798565b61075e82826117a0565b5050565b5f61076b6118de565b507f360894a13ba1a3210667c828492db98dca3e2076cc3735a920a3ca505d382bbc90565b5f80546040517fef0e239b0000000000000000000000000000000000000000000000000000000081526004810185905273ffffffffffffffffffffffffffffffffffffffff9091169063ef0e239b90602401608060405180830381865afa1580156107fd573d5f5f3e3d5ffd5b505050506040513d601f19601f8201168201806040525081019061082191906121ea565b50602081015190915073ffffffffffffffffffffffffffffffffffffffff16331461087a576040517f1a3b45fd0000000000000000000000000000000000000000000000000000000081523360048201526024016105b2565b6002546040517f936a83e50000000000000000000000000000000000000000000000000000000081526004810185905273ffffffffffffffffffffffffffffffffffffffff84811660248301529091169063936a83e5906044015b5f604051808303815f87803b1580156108ec575f5ffd5b505af11580156108fe573d5f5f3e3d5ffd5b50505050505050565b61090f611606565b6109185f61194d565b565b5f80546040517fef0e239b0000000000000000000000000000000000000000000000000000000081526004810185905273ffffffffffffffffffffffffffffffffffffffff9091169063ef0e239b90602401608060405180830381865afa158015610987573d5f5f3e3d5ffd5b505050506040513d601f19601f820116820180604052508101906109ab91906121ea565b509050806040015173ffffffffffffffffffffffffffffffffffffffff163373ffffffffffffffffffffffffffffffffffffffff1614158015610a2557507f9016d09d72d40fdae2fd8ceac6b6234c7706214fd39c1cd1e609a0528c1993005473ffffffffffffffffffffffffffffffffffffffff163314155b15610a5e576040517fdb4176c70000000000000000000000000000000000000000000000000000000081523360048201526024016105b2565b6001546040517fb4b9bb7c00000000000000000000000000000000000000000000000000000000815273ffffffffffffffffffffffffffffffffffffffff9091169063b4b9bb7c90610ab6908690869060040161226b565b6020604051808303815f875af1158015610ad2573d5f5f3e3d5ffd5b505050506040513d601f19601f82011682018060405250810190610af691906121cb565b50505050565b610b04611606565b73ffffffffffffffffffffffffffffffffffffffff8116610b69576040517f8e4c8aa600000000000000000000000000000000000000000000000000000000815273ffffffffffffffffffffffffffffffffffffffff821660048201526024016105b2565b600280547fffffffffffffffffffffffff00000000000000000000000000000000000000001673ffffffffffffffffffffffffffffffffffffffff83169081179091556040517fd39b3956f908ed0515c7b777552c15a185e9d13c9dd97db53a16bb661ab0b8d8905f90a250565b610bdf611606565b5f546040517f0cf4e14c0000000000000000000000000000000000000000000000000000000081526004810184905261ffff8316602482015273ffffffffffffffffffffffffffffffffffffffff90911690630cf4e14c90604401610525565b610c47611606565b73ffffffffffffffffffffffffffffffffffffffff8116610cac576040517f8e4c8aa600000000000000000000000000000000000000000000000000000000815273ffffffffffffffffffffffffffffffffffffffff821660048201526024016105b2565b600180547fffffffffffffffffffffffff00000000000000000000000000000000000000001673ffffffffffffffffffffffffffffffffffffffff83169081179091556040517f43ab431641dd45dd0661cad4b820e826d7c526af92e3121e1242d721f82ab3ad905f90a250565b7ff0c57e16840df040f15088dc2f81fe391c3923bec73e23a9662efc9c229c6a00805468010000000000000000810460ff16159067ffffffffffffffff165f81158015610d645750825b90505f8267ffffffffffffffff166001148015610d805750303b155b905081158015610d8e575080155b15610dc5576040517ff92ee8a900000000000000000000000000000000000000000000000000000000815260040160405180910390fd5b84547fffffffffffffffffffffffffffffffffffffffffffffffff00000000000000001660011785558315610e265784547fffffffffffffffffffffffffffffffffffffffffffffff00ffffffffffffffff16680100000000000000001785555b610e2e6119e2565b610e37866119ea565b831561054e5784547fffffffffffffffffffffffffffffffffffffffffffffff00ffffffffffffffff168555604051600181527fc7f505b2f371ae2175ee4913f4499e1f2633a7b5936321eed1cdaeb6115181d29060200160405180910390a1505050505050565b5f80546040517fef0e239b0000000000000000000000000000000000000000000000000000000081526004810184905273ffffffffffffffffffffffffffffffffffffffff9091169063ef0e239b90602401608060405180830381865afa158015610f0c573d5f5f3e3d5ffd5b505050506040513d601f19601f82011682018060405250810190610f3091906121ea565b50602081015190915073ffffffffffffffffffffffffffffffffffffffff163314610f89576040517f1a3b45fd0000000000000000000000000000000000000000000000000000000081523360048201526024016105b2565b6001546040517fcebae8100000000000000000000000000000000000000000000000000000000081526004810184905273ffffffffffffffffffffffffffffffffffffffff9091169063cebae81090602401610525565b610fe8611606565b73ffffffffffffffffffffffffffffffffffffffff811661104d576040517f8e4c8aa600000000000000000000000000000000000000000000000000000000815273ffffffffffffffffffffffffffffffffffffffff821660048201526024016105b2565b5f80547fffffffffffffffffffffffff00000000000000000000000000000000000000001673ffffffffffffffffffffffffffffffffffffffff8316908117825560405190917fd6ceddf6d2a22f21c7c81675c518004eff43bc5c8a6fc32a0b748e69d58671cd91a250565b5f80546040517fef0e239b0000000000000000000000000000000000000000000000000000000081526004810185905273ffffffffffffffffffffffffffffffffffffffff9091169063ef0e239b90602401608060405180830381865afa158015611126573d5f5f3e3d5ffd5b505050506040513d601f19601f8201168201806040525081019061114a91906121ea565b509050806040015173ffffffffffffffffffffffffffffffffffffffff163373ffffffffffffffffffffffffffffffffffffffff16141580156111c457507f9016d09d72d40fdae2fd8ceac6b6234c7706214fd39c1cd1e609a0528c1993005473ffffffffffffffffffffffffffffffffffffffff163314155b156111fd576040517fdb4176c70000000000000000000000000000000000000000000000000000000081523360048201526024016105b2565b6002546040517fb4b9bb7c00000000000000000000000000000000000000000000000000000000815273ffffffffffffffffffffffffffffffffffffffff9091169063b4b9bb7c90610ab6908690869060040161226b565b61125d611606565b5f80546040517fef0e239b0000000000000000000000000000000000000000000000000000000081526004810184905273ffffffffffffffffffffffffffffffffffffffff9091169063ef0e239b90602401608060405180830381865afa1580156112ca573d5f5f3e3d5ffd5b505050506040513d601f19601f820116820180604052508101906112ee91906121ea565b509050806040015173ffffffffffffffffffffffffffffffffffffffff163373ffffffffffffffffffffffffffffffffffffffff161415801561136857507f9016d09d72d40fdae2fd8ceac6b6234c7706214fd39c1cd1e609a0528c1993005473ffffffffffffffffffffffffffffffffffffffff163314155b156113a1576040517fdb4176c70000000000000000000000000000000000000000000000000000000081523360048201526024016105b2565b6001546040517fb7aeb6ef0000000000000000000000000000000000000000000000000000000081526004810184905273ffffffffffffffffffffffffffffffffffffffff9091169063b7aeb6ef90602401610525565b611400611606565b5f80546040517fef0e239b0000000000000000000000000000000000000000000000000000000081526004810185905273ffffffffffffffffffffffffffffffffffffffff9091169063ef0e239b90602401608060405180830381865afa15801561146d573d5f5f3e3d5ffd5b505050506040513d601f19601f8201168201806040525081019061149191906121ea565b509050806040015173ffffffffffffffffffffffffffffffffffffffff163373ffffffffffffffffffffffffffffffffffffffff161415801561150b57507f9016d09d72d40fdae2fd8ceac6b6234c7706214fd39c1cd1e609a0528c1993005473ffffffffffffffffffffffffffffffffffffffff163314155b15611544576040517fdb4176c70000000000000000000000000000000000000000000000000000000081523360048201526024016105b2565b6002546040517fb726962e0000000000000000000000000000000000000000000000000000000081526004810185905273ffffffffffffffffffffffffffffffffffffffff84811660248301529091169063b726962e906044016108d5565b6115ab611606565b73ffffffffffffffffffffffffffffffffffffffff81166115fa576040517f1e4fbdf70000000000000000000000000000000000000000000000000000000081525f60048201526024016105b2565b6116038161194d565b50565b336116457f9016d09d72d40fdae2fd8ceac6b6234c7706214fd39c1cd1e609a0528c1993005473ffffffffffffffffffffffffffffffffffffffff1690565b73ffffffffffffffffffffffffffffffffffffffff1614610918576040517f118cdaa70000000000000000000000000000000000000000000000000000000081523360048201526024016105b2565b3073ffffffffffffffffffffffffffffffffffffffff7f000000000000000000000000000000000000000000000000000000000000000016148061176157507f000000000000000000000000000000000000000000000000000000000000000073ffffffffffffffffffffffffffffffffffffffff166117487f360894a13ba1a3210667c828492db98dca3e2076cc3735a920a3ca505d382bbc5473ffffffffffffffffffffffffffffffffffffffff1690565b73ffffffffffffffffffffffffffffffffffffffff1614155b15610918576040517fe07c8dba00000000000000000000000000000000000000000000000000000000815260040160405180910390fd5b611603611606565b8173ffffffffffffffffffffffffffffffffffffffff166352d1902d6040518163ffffffff1660e01b8152600401602060405180830381865afa925050508015611825575060408051601f3d9081017fffffffffffffffffffffffffffffffffffffffffffffffffffffffffffffffe01682019092526118229181019061231f565b60015b611873576040517f4c9c8ce300000000000000000000000000000000000000000000000000000000815273ffffffffffffffffffffffffffffffffffffffff831660048201526024016105b2565b7f360894a13ba1a3210667c828492db98dca3e2076cc3735a920a3ca505d382bbc81146118cf576040517faa1d49a4000000000000000000000000000000000000000000000000000000008152600481018290526024016105b2565b6118d983836119fb565b505050565b3073ffffffffffffffffffffffffffffffffffffffff7f00000000000000000000000000000000000000000000000000000000000000001614610918576040517fe07c8dba00000000000000000000000000000000000000000000000000000000815260040160405180910390fd5b7f9016d09d72d40fdae2fd8ceac6b6234c7706214fd39c1cd1e609a0528c19930080547fffffffffffffffffffffffff0000000000000000000000000000000000000000811673ffffffffffffffffffffffffffffffffffffffff848116918217845560405192169182907f8be0079c531659141344cd1fd0a4f28419497f9722a3daafe3b4186f6b6457e0905f90a3505050565b610918611a5d565b6119f2611a5d565b61160381611ac4565b611a0482611acc565b60405173ffffffffffffffffffffffffffffffffffffffff8316907fbc7cd75a20ee27fd9adebab32041f755214dbc6bffa90cc0225b39da2e5c2d3b905f90a2805115611a55576118d98282611b9a565b61075e611c1b565b7ff0c57e16840df040f15088dc2f81fe391c3923bec73e23a9662efc9c229c6a005468010000000000000000900460ff16610918576040517fd7e6bcf800000000000000000000000000000000000000000000000000000000815260040160405180910390fd5b6115ab611a5d565b8073ffffffffffffffffffffffffffffffffffffffff163b5f03611b34576040517f4c9c8ce300000000000000000000000000000000000000000000000000000000815273ffffffffffffffffffffffffffffffffffffffff821660048201526024016105b2565b7f360894a13ba1a3210667c828492db98dca3e2076cc3735a920a3ca505d382bbc80547fffffffffffffffffffffffff00000000000000000000000000000000000000001673ffffffffffffffffffffffffffffffffffffffff92909216919091179055565b60605f5f8473ffffffffffffffffffffffffffffffffffffffff1684604051611bc39190612336565b5f60405180830381855af49150503d805f8114611bfb576040519150601f19603f3d011682016040523d82523d5f602084013e611c00565b606091505b5091509150611c10858383611c53565b925050505b92915050565b3415610918576040517fb398979f00000000000000000000000000000000000000000000000000000000815260040160405180910390fd5b606082611c6857611c6382611ce5565b611cde565b8151158015611c8c575073ffffffffffffffffffffffffffffffffffffffff84163b155b15611cdb576040517f9996b31500000000000000000000000000000000000000000000000000000000815273ffffffffffffffffffffffffffffffffffffffff851660048201526024016105b2565b50805b9392505050565b805115611cf55780518082602001fd5b6040517f1425ea4200000000000000000000000000000000000000000000000000000000815260040160405180910390fd5b7f4e487b71000000000000000000000000000000000000000000000000000000005f52604160045260245ffd5b6040516080810167ffffffffffffffff81118282101715611d7757611d77611d27565b60405290565b5f5f67ffffffffffffffff841115611d9757611d97611d27565b506040517fffffffffffffffffffffffffffffffffffffffffffffffffffffffffffffffe0601f85018116603f0116810181811067ffffffffffffffff82111715611de457611de4611d27565b604052838152905080828401851015611dfb575f5ffd5b838360208301375f60208583010152509392505050565b5f82601f830112611e21575f5ffd5b611cde83833560208501611d7d565b5f5f60408385031215611e41575f5ffd5b82359150602083013567ffffffffffffffff811115611e5e575f5ffd5b611e6a85828601611e12565b9150509250929050565b61ffff81168114611603575f5ffd5b73ffffffffffffffffffffffffffffffffffffffff81168114611603575f5ffd5b5f5f5f5f60808587031215611eb7575f5ffd5b843593506020850135611ec981611e74565b92506040850135611ed981611e83565b91506060850135611ee981611e83565b939692955090935050565b60608101611c1582848051825273ffffffffffffffffffffffffffffffffffffffff602082015116602083015273ffffffffffffffffffffffffffffffffffffffff60408201511660408301525050565b5f5f60408385031215611f56575f5ffd5b8235611f6181611e83565b9150602083013567ffffffffffffffff811115611f7c575f5ffd5b8301601f81018513611f8c575f5ffd5b611e6a85823560208401611d7d565b5f5f60408385031215611fac575f5ffd5b823591506020830135611fbe81611e83565b809150509250929050565b5f81518084528060208401602086015e5f6020828601015260207fffffffffffffffffffffffffffffffffffffffffffffffffffffffffffffffe0601f83011685010191505092915050565b602081525f611cde6020830184611fc9565b5f5f60408385031215612038575f5ffd5b82359150602083013567ffffffffffffffff811115612055575f5ffd5b830160808186031215612066575f5ffd5b61206e611d54565b81358152602082013567ffffffffffffffff81111561208b575f5ffd5b61209787828501611e12565b602083015250604082013567ffffffffffffffff8111156120b6575f5ffd5b6120c287828501611e12565b60408301525060608201359150600382106120db575f5ffd5b81606082015280925050509250929050565b5f602082840312156120fd575f5ffd5b8135611cde81611e83565b5f5f60408385031215612119575f5ffd5b823591506020830135611fbe81611e74565b5f6020828403121561213b575f5ffd5b5035919050565b828152604060208201525f61215a6040830184611fc9565b949350505050565b83815260a081016121b960208301858051825273ffffffffffffffffffffffffffffffffffffffff602082015116602083015273ffffffffffffffffffffffffffffffffffffffff60408201511660408301525050565b61ffff83166080830152949350505050565b5f602082840312156121db575f5ffd5b81518015158114611cde575f5ffd5b5f5f82840360808112156121fc575f5ffd5b6060811215612209575f5ffd5b506040516060810167ffffffffffffffff8111828210171561222d5761222d611d27565b60405283518152602084015161224281611e83565b6020820152604084015161225581611e83565b60408201526060840151909250611fbe81611e74565b82815260406020820152815160408201525f60208301516080606084015261229660c0840182611fc9565b905060408401517fffffffffffffffffffffffffffffffffffffffffffffffffffffffffffffffc08483030160808501526122d18282611fc9565b91505060608401516003811061230e577f4e487b71000000000000000000000000000000000000000000000000000000005f52602160045260245ffd5b60a093909301929092525092915050565b5f6020828403121561232f575f5ffd5b5051919050565b5f82518060208501845e5f92019182525091905056fea264697066735822122041dce57d434d355e726e8bc39f96d99a25eec57d84f5e8a429a07bb6e834489164736f6c634300081c0033","linkReferences":{}},"methodIdentifiers":{"UPGRADE_INTERFACE_VERSION()":"ad3cb1cc","_erc20_escrow()":"90eafe58","_escrow()":"0619c07a","_serviceRegistry()":"91d95f3e","beneficiaryWithdraw(uint256)":"cebae810","beneficiaryWithdrawERC20(uint256,address)":"58735e63","initialize(address)":"c4d66de8","owner()":"8da5cb5b","proxiableUUID()":"52d1902d","registerERC20Fulfillment(uint256,(uint256,string,string,uint8))":"ea5447e6","registerFulfillment(uint256,(uint256,string,string,uint8))":"b4b9bb7c","renounceOwnership()":"715018a6","setERC20Escrow(address)":"be03f65c","setEscrow(address)":"c10c3546","setService(uint256,uint16,address,address)":"2248d9d6","setServiceFulfillmentFee(uint256,uint16)":"bf75f119","setServiceRef(uint256,string)":"07073d91","setServiceRegistry(address)":"d7071b1f","transferOwnership(address)":"f2fde38b","upgradeToAndCall(address,bytes)":"4f1ef286","withdrawERC20Fees(uint256,address)":"eede444c","withdrawNativeFees(uint256)":"ecaec543"},"id":2}