{"abi":[{"type":"function","name":"UPGRADE_INTERFACE_VERSION","inputs":[],"outputs":[{"name":"","type":"string","internalType":"string"}],"stateMutability":"view"},{"type":"function","name":"_erc20_escrow","inputs":[],"outputs":[{"name":"","type":"address","internalType":"address"}],"stateMutability":"view"},{"type":"function","name":"_escrow","inputs":[],"outputs":[{"name":"","type":"address","internalType":"address"}],"stateMutability":"view"},{"type":"function","name":"_serviceRegistry","inputs":[],"outputs":[{"name":"","type":"address","internalType":"address"}],"stateMutability":"view"},{"type":"function","name":"beneficiaryWithdraw","inputs":[{"name":"serviceID","type":"uint256","internalType":"uint256"}],"outputs":[],"stateMutability":"nonpayable"},{"type":"function","name":"beneficiaryWithdrawERC20","inputs":[{"name":"serviceID","type":"uint256","internalType":"uint256"},{"name":"token","type":"address","internalType":"address"}],"outputs":[],"stateMutability":"nonpayable"},{"type":"function","name":"initialize","inputs":[],"outputs":[],"stateMutability":"nonpayable"},{"type":"function","name":"isUpgrade","inputs":[],"outputs":[{"name":"","type":"bool","internalType":"bool"}],"stateMutability":"view"},{"type":"function","name":"owner","inputs":[],"outputs":[{"name":"","type":"address","internalType":"address"}],"stateMutability":"view"},{"type":"function","name":"proxiableUUID","inputs":[],"outputs":[{"name":"","type":"bytes32","internalType":"bytes32"}],"stateMutability":"view"},{"type":"function","name":"registerERC20Fulfillment","inputs":[{"name":"serviceID","type":"uint256","internalType":"uint256"},{"name":"fulfillment","type":"tuple","internalType":"struct FulFillmentResult","components":[{"name":"id","type":"uint256","internalType":"uint256"},{"name":"externalID","type":"string","internalType":"string"},{"name":"receiptURI","type":"string","internalType":"string"},{"name":"status","type":"uint8","internalType":"enum FulFillmentResultState"}]}],"outputs":[],"stateMutability":"nonpayable"},{"type":"function","name":"registerFulfillment","inputs":[{"name":"serviceID","type":"uint256","internalType":"uint256"},{"name":"fulfillment","type":"tuple","internalType":"struct FulFillmentResult","components":[{"name":"id","type":"uint256","internalType":"uint256"},{"name":"externalID","type":"string","internalType":"string"},{"name":"receiptURI","type":"string","internalType":"string"},{"name":"status","type":"uint8","internalType":"enum FulFillmentResultState"}]}],"outputs":[],"stateMutability":"nonpayable"},{"type":"function","name":"renounceOwnership","inputs":[],"outputs":[],"stateMutability":"nonpayable"},{"type":"function","name":"setERC20Escrow","inputs":[{"name":"erc20Escrow_","type":"address","internalType":"address payable"}],"outputs":[],"stateMutability":"nonpayable"},{"type":"function","name":"setEscrow","inputs":[{"name":"escrow_","type":"address","internalType":"address payable"}],"outputs":[],"stateMutability":"nonpayable"},{"type":"function","name":"setService","inputs":[{"name":"serviceID","type":"uint256","internalType":"uint256"},{"name":"feeAmountBasisPoints","type":"uint16","internalType":"uint16"},{"name":"fulfiller","type":"address","internalType":"address"},{"name":"beneficiary","type":"address","internalType":"address payable"}],"outputs":[{"name":"","type":"tuple","internalType":"struct Service","components":[{"name":"serviceId","type":"uint256","internalType":"uint256"},{"name":"beneficiary","type":"address","internalType":"address payable"},{"name":"fulfiller","type":"address","internalType":"address"}]}],"stateMutability":"nonpayable"},{"type":"function","name":"setServiceFulfillmentFee","inputs":[{"name":"serviceID","type":"uint256","internalType":"uint256"},{"name":"fulfillmentFeeBasisPoints","type":"uint16","internalType":"uint16"}],"outputs":[],"stateMutability":"nonpayable"},{"type":"function","name":"setServiceRef","inputs":[{"name":"serviceID","type":"uint256","internalType":"uint256"},{"name":"serviceRef","type":"string","internalType":"string"}],"outputs":[],"stateMutability":"nonpayable"},{"type":"function","name":"setServiceRegistry","inputs":[{"name":"serviceRegistry_","type":"address","internalType":"address"}],"outputs":[],"stateMutability":"nonpayable"},{"type":"function","name":"transferOwnership","inputs":[{"name":"newOwner","type":"address","internalType":"address"}],"outputs":[],"stateMutability":"nonpayable"},{"type":"function","name":"upgradeToAndCall","inputs":[{"name":"newImplementation","type":"address","internalType":"address"},{"name":"data","type":"bytes","internalType":"bytes"}],"outputs":[],"stateMutability":"payable"},{"type":"function","name":"withdrawERC20Fees","inputs":[{"name":"serviceID","type":"uint256","internalType":"uint256"},{"name":"token","type":"address","internalType":"address"}],"outputs":[],"stateMutability":"nonpayable"},{"type":"function","name":"withdrawNativeFees","inputs":[{"name":"serviceID","type":"uint256","internalType":"uint256"}],"outputs":[],"stateMutability":"nonpayable"},{"type":"event","name":"ERC20EscrowUpdated","inputs":[{"name":"erc20Escrow","type":"address","indexed":true,"internalType":"address"}],"anonymous":false},{"type":"event","name":"EscrowUpdated","inputs":[{"name":"escrow","type":"address","indexed":true,"internalType":"address"}],"anonymous":false},{"type":"event","name":"Initialized","inputs":[{"name":"version","type":"uint64","indexed":false,"internalType":"uint64"}],"anonymous":false},{"type":"event","name":"OwnershipTransferred","inputs":[{"name":"previousOwner","type":"address","indexed":true,"internalType":"address"},{"name":"newOwner","type":"address","indexed":true,"internalType":"address"}],"anonymous":false},{"type":"event","name":"RegistryUpdated","inputs":[{"name":"registry","type":"address","indexed":true,"internalType":"address"}],"anonymous":false},{"type":"event","name":"Upgraded","inputs":[{"name":"implementation","type":"address","indexed":true,"internalType":"address"}],"anonymous":false},{"type":"error","name":"AddressEmptyCode","inputs":[{"name":"target","type":"address","internalType":"address"}]},{"type":"error","name":"ERC1967InvalidImplementation","inputs":[{"name":"implementation","type":"address","internalType":"address"}]},{"type":"error","name":"ERC1967NonPayable","inputs":[]},{"type":"error","name":"FailedInnerCall","inputs":[]},{"type":"error","name":"InvalidAddress","inputs":[{"name":"address_","type":"address","internalType":"address"}]},{"type":"error","name":"InvalidBeneficiary","inputs":[{"name":"beneficiary_","type":"address","internalType":"address"}]},{"type":"error","name":"InvalidFulfiller","inputs":[{"name":"fulfiller_","type":"address","internalType":"address"}]},{"type":"error","name":"InvalidInitialization","inputs":[]},{"type":"error","name":"InvalidServiceId","inputs":[{"name":"serviceID_","type":"uint256","internalType":"uint256"}]},{"type":"error","name":"NotInitializing","inputs":[]},{"type":"error","name":"OwnableInvalidOwner","inputs":[{"name":"owner","type":"address","internalType":"address"}]},{"type":"error","name":"OwnableUnauthorizedAccount","inputs":[{"name":"account","type":"address","internalType":"address"}]},{"type":"error","name":"UUPSUnauthorizedCallContext","inputs":[]},{"type":"error","name":"UUPSUnsupportedProxiableUUID","inputs":[{"name":"slot","type":"bytes32","internalType":"bytes32"}]}],"bytecode":{"object":"0x60a060405230608052348015610013575f5ffd5b5061001c610021565b6100d3565b7ff0c57e16840df040f15088dc2f81fe391c3923bec73e23a9662efc9c229c6a00805468010000000000000000900460ff16156100715760405163f92ee8a960e01b815260040160405180910390fd5b80546001600160401b03908116146100d05780546001600160401b0319166001600160401b0390811782556040519081527fc7f505b2f371ae2175ee4913f4499e1f2633a7b5936321eed1cdaeb6115181d29060200160405180910390a15b50565b6080516123b56100f95f395f81816116df01528181611708015261192901526123b55ff3fe608060405260043610610178575f3560e01c8063ad3cb1cc116100d1578063d7071b1f1161007c578063ecaec54311610057578063ecaec5431461048d578063eede444c146104ac578063f2fde38b146104cb575f5ffd5b8063d7071b1f1461042b578063e38a303b1461044a578063ea5447e61461046e575f5ffd5b8063bf75f119116100ac578063bf75f119146103ce578063c10c3546146103ed578063cebae8101461040c575f5ffd5b8063ad3cb1cc1461033b578063b4b9bb7c14610390578063be03f65c146103af575f5ffd5b806358735e63116101315780638da5cb5b1161010c5780638da5cb5b1461029b57806390eafe58146102e457806391d95f3e14610310575f5ffd5b806358735e6314610254578063715018a6146102735780638129fc1c14610287575f5ffd5b80632248d9d6116101615780632248d9d6146101f35780634f1ef2861461021f57806352d1902d14610232575f5ffd5b80630619c07a1461017c57806307073d91146101d2575b5f5ffd5b348015610187575f5ffd5b506001546101a89073ffffffffffffffffffffffffffffffffffffffff1681565b60405173ffffffffffffffffffffffffffffffffffffffff90911681526020015b60405180910390f35b3480156101dd575f5ffd5b506101f16101ec366004611e63565b6104ea565b005b3480156101fe575f5ffd5b5061021261020d366004611ed7565b61057a565b6040516101c99190611f27565b6101f161022d366004611f78565b610767565b34801561023d575f5ffd5b50610246610786565b6040519081526020016101c9565b34801561025f575f5ffd5b506101f161026e366004611fce565b6107b4565b34801561027e575f5ffd5b506101f161092b565b348015610292575f5ffd5b506101f161093e565b3480156102a6575f5ffd5b507f9016d09d72d40fdae2fd8ceac6b6234c7706214fd39c1cd1e609a0528c1993005473ffffffffffffffffffffffffffffffffffffffff166101a8565b3480156102ef575f5ffd5b506002546101a89073ffffffffffffffffffffffffffffffffffffffff1681565b34801561031b575f5ffd5b505f546101a89073ffffffffffffffffffffffffffffffffffffffff1681565b348015610346575f5ffd5b506103836040518060400160405280600581526020017f352e302e3000000000000000000000000000000000000000000000000000000081525081565b6040516101c99190612048565b34801561039b575f5ffd5b506101f16103aa36600461205a565b610ac3565b3480156103ba575f5ffd5b506101f16103c9366004612120565b610ca5565b3480156103d9575f5ffd5b506101f16103e836600461213b565b610d80565b3480156103f8575f5ffd5b506101f1610407366004612120565b610de8565b348015610417575f5ffd5b506101f161042636600461215e565b610ec3565b348015610436575f5ffd5b506101f1610445366004612120565b611004565b348015610455575f5ffd5b5061045e6110dd565b60405190151581526020016101c9565b348015610479575f5ffd5b506101f161048836600461205a565b6110ec565b348015610498575f5ffd5b506101f16104a736600461215e565b611288565b3480156104b7575f5ffd5b506101f16104c6366004611fce565b61142b565b3480156104d6575f5ffd5b506101f16104e5366004612120565b6115d6565b6104f2611639565b5f546040517f3f8a7fe000000000000000000000000000000000000000000000000000000000815273ffffffffffffffffffffffffffffffffffffffff90911690633f8a7fe0906105499085908590600401612175565b5f604051808303815f87803b158015610560575f5ffd5b505af1158015610572573d5f5f3e3d5ffd5b505050505050565b604080516060810182525f808252602082018190529181019190915261059e611639565b845f036105df576040517fe0d4974b000000000000000000000000000000000000000000000000000000008152600481018690526024015b60405180910390fd5b73ffffffffffffffffffffffffffffffffffffffff8316610644576040517f8e4c8aa600000000000000000000000000000000000000000000000000000000815273ffffffffffffffffffffffffffffffffffffffff841660048201526024016105d6565b73ffffffffffffffffffffffffffffffffffffffff82166106a9576040517f8e4c8aa600000000000000000000000000000000000000000000000000000000815273ffffffffffffffffffffffffffffffffffffffff831660048201526024016105d6565b6040805160608101825286815273ffffffffffffffffffffffffffffffffffffffff8085166020830152858116828401525f5492517f4f38e25800000000000000000000000000000000000000000000000000000000815291921690634f38e2589061071d90899085908a90600401612195565b6020604051808303815f875af1158015610739573d5f5f3e3d5ffd5b505050506040513d601f19601f8201168201806040525081019061075d91906121fe565b5095945050505050565b61076f6116c7565b610778826117cb565b61078282826117d3565b5050565b5f61078f611911565b507f360894a13ba1a3210667c828492db98dca3e2076cc3735a920a3ca505d382bbc90565b5f80546040517fef0e239b0000000000000000000000000000000000000000000000000000000081526004810185905273ffffffffffffffffffffffffffffffffffffffff9091169063ef0e239b90602401608060405180830381865afa158015610821573d5f5f3e3d5ffd5b505050506040513d601f19601f82011682018060405250810190610845919061221d565b50602081015190915073ffffffffffffffffffffffffffffffffffffffff16331461089e576040517f1a3b45fd0000000000000000000000000000000000000000000000000000000081523360048201526024016105d6565b6002546040517f936a83e50000000000000000000000000000000000000000000000000000000081526004810185905273ffffffffffffffffffffffffffffffffffffffff84811660248301529091169063936a83e5906044015b5f604051808303815f87803b158015610910575f5ffd5b505af1158015610922573d5f5f3e3d5ffd5b50505050505050565b610933611639565b61093c5f611980565b565b7ff0c57e16840df040f15088dc2f81fe391c3923bec73e23a9662efc9c229c6a00805468010000000000000000810460ff16159067ffffffffffffffff165f811580156109885750825b90505f8267ffffffffffffffff1660011480156109a45750303b155b9050811580156109b2575080155b156109e9576040517ff92ee8a900000000000000000000000000000000000000000000000000000000815260040160405180910390fd5b84547fffffffffffffffffffffffffffffffffffffffffffffffff00000000000000001660011785558315610a4a5784547fffffffffffffffffffffffffffffffffffffffffffffff00ffffffffffffffff16680100000000000000001785555b610a5333611a15565b610a5b611a26565b8315610abc5784547fffffffffffffffffffffffffffffffffffffffffffffff00ffffffffffffffff168555604051600181527fc7f505b2f371ae2175ee4913f4499e1f2633a7b5936321eed1cdaeb6115181d29060200160405180910390a15b5050505050565b5f80546040517fef0e239b0000000000000000000000000000000000000000000000000000000081526004810185905273ffffffffffffffffffffffffffffffffffffffff9091169063ef0e239b90602401608060405180830381865afa158015610b30573d5f5f3e3d5ffd5b505050506040513d601f19601f82011682018060405250810190610b54919061221d565b509050806040015173ffffffffffffffffffffffffffffffffffffffff163373ffffffffffffffffffffffffffffffffffffffff1614158015610bce57507f9016d09d72d40fdae2fd8ceac6b6234c7706214fd39c1cd1e609a0528c1993005473ffffffffffffffffffffffffffffffffffffffff163314155b15610c07576040517fdb4176c70000000000000000000000000000000000000000000000000000000081523360048201526024016105d6565b6001546040517fb4b9bb7c00000000000000000000000000000000000000000000000000000000815273ffffffffffffffffffffffffffffffffffffffff9091169063b4b9bb7c90610c5f908690869060040161229e565b6020604051808303815f875af1158015610c7b573d5f5f3e3d5ffd5b505050506040513d601f19601f82011682018060405250810190610c9f91906121fe565b50505050565b610cad611639565b73ffffffffffffffffffffffffffffffffffffffff8116610d12576040517f8e4c8aa600000000000000000000000000000000000000000000000000000000815273ffffffffffffffffffffffffffffffffffffffff821660048201526024016105d6565b600280547fffffffffffffffffffffffff00000000000000000000000000000000000000001673ffffffffffffffffffffffffffffffffffffffff83169081179091556040517fd39b3956f908ed0515c7b777552c15a185e9d13c9dd97db53a16bb661ab0b8d8905f90a250565b610d88611639565b5f546040517f0cf4e14c0000000000000000000000000000000000000000000000000000000081526004810184905261ffff8316602482015273ffffffffffffffffffffffffffffffffffffffff90911690630cf4e14c90604401610549565b610df0611639565b73ffffffffffffffffffffffffffffffffffffffff8116610e55576040517f8e4c8aa600000000000000000000000000000000000000000000000000000000815273ffffffffffffffffffffffffffffffffffffffff821660048201526024016105d6565b600180547fffffffffffffffffffffffff00000000000000000000000000000000000000001673ffffffffffffffffffffffffffffffffffffffff83169081179091556040517f43ab431641dd45dd0661cad4b820e826d7c526af92e3121e1242d721f82ab3ad905f90a250565b5f80546040517fef0e239b0000000000000000000000000000000000000000000000000000000081526004810184905273ffffffffffffffffffffffffffffffffffffffff9091169063ef0e239b90602401608060405180830381865afa158015610f30573d5f5f3e3d5ffd5b505050506040513d601f19601f82011682018060405250810190610f54919061221d565b50602081015190915073ffffffffffffffffffffffffffffffffffffffff163314610fad576040517f1a3b45fd0000000000000000000000000000000000000000000000000000000081523360048201526024016105d6565b6001546040517fcebae8100000000000000000000000000000000000000000000000000000000081526004810184905273ffffffffffffffffffffffffffffffffffffffff9091169063cebae81090602401610549565b61100c611639565b73ffffffffffffffffffffffffffffffffffffffff8116611071576040517f8e4c8aa600000000000000000000000000000000000000000000000000000000815273ffffffffffffffffffffffffffffffffffffffff821660048201526024016105d6565b5f80547fffffffffffffffffffffffff00000000000000000000000000000000000000001673ffffffffffffffffffffffffffffffffffffffff8316908117825560405190917fd6ceddf6d2a22f21c7c81675c518004eff43bc5c8a6fc32a0b748e69d58671cd91a250565b5f6110e6611639565b50600190565b5f80546040517fef0e239b0000000000000000000000000000000000000000000000000000000081526004810185905273ffffffffffffffffffffffffffffffffffffffff9091169063ef0e239b90602401608060405180830381865afa158015611159573d5f5f3e3d5ffd5b505050506040513d601f19601f8201168201806040525081019061117d919061221d565b509050806040015173ffffffffffffffffffffffffffffffffffffffff163373ffffffffffffffffffffffffffffffffffffffff16141580156111f757507f9016d09d72d40fdae2fd8ceac6b6234c7706214fd39c1cd1e609a0528c1993005473ffffffffffffffffffffffffffffffffffffffff163314155b15611230576040517fdb4176c70000000000000000000000000000000000000000000000000000000081523360048201526024016105d6565b6002546040517fb4b9bb7c00000000000000000000000000000000000000000000000000000000815273ffffffffffffffffffffffffffffffffffffffff9091169063b4b9bb7c90610c5f908690869060040161229e565b611290611639565b5f80546040517fef0e239b0000000000000000000000000000000000000000000000000000000081526004810184905273ffffffffffffffffffffffffffffffffffffffff9091169063ef0e239b90602401608060405180830381865afa1580156112fd573d5f5f3e3d5ffd5b505050506040513d601f19601f82011682018060405250810190611321919061221d565b509050806040015173ffffffffffffffffffffffffffffffffffffffff163373ffffffffffffffffffffffffffffffffffffffff161415801561139b57507f9016d09d72d40fdae2fd8ceac6b6234c7706214fd39c1cd1e609a0528c1993005473ffffffffffffffffffffffffffffffffffffffff163314155b156113d4576040517fdb4176c70000000000000000000000000000000000000000000000000000000081523360048201526024016105d6565b6001546040517fb7aeb6ef0000000000000000000000000000000000000000000000000000000081526004810184905273ffffffffffffffffffffffffffffffffffffffff9091169063b7aeb6ef90602401610549565b611433611639565b5f80546040517fef0e239b0000000000000000000000000000000000000000000000000000000081526004810185905273ffffffffffffffffffffffffffffffffffffffff9091169063ef0e239b90602401608060405180830381865afa1580156114a0573d5f5f3e3d5ffd5b505050506040513d601f19601f820116820180604052508101906114c4919061221d565b509050806040015173ffffffffffffffffffffffffffffffffffffffff163373ffffffffffffffffffffffffffffffffffffffff161415801561153e57507f9016d09d72d40fdae2fd8ceac6b6234c7706214fd39c1cd1e609a0528c1993005473ffffffffffffffffffffffffffffffffffffffff163314155b15611577576040517fdb4176c70000000000000000000000000000000000000000000000000000000081523360048201526024016105d6565b6002546040517fb726962e0000000000000000000000000000000000000000000000000000000081526004810185905273ffffffffffffffffffffffffffffffffffffffff84811660248301529091169063b726962e906044016108f9565b6115de611639565b73ffffffffffffffffffffffffffffffffffffffff811661162d576040517f1e4fbdf70000000000000000000000000000000000000000000000000000000081525f60048201526024016105d6565b61163681611980565b50565b336116787f9016d09d72d40fdae2fd8ceac6b6234c7706214fd39c1cd1e609a0528c1993005473ffffffffffffffffffffffffffffffffffffffff1690565b73ffffffffffffffffffffffffffffffffffffffff161461093c576040517f118cdaa70000000000000000000000000000000000000000000000000000000081523360048201526024016105d6565b3073ffffffffffffffffffffffffffffffffffffffff7f000000000000000000000000000000000000000000000000000000000000000016148061179457507f000000000000000000000000000000000000000000000000000000000000000073ffffffffffffffffffffffffffffffffffffffff1661177b7f360894a13ba1a3210667c828492db98dca3e2076cc3735a920a3ca505d382bbc5473ffffffffffffffffffffffffffffffffffffffff1690565b73ffffffffffffffffffffffffffffffffffffffff1614155b1561093c576040517fe07c8dba00000000000000000000000000000000000000000000000000000000815260040160405180910390fd5b611636611639565b8173ffffffffffffffffffffffffffffffffffffffff166352d1902d6040518163ffffffff1660e01b8152600401602060405180830381865afa925050508015611858575060408051601f3d9081017fffffffffffffffffffffffffffffffffffffffffffffffffffffffffffffffe016820190925261185591810190612352565b60015b6118a6576040517f4c9c8ce300000000000000000000000000000000000000000000000000000000815273ffffffffffffffffffffffffffffffffffffffff831660048201526024016105d6565b7f360894a13ba1a3210667c828492db98dca3e2076cc3735a920a3ca505d382bbc8114611902576040517faa1d49a4000000000000000000000000000000000000000000000000000000008152600481018290526024016105d6565b61190c8383611a2e565b505050565b3073ffffffffffffffffffffffffffffffffffffffff7f0000000000000000000000000000000000000000000000000000000000000000161461093c576040517fe07c8dba00000000000000000000000000000000000000000000000000000000815260040160405180910390fd5b7f9016d09d72d40fdae2fd8ceac6b6234c7706214fd39c1cd1e609a0528c19930080547fffffffffffffffffffffffff0000000000000000000000000000000000000000811673ffffffffffffffffffffffffffffffffffffffff848116918217845560405192169182907f8be0079c531659141344cd1fd0a4f28419497f9722a3daafe3b4186f6b6457e0905f90a3505050565b611a1d611a90565b61163681611af7565b61093c611a90565b611a3782611aff565b60405173ffffffffffffffffffffffffffffffffffffffff8316907fbc7cd75a20ee27fd9adebab32041f755214dbc6bffa90cc0225b39da2e5c2d3b905f90a2805115611a885761190c8282611bcd565b610782611c4e565b7ff0c57e16840df040f15088dc2f81fe391c3923bec73e23a9662efc9c229c6a005468010000000000000000900460ff1661093c576040517fd7e6bcf800000000000000000000000000000000000000000000000000000000815260040160405180910390fd5b6115de611a90565b8073ffffffffffffffffffffffffffffffffffffffff163b5f03611b67576040517f4c9c8ce300000000000000000000000000000000000000000000000000000000815273ffffffffffffffffffffffffffffffffffffffff821660048201526024016105d6565b7f360894a13ba1a3210667c828492db98dca3e2076cc3735a920a3ca505d382bbc80547fffffffffffffffffffffffff00000000000000000000000000000000000000001673ffffffffffffffffffffffffffffffffffffffff92909216919091179055565b60605f5f8473ffffffffffffffffffffffffffffffffffffffff1684604051611bf69190612369565b5f60405180830381855af49150503d805f8114611c2e576040519150601f19603f3d011682016040523d82523d5f602084013e611c33565b606091505b5091509150611c43858383611c86565b925050505b92915050565b341561093c576040517fb398979f00000000000000000000000000000000000000000000000000000000815260040160405180910390fd5b606082611c9b57611c9682611d18565b611d11565b8151158015611cbf575073ffffffffffffffffffffffffffffffffffffffff84163b155b15611d0e576040517f9996b31500000000000000000000000000000000000000000000000000000000815273ffffffffffffffffffffffffffffffffffffffff851660048201526024016105d6565b50805b9392505050565b805115611d285780518082602001fd5b6040517f1425ea4200000000000000000000000000000000000000000000000000000000815260040160405180910390fd5b7f4e487b71000000000000000000000000000000000000000000000000000000005f52604160045260245ffd5b6040516080810167ffffffffffffffff81118282101715611daa57611daa611d5a565b60405290565b5f5f67ffffffffffffffff841115611dca57611dca611d5a565b506040517fffffffffffffffffffffffffffffffffffffffffffffffffffffffffffffffe0601f85018116603f0116810181811067ffffffffffffffff82111715611e1757611e17611d5a565b604052838152905080828401851015611e2e575f5ffd5b838360208301375f60208583010152509392505050565b5f82601f830112611e54575f5ffd5b611d1183833560208501611db0565b5f5f60408385031215611e74575f5ffd5b82359150602083013567ffffffffffffffff811115611e91575f5ffd5b611e9d85828601611e45565b9150509250929050565b61ffff81168114611636575f5ffd5b73ffffffffffffffffffffffffffffffffffffffff81168114611636575f5ffd5b5f5f5f5f60808587031215611eea575f5ffd5b843593506020850135611efc81611ea7565b92506040850135611f0c81611eb6565b91506060850135611f1c81611eb6565b939692955090935050565b60608101611c4882848051825273ffffffffffffffffffffffffffffffffffffffff602082015116602083015273ffffffffffffffffffffffffffffffffffffffff60408201511660408301525050565b5f5f60408385031215611f89575f5ffd5b8235611f9481611eb6565b9150602083013567ffffffffffffffff811115611faf575f5ffd5b8301601f81018513611fbf575f5ffd5b611e9d85823560208401611db0565b5f5f60408385031215611fdf575f5ffd5b823591506020830135611ff181611eb6565b809150509250929050565b5f81518084528060208401602086015e5f6020828601015260207fffffffffffffffffffffffffffffffffffffffffffffffffffffffffffffffe0601f83011685010191505092915050565b602081525f611d116020830184611ffc565b5f5f6040838503121561206b575f5ffd5b82359150602083013567ffffffffffffffff811115612088575f5ffd5b830160808186031215612099575f5ffd5b6120a1611d87565b81358152602082013567ffffffffffffffff8111156120be575f5ffd5b6120ca87828501611e45565b602083015250604082013567ffffffffffffffff8111156120e9575f5ffd5b6120f587828501611e45565b604083015250606082013591506003821061210e575f5ffd5b81606082015280925050509250929050565b5f60208284031215612130575f5ffd5b8135611d1181611eb6565b5f5f6040838503121561214c575f5ffd5b823591506020830135611ff181611ea7565b5f6020828403121561216e575f5ffd5b5035919050565b828152604060208201525f61218d6040830184611ffc565b949350505050565b83815260a081016121ec60208301858051825273ffffffffffffffffffffffffffffffffffffffff602082015116602083015273ffffffffffffffffffffffffffffffffffffffff60408201511660408301525050565b61ffff83166080830152949350505050565b5f6020828403121561220e575f5ffd5b81518015158114611d11575f5ffd5b5f5f828403608081121561222f575f5ffd5b606081121561223c575f5ffd5b506040516060810167ffffffffffffffff8111828210171561226057612260611d5a565b60405283518152602084015161227581611eb6565b6020820152604084015161228881611eb6565b60408201526060840151909250611ff181611ea7565b82815260406020820152815160408201525f6020830151608060608401526122c960c0840182611ffc565b905060408401517fffffffffffffffffffffffffffffffffffffffffffffffffffffffffffffffc08483030160808501526123048282611ffc565b915050606084015160038110612341577f4e487b71000000000000000000000000000000000000000000000000000000005f52602160045260245ffd5b60a093909301929092525092915050565b5f60208284031215612362575f5ffd5b5051919050565b5f82518060208501845e5f92019182525091905056fea2646970667358221220fba4b7652cba323c0c2f3c4bbe1de3f8205c5b1cf78d31b4c68b27edc0f6d5df64736f6c634300081c0033","linkReferences":{}},"methodIdentifiers":{"UPGRADE_INTERFACE_VERSION()":"ad3cb1cc","_erc20_escrow()":"90eafe58","_escrow()":"0619c07a","_serviceRegistry()":"91d95f3e","beneficiaryWithdraw(uint256)":"cebae810","beneficiaryWithdrawERC20(uint256,address)":"58735e63","initialize()":"8129fc1c","isUpgrade()":"e38a303b","owner()":"8da5cb5b","proxiableUUID()":"52d1902d","registerERC20Fulfillment(uint256,(uint256,string,string,uint8))":"ea5447e6","registerFulfillment(uint256,(uint256,string,string,uint8))":"b4b9bb7c","renounceOwnership()":"715018a6","setERC20Escrow(address)":"be03f65c","setEscrow(address)":"c10c3546","setService(uint256,uint16,address,address)":"2248d9d6","setServiceFulfillmentFee(uint256,uint16)":"bf75f119","setServiceRef(uint256,string)":"07073d91","setServiceRegistry(address)":"d7071b1f","transferOwnership(address)":"f2fde38b","upgradeToAndCall(address,bytes)":"4f1ef286","withdrawERC20Fees(uint256,address)":"eede444c","withdrawNativeFees(uint256)":"ecaec543"},"id":15}