{"abi":[{"type":"constructor","inputs":[],"stateMutability":"nonpayable"},{"type":"function","name":"MAX_FULFILLMENT_FEE_BASIS_POINTS","inputs":[],"outputs":[{"name":"","type":"uint16","internalType":"uint16"}],"stateMutability":"view"},{"type":"function","name":"UPGRADE_INTERFACE_VERSION","inputs":[],"outputs":[{"name":"","type":"string","internalType":"string"}],"stateMutability":"view"},{"type":"function","name":"_fulfillerServiceCount","inputs":[{"name":"","type":"address","internalType":"address"}],"outputs":[{"name":"","type":"uint256","internalType":"uint256"}],"stateMutability":"view"},{"type":"function","name":"_fulfillerServices","inputs":[{"name":"","type":"address","internalType":"address"},{"name":"","type":"uint256","internalType":"uint256"}],"outputs":[{"name":"","type":"bool","internalType":"bool"}],"stateMutability":"view"},{"type":"function","name":"_manager","inputs":[],"outputs":[{"name":"","type":"address","internalType":"address"}],"stateMutability":"view"},{"type":"function","name":"_serviceCount","inputs":[],"outputs":[{"name":"","type":"uint256","internalType":"uint256"}],"stateMutability":"view"},{"type":"function","name":"_serviceFulfillmentFeeBasisPoints","inputs":[{"name":"","type":"uint256","internalType":"uint256"}],"outputs":[{"name":"","type":"uint16","internalType":"uint16"}],"stateMutability":"view"},{"type":"function","name":"_serviceRefCount","inputs":[{"name":"","type":"uint256","internalType":"uint256"}],"outputs":[{"name":"","type":"uint256","internalType":"uint256"}],"stateMutability":"view"},{"type":"function","name":"_serviceRefs","inputs":[{"name":"","type":"uint256","internalType":"uint256"},{"name":"","type":"uint256","internalType":"uint256"}],"outputs":[{"name":"","type":"string","internalType":"string"}],"stateMutability":"view"},{"type":"function","name":"_serviceRegistry","inputs":[{"name":"","type":"uint256","internalType":"uint256"}],"outputs":[{"name":"serviceId","type":"uint256","internalType":"uint256"},{"name":"beneficiary","type":"address","internalType":"address payable"},{"name":"fulfiller","type":"address","internalType":"address"}],"stateMutability":"view"},{"type":"function","name":"addFulfiller","inputs":[{"name":"fulfiller","type":"address","internalType":"address"},{"name":"serviceID","type":"uint256","internalType":"uint256"}],"outputs":[],"stateMutability":"nonpayable"},{"type":"function","name":"addService","inputs":[{"name":"serviceId","type":"uint256","internalType":"uint256"},{"name":"service","type":"tuple","internalType":"struct Service","components":[{"name":"serviceId","type":"uint256","internalType":"uint256"},{"name":"beneficiary","type":"address","internalType":"address payable"},{"name":"fulfiller","type":"address","internalType":"address"}]},{"name":"fulfillmentFeeBasisPoints","type":"uint16","internalType":"uint16"}],"outputs":[{"name":"","type":"bool","internalType":"bool"}],"stateMutability":"nonpayable"},{"type":"function","name":"addServiceRef","inputs":[{"name":"serviceId","type":"uint256","internalType":"uint256"},{"name":"ref","type":"string","internalType":"string"}],"outputs":[],"stateMutability":"nonpayable"},{"type":"function","name":"canFulfillerFulfill","inputs":[{"name":"fulfiller","type":"address","internalType":"address"},{"name":"serviceId","type":"uint256","internalType":"uint256"}],"outputs":[{"name":"","type":"bool","internalType":"bool"}],"stateMutability":"view"},{"type":"function","name":"getService","inputs":[{"name":"serviceId","type":"uint256","internalType":"uint256"}],"outputs":[{"name":"","type":"tuple","internalType":"struct Service","components":[{"name":"serviceId","type":"uint256","internalType":"uint256"},{"name":"beneficiary","type":"address","internalType":"address payable"},{"name":"fulfiller","type":"address","internalType":"address"}]},{"name":"","type":"uint16","internalType":"uint16"}],"stateMutability":"view"},{"type":"function","name":"initialize","inputs":[{"name":"initialOwner","type":"address","internalType":"address"}],"outputs":[],"stateMutability":"nonpayable"},{"type":"function","name":"isRefValid","inputs":[{"name":"serviceId","type":"uint256","internalType":"uint256"},{"name":"ref","type":"string","internalType":"string"}],"outputs":[{"name":"","type":"bool","internalType":"bool"}],"stateMutability":"view"},{"type":"function","name":"owner","inputs":[],"outputs":[{"name":"","type":"address","internalType":"address"}],"stateMutability":"view"},{"type":"function","name":"proxiableUUID","inputs":[],"outputs":[{"name":"","type":"bytes32","internalType":"bytes32"}],"stateMutability":"view"},{"type":"function","name":"removeServiceAddress","inputs":[{"name":"serviceId","type":"uint256","internalType":"uint256"}],"outputs":[],"stateMutability":"nonpayable"},{"type":"function","name":"renounceOwnership","inputs":[],"outputs":[],"stateMutability":"nonpayable"},{"type":"function","name":"setManager","inputs":[{"name":"manager_","type":"address","internalType":"address"}],"outputs":[],"stateMutability":"nonpayable"},{"type":"function","name":"transferOwnership","inputs":[{"name":"newOwner","type":"address","internalType":"address"}],"outputs":[],"stateMutability":"nonpayable"},{"type":"function","name":"updateServiceBeneficiary","inputs":[{"name":"serviceId","type":"uint256","internalType":"uint256"},{"name":"newBeneficiary","type":"address","internalType":"address payable"}],"outputs":[],"stateMutability":"nonpayable"},{"type":"function","name":"updateServiceFulfiller","inputs":[{"name":"serviceId","type":"uint256","internalType":"uint256"},{"name":"newFulfiller","type":"address","internalType":"address"}],"outputs":[],"stateMutability":"nonpayable"},{"type":"function","name":"updateServicefeeAmountBasisPoints","inputs":[{"name":"serviceId","type":"uint256","internalType":"uint256"},{"name":"newfeeAmountBasisPoints","type":"uint16","internalType":"uint16"}],"outputs":[],"stateMutability":"nonpayable"},{"type":"function","name":"upgradeToAndCall","inputs":[{"name":"newImplementation","type":"address","internalType":"address"},{"name":"data","type":"bytes","internalType":"bytes"}],"outputs":[],"stateMutability":"payable"},{"type":"event","name":"FulfillerAdded","inputs":[{"name":"fulfiller","type":"address","indexed":false,"internalType":"address"},{"name":"serviceID","type":"uint256","indexed":false,"internalType":"uint256"}],"anonymous":false},{"type":"event","name":"Initialized","inputs":[{"name":"version","type":"uint64","indexed":false,"internalType":"uint64"}],"anonymous":false},{"type":"event","name":"ManagerUpdated","inputs":[{"name":"manager","type":"address","indexed":true,"internalType":"address"}],"anonymous":false},{"type":"event","name":"OwnershipTransferred","inputs":[{"name":"previousOwner","type":"address","indexed":true,"internalType":"address"},{"name":"newOwner","type":"address","indexed":true,"internalType":"address"}],"anonymous":false},{"type":"event","name":"ServiceAdded","inputs":[{"name":"serviceID","type":"uint256","indexed":false,"internalType":"uint256"},{"name":"fulfiller","type":"address","indexed":true,"internalType":"address"}],"anonymous":false},{"type":"event","name":"ServiceBeneficiaryUpdated","inputs":[{"name":"serviceID","type":"uint256","indexed":false,"internalType":"uint256"},{"name":"beneficiary","type":"address","indexed":false,"internalType":"address"}],"anonymous":false},{"type":"event","name":"ServiceFulfillerUpdated","inputs":[{"name":"serviceID","type":"uint256","indexed":false,"internalType":"uint256"},{"name":"fulfiller","type":"address","indexed":false,"internalType":"address"}],"anonymous":false},{"type":"event","name":"ServiceFulfillmentFeeSet","inputs":[{"name":"serviceID","type":"uint256","indexed":false,"internalType":"uint256"},{"name":"fulfillmentFeeBasisPoints","type":"uint16","indexed":false,"internalType":"uint16"}],"anonymous":false},{"type":"event","name":"ServiceRefAdded","inputs":[{"name":"serviceID","type":"uint256","indexed":false,"internalType":"uint256"},{"name":"ref","type":"string","indexed":false,"internalType":"string"}],"anonymous":false},{"type":"event","name":"ServiceRemoved","inputs":[{"name":"serviceID","type":"uint256","indexed":false,"internalType":"uint256"}],"anonymous":false},{"type":"event","name":"Upgraded","inputs":[{"name":"implementation","type":"address","indexed":true,"internalType":"address"}],"anonymous":false},{"type":"error","name":"AddressEmptyCode","inputs":[{"name":"target","type":"address","internalType":"address"}]},{"type":"error","name":"ERC1967InvalidImplementation","inputs":[{"name":"implementation","type":"address","internalType":"address"}]},{"type":"error","name":"ERC1967NonPayable","inputs":[]},{"type":"error","name":"FailedInnerCall","inputs":[]},{"type":"error","name":"InvalidAddress","inputs":[{"name":"_address","type":"address","internalType":"address"}]},{"type":"error","name":"InvalidInitialization","inputs":[]},{"type":"error","name":"InvalidfeeAmountBasisPoints","inputs":[{"name":"feeAmountBasisPoints","type":"uint16","internalType":"uint16"}]},{"type":"error","name":"NotInitializing","inputs":[]},{"type":"error","name":"OwnableInvalidOwner","inputs":[{"name":"owner","type":"address","internalType":"address"}]},{"type":"error","name":"OwnableUnauthorizedAccount","inputs":[{"name":"account","type":"address","internalType":"address"}]},{"type":"error","name":"ServiceAlreadyExists","inputs":[{"name":"serviceID","type":"uint256","internalType":"uint256"}]},{"type":"error","name":"ServiceDoesNotExist","inputs":[{"name":"serviceID","type":"uint256","internalType":"uint256"}]},{"type":"error","name":"UUPSUnauthorizedCallContext","inputs":[]},{"type":"error","name":"UUPSUnsupportedProxiableUUID","inputs":[{"name":"slot","type":"bytes32","internalType":"bytes32"}]}],"bytecode":{"object":"0x60a060405230608052348015610013575f5ffd5b5061001c610021565b6100d3565b7ff0c57e16840df040f15088dc2f81fe391c3923bec73e23a9662efc9c229c6a00805468010000000000000000900460ff16156100715760405163f92ee8a960e01b815260040160405180910390fd5b80546001600160401b03908116146100d05780546001600160401b0319166001600160401b0390811782556040519081527fc7f505b2f371ae2175ee4913f4499e1f2633a7b5936321eed1cdaeb6115181d29060200160405180910390a15b50565b6080516122376100f95f395f81816114ee01528181611517015261173801526122375ff3fe6080604052600436106101a4575f3560e01c80638ba6bf84116100e7578063d0ebdbe711610087578063ef0e239b11610062578063ef0e239b1461059c578063f0329f6b14610604578063f2fde38b14610630578063fb31fe801461064f575f5ffd5b8063d0ebdbe714610533578063d4a2470314610552578063eddef58e14610571575f5ffd5b8063a9a6b305116100c2578063a9a6b30514610428578063ad3cb1cc146104ad578063b34755ac146104f5578063c4d66de814610514575f5ffd5b80638ba6bf841461038a5780638da5cb5b1461039f5780639f66069714610409575f5ffd5b80634f1ef286116101525780636c07360a1161012d5780636c07360a146102e9578063715018a61461032b57806379a22c201461033f5780638b82ba781461036b575f5ffd5b80634f1ef286146102a35780634f38e258146102b657806352d1902d146102d5575f5ffd5b80633f8a7fe0116101825780633f8a7fe0146102205780634c770b581461023f5780634eeebbd714610278575f5ffd5b80630cf4e14c146101a85780631147883f146101c95780631b9c660b146101f1575b5f5ffd5b3480156101b3575f5ffd5b506101c76101c2366004611b7a565b61066e565b005b3480156101d4575f5ffd5b506101de60065481565b6040519081526020015b60405180910390f35b3480156101fc575f5ffd5b5061021061020b366004611bc5565b6107a2565b60405190151581526020016101e8565b34801561022b575f5ffd5b506101c761023a366004611cb1565b6107dc565b34801561024a575f5ffd5b50610210610259366004611bc5565b600460209081525f928352604080842090915290825290205460ff1681565b348015610283575f5ffd5b506101de610292366004611d08565b60056020525f908152604090205481565b6101c76102b1366004611d23565b610917565b3480156102c1575f5ffd5b506102106102d0366004611d5a565b610936565b3480156102e0575f5ffd5b506101de610b01565b3480156102f4575f5ffd5b50610318610303366004611e0b565b60026020525f908152604090205461ffff1681565b60405161ffff90911681526020016101e8565b348015610336575f5ffd5b506101c7610b2f565b34801561034a575f5ffd5b5061035e610359366004611e22565b610b42565b6040516101e89190611e8e565b348015610376575f5ffd5b506101c7610385366004611ea0565b610be4565b348015610395575f5ffd5b5061031861271081565b3480156103aa575f5ffd5b507f9016d09d72d40fdae2fd8ceac6b6234c7706214fd39c1cd1e609a0528c1993005473ffffffffffffffffffffffffffffffffffffffff165b60405173ffffffffffffffffffffffffffffffffffffffff90911681526020016101e8565b348015610414575f5ffd5b506101c7610423366004611e0b565b610cd0565b348015610433575f5ffd5b5061047b610442366004611e0b565b5f60208190529081526040902080546001820154600290920154909173ffffffffffffffffffffffffffffffffffffffff908116911683565b6040805193845273ffffffffffffffffffffffffffffffffffffffff92831660208501529116908201526060016101e8565b3480156104b8575f5ffd5b5061035e6040518060400160405280600581526020017f352e302e3000000000000000000000000000000000000000000000000000000081525081565b348015610500575f5ffd5b506101c761050f366004611bc5565b610d6a565b34801561051f575f5ffd5b506101c761052e366004611d08565b610e9e565b34801561053e575f5ffd5b506101c761054d366004611d08565b611024565b34801561055d575f5ffd5b5061021061056c366004611cb1565b6110ff565b34801561057c575f5ffd5b506101de61058b366004611e0b565b60036020525f908152604090205481565b3480156105a7575f5ffd5b506105bb6105b6366004611e0b565b6111b7565b604080518351815260208085015173ffffffffffffffffffffffffffffffffffffffff90811691830191909152938201519093169083015261ffff1660608201526080016101e8565b34801561060f575f5ffd5b506007546103e49073ffffffffffffffffffffffffffffffffffffffff1681565b34801561063b575f5ffd5b506101c761064a366004611d08565b611294565b34801561065a575f5ffd5b506101c7610669366004611ea0565b6112f7565b610676611448565b5f8281526020819052604090206002015473ffffffffffffffffffffffffffffffffffffffff166106db576040517ff0367891000000000000000000000000000000000000000000000000000000008152600481018390526024015b60405180910390fd5b61271061ffff821611806106ec57505f5b15610729576040517f12bfb11500000000000000000000000000000000000000000000000000000000815261ffff821660048201526024016106d2565b5f8281526002602090815260409182902080547fffffffffffffffffffffffffffffffffffffffffffffffffffffffffffff00001661ffff85169081179091558251858152918201527f85840a9d35b5de84014fcdba5ea1b1198cd5a1de1bf18c962406c49d23611bea91015b60405180910390a15050565b73ffffffffffffffffffffffffffffffffffffffff82165f90815260046020908152604080832084845290915290205460ff165b92915050565b60075473ffffffffffffffffffffffffffffffffffffffff16331461082f576040517f8e4c8aa60000000000000000000000000000000000000000000000000000000081523360048201526024016106d2565b5f8281526020819052604090206002015473ffffffffffffffffffffffffffffffffffffffff1661088f576040517ff0367891000000000000000000000000000000000000000000000000000000008152600481018390526024016106d2565b5f82815260036020908152604080832054600183528184208185529092529091206108ba8382611f6a565b505f8381526003602052604081208054916108d4836120ae565b91905055507f3d22cb787e98f99f58d9865d1e965daea18c8a54e5c3554983fb80eb4d6cdf8d838360405161090a9291906120e5565b60405180910390a1505050565b61091f6114d6565b610928826115da565b61093282826115e2565b5050565b6007545f9073ffffffffffffffffffffffffffffffffffffffff16331461098b576040517f8e4c8aa60000000000000000000000000000000000000000000000000000000081523360048201526024016106d2565b5f8481526020819052604090206002015473ffffffffffffffffffffffffffffffffffffffff16156109ec576040517ff4d3daa7000000000000000000000000000000000000000000000000000000008152600481018590526024016106d2565b5f84815260208181526040808320865181558287015160018201805473ffffffffffffffffffffffffffffffffffffffff9283167fffffffffffffffffffffffff00000000000000000000000000000000000000009182161790915583890151600293840180549190931691161790559091528120805461ffff85167fffffffffffffffffffffffffffffffffffffffffffffffffffffffffffff00009091161790556006805491610a9d836120ae565b9190505550826040015173ffffffffffffffffffffffffffffffffffffffff167fff6cb4f77c0e74b5150dcce6b081605e74c6ac834288a634eecb40278f532de185604051610aee91815260200190565b60405180910390a25060015b9392505050565b5f610b0a611720565b507f360894a13ba1a3210667c828492db98dca3e2076cc3735a920a3ca505d382bbc90565b610b37611448565b610b405f61178f565b565b600160209081525f928352604080842090915290825290208054610b6590611ece565b80601f0160208091040260200160405190810160405280929190818152602001828054610b9190611ece565b8015610bdc5780601f10610bb357610100808354040283529160200191610bdc565b820191905f5260205f20905b815481529060010190602001808311610bbf57829003601f168201915b505050505081565b610bec611448565b5f8281526020819052604090206002015473ffffffffffffffffffffffffffffffffffffffff16610c4c576040517ff0367891000000000000000000000000000000000000000000000000000000008152600481018390526024016106d2565b5f828152602081815260409182902060010180547fffffffffffffffffffffffff00000000000000000000000000000000000000001673ffffffffffffffffffffffffffffffffffffffff85169081179091558251858152918201527f7bd964778153a6020aa8affac0ee17eb8010f8773f90096178c7690bfb80f9369101610796565b610cd8611448565b5f8181526020819052604081208181556001810180547fffffffffffffffffffffffff00000000000000000000000000000000000000009081169091556002909101805490911690556006805491610d2f83612105565b90915550506040518181527f419a91c001167ea76233ed548fd1a02c21b5b63f8b6eaa7dd5747aac879148929060200160405180910390a150565b610d72611448565b73ffffffffffffffffffffffffffffffffffffffff82165f90815260046020908152604080832084845290915290205460ff1615610ddf576040517ff4d3daa7000000000000000000000000000000000000000000000000000000008152600481018290526024016106d2565b73ffffffffffffffffffffffffffffffffffffffff82165f818152600460209081526040808320858452825280832080547fffffffffffffffffffffffffffffffffffffffffffffffffffffffffffffff0016600117905592825260059052908120805491610e4d836120ae565b90915550506040805173ffffffffffffffffffffffffffffffffffffffff84168152602081018390527ffbfe2ea6c1f3e71357b116d3d22f11f52e35640a7711fa48949a83806d6e9fd29101610796565b7ff0c57e16840df040f15088dc2f81fe391c3923bec73e23a9662efc9c229c6a00805468010000000000000000810460ff16159067ffffffffffffffff165f81158015610ee85750825b90505f8267ffffffffffffffff166001148015610f045750303b155b905081158015610f12575080155b15610f49576040517ff92ee8a900000000000000000000000000000000000000000000000000000000815260040160405180910390fd5b84547fffffffffffffffffffffffffffffffffffffffffffffffff00000000000000001660011785558315610faa5784547fffffffffffffffffffffffffffffffffffffffffffffff00ffffffffffffffff16680100000000000000001785555b610fb2611824565b610fbb8661182c565b831561101c5784547fffffffffffffffffffffffffffffffffffffffffffffff00ffffffffffffffff168555604051600181527fc7f505b2f371ae2175ee4913f4499e1f2633a7b5936321eed1cdaeb6115181d29060200160405180910390a15b505050505050565b61102c611448565b73ffffffffffffffffffffffffffffffffffffffff8116611091576040517f8e4c8aa600000000000000000000000000000000000000000000000000000000815273ffffffffffffffffffffffffffffffffffffffff821660048201526024016106d2565b600780547fffffffffffffffffffffffff00000000000000000000000000000000000000001673ffffffffffffffffffffffffffffffffffffffff83169081179091556040517f2c1c11af44aa5608f1dca38c00275c30ea091e02417d36e70e9a1538689c433d905f90a250565b5f82815260036020526040812054815b818110156111ad57836040516020016111289190612150565b604080517fffffffffffffffffffffffffffffffffffffffffffffffffffffffffffffffe081840301815282825280516020918201205f89815260018352838120868252835292909220919261117f92910161215b565b60405160208183030381529060405280519060200120036111a5576001925050506107d6565b60010161110f565b505f949350505050565b604080516060810182525f80825260208201819052918101919091525f8281526020819052604081206002015473ffffffffffffffffffffffffffffffffffffffff16611233576040517ff0367891000000000000000000000000000000000000000000000000000000008152600481018490526024016106d2565b50505f9081526020818152604080832060028084529382902054825160608101845282548152600183015473ffffffffffffffffffffffffffffffffffffffff90811695820195909552949091015490921690830152909161ffff90911690565b61129c611448565b73ffffffffffffffffffffffffffffffffffffffff81166112eb576040517f1e4fbdf70000000000000000000000000000000000000000000000000000000081525f60048201526024016106d2565b6112f48161178f565b50565b6112ff611448565b73ffffffffffffffffffffffffffffffffffffffff8116611364576040517f8e4c8aa600000000000000000000000000000000000000000000000000000000815273ffffffffffffffffffffffffffffffffffffffff821660048201526024016106d2565b5f8281526020819052604090206002015473ffffffffffffffffffffffffffffffffffffffff166113c4576040517ff0367891000000000000000000000000000000000000000000000000000000008152600481018390526024016106d2565b5f828152602081815260409182902060020180547fffffffffffffffffffffffff00000000000000000000000000000000000000001673ffffffffffffffffffffffffffffffffffffffff85169081179091558251858152918201527f54de289ae1a4d5208ffcf4486ace708e85bd33826931299723cc9bcb5f69ca689101610796565b336114877f9016d09d72d40fdae2fd8ceac6b6234c7706214fd39c1cd1e609a0528c1993005473ffffffffffffffffffffffffffffffffffffffff1690565b73ffffffffffffffffffffffffffffffffffffffff1614610b40576040517f118cdaa70000000000000000000000000000000000000000000000000000000081523360048201526024016106d2565b3073ffffffffffffffffffffffffffffffffffffffff7f00000000000000000000000000000000000000000000000000000000000000001614806115a357507f000000000000000000000000000000000000000000000000000000000000000073ffffffffffffffffffffffffffffffffffffffff1661158a7f360894a13ba1a3210667c828492db98dca3e2076cc3735a920a3ca505d382bbc5473ffffffffffffffffffffffffffffffffffffffff1690565b73ffffffffffffffffffffffffffffffffffffffff1614155b15610b40576040517fe07c8dba00000000000000000000000000000000000000000000000000000000815260040160405180910390fd5b6112f4611448565b8173ffffffffffffffffffffffffffffffffffffffff166352d1902d6040518163ffffffff1660e01b8152600401602060405180830381865afa925050508015611667575060408051601f3d9081017fffffffffffffffffffffffffffffffffffffffffffffffffffffffffffffffe0168201909252611664918101906121ea565b60015b6116b5576040517f4c9c8ce300000000000000000000000000000000000000000000000000000000815273ffffffffffffffffffffffffffffffffffffffff831660048201526024016106d2565b7f360894a13ba1a3210667c828492db98dca3e2076cc3735a920a3ca505d382bbc8114611711576040517faa1d49a4000000000000000000000000000000000000000000000000000000008152600481018290526024016106d2565b61171b838361183d565b505050565b3073ffffffffffffffffffffffffffffffffffffffff7f00000000000000000000000000000000000000000000000000000000000000001614610b40576040517fe07c8dba00000000000000000000000000000000000000000000000000000000815260040160405180910390fd5b7f9016d09d72d40fdae2fd8ceac6b6234c7706214fd39c1cd1e609a0528c19930080547fffffffffffffffffffffffff0000000000000000000000000000000000000000811673ffffffffffffffffffffffffffffffffffffffff848116918217845560405192169182907f8be0079c531659141344cd1fd0a4f28419497f9722a3daafe3b4186f6b6457e0905f90a3505050565b610b4061189f565b61183461189f565b6112f481611906565b6118468261190e565b60405173ffffffffffffffffffffffffffffffffffffffff8316907fbc7cd75a20ee27fd9adebab32041f755214dbc6bffa90cc0225b39da2e5c2d3b905f90a28051156118975761171b82826119dc565b610932611a5b565b7ff0c57e16840df040f15088dc2f81fe391c3923bec73e23a9662efc9c229c6a005468010000000000000000900460ff16610b40576040517fd7e6bcf800000000000000000000000000000000000000000000000000000000815260040160405180910390fd5b61129c61189f565b8073ffffffffffffffffffffffffffffffffffffffff163b5f03611976576040517f4c9c8ce300000000000000000000000000000000000000000000000000000000815273ffffffffffffffffffffffffffffffffffffffff821660048201526024016106d2565b7f360894a13ba1a3210667c828492db98dca3e2076cc3735a920a3ca505d382bbc80547fffffffffffffffffffffffff00000000000000000000000000000000000000001673ffffffffffffffffffffffffffffffffffffffff92909216919091179055565b60605f5f8473ffffffffffffffffffffffffffffffffffffffff1684604051611a059190612150565b5f60405180830381855af49150503d805f8114611a3d576040519150601f19603f3d011682016040523d82523d5f602084013e611a42565b606091505b5091509150611a52858383611a93565b95945050505050565b3415610b40576040517fb398979f00000000000000000000000000000000000000000000000000000000815260040160405180910390fd5b606082611aa857611aa382611b22565b610afa565b8151158015611acc575073ffffffffffffffffffffffffffffffffffffffff84163b155b15611b1b576040517f9996b31500000000000000000000000000000000000000000000000000000000815273ffffffffffffffffffffffffffffffffffffffff851660048201526024016106d2565b5080610afa565b805115611b325780518082602001fd5b6040517f1425ea4200000000000000000000000000000000000000000000000000000000815260040160405180910390fd5b803561ffff81168114611b75575f5ffd5b919050565b5f5f60408385031215611b8b575f5ffd5b82359150611b9b60208401611b64565b90509250929050565b73ffffffffffffffffffffffffffffffffffffffff811681146112f4575f5ffd5b5f5f60408385031215611bd6575f5ffd5b8235611be181611ba4565b946020939093013593505050565b7f4e487b71000000000000000000000000000000000000000000000000000000005f52604160045260245ffd5b5f5f67ffffffffffffffff841115611c3657611c36611bef565b506040517fffffffffffffffffffffffffffffffffffffffffffffffffffffffffffffffe0601f85018116603f0116810181811067ffffffffffffffff82111715611c8357611c83611bef565b604052838152905080828401851015611c9a575f5ffd5b838360208301375f60208583010152509392505050565b5f5f60408385031215611cc2575f5ffd5b82359150602083013567ffffffffffffffff811115611cdf575f5ffd5b8301601f81018513611cef575f5ffd5b611cfe85823560208401611c1c565b9150509250929050565b5f60208284031215611d18575f5ffd5b8135610afa81611ba4565b5f5f60408385031215611d34575f5ffd5b8235611d3f81611ba4565b9150602083013567ffffffffffffffff811115611cdf575f5ffd5b5f5f5f83850360a0811215611d6d575f5ffd5b8435935060607fffffffffffffffffffffffffffffffffffffffffffffffffffffffffffffffe082011215611da0575f5ffd5b506040516060810167ffffffffffffffff81118282101715611dc457611dc4611bef565b604090815260208601358252850135611ddc81611ba4565b60208201526060850135611def81611ba4565b60408201529150611e0260808501611b64565b90509250925092565b5f60208284031215611e1b575f5ffd5b5035919050565b5f5f60408385031215611e33575f5ffd5b50508035926020909101359150565b5f81518084528060208401602086015e5f6020828601015260207fffffffffffffffffffffffffffffffffffffffffffffffffffffffffffffffe0601f83011685010191505092915050565b602081525f610afa6020830184611e42565b5f5f60408385031215611eb1575f5ffd5b823591506020830135611ec381611ba4565b809150509250929050565b600181811c90821680611ee257607f821691505b602082108103611f19577f4e487b71000000000000000000000000000000000000000000000000000000005f52602260045260245ffd5b50919050565b601f82111561171b57805f5260205f20601f840160051c81016020851015611f445750805b601f840160051c820191505b81811015611f63575f8155600101611f50565b5050505050565b815167ffffffffffffffff811115611f8457611f84611bef565b611f9881611f928454611ece565b84611f1f565b6020601f821160018114611fe9575f8315611fb35750848201515b7fffffffffffffffffffffffffffffffffffffffffffffffffffffffffffffffff600385901b1c1916600184901b178455611f63565b5f848152602081207fffffffffffffffffffffffffffffffffffffffffffffffffffffffffffffffe08516915b828110156120365787850151825560209485019460019092019101612016565b508482101561207257868401517fffffffffffffffffffffffffffffffffffffffffffffffffffffffffffffffff600387901b60f8161c191681555b50505050600190811b01905550565b7f4e487b71000000000000000000000000000000000000000000000000000000005f52601160045260245ffd5b5f7fffffffffffffffffffffffffffffffffffffffffffffffffffffffffffffffff82036120de576120de612081565b5060010190565b828152604060208201525f6120fd6040830184611e42565b949350505050565b5f8161211357612113612081565b507fffffffffffffffffffffffffffffffffffffffffffffffffffffffffffffffff0190565b5f81518060208401855e5f93019283525090919050565b5f610afa8284612139565b5f5f835461216881611ece565b60018216801561217f57600181146121b2576121df565b7fffffffffffffffffffffffffffffffffffffffffffffffffffffffffffffff00831686528115158202860193506121df565b865f5260205f205f5b838110156121d7578154888201526001909101906020016121bb565b505081860193505b509195945050505050565b5f602082840312156121fa575f5ffd5b505191905056fea2646970667358221220d6cf49d97e8d57357793ce6970fb43746e35b92589c4663d892ee7e3ac263d3564736f6c634300081c0033","linkReferences":{}},"methodIdentifiers":{"MAX_FULFILLMENT_FEE_BASIS_POINTS()":"8ba6bf84","UPGRADE_INTERFACE_VERSION()":"ad3cb1cc","_fulfillerServiceCount(address)":"4eeebbd7","_fulfillerServices(address,uint256)":"4c770b58","_manager()":"f0329f6b","_serviceCount()":"1147883f","_serviceFulfillmentFeeBasisPoints(uint256)":"6c07360a","_serviceRefCount(uint256)":"eddef58e","_serviceRefs(uint256,uint256)":"79a22c20","_serviceRegistry(uint256)":"a9a6b305","addFulfiller(address,uint256)":"b34755ac","addService(uint256,(uint256,address,address),uint16)":"4f38e258","addServiceRef(uint256,string)":"3f8a7fe0","canFulfillerFulfill(address,uint256)":"1b9c660b","getService(uint256)":"ef0e239b","initialize(address)":"c4d66de8","isRefValid(uint256,string)":"d4a24703","owner()":"8da5cb5b","proxiableUUID()":"52d1902d","removeServiceAddress(uint256)":"9f660697","renounceOwnership()":"715018a6","setManager(address)":"d0ebdbe7","transferOwnership(address)":"f2fde38b","updateServiceBeneficiary(uint256,address)":"8b82ba78","updateServiceFulfiller(uint256,address)":"fb31fe80","updateServicefeeAmountBasisPoints(uint256,uint16)":"0cf4e14c","upgradeToAndCall(address,bytes)":"4f1ef286"},"id":9}