{"abi":[{"type":"constructor","inputs":[],"stateMutability":"nonpayable"},{"type":"function","name":"UPGRADE_INTERFACE_VERSION","inputs":[],"outputs":[{"name":"","type":"string","internalType":"string"}],"stateMutability":"view"},{"type":"function","name":"_swapFeeBasisPoints","inputs":[{"name":"","type":"address","internalType":"address"}],"outputs":[{"name":"","type":"uint16","internalType":"uint16"}],"stateMutability":"view"},{"type":"function","name":"addToken","inputs":[{"name":"token","type":"address","internalType":"address"},{"name":"swapFeeBasisPoints","type":"uint16","internalType":"uint16"}],"outputs":[],"stateMutability":"nonpayable"},{"type":"function","name":"initialize","inputs":[{"name":"initialOwner","type":"address","internalType":"address"}],"outputs":[],"stateMutability":"nonpayable"},{"type":"function","name":"isTokenWhitelisted","inputs":[{"name":"token","type":"address","internalType":"address"}],"outputs":[{"name":"","type":"bool","internalType":"bool"}],"stateMutability":"view"},{"type":"function","name":"owner","inputs":[],"outputs":[{"name":"","type":"address","internalType":"address"}],"stateMutability":"view"},{"type":"function","name":"proxiableUUID","inputs":[],"outputs":[{"name":"","type":"bytes32","internalType":"bytes32"}],"stateMutability":"view"},{"type":"function","name":"removeToken","inputs":[{"name":"token","type":"address","internalType":"address"}],"outputs":[],"stateMutability":"nonpayable"},{"type":"function","name":"renounceOwnership","inputs":[],"outputs":[],"stateMutability":"nonpayable"},{"type":"function","name":"transferOwnership","inputs":[{"name":"newOwner","type":"address","internalType":"address"}],"outputs":[],"stateMutability":"nonpayable"},{"type":"function","name":"updateSwapFeeBasisPoints","inputs":[{"name":"token","type":"address","internalType":"address"},{"name":"swapFeeBasisPoints","type":"uint16","internalType":"uint16"}],"outputs":[],"stateMutability":"nonpayable"},{"type":"function","name":"upgradeToAndCall","inputs":[{"name":"newImplementation","type":"address","internalType":"address"},{"name":"data","type":"bytes","internalType":"bytes"}],"outputs":[],"stateMutability":"payable"},{"type":"event","name":"Initialized","inputs":[{"name":"version","type":"uint64","indexed":false,"internalType":"uint64"}],"anonymous":false},{"type":"event","name":"OwnershipTransferred","inputs":[{"name":"previousOwner","type":"address","indexed":true,"internalType":"address"},{"name":"newOwner","type":"address","indexed":true,"internalType":"address"}],"anonymous":false},{"type":"event","name":"SwapFeeBasisPointsUpdated","inputs":[{"name":"token","type":"address","indexed":true,"internalType":"address"},{"name":"swapFeeBasisPoints","type":"uint16","indexed":false,"internalType":"uint16"}],"anonymous":false},{"type":"event","name":"TokenAdded","inputs":[{"name":"token","type":"address","indexed":true,"internalType":"address"},{"name":"swapFeeBasisPoints","type":"uint16","indexed":false,"internalType":"uint16"}],"anonymous":false},{"type":"event","name":"TokenRemoved","inputs":[{"name":"token","type":"address","indexed":true,"internalType":"address"}],"anonymous":false},{"type":"event","name":"Upgraded","inputs":[{"name":"implementation","type":"address","indexed":true,"internalType":"address"}],"anonymous":false},{"type":"error","name":"AddressEmptyCode","inputs":[{"name":"target","type":"address","internalType":"address"}]},{"type":"error","name":"ERC1967InvalidImplementation","inputs":[{"name":"implementation","type":"address","internalType":"address"}]},{"type":"error","name":"ERC1967NonPayable","inputs":[]},{"type":"error","name":"FailedInnerCall","inputs":[]},{"type":"error","name":"InvalidInitialization","inputs":[]},{"type":"error","name":"InvalidSwapFeeBasisPoints","inputs":[{"name":"swapFeeBasisPoints","type":"uint16","internalType":"uint16"}]},{"type":"error","name":"NotInitializing","inputs":[]},{"type":"error","name":"OwnableInvalidOwner","inputs":[{"name":"owner","type":"address","internalType":"address"}]},{"type":"error","name":"OwnableUnauthorizedAccount","inputs":[{"name":"account","type":"address","internalType":"address"}]},{"type":"error","name":"TokenAlreadyWhitelisted","inputs":[{"name":"token","type":"address","internalType":"address"}]},{"type":"error","name":"TokenNotWhitelisted","inputs":[{"name":"token","type":"address","internalType":"address"}]},{"type":"error","name":"UUPSUnauthorizedCallContext","inputs":[]},{"type":"error","name":"UUPSUnsupportedProxiableUUID","inputs":[{"name":"slot","type":"bytes32","internalType":"bytes32"}]}],"bytecode":{"object":"0x60a060405230608052348015610013575f5ffd5b5061001c610021565b6100d3565b7ff0c57e16840df040f15088dc2f81fe391c3923bec73e23a9662efc9c229c6a00805468010000000000000000900460ff16156100715760405163f92ee8a960e01b815260040160405180910390fd5b80546001600160401b03908116146100d05780546001600160401b0319166001600160401b0390811782556040519081527fc7f505b2f371ae2175ee4913f4499e1f2633a7b5936321eed1cdaeb6115181d29060200160405180910390a15b50565b6080516111c36100f95f395f818161085c015281816108850152610aa601526111c35ff3fe6080604052600436106100c3575f3560e01c8063ad3cb1cc11610071578063c4d66de81161004c578063c4d66de814610293578063db415390146102b2578063f2fde38b146102d1575f5ffd5b8063ad3cb1cc146101cb578063b5af090f14610220578063ba593d6414610274575f5ffd5b80635fa7b584116100a15780635fa7b58414610145578063715018a6146101645780638da5cb5b14610178575f5ffd5b80632b6eaf1a146100c75780634f1ef2861461010e57806352d1902d14610123575b5f5ffd5b3480156100d2575f5ffd5b506100f66100e1366004610f8b565b60016020525f908152604090205461ffff1681565b60405161ffff90911681526020015b60405180910390f35b61012161011c366004610fd1565b6102f0565b005b34801561012e575f5ffd5b5061013761030f565b604051908152602001610105565b348015610150575f5ffd5b5061012161015f366004610f8b565b61033d565b34801561016f575f5ffd5b50610121610433565b348015610183575f5ffd5b507f9016d09d72d40fdae2fd8ceac6b6234c7706214fd39c1cd1e609a0528c1993005460405173ffffffffffffffffffffffffffffffffffffffff9091168152602001610105565b3480156101d6575f5ffd5b506102136040518060400160405280600581526020017f352e302e3000000000000000000000000000000000000000000000000000000081525081565b60405161010591906110d2565b34801561022b575f5ffd5b5061026461023a366004610f8b565b73ffffffffffffffffffffffffffffffffffffffff165f9081526020819052604090205460ff1690565b6040519015158152602001610105565b34801561027f575f5ffd5b5061012161028e366004611125565b610446565b34801561029e575f5ffd5b506101216102ad366004610f8b565b610528565b3480156102bd575f5ffd5b506101216102cc366004611125565b6106ae565b3480156102dc575f5ffd5b506101216102eb366004610f8b565b6107e1565b6102f8610844565b61030182610948565b61030b8282610950565b5050565b5f610318610a8e565b507f360894a13ba1a3210667c828492db98dca3e2076cc3735a920a3ca505d382bbc90565b610345610afd565b73ffffffffffffffffffffffffffffffffffffffff81165f9081526020819052604090205460ff166103c0576040517fea3bff2e00000000000000000000000000000000000000000000000000000000815273ffffffffffffffffffffffffffffffffffffffff821660048201526024015b60405180910390fd5b73ffffffffffffffffffffffffffffffffffffffff81165f8181526020819052604080822080547fffffffffffffffffffffffffffffffffffffffffffffffffffffffffffffff00169055517f4c910b69fe65a61f7531b9c5042b2329ca7179c77290aa7e2eb3afa3c8511fd39190a250565b61043b610afd565b6104445f610b8b565b565b61044e610afd565b6127108161ffff16118061045f57505f5b1561049c576040517f6549fb6200000000000000000000000000000000000000000000000000000000815261ffff821660048201526024016103b7565b73ffffffffffffffffffffffffffffffffffffffff82165f8181526001602090815260409182902080547fffffffffffffffffffffffffffffffffffffffffffffffffffffffffffff00001661ffff861690811790915591519182527f6a786e029c46ac3c92cf35cc6085623298a1e6d641dbaf41ff12ed64709a356291015b60405180910390a25050565b7ff0c57e16840df040f15088dc2f81fe391c3923bec73e23a9662efc9c229c6a00805468010000000000000000810460ff16159067ffffffffffffffff165f811580156105725750825b90505f8267ffffffffffffffff16600114801561058e5750303b155b90508115801561059c575080155b156105d3576040517ff92ee8a900000000000000000000000000000000000000000000000000000000815260040160405180910390fd5b84547fffffffffffffffffffffffffffffffffffffffffffffffff000000000000000016600117855583156106345784547fffffffffffffffffffffffffffffffffffffffffffffff00ffffffffffffffff16680100000000000000001785555b61063c610c20565b61064586610c28565b83156106a65784547fffffffffffffffffffffffffffffffffffffffffffffff00ffffffffffffffff168555604051600181527fc7f505b2f371ae2175ee4913f4499e1f2633a7b5936321eed1cdaeb6115181d29060200160405180910390a15b505050505050565b6106b6610afd565b73ffffffffffffffffffffffffffffffffffffffff82165f9081526020819052604090205460ff161561072d576040517f01e2357500000000000000000000000000000000000000000000000000000000815273ffffffffffffffffffffffffffffffffffffffff831660048201526024016103b7565b73ffffffffffffffffffffffffffffffffffffffff82165f81815260208181526040808320805460017fffffffffffffffffffffffffffffffffffffffffffffffffffffffffffffff00909116811790915582529182902080547fffffffffffffffffffffffffffffffffffffffffffffffffffffffffffff00001661ffff861690811790915591519182527f78fc75a90b2d2aeb8c1d0cb138b1c62ac8390fae9e60666d4a7400fa263d47ea910161051c565b6107e9610afd565b73ffffffffffffffffffffffffffffffffffffffff8116610838576040517f1e4fbdf70000000000000000000000000000000000000000000000000000000081525f60048201526024016103b7565b61084181610b8b565b50565b3073ffffffffffffffffffffffffffffffffffffffff7f000000000000000000000000000000000000000000000000000000000000000016148061091157507f000000000000000000000000000000000000000000000000000000000000000073ffffffffffffffffffffffffffffffffffffffff166108f87f360894a13ba1a3210667c828492db98dca3e2076cc3735a920a3ca505d382bbc5473ffffffffffffffffffffffffffffffffffffffff1690565b73ffffffffffffffffffffffffffffffffffffffff1614155b15610444576040517fe07c8dba00000000000000000000000000000000000000000000000000000000815260040160405180910390fd5b610841610afd565b8173ffffffffffffffffffffffffffffffffffffffff166352d1902d6040518163ffffffff1660e01b8152600401602060405180830381865afa9250505080156109d5575060408051601f3d9081017fffffffffffffffffffffffffffffffffffffffffffffffffffffffffffffffe01682019092526109d291810190611160565b60015b610a23576040517f4c9c8ce300000000000000000000000000000000000000000000000000000000815273ffffffffffffffffffffffffffffffffffffffff831660048201526024016103b7565b7f360894a13ba1a3210667c828492db98dca3e2076cc3735a920a3ca505d382bbc8114610a7f576040517faa1d49a4000000000000000000000000000000000000000000000000000000008152600481018290526024016103b7565b610a898383610c39565b505050565b3073ffffffffffffffffffffffffffffffffffffffff7f00000000000000000000000000000000000000000000000000000000000000001614610444576040517fe07c8dba00000000000000000000000000000000000000000000000000000000815260040160405180910390fd5b33610b3c7f9016d09d72d40fdae2fd8ceac6b6234c7706214fd39c1cd1e609a0528c1993005473ffffffffffffffffffffffffffffffffffffffff1690565b73ffffffffffffffffffffffffffffffffffffffff1614610444576040517f118cdaa70000000000000000000000000000000000000000000000000000000081523360048201526024016103b7565b7f9016d09d72d40fdae2fd8ceac6b6234c7706214fd39c1cd1e609a0528c19930080547fffffffffffffffffffffffff0000000000000000000000000000000000000000811673ffffffffffffffffffffffffffffffffffffffff848116918217845560405192169182907f8be0079c531659141344cd1fd0a4f28419497f9722a3daafe3b4186f6b6457e0905f90a3505050565b610444610c9b565b610c30610c9b565b61084181610d02565b610c4282610d0a565b60405173ffffffffffffffffffffffffffffffffffffffff8316907fbc7cd75a20ee27fd9adebab32041f755214dbc6bffa90cc0225b39da2e5c2d3b905f90a2805115610c9357610a898282610dd8565b61030b610e57565b7ff0c57e16840df040f15088dc2f81fe391c3923bec73e23a9662efc9c229c6a005468010000000000000000900460ff16610444576040517fd7e6bcf800000000000000000000000000000000000000000000000000000000815260040160405180910390fd5b6107e9610c9b565b8073ffffffffffffffffffffffffffffffffffffffff163b5f03610d72576040517f4c9c8ce300000000000000000000000000000000000000000000000000000000815273ffffffffffffffffffffffffffffffffffffffff821660048201526024016103b7565b7f360894a13ba1a3210667c828492db98dca3e2076cc3735a920a3ca505d382bbc80547fffffffffffffffffffffffff00000000000000000000000000000000000000001673ffffffffffffffffffffffffffffffffffffffff92909216919091179055565b60605f5f8473ffffffffffffffffffffffffffffffffffffffff1684604051610e019190611177565b5f60405180830381855af49150503d805f8114610e39576040519150601f19603f3d011682016040523d82523d5f602084013e610e3e565b606091505b5091509150610e4e858383610e8f565b95945050505050565b3415610444576040517fb398979f00000000000000000000000000000000000000000000000000000000815260040160405180910390fd5b606082610ea457610e9f82610f21565b610f1a565b8151158015610ec8575073ffffffffffffffffffffffffffffffffffffffff84163b155b15610f17576040517f9996b31500000000000000000000000000000000000000000000000000000000815273ffffffffffffffffffffffffffffffffffffffff851660048201526024016103b7565b50805b9392505050565b805115610f315780518082602001fd5b6040517f1425ea4200000000000000000000000000000000000000000000000000000000815260040160405180910390fd5b803573ffffffffffffffffffffffffffffffffffffffff81168114610f86575f5ffd5b919050565b5f60208284031215610f9b575f5ffd5b610f1a82610f63565b7f4e487b71000000000000000000000000000000000000000000000000000000005f52604160045260245ffd5b5f5f60408385031215610fe2575f5ffd5b610feb83610f63565b9150602083013567ffffffffffffffff811115611006575f5ffd5b8301601f81018513611016575f5ffd5b803567ffffffffffffffff81111561103057611030610fa4565b6040517fffffffffffffffffffffffffffffffffffffffffffffffffffffffffffffffe0603f7fffffffffffffffffffffffffffffffffffffffffffffffffffffffffffffffe0601f8501160116810181811067ffffffffffffffff8211171561109c5761109c610fa4565b6040528181528282016020018710156110b3575f5ffd5b816020840160208301375f602083830101528093505050509250929050565b602081525f82518060208401528060208501604085015e5f6040828501015260407fffffffffffffffffffffffffffffffffffffffffffffffffffffffffffffffe0601f83011684010191505092915050565b5f5f60408385031215611136575f5ffd5b61113f83610f63565b9150602083013561ffff81168114611155575f5ffd5b809150509250929050565b5f60208284031215611170575f5ffd5b5051919050565b5f82518060208501845e5f92019182525091905056fea264697066735822122017d2f76bd44b688ff7b2165865a6f83bd96452cfaf3f0682accaaab05f95c7df64736f6c634300081c0033","linkReferences":{}},"methodIdentifiers":{"UPGRADE_INTERFACE_VERSION()":"ad3cb1cc","_swapFeeBasisPoints(address)":"2b6eaf1a","addToken(address,uint16)":"db415390","initialize(address)":"c4d66de8","isTokenWhitelisted(address)":"b5af090f","owner()":"8da5cb5b","proxiableUUID()":"52d1902d","removeToken(address)":"5fa7b584","renounceOwnership()":"715018a6","transferOwnership(address)":"f2fde38b","updateSwapFeeBasisPoints(address,uint16)":"ba593d64","upgradeToAndCall(address,bytes)":"4f1ef286"},"id":8}