{"abi":[{"type":"constructor","inputs":[],"stateMutability":"nonpayable"},{"type":"function","name":"UPGRADE_INTERFACE_VERSION","inputs":[],"outputs":[{"name":"","type":"string","internalType":"string"}],"stateMutability":"view"},{"type":"function","name":"_accumulatedFees","inputs":[{"name":"","type":"uint256","internalType":"uint256"}],"outputs":[{"name":"","type":"uint256","internalType":"uint256"}],"stateMutability":"view"},{"type":"function","name":"_authorized_refunds","inputs":[{"name":"","type":"uint256","internalType":"uint256"},{"name":"","type":"address","internalType":"address"}],"outputs":[{"name":"","type":"uint256","internalType":"uint256"}],"stateMutability":"view"},{"type":"function","name":"_deposits","inputs":[{"name":"","type":"uint256","internalType":"uint256"},{"name":"","type":"address","internalType":"address"}],"outputs":[{"name":"","type":"uint256","internalType":"uint256"}],"stateMutability":"view"},{"type":"function","name":"_fulfillableRegistry","inputs":[],"outputs":[{"name":"","type":"address","internalType":"address"}],"stateMutability":"view"},{"type":"function","name":"_manager","inputs":[],"outputs":[{"name":"","type":"address","internalType":"address"}],"stateMutability":"view"},{"type":"function","name":"_releaseablePool","inputs":[{"name":"","type":"uint256","internalType":"uint256"}],"outputs":[{"name":"","type":"uint256","internalType":"uint256"}],"stateMutability":"view"},{"type":"function","name":"_router","inputs":[],"outputs":[{"name":"","type":"address","internalType":"address"}],"stateMutability":"view"},{"type":"function","name":"beneficiaryWithdraw","inputs":[{"name":"serviceID","type":"uint256","internalType":"uint256"}],"outputs":[],"stateMutability":"nonpayable"},{"type":"function","name":"deposit","inputs":[{"name":"serviceID","type":"uint256","internalType":"uint256"},{"name":"fulfillmentRequest","type":"tuple","internalType":"struct FulFillmentRequest","components":[{"name":"payer","type":"address","internalType":"address"},{"name":"weiAmount","type":"uint256","internalType":"uint256"},{"name":"fiatAmount","type":"uint256","internalType":"uint256"},{"name":"serviceRef","type":"string","internalType":"string"}]},{"name":"feeAmount","type":"uint256","internalType":"uint256"}],"outputs":[],"stateMutability":"payable"},{"type":"function","name":"getDepositsFor","inputs":[{"name":"payer","type":"address","internalType":"address"},{"name":"serviceID","type":"uint256","internalType":"uint256"}],"outputs":[{"name":"amount","type":"uint256","internalType":"uint256"}],"stateMutability":"view"},{"type":"function","name":"getNativeFeesFor","inputs":[{"name":"serviceId","type":"uint256","internalType":"uint256"}],"outputs":[{"name":"amount","type":"uint256","internalType":"uint256"}],"stateMutability":"view"},{"type":"function","name":"getRefundsFor","inputs":[{"name":"payer","type":"address","internalType":"address"},{"name":"serviceID","type":"uint256","internalType":"uint256"}],"outputs":[{"name":"amount","type":"uint256","internalType":"uint256"}],"stateMutability":"view"},{"type":"function","name":"initialize","inputs":[],"outputs":[],"stateMutability":"nonpayable"},{"type":"function","name":"owner","inputs":[],"outputs":[{"name":"","type":"address","internalType":"address"}],"stateMutability":"view"},{"type":"function","name":"proxiableUUID","inputs":[],"outputs":[{"name":"","type":"bytes32","internalType":"bytes32"}],"stateMutability":"view"},{"type":"function","name":"record","inputs":[{"name":"id","type":"uint256","internalType":"uint256"}],"outputs":[{"name":"","type":"tuple","internalType":"struct FulFillmentRecord","components":[{"name":"id","type":"uint256","internalType":"uint256"},{"name":"serviceRef","type":"string","internalType":"string"},{"name":"fulfiller","type":"address","internalType":"address"},{"name":"externalID","type":"string","internalType":"string"},{"name":"payer","type":"address","internalType":"address"},{"name":"weiAmount","type":"uint256","internalType":"uint256"},{"name":"feeAmount","type":"uint256","internalType":"uint256"},{"name":"fiatAmount","type":"uint256","internalType":"uint256"},{"name":"entryTime","type":"uint256","internalType":"uint256"},{"name":"receiptURI","type":"string","internalType":"string"},{"name":"status","type":"uint8","internalType":"enum FulFillmentResultState"}]}],"stateMutability":"view"},{"type":"function","name":"recordsOf","inputs":[{"name":"payer","type":"address","internalType":"address"}],"outputs":[{"name":"","type":"uint256[]","internalType":"uint256[]"}],"stateMutability":"view"},{"type":"function","name":"registerFulfillment","inputs":[{"name":"serviceID","type":"uint256","internalType":"uint256"},{"name":"fulfillment","type":"tuple","internalType":"struct FulFillmentResult","components":[{"name":"id","type":"uint256","internalType":"uint256"},{"name":"externalID","type":"string","internalType":"string"},{"name":"receiptURI","type":"string","internalType":"string"},{"name":"status","type":"uint8","internalType":"enum FulFillmentResultState"}]}],"outputs":[{"name":"","type":"bool","internalType":"bool"}],"stateMutability":"nonpayable"},{"type":"function","name":"renounceOwnership","inputs":[],"outputs":[],"stateMutability":"nonpayable"},{"type":"function","name":"setFulfillableRegistry","inputs":[{"name":"fulfillableRegistry_","type":"address","internalType":"address"}],"outputs":[],"stateMutability":"nonpayable"},{"type":"function","name":"setManager","inputs":[{"name":"manager_","type":"address","internalType":"address"}],"outputs":[],"stateMutability":"nonpayable"},{"type":"function","name":"setRouter","inputs":[{"name":"router_","type":"address","internalType":"address"}],"outputs":[],"stateMutability":"nonpayable"},{"type":"function","name":"transferOwnership","inputs":[{"name":"newOwner","type":"address","internalType":"address"}],"outputs":[],"stateMutability":"nonpayable"},{"type":"function","name":"upgradeToAndCall","inputs":[{"name":"newImplementation","type":"address","internalType":"address"},{"name":"data","type":"bytes","internalType":"bytes"}],"outputs":[],"stateMutability":"payable"},{"type":"function","name":"withdrawAccumulatedFees","inputs":[{"name":"serviceId","type":"uint256","internalType":"uint256"}],"outputs":[],"stateMutability":"nonpayable"},{"type":"function","name":"withdrawRefund","inputs":[{"name":"serviceID","type":"uint256","internalType":"uint256"},{"name":"refundee","type":"address","internalType":"address payable"}],"outputs":[{"name":"","type":"bool","internalType":"bool"}],"stateMutability":"nonpayable"},{"type":"event","name":"DepositReceived","inputs":[{"name":"record","type":"tuple","indexed":false,"internalType":"struct FulFillmentRecord","components":[{"name":"id","type":"uint256","internalType":"uint256"},{"name":"serviceRef","type":"string","internalType":"string"},{"name":"fulfiller","type":"address","internalType":"address"},{"name":"externalID","type":"string","internalType":"string"},{"name":"payer","type":"address","internalType":"address"},{"name":"weiAmount","type":"uint256","internalType":"uint256"},{"name":"feeAmount","type":"uint256","internalType":"uint256"},{"name":"fiatAmount","type":"uint256","internalType":"uint256"},{"name":"entryTime","type":"uint256","internalType":"uint256"},{"name":"receiptURI","type":"string","internalType":"string"},{"name":"status","type":"uint8","internalType":"enum FulFillmentResultState"}]}],"anonymous":false},{"type":"event","name":"FeeUpdated","inputs":[{"name":"serviceID","type":"uint256","indexed":false,"internalType":"uint256"},{"name":"amount","type":"uint256","indexed":false,"internalType":"uint256"}],"anonymous":false},{"type":"event","name":"FeesWithdrawn","inputs":[{"name":"serviceId","type":"uint256","indexed":true,"internalType":"uint256"},{"name":"beneficiary","type":"address","indexed":false,"internalType":"address"},{"name":"amount","type":"uint256","indexed":false,"internalType":"uint256"}],"anonymous":false},{"type":"event","name":"FulfillableRegistryUpdated","inputs":[{"name":"fulfillableRegistry","type":"address","indexed":true,"internalType":"address"}],"anonymous":false},{"type":"event","name":"Initialized","inputs":[{"name":"version","type":"uint64","indexed":false,"internalType":"uint64"}],"anonymous":false},{"type":"event","name":"ManagerUpdated","inputs":[{"name":"manager","type":"address","indexed":true,"internalType":"address"}],"anonymous":false},{"type":"event","name":"OwnershipTransferred","inputs":[{"name":"previousOwner","type":"address","indexed":true,"internalType":"address"},{"name":"newOwner","type":"address","indexed":true,"internalType":"address"}],"anonymous":false},{"type":"event","name":"RefundAuthorized","inputs":[{"name":"payee","type":"address","indexed":true,"internalType":"address"},{"name":"weiAmount","type":"uint256","indexed":false,"internalType":"uint256"}],"anonymous":false},{"type":"event","name":"RefundWithdrawn","inputs":[{"name":"payee","type":"address","indexed":true,"internalType":"address"},{"name":"weiAmount","type":"uint256","indexed":false,"internalType":"uint256"}],"anonymous":false},{"type":"event","name":"RouterUpdated","inputs":[{"name":"router","type":"address","indexed":true,"internalType":"address"}],"anonymous":false},{"type":"event","name":"Upgraded","inputs":[{"name":"implementation","type":"address","indexed":true,"internalType":"address"}],"anonymous":false},{"type":"error","name":"AddressEmptyCode","inputs":[{"name":"target","type":"address","internalType":"address"}]},{"type":"error","name":"AddressInsufficientBalance","inputs":[{"name":"account","type":"address","internalType":"address"}]},{"type":"error","name":"ERC1967InvalidImplementation","inputs":[{"name":"implementation","type":"address","internalType":"address"}]},{"type":"error","name":"ERC1967NonPayable","inputs":[]},{"type":"error","name":"FailedInnerCall","inputs":[]},{"type":"error","name":"FulfillmentAlreadyRegistered","inputs":[]},{"type":"error","name":"FulfillmentRecordDoesNotExist","inputs":[]},{"type":"error","name":"InvalidAddress","inputs":[{"name":"address_","type":"address","internalType":"address"}]},{"type":"error","name":"InvalidInitialization","inputs":[]},{"type":"error","name":"InvalidManager","inputs":[{"name":"manager","type":"address","internalType":"address"}]},{"type":"error","name":"InvalidRouter","inputs":[{"name":"router_","type":"address","internalType":"address"}]},{"type":"error","name":"NoBalanceToRelease","inputs":[]},{"type":"error","name":"NoFeesToWithdraw","inputs":[]},{"type":"error","name":"NoRefunds","inputs":[{"name":"refundee","type":"address","internalType":"address"},{"name":"serviceID","type":"uint256","internalType":"uint256"}]},{"type":"error","name":"NotInitializing","inputs":[]},{"type":"error","name":"Overflow","inputs":[{"name":"reason","type":"uint8","internalType":"uint8"}]},{"type":"error","name":"OwnableInvalidOwner","inputs":[{"name":"owner","type":"address","internalType":"address"}]},{"type":"error","name":"OwnableUnauthorizedAccount","inputs":[{"name":"account","type":"address","internalType":"address"}]},{"type":"error","name":"ReentrancyGuardReentrantCall","inputs":[]},{"type":"error","name":"RefundsTooBig","inputs":[]},{"type":"error","name":"UUPSUnauthorizedCallContext","inputs":[]},{"type":"error","name":"UUPSUnsupportedProxiableUUID","inputs":[{"name":"slot","type":"bytes32","internalType":"bytes32"}]},{"type":"error","name":"UnsupportedStatus","inputs":[{"name":"status","type":"uint8","internalType":"enum FulFillmentResultState"}]}],"bytecode":{"object":"0x60a060405230608052348015610013575f5ffd5b5061001c610021565b6100d3565b7ff0c57e16840df040f15088dc2f81fe391c3923bec73e23a9662efc9c229c6a00805468010000000000000000900460ff16156100715760405163f92ee8a960e01b815260040160405180910390fd5b80546001600160401b03908116146100d05780546001600160401b0319166001600160401b0390811782556040519081527fc7f505b2f371ae2175ee4913f4499e1f2633a7b5936321eed1cdaeb6115181d29060200160405180910390a15b50565b608051612ffe6100f95f395f8181611d0a01528181611d330152611f4f0152612ffe5ff3fe6080604052600436106101a4575f3560e01c8063ae4d49ba116100e7578063dbc85c5a11610087578063e5b7e2b411610062578063e5b7e2b4146105a8578063edae876f146105d4578063f0329f6b14610600578063f2fde38b1461062c575f5ffd5b8063dbc85c5a14610528578063e428c80214610547578063e53025ed1461057d575f5ffd5b8063c0d78655116100c2578063c0d786551461047f578063cebae8101461049e578063d0ebdbe7146104bd578063d4b59fed146104dc575f5ffd5b8063ae4d49ba14610416578063b4b9bb7c14610441578063b7aeb6ef14610460575f5ffd5b8063596e250d116101525780638129fc1c1161012d5780638129fc1c14610339578063857e57f61461034d5780638da5cb5b14610378578063ad3cb1cc146103c1575f5ffd5b8063596e250d146102dc5780636928c27114610312578063715018a614610325575f5ffd5b80634248d5b8116101825780634248d5b8146102845780634f1ef286146102b357806352d1902d146102c8575f5ffd5b80630b28a076146101a85780630c4393b9146102075780632c16cd8a14610258575b5f5ffd5b3480156101b3575f5ffd5b506101f46101c2366004612783565b5f908152600b6020908152604080832073ffffffffffffffffffffffffffffffffffffffff9094168352929052205490565b6040519081526020015b60405180910390f35b348015610212575f5ffd5b506006546102339073ffffffffffffffffffffffffffffffffffffffff1681565b60405173ffffffffffffffffffffffffffffffffffffffff90911681526020016101fe565b348015610263575f5ffd5b506102776102723660046127ad565b61064b565b6040516101fe9190612876565b34801561028f575f5ffd5b506102a361029e3660046129b0565b6108cc565b60405190151581526020016101fe565b6102c66102c1366004612ac9565b610a22565b005b3480156102d3575f5ffd5b506101f4610a41565b3480156102e7575f5ffd5b506101f46102f63660046129b0565b600b60209081525f928352604080842090915290825290205481565b6102c6610320366004612b47565b610a6f565b348015610330575f5ffd5b506102c6610ebf565b348015610344575f5ffd5b506102c6610ed2565b348015610358575f5ffd5b506101f46103673660046127ad565b5f9081526009602052604090205490565b348015610383575f5ffd5b507f9016d09d72d40fdae2fd8ceac6b6234c7706214fd39c1cd1e609a0528c1993005473ffffffffffffffffffffffffffffffffffffffff16610233565b3480156103cc575f5ffd5b506104096040518060400160405280600581526020017f352e302e3000000000000000000000000000000000000000000000000000000081525081565b6040516101fe9190612bed565b348015610421575f5ffd5b506101f46104303660046127ad565b60086020525f908152604090205481565b34801561044c575f5ffd5b506102a361045b366004612bff565b611063565b34801561046b575f5ffd5b506102c661047a3660046127ad565b6114db565b34801561048a575f5ffd5b506102c6610499366004612cc5565b6116cd565b3480156104a9575f5ffd5b506102c66104b83660046127ad565b6117a8565b3480156104c8575f5ffd5b506102c66104d7366004612cc5565b61193f565b3480156104e7575f5ffd5b506101f46104f6366004612783565b5f908152600a6020908152604080832073ffffffffffffffffffffffffffffffffffffffff9094168352929052205490565b348015610533575f5ffd5b506102c6610542366004612cc5565b611a1a565b348015610552575f5ffd5b506101f46105613660046129b0565b600a60209081525f928352604080842090915290825290205481565b348015610588575f5ffd5b506101f46105973660046127ad565b60096020525f908152604090205481565b3480156105b3575f5ffd5b506105c76105c2366004612cc5565b611b01565b6040516101fe9190612ce0565b3480156105df575f5ffd5b506005546102339073ffffffffffffffffffffffffffffffffffffffff1681565b34801561060b575f5ffd5b506004546102339073ffffffffffffffffffffffffffffffffffffffff1681565b348015610637575f5ffd5b506102c6610646366004612cc5565b611b77565b6106536126d4565b5f82815260016020818152604092839020835161016081019094528054845291820180549184019161068490612d22565b80601f01602080910402602001604051908101604052809291908181526020018280546106b090612d22565b80156106fb5780601f106106d2576101008083540402835291602001916106fb565b820191905f5260205f20905b8154815290600101906020018083116106de57829003601f168201915b5050509183525050600282015473ffffffffffffffffffffffffffffffffffffffff16602082015260038201805460409092019161073890612d22565b80601f016020809104026020016040519081016040528092919081815260200182805461076490612d22565b80156107af5780601f10610786576101008083540402835291602001916107af565b820191905f5260205f20905b81548152906001019060200180831161079257829003601f168201915b5050509183525050600482015473ffffffffffffffffffffffffffffffffffffffff166020820152600582015460408201526006820154606082015260078201546080820152600882015460a082015260098201805460c09092019161081490612d22565b80601f016020809104026020016040519081016040528092919081815260200182805461084090612d22565b801561088b5780601f106108625761010080835404028352916020019161088b565b820191905f5260205f20905b81548152906001019060200180831161086e57829003601f168201915b5050509183525050600a82015460209091019060ff1660028111156108b2576108b2612810565b60028111156108c3576108c3612810565b90525092915050565b5f6108d5611bd7565b60055473ffffffffffffffffffffffffffffffffffffffff16331461092d576040517fd7f733340000000000000000000000000000000000000000000000000000000081523360048201526024015b60405180910390fd5b5f838152600b6020908152604080832073ffffffffffffffffffffffffffffffffffffffff86168452909152812054908190036109b5576040517fd89b7b0400000000000000000000000000000000000000000000000000000000815273ffffffffffffffffffffffffffffffffffffffff8416600482015260248101859052604401610924565b5f848152600b6020908152604080832073ffffffffffffffffffffffffffffffffffffffff871684529091528120556109ee8382611c58565b6001915050610a1c60017f9b779b17422d0df92223018b32b4d1fa46e071723d6817e2486d003becc55f0055565b92915050565b610a2a611cf2565b610a3382611df6565b610a3d8282611dfe565b5050565b5f610a4a611f37565b507f360894a13ba1a3210667c828492db98dca3e2076cc3735a920a3ca505d382bbc90565b610a77611bd7565b60055473ffffffffffffffffffffffffffffffffffffffff163314610aca576040517fd7f73334000000000000000000000000000000000000000000000000000000008152336004820152602401610924565b6007546040517fef0e239b000000000000000000000000000000000000000000000000000000008152600481018590525f9173ffffffffffffffffffffffffffffffffffffffff169063ef0e239b90602401608060405180830381865afa158015610b37573d5f5f3e3d5ffd5b505050506040513d601f19601f82011682018060405250810190610b5b9190612d73565b5083515f868152600a6020908152604080832073ffffffffffffffffffffffffffffffffffffffff90941683529290529081205491925034919080610ba08484611fa6565b9150915081610bde576040517fc0d7d3cc00000000000000000000000000000000000000000000000000000000815260066004820152602401610924565b86515f898152600a6020908152604080832073ffffffffffffffffffffffffffffffffffffffff94851684528252808320859055805161016081018252835481526060808d0151828501528a83015186168284015282518085018452858152908201528b519094166080850152818b015160a085015260c084018a9052808b015160e085015242610100850152805191820190528181526101208301529061014081016002815250905060015f5f828254610c999190612dfa565b92505081905550600160035f828254610cb29190612dfa565b909155505080515f9081526001602081815260409092208351815591830151839291820190610ce19082612e76565b5060408201516002820180547fffffffffffffffffffffffff00000000000000000000000000000000000000001673ffffffffffffffffffffffffffffffffffffffff90921691909117905560608201516003820190610d419082612e76565b5060808201516004820180547fffffffffffffffffffffffff00000000000000000000000000000000000000001673ffffffffffffffffffffffffffffffffffffffff90921691909117905560a0820151600582015560c0820151600682015560e0820151600782015561010082015160088201556101208201516009820190610dcb9082612e76565b50610140820151600a820180547fffffffffffffffffffffffffffffffffffffffffffffffffffffffffffffff00166001836002811115610e0e57610e0e612810565b02179055505050608081015173ffffffffffffffffffffffffffffffffffffffff165f908152600260209081526040808320845181546001810183559185529290932090920155517f600d16f62674ed495bf7267a98a253325b6f464cbc486bf1b9a66e101551e4e590610e83908390612876565b60405180910390a1505050505050610eba60017f9b779b17422d0df92223018b32b4d1fa46e071723d6817e2486d003becc55f0055565b505050565b610ec7611fcd565b610ed05f61205b565b565b7ff0c57e16840df040f15088dc2f81fe391c3923bec73e23a9662efc9c229c6a00805468010000000000000000810460ff16159067ffffffffffffffff165f81158015610f1c5750825b90505f8267ffffffffffffffff166001148015610f385750303b155b905081158015610f46575080155b15610f7d576040517ff92ee8a900000000000000000000000000000000000000000000000000000000815260040160405180910390fd5b84547fffffffffffffffffffffffffffffffffffffffffffffffff00000000000000001660011785558315610fde5784547fffffffffffffffffffffffffffffffffffffffffffffff00ffffffffffffffff16680100000000000000001785555b610fe7336120f0565b610fef612101565b610ff7612109565b60015f55831561105c5784547fffffffffffffffffffffffffffffffffffffffffffffff00ffffffffffffffff168555604051600181527fc7f505b2f371ae2175ee4913f4499e1f2633a7b5936321eed1cdaeb6115181d29060200160405180910390a15b5050505050565b5f61106c611bd7565b60045473ffffffffffffffffffffffffffffffffffffffff1633146110bf576040517f294f8a17000000000000000000000000000000000000000000000000000000008152336004820152602401610924565b81515f908152600160205260408120549003611107576040517f54446f7100000000000000000000000000000000000000000000000000000000815260040160405180910390fd5b600282515f908152600160205260409020600a015460ff16600281111561113057611130612810565b14611167576040517fcdc7646400000000000000000000000000000000000000000000000000000000815260040160405180910390fd5b81515f90815260016020818152604080842060040154878552600a835281852073ffffffffffffffffffffffffffffffffffffffff909116808652908352818520548751865293909252808420600501548651855290842060060154919390916111d2908390611fa6565b91505f9050866060015160028111156111ed576111ed612810565b0361125c576111fd878583612119565b606086015186515f908152600160208190526040909120600a01805490917fffffffffffffffffffffffffffffffffffffffffffffffffffffffffffffff009091169083600281111561125257611252612810565b02179055506114aa565b60018660600151600281111561127457611274612810565b146112b15785606001516040517fab8cc2a80000000000000000000000000000000000000000000000000000000081526004016109249190612f8d565b85515f908152600160209081526040808320600601548a8452600990925282205482916112de9190611fa6565b915091508161131c576040517fc0d7d3cc00000000000000000000000000000000000000000000000000000000815260036004820152602401610924565b5f898152600960209081526040808320849055600890915281205481906113439087611fa6565b9150915081611380576040517fc0d7d3cc000000000000000000000000000000000000000000000000000000008152600481810152602401610924565b5f8061138c89886122b0565b91509150816113ca576040517fc0d7d3cc00000000000000000000000000000000000000000000000000000000815260056004820152602401610924565b5f8d8152600860209081526040808320869055600a825280832073ffffffffffffffffffffffffffffffffffffffff8e16845282528083208490558e8101518f5184526001909252909120600901906114239082612e76565b5060608c01518c515f908152600160208190526040909120600a01805490917fffffffffffffffffffffffffffffffffffffffffffffffffffffffffffffff009091169083600281111561147957611479612810565b02179055506020808d01518d515f90815260019092526040909120600301906114a29082612e76565b505050505050505b6001945050505050610a1c60017f9b779b17422d0df92223018b32b4d1fa46e071723d6817e2486d003becc55f0055565b6114e3611bd7565b60045473ffffffffffffffffffffffffffffffffffffffff163314611536576040517f294f8a17000000000000000000000000000000000000000000000000000000008152336004820152602401610924565b6007546040517fef0e239b000000000000000000000000000000000000000000000000000000008152600481018390525f9173ffffffffffffffffffffffffffffffffffffffff169063ef0e239b90602401608060405180830381865afa1580156115a3573d5f5f3e3d5ffd5b505050506040513d601f19601f820116820180604052508101906115c79190612d73565b505f83815260096020526040812054919250819003611612576040517f6806da6800000000000000000000000000000000000000000000000000000000815260040160405180910390fd5b5f8381526009602090815260408220919091558201516116489073ffffffffffffffffffffffffffffffffffffffff16826122d0565b6020808301516040805173ffffffffffffffffffffffffffffffffffffffff909216825291810183905284917f538e1189c5c6413ddd9194fe5e947ef693ea737bd368a9e0aca4c286854c9bd8910160405180910390a250506116ca60017f9b779b17422d0df92223018b32b4d1fa46e071723d6817e2486d003becc55f0055565b50565b6116d5611fcd565b73ffffffffffffffffffffffffffffffffffffffff811661173a576040517f8e4c8aa600000000000000000000000000000000000000000000000000000000815273ffffffffffffffffffffffffffffffffffffffff82166004820152602401610924565b600580547fffffffffffffffffffffffff00000000000000000000000000000000000000001673ffffffffffffffffffffffffffffffffffffffff83169081179091556040517f7aed1d3e8155a07ccf395e44ea3109a0e2d6c9b29bbbe9f142d9790596f4dc80905f90a250565b6117b0611bd7565b60045473ffffffffffffffffffffffffffffffffffffffff163314611803576040517f294f8a17000000000000000000000000000000000000000000000000000000008152336004820152602401610924565b6007546040517fef0e239b000000000000000000000000000000000000000000000000000000008152600481018390525f9173ffffffffffffffffffffffffffffffffffffffff169063ef0e239b90602401608060405180830381865afa158015611870573d5f5f3e3d5ffd5b505050506040513d601f19601f820116820180604052508101906118949190612d73565b505f83815260086020526040812054919250036118dd576040517f6e7e9ea500000000000000000000000000000000000000000000000000000000815260040160405180910390fd5b5f828152600860209081526040822080549290558201516119149073ffffffffffffffffffffffffffffffffffffffff16826122d0565b50506116ca60017f9b779b17422d0df92223018b32b4d1fa46e071723d6817e2486d003becc55f0055565b611947611fcd565b73ffffffffffffffffffffffffffffffffffffffff81166119ac576040517f8e4c8aa600000000000000000000000000000000000000000000000000000000815273ffffffffffffffffffffffffffffffffffffffff82166004820152602401610924565b600480547fffffffffffffffffffffffff00000000000000000000000000000000000000001673ffffffffffffffffffffffffffffffffffffffff83169081179091556040517f2c1c11af44aa5608f1dca38c00275c30ea091e02417d36e70e9a1538689c433d905f90a250565b611a22611fcd565b73ffffffffffffffffffffffffffffffffffffffff8116611a87576040517f8e4c8aa600000000000000000000000000000000000000000000000000000000815273ffffffffffffffffffffffffffffffffffffffff82166004820152602401610924565b6006805473ffffffffffffffffffffffffffffffffffffffff83167fffffffffffffffffffffffff0000000000000000000000000000000000000000918216811790925560078054909116821790556040517f12fd82a8fae6400d0456d521504e56c94dd90726268fd158b0584ec682e1b5b1905f90a250565b73ffffffffffffffffffffffffffffffffffffffff81165f90815260026020908152604091829020805483518184028101840190945280845260609392830182828015611b6b57602002820191905f5260205f20905b815481526020019060010190808311611b57575b50505050509050919050565b611b7f611fcd565b73ffffffffffffffffffffffffffffffffffffffff8116611bce576040517f1e4fbdf70000000000000000000000000000000000000000000000000000000081525f6004820152602401610924565b6116ca8161205b565b7f9b779b17422d0df92223018b32b4d1fa46e071723d6817e2486d003becc55f0080547ffffffffffffffffffffffffffffffffffffffffffffffffffffffffffffffffe01611c52576040517f3ee5aeb500000000000000000000000000000000000000000000000000000000815260040160405180910390fd5b60029055565b611c7873ffffffffffffffffffffffffffffffffffffffff8316826122d0565b8173ffffffffffffffffffffffffffffffffffffffff167f3d97f39b86d061200a7834082f5926e58ec10fd85a9d6930f497729d5e6cc35c82604051611cc091815260200190565b60405180910390a25050565b60017f9b779b17422d0df92223018b32b4d1fa46e071723d6817e2486d003becc55f0055565b3073ffffffffffffffffffffffffffffffffffffffff7f0000000000000000000000000000000000000000000000000000000000000000161480611dbf57507f000000000000000000000000000000000000000000000000000000000000000073ffffffffffffffffffffffffffffffffffffffff16611da67f360894a13ba1a3210667c828492db98dca3e2076cc3735a920a3ca505d382bbc5473ffffffffffffffffffffffffffffffffffffffff1690565b73ffffffffffffffffffffffffffffffffffffffff1614155b15610ed0576040517fe07c8dba00000000000000000000000000000000000000000000000000000000815260040160405180910390fd5b6116ca611fcd565b8173ffffffffffffffffffffffffffffffffffffffff166352d1902d6040518163ffffffff1660e01b8152600401602060405180830381865afa925050508015611e83575060408051601f3d9081017fffffffffffffffffffffffffffffffffffffffffffffffffffffffffffffffe0168201909252611e8091810190612f9b565b60015b611ed1576040517f4c9c8ce300000000000000000000000000000000000000000000000000000000815273ffffffffffffffffffffffffffffffffffffffff83166004820152602401610924565b7f360894a13ba1a3210667c828492db98dca3e2076cc3735a920a3ca505d382bbc8114611f2d576040517faa1d49a400000000000000000000000000000000000000000000000000000000815260048101829052602401610924565b610eba83836123a2565b3073ffffffffffffffffffffffffffffffffffffffff7f00000000000000000000000000000000000000000000000000000000000000001614610ed0576040517fe07c8dba00000000000000000000000000000000000000000000000000000000815260040160405180910390fd5b5f8083830184811015611fbf575f5f9250925050611fc6565b6001925090505b9250929050565b3361200c7f9016d09d72d40fdae2fd8ceac6b6234c7706214fd39c1cd1e609a0528c1993005473ffffffffffffffffffffffffffffffffffffffff1690565b73ffffffffffffffffffffffffffffffffffffffff1614610ed0576040517f118cdaa7000000000000000000000000000000000000000000000000000000008152336004820152602401610924565b7f9016d09d72d40fdae2fd8ceac6b6234c7706214fd39c1cd1e609a0528c19930080547fffffffffffffffffffffffff0000000000000000000000000000000000000000811673ffffffffffffffffffffffffffffffffffffffff848116918217845560405192169182907f8be0079c531659141344cd1fd0a4f28419497f9722a3daafe3b4186f6b6457e0905f90a3505050565b6120f8612404565b6116ca8161246b565b610ed0612404565b612111612404565b610ed0612473565b5f838152600b6020908152604080832073ffffffffffffffffffffffffffffffffffffffff861680855290835281842054878552600a845282852091855292528220549091806121698486611fa6565b91509150816121a7576040517fc0d7d3cc00000000000000000000000000000000000000000000000000000000815260016004820152602401610924565b80808410156121e2576040517f1eb8e4e900000000000000000000000000000000000000000000000000000000815260040160405180910390fd5b5f806121ee86896122b0565b915091508161222c576040517fc0d7d3cc00000000000000000000000000000000000000000000000000000000815260026004820152602401610924565b5f8a8152600a6020908152604080832073ffffffffffffffffffffffffffffffffffffffff8d168085529083528184208590558d8452600b8352818420818552835292819020869055518a81527f7fd36617a06b55977ffa06f8dc94b5ec0650c2b7b353fa22c7d0f211284dc749910160405180910390a250505050505050505050565b5f5f838311156122c457505f905080611fc6565b50600193919092039150565b8047101561230c576040517fcd786059000000000000000000000000000000000000000000000000000000008152306004820152602401610924565b5f8273ffffffffffffffffffffffffffffffffffffffff16826040515f6040518083038185875af1925050503d805f8114612362576040519150601f19603f3d011682016040523d82523d5f602084013e612367565b606091505b5050905080610eba576040517f1425ea4200000000000000000000000000000000000000000000000000000000815260040160405180910390fd5b6123ab8261247b565b60405173ffffffffffffffffffffffffffffffffffffffff8316907fbc7cd75a20ee27fd9adebab32041f755214dbc6bffa90cc0225b39da2e5c2d3b905f90a28051156123fc57610eba8282612549565b610a3d6125c8565b7ff0c57e16840df040f15088dc2f81fe391c3923bec73e23a9662efc9c229c6a005468010000000000000000900460ff16610ed0576040517fd7e6bcf800000000000000000000000000000000000000000000000000000000815260040160405180910390fd5b611b7f612404565b611ccc612404565b8073ffffffffffffffffffffffffffffffffffffffff163b5f036124e3576040517f4c9c8ce300000000000000000000000000000000000000000000000000000000815273ffffffffffffffffffffffffffffffffffffffff82166004820152602401610924565b7f360894a13ba1a3210667c828492db98dca3e2076cc3735a920a3ca505d382bbc80547fffffffffffffffffffffffff00000000000000000000000000000000000000001673ffffffffffffffffffffffffffffffffffffffff92909216919091179055565b60605f5f8473ffffffffffffffffffffffffffffffffffffffff16846040516125729190612fb2565b5f60405180830381855af49150503d805f81146125aa576040519150601f19603f3d011682016040523d82523d5f602084013e6125af565b606091505b50915091506125bf858383612600565b95945050505050565b3415610ed0576040517fb398979f00000000000000000000000000000000000000000000000000000000815260040160405180910390fd5b6060826126155761261082612692565b61268b565b8151158015612639575073ffffffffffffffffffffffffffffffffffffffff84163b155b15612688576040517f9996b31500000000000000000000000000000000000000000000000000000000815273ffffffffffffffffffffffffffffffffffffffff85166004820152602401610924565b50805b9392505050565b8051156126a25780518082602001fd5b6040517f1425ea4200000000000000000000000000000000000000000000000000000000815260040160405180910390fd5b6040518061016001604052805f8152602001606081526020015f73ffffffffffffffffffffffffffffffffffffffff168152602001606081526020015f73ffffffffffffffffffffffffffffffffffffffff1681526020015f81526020015f81526020015f81526020015f8152602001606081526020015f600281111561275d5761275d612810565b905290565b73ffffffffffffffffffffffffffffffffffffffff811681146116ca575f5ffd5b5f5f60408385031215612794575f5ffd5b823561279f81612762565b946020939093013593505050565b5f602082840312156127bd575f5ffd5b5035919050565b5f81518084528060208401602086015e5f6020828601015260207fffffffffffffffffffffffffffffffffffffffffffffffffffffffffffffffe0601f83011685010191505092915050565b7f4e487b71000000000000000000000000000000000000000000000000000000005f52602160045260245ffd5b60038110612872577f4e487b71000000000000000000000000000000000000000000000000000000005f52602160045260245ffd5b9052565b60208152815160208201525f6020830151610160604084015261289d6101808401826127c4565b905060408401516128c6606085018273ffffffffffffffffffffffffffffffffffffffff169052565b5060608401517fffffffffffffffffffffffffffffffffffffffffffffffffffffffffffffffe084830301608085015261290082826127c4565b915050608084015161292a60a085018273ffffffffffffffffffffffffffffffffffffffff169052565b5060a084015160c084015260c084015160e084015260e08401516101008401526101008401516101208401526101208401517fffffffffffffffffffffffffffffffffffffffffffffffffffffffffffffffe08483030161014085015261299182826127c4565b9150506101408401516129a861016085018261283d565b509392505050565b5f5f604083850312156129c1575f5ffd5b8235915060208301356129d381612762565b809150509250929050565b7f4e487b71000000000000000000000000000000000000000000000000000000005f52604160045260245ffd5b6040516080810167ffffffffffffffff81118282101715612a2e57612a2e6129de565b60405290565b5f5f67ffffffffffffffff841115612a4e57612a4e6129de565b506040517fffffffffffffffffffffffffffffffffffffffffffffffffffffffffffffffe0601f85018116603f0116810181811067ffffffffffffffff82111715612a9b57612a9b6129de565b604052838152905080828401851015612ab2575f5ffd5b838360208301375f60208583010152509392505050565b5f5f60408385031215612ada575f5ffd5b8235612ae581612762565b9150602083013567ffffffffffffffff811115612b00575f5ffd5b8301601f81018513612b10575f5ffd5b612b1f85823560208401612a34565b9150509250929050565b5f82601f830112612b38575f5ffd5b61268b83833560208501612a34565b5f5f5f60608486031215612b59575f5ffd5b83359250602084013567ffffffffffffffff811115612b76575f5ffd5b840160808187031215612b87575f5ffd5b612b8f612a0b565b8135612b9a81612762565b81526020828101359082015260408083013590820152606082013567ffffffffffffffff811115612bc9575f5ffd5b612bd588828501612b29565b60608301525093969395505050506040919091013590565b602081525f61268b60208301846127c4565b5f5f60408385031215612c10575f5ffd5b82359150602083013567ffffffffffffffff811115612c2d575f5ffd5b830160808186031215612c3e575f5ffd5b612c46612a0b565b81358152602082013567ffffffffffffffff811115612c63575f5ffd5b612c6f87828501612b29565b602083015250604082013567ffffffffffffffff811115612c8e575f5ffd5b612c9a87828501612b29565b6040830152506060820135915060038210612cb3575f5ffd5b81606082015280925050509250929050565b5f60208284031215612cd5575f5ffd5b813561268b81612762565b602080825282518282018190525f918401906040840190835b81811015612d17578351835260209384019390920191600101612cf9565b509095945050505050565b600181811c90821680612d3657607f821691505b602082108103612d6d577f4e487b71000000000000000000000000000000000000000000000000000000005f52602260045260245ffd5b50919050565b5f5f8284036080811215612d85575f5ffd5b6060811215612d92575f5ffd5b506040516060810167ffffffffffffffff81118282101715612db657612db66129de565b604052835181526020840151612dcb81612762565b60208201526040840151612dde81612762565b6040820152606084015190925061ffff811681146129d3575f5ffd5b80820180821115610a1c577f4e487b71000000000000000000000000000000000000000000000000000000005f52601160045260245ffd5b601f821115610eba57805f5260205f20601f840160051c81016020851015612e575750805b601f840160051c820191505b8181101561105c575f8155600101612e63565b815167ffffffffffffffff811115612e9057612e906129de565b612ea481612e9e8454612d22565b84612e32565b6020601f821160018114612ef5575f8315612ebf5750848201515b7fffffffffffffffffffffffffffffffffffffffffffffffffffffffffffffffff600385901b1c1916600184901b17845561105c565b5f848152602081207fffffffffffffffffffffffffffffffffffffffffffffffffffffffffffffffe08516915b82811015612f425787850151825560209485019460019092019101612f22565b5084821015612f7e57868401517fffffffffffffffffffffffffffffffffffffffffffffffffffffffffffffffff600387901b60f8161c191681555b50505050600190811b01905550565b60208101610a1c828461283d565b5f60208284031215612fab575f5ffd5b5051919050565b5f82518060208501845e5f92019182525091905056fea26469706673582212209f4dbfe17c487eae8f3247503c707aca2384027034f2f92c04109fc536de7cd464736f6c634300081c0033","linkReferences":{}},"methodIdentifiers":{"UPGRADE_INTERFACE_VERSION()":"ad3cb1cc","_accumulatedFees(uint256)":"e53025ed","_authorized_refunds(uint256,address)":"596e250d","_deposits(uint256,address)":"e428c802","_fulfillableRegistry()":"0c4393b9","_manager()":"f0329f6b","_releaseablePool(uint256)":"ae4d49ba","_router()":"edae876f","beneficiaryWithdraw(uint256)":"cebae810","deposit(uint256,(address,uint256,uint256,string),uint256)":"6928c271","getDepositsFor(address,uint256)":"d4b59fed","getNativeFeesFor(uint256)":"857e57f6","getRefundsFor(address,uint256)":"0b28a076","initialize()":"8129fc1c","owner()":"8da5cb5b","proxiableUUID()":"52d1902d","record(uint256)":"2c16cd8a","recordsOf(address)":"e5b7e2b4","registerFulfillment(uint256,(uint256,string,string,uint8))":"b4b9bb7c","renounceOwnership()":"715018a6","setFulfillableRegistry(address)":"dbc85c5a","setManager(address)":"d0ebdbe7","setRouter(address)":"c0d78655","transferOwnership(address)":"f2fde38b","upgradeToAndCall(address,bytes)":"4f1ef286","withdrawAccumulatedFees(uint256)":"b7aeb6ef","withdrawRefund(uint256,address)":"4248d5b8"},"id":1}