{"abi":[{"type":"function","name":"UPGRADE_INTERFACE_VERSION","inputs":[],"outputs":[{"name":"","type":"string","internalType":"string"}],"stateMutability":"view"},{"type":"function","name":"_erc20_escrow","inputs":[],"outputs":[{"name":"","type":"address","internalType":"address"}],"stateMutability":"view"},{"type":"function","name":"_escrow","inputs":[],"outputs":[{"name":"","type":"address","internalType":"address"}],"stateMutability":"view"},{"type":"function","name":"_serviceRegistry","inputs":[],"outputs":[{"name":"","type":"address","internalType":"address"}],"stateMutability":"view"},{"type":"function","name":"addAggregator","inputs":[{"name":"aggregator","type":"address","internalType":"address"}],"outputs":[],"stateMutability":"nonpayable"},{"type":"function","name":"beneficiaryWithdraw","inputs":[{"name":"serviceID","type":"uint256","internalType":"uint256"}],"outputs":[],"stateMutability":"nonpayable"},{"type":"function","name":"beneficiaryWithdrawERC20","inputs":[{"name":"serviceID","type":"uint256","internalType":"uint256"},{"name":"token","type":"address","internalType":"address"}],"outputs":[],"stateMutability":"nonpayable"},{"type":"function","name":"beneficiaryWithdrawStable","inputs":[{"name":"serviceId","type":"uint256","internalType":"uint256"},{"name":"token","type":"address","internalType":"address"}],"outputs":[],"stateMutability":"nonpayable"},{"type":"function","name":"fulfillAndSwap","inputs":[{"name":"serviceID","type":"uint256","internalType":"uint256"},{"name":"result","type":"tuple","internalType":"struct FulFillmentResult","components":[{"name":"id","type":"uint256","internalType":"uint256"},{"name":"externalID","type":"string","internalType":"string"},{"name":"receiptURI","type":"string","internalType":"string"},{"name":"status","type":"uint8","internalType":"enum FulFillmentResultState"}]},{"name":"swapData","type":"tuple","internalType":"struct SwapData","components":[{"name":"toToken","type":"address","internalType":"address"},{"name":"amount","type":"uint256","internalType":"uint256"},{"name":"callTo","type":"address","internalType":"address payable"},{"name":"callData","type":"bytes","internalType":"bytes"}]}],"outputs":[],"stateMutability":"nonpayable"},{"type":"function","name":"fulfillERC20AndSwap","inputs":[{"name":"serviceID","type":"uint256","internalType":"uint256"},{"name":"result","type":"tuple","internalType":"struct FulFillmentResult","components":[{"name":"id","type":"uint256","internalType":"uint256"},{"name":"externalID","type":"string","internalType":"string"},{"name":"receiptURI","type":"string","internalType":"string"},{"name":"status","type":"uint8","internalType":"enum FulFillmentResultState"}]},{"name":"swapData","type":"tuple","internalType":"struct SwapData","components":[{"name":"toToken","type":"address","internalType":"address"},{"name":"amount","type":"uint256","internalType":"uint256"},{"name":"callTo","type":"address","internalType":"address payable"},{"name":"callData","type":"bytes","internalType":"bytes"}]},{"name":"swap","type":"bool","internalType":"bool"}],"outputs":[],"stateMutability":"nonpayable"},{"type":"function","name":"initialize","inputs":[{"name":"initialOwner","type":"address","internalType":"address"}],"outputs":[],"stateMutability":"nonpayable"},{"type":"function","name":"isAggregator","inputs":[{"name":"aggregator","type":"address","internalType":"address"}],"outputs":[{"name":"","type":"bool","internalType":"bool"}],"stateMutability":"view"},{"type":"function","name":"myFees","inputs":[{"name":"token","type":"address","internalType":"address"}],"outputs":[{"name":"fees","type":"uint256","internalType":"uint256"}],"stateMutability":"view"},{"type":"function","name":"myFeesNative","inputs":[{"name":"token","type":"address","internalType":"address"}],"outputs":[{"name":"fees","type":"uint256","internalType":"uint256"}],"stateMutability":"view"},{"type":"function","name":"myPool","inputs":[{"name":"token","type":"address","internalType":"address"}],"outputs":[{"name":"pool","type":"uint256","internalType":"uint256"}],"stateMutability":"view"},{"type":"function","name":"myPoolNative","inputs":[{"name":"token","type":"address","internalType":"address"}],"outputs":[{"name":"pool","type":"uint256","internalType":"uint256"}],"stateMutability":"view"},{"type":"function","name":"owner","inputs":[],"outputs":[{"name":"","type":"address","internalType":"address"}],"stateMutability":"view"},{"type":"function","name":"proxiableUUID","inputs":[],"outputs":[{"name":"","type":"bytes32","internalType":"bytes32"}],"stateMutability":"view"},{"type":"function","name":"registerERC20Fulfillment","inputs":[{"name":"serviceID","type":"uint256","internalType":"uint256"},{"name":"fulfillment","type":"tuple","internalType":"struct FulFillmentResult","components":[{"name":"id","type":"uint256","internalType":"uint256"},{"name":"externalID","type":"string","internalType":"string"},{"name":"receiptURI","type":"string","internalType":"string"},{"name":"status","type":"uint8","internalType":"enum FulFillmentResultState"}]}],"outputs":[],"stateMutability":"nonpayable"},{"type":"function","name":"registerFulfillment","inputs":[{"name":"serviceID","type":"uint256","internalType":"uint256"},{"name":"fulfillment","type":"tuple","internalType":"struct FulFillmentResult","components":[{"name":"id","type":"uint256","internalType":"uint256"},{"name":"externalID","type":"string","internalType":"string"},{"name":"receiptURI","type":"string","internalType":"string"},{"name":"status","type":"uint8","internalType":"enum FulFillmentResultState"}]}],"outputs":[],"stateMutability":"nonpayable"},{"type":"function","name":"renounceOwnership","inputs":[],"outputs":[],"stateMutability":"nonpayable"},{"type":"function","name":"setERC20Escrow","inputs":[{"name":"erc20Escrow_","type":"address","internalType":"address payable"}],"outputs":[],"stateMutability":"nonpayable"},{"type":"function","name":"setEscrow","inputs":[{"name":"escrow_","type":"address","internalType":"address payable"}],"outputs":[],"stateMutability":"nonpayable"},{"type":"function","name":"setService","inputs":[{"name":"serviceID","type":"uint256","internalType":"uint256"},{"name":"feeAmountBasisPoints","type":"uint16","internalType":"uint16"},{"name":"fulfiller","type":"address","internalType":"address"},{"name":"beneficiary","type":"address","internalType":"address payable"}],"outputs":[{"name":"","type":"tuple","internalType":"struct Service","components":[{"name":"serviceId","type":"uint256","internalType":"uint256"},{"name":"beneficiary","type":"address","internalType":"address payable"},{"name":"fulfiller","type":"address","internalType":"address"}]}],"stateMutability":"nonpayable"},{"type":"function","name":"setServiceFulfillmentFee","inputs":[{"name":"serviceID","type":"uint256","internalType":"uint256"},{"name":"fulfillmentFeeBasisPoints","type":"uint16","internalType":"uint16"}],"outputs":[],"stateMutability":"nonpayable"},{"type":"function","name":"setServiceRef","inputs":[{"name":"serviceID","type":"uint256","internalType":"uint256"},{"name":"serviceRef","type":"string","internalType":"string"}],"outputs":[],"stateMutability":"nonpayable"},{"type":"function","name":"setServiceRegistry","inputs":[{"name":"serviceRegistry_","type":"address","internalType":"address"}],"outputs":[],"stateMutability":"nonpayable"},{"type":"function","name":"transferOwnership","inputs":[{"name":"newOwner","type":"address","internalType":"address"}],"outputs":[],"stateMutability":"nonpayable"},{"type":"function","name":"upgradeToAndCall","inputs":[{"name":"newImplementation","type":"address","internalType":"address"},{"name":"data","type":"bytes","internalType":"bytes"}],"outputs":[],"stateMutability":"payable"},{"type":"function","name":"withdrawAccumulatedFeesStable","inputs":[{"name":"serviceId","type":"uint256","internalType":"uint256"},{"name":"token","type":"address","internalType":"address"}],"outputs":[],"stateMutability":"nonpayable"},{"type":"function","name":"withdrawERC20Fees","inputs":[{"name":"serviceID","type":"uint256","internalType":"uint256"},{"name":"token","type":"address","internalType":"address"}],"outputs":[],"stateMutability":"nonpayable"},{"type":"function","name":"withdrawERC20FulfillerPoolAndFees","inputs":[{"name":"token","type":"address","internalType":"address"},{"name":"amount","type":"uint256","internalType":"uint256"},{"name":"fees","type":"uint256","internalType":"uint256"},{"name":"beneficiary","type":"address","internalType":"address"},{"name":"feesBeneficiary","type":"address","internalType":"address"}],"outputs":[],"stateMutability":"nonpayable"},{"type":"function","name":"withdrawFulfillerStablePoolAndFees","inputs":[{"name":"token","type":"address","internalType":"address"},{"name":"amount","type":"uint256","internalType":"uint256"},{"name":"fees","type":"uint256","internalType":"uint256"},{"name":"beneficiary","type":"address","internalType":"address"},{"name":"feesBeneficiary","type":"address","internalType":"address"}],"outputs":[],"stateMutability":"nonpayable"},{"type":"function","name":"withdrawNativeFees","inputs":[{"name":"serviceID","type":"uint256","internalType":"uint256"}],"outputs":[],"stateMutability":"nonpayable"},{"type":"event","name":"AggregatorAdded","inputs":[{"name":"aggregator","type":"address","indexed":true,"internalType":"address"}],"anonymous":false},{"type":"event","name":"ERC20EscrowUpdated","inputs":[{"name":"erc20Escrow","type":"address","indexed":true,"internalType":"address"}],"anonymous":false},{"type":"event","name":"ERC20FulfillmentRegistered","inputs":[{"name":"serviceID","type":"uint256","indexed":true,"internalType":"uint256"},{"name":"fulfillment","type":"tuple","indexed":false,"internalType":"struct FulFillmentResult","components":[{"name":"id","type":"uint256","internalType":"uint256"},{"name":"externalID","type":"string","internalType":"string"},{"name":"receiptURI","type":"string","internalType":"string"},{"name":"status","type":"uint8","internalType":"enum FulFillmentResultState"}]}],"anonymous":false},{"type":"event","name":"EscrowUpdated","inputs":[{"name":"escrow","type":"address","indexed":true,"internalType":"address"}],"anonymous":false},{"type":"event","name":"FulfillmentRegistered","inputs":[{"name":"serviceID","type":"uint256","indexed":true,"internalType":"uint256"},{"name":"fulfillment","type":"tuple","indexed":false,"internalType":"struct FulFillmentResult","components":[{"name":"id","type":"uint256","internalType":"uint256"},{"name":"externalID","type":"string","internalType":"string"},{"name":"receiptURI","type":"string","internalType":"string"},{"name":"status","type":"uint8","internalType":"enum FulFillmentResultState"}]}],"anonymous":false},{"type":"event","name":"Initialized","inputs":[{"name":"version","type":"uint64","indexed":false,"internalType":"uint64"}],"anonymous":false},{"type":"event","name":"OwnershipTransferred","inputs":[{"name":"previousOwner","type":"address","indexed":true,"internalType":"address"},{"name":"newOwner","type":"address","indexed":true,"internalType":"address"}],"anonymous":false},{"type":"event","name":"RegistryUpdated","inputs":[{"name":"registry","type":"address","indexed":true,"internalType":"address"}],"anonymous":false},{"type":"event","name":"Upgraded","inputs":[{"name":"implementation","type":"address","indexed":true,"internalType":"address"}],"anonymous":false},{"type":"event","name":"WithdrawnToBeneficiary","inputs":[{"name":"serviceID","type":"uint256","indexed":true,"internalType":"uint256"},{"name":"beneficiary","type":"address","indexed":true,"internalType":"address"}],"anonymous":false},{"type":"error","name":"AddressEmptyCode","inputs":[{"name":"target","type":"address","internalType":"address"}]},{"type":"error","name":"ERC1967InvalidImplementation","inputs":[{"name":"implementation","type":"address","internalType":"address"}]},{"type":"error","name":"ERC1967NonPayable","inputs":[]},{"type":"error","name":"FailedInnerCall","inputs":[]},{"type":"error","name":"InsufficientBalance","inputs":[{"name":"requested","type":"uint256","internalType":"uint256"},{"name":"available","type":"uint256","internalType":"uint256"}]},{"type":"error","name":"InvalidAddress","inputs":[{"name":"address_","type":"address","internalType":"address"}]},{"type":"error","name":"InvalidBeneficiary","inputs":[{"name":"beneficiary_","type":"address","internalType":"address"}]},{"type":"error","name":"InvalidFulfiller","inputs":[{"name":"fulfiller_","type":"address","internalType":"address"}]},{"type":"error","name":"InvalidFulfillmentResult","inputs":[{"name":"status","type":"uint8","internalType":"enum FulFillmentResultState"}]},{"type":"error","name":"InvalidInitialization","inputs":[]},{"type":"error","name":"InvalidServiceId","inputs":[{"name":"serviceID_","type":"uint256","internalType":"uint256"}]},{"type":"error","name":"NotInitializing","inputs":[]},{"type":"error","name":"OwnableInvalidOwner","inputs":[{"name":"owner","type":"address","internalType":"address"}]},{"type":"error","name":"OwnableUnauthorizedAccount","inputs":[{"name":"account","type":"address","internalType":"address"}]},{"type":"error","name":"UUPSUnauthorizedCallContext","inputs":[]},{"type":"error","name":"UUPSUnsupportedProxiableUUID","inputs":[{"name":"slot","type":"bytes32","internalType":"bytes32"}]}],"bytecode":{"object":"0x60a06040523060805234801561001457600080fd5b5061001d610022565b6100d4565b7ff0c57e16840df040f15088dc2f81fe391c3923bec73e23a9662efc9c229c6a00805468010000000000000000900460ff16156100725760405163f92ee8a960e01b815260040160405180910390fd5b80546001600160401b03908116146100d15780546001600160401b0319166001600160401b0390811782556040519081527fc7f505b2f371ae2175ee4913f4499e1f2633a7b5936321eed1cdaeb6115181d29060200160405180910390a15b50565b6080516142ee6100fd60003960008181612cfb01528181612d240152612f4501526142ee6000f3fe6080604052600436106102195760003560e01c806390eafe581161011d578063c10c3546116100b0578063d7071b1f1161007f578063ecaec54311610064578063ecaec5431461079f578063eede444c146107bf578063f2fde38b146107df57600080fd5b8063d7071b1f1461075f578063ea5447e61461077f57600080fd5b8063c10c3546146106df578063c4d66de8146106ff578063cebae8101461071f578063d67b11251461073f57600080fd5b8063b7ab25e4116100ec578063b7ab25e41461062f578063bc8aeb321461067f578063be03f65c1461069f578063bf75f119146106bf57600080fd5b806390eafe581461055f57806391d95f3e1461058c578063ad3cb1cc146105b9578063b4b9bb7c1461060f57600080fd5b80633293e3a2116101b057806358735e631161017f578063715018a611610164578063715018a6146104e0578063875f035a146104f55780638da5cb5b1461051557600080fd5b806358735e63146104a05780636520b009146104c057600080fd5b80633293e3a21461040857806341ccb1b8146104585780634f1ef2861461047857806352d1902d1461048b57600080fd5b80631e8f3c95116101ec5780631e8f3c95146103155780632248d9d61461036b5780632290a7b31461039857806328f20b2a146103b857600080fd5b80630619c07a1461021e57806307073d911461027557806308b594f51461029757806310301010146102b7575b600080fd5b34801561022a57600080fd5b5060015461024b9073ffffffffffffffffffffffffffffffffffffffff1681565b60405173ffffffffffffffffffffffffffffffffffffffff90911681526020015b60405180910390f35b34801561028157600080fd5b50610295610290366004613a88565b6107ff565b005b3480156102a357600080fd5b506102956102b2366004613af1565b610895565b3480156102c357600080fd5b506103076102d2366004613b50565b33600090815260076020908152604080832073ffffffffffffffffffffffffffffffffffffffff949094168352929052205490565b60405190815260200161026c565b34801561032157600080fd5b5061035b610330366004613b50565b73ffffffffffffffffffffffffffffffffffffffff1660009081526003602052604090205460ff1690565b604051901515815260200161026c565b34801561037757600080fd5b5061038b610386366004613b7d565b610c58565b60405161026c9190613bd0565b3480156103a457600080fd5b506102956103b3366004613af1565b610e46565b3480156103c457600080fd5b506103076103d3366004613b50565b33600090815260056020908152604080832073ffffffffffffffffffffffffffffffffffffffff949094168352929052205490565b34801561041457600080fd5b50610307610423366004613b50565b33600090815260066020908152604080832073ffffffffffffffffffffffffffffffffffffffff949094168352929052205490565b34801561046457600080fd5b50610295610473366004613c21565b6111cd565b610295610486366004613c51565b6113a9565b34801561049757600080fd5b506103076113c8565b3480156104ac57600080fd5b506102956104bb366004613c21565b6113f7565b3480156104cc57600080fd5b506102956104db366004613b50565b611543565b3480156104ec57600080fd5b50610295611627565b34801561050157600080fd5b50610295610510366004613da6565b61163b565b34801561052157600080fd5b507f9016d09d72d40fdae2fd8ceac6b6234c7706214fd39c1cd1e609a0528c1993005473ffffffffffffffffffffffffffffffffffffffff1661024b565b34801561056b57600080fd5b5060025461024b9073ffffffffffffffffffffffffffffffffffffffff1681565b34801561059857600080fd5b5060005461024b9073ffffffffffffffffffffffffffffffffffffffff1681565b3480156105c557600080fd5b506106026040518060400160405280600581526020017f352e302e3000000000000000000000000000000000000000000000000000000081525081565b60405161026c9190613e8e565b34801561061b57600080fd5b5061029561062a366004613ea1565b6119d3565b34801561063b57600080fd5b5061030761064a366004613b50565b33600090815260046020908152604080832073ffffffffffffffffffffffffffffffffffffffff949094168352929052205490565b34801561068b57600080fd5b5061029561069a366004613c21565b611bf3565b3480156106ab57600080fd5b506102956106ba366004613b50565b611d54565b3480156106cb57600080fd5b506102956106da366004613ede565b611e30565b3480156106eb57600080fd5b506102956106fa366004613b50565b611e99565b34801561070b57600080fd5b5061029561071a366004613b50565b611f75565b34801561072b57600080fd5b5061029561073a366004613f03565b6120fc565b34801561074b57600080fd5b5061029561075a366004613f1c565b6122ba565b34801561076b57600080fd5b5061029561077a366004613b50565b61264a565b34801561078b57600080fd5b5061029561079a366004613ea1565b612724565b3480156107ab57600080fd5b506102956107ba366004613f03565b612937565b3480156107cb57600080fd5b506102956107da366004613c21565b612a90565b3480156107eb57600080fd5b506102956107fa366004613b50565b612bf1565b610807612c55565b6000546040517f3f8a7fe000000000000000000000000000000000000000000000000000000000815273ffffffffffffffffffffffffffffffffffffffff90911690633f8a7fe09061085f9085908590600401613f8e565b600060405180830381600087803b15801561087957600080fd5b505af115801561088d573d6000803e3d6000fd5b505050505050565b73ffffffffffffffffffffffffffffffffffffffff85166108ff576040517f8e4c8aa600000000000000000000000000000000000000000000000000000000815273ffffffffffffffffffffffffffffffffffffffff861660048201526024015b60405180910390fd5b600080546040517f1b9c660b0000000000000000000000000000000000000000000000000000000081523360048201526001602482015273ffffffffffffffffffffffffffffffffffffffff90911690631b9c660b90604401602060405180830381865afa158015610975573d6000803e3d6000fd5b505050506040513d601f19601f820116820180604052508101906109999190613faf565b9050806109d4576040517fdb4176c70000000000000000000000000000000000000000000000000000000081523360048201526024016108f6565b33600090815260066020908152604080832073ffffffffffffffffffffffffffffffffffffffff8a168452909152902054851115610a7b5733600090815260066020908152604080832073ffffffffffffffffffffffffffffffffffffffff8a168452909152908190205490517fcf4791810000000000000000000000000000000000000000000000000000000081526108f6918791600401918252602082015260400190565b33600090815260076020908152604080832073ffffffffffffffffffffffffffffffffffffffff8a168452909152902054841115610b225733600090815260076020908152604080832073ffffffffffffffffffffffffffffffffffffffff8a168452909152908190205490517fcf4791810000000000000000000000000000000000000000000000000000000081526108f6918691600401918252602082015260400190565b33600090815260066020908152604080832073ffffffffffffffffffffffffffffffffffffffff8a16845290915281208054879290610b62908490613ffb565b909155505033600090815260076020908152604080832073ffffffffffffffffffffffffffffffffffffffff8a16845290915281208054869290610ba7908490613ffb565b90915550506001546040517f4926dc2c00000000000000000000000000000000000000000000000000000000815273ffffffffffffffffffffffffffffffffffffffff888116600483015260248201889052604482018790528581166064830152848116608483015290911690634926dc2c9060a4015b600060405180830381600087803b158015610c3857600080fd5b505af1158015610c4c573d6000803e3d6000fd5b50505050505050505050565b6040805160608101825260008082526020820181905291810191909152610c7d612c55565b84600003610cba576040517fe0d4974b000000000000000000000000000000000000000000000000000000008152600481018690526024016108f6565b73ffffffffffffffffffffffffffffffffffffffff8316610d1f576040517f8e4c8aa600000000000000000000000000000000000000000000000000000000815273ffffffffffffffffffffffffffffffffffffffff841660048201526024016108f6565b73ffffffffffffffffffffffffffffffffffffffff8216610d84576040517f8e4c8aa600000000000000000000000000000000000000000000000000000000815273ffffffffffffffffffffffffffffffffffffffff831660048201526024016108f6565b6040805160608101825286815273ffffffffffffffffffffffffffffffffffffffff80851660208301528581168284015260005492517f4f38e25800000000000000000000000000000000000000000000000000000000815291921690634f38e25890610df990899085908a9060040161400e565b6020604051808303816000875af1158015610e18573d6000803e3d6000fd5b505050506040513d601f19601f82011682018060405250810190610e3c9190613faf565b5095945050505050565b73ffffffffffffffffffffffffffffffffffffffff8516610eab576040517f8e4c8aa600000000000000000000000000000000000000000000000000000000815273ffffffffffffffffffffffffffffffffffffffff861660048201526024016108f6565b600080546040517f1b9c660b0000000000000000000000000000000000000000000000000000000081523360048201526001602482015273ffffffffffffffffffffffffffffffffffffffff90911690631b9c660b90604401602060405180830381865afa158015610f21573d6000803e3d6000fd5b505050506040513d601f19601f82011682018060405250810190610f459190613faf565b905080610f80576040517fdb4176c70000000000000000000000000000000000000000000000000000000081523360048201526024016108f6565b33600090815260046020908152604080832073ffffffffffffffffffffffffffffffffffffffff8a1684529091529020548511156110265733600090815260046020818152604080842073ffffffffffffffffffffffffffffffffffffffff8b168552909152918290205491517fcf47918100000000000000000000000000000000000000000000000000000000815290810187905260248101919091526044016108f6565b33600090815260056020908152604080832073ffffffffffffffffffffffffffffffffffffffff8a1684529091529020548411156110cd5733600090815260056020908152604080832073ffffffffffffffffffffffffffffffffffffffff8a168452909152908190205490517fcf4791810000000000000000000000000000000000000000000000000000000081526108f6918691600401918252602082015260400190565b33600090815260046020908152604080832073ffffffffffffffffffffffffffffffffffffffff8a1684529091528120805487929061110d908490613ffb565b909155505033600090815260056020908152604080832073ffffffffffffffffffffffffffffffffffffffff8a16845290915281208054869290611152908490613ffb565b90915550506002546040517f4926dc2c00000000000000000000000000000000000000000000000000000000815273ffffffffffffffffffffffffffffffffffffffff888116600483015260248201889052604482018790528581166064830152848116608483015290911690634926dc2c9060a401610c1e565b600080546040517fef0e239b0000000000000000000000000000000000000000000000000000000081526004810185905273ffffffffffffffffffffffffffffffffffffffff9091169063ef0e239b90602401608060405180830381865afa15801561123d573d6000803e3d6000fd5b505050506040513d601f19601f820116820180604052508101906112619190614077565b509050806040015173ffffffffffffffffffffffffffffffffffffffff163373ffffffffffffffffffffffffffffffffffffffff16146112cf576040517fdb4176c70000000000000000000000000000000000000000000000000000000081523360048201526024016108f6565b6001546040517f41ccb1b80000000000000000000000000000000000000000000000000000000081526004810185905273ffffffffffffffffffffffffffffffffffffffff8481166024830152909116906341ccb1b8906044015b600060405180830381600087803b15801561134457600080fd5b505af1158015611358573d6000803e3d6000fd5b50505050806020015173ffffffffffffffffffffffffffffffffffffffff16837fcb51d4484f2b22d6b3d1b57f410f5bc04439a073a28a9ad319c840d9bb880a4160405160405180910390a3505050565b6113b1612ce3565b6113ba82612de7565b6113c48282612def565b5050565b60006113d2612f2d565b507f360894a13ba1a3210667c828492db98dca3e2076cc3735a920a3ca505d382bbc90565b600080546040517fef0e239b0000000000000000000000000000000000000000000000000000000081526004810185905273ffffffffffffffffffffffffffffffffffffffff9091169063ef0e239b90602401608060405180830381865afa158015611467573d6000803e3d6000fd5b505050506040513d601f19601f8201168201806040525081019061148b9190614077565b50604081015190915073ffffffffffffffffffffffffffffffffffffffff1633146114e4576040517fdb4176c70000000000000000000000000000000000000000000000000000000081523360048201526024016108f6565b6002546040517f936a83e50000000000000000000000000000000000000000000000000000000081526004810185905273ffffffffffffffffffffffffffffffffffffffff84811660248301529091169063936a83e59060440161132a565b61154b612c55565b73ffffffffffffffffffffffffffffffffffffffff81166115b0576040517f8e4c8aa600000000000000000000000000000000000000000000000000000000815273ffffffffffffffffffffffffffffffffffffffff821660048201526024016108f6565b73ffffffffffffffffffffffffffffffffffffffff811660008181526003602052604080822080547fffffffffffffffffffffffffffffffffffffffffffffffffffffffffffffff00166001179055517f6fe83d3564912d267f3f85c4a548ac36ea86d2bb44c5881a8c7e841e5a439a449190a250565b61162f612c55565b6116396000612f9c565b565b600080546040517fef0e239b0000000000000000000000000000000000000000000000000000000081526004810187905273ffffffffffffffffffffffffffffffffffffffff9091169063ef0e239b90602401608060405180830381865afa1580156116ab573d6000803e3d6000fd5b505050506040513d601f19601f820116820180604052508101906116cf9190614077565b509050806040015173ffffffffffffffffffffffffffffffffffffffff163373ffffffffffffffffffffffffffffffffffffffff161415801561174957507f9016d09d72d40fdae2fd8ceac6b6234c7706214fd39c1cd1e609a0528c1993005473ffffffffffffffffffffffffffffffffffffffff163314155b15611782576040517fdb4176c70000000000000000000000000000000000000000000000000000000081523360048201526024016108f6565b60018460600151600381111561179a5761179a6140fb565b146117d75783606001516040517fbbe77e260000000000000000000000000000000000000000000000000000000081526004016108f69190614165565b60408084015173ffffffffffffffffffffffffffffffffffffffff1660009081526003602052205460ff166118565760408084015190517f8e4c8aa600000000000000000000000000000000000000000000000000000000815273ffffffffffffffffffffffffffffffffffffffff90911660048201526024016108f6565b6002546040517fb4b9bb7c00000000000000000000000000000000000000000000000000000000815273ffffffffffffffffffffffffffffffffffffffff9091169063b4b9bb7c906118ae90889088906004016141c8565b6020604051808303816000875af11580156118cd573d6000803e3d6000fd5b505050506040513d601f19601f820116820180604052508101906118f19190613faf565b5081156119865760025484516040517f1a016c8b00000000000000000000000000000000000000000000000000000000815273ffffffffffffffffffffffffffffffffffffffff90921691631a016c8b916119539189919088906004016141e1565b600060405180830381600087803b15801561196d57600080fd5b505af1158015611981573d6000803e3d6000fd5b505050505b611994858460000151613032565b847f844b50b8d5cfeca71e001fe9d5711e4cb4d67241795b4864cdda9494a98746f7856040516119c4919061425d565b60405180910390a25050505050565b600080546040517fef0e239b0000000000000000000000000000000000000000000000000000000081526004810185905273ffffffffffffffffffffffffffffffffffffffff9091169063ef0e239b90602401608060405180830381865afa158015611a43573d6000803e3d6000fd5b505050506040513d601f19601f82011682018060405250810190611a679190614077565b509050806040015173ffffffffffffffffffffffffffffffffffffffff163373ffffffffffffffffffffffffffffffffffffffff1614158015611ae157507f9016d09d72d40fdae2fd8ceac6b6234c7706214fd39c1cd1e609a0528c1993005473ffffffffffffffffffffffffffffffffffffffff163314155b15611b1a576040517fdb4176c70000000000000000000000000000000000000000000000000000000081523360048201526024016108f6565b6001546040517fb4b9bb7c00000000000000000000000000000000000000000000000000000000815273ffffffffffffffffffffffffffffffffffffffff9091169063b4b9bb7c90611b7290869086906004016141c8565b6020604051808303816000875af1158015611b91573d6000803e3d6000fd5b505050506040513d601f19601f82011682018060405250810190611bb59190613faf565b50827f11988977feb8a6b5297b83f540df9428b7613fa44b5ea4711b224bee575ae4bf83604051611be6919061425d565b60405180910390a2505050565b600080546040517fef0e239b0000000000000000000000000000000000000000000000000000000081526004810185905273ffffffffffffffffffffffffffffffffffffffff9091169063ef0e239b90602401608060405180830381865afa158015611c63573d6000803e3d6000fd5b505050506040513d601f19601f82011682018060405250810190611c879190614077565b509050806040015173ffffffffffffffffffffffffffffffffffffffff163373ffffffffffffffffffffffffffffffffffffffff1614611cf5576040517fdb4176c70000000000000000000000000000000000000000000000000000000081523360048201526024016108f6565b6001546040517fbc8aeb320000000000000000000000000000000000000000000000000000000081526004810185905273ffffffffffffffffffffffffffffffffffffffff84811660248301529091169063bc8aeb329060440161132a565b611d5c612c55565b73ffffffffffffffffffffffffffffffffffffffff8116611dc1576040517f8e4c8aa600000000000000000000000000000000000000000000000000000000815273ffffffffffffffffffffffffffffffffffffffff821660048201526024016108f6565b600280547fffffffffffffffffffffffff00000000000000000000000000000000000000001673ffffffffffffffffffffffffffffffffffffffff83169081179091556040517fd39b3956f908ed0515c7b777552c15a185e9d13c9dd97db53a16bb661ab0b8d890600090a250565b611e38612c55565b6000546040517f0cf4e14c0000000000000000000000000000000000000000000000000000000081526004810184905261ffff8316602482015273ffffffffffffffffffffffffffffffffffffffff90911690630cf4e14c9060440161085f565b611ea1612c55565b73ffffffffffffffffffffffffffffffffffffffff8116611f06576040517f8e4c8aa600000000000000000000000000000000000000000000000000000000815273ffffffffffffffffffffffffffffffffffffffff821660048201526024016108f6565b600180547fffffffffffffffffffffffff00000000000000000000000000000000000000001673ffffffffffffffffffffffffffffffffffffffff83169081179091556040517f43ab431641dd45dd0661cad4b820e826d7c526af92e3121e1242d721f82ab3ad90600090a250565b7ff0c57e16840df040f15088dc2f81fe391c3923bec73e23a9662efc9c229c6a00805468010000000000000000810460ff16159067ffffffffffffffff16600081158015611fc05750825b905060008267ffffffffffffffff166001148015611fdd5750303b155b905081158015611feb575080155b15612022576040517ff92ee8a900000000000000000000000000000000000000000000000000000000815260040160405180910390fd5b84547fffffffffffffffffffffffffffffffffffffffffffffffff000000000000000016600117855583156120835784547fffffffffffffffffffffffffffffffffffffffffffffff00ffffffffffffffff16680100000000000000001785555b61208b61334c565b61209486613354565b831561088d5784547fffffffffffffffffffffffffffffffffffffffffffffff00ffffffffffffffff168555604051600181527fc7f505b2f371ae2175ee4913f4499e1f2633a7b5936321eed1cdaeb6115181d29060200160405180910390a1505050505050565b600080546040517fef0e239b0000000000000000000000000000000000000000000000000000000081526004810184905273ffffffffffffffffffffffffffffffffffffffff9091169063ef0e239b90602401608060405180830381865afa15801561216c573d6000803e3d6000fd5b505050506040513d601f19601f820116820180604052508101906121909190614077565b50604081015190915073ffffffffffffffffffffffffffffffffffffffff1633146121e9576040517fdb4176c70000000000000000000000000000000000000000000000000000000081523360048201526024016108f6565b6001546040517fcebae8100000000000000000000000000000000000000000000000000000000081526004810184905273ffffffffffffffffffffffffffffffffffffffff9091169063cebae810906024015b600060405180830381600087803b15801561225657600080fd5b505af115801561226a573d6000803e3d6000fd5b50505050806020015173ffffffffffffffffffffffffffffffffffffffff16827fcb51d4484f2b22d6b3d1b57f410f5bc04439a073a28a9ad319c840d9bb880a4160405160405180910390a35050565b600080546040517fef0e239b0000000000000000000000000000000000000000000000000000000081526004810186905273ffffffffffffffffffffffffffffffffffffffff9091169063ef0e239b90602401608060405180830381865afa15801561232a573d6000803e3d6000fd5b505050506040513d601f19601f8201168201806040525081019061234e9190614077565b509050806040015173ffffffffffffffffffffffffffffffffffffffff163373ffffffffffffffffffffffffffffffffffffffff16141580156123c857507f9016d09d72d40fdae2fd8ceac6b6234c7706214fd39c1cd1e609a0528c1993005473ffffffffffffffffffffffffffffffffffffffff163314155b15612401576040517fdb4176c70000000000000000000000000000000000000000000000000000000081523360048201526024016108f6565b600183606001516003811115612419576124196140fb565b146124565782606001516040517fbbe77e260000000000000000000000000000000000000000000000000000000081526004016108f69190614165565b60408083015173ffffffffffffffffffffffffffffffffffffffff1660009081526003602052205460ff166124d55760408083015190517f8e4c8aa600000000000000000000000000000000000000000000000000000000815273ffffffffffffffffffffffffffffffffffffffff90911660048201526024016108f6565b6001546040517fb4b9bb7c00000000000000000000000000000000000000000000000000000000815273ffffffffffffffffffffffffffffffffffffffff9091169063b4b9bb7c9061252d90879087906004016141c8565b6020604051808303816000875af115801561254c573d6000803e3d6000fd5b505050506040513d601f19601f820116820180604052508101906125709190613faf565b5060015483516040517f1a016c8b00000000000000000000000000000000000000000000000000000000815273ffffffffffffffffffffffffffffffffffffffff90921691631a016c8b916125cc9188919087906004016141e1565b600060405180830381600087803b1580156125e657600080fd5b505af11580156125fa573d6000803e3d6000fd5b5050505061260c848360000151613365565b837f11988977feb8a6b5297b83f540df9428b7613fa44b5ea4711b224bee575ae4bf8460405161263c919061425d565b60405180910390a250505050565b612652612c55565b73ffffffffffffffffffffffffffffffffffffffff81166126b7576040517f8e4c8aa600000000000000000000000000000000000000000000000000000000815273ffffffffffffffffffffffffffffffffffffffff821660048201526024016108f6565b600080547fffffffffffffffffffffffff00000000000000000000000000000000000000001673ffffffffffffffffffffffffffffffffffffffff8316908117825560405190917fd6ceddf6d2a22f21c7c81675c518004eff43bc5c8a6fc32a0b748e69d58671cd91a250565b600080546040517fef0e239b0000000000000000000000000000000000000000000000000000000081526004810185905273ffffffffffffffffffffffffffffffffffffffff9091169063ef0e239b90602401608060405180830381865afa158015612794573d6000803e3d6000fd5b505050506040513d601f19601f820116820180604052508101906127b89190614077565b509050806040015173ffffffffffffffffffffffffffffffffffffffff163373ffffffffffffffffffffffffffffffffffffffff161415801561283257507f9016d09d72d40fdae2fd8ceac6b6234c7706214fd39c1cd1e609a0528c1993005473ffffffffffffffffffffffffffffffffffffffff163314155b1561286b576040517fdb4176c70000000000000000000000000000000000000000000000000000000081523360048201526024016108f6565b6002546040517fb4b9bb7c00000000000000000000000000000000000000000000000000000000815273ffffffffffffffffffffffffffffffffffffffff9091169063b4b9bb7c906128c390869086906004016141c8565b6020604051808303816000875af11580156128e2573d6000803e3d6000fd5b505050506040513d601f19601f820116820180604052508101906129069190613faf565b50827f844b50b8d5cfeca71e001fe9d5711e4cb4d67241795b4864cdda9494a98746f783604051611be6919061425d565b600080546040517fef0e239b0000000000000000000000000000000000000000000000000000000081526004810184905273ffffffffffffffffffffffffffffffffffffffff9091169063ef0e239b90602401608060405180830381865afa1580156129a7573d6000803e3d6000fd5b505050506040513d601f19601f820116820180604052508101906129cb9190614077565b509050806040015173ffffffffffffffffffffffffffffffffffffffff163373ffffffffffffffffffffffffffffffffffffffff1614612a39576040517fdb4176c70000000000000000000000000000000000000000000000000000000081523360048201526024016108f6565b6001546040517fb7aeb6ef0000000000000000000000000000000000000000000000000000000081526004810184905273ffffffffffffffffffffffffffffffffffffffff9091169063b7aeb6ef9060240161223c565b600080546040517fef0e239b0000000000000000000000000000000000000000000000000000000081526004810185905273ffffffffffffffffffffffffffffffffffffffff9091169063ef0e239b90602401608060405180830381865afa158015612b00573d6000803e3d6000fd5b505050506040513d601f19601f82011682018060405250810190612b249190614077565b509050806040015173ffffffffffffffffffffffffffffffffffffffff163373ffffffffffffffffffffffffffffffffffffffff1614612b92576040517fdb4176c70000000000000000000000000000000000000000000000000000000081523360048201526024016108f6565b6002546040517fb726962e0000000000000000000000000000000000000000000000000000000081526004810185905273ffffffffffffffffffffffffffffffffffffffff84811660248301529091169063b726962e9060440161132a565b612bf9612c55565b73ffffffffffffffffffffffffffffffffffffffff8116612c49576040517f1e4fbdf7000000000000000000000000000000000000000000000000000000008152600060048201526024016108f6565b612c5281612f9c565b50565b33612c947f9016d09d72d40fdae2fd8ceac6b6234c7706214fd39c1cd1e609a0528c1993005473ffffffffffffffffffffffffffffffffffffffff1690565b73ffffffffffffffffffffffffffffffffffffffff1614611639576040517f118cdaa70000000000000000000000000000000000000000000000000000000081523360048201526024016108f6565b3073ffffffffffffffffffffffffffffffffffffffff7f0000000000000000000000000000000000000000000000000000000000000000161480612db057507f000000000000000000000000000000000000000000000000000000000000000073ffffffffffffffffffffffffffffffffffffffff16612d977f360894a13ba1a3210667c828492db98dca3e2076cc3735a920a3ca505d382bbc5473ffffffffffffffffffffffffffffffffffffffff1690565b73ffffffffffffffffffffffffffffffffffffffff1614155b15611639576040517fe07c8dba00000000000000000000000000000000000000000000000000000000815260040160405180910390fd5b612c52612c55565b8173ffffffffffffffffffffffffffffffffffffffff166352d1902d6040518163ffffffff1660e01b8152600401602060405180830381865afa925050508015612e74575060408051601f3d9081017fffffffffffffffffffffffffffffffffffffffffffffffffffffffffffffffe0168201909252612e7191810190614270565b60015b612ec2576040517f4c9c8ce300000000000000000000000000000000000000000000000000000000815273ffffffffffffffffffffffffffffffffffffffff831660048201526024016108f6565b7f360894a13ba1a3210667c828492db98dca3e2076cc3735a920a3ca505d382bbc8114612f1e576040517faa1d49a4000000000000000000000000000000000000000000000000000000008152600481018290526024016108f6565b612f28838361364a565b505050565b3073ffffffffffffffffffffffffffffffffffffffff7f00000000000000000000000000000000000000000000000000000000000000001614611639576040517fe07c8dba00000000000000000000000000000000000000000000000000000000815260040160405180910390fd5b7f9016d09d72d40fdae2fd8ceac6b6234c7706214fd39c1cd1e609a0528c19930080547fffffffffffffffffffffffff0000000000000000000000000000000000000000811673ffffffffffffffffffffffffffffffffffffffff848116918217845560405192169182907f8be0079c531659141344cd1fd0a4f28419497f9722a3daafe3b4186f6b6457e090600090a3505050565b600080546040517fef0e239b0000000000000000000000000000000000000000000000000000000081526004810185905273ffffffffffffffffffffffffffffffffffffffff9091169063ef0e239b90602401608060405180830381865afa1580156130a2573d6000803e3d6000fd5b505050506040513d601f19601f820116820180604052508101906130c69190614077565b506002546040517f66e11f570000000000000000000000000000000000000000000000000000000081526004810186905273ffffffffffffffffffffffffffffffffffffffff8581166024830152929350600092909116906366e11f5790604401602060405180830381865afa158015613144573d6000803e3d6000fd5b505050506040513d601f19601f820116820180604052508101906131689190614270565b6002546040517f4efe6f3400000000000000000000000000000000000000000000000000000000815273ffffffffffffffffffffffffffffffffffffffff86811660048301526024820188905292935060009290911690634efe6f3490604401602060405180830381865afa1580156131e5573d6000803e3d6000fd5b505050506040513d601f19601f820116820180604052508101906132099190614270565b60408085015173ffffffffffffffffffffffffffffffffffffffff90811660009081526004602090815283822092891682529190915290812080549293508492909190613257908490614289565b909155505060408084015173ffffffffffffffffffffffffffffffffffffffff90811660009081526005602090815283822092881682529190915290812080548392906132a5908490614289565b90915550506002546040517f50367f810000000000000000000000000000000000000000000000000000000081526004810187905273ffffffffffffffffffffffffffffffffffffffff86811660248301526044820185905260648201849052909116906350367f81906084015b600060405180830381600087803b15801561332d57600080fd5b505af1158015613341573d6000803e3d6000fd5b505050505050505050565b6116396136ad565b61335c6136ad565b612c5281613714565b600080546040517fef0e239b0000000000000000000000000000000000000000000000000000000081526004810185905273ffffffffffffffffffffffffffffffffffffffff9091169063ef0e239b90602401608060405180830381865afa1580156133d5573d6000803e3d6000fd5b505050506040513d601f19601f820116820180604052508101906133f99190614077565b506001546040517f8eb48beb0000000000000000000000000000000000000000000000000000000081526004810186905273ffffffffffffffffffffffffffffffffffffffff858116602483015292935060009290911690638eb48beb90604401602060405180830381865afa158015613477573d6000803e3d6000fd5b505050506040513d601f19601f8201168201806040525081019061349b9190614270565b6001546040517f62e2a1160000000000000000000000000000000000000000000000000000000081526004810187905273ffffffffffffffffffffffffffffffffffffffff8681166024830152929350600092909116906362e2a11690604401602060405180830381865afa158015613518573d6000803e3d6000fd5b505050506040513d601f19601f8201168201806040525081019061353c9190614270565b60408085015173ffffffffffffffffffffffffffffffffffffffff9081166000908152600660209081528382209289168252919091529081208054929350849290919061358a908490614289565b909155505060408084015173ffffffffffffffffffffffffffffffffffffffff90811660009081526007602090815283822092881682529190915290812080548392906135d8908490614289565b90915550506001546040517f50367f810000000000000000000000000000000000000000000000000000000081526004810187905273ffffffffffffffffffffffffffffffffffffffff86811660248301526044820185905260648201849052909116906350367f8190608401613313565b6136538261371c565b60405173ffffffffffffffffffffffffffffffffffffffff8316907fbc7cd75a20ee27fd9adebab32041f755214dbc6bffa90cc0225b39da2e5c2d3b90600090a28051156136a557612f2882826137eb565b6113c4613870565b7ff0c57e16840df040f15088dc2f81fe391c3923bec73e23a9662efc9c229c6a005468010000000000000000900460ff16611639576040517fd7e6bcf800000000000000000000000000000000000000000000000000000000815260040160405180910390fd5b612bf96136ad565b8073ffffffffffffffffffffffffffffffffffffffff163b600003613785576040517f4c9c8ce300000000000000000000000000000000000000000000000000000000815273ffffffffffffffffffffffffffffffffffffffff821660048201526024016108f6565b7f360894a13ba1a3210667c828492db98dca3e2076cc3735a920a3ca505d382bbc80547fffffffffffffffffffffffff00000000000000000000000000000000000000001673ffffffffffffffffffffffffffffffffffffffff92909216919091179055565b60606000808473ffffffffffffffffffffffffffffffffffffffff1684604051613815919061429c565b600060405180830381855af49150503d8060008114613850576040519150601f19603f3d011682016040523d82523d6000602084013e613855565b606091505b50915091506138658583836138a8565b925050505b92915050565b3415611639576040517fb398979f00000000000000000000000000000000000000000000000000000000815260040160405180910390fd5b6060826138bd576138b88261393a565b613933565b81511580156138e1575073ffffffffffffffffffffffffffffffffffffffff84163b155b15613930576040517f9996b31500000000000000000000000000000000000000000000000000000000815273ffffffffffffffffffffffffffffffffffffffff851660048201526024016108f6565b50805b9392505050565b80511561394a5780518082602001fd5b6040517f1425ea4200000000000000000000000000000000000000000000000000000000815260040160405180910390fd5b7f4e487b7100000000000000000000000000000000000000000000000000000000600052604160045260246000fd5b6040516080810167ffffffffffffffff811182821017156139ce576139ce61397c565b60405290565b600082601f8301126139e557600080fd5b81356020830160008067ffffffffffffffff841115613a0657613a0661397c565b506040517fffffffffffffffffffffffffffffffffffffffffffffffffffffffffffffffe0601f85018116603f0116810181811067ffffffffffffffff82111715613a5357613a5361397c565b604052838152905080828401871015613a6b57600080fd5b838360208301376000602085830101528094505050505092915050565b60008060408385031215613a9b57600080fd5b82359150602083013567ffffffffffffffff811115613ab957600080fd5b613ac5858286016139d4565b9150509250929050565b73ffffffffffffffffffffffffffffffffffffffff81168114612c5257600080fd5b600080600080600060a08688031215613b0957600080fd5b8535613b1481613acf565b945060208601359350604086013592506060860135613b3281613acf565b91506080860135613b4281613acf565b809150509295509295909350565b600060208284031215613b6257600080fd5b813561393381613acf565b61ffff81168114612c5257600080fd5b60008060008060808587031215613b9357600080fd5b843593506020850135613ba581613b6d565b92506040850135613bb581613acf565b91506060850135613bc581613acf565b939692955090935050565b6060810161386a82848051825273ffffffffffffffffffffffffffffffffffffffff602082015116602083015273ffffffffffffffffffffffffffffffffffffffff60408201511660408301525050565b60008060408385031215613c3457600080fd5b823591506020830135613c4681613acf565b809150509250929050565b60008060408385031215613c6457600080fd5b8235613c6f81613acf565b9150602083013567ffffffffffffffff811115613ab957600080fd5b600060808284031215613c9d57600080fd5b613ca56139ab565b823581529050602082013567ffffffffffffffff811115613cc557600080fd5b613cd1848285016139d4565b602083015250604082013567ffffffffffffffff811115613cf157600080fd5b613cfd848285016139d4565b604083015250606082013560048110613d1557600080fd5b606082015292915050565b600060808284031215613d3257600080fd5b613d3a6139ab565b90508135613d4781613acf565b8152602082810135908201526040820135613d6181613acf565b6040820152606082013567ffffffffffffffff811115613d8057600080fd5b613d8c848285016139d4565b60608301525092915050565b8015158114612c5257600080fd5b60008060008060808587031215613dbc57600080fd5b84359350602085013567ffffffffffffffff811115613dda57600080fd5b613de687828801613c8b565b935050604085013567ffffffffffffffff811115613e0357600080fd5b613e0f87828801613d20565b9250506060850135613bc581613d98565b60005b83811015613e3b578181015183820152602001613e23565b50506000910152565b60008151808452613e5c816020860160208601613e20565b601f017fffffffffffffffffffffffffffffffffffffffffffffffffffffffffffffffe0169290920160200192915050565b6020815260006139336020830184613e44565b60008060408385031215613eb457600080fd5b82359150602083013567ffffffffffffffff811115613ed257600080fd5b613ac585828601613c8b565b60008060408385031215613ef157600080fd5b823591506020830135613c4681613b6d565b600060208284031215613f1557600080fd5b5035919050565b600080600060608486031215613f3157600080fd5b83359250602084013567ffffffffffffffff811115613f4f57600080fd5b613f5b86828701613c8b565b925050604084013567ffffffffffffffff811115613f7857600080fd5b613f8486828701613d20565b9150509250925092565b828152604060208201526000613fa76040830184613e44565b949350505050565b600060208284031215613fc157600080fd5b815161393381613d98565b7f4e487b7100000000000000000000000000000000000000000000000000000000600052601160045260246000fd5b8181038181111561386a5761386a613fcc565b83815260a0810161406560208301858051825273ffffffffffffffffffffffffffffffffffffffff602082015116602083015273ffffffffffffffffffffffffffffffffffffffff60408201511660408301525050565b61ffff83166080830152949350505050565b600080828403608081121561408b57600080fd5b606081121561409957600080fd5b506040516060810167ffffffffffffffff811182821017156140bd576140bd61397c565b6040528351815260208401516140d281613acf565b602082015260408401516140e581613acf565b60408201526060840151909250613c4681613b6d565b7f4e487b7100000000000000000000000000000000000000000000000000000000600052602160045260246000fd5b60048110614161577f4e487b7100000000000000000000000000000000000000000000000000000000600052602160045260246000fd5b9052565b6020810161386a828461412a565b8051825260006020820151608060208501526141926080850182613e44565b9050604083015184820360408601526141ab8282613e44565b91505060608301516141c0606086018261412a565b509392505050565b828152604060208201526000613fa76040830184614173565b8381528260208201526060604082015273ffffffffffffffffffffffffffffffffffffffff82511660608201526020820151608082015273ffffffffffffffffffffffffffffffffffffffff60408301511660a082015260006060830151608060c084015261425360e0840182613e44565b9695505050505050565b6020815260006139336020830184614173565b60006020828403121561428257600080fd5b5051919050565b8082018082111561386a5761386a613fcc565b600082516142ae818460208701613e20565b919091019291505056fea2646970667358221220bc01167e32d258a8c9c22678f8dfa210410a09e3c06ce38bc956fb419ceb9a0964736f6c634300081c0033","linkReferences":{}},"methodIdentifiers":{"UPGRADE_INTERFACE_VERSION()":"ad3cb1cc","_erc20_escrow()":"90eafe58","_escrow()":"0619c07a","_serviceRegistry()":"91d95f3e","addAggregator(address)":"6520b009","beneficiaryWithdraw(uint256)":"cebae810","beneficiaryWithdrawERC20(uint256,address)":"58735e63","beneficiaryWithdrawStable(uint256,address)":"41ccb1b8","fulfillAndSwap(uint256,(uint256,string,string,uint8),(address,uint256,address,bytes))":"d67b1125","fulfillERC20AndSwap(uint256,(uint256,string,string,uint8),(address,uint256,address,bytes),bool)":"875f035a","initialize(address)":"c4d66de8","isAggregator(address)":"1e8f3c95","myFees(address)":"28f20b2a","myFeesNative(address)":"10301010","myPool(address)":"b7ab25e4","myPoolNative(address)":"3293e3a2","owner()":"8da5cb5b","proxiableUUID()":"52d1902d","registerERC20Fulfillment(uint256,(uint256,string,string,uint8))":"ea5447e6","registerFulfillment(uint256,(uint256,string,string,uint8))":"b4b9bb7c","renounceOwnership()":"715018a6","setERC20Escrow(address)":"be03f65c","setEscrow(address)":"c10c3546","setService(uint256,uint16,address,address)":"2248d9d6","setServiceFulfillmentFee(uint256,uint16)":"bf75f119","setServiceRef(uint256,string)":"07073d91","setServiceRegistry(address)":"d7071b1f","transferOwnership(address)":"f2fde38b","upgradeToAndCall(address,bytes)":"4f1ef286","withdrawAccumulatedFeesStable(uint256,address)":"bc8aeb32","withdrawERC20Fees(uint256,address)":"eede444c","withdrawERC20FulfillerPoolAndFees(address,uint256,uint256,address,address)":"2290a7b3","withdrawFulfillerStablePoolAndFees(address,uint256,uint256,address,address)":"08b594f5","withdrawNativeFees(uint256)":"ecaec543"},"id":8}