{"abi":[{"type":"function","name":"UPGRADE_INTERFACE_VERSION","inputs":[],"outputs":[{"name":"","type":"string","internalType":"string"}],"stateMutability":"view"},{"type":"function","name":"_accumulatedFees","inputs":[{"name":"","type":"uint256","internalType":"uint256"}],"outputs":[{"name":"","type":"uint256","internalType":"uint256"}],"stateMutability":"view"},{"type":"function","name":"_authorized_refunds","inputs":[{"name":"","type":"uint256","internalType":"uint256"},{"name":"","type":"address","internalType":"address"}],"outputs":[{"name":"","type":"uint256","internalType":"uint256"}],"stateMutability":"view"},{"type":"function","name":"_deposits","inputs":[{"name":"","type":"uint256","internalType":"uint256"},{"name":"","type":"address","internalType":"address"}],"outputs":[{"name":"","type":"uint256","internalType":"uint256"}],"stateMutability":"view"},{"type":"function","name":"_fulfillableRegistry","inputs":[],"outputs":[{"name":"","type":"address","internalType":"address"}],"stateMutability":"view"},{"type":"function","name":"_fulfillmentRecordCount","inputs":[],"outputs":[{"name":"","type":"uint256","internalType":"uint256"}],"stateMutability":"view"},{"type":"function","name":"_manager","inputs":[],"outputs":[{"name":"","type":"address","internalType":"address"}],"stateMutability":"view"},{"type":"function","name":"_releaseablePool","inputs":[{"name":"","type":"uint256","internalType":"uint256"}],"outputs":[{"name":"","type":"uint256","internalType":"uint256"}],"stateMutability":"view"},{"type":"function","name":"_router","inputs":[],"outputs":[{"name":"","type":"address","internalType":"address"}],"stateMutability":"view"},{"type":"function","name":"_stableAccumulatedFees","inputs":[{"name":"","type":"uint256","internalType":"uint256"},{"name":"","type":"address","internalType":"address"}],"outputs":[{"name":"","type":"uint256","internalType":"uint256"}],"stateMutability":"view"},{"type":"function","name":"_stableReleasePools","inputs":[{"name":"","type":"uint256","internalType":"uint256"},{"name":"","type":"address","internalType":"address"}],"outputs":[{"name":"","type":"uint256","internalType":"uint256"}],"stateMutability":"view"},{"type":"function","name":"beneficiaryWithdraw","inputs":[{"name":"serviceID","type":"uint256","internalType":"uint256"}],"outputs":[],"stateMutability":"nonpayable"},{"type":"function","name":"beneficiaryWithdrawStable","inputs":[{"name":"serviceId","type":"uint256","internalType":"uint256"},{"name":"token","type":"address","internalType":"address"}],"outputs":[],"stateMutability":"nonpayable"},{"type":"function","name":"deposit","inputs":[{"name":"serviceID","type":"uint256","internalType":"uint256"},{"name":"fulfillmentRequest","type":"tuple","internalType":"struct FulFillmentRequest","components":[{"name":"payer","type":"address","internalType":"address"},{"name":"weiAmount","type":"uint256","internalType":"uint256"},{"name":"fiatAmount","type":"uint256","internalType":"uint256"},{"name":"serviceRef","type":"string","internalType":"string"}]},{"name":"feeAmount","type":"uint256","internalType":"uint256"}],"outputs":[],"stateMutability":"payable"},{"type":"function","name":"getDepositsFor","inputs":[{"name":"payer","type":"address","internalType":"address"},{"name":"serviceID","type":"uint256","internalType":"uint256"}],"outputs":[{"name":"amount","type":"uint256","internalType":"uint256"}],"stateMutability":"view"},{"type":"function","name":"getNativeFeesFor","inputs":[{"name":"serviceId","type":"uint256","internalType":"uint256"}],"outputs":[{"name":"amount","type":"uint256","internalType":"uint256"}],"stateMutability":"view"},{"type":"function","name":"getRefundsFor","inputs":[{"name":"payer","type":"address","internalType":"address"},{"name":"serviceID","type":"uint256","internalType":"uint256"}],"outputs":[{"name":"amount","type":"uint256","internalType":"uint256"}],"stateMutability":"view"},{"type":"function","name":"initialize","inputs":[{"name":"initialOwner","type":"address","internalType":"address"}],"outputs":[],"stateMutability":"nonpayable"},{"type":"function","name":"owner","inputs":[],"outputs":[{"name":"","type":"address","internalType":"address"}],"stateMutability":"view"},{"type":"function","name":"proxiableUUID","inputs":[],"outputs":[{"name":"","type":"bytes32","internalType":"bytes32"}],"stateMutability":"view"},{"type":"function","name":"record","inputs":[{"name":"id","type":"uint256","internalType":"uint256"}],"outputs":[{"name":"","type":"tuple","internalType":"struct FulFillmentRecord","components":[{"name":"id","type":"uint256","internalType":"uint256"},{"name":"serviceRef","type":"string","internalType":"string"},{"name":"fulfiller","type":"address","internalType":"address"},{"name":"externalID","type":"string","internalType":"string"},{"name":"payer","type":"address","internalType":"address"},{"name":"weiAmount","type":"uint256","internalType":"uint256"},{"name":"feeAmount","type":"uint256","internalType":"uint256"},{"name":"fiatAmount","type":"uint256","internalType":"uint256"},{"name":"entryTime","type":"uint256","internalType":"uint256"},{"name":"receiptURI","type":"string","internalType":"string"},{"name":"status","type":"uint8","internalType":"enum FulFillmentResultState"}]}],"stateMutability":"view"},{"type":"function","name":"recordsOf","inputs":[{"name":"payer","type":"address","internalType":"address"}],"outputs":[{"name":"","type":"uint256[]","internalType":"uint256[]"}],"stateMutability":"view"},{"type":"function","name":"registerFulfillment","inputs":[{"name":"serviceID","type":"uint256","internalType":"uint256"},{"name":"fulfillment","type":"tuple","internalType":"struct FulFillmentResult","components":[{"name":"id","type":"uint256","internalType":"uint256"},{"name":"externalID","type":"string","internalType":"string"},{"name":"receiptURI","type":"string","internalType":"string"},{"name":"status","type":"uint8","internalType":"enum FulFillmentResultState"}]}],"outputs":[{"name":"","type":"bool","internalType":"bool"}],"stateMutability":"nonpayable"},{"type":"function","name":"renounceOwnership","inputs":[],"outputs":[],"stateMutability":"nonpayable"},{"type":"function","name":"setFulfillableRegistry","inputs":[{"name":"fulfillableRegistry_","type":"address","internalType":"address"}],"outputs":[],"stateMutability":"nonpayable"},{"type":"function","name":"setManager","inputs":[{"name":"manager_","type":"address","internalType":"address"}],"outputs":[],"stateMutability":"nonpayable"},{"type":"function","name":"setRouter","inputs":[{"name":"router_","type":"address","internalType":"address"}],"outputs":[],"stateMutability":"nonpayable"},{"type":"function","name":"subtractPoolsAndFees","inputs":[{"name":"serviceId","type":"uint256","internalType":"uint256"},{"name":"token","type":"address","internalType":"address"},{"name":"amount","type":"uint256","internalType":"uint256"},{"name":"fees","type":"uint256","internalType":"uint256"}],"outputs":[],"stateMutability":"nonpayable"},{"type":"function","name":"swapPoolsToStable","inputs":[{"name":"serviceId","type":"uint256","internalType":"uint256"},{"name":"recordId","type":"uint256","internalType":"uint256"},{"name":"swapData","type":"tuple","internalType":"struct SwapData","components":[{"name":"toToken","type":"address","internalType":"address"},{"name":"amount","type":"uint256","internalType":"uint256"},{"name":"callTo","type":"address","internalType":"address payable"},{"name":"callData","type":"bytes","internalType":"bytes"}]}],"outputs":[],"stateMutability":"nonpayable"},{"type":"function","name":"transferOwnership","inputs":[{"name":"newOwner","type":"address","internalType":"address"}],"outputs":[],"stateMutability":"nonpayable"},{"type":"function","name":"upgradeToAndCall","inputs":[{"name":"newImplementation","type":"address","internalType":"address"},{"name":"data","type":"bytes","internalType":"bytes"}],"outputs":[],"stateMutability":"payable"},{"type":"function","name":"withdrawAccumulatedFees","inputs":[{"name":"serviceId","type":"uint256","internalType":"uint256"}],"outputs":[],"stateMutability":"nonpayable"},{"type":"function","name":"withdrawAccumulatedFeesStable","inputs":[{"name":"serviceId","type":"uint256","internalType":"uint256"},{"name":"token","type":"address","internalType":"address"}],"outputs":[],"stateMutability":"nonpayable"},{"type":"function","name":"withdrawFulfillerPoolAndFees","inputs":[{"name":"token","type":"address","internalType":"address"},{"name":"amount","type":"uint256","internalType":"uint256"},{"name":"fees","type":"uint256","internalType":"uint256"},{"name":"beneficiary","type":"address","internalType":"address"},{"name":"feesBeneficiary","type":"address","internalType":"address"}],"outputs":[],"stateMutability":"nonpayable"},{"type":"function","name":"withdrawRefund","inputs":[{"name":"serviceID","type":"uint256","internalType":"uint256"},{"name":"recordId","type":"uint256","internalType":"uint256"}],"outputs":[{"name":"","type":"bool","internalType":"bool"}],"stateMutability":"nonpayable"},{"type":"event","name":"DepositReceived","inputs":[{"name":"record","type":"tuple","indexed":false,"internalType":"struct FulFillmentRecord","components":[{"name":"id","type":"uint256","internalType":"uint256"},{"name":"serviceRef","type":"string","internalType":"string"},{"name":"fulfiller","type":"address","internalType":"address"},{"name":"externalID","type":"string","internalType":"string"},{"name":"payer","type":"address","internalType":"address"},{"name":"weiAmount","type":"uint256","internalType":"uint256"},{"name":"feeAmount","type":"uint256","internalType":"uint256"},{"name":"fiatAmount","type":"uint256","internalType":"uint256"},{"name":"entryTime","type":"uint256","internalType":"uint256"},{"name":"receiptURI","type":"string","internalType":"string"},{"name":"status","type":"uint8","internalType":"enum FulFillmentResultState"}]}],"anonymous":false},{"type":"event","name":"FeeUpdated","inputs":[{"name":"serviceID","type":"uint256","indexed":false,"internalType":"uint256"},{"name":"amount","type":"uint256","indexed":false,"internalType":"uint256"}],"anonymous":false},{"type":"event","name":"FeesWithdrawn","inputs":[{"name":"serviceId","type":"uint256","indexed":true,"internalType":"uint256"},{"name":"beneficiary","type":"address","indexed":false,"internalType":"address"},{"name":"amount","type":"uint256","indexed":false,"internalType":"uint256"}],"anonymous":false},{"type":"event","name":"FulfillableRegistryUpdated","inputs":[{"name":"fulfillableRegistry","type":"address","indexed":true,"internalType":"address"}],"anonymous":false},{"type":"event","name":"FulfillerPoolAndFeesWithdrawn","inputs":[{"name":"token","type":"address","indexed":false,"internalType":"address"},{"name":"amount","type":"uint256","indexed":false,"internalType":"uint256"},{"name":"fees","type":"uint256","indexed":false,"internalType":"uint256"},{"name":"beneficiary","type":"address","indexed":false,"internalType":"address"},{"name":"feesBeneficiary","type":"address","indexed":false,"internalType":"address"}],"anonymous":false},{"type":"event","name":"Initialized","inputs":[{"name":"version","type":"uint64","indexed":false,"internalType":"uint64"}],"anonymous":false},{"type":"event","name":"ManagerUpdated","inputs":[{"name":"manager","type":"address","indexed":true,"internalType":"address"}],"anonymous":false},{"type":"event","name":"OwnershipTransferred","inputs":[{"name":"previousOwner","type":"address","indexed":true,"internalType":"address"},{"name":"newOwner","type":"address","indexed":true,"internalType":"address"}],"anonymous":false},{"type":"event","name":"PoolsAndFeesSubtracted","inputs":[{"name":"serviceId","type":"uint256","indexed":false,"internalType":"uint256"},{"name":"token","type":"address","indexed":false,"internalType":"address"},{"name":"amount","type":"uint256","indexed":false,"internalType":"uint256"},{"name":"fees","type":"uint256","indexed":false,"internalType":"uint256"}],"anonymous":false},{"type":"event","name":"PoolsSwappedToStable","inputs":[{"name":"serviceId","type":"uint256","indexed":true,"internalType":"uint256"},{"name":"aggregator","type":"address","indexed":true,"internalType":"address payable"},{"name":"toToken","type":"address","indexed":false,"internalType":"address"},{"name":"releaseableAmount","type":"uint256","indexed":false,"internalType":"uint256"},{"name":"feesAmount","type":"uint256","indexed":false,"internalType":"uint256"},{"name":"receivedStable","type":"uint256","indexed":false,"internalType":"uint256"}],"anonymous":false},{"type":"event","name":"RefundAuthorized","inputs":[{"name":"payee","type":"address","indexed":true,"internalType":"address"},{"name":"weiAmount","type":"uint256","indexed":false,"internalType":"uint256"}],"anonymous":false},{"type":"event","name":"RefundWithdrawn","inputs":[{"name":"payee","type":"address","indexed":true,"internalType":"address"},{"name":"weiAmount","type":"uint256","indexed":false,"internalType":"uint256"},{"name":"recordId","type":"uint256","indexed":false,"internalType":"uint256"}],"anonymous":false},{"type":"event","name":"RouterUpdated","inputs":[{"name":"router","type":"address","indexed":true,"internalType":"address"}],"anonymous":false},{"type":"event","name":"Upgraded","inputs":[{"name":"implementation","type":"address","indexed":true,"internalType":"address"}],"anonymous":false},{"type":"error","name":"AddressEmptyCode","inputs":[{"name":"target","type":"address","internalType":"address"}]},{"type":"error","name":"AddressInsufficientBalance","inputs":[{"name":"account","type":"address","internalType":"address"}]},{"type":"error","name":"AggregatorCallFailed","inputs":[]},{"type":"error","name":"ERC1967InvalidImplementation","inputs":[{"name":"implementation","type":"address","internalType":"address"}]},{"type":"error","name":"ERC1967NonPayable","inputs":[]},{"type":"error","name":"FailedInnerCall","inputs":[]},{"type":"error","name":"FulfillmentAlreadyRegistered","inputs":[]},{"type":"error","name":"FulfillmentRecordDoesNotExist","inputs":[]},{"type":"error","name":"InsufficientBalance","inputs":[{"name":"required","type":"uint256","internalType":"uint256"},{"name":"balance","type":"uint256","internalType":"uint256"}]},{"type":"error","name":"InsufficientCombinedBalance","inputs":[{"name":"totalAvailable","type":"uint256","internalType":"uint256"},{"name":"amount","type":"uint256","internalType":"uint256"}]},{"type":"error","name":"InvalidAddress","inputs":[{"name":"address_","type":"address","internalType":"address"}]},{"type":"error","name":"InvalidCaller","inputs":[{"name":"caller","type":"address","internalType":"address"}]},{"type":"error","name":"InvalidInitialization","inputs":[]},{"type":"error","name":"InvalidManager","inputs":[{"name":"manager","type":"address","internalType":"address"}]},{"type":"error","name":"InvalidRouter","inputs":[{"name":"router_","type":"address","internalType":"address"}]},{"type":"error","name":"InvalidSwapAmount","inputs":[]},{"type":"error","name":"InvalidTokenAddress","inputs":[]},{"type":"error","name":"NoBalanceToRelease","inputs":[]},{"type":"error","name":"NoFeesToWithdraw","inputs":[]},{"type":"error","name":"NoRefunds","inputs":[{"name":"refundee","type":"address","internalType":"address"},{"name":"serviceID","type":"uint256","internalType":"uint256"}]},{"type":"error","name":"NotInitializing","inputs":[]},{"type":"error","name":"Overflow","inputs":[{"name":"reason","type":"uint8","internalType":"uint8"}]},{"type":"error","name":"OwnableInvalidOwner","inputs":[{"name":"owner","type":"address","internalType":"address"}]},{"type":"error","name":"OwnableUnauthorizedAccount","inputs":[{"name":"account","type":"address","internalType":"address"}]},{"type":"error","name":"ReentrancyGuardReentrantCall","inputs":[]},{"type":"error","name":"RefundsTooBig","inputs":[]},{"type":"error","name":"SafeERC20FailedOperation","inputs":[{"name":"token","type":"address","internalType":"address"}]},{"type":"error","name":"UUPSUnauthorizedCallContext","inputs":[]},{"type":"error","name":"UUPSUnsupportedProxiableUUID","inputs":[{"name":"slot","type":"bytes32","internalType":"bytes32"}]},{"type":"error","name":"UnsupportedStatus","inputs":[{"name":"status","type":"uint8","internalType":"enum FulFillmentResultState"}]}],"bytecode":{"object":"0x60a06040523060805234801561001457600080fd5b5061001d610022565b6100d4565b7ff0c57e16840df040f15088dc2f81fe391c3923bec73e23a9662efc9c229c6a00805468010000000000000000900460ff16156100725760405163f92ee8a960e01b815260040160405180910390fd5b80546001600160401b03908116146100d15780546001600160401b0319166001600160401b0390811782556040519081527fc7f505b2f371ae2175ee4913f4499e1f2633a7b5936321eed1cdaeb6115181d29060200160405180910390a15b50565b608051614ad26100fd600039600081816129fc01528181612a250152612d2c0152614ad26000f3fe6080604052600436106102345760003560e01c8063ad3cb1cc11610138578063d4b59fed116100b0578063e53025ed1161007f578063edae876f11610064578063edae876f146107b3578063f0329f6b146107e0578063f2fde38b1461080d57600080fd5b8063e53025ed14610759578063e5b7e2b41461078657600080fd5b8063d4b59fed14610693578063dbc85c5a146106e1578063ddb7d5df14610701578063e428c8021461072157600080fd5b8063bc8aeb3211610107578063c4d66de8116100ec578063c4d66de814610633578063cebae81014610653578063d0ebdbe71461067357600080fd5b8063bc8aeb32146105f3578063c0d786551461061357600080fd5b8063ad3cb1cc14610520578063ae4d49ba14610576578063b4b9bb7c146105a3578063b7aeb6ef146105d357600080fd5b806352d1902d116101cb578063715018a61161019a578063857e57f61161017f578063857e57f6146104715780638da5cb5b1461049e5780638eb48beb146104e857600080fd5b8063715018a614610446578063835d140e1461045b57600080fd5b806352d1902d146103ae578063596e250d146103c357806362e2a116146103fb5780636928c2711461043357600080fd5b806341ccb1b81161020757806341ccb1b81461033b5780634926dc2c1461035b5780634f1ef2861461037b57806350367f811461038e57600080fd5b80630b28a076146102395780630c4393b91461029a5780631a016c8b146102ec5780632c16cd8a1461030e575b600080fd5b34801561024557600080fd5b50610287610254366004614003565b6000908152600b6020908152604080832073ffffffffffffffffffffffffffffffffffffffff9094168352929052205490565b6040519081526020015b60405180910390f35b3480156102a657600080fd5b506006546102c79073ffffffffffffffffffffffffffffffffffffffff1681565b60405173ffffffffffffffffffffffffffffffffffffffff9091168152602001610291565b3480156102f857600080fd5b5061030c61030736600461402f565b61082d565b005b34801561031a57600080fd5b5061032e610329366004614086565b610b4c565b6040516102919190614177565b34801561034757600080fd5b5061030c6103563660046142b2565b610dd4565b34801561036757600080fd5b5061030c6103763660046142e2565b610e66565b61030c610389366004614431565b610f64565b34801561039a57600080fd5b5061030c6103a9366004614495565b610f7f565b3480156103ba57600080fd5b50610287610fe4565b3480156103cf57600080fd5b506102876103de3660046142b2565b600b60209081526000928352604080842090915290825290205481565b34801561040757600080fd5b506102876104163660046142b2565b600d60209081526000928352604080842090915290825290205481565b61030c6104413660046144f2565b611013565b34801561045257600080fd5b5061030c611467565b34801561046757600080fd5b5061028760035481565b34801561047d57600080fd5b5061028761048c366004614086565b60009081526009602052604090205490565b3480156104aa57600080fd5b507f9016d09d72d40fdae2fd8ceac6b6234c7706214fd39c1cd1e609a0528c1993005473ffffffffffffffffffffffffffffffffffffffff166102c7565b3480156104f457600080fd5b506102876105033660046142b2565b600c60209081526000928352604080842090915290825290205481565b34801561052c57600080fd5b506105696040518060400160405280600581526020017f352e302e3000000000000000000000000000000000000000000000000000000081525081565b604051610291919061459e565b34801561058257600080fd5b50610287610591366004614086565b60086020526000908152604090205481565b3480156105af57600080fd5b506105c36105be3660046145b1565b61147b565b6040519015158152602001610291565b3480156105df57600080fd5b5061030c6105ee366004614086565b611905565b3480156105ff57600080fd5b5061030c61060e3660046142b2565b611afc565b34801561061f57600080fd5b5061030c61062e36600461467e565b611b61565b34801561063f57600080fd5b5061030c61064e36600461467e565b611c3d565b34801561065f57600080fd5b5061030c61066e366004614086565b611dd2565b34801561067f57600080fd5b5061030c61068e36600461467e565b611f6e565b34801561069f57600080fd5b506102876106ae366004614003565b6000908152600a6020908152604080832073ffffffffffffffffffffffffffffffffffffffff9094168352929052205490565b3480156106ed57600080fd5b5061030c6106fc36600461467e565b61204a565b34801561070d57600080fd5b506105c361071c36600461469b565b612132565b34801561072d57600080fd5b5061028761073c3660046142b2565b600a60209081526000928352604080842090915290825290205481565b34801561076557600080fd5b50610287610774366004614086565b60096020526000908152604090205481565b34801561079257600080fd5b506107a66107a136600461467e565b612172565b60405161029191906146bd565b3480156107bf57600080fd5b506005546102c79073ffffffffffffffffffffffffffffffffffffffff1681565b3480156107ec57600080fd5b506004546102c79073ffffffffffffffffffffffffffffffffffffffff1681565b34801561081957600080fd5b5061030c61082836600461467e565b6121eb565b61083561224c565b60045473ffffffffffffffffffffffffffffffffffffffff16331461088d576040517fcbd9d2e00000000000000000000000000000000000000000000000000000000081523360048201526024015b60405180910390fd5b6000828152600160208181526040808420815161016081019092528054825292830180549193928401916108c090614700565b80601f01602080910402602001604051908101604052809291908181526020018280546108ec90614700565b80156109395780601f1061090e57610100808354040283529160200191610939565b820191906000526020600020905b81548152906001019060200180831161091c57829003601f168201915b5050509183525050600282015473ffffffffffffffffffffffffffffffffffffffff16602082015260038201805460409092019161097690614700565b80601f01602080910402602001604051908101604052809291908181526020018280546109a290614700565b80156109ef5780601f106109c4576101008083540402835291602001916109ef565b820191906000526020600020905b8154815290600101906020018083116109d257829003601f168201915b5050509183525050600482015473ffffffffffffffffffffffffffffffffffffffff166020820152600582015460408201526006820154606082015260078201546080820152600882015460a082015260098201805460c090920191610a5490614700565b80601f0160208091040260200160405190810160405280929190818152602001828054610a8090614700565b8015610acd5780601f10610aa257610100808354040283529160200191610acd565b820191906000526020600020905b815481529060010190602001808311610ab057829003601f168201915b5050509183525050600a82015460209091019060ff166003811115610af457610af461410d565b6003811115610b0557610b0561410d565b9052509050610b1d600c600d600860098887876122cd565b50610b4760017f9b779b17422d0df92223018b32b4d1fa46e071723d6817e2486d003becc55f0055565b505050565b610b54613f4b565b6000828152600160208181526040928390208351610160810190945280548452918201805491840191610b8690614700565b80601f0160208091040260200160405190810160405280929190818152602001828054610bb290614700565b8015610bff5780601f10610bd457610100808354040283529160200191610bff565b820191906000526020600020905b815481529060010190602001808311610be257829003601f168201915b5050509183525050600282015473ffffffffffffffffffffffffffffffffffffffff166020820152600382018054604090920191610c3c90614700565b80601f0160208091040260200160405190810160405280929190818152602001828054610c6890614700565b8015610cb55780601f10610c8a57610100808354040283529160200191610cb5565b820191906000526020600020905b815481529060010190602001808311610c9857829003601f168201915b5050509183525050600482015473ffffffffffffffffffffffffffffffffffffffff166020820152600582015460408201526006820154606082015260078201546080820152600882015460a082015260098201805460c090920191610d1a90614700565b80601f0160208091040260200160405190810160405280929190818152602001828054610d4690614700565b8015610d935780601f10610d6857610100808354040283529160200191610d93565b820191906000526020600020905b815481529060010190602001808311610d7657829003601f168201915b5050509183525050600a82015460209091019060ff166003811115610dba57610dba61410d565b6003811115610dcb57610dcb61410d565b90525092915050565b60045473ffffffffffffffffffffffffffffffffffffffff163314610e27576040517fcbd9d2e0000000000000000000000000000000000000000000000000000000008152336004820152602401610884565b610e2f61224c565b610e39828261260b565b610e6260017f9b779b17422d0df92223018b32b4d1fa46e071723d6817e2486d003becc55f0055565b5050565b60045473ffffffffffffffffffffffffffffffffffffffff163314610eb9576040517fcbd9d2e0000000000000000000000000000000000000000000000000000000008152336004820152602401610884565b610ec161224c565b610ece858585858561274f565b6040805173ffffffffffffffffffffffffffffffffffffffff87811682526020820187905281830186905284811660608301528316608082015290517f98d934fe8fc75cd69945d5121bc8a475733b68ad9fd573b3cb32dc796b7b6b7f9181900360a00190a1610f5d60017f9b779b17422d0df92223018b32b4d1fa46e071723d6817e2486d003becc55f0055565b5050505050565b610f6c6129e4565b610f7582612ae8565b610e628282612af0565b60045473ffffffffffffffffffffffffffffffffffffffff163314610fd2576040517fcbd9d2e0000000000000000000000000000000000000000000000000000000008152336004820152602401610884565b610fde84848484612c29565b50505050565b6000610fee612d14565b507f360894a13ba1a3210667c828492db98dca3e2076cc3735a920a3ca505d382bbc90565b61101b61224c565b60055473ffffffffffffffffffffffffffffffffffffffff16331461106e576040517fd7f73334000000000000000000000000000000000000000000000000000000008152336004820152602401610884565b6007546040517fef0e239b0000000000000000000000000000000000000000000000000000000081526004810185905260009173ffffffffffffffffffffffffffffffffffffffff169063ef0e239b90602401608060405180830381865afa1580156110de573d6000803e3d6000fd5b505050506040513d601f19601f820116820180604052508101906111029190614753565b5083516000868152600a6020908152604080832073ffffffffffffffffffffffffffffffffffffffff909416835292905290812054919250349190806111488484612d83565b9150915081611186576040517fc0d7d3cc00000000000000000000000000000000000000000000000000000000815260066004820152602401610884565b86516000898152600a6020908152604080832073ffffffffffffffffffffffffffffffffffffffff94851684528252808320859055805161016081018252835481526060808d0151828501528a83015186168284015282518085018452858152908201528b519094166080850152818b015160a085015260c084018a9052808b015160e08501524261010085015280519182019052818152610120830152906101408101600281525090506001600080828254611243919061480d565b9250508190555060016003600082825461125d919061480d565b909155505080516000908152600160208181526040909220835181559183015183929182019061128d9082614867565b5060408201516002820180547fffffffffffffffffffffffff00000000000000000000000000000000000000001673ffffffffffffffffffffffffffffffffffffffff909216919091179055606082015160038201906112ed9082614867565b5060808201516004820180547fffffffffffffffffffffffff00000000000000000000000000000000000000001673ffffffffffffffffffffffffffffffffffffffff90921691909117905560a0820151600582015560c0820151600682015560e08201516007820155610100820151600882015561012082015160098201906113779082614867565b50610140820151600a820180547fffffffffffffffffffffffffffffffffffffffffffffffffffffffffffffff001660018360038111156113ba576113ba61410d565b02179055505050608081015173ffffffffffffffffffffffffffffffffffffffff166000908152600260209081526040808320845181546001810183559185529290932090920155517f600d16f62674ed495bf7267a98a253325b6f464cbc486bf1b9a66e101551e4e590611430908390614177565b60405180910390a1505050505050610b4760017f9b779b17422d0df92223018b32b4d1fa46e071723d6817e2486d003becc55f0055565b61146f612dac565b6114796000612e3a565b565b600061148561224c565b60045473ffffffffffffffffffffffffffffffffffffffff1633146114d8576040517f294f8a17000000000000000000000000000000000000000000000000000000008152336004820152602401610884565b81516000908152600160205260408120549003611521576040517f54446f7100000000000000000000000000000000000000000000000000000000815260040160405180910390fd5b600282516000908152600160205260409020600a015460ff16600381111561154b5761154b61410d565b14611582576040517fcdc7646400000000000000000000000000000000000000000000000000000000815260040160405180910390fd5b8151600090815260016020818152604080842060040154878552600a835281852073ffffffffffffffffffffffffffffffffffffffff909116808652908352818520548751865293909252808420600501548651855290842060060154919390916115ee908390612d83565b9150600090508660600151600381111561160a5761160a61410d565b0361167a5761161a878583612ed0565b606086015186516000908152600160208190526040909120600a01805490917fffffffffffffffffffffffffffffffffffffffffffffffffffffffffffffff00909116908360038111156116705761167061410d565b02179055506118ce565b6001866060015160038111156116925761169261410d565b146116cf5785606001516040517fab8cc2a80000000000000000000000000000000000000000000000000000000081526004016108849190614980565b85516000908152600160209081526040808320600601548a8452600990925282205482916116fd9190612d83565b915091508161173b576040517fc0d7d3cc00000000000000000000000000000000000000000000000000000000815260036004820152602401610884565b6000898152600960209081526040808320849055600890915281205481906117639087612d83565b91509150816117a0576040517fc0d7d3cc000000000000000000000000000000000000000000000000000000008152600481810152602401610884565b6000806117ad898861304e565b91509150816117eb576040517fc0d7d3cc00000000000000000000000000000000000000000000000000000000815260056004820152602401610884565b60008d8152600860209081526040808320869055600a825280832073ffffffffffffffffffffffffffffffffffffffff8e16845282528083208490558e8101518f5184526001909252909120600901906118459082614867565b5060608c01518c516000908152600160208190526040909120600a01805490917fffffffffffffffffffffffffffffffffffffffffffffffffffffffffffffff009091169083600381111561189c5761189c61410d565b02179055506020808d01518d51600090815260019092526040909120600301906118c69082614867565b505050505050505b60019450505050506118ff60017f9b779b17422d0df92223018b32b4d1fa46e071723d6817e2486d003becc55f0055565b92915050565b61190d61224c565b60045473ffffffffffffffffffffffffffffffffffffffff163314611960576040517f294f8a17000000000000000000000000000000000000000000000000000000008152336004820152602401610884565b6007546040517fef0e239b0000000000000000000000000000000000000000000000000000000081526004810183905260009173ffffffffffffffffffffffffffffffffffffffff169063ef0e239b90602401608060405180830381865afa1580156119d0573d6000803e3d6000fd5b505050506040513d601f19601f820116820180604052508101906119f49190614753565b50600083815260096020526040812054919250819003611a40576040517f6806da6800000000000000000000000000000000000000000000000000000000815260040160405180910390fd5b6000838152600960209081526040822091909155820151611a779073ffffffffffffffffffffffffffffffffffffffff1682613070565b6020808301516040805173ffffffffffffffffffffffffffffffffffffffff909216825291810183905284917f538e1189c5c6413ddd9194fe5e947ef693ea737bd368a9e0aca4c286854c9bd8910160405180910390a25050611af960017f9b779b17422d0df92223018b32b4d1fa46e071723d6817e2486d003becc55f0055565b50565b60045473ffffffffffffffffffffffffffffffffffffffff163314611b4f576040517fcbd9d2e0000000000000000000000000000000000000000000000000000000008152336004820152602401610884565b611b5761224c565b610e398282613146565b611b69612dac565b73ffffffffffffffffffffffffffffffffffffffff8116611bce576040517f8e4c8aa600000000000000000000000000000000000000000000000000000000815273ffffffffffffffffffffffffffffffffffffffff82166004820152602401610884565b600580547fffffffffffffffffffffffff00000000000000000000000000000000000000001673ffffffffffffffffffffffffffffffffffffffff83169081179091556040517f7aed1d3e8155a07ccf395e44ea3109a0e2d6c9b29bbbe9f142d9790596f4dc8090600090a250565b7ff0c57e16840df040f15088dc2f81fe391c3923bec73e23a9662efc9c229c6a00805468010000000000000000810460ff16159067ffffffffffffffff16600081158015611c885750825b905060008267ffffffffffffffff166001148015611ca55750303b155b905081158015611cb3575080155b15611cea576040517ff92ee8a900000000000000000000000000000000000000000000000000000000815260040160405180910390fd5b84547fffffffffffffffffffffffffffffffffffffffffffffffff00000000000000001660011785558315611d4b5784547fffffffffffffffffffffffffffffffffffffffffffffff00ffffffffffffffff16680100000000000000001785555b611d5361328a565b611d5b613292565b611d64866132a2565b60016000558315611dca5784547fffffffffffffffffffffffffffffffffffffffffffffff00ffffffffffffffff168555604051600181527fc7f505b2f371ae2175ee4913f4499e1f2633a7b5936321eed1cdaeb6115181d29060200160405180910390a15b505050505050565b611dda61224c565b60045473ffffffffffffffffffffffffffffffffffffffff163314611e2d576040517f294f8a17000000000000000000000000000000000000000000000000000000008152336004820152602401610884565b6007546040517fef0e239b0000000000000000000000000000000000000000000000000000000081526004810183905260009173ffffffffffffffffffffffffffffffffffffffff169063ef0e239b90602401608060405180830381865afa158015611e9d573d6000803e3d6000fd5b505050506040513d601f19601f82011682018060405250810190611ec19190614753565b5060008381526008602052604081205491925003611f0b576040517f6e7e9ea500000000000000000000000000000000000000000000000000000000815260040160405180910390fd5b600082815260086020908152604082208054929055820151611f439073ffffffffffffffffffffffffffffffffffffffff1682613070565b5050611af960017f9b779b17422d0df92223018b32b4d1fa46e071723d6817e2486d003becc55f0055565b611f76612dac565b73ffffffffffffffffffffffffffffffffffffffff8116611fdb576040517f8e4c8aa600000000000000000000000000000000000000000000000000000000815273ffffffffffffffffffffffffffffffffffffffff82166004820152602401610884565b600480547fffffffffffffffffffffffff00000000000000000000000000000000000000001673ffffffffffffffffffffffffffffffffffffffff83169081179091556040517f2c1c11af44aa5608f1dca38c00275c30ea091e02417d36e70e9a1538689c433d90600090a250565b612052612dac565b73ffffffffffffffffffffffffffffffffffffffff81166120b7576040517f8e4c8aa600000000000000000000000000000000000000000000000000000000815273ffffffffffffffffffffffffffffffffffffffff82166004820152602401610884565b6006805473ffffffffffffffffffffffffffffffffffffffff83167fffffffffffffffffffffffff0000000000000000000000000000000000000000918216811790925560078054909116821790556040517f12fd82a8fae6400d0456d521504e56c94dd90726268fd158b0584ec682e1b5b190600090a250565b600061213c61224c565b61214683836132b3565b5060016118ff60017f9b779b17422d0df92223018b32b4d1fa46e071723d6817e2486d003becc55f0055565b73ffffffffffffffffffffffffffffffffffffffff81166000908152600260209081526040918290208054835181840281018401909452808452606093928301828280156121df57602002820191906000526020600020905b8154815260200190600101908083116121cb575b50505050509050919050565b6121f3612dac565b73ffffffffffffffffffffffffffffffffffffffff8116612243576040517f1e4fbdf700000000000000000000000000000000000000000000000000000000815260006004820152602401610884565b611af981612e3a565b7f9b779b17422d0df92223018b32b4d1fa46e071723d6817e2486d003becc55f0080547ffffffffffffffffffffffffffffffffffffffffffffffffffffffffffffffffe016122c7576040517f3ee5aeb500000000000000000000000000000000000000000000000000000000815260040160405180910390fd5b60029055565b60006122dc602084018461467e565b73ffffffffffffffffffffffffffffffffffffffff1603612329576040517f1eb00b0600000000000000000000000000000000000000000000000000000000815260040160405180910390fd5b8160200135600003612367576040517fe346d81d00000000000000000000000000000000000000000000000000000000815260040160405180910390fd5b6000838152602086815260408083205491879052822054909161238a828461480d565b905084602001358110156123d7576040517f29b1c8110000000000000000000000000000000000000000000000000000000081526004810182905260208601356024820152604401610884565b6123e5838560a0015161375f565b6123ef908461498e565b600087815260208a9052604090205560c084015161240e90839061375f565b612418908361498e565b600087815260208990526040808220929092559061244690612440906060890190890161467e565b87613777565b905060008061245e88602001358860a0015185613984565b91509150818d60008b815260200190815260200160002060008a600001602081019061248a919061467e565b73ffffffffffffffffffffffffffffffffffffffff1673ffffffffffffffffffffffffffffffffffffffff16815260200190815260200160002060008282546124d3919061480d565b9091555050600089815260208d815260408220839290916124f6908c018c61467e565b73ffffffffffffffffffffffffffffffffffffffff1673ffffffffffffffffffffffffffffffffffffffff168152602001908152602001600020600082825461253f919061480d565b9091555061255590506060890160408a0161467e565b73ffffffffffffffffffffffffffffffffffffffff16897fca3505fbd3a47a94271554014329e93911d2e5eb9e0fdf1d50d5f67cd31603a961259a60208c018c61467e565b6040805173ffffffffffffffffffffffffffffffffffffffff9092168252602082018b905281018990526060810187905260800160405180910390a350505050505050505050505050565b60017f9b779b17422d0df92223018b32b4d1fa46e071723d6817e2486d003becc55f0055565b6007546040517fef0e239b0000000000000000000000000000000000000000000000000000000081526004810184905260009173ffffffffffffffffffffffffffffffffffffffff169063ef0e239b90602401608060405180830381865afa15801561267b573d6000803e3d6000fd5b505050506040513d601f19601f8201168201806040525081019061269f9190614753565b506000848152600c6020908152604080832073ffffffffffffffffffffffffffffffffffffffff871684529091528120549192500361270a576040517f6e7e9ea500000000000000000000000000000000000000000000000000000000815260040160405180910390fd5b6000838152600c6020908152604080832073ffffffffffffffffffffffffffffffffffffffff8616808552908352908320805493905590830151610fde9190836139bc565b73ffffffffffffffffffffffffffffffffffffffff85166127b4576040517f8e4c8aa600000000000000000000000000000000000000000000000000000000815273ffffffffffffffffffffffffffffffffffffffff86166004820152602401610884565b73ffffffffffffffffffffffffffffffffffffffff821615806127eb575073ffffffffffffffffffffffffffffffffffffffff8116155b15612825576040517f8e4c8aa600000000000000000000000000000000000000000000000000000000815260006004820152602401610884565b83156129bd576000612837848661480d565b6040517f70a0823100000000000000000000000000000000000000000000000000000000815230600482015290915073ffffffffffffffffffffffffffffffffffffffff8716906370a0823190602401602060405180830381865afa1580156128a4573d6000803e3d6000fd5b505050506040513d601f19601f820116820180604052508101906128c891906149a1565b81111561299a576040517f70a08231000000000000000000000000000000000000000000000000000000008152306004820152819073ffffffffffffffffffffffffffffffffffffffff8816906370a0823190602401602060405180830381865afa15801561293b573d6000803e3d6000fd5b505050506040513d601f19601f8201168201806040525081019061295f91906149a1565b6040517fcf47918100000000000000000000000000000000000000000000000000000000815260048101929092526024820152604401610884565b6129bb73ffffffffffffffffffffffffffffffffffffffff871684876139bc565b505b8215610f5d57610f5d73ffffffffffffffffffffffffffffffffffffffff861682856139bc565b3073ffffffffffffffffffffffffffffffffffffffff7f0000000000000000000000000000000000000000000000000000000000000000161480612ab157507f000000000000000000000000000000000000000000000000000000000000000073ffffffffffffffffffffffffffffffffffffffff16612a987f360894a13ba1a3210667c828492db98dca3e2076cc3735a920a3ca505d382bbc5473ffffffffffffffffffffffffffffffffffffffff1690565b73ffffffffffffffffffffffffffffffffffffffff1614155b15611479576040517fe07c8dba00000000000000000000000000000000000000000000000000000000815260040160405180910390fd5b611af9612dac565b8173ffffffffffffffffffffffffffffffffffffffff166352d1902d6040518163ffffffff1660e01b8152600401602060405180830381865afa925050508015612b75575060408051601f3d9081017fffffffffffffffffffffffffffffffffffffffffffffffffffffffffffffffe0168201909252612b72918101906149a1565b60015b612bc3576040517f4c9c8ce300000000000000000000000000000000000000000000000000000000815273ffffffffffffffffffffffffffffffffffffffff83166004820152602401610884565b7f360894a13ba1a3210667c828492db98dca3e2076cc3735a920a3ca505d382bbc8114612c1f576040517faa1d49a400000000000000000000000000000000000000000000000000000000815260048101829052602401610884565b610b478383613a49565b6000848152600c6020908152604080832073ffffffffffffffffffffffffffffffffffffffff8716845290915281208054849290612c6890849061498e565b90915550506000848152600d6020908152604080832073ffffffffffffffffffffffffffffffffffffffff8716845290915281208054839290612cac90849061498e565b90915550506040805185815273ffffffffffffffffffffffffffffffffffffffff85166020820152908101839052606081018290527ff1fe585819f415cf2a8c312f286baa84e52fea1526c729fbf54e8885e60112509060800160405180910390a150505050565b3073ffffffffffffffffffffffffffffffffffffffff7f00000000000000000000000000000000000000000000000000000000000000001614611479576040517fe07c8dba00000000000000000000000000000000000000000000000000000000815260040160405180910390fd5b60008083830184811015612d9e576000809250925050612da5565b6001925090505b9250929050565b33612deb7f9016d09d72d40fdae2fd8ceac6b6234c7706214fd39c1cd1e609a0528c1993005473ffffffffffffffffffffffffffffffffffffffff1690565b73ffffffffffffffffffffffffffffffffffffffff1614611479576040517f118cdaa7000000000000000000000000000000000000000000000000000000008152336004820152602401610884565b7f9016d09d72d40fdae2fd8ceac6b6234c7706214fd39c1cd1e609a0528c19930080547fffffffffffffffffffffffff0000000000000000000000000000000000000000811673ffffffffffffffffffffffffffffffffffffffff848116918217845560405192169182907f8be0079c531659141344cd1fd0a4f28419497f9722a3daafe3b4186f6b6457e090600090a3505050565b6000838152600b6020908152604080832073ffffffffffffffffffffffffffffffffffffffff861680855290835281842054878552600a84528285209185529252822054909180612f218486612d83565b9150915081612f5f576040517fc0d7d3cc00000000000000000000000000000000000000000000000000000000815260016004820152602401610884565b84831015612f99576040517f1eb8e4e900000000000000000000000000000000000000000000000000000000815260040160405180910390fd5b6000612fa5848761304e565b60008a8152600a6020908152604080832073ffffffffffffffffffffffffffffffffffffffff8d16845290915290208190559150612fe09050565b6000888152600b6020908152604080832073ffffffffffffffffffffffffffffffffffffffff8b1680855290835292819020859055518881527f7fd36617a06b55977ffa06f8dc94b5ec0650c2b7b353fa22c7d0f211284dc749910160405180910390a25050505050505050565b6000808383111561306457506000905080612da5565b50600193919092039150565b804710156130ac576040517fcd786059000000000000000000000000000000000000000000000000000000008152306004820152602401610884565b60008273ffffffffffffffffffffffffffffffffffffffff168260405160006040518083038185875af1925050503d8060008114613106576040519150601f19603f3d011682016040523d82523d6000602084013e61310b565b606091505b5050905080610b47576040517f1425ea4200000000000000000000000000000000000000000000000000000000815260040160405180910390fd5b6007546040517fef0e239b0000000000000000000000000000000000000000000000000000000081526004810184905260009173ffffffffffffffffffffffffffffffffffffffff169063ef0e239b90602401608060405180830381865afa1580156131b6573d6000803e3d6000fd5b505050506040513d601f19601f820116820180604052508101906131da9190614753565b506000848152600d6020908152604080832073ffffffffffffffffffffffffffffffffffffffff8716845290915281205491925003613245576040517f6e7e9ea500000000000000000000000000000000000000000000000000000000815260040160405180910390fd5b6000838152600d6020908152604080832073ffffffffffffffffffffffffffffffffffffffff8616808552908352908320805493905590830151610fde9190836139bc565b611479613aac565b61329a613aac565b611479613b13565b6132aa613aac565b611af981613b1b565b60055473ffffffffffffffffffffffffffffffffffffffff163314613306576040517fd7f73334000000000000000000000000000000000000000000000000000000008152336004820152602401610884565b60008181526001602081815260408084208151610160810190925280548252928301805491939284019161333990614700565b80601f016020809104026020016040519081016040528092919081815260200182805461336590614700565b80156133b25780601f10613387576101008083540402835291602001916133b2565b820191906000526020600020905b81548152906001019060200180831161339557829003601f168201915b5050509183525050600282015473ffffffffffffffffffffffffffffffffffffffff1660208201526003820180546040909201916133ef90614700565b80601f016020809104026020016040519081016040528092919081815260200182805461341b90614700565b80156134685780601f1061343d57610100808354040283529160200191613468565b820191906000526020600020905b81548152906001019060200180831161344b57829003601f168201915b5050509183525050600482015473ffffffffffffffffffffffffffffffffffffffff166020820152600582015460408201526006820154606082015260078201546080820152600882015460a082015260098201805460c0909201916134cd90614700565b80601f01602080910402602001604051908101604052809291908181526020018280546134f990614700565b80156135465780601f1061351b57610100808354040283529160200191613546565b820191906000526020600020905b81548152906001019060200180831161352957829003601f168201915b5050509183525050600a82015460209091019060ff16600381111561356d5761356d61410d565b600381111561357e5761357e61410d565b81525050905060006135c28260800151856000908152600b6020908152604080832073ffffffffffffffffffffffffffffffffffffffff9094168352929052205490565b9050806000036136235760808201516040517fd89b7b0400000000000000000000000000000000000000000000000000000000815273ffffffffffffffffffffffffffffffffffffffff909116600482015260248101859052604401610884565b60006136408360c001518460a00151612d8390919063ffffffff16565b9150508181111561367d576040517f1eb8e4e900000000000000000000000000000000000000000000000000000000815260040160405180910390fd5b6000613689838361304e565b60808601516000898152600b6020908152604080832073ffffffffffffffffffffffffffffffffffffffff90941683529290522081905591506136c99050565b600361014085015260808401516136f69073ffffffffffffffffffffffffffffffffffffffff1683613070565b836080015173ffffffffffffffffffffffffffffffffffffffff167f432bf07925e3f493ca5c2e315cbff9cfe373763d71c4021dfd0fff69ee54139783866000015160405161374f929190918252602082015260400190565b60405180910390a2505050505050565b600081831061376e5781613770565b825b9392505050565b600080613787602084018461467e565b6040517f70a0823100000000000000000000000000000000000000000000000000000000815230600482015273ffffffffffffffffffffffffffffffffffffffff91909116906370a0823190602401602060405180830381865afa1580156137f3573d6000803e3d6000fd5b505050506040513d601f19601f8201168201806040525081019061381791906149a1565b9050600073ffffffffffffffffffffffffffffffffffffffff8516602085013561384460608701876149ba565b604051613852929190614a1f565b60006040518083038185875af1925050503d806000811461388f576040519150601f19603f3d011682016040523d82523d6000602084013e613894565b606091505b50509050806138cf576040517fd0bbd5ad00000000000000000000000000000000000000000000000000000000815260040160405180910390fd5b60006138de602086018661467e565b6040517f70a0823100000000000000000000000000000000000000000000000000000000815230600482015273ffffffffffffffffffffffffffffffffffffffff91909116906370a0823190602401602060405180830381865afa15801561394a573d6000803e3d6000fd5b505050506040513d601f19601f8201168201806040525081019061396e91906149a1565b905061397a838261498e565b9695505050505050565b600080806139928486613b23565b91506139a090508187613b60565b93506139ae9050848461304e565b939793965092945050505050565b6040805173ffffffffffffffffffffffffffffffffffffffff8416602482015260448082018490528251808303909101815260649091019091526020810180517bffffffffffffffffffffffffffffffffffffffffffffffffffffffff167fa9059cbb00000000000000000000000000000000000000000000000000000000179052610b47908490613b93565b613a5282613c29565b60405173ffffffffffffffffffffffffffffffffffffffff8316907fbc7cd75a20ee27fd9adebab32041f755214dbc6bffa90cc0225b39da2e5c2d3b90600090a2805115613aa457610b478282613cf8565b610e62613d7b565b7ff0c57e16840df040f15088dc2f81fe391c3923bec73e23a9662efc9c229c6a005468010000000000000000900460ff16611479576040517fd7e6bcf800000000000000000000000000000000000000000000000000000000815260040160405180910390fd5b6125e5613aac565b6121f3613aac565b60008083600003613b3a5750600190506000612da5565b83830283858281613b4d57613b4d614a2f565b0414612d9e576000809250925050612da5565b60008082600003613b7657506000905080612da5565b6001838581613b8757613b87614a2f565b04915091509250929050565b6000613bb573ffffffffffffffffffffffffffffffffffffffff841683613db3565b90508051600014158015613bda575080806020019051810190613bd89190614a5e565b155b15610b47576040517f5274afe700000000000000000000000000000000000000000000000000000000815273ffffffffffffffffffffffffffffffffffffffff84166004820152602401610884565b8073ffffffffffffffffffffffffffffffffffffffff163b600003613c92576040517f4c9c8ce300000000000000000000000000000000000000000000000000000000815273ffffffffffffffffffffffffffffffffffffffff82166004820152602401610884565b7f360894a13ba1a3210667c828492db98dca3e2076cc3735a920a3ca505d382bbc80547fffffffffffffffffffffffff00000000000000000000000000000000000000001673ffffffffffffffffffffffffffffffffffffffff92909216919091179055565b60606000808473ffffffffffffffffffffffffffffffffffffffff1684604051613d229190614a80565b600060405180830381855af49150503d8060008114613d5d576040519150601f19603f3d011682016040523d82523d6000602084013e613d62565b606091505b5091509150613d72858383613dc1565b95945050505050565b3415611479576040517fb398979f00000000000000000000000000000000000000000000000000000000815260040160405180910390fd5b606061377083836000613e50565b606082613dd657613dd182613f09565b613770565b8151158015613dfa575073ffffffffffffffffffffffffffffffffffffffff84163b155b15613e49576040517f9996b31500000000000000000000000000000000000000000000000000000000815273ffffffffffffffffffffffffffffffffffffffff85166004820152602401610884565b5092915050565b606081471015613e8e576040517fcd786059000000000000000000000000000000000000000000000000000000008152306004820152602401610884565b6000808573ffffffffffffffffffffffffffffffffffffffff168486604051613eb79190614a80565b60006040518083038185875af1925050503d8060008114613ef4576040519150601f19603f3d011682016040523d82523d6000602084013e613ef9565b606091505b509150915061397a868383613dc1565b805115613f195780518082602001fd5b6040517f1425ea4200000000000000000000000000000000000000000000000000000000815260040160405180910390fd5b6040518061016001604052806000815260200160608152602001600073ffffffffffffffffffffffffffffffffffffffff16815260200160608152602001600073ffffffffffffffffffffffffffffffffffffffff168152602001600081526020016000815260200160008152602001600081526020016060815260200160006003811115613fdc57613fdc61410d565b905290565b73ffffffffffffffffffffffffffffffffffffffff81168114611af957600080fd5b6000806040838503121561401657600080fd5b823561402181613fe1565b946020939093013593505050565b60008060006060848603121561404457600080fd5b8335925060208401359150604084013567ffffffffffffffff81111561406957600080fd5b84016080818703121561407b57600080fd5b809150509250925092565b60006020828403121561409857600080fd5b5035919050565b60005b838110156140ba5781810151838201526020016140a2565b50506000910152565b600081518084526140db81602086016020860161409f565b601f017fffffffffffffffffffffffffffffffffffffffffffffffffffffffffffffffe0169290920160200192915050565b7f4e487b7100000000000000000000000000000000000000000000000000000000600052602160045260246000fd5b60048110614173577f4e487b7100000000000000000000000000000000000000000000000000000000600052602160045260246000fd5b9052565b602081528151602082015260006020830151610160604084015261419f6101808401826140c3565b905060408401516141c8606085018273ffffffffffffffffffffffffffffffffffffffff169052565b5060608401517fffffffffffffffffffffffffffffffffffffffffffffffffffffffffffffffe084830301608085015261420282826140c3565b915050608084015161422c60a085018273ffffffffffffffffffffffffffffffffffffffff169052565b5060a084015160c084015260c084015160e084015260e08401516101008401526101008401516101208401526101208401517fffffffffffffffffffffffffffffffffffffffffffffffffffffffffffffffe08483030161014085015261429382826140c3565b9150506101408401516142aa61016085018261413c565b509392505050565b600080604083850312156142c557600080fd5b8235915060208301356142d781613fe1565b809150509250929050565b600080600080600060a086880312156142fa57600080fd5b853561430581613fe1565b94506020860135935060408601359250606086013561432381613fe1565b9150608086013561433381613fe1565b809150509295509295909350565b7f4e487b7100000000000000000000000000000000000000000000000000000000600052604160045260246000fd5b6040516080810167ffffffffffffffff8111828210171561439357614393614341565b60405290565b60008067ffffffffffffffff8411156143b4576143b4614341565b506040517fffffffffffffffffffffffffffffffffffffffffffffffffffffffffffffffe0601f85018116603f0116810181811067ffffffffffffffff8211171561440157614401614341565b60405283815290508082840185101561441957600080fd5b83836020830137600060208583010152509392505050565b6000806040838503121561444457600080fd5b823561444f81613fe1565b9150602083013567ffffffffffffffff81111561446b57600080fd5b8301601f8101851361447c57600080fd5b61448b85823560208401614399565b9150509250929050565b600080600080608085870312156144ab57600080fd5b8435935060208501356144bd81613fe1565b93969395505050506040820135916060013590565b600082601f8301126144e357600080fd5b61377083833560208501614399565b60008060006060848603121561450757600080fd5b83359250602084013567ffffffffffffffff81111561452557600080fd5b84016080818703121561453757600080fd5b61453f614370565b813561454a81613fe1565b81526020828101359082015260408083013590820152606082013567ffffffffffffffff81111561457a57600080fd5b614586888285016144d2565b60608301525093969395505050506040919091013590565b60208152600061377060208301846140c3565b600080604083850312156145c457600080fd5b82359150602083013567ffffffffffffffff8111156145e257600080fd5b8301608081860312156145f457600080fd5b6145fc614370565b81358152602082013567ffffffffffffffff81111561461a57600080fd5b614626878285016144d2565b602083015250604082013567ffffffffffffffff81111561464657600080fd5b614652878285016144d2565b604083015250606082013591506004821061466c57600080fd5b81606082015280925050509250929050565b60006020828403121561469057600080fd5b813561377081613fe1565b600080604083850312156146ae57600080fd5b50508035926020909101359150565b602080825282518282018190526000918401906040840190835b818110156146f55783518352602093840193909201916001016146d7565b509095945050505050565b600181811c9082168061471457607f821691505b60208210810361474d577f4e487b7100000000000000000000000000000000000000000000000000000000600052602260045260246000fd5b50919050565b600080828403608081121561476757600080fd5b606081121561477557600080fd5b506040516060810167ffffffffffffffff8111828210171561479957614799614341565b6040528351815260208401516147ae81613fe1565b602082015260408401516147c181613fe1565b6040820152606084015190925061ffff811681146142d757600080fd5b7f4e487b7100000000000000000000000000000000000000000000000000000000600052601160045260246000fd5b808201808211156118ff576118ff6147de565b601f821115610b4757806000526020600020601f840160051c810160208510156148475750805b601f840160051c820191505b81811015610f5d5760008155600101614853565b815167ffffffffffffffff81111561488157614881614341565b6148958161488f8454614700565b84614820565b6020601f8211600181146148e757600083156148b15750848201515b7fffffffffffffffffffffffffffffffffffffffffffffffffffffffffffffffff600385901b1c1916600184901b178455610f5d565b6000848152602081207fffffffffffffffffffffffffffffffffffffffffffffffffffffffffffffffe08516915b828110156149355787850151825560209485019460019092019101614915565b508482101561497157868401517fffffffffffffffffffffffffffffffffffffffffffffffffffffffffffffffff600387901b60f8161c191681555b50505050600190811b01905550565b602081016118ff828461413c565b818103818111156118ff576118ff6147de565b6000602082840312156149b357600080fd5b5051919050565b60008083357fffffffffffffffffffffffffffffffffffffffffffffffffffffffffffffffe18436030181126149ef57600080fd5b83018035915067ffffffffffffffff821115614a0a57600080fd5b602001915036819003821315612da557600080fd5b8183823760009101908152919050565b7f4e487b7100000000000000000000000000000000000000000000000000000000600052601260045260246000fd5b600060208284031215614a7057600080fd5b8151801515811461377057600080fd5b60008251614a9281846020870161409f565b919091019291505056fea2646970667358221220060b1857f27d0a6ede2613b63b9c11cb17c9b48ba7d6eece2cc34ef2ef6835de64736f6c634300081c0033","linkReferences":{}},"methodIdentifiers":{"UPGRADE_INTERFACE_VERSION()":"ad3cb1cc","_accumulatedFees(uint256)":"e53025ed","_authorized_refunds(uint256,address)":"596e250d","_deposits(uint256,address)":"e428c802","_fulfillableRegistry()":"0c4393b9","_fulfillmentRecordCount()":"835d140e","_manager()":"f0329f6b","_releaseablePool(uint256)":"ae4d49ba","_router()":"edae876f","_stableAccumulatedFees(uint256,address)":"62e2a116","_stableReleasePools(uint256,address)":"8eb48beb","beneficiaryWithdraw(uint256)":"cebae810","beneficiaryWithdrawStable(uint256,address)":"41ccb1b8","deposit(uint256,(address,uint256,uint256,string),uint256)":"6928c271","getDepositsFor(address,uint256)":"d4b59fed","getNativeFeesFor(uint256)":"857e57f6","getRefundsFor(address,uint256)":"0b28a076","initialize(address)":"c4d66de8","owner()":"8da5cb5b","proxiableUUID()":"52d1902d","record(uint256)":"2c16cd8a","recordsOf(address)":"e5b7e2b4","registerFulfillment(uint256,(uint256,string,string,uint8))":"b4b9bb7c","renounceOwnership()":"715018a6","setFulfillableRegistry(address)":"dbc85c5a","setManager(address)":"d0ebdbe7","setRouter(address)":"c0d78655","subtractPoolsAndFees(uint256,address,uint256,uint256)":"50367f81","swapPoolsToStable(uint256,uint256,(address,uint256,address,bytes))":"1a016c8b","transferOwnership(address)":"f2fde38b","upgradeToAndCall(address,bytes)":"4f1ef286","withdrawAccumulatedFees(uint256)":"b7aeb6ef","withdrawAccumulatedFeesStable(uint256,address)":"bc8aeb32","withdrawFulfillerPoolAndFees(address,uint256,uint256,address,address)":"4926dc2c","withdrawRefund(uint256,uint256)":"ddb7d5df"},"id":5}