{"abi":[{"type":"function","name":"UPGRADE_INTERFACE_VERSION","inputs":[],"outputs":[{"name":"","type":"string","internalType":"string"}],"stateMutability":"view"},{"type":"function","name":"_accumulatedFees","inputs":[{"name":"","type":"uint256","internalType":"uint256"}],"outputs":[{"name":"","type":"uint256","internalType":"uint256"}],"stateMutability":"view"},{"type":"function","name":"_authorized_refunds","inputs":[{"name":"","type":"uint256","internalType":"uint256"},{"name":"","type":"address","internalType":"address"}],"outputs":[{"name":"","type":"uint256","internalType":"uint256"}],"stateMutability":"view"},{"type":"function","name":"_deposits","inputs":[{"name":"","type":"uint256","internalType":"uint256"},{"name":"","type":"address","internalType":"address"}],"outputs":[{"name":"","type":"uint256","internalType":"uint256"}],"stateMutability":"view"},{"type":"function","name":"_fulfillableRegistry","inputs":[],"outputs":[{"name":"","type":"address","internalType":"address"}],"stateMutability":"view"},{"type":"function","name":"_manager","inputs":[],"outputs":[{"name":"","type":"address","internalType":"address"}],"stateMutability":"view"},{"type":"function","name":"_releaseablePool","inputs":[{"name":"","type":"uint256","internalType":"uint256"}],"outputs":[{"name":"","type":"uint256","internalType":"uint256"}],"stateMutability":"view"},{"type":"function","name":"_router","inputs":[],"outputs":[{"name":"","type":"address","internalType":"address"}],"stateMutability":"view"},{"type":"function","name":"beneficiaryWithdraw","inputs":[{"name":"serviceID","type":"uint256","internalType":"uint256"}],"outputs":[],"stateMutability":"nonpayable"},{"type":"function","name":"deposit","inputs":[{"name":"serviceID","type":"uint256","internalType":"uint256"},{"name":"fulfillmentRequest","type":"tuple","internalType":"struct FulFillmentRequest","components":[{"name":"payer","type":"address","internalType":"address"},{"name":"weiAmount","type":"uint256","internalType":"uint256"},{"name":"fiatAmount","type":"uint256","internalType":"uint256"},{"name":"serviceRef","type":"string","internalType":"string"}]},{"name":"feeAmount","type":"uint256","internalType":"uint256"}],"outputs":[],"stateMutability":"payable"},{"type":"function","name":"getDepositsFor","inputs":[{"name":"payer","type":"address","internalType":"address"},{"name":"serviceID","type":"uint256","internalType":"uint256"}],"outputs":[{"name":"amount","type":"uint256","internalType":"uint256"}],"stateMutability":"view"},{"type":"function","name":"getNativeFeesFor","inputs":[{"name":"serviceId","type":"uint256","internalType":"uint256"}],"outputs":[{"name":"amount","type":"uint256","internalType":"uint256"}],"stateMutability":"view"},{"type":"function","name":"getRefundsFor","inputs":[{"name":"payer","type":"address","internalType":"address"},{"name":"serviceID","type":"uint256","internalType":"uint256"}],"outputs":[{"name":"amount","type":"uint256","internalType":"uint256"}],"stateMutability":"view"},{"type":"function","name":"initialize","inputs":[{"name":"initialOwner","type":"address","internalType":"address"}],"outputs":[],"stateMutability":"nonpayable"},{"type":"function","name":"owner","inputs":[],"outputs":[{"name":"","type":"address","internalType":"address"}],"stateMutability":"view"},{"type":"function","name":"proxiableUUID","inputs":[],"outputs":[{"name":"","type":"bytes32","internalType":"bytes32"}],"stateMutability":"view"},{"type":"function","name":"record","inputs":[{"name":"id","type":"uint256","internalType":"uint256"}],"outputs":[{"name":"","type":"tuple","internalType":"struct FulFillmentRecord","components":[{"name":"id","type":"uint256","internalType":"uint256"},{"name":"serviceRef","type":"string","internalType":"string"},{"name":"fulfiller","type":"address","internalType":"address"},{"name":"externalID","type":"string","internalType":"string"},{"name":"payer","type":"address","internalType":"address"},{"name":"weiAmount","type":"uint256","internalType":"uint256"},{"name":"feeAmount","type":"uint256","internalType":"uint256"},{"name":"fiatAmount","type":"uint256","internalType":"uint256"},{"name":"entryTime","type":"uint256","internalType":"uint256"},{"name":"receiptURI","type":"string","internalType":"string"},{"name":"status","type":"uint8","internalType":"enum FulFillmentResultState"}]}],"stateMutability":"view"},{"type":"function","name":"recordsOf","inputs":[{"name":"payer","type":"address","internalType":"address"}],"outputs":[{"name":"","type":"uint256[]","internalType":"uint256[]"}],"stateMutability":"view"},{"type":"function","name":"registerFulfillment","inputs":[{"name":"serviceID","type":"uint256","internalType":"uint256"},{"name":"fulfillment","type":"tuple","internalType":"struct FulFillmentResult","components":[{"name":"id","type":"uint256","internalType":"uint256"},{"name":"externalID","type":"string","internalType":"string"},{"name":"receiptURI","type":"string","internalType":"string"},{"name":"status","type":"uint8","internalType":"enum FulFillmentResultState"}]}],"outputs":[{"name":"","type":"bool","internalType":"bool"}],"stateMutability":"nonpayable"},{"type":"function","name":"renounceOwnership","inputs":[],"outputs":[],"stateMutability":"nonpayable"},{"type":"function","name":"setFulfillableRegistry","inputs":[{"name":"fulfillableRegistry_","type":"address","internalType":"address"}],"outputs":[],"stateMutability":"nonpayable"},{"type":"function","name":"setManager","inputs":[{"name":"manager_","type":"address","internalType":"address"}],"outputs":[],"stateMutability":"nonpayable"},{"type":"function","name":"setRouter","inputs":[{"name":"router_","type":"address","internalType":"address"}],"outputs":[],"stateMutability":"nonpayable"},{"type":"function","name":"swapPoolsToStable","inputs":[{"name":"serviceId","type":"uint256","internalType":"uint256"},{"name":"swapData","type":"tuple","internalType":"struct SwapNativeData","components":[{"name":"toToken","type":"address","internalType":"address"},{"name":"amount","type":"uint256","internalType":"uint256"},{"name":"callTo","type":"address","internalType":"address payable"},{"name":"callData","type":"bytes","internalType":"bytes"}]}],"outputs":[],"stateMutability":"payable"},{"type":"function","name":"transferOwnership","inputs":[{"name":"newOwner","type":"address","internalType":"address"}],"outputs":[],"stateMutability":"nonpayable"},{"type":"function","name":"upgradeToAndCall","inputs":[{"name":"newImplementation","type":"address","internalType":"address"},{"name":"data","type":"bytes","internalType":"bytes"}],"outputs":[],"stateMutability":"payable"},{"type":"function","name":"withdrawAccumulatedFees","inputs":[{"name":"serviceId","type":"uint256","internalType":"uint256"}],"outputs":[],"stateMutability":"nonpayable"},{"type":"function","name":"withdrawRefund","inputs":[{"name":"serviceID","type":"uint256","internalType":"uint256"},{"name":"refundee","type":"address","internalType":"address payable"}],"outputs":[{"name":"","type":"bool","internalType":"bool"}],"stateMutability":"nonpayable"},{"type":"event","name":"DepositReceived","inputs":[{"name":"record","type":"tuple","indexed":false,"internalType":"struct FulFillmentRecord","components":[{"name":"id","type":"uint256","internalType":"uint256"},{"name":"serviceRef","type":"string","internalType":"string"},{"name":"fulfiller","type":"address","internalType":"address"},{"name":"externalID","type":"string","internalType":"string"},{"name":"payer","type":"address","internalType":"address"},{"name":"weiAmount","type":"uint256","internalType":"uint256"},{"name":"feeAmount","type":"uint256","internalType":"uint256"},{"name":"fiatAmount","type":"uint256","internalType":"uint256"},{"name":"entryTime","type":"uint256","internalType":"uint256"},{"name":"receiptURI","type":"string","internalType":"string"},{"name":"status","type":"uint8","internalType":"enum FulFillmentResultState"}]}],"anonymous":false},{"type":"event","name":"FeeUpdated","inputs":[{"name":"serviceID","type":"uint256","indexed":false,"internalType":"uint256"},{"name":"amount","type":"uint256","indexed":false,"internalType":"uint256"}],"anonymous":false},{"type":"event","name":"FeesWithdrawn","inputs":[{"name":"serviceId","type":"uint256","indexed":true,"internalType":"uint256"},{"name":"beneficiary","type":"address","indexed":false,"internalType":"address"},{"name":"amount","type":"uint256","indexed":false,"internalType":"uint256"}],"anonymous":false},{"type":"event","name":"FulfillableRegistryUpdated","inputs":[{"name":"fulfillableRegistry","type":"address","indexed":true,"internalType":"address"}],"anonymous":false},{"type":"event","name":"Initialized","inputs":[{"name":"version","type":"uint64","indexed":false,"internalType":"uint64"}],"anonymous":false},{"type":"event","name":"ManagerUpdated","inputs":[{"name":"manager","type":"address","indexed":true,"internalType":"address"}],"anonymous":false},{"type":"event","name":"OwnershipTransferred","inputs":[{"name":"previousOwner","type":"address","indexed":true,"internalType":"address"},{"name":"newOwner","type":"address","indexed":true,"internalType":"address"}],"anonymous":false},{"type":"event","name":"PoolsSwappedToStable","inputs":[{"name":"serviceId","type":"uint256","indexed":true,"internalType":"uint256"},{"name":"aggregator","type":"address","indexed":true,"internalType":"address payable"},{"name":"toToken","type":"address","indexed":false,"internalType":"address"},{"name":"releaseableAmount","type":"uint256","indexed":false,"internalType":"uint256"},{"name":"feesAmount","type":"uint256","indexed":false,"internalType":"uint256"},{"name":"receivedStable","type":"uint256","indexed":false,"internalType":"uint256"}],"anonymous":false},{"type":"event","name":"RefundAuthorized","inputs":[{"name":"payee","type":"address","indexed":true,"internalType":"address"},{"name":"weiAmount","type":"uint256","indexed":false,"internalType":"uint256"}],"anonymous":false},{"type":"event","name":"RefundWithdrawn","inputs":[{"name":"payee","type":"address","indexed":true,"internalType":"address"},{"name":"weiAmount","type":"uint256","indexed":false,"internalType":"uint256"}],"anonymous":false},{"type":"event","name":"RouterUpdated","inputs":[{"name":"router","type":"address","indexed":true,"internalType":"address"}],"anonymous":false},{"type":"event","name":"Upgraded","inputs":[{"name":"implementation","type":"address","indexed":true,"internalType":"address"}],"anonymous":false},{"type":"error","name":"AddressEmptyCode","inputs":[{"name":"target","type":"address","internalType":"address"}]},{"type":"error","name":"AddressInsufficientBalance","inputs":[{"name":"account","type":"address","internalType":"address"}]},{"type":"error","name":"AggregatorCallFailed","inputs":[]},{"type":"error","name":"ERC1967InvalidImplementation","inputs":[{"name":"implementation","type":"address","internalType":"address"}]},{"type":"error","name":"ERC1967NonPayable","inputs":[]},{"type":"error","name":"FailedInnerCall","inputs":[]},{"type":"error","name":"FulfillmentAlreadyRegistered","inputs":[]},{"type":"error","name":"FulfillmentRecordDoesNotExist","inputs":[]},{"type":"error","name":"InsufficientCombinedBalance","inputs":[{"name":"totalAvailable","type":"uint256","internalType":"uint256"},{"name":"amount","type":"uint256","internalType":"uint256"}]},{"type":"error","name":"InvalidAddress","inputs":[{"name":"address_","type":"address","internalType":"address"}]},{"type":"error","name":"InvalidCaller","inputs":[{"name":"caller","type":"address","internalType":"address"}]},{"type":"error","name":"InvalidInitialization","inputs":[]},{"type":"error","name":"InvalidManager","inputs":[{"name":"manager","type":"address","internalType":"address"}]},{"type":"error","name":"InvalidRouter","inputs":[{"name":"router_","type":"address","internalType":"address"}]},{"type":"error","name":"InvalidSwapAmount","inputs":[]},{"type":"error","name":"InvalidTokenAddress","inputs":[]},{"type":"error","name":"NoBalanceToRelease","inputs":[]},{"type":"error","name":"NoFeesToWithdraw","inputs":[]},{"type":"error","name":"NoRefunds","inputs":[{"name":"refundee","type":"address","internalType":"address"},{"name":"serviceID","type":"uint256","internalType":"uint256"}]},{"type":"error","name":"NotInitializing","inputs":[]},{"type":"error","name":"Overflow","inputs":[{"name":"reason","type":"uint8","internalType":"uint8"}]},{"type":"error","name":"OwnableInvalidOwner","inputs":[{"name":"owner","type":"address","internalType":"address"}]},{"type":"error","name":"OwnableUnauthorizedAccount","inputs":[{"name":"account","type":"address","internalType":"address"}]},{"type":"error","name":"ReentrancyGuardReentrantCall","inputs":[]},{"type":"error","name":"RefundsTooBig","inputs":[]},{"type":"error","name":"UUPSUnauthorizedCallContext","inputs":[]},{"type":"error","name":"UUPSUnsupportedProxiableUUID","inputs":[{"name":"slot","type":"bytes32","internalType":"bytes32"}]},{"type":"error","name":"UnsupportedStatus","inputs":[{"name":"status","type":"uint8","internalType":"enum FulFillmentResultState"}]}],"bytecode":{"object":"0x60a06040523060805234801561001457600080fd5b5061001d610022565b6100d4565b7ff0c57e16840df040f15088dc2f81fe391c3923bec73e23a9662efc9c229c6a00805468010000000000000000900460ff16156100725760405163f92ee8a960e01b815260040160405180910390fd5b80546001600160401b03908116146100d15780546001600160401b0319166001600160401b0390811782556040519081527fc7f505b2f371ae2175ee4913f4499e1f2633a7b5936321eed1cdaeb6115181d29060200160405180910390a15b50565b6080516139176100fd60003960008181611e2801528181611e51015261206d01526139176000f3fe6080604052600436106101b75760003560e01c8063b7aeb6ef116100ec578063dbc85c5a1161008a578063e5b7e2b411610064578063e5b7e2b4146105f6578063edae876f14610623578063f0329f6b14610650578063f2fde38b1461067d57600080fd5b8063dbc85c5a14610571578063e428c80214610591578063e53025ed146105c957600080fd5b8063cebae810116100c6578063cebae810146104d0578063d0ebdbe7146104f0578063d38fcb9114610510578063d4b59fed1461052357600080fd5b8063b7aeb6ef14610470578063c0d7865514610490578063c4d66de8146104b057600080fd5b80636928c271116101595780638da5cb5b116101335780638da5cb5b14610383578063ad3cb1cc146103cd578063ae4d49ba14610423578063b4b9bb7c1461045057600080fd5b80636928c2711461032e578063715018a614610341578063857e57f61461035657600080fd5b80634248d5b8116101955780634248d5b81461029c5780634f1ef286146102cc57806352d1902d146102e1578063596e250d146102f657600080fd5b80630b28a076146101bc5780630c4393b91461021d5780632c16cd8a1461026f575b600080fd5b3480156101c857600080fd5b5061020a6101d7366004612ee3565b6000908152600b6020908152604080832073ffffffffffffffffffffffffffffffffffffffff9094168352929052205490565b6040519081526020015b60405180910390f35b34801561022957600080fd5b5060065461024a9073ffffffffffffffffffffffffffffffffffffffff1681565b60405173ffffffffffffffffffffffffffffffffffffffff9091168152602001610214565b34801561027b57600080fd5b5061028f61028a366004612f0f565b61069d565b6040516102149190613000565b3480156102a857600080fd5b506102bc6102b736600461313b565b610925565b6040519015158152602001610214565b6102df6102da36600461325b565b610a7e565b005b3480156102ed57600080fd5b5061020a610a9d565b34801561030257600080fd5b5061020a61031136600461313b565b600b60209081526000928352604080842090915290825290205481565b6102df61033c3660046132df565b610acc565b34801561034d57600080fd5b506102df610f25565b34801561036257600080fd5b5061020a610371366004612f0f565b60009081526009602052604090205490565b34801561038f57600080fd5b507f9016d09d72d40fdae2fd8ceac6b6234c7706214fd39c1cd1e609a0528c1993005473ffffffffffffffffffffffffffffffffffffffff1661024a565b3480156103d957600080fd5b506104166040518060400160405280600581526020017f352e302e3000000000000000000000000000000000000000000000000000000081525081565b604051610214919061338b565b34801561042f57600080fd5b5061020a61043e366004612f0f565b60086020526000908152604090205481565b34801561045c57600080fd5b506102bc61046b36600461339e565b610f39565b34801561047c57600080fd5b506102df61048b366004612f0f565b6113bd565b34801561049c57600080fd5b506102df6104ab36600461346b565b6115b4565b3480156104bc57600080fd5b506102df6104cb36600461346b565b611690565b3480156104dc57600080fd5b506102df6104eb366004612f0f565b611825565b3480156104fc57600080fd5b506102df61050b36600461346b565b6119c1565b6102df61051e366004613488565b611a9d565b34801561052f57600080fd5b5061020a61053e366004612ee3565b6000908152600a6020908152604080832073ffffffffffffffffffffffffffffffffffffffff9094168352929052205490565b34801561057d57600080fd5b506102df61058c36600461346b565b611b33565b34801561059d57600080fd5b5061020a6105ac36600461313b565b600a60209081526000928352604080842090915290825290205481565b3480156105d557600080fd5b5061020a6105e4366004612f0f565b60096020526000908152604090205481565b34801561060257600080fd5b5061061661061136600461346b565b611c1b565b60405161021491906134cb565b34801561062f57600080fd5b5060055461024a9073ffffffffffffffffffffffffffffffffffffffff1681565b34801561065c57600080fd5b5060045461024a9073ffffffffffffffffffffffffffffffffffffffff1681565b34801561068957600080fd5b506102df61069836600461346b565b611c94565b6106a5612e2b565b60008281526001602081815260409283902083516101608101909452805484529182018054918401916106d79061350e565b80601f01602080910402602001604051908101604052809291908181526020018280546107039061350e565b80156107505780601f1061072557610100808354040283529160200191610750565b820191906000526020600020905b81548152906001019060200180831161073357829003601f168201915b5050509183525050600282015473ffffffffffffffffffffffffffffffffffffffff16602082015260038201805460409092019161078d9061350e565b80601f01602080910402602001604051908101604052809291908181526020018280546107b99061350e565b80156108065780601f106107db57610100808354040283529160200191610806565b820191906000526020600020905b8154815290600101906020018083116107e957829003601f168201915b5050509183525050600482015473ffffffffffffffffffffffffffffffffffffffff166020820152600582015460408201526006820154606082015260078201546080820152600882015460a082015260098201805460c09092019161086b9061350e565b80601f01602080910402602001604051908101604052809291908181526020018280546108979061350e565b80156108e45780601f106108b9576101008083540402835291602001916108e4565b820191906000526020600020905b8154815290600101906020018083116108c757829003601f168201915b5050509183525050600a82015460209091019060ff16600281111561090b5761090b612f96565b600281111561091c5761091c612f96565b90525092915050565b600061092f611cf5565b60055473ffffffffffffffffffffffffffffffffffffffff163314610987576040517fd7f733340000000000000000000000000000000000000000000000000000000081523360048201526024015b60405180910390fd5b6000838152600b6020908152604080832073ffffffffffffffffffffffffffffffffffffffff8616845290915281205490819003610a10576040517fd89b7b0400000000000000000000000000000000000000000000000000000000815273ffffffffffffffffffffffffffffffffffffffff841660048201526024810185905260440161097e565b6000848152600b6020908152604080832073ffffffffffffffffffffffffffffffffffffffff87168452909152812055610a4a8382611d76565b6001915050610a7860017f9b779b17422d0df92223018b32b4d1fa46e071723d6817e2486d003becc55f0055565b92915050565b610a86611e10565b610a8f82611f14565b610a998282611f1c565b5050565b6000610aa7612055565b507f360894a13ba1a3210667c828492db98dca3e2076cc3735a920a3ca505d382bbc90565b610ad4611cf5565b60055473ffffffffffffffffffffffffffffffffffffffff163314610b27576040517fd7f7333400000000000000000000000000000000000000000000000000000000815233600482015260240161097e565b6007546040517fef0e239b0000000000000000000000000000000000000000000000000000000081526004810185905260009173ffffffffffffffffffffffffffffffffffffffff169063ef0e239b90602401608060405180830381865afa158015610b97573d6000803e3d6000fd5b505050506040513d601f19601f82011682018060405250810190610bbb9190613561565b5083516000868152600a6020908152604080832073ffffffffffffffffffffffffffffffffffffffff90941683529290529081205491925034919080610c0184846120c4565b9150915081610c3f576040517fc0d7d3cc0000000000000000000000000000000000000000000000000000000081526006600482015260240161097e565b86516000898152600a6020908152604080832073ffffffffffffffffffffffffffffffffffffffff94851684528252808320859055805161016081018252835481526060808d0151828501528a83015186168284015282518085018452858152908201528b519094166080850152818b015160a085015260c084018a9052808b015160e08501524261010085015280519182019052818152610120830152906101408101600281525090506001600080828254610cfc919061361b565b92505081905550600160036000828254610d16919061361b565b9091555050805160009081526001602081815260409092208351815591830151839291820190610d46908261367c565b5060408201516002820180547fffffffffffffffffffffffff00000000000000000000000000000000000000001673ffffffffffffffffffffffffffffffffffffffff90921691909117905560608201516003820190610da6908261367c565b5060808201516004820180547fffffffffffffffffffffffff00000000000000000000000000000000000000001673ffffffffffffffffffffffffffffffffffffffff90921691909117905560a0820151600582015560c0820151600682015560e0820151600782015561010082015160088201556101208201516009820190610e30908261367c565b50610140820151600a820180547fffffffffffffffffffffffffffffffffffffffffffffffffffffffffffffff00166001836002811115610e7357610e73612f96565b02179055505050608081015173ffffffffffffffffffffffffffffffffffffffff166000908152600260209081526040808320845181546001810183559185529290932090920155517f600d16f62674ed495bf7267a98a253325b6f464cbc486bf1b9a66e101551e4e590610ee9908390613000565b60405180910390a1505050505050610f2060017f9b779b17422d0df92223018b32b4d1fa46e071723d6817e2486d003becc55f0055565b505050565b610f2d6120ed565b610f37600061217b565b565b6000610f43611cf5565b60045473ffffffffffffffffffffffffffffffffffffffff163314610f96576040517f294f8a1700000000000000000000000000000000000000000000000000000000815233600482015260240161097e565b81516000908152600160205260408120549003610fdf576040517f54446f7100000000000000000000000000000000000000000000000000000000815260040160405180910390fd5b600282516000908152600160205260409020600a015460ff16600281111561100957611009612f96565b14611040576040517fcdc7646400000000000000000000000000000000000000000000000000000000815260040160405180910390fd5b8151600090815260016020818152604080842060040154878552600a835281852073ffffffffffffffffffffffffffffffffffffffff909116808652908352818520548751865293909252808420600501548651855290842060060154919390916110ac9083906120c4565b915060009050866060015160028111156110c8576110c8612f96565b03611138576110d8878583612211565b606086015186516000908152600160208190526040909120600a01805490917fffffffffffffffffffffffffffffffffffffffffffffffffffffffffffffff009091169083600281111561112e5761112e612f96565b021790555061138c565b60018660600151600281111561115057611150612f96565b1461118d5785606001516040517fab8cc2a800000000000000000000000000000000000000000000000000000000815260040161097e9190613795565b85516000908152600160209081526040808320600601548a8452600990925282205482916111bb91906120c4565b91509150816111f9576040517fc0d7d3cc0000000000000000000000000000000000000000000000000000000081526003600482015260240161097e565b60008981526009602090815260408083208490556008909152812054819061122190876120c4565b915091508161125e576040517fc0d7d3cc00000000000000000000000000000000000000000000000000000000815260048181015260240161097e565b60008061126b89886123ab565b91509150816112a9576040517fc0d7d3cc0000000000000000000000000000000000000000000000000000000081526005600482015260240161097e565b60008d8152600860209081526040808320869055600a825280832073ffffffffffffffffffffffffffffffffffffffff8e16845282528083208490558e8101518f518452600190925290912060090190611303908261367c565b5060608c01518c516000908152600160208190526040909120600a01805490917fffffffffffffffffffffffffffffffffffffffffffffffffffffffffffffff009091169083600281111561135a5761135a612f96565b02179055506020808d01518d5160009081526001909252604090912060030190611384908261367c565b505050505050505b6001945050505050610a7860017f9b779b17422d0df92223018b32b4d1fa46e071723d6817e2486d003becc55f0055565b6113c5611cf5565b60045473ffffffffffffffffffffffffffffffffffffffff163314611418576040517f294f8a1700000000000000000000000000000000000000000000000000000000815233600482015260240161097e565b6007546040517fef0e239b0000000000000000000000000000000000000000000000000000000081526004810183905260009173ffffffffffffffffffffffffffffffffffffffff169063ef0e239b90602401608060405180830381865afa158015611488573d6000803e3d6000fd5b505050506040513d601f19601f820116820180604052508101906114ac9190613561565b506000838152600960205260408120549192508190036114f8576040517f6806da6800000000000000000000000000000000000000000000000000000000815260040160405180910390fd5b600083815260096020908152604082209190915582015161152f9073ffffffffffffffffffffffffffffffffffffffff16826123cd565b6020808301516040805173ffffffffffffffffffffffffffffffffffffffff909216825291810183905284917f538e1189c5c6413ddd9194fe5e947ef693ea737bd368a9e0aca4c286854c9bd8910160405180910390a250506115b160017f9b779b17422d0df92223018b32b4d1fa46e071723d6817e2486d003becc55f0055565b50565b6115bc6120ed565b73ffffffffffffffffffffffffffffffffffffffff8116611621576040517f8e4c8aa600000000000000000000000000000000000000000000000000000000815273ffffffffffffffffffffffffffffffffffffffff8216600482015260240161097e565b600580547fffffffffffffffffffffffff00000000000000000000000000000000000000001673ffffffffffffffffffffffffffffffffffffffff83169081179091556040517f7aed1d3e8155a07ccf395e44ea3109a0e2d6c9b29bbbe9f142d9790596f4dc8090600090a250565b7ff0c57e16840df040f15088dc2f81fe391c3923bec73e23a9662efc9c229c6a00805468010000000000000000810460ff16159067ffffffffffffffff166000811580156116db5750825b905060008267ffffffffffffffff1660011480156116f85750303b155b905081158015611706575080155b1561173d576040517ff92ee8a900000000000000000000000000000000000000000000000000000000815260040160405180910390fd5b84547fffffffffffffffffffffffffffffffffffffffffffffffff0000000000000000166001178555831561179e5784547fffffffffffffffffffffffffffffffffffffffffffffff00ffffffffffffffff16680100000000000000001785555b6117a66124a3565b6117ae6124ab565b6117b7866124bb565b6001600055831561181d5784547fffffffffffffffffffffffffffffffffffffffffffffff00ffffffffffffffff168555604051600181527fc7f505b2f371ae2175ee4913f4499e1f2633a7b5936321eed1cdaeb6115181d29060200160405180910390a15b505050505050565b61182d611cf5565b60045473ffffffffffffffffffffffffffffffffffffffff163314611880576040517f294f8a1700000000000000000000000000000000000000000000000000000000815233600482015260240161097e565b6007546040517fef0e239b0000000000000000000000000000000000000000000000000000000081526004810183905260009173ffffffffffffffffffffffffffffffffffffffff169063ef0e239b90602401608060405180830381865afa1580156118f0573d6000803e3d6000fd5b505050506040513d601f19601f820116820180604052508101906119149190613561565b506000838152600860205260408120549192500361195e576040517f6e7e9ea500000000000000000000000000000000000000000000000000000000815260040160405180910390fd5b6000828152600860209081526040822080549290558201516119969073ffffffffffffffffffffffffffffffffffffffff16826123cd565b50506115b160017f9b779b17422d0df92223018b32b4d1fa46e071723d6817e2486d003becc55f0055565b6119c96120ed565b73ffffffffffffffffffffffffffffffffffffffff8116611a2e576040517f8e4c8aa600000000000000000000000000000000000000000000000000000000815273ffffffffffffffffffffffffffffffffffffffff8216600482015260240161097e565b600480547fffffffffffffffffffffffff00000000000000000000000000000000000000001673ffffffffffffffffffffffffffffffffffffffff83169081179091556040517f2c1c11af44aa5608f1dca38c00275c30ea091e02417d36e70e9a1538689c433d90600090a250565b611aa5611cf5565b60045473ffffffffffffffffffffffffffffffffffffffff163314611af8576040517fcbd9d2e000000000000000000000000000000000000000000000000000000000815233600482015260240161097e565b611b0a600c600d6008600986866124cc565b610a9960017f9b779b17422d0df92223018b32b4d1fa46e071723d6817e2486d003becc55f0055565b611b3b6120ed565b73ffffffffffffffffffffffffffffffffffffffff8116611ba0576040517f8e4c8aa600000000000000000000000000000000000000000000000000000000815273ffffffffffffffffffffffffffffffffffffffff8216600482015260240161097e565b6006805473ffffffffffffffffffffffffffffffffffffffff83167fffffffffffffffffffffffff0000000000000000000000000000000000000000918216811790925560078054909116821790556040517f12fd82a8fae6400d0456d521504e56c94dd90726268fd158b0584ec682e1b5b190600090a250565b73ffffffffffffffffffffffffffffffffffffffff8116600090815260026020908152604091829020805483518184028101840190945280845260609392830182828015611c8857602002820191906000526020600020905b815481526020019060010190808311611c74575b50505050509050919050565b611c9c6120ed565b73ffffffffffffffffffffffffffffffffffffffff8116611cec576040517f1e4fbdf70000000000000000000000000000000000000000000000000000000081526000600482015260240161097e565b6115b18161217b565b7f9b779b17422d0df92223018b32b4d1fa46e071723d6817e2486d003becc55f0080547ffffffffffffffffffffffffffffffffffffffffffffffffffffffffffffffffe01611d70576040517f3ee5aeb500000000000000000000000000000000000000000000000000000000815260040160405180910390fd5b60029055565b611d9673ffffffffffffffffffffffffffffffffffffffff8316826123cd565b8173ffffffffffffffffffffffffffffffffffffffff167f3d97f39b86d061200a7834082f5926e58ec10fd85a9d6930f497729d5e6cc35c82604051611dde91815260200190565b60405180910390a25050565b60017f9b779b17422d0df92223018b32b4d1fa46e071723d6817e2486d003becc55f0055565b3073ffffffffffffffffffffffffffffffffffffffff7f0000000000000000000000000000000000000000000000000000000000000000161480611edd57507f000000000000000000000000000000000000000000000000000000000000000073ffffffffffffffffffffffffffffffffffffffff16611ec47f360894a13ba1a3210667c828492db98dca3e2076cc3735a920a3ca505d382bbc5473ffffffffffffffffffffffffffffffffffffffff1690565b73ffffffffffffffffffffffffffffffffffffffff1614155b15610f37576040517fe07c8dba00000000000000000000000000000000000000000000000000000000815260040160405180910390fd5b6115b16120ed565b8173ffffffffffffffffffffffffffffffffffffffff166352d1902d6040518163ffffffff1660e01b8152600401602060405180830381865afa925050508015611fa1575060408051601f3d9081017fffffffffffffffffffffffffffffffffffffffffffffffffffffffffffffffe0168201909252611f9e918101906137a3565b60015b611fef576040517f4c9c8ce300000000000000000000000000000000000000000000000000000000815273ffffffffffffffffffffffffffffffffffffffff8316600482015260240161097e565b7f360894a13ba1a3210667c828492db98dca3e2076cc3735a920a3ca505d382bbc811461204b576040517faa1d49a40000000000000000000000000000000000000000000000000000000081526004810182905260240161097e565b610f20838361283e565b3073ffffffffffffffffffffffffffffffffffffffff7f00000000000000000000000000000000000000000000000000000000000000001614610f37576040517fe07c8dba00000000000000000000000000000000000000000000000000000000815260040160405180910390fd5b600080838301848110156120df5760008092509250506120e6565b6001925090505b9250929050565b3361212c7f9016d09d72d40fdae2fd8ceac6b6234c7706214fd39c1cd1e609a0528c1993005473ffffffffffffffffffffffffffffffffffffffff1690565b73ffffffffffffffffffffffffffffffffffffffff1614610f37576040517f118cdaa700000000000000000000000000000000000000000000000000000000815233600482015260240161097e565b7f9016d09d72d40fdae2fd8ceac6b6234c7706214fd39c1cd1e609a0528c19930080547fffffffffffffffffffffffff0000000000000000000000000000000000000000811673ffffffffffffffffffffffffffffffffffffffff848116918217845560405192169182907f8be0079c531659141344cd1fd0a4f28419497f9722a3daafe3b4186f6b6457e090600090a3505050565b6000838152600b6020908152604080832073ffffffffffffffffffffffffffffffffffffffff861680855290835281842054878552600a8452828520918552925282205490918061226284866120c4565b91509150816122a0576040517fc0d7d3cc0000000000000000000000000000000000000000000000000000000081526001600482015260240161097e565b80808410156122db576040517f1eb8e4e900000000000000000000000000000000000000000000000000000000815260040160405180910390fd5b6000806122e886896123ab565b9150915081612326576040517fc0d7d3cc0000000000000000000000000000000000000000000000000000000081526002600482015260240161097e565b60008a8152600a6020908152604080832073ffffffffffffffffffffffffffffffffffffffff8d168085529083528184208590558d8452600b8352818420818552835292819020869055518a81527f7fd36617a06b55977ffa06f8dc94b5ec0650c2b7b353fa22c7d0f211284dc749910160405180910390a250505050505050505050565b600080838311156123c1575060009050806120e6565b50600193919092039150565b80471015612409576040517fcd78605900000000000000000000000000000000000000000000000000000000815230600482015260240161097e565b60008273ffffffffffffffffffffffffffffffffffffffff168260405160006040518083038185875af1925050503d8060008114612463576040519150601f19603f3d011682016040523d82523d6000602084013e612468565b606091505b5050905080610f20576040517f1425ea4200000000000000000000000000000000000000000000000000000000815260040160405180910390fd5b610f376128a1565b6124b36128a1565b610f37612908565b6124c36128a1565b6115b181612910565b60006124db602083018361346b565b73ffffffffffffffffffffffffffffffffffffffff1603612528576040517f1eb00b0600000000000000000000000000000000000000000000000000000000815260040160405180910390fd5b8060200135600003612566576040517fe346d81d00000000000000000000000000000000000000000000000000000000815260040160405180910390fd5b60008281526020858152604080832054918690528220549091612589828461361b565b905083602001358110156125d6576040517f29b1c811000000000000000000000000000000000000000000000000000000008152600481018290526020850135602482015260440161097e565b6000816125e78560208801356137bc565b6125f19190613802565b90506000826126048560208901356137bc565b61260e9190613802565b9050600061261c828461361b565b9050866020013581101561264a57600061263a8260208a013561383d565b9050612646818561361b565b9350505b612654838761383d565b600089815260208c9052604090205561266d828661383d565b600089815260208b90526040808220929092559061269b906126959060608b01908b0161346b565b89612918565b9050841561279e576000806126b5878b6020013585612b25565b91509150818f60008d815260200190815260200160002060008c60000160208101906126e1919061346b565b73ffffffffffffffffffffffffffffffffffffffff1673ffffffffffffffffffffffffffffffffffffffff168152602001908152602001600020600082825461272a919061361b565b909155505060008b815260208f8152604082208392909161274d908e018e61346b565b73ffffffffffffffffffffffffffffffffffffffff1673ffffffffffffffffffffffffffffffffffffffff1681526020019081526020016000206000828254612796919061361b565b909155505050505b6127ae6060890160408a0161346b565b73ffffffffffffffffffffffffffffffffffffffff16897fca3505fbd3a47a94271554014329e93911d2e5eb9e0fdf1d50d5f67cd31603a96127f360208c018c61346b565b6040805173ffffffffffffffffffffffffffffffffffffffff9092168252602082018c905281018a90526060810185905260800160405180910390a350505050505050505050505050565b61284782612b5d565b60405173ffffffffffffffffffffffffffffffffffffffff8316907fbc7cd75a20ee27fd9adebab32041f755214dbc6bffa90cc0225b39da2e5c2d3b90600090a280511561289957610f208282612c2c565b610a99612caf565b7ff0c57e16840df040f15088dc2f81fe391c3923bec73e23a9662efc9c229c6a005468010000000000000000900460ff16610f37576040517fd7e6bcf800000000000000000000000000000000000000000000000000000000815260040160405180910390fd5b611dea6128a1565b611c9c6128a1565b600080612928602084018461346b565b6040517f70a0823100000000000000000000000000000000000000000000000000000000815230600482015273ffffffffffffffffffffffffffffffffffffffff91909116906370a0823190602401602060405180830381865afa158015612994573d6000803e3d6000fd5b505050506040513d601f19601f820116820180604052508101906129b891906137a3565b9050600073ffffffffffffffffffffffffffffffffffffffff851660208501356129e56060870187613850565b6040516129f39291906138b5565b60006040518083038185875af1925050503d8060008114612a30576040519150601f19603f3d011682016040523d82523d6000602084013e612a35565b606091505b5050905080612a70576040517fd0bbd5ad00000000000000000000000000000000000000000000000000000000815260040160405180910390fd5b6000612a7f602086018661346b565b6040517f70a0823100000000000000000000000000000000000000000000000000000000815230600482015273ffffffffffffffffffffffffffffffffffffffff91909116906370a0823190602401602060405180830381865afa158015612aeb573d6000803e3d6000fd5b505050506040513d601f19601f82011682018060405250810190612b0f91906137a3565b9050612b1b838261383d565b9695505050505050565b60008080612b338486612ce7565b9150612b4190508187612d24565b9350612b4f905084846123ab565b939793965092945050505050565b8073ffffffffffffffffffffffffffffffffffffffff163b600003612bc6576040517f4c9c8ce300000000000000000000000000000000000000000000000000000000815273ffffffffffffffffffffffffffffffffffffffff8216600482015260240161097e565b7f360894a13ba1a3210667c828492db98dca3e2076cc3735a920a3ca505d382bbc80547fffffffffffffffffffffffff00000000000000000000000000000000000000001673ffffffffffffffffffffffffffffffffffffffff92909216919091179055565b60606000808473ffffffffffffffffffffffffffffffffffffffff1684604051612c5691906138c5565b600060405180830381855af49150503d8060008114612c91576040519150601f19603f3d011682016040523d82523d6000602084013e612c96565b606091505b5091509150612ca6858383612d57565b95945050505050565b3415610f37576040517fb398979f00000000000000000000000000000000000000000000000000000000815260040160405180910390fd5b60008083600003612cfe57506001905060006120e6565b83830283858281612d1157612d116137d3565b04146120df5760008092509250506120e6565b60008082600003612d3a575060009050806120e6565b6001838581612d4b57612d4b6137d3565b04915091509250929050565b606082612d6c57612d6782612de9565b612de2565b8151158015612d90575073ffffffffffffffffffffffffffffffffffffffff84163b155b15612ddf576040517f9996b31500000000000000000000000000000000000000000000000000000000815273ffffffffffffffffffffffffffffffffffffffff8516600482015260240161097e565b50805b9392505050565b805115612df95780518082602001fd5b6040517f1425ea4200000000000000000000000000000000000000000000000000000000815260040160405180910390fd5b6040518061016001604052806000815260200160608152602001600073ffffffffffffffffffffffffffffffffffffffff16815260200160608152602001600073ffffffffffffffffffffffffffffffffffffffff168152602001600081526020016000815260200160008152602001600081526020016060815260200160006002811115612ebc57612ebc612f96565b905290565b73ffffffffffffffffffffffffffffffffffffffff811681146115b157600080fd5b60008060408385031215612ef657600080fd5b8235612f0181612ec1565b946020939093013593505050565b600060208284031215612f2157600080fd5b5035919050565b60005b83811015612f43578181015183820152602001612f2b565b50506000910152565b60008151808452612f64816020860160208601612f28565b601f017fffffffffffffffffffffffffffffffffffffffffffffffffffffffffffffffe0169290920160200192915050565b7f4e487b7100000000000000000000000000000000000000000000000000000000600052602160045260246000fd5b60038110612ffc577f4e487b7100000000000000000000000000000000000000000000000000000000600052602160045260246000fd5b9052565b6020815281516020820152600060208301516101606040840152613028610180840182612f4c565b90506040840151613051606085018273ffffffffffffffffffffffffffffffffffffffff169052565b5060608401517fffffffffffffffffffffffffffffffffffffffffffffffffffffffffffffffe084830301608085015261308b8282612f4c565b91505060808401516130b560a085018273ffffffffffffffffffffffffffffffffffffffff169052565b5060a084015160c084015260c084015160e084015260e08401516101008401526101008401516101208401526101208401517fffffffffffffffffffffffffffffffffffffffffffffffffffffffffffffffe08483030161014085015261311c8282612f4c565b915050610140840151613133610160850182612fc5565b509392505050565b6000806040838503121561314e57600080fd5b82359150602083013561316081612ec1565b809150509250929050565b7f4e487b7100000000000000000000000000000000000000000000000000000000600052604160045260246000fd5b6040516080810167ffffffffffffffff811182821017156131bd576131bd61316b565b60405290565b60008067ffffffffffffffff8411156131de576131de61316b565b506040517fffffffffffffffffffffffffffffffffffffffffffffffffffffffffffffffe0601f85018116603f0116810181811067ffffffffffffffff8211171561322b5761322b61316b565b60405283815290508082840185101561324357600080fd5b83836020830137600060208583010152509392505050565b6000806040838503121561326e57600080fd5b823561327981612ec1565b9150602083013567ffffffffffffffff81111561329557600080fd5b8301601f810185136132a657600080fd5b6132b5858235602084016131c3565b9150509250929050565b600082601f8301126132d057600080fd5b612de2838335602085016131c3565b6000806000606084860312156132f457600080fd5b83359250602084013567ffffffffffffffff81111561331257600080fd5b84016080818703121561332457600080fd5b61332c61319a565b813561333781612ec1565b81526020828101359082015260408083013590820152606082013567ffffffffffffffff81111561336757600080fd5b613373888285016132bf565b60608301525093969395505050506040919091013590565b602081526000612de26020830184612f4c565b600080604083850312156133b157600080fd5b82359150602083013567ffffffffffffffff8111156133cf57600080fd5b8301608081860312156133e157600080fd5b6133e961319a565b81358152602082013567ffffffffffffffff81111561340757600080fd5b613413878285016132bf565b602083015250604082013567ffffffffffffffff81111561343357600080fd5b61343f878285016132bf565b604083015250606082013591506003821061345957600080fd5b81606082015280925050509250929050565b60006020828403121561347d57600080fd5b8135612de281612ec1565b6000806040838503121561349b57600080fd5b82359150602083013567ffffffffffffffff8111156134b957600080fd5b83016080818603121561316057600080fd5b602080825282518282018190526000918401906040840190835b818110156135035783518352602093840193909201916001016134e5565b509095945050505050565b600181811c9082168061352257607f821691505b60208210810361355b577f4e487b7100000000000000000000000000000000000000000000000000000000600052602260045260246000fd5b50919050565b600080828403608081121561357557600080fd5b606081121561358357600080fd5b506040516060810167ffffffffffffffff811182821017156135a7576135a761316b565b6040528351815260208401516135bc81612ec1565b602082015260408401516135cf81612ec1565b6040820152606084015190925061ffff8116811461316057600080fd5b7f4e487b7100000000000000000000000000000000000000000000000000000000600052601160045260246000fd5b80820180821115610a7857610a786135ec565b601f821115610f2057806000526020600020601f840160051c810160208510156136555750805b601f840160051c820191505b818110156136755760008155600101613661565b5050505050565b815167ffffffffffffffff8111156136965761369661316b565b6136aa816136a4845461350e565b8461362e565b6020601f8211600181146136fc57600083156136c65750848201515b7fffffffffffffffffffffffffffffffffffffffffffffffffffffffffffffffff600385901b1c1916600184901b178455613675565b6000848152602081207fffffffffffffffffffffffffffffffffffffffffffffffffffffffffffffffe08516915b8281101561374a578785015182556020948501946001909201910161372a565b508482101561378657868401517fffffffffffffffffffffffffffffffffffffffffffffffffffffffffffffffff600387901b60f8161c191681555b50505050600190811b01905550565b60208101610a788284612fc5565b6000602082840312156137b557600080fd5b5051919050565b8082028115828204841417610a7857610a786135ec565b7f4e487b7100000000000000000000000000000000000000000000000000000000600052601260045260246000fd5b600082613838577f4e487b7100000000000000000000000000000000000000000000000000000000600052601260045260246000fd5b500490565b81810381811115610a7857610a786135ec565b60008083357fffffffffffffffffffffffffffffffffffffffffffffffffffffffffffffffe184360301811261388557600080fd5b83018035915067ffffffffffffffff8211156138a057600080fd5b6020019150368190038213156120e657600080fd5b8183823760009101908152919050565b600082516138d7818460208701612f28565b919091019291505056fea26469706673582212209c19a5514d571f0568ec896cf3205c7106056c0bd499757cd81bc275dac028cf64736f6c634300081c0033","linkReferences":{}},"methodIdentifiers":{"UPGRADE_INTERFACE_VERSION()":"ad3cb1cc","_accumulatedFees(uint256)":"e53025ed","_authorized_refunds(uint256,address)":"596e250d","_deposits(uint256,address)":"e428c802","_fulfillableRegistry()":"0c4393b9","_manager()":"f0329f6b","_releaseablePool(uint256)":"ae4d49ba","_router()":"edae876f","beneficiaryWithdraw(uint256)":"cebae810","deposit(uint256,(address,uint256,uint256,string),uint256)":"6928c271","getDepositsFor(address,uint256)":"d4b59fed","getNativeFeesFor(uint256)":"857e57f6","getRefundsFor(address,uint256)":"0b28a076","initialize(address)":"c4d66de8","owner()":"8da5cb5b","proxiableUUID()":"52d1902d","record(uint256)":"2c16cd8a","recordsOf(address)":"e5b7e2b4","registerFulfillment(uint256,(uint256,string,string,uint8))":"b4b9bb7c","renounceOwnership()":"715018a6","setFulfillableRegistry(address)":"dbc85c5a","setManager(address)":"d0ebdbe7","setRouter(address)":"c0d78655","swapPoolsToStable(uint256,(address,uint256,address,bytes))":"d38fcb91","transferOwnership(address)":"f2fde38b","upgradeToAndCall(address,bytes)":"4f1ef286","withdrawAccumulatedFees(uint256)":"b7aeb6ef","withdrawRefund(uint256,address)":"4248d5b8"},"id":4}