{"abi":[{"type":"constructor","inputs":[],"stateMutability":"nonpayable"},{"type":"function","name":"UPGRADE_INTERFACE_VERSION","inputs":[],"outputs":[{"name":"","type":"string","internalType":"string"}],"stateMutability":"view"},{"type":"function","name":"_fulfillableRegistry","inputs":[],"outputs":[{"name":"","type":"address","internalType":"address"}],"stateMutability":"view"},{"type":"function","name":"_manager","inputs":[],"outputs":[{"name":"","type":"address","internalType":"address"}],"stateMutability":"view"},{"type":"function","name":"_router","inputs":[],"outputs":[{"name":"","type":"address","internalType":"address"}],"stateMutability":"view"},{"type":"function","name":"beneficiaryWithdraw","inputs":[{"name":"serviceID","type":"uint256","internalType":"uint256"},{"name":"token","type":"address","internalType":"address"}],"outputs":[],"stateMutability":"nonpayable"},{"type":"function","name":"depositERC20","inputs":[{"name":"serviceID","type":"uint256","internalType":"uint256"},{"name":"fulfillmentRequest","type":"tuple","internalType":"struct ERC20FulFillmentRequest","components":[{"name":"payer","type":"address","internalType":"address"},{"name":"fiatAmount","type":"uint256","internalType":"uint256"},{"name":"serviceRef","type":"string","internalType":"string"},{"name":"token","type":"address","internalType":"address"},{"name":"tokenAmount","type":"uint256","internalType":"uint256"}]},{"name":"feeAmount","type":"uint256","internalType":"uint256"}],"outputs":[],"stateMutability":"nonpayable"},{"type":"function","name":"getERC20DepositsFor","inputs":[{"name":"token","type":"address","internalType":"address"},{"name":"payer","type":"address","internalType":"address"},{"name":"serviceID","type":"uint256","internalType":"uint256"}],"outputs":[{"name":"amount","type":"uint256","internalType":"uint256"}],"stateMutability":"view"},{"type":"function","name":"getERC20FeesFor","inputs":[{"name":"token","type":"address","internalType":"address"},{"name":"serviceID","type":"uint256","internalType":"uint256"}],"outputs":[{"name":"amount","type":"uint256","internalType":"uint256"}],"stateMutability":"view"},{"type":"function","name":"getERC20RefundsFor","inputs":[{"name":"token","type":"address","internalType":"address"},{"name":"refundee","type":"address","internalType":"address"},{"name":"serviceID","type":"uint256","internalType":"uint256"}],"outputs":[{"name":"amount","type":"uint256","internalType":"uint256"}],"stateMutability":"view"},{"type":"function","name":"initialize","inputs":[{"name":"initialOwner","type":"address","internalType":"address"}],"outputs":[],"stateMutability":"nonpayable"},{"type":"function","name":"owner","inputs":[],"outputs":[{"name":"","type":"address","internalType":"address"}],"stateMutability":"view"},{"type":"function","name":"proxiableUUID","inputs":[],"outputs":[{"name":"","type":"bytes32","internalType":"bytes32"}],"stateMutability":"view"},{"type":"function","name":"record","inputs":[{"name":"id","type":"uint256","internalType":"uint256"}],"outputs":[{"name":"","type":"tuple","internalType":"struct ERC20FulFillmentRecord","components":[{"name":"id","type":"uint256","internalType":"uint256"},{"name":"serviceRef","type":"string","internalType":"string"},{"name":"fulfiller","type":"address","internalType":"address"},{"name":"token","type":"address","internalType":"address"},{"name":"externalID","type":"string","internalType":"string"},{"name":"payer","type":"address","internalType":"address"},{"name":"tokenAmount","type":"uint256","internalType":"uint256"},{"name":"feeAmount","type":"uint256","internalType":"uint256"},{"name":"fiatAmount","type":"uint256","internalType":"uint256"},{"name":"entryTime","type":"uint256","internalType":"uint256"},{"name":"receiptURI","type":"string","internalType":"string"},{"name":"status","type":"uint8","internalType":"enum FulFillmentResultState"}]}],"stateMutability":"view"},{"type":"function","name":"recordsOf","inputs":[{"name":"payer","type":"address","internalType":"address"}],"outputs":[{"name":"","type":"uint256[]","internalType":"uint256[]"}],"stateMutability":"view"},{"type":"function","name":"registerFulfillment","inputs":[{"name":"serviceID","type":"uint256","internalType":"uint256"},{"name":"fulfillment","type":"tuple","internalType":"struct FulFillmentResult","components":[{"name":"id","type":"uint256","internalType":"uint256"},{"name":"externalID","type":"string","internalType":"string"},{"name":"receiptURI","type":"string","internalType":"string"},{"name":"status","type":"uint8","internalType":"enum FulFillmentResultState"}]}],"outputs":[{"name":"","type":"bool","internalType":"bool"}],"stateMutability":"nonpayable"},{"type":"function","name":"renounceOwnership","inputs":[],"outputs":[],"stateMutability":"nonpayable"},{"type":"function","name":"setFulfillableRegistry","inputs":[{"name":"fulfillableRegistry_","type":"address","internalType":"address"}],"outputs":[],"stateMutability":"nonpayable"},{"type":"function","name":"setManager","inputs":[{"name":"manager_","type":"address","internalType":"address"}],"outputs":[],"stateMutability":"nonpayable"},{"type":"function","name":"setRouter","inputs":[{"name":"router_","type":"address","internalType":"address"}],"outputs":[],"stateMutability":"nonpayable"},{"type":"function","name":"transferOwnership","inputs":[{"name":"newOwner","type":"address","internalType":"address"}],"outputs":[],"stateMutability":"nonpayable"},{"type":"function","name":"upgradeToAndCall","inputs":[{"name":"newImplementation","type":"address","internalType":"address"},{"name":"data","type":"bytes","internalType":"bytes"}],"outputs":[],"stateMutability":"payable"},{"type":"function","name":"withdrawAccumulatedFees","inputs":[{"name":"serviceId","type":"uint256","internalType":"uint256"},{"name":"token","type":"address","internalType":"address"}],"outputs":[],"stateMutability":"nonpayable"},{"type":"function","name":"withdrawERC20Refund","inputs":[{"name":"serviceID","type":"uint256","internalType":"uint256"},{"name":"token","type":"address","internalType":"address"},{"name":"refundee","type":"address","internalType":"address"}],"outputs":[{"name":"","type":"bool","internalType":"bool"}],"stateMutability":"nonpayable"},{"type":"event","name":"ERC20DepositReceived","inputs":[{"name":"record","type":"tuple","indexed":false,"internalType":"struct ERC20FulFillmentRecord","components":[{"name":"id","type":"uint256","internalType":"uint256"},{"name":"serviceRef","type":"string","internalType":"string"},{"name":"fulfiller","type":"address","internalType":"address"},{"name":"token","type":"address","internalType":"address"},{"name":"externalID","type":"string","internalType":"string"},{"name":"payer","type":"address","internalType":"address"},{"name":"tokenAmount","type":"uint256","internalType":"uint256"},{"name":"feeAmount","type":"uint256","internalType":"uint256"},{"name":"fiatAmount","type":"uint256","internalType":"uint256"},{"name":"entryTime","type":"uint256","internalType":"uint256"},{"name":"receiptURI","type":"string","internalType":"string"},{"name":"status","type":"uint8","internalType":"enum FulFillmentResultState"}]}],"anonymous":false},{"type":"event","name":"ERC20FeesWithdrawn","inputs":[{"name":"serviceId","type":"uint256","indexed":true,"internalType":"uint256"},{"name":"token","type":"address","indexed":true,"internalType":"address"},{"name":"beneficiary","type":"address","indexed":false,"internalType":"address"},{"name":"amount","type":"uint256","indexed":false,"internalType":"uint256"}],"anonymous":false},{"type":"event","name":"ERC20RefundAuthorized","inputs":[{"name":"payee","type":"address","indexed":true,"internalType":"address"},{"name":"weiAmount","type":"uint256","indexed":false,"internalType":"uint256"}],"anonymous":false},{"type":"event","name":"ERC20RefundWithdrawn","inputs":[{"name":"token","type":"address","indexed":false,"internalType":"address"},{"name":"payee","type":"address","indexed":true,"internalType":"address"},{"name":"weiAmount","type":"uint256","indexed":false,"internalType":"uint256"}],"anonymous":false},{"type":"event","name":"FulfillableRegistryUpdated","inputs":[{"name":"fulfillableRegistry","type":"address","indexed":true,"internalType":"address"}],"anonymous":false},{"type":"event","name":"Initialized","inputs":[{"name":"version","type":"uint64","indexed":false,"internalType":"uint64"}],"anonymous":false},{"type":"event","name":"ManagerUpdated","inputs":[{"name":"manager","type":"address","indexed":true,"internalType":"address"}],"anonymous":false},{"type":"event","name":"OwnershipTransferred","inputs":[{"name":"previousOwner","type":"address","indexed":true,"internalType":"address"},{"name":"newOwner","type":"address","indexed":true,"internalType":"address"}],"anonymous":false},{"type":"event","name":"RouterUpdated","inputs":[{"name":"router","type":"address","indexed":true,"internalType":"address"}],"anonymous":false},{"type":"event","name":"Upgraded","inputs":[{"name":"implementation","type":"address","indexed":true,"internalType":"address"}],"anonymous":false},{"type":"error","name":"AddressEmptyCode","inputs":[{"name":"target","type":"address","internalType":"address"}]},{"type":"error","name":"AddressInsufficientBalance","inputs":[{"name":"account","type":"address","internalType":"address"}]},{"type":"error","name":"ERC1967InvalidImplementation","inputs":[{"name":"implementation","type":"address","internalType":"address"}]},{"type":"error","name":"ERC1967NonPayable","inputs":[]},{"type":"error","name":"FailedInnerCall","inputs":[]},{"type":"error","name":"FulfillmentAlreadyRegistered","inputs":[]},{"type":"error","name":"FulfillmentRecordDoesNotExist","inputs":[]},{"type":"error","name":"InvalidAddress","inputs":[{"name":"addr","type":"address","internalType":"address"}]},{"type":"error","name":"InvalidInitialization","inputs":[]},{"type":"error","name":"NoBalanceToRelease","inputs":[]},{"type":"error","name":"NoFeesToWithdraw","inputs":[]},{"type":"error","name":"NoRefunds","inputs":[{"name":"refundee","type":"address","internalType":"address"}]},{"type":"error","name":"NotInitializing","inputs":[]},{"type":"error","name":"Overflow","inputs":[{"name":"reason","type":"uint8","internalType":"uint8"}]},{"type":"error","name":"OwnableInvalidOwner","inputs":[{"name":"owner","type":"address","internalType":"address"}]},{"type":"error","name":"OwnableUnauthorizedAccount","inputs":[{"name":"account","type":"address","internalType":"address"}]},{"type":"error","name":"ReentrancyGuardReentrantCall","inputs":[]},{"type":"error","name":"RefundsTooBig","inputs":[]},{"type":"error","name":"SafeERC20FailedOperation","inputs":[{"name":"token","type":"address","internalType":"address"}]},{"type":"error","name":"UUPSUnauthorizedCallContext","inputs":[]},{"type":"error","name":"UUPSUnsupportedProxiableUUID","inputs":[{"name":"slot","type":"bytes32","internalType":"bytes32"}]},{"type":"error","name":"UnsupportedFulfillmentStatus","inputs":[]}],"bytecode":{"object":"0x60a060405230608052348015610013575f5ffd5b5061001c610021565b6100d3565b7ff0c57e16840df040f15088dc2f81fe391c3923bec73e23a9662efc9c229c6a00805468010000000000000000900460ff16156100715760405163f92ee8a960e01b815260040160405180910390fd5b80546001600160401b03908116146100d05780546001600160401b0319166001600160401b0390811782556040519081527fc7f505b2f371ae2175ee4913f4499e1f2633a7b5936321eed1cdaeb6115181d29060200160405180910390a15b50565b6080516136d46100f95f395f8181611ebf01528181611ee8015261210401526136d45ff3fe608060405260043610610178575f3560e01c8063b4b9bb7c116100d1578063d0ebdbe71161007c578063edae876f11610057578063edae876f14610536578063f0329f6b14610562578063f2fde38b1461058e575f5ffd5b8063d0ebdbe7146104cc578063dbc85c5a146104eb578063e5b7e2b41461050a575f5ffd5b8063c3dc058d116100ac578063c3dc058d14610436578063c4d66de81461048e578063ce30c9de146104ad575f5ffd5b8063b4b9bb7c146103d9578063b726962e146103f8578063c0d7865514610417575f5ffd5b806352d1902d11610131578063936a83e51161010c578063936a83e51461030d578063a9aa44b01461032c578063ad3cb1cc14610384575f5ffd5b806352d1902d1461029c578063715018a6146102b05780638da5cb5b146102c4575f5ffd5b806348d20d161161016157806348d20d16146101fe5780634efe6f341461022d5780634f1ef28614610287575f5ffd5b80630c4393b91461017c5780632c16cd8a146101d2575b5f5ffd5b348015610187575f5ffd5b506006546101a89073ffffffffffffffffffffffffffffffffffffffff1681565b60405173ffffffffffffffffffffffffffffffffffffffff90911681526020015b60405180910390f35b3480156101dd575f5ffd5b506101f16101ec366004612d47565b6105ad565b6040516101c99190612e10565b348015610209575f5ffd5b5061021d610218366004612f8f565b61083b565b60405190151581526020016101c9565b348015610238575f5ffd5b50610279610247366004612fce565b5f90815260056020908152604080832073ffffffffffffffffffffffffffffffffffffffff9094168352929052205490565b6040519081526020016101c9565b61029a610295366004613106565b6109a3565b005b3480156102a7575f5ffd5b506102796109c2565b3480156102bb575f5ffd5b5061029a6109f0565b3480156102cf575f5ffd5b507f9016d09d72d40fdae2fd8ceac6b6234c7706214fd39c1cd1e609a0528c1993005473ffffffffffffffffffffffffffffffffffffffff166101a8565b348015610318575f5ffd5b5061029a610327366004613166565b610a03565b348015610337575f5ffd5b50610279610346366004613194565b5f908152600b6020908152604080832073ffffffffffffffffffffffffffffffffffffffff9586168452825280832093909416825291909152205490565b34801561038f575f5ffd5b506103cc6040518060400160405280600581526020017f352e302e3000000000000000000000000000000000000000000000000000000081525081565b6040516101c991906131d2565b3480156103e4575f5ffd5b5061021d6103f3366004613202565b610bcb565b348015610403575f5ffd5b5061029a610412366004613166565b611181565b348015610422575f5ffd5b5061029a6104313660046132c8565b6113bc565b348015610441575f5ffd5b50610279610450366004613194565b5f908152600a6020908152604080832073ffffffffffffffffffffffffffffffffffffffff9586168452825280832093909416825291909152205490565b348015610499575f5ffd5b5061029a6104a83660046132c8565b611497565b3480156104b8575f5ffd5b5061029a6104c73660046132e3565b611629565b3480156104d7575f5ffd5b5061029a6104e63660046132c8565b611aec565b3480156104f6575f5ffd5b5061029a6105053660046132c8565b611bc7565b348015610515575f5ffd5b506105296105243660046132c8565b611cae565b6040516101c9919061339e565b348015610541575f5ffd5b506009546101a89073ffffffffffffffffffffffffffffffffffffffff1681565b34801561056d575f5ffd5b506008546101a89073ffffffffffffffffffffffffffffffffffffffff1681565b348015610599575f5ffd5b5061029a6105a83660046132c8565b611d24565b6105b5612c9d565b5f8281526001602081815260409283902083516101808101909452805484529182018054918401916105e6906133e0565b80601f0160208091040260200160405190810160405280929190818152602001828054610612906133e0565b801561065d5780601f106106345761010080835404028352916020019161065d565b820191905f5260205f20905b81548152906001019060200180831161064057829003601f168201915b5050509183525050600282015473ffffffffffffffffffffffffffffffffffffffff908116602083015260038301541660408201526004820180546060909201916106a7906133e0565b80601f01602080910402602001604051908101604052809291908181526020018280546106d3906133e0565b801561071e5780601f106106f55761010080835404028352916020019161071e565b820191905f5260205f20905b81548152906001019060200180831161070157829003601f168201915b5050509183525050600582015473ffffffffffffffffffffffffffffffffffffffff166020820152600682015460408201526007820154606082015260088201546080820152600982015460a0820152600a8201805460c090920191610783906133e0565b80601f01602080910402602001604051908101604052809291908181526020018280546107af906133e0565b80156107fa5780601f106107d1576101008083540402835291602001916107fa565b820191905f5260205f20905b8154815290600101906020018083116107dd57829003601f168201915b5050509183525050600b82015460209091019060ff16600281111561082157610821612daa565b600281111561083257610832612daa565b90525092915050565b5f610844611d87565b60095473ffffffffffffffffffffffffffffffffffffffff16331461089c576040517f8e4c8aa60000000000000000000000000000000000000000000000000000000081523360048201526024015b60405180910390fd5b5f848152600b6020908152604080832073ffffffffffffffffffffffffffffffffffffffff8781168552908352818420908616845290915281205490819003610929576040517fb4741e1a00000000000000000000000000000000000000000000000000000000815273ffffffffffffffffffffffffffffffffffffffff84166004820152602401610893565b610934848483611e08565b50505f838152600b6020908152604080832073ffffffffffffffffffffffffffffffffffffffff86811685529083528184209085168452909152812055600161099c60017f9b779b17422d0df92223018b32b4d1fa46e071723d6817e2486d003becc55f0055565b9392505050565b6109ab611ea7565b6109b482611fab565b6109be8282611fb3565b5050565b5f6109cb6120ec565b507f360894a13ba1a3210667c828492db98dca3e2076cc3735a920a3ca505d382bbc90565b6109f861215b565b610a015f6121e9565b565b610a0b611d87565b60085473ffffffffffffffffffffffffffffffffffffffff163314610a5e576040517f8e4c8aa6000000000000000000000000000000000000000000000000000000008152336004820152602401610893565b5f82815260046020908152604080832073ffffffffffffffffffffffffffffffffffffffff851684529091528120549003610ac5576040517f6e7e9ea500000000000000000000000000000000000000000000000000000000815260040160405180910390fd5b6007546040517fef0e239b000000000000000000000000000000000000000000000000000000008152600481018490525f9173ffffffffffffffffffffffffffffffffffffffff169063ef0e239b90602401608060405180830381865afa158015610b32573d5f5f3e3d5ffd5b505050506040513d601f19601f82011682018060405250810190610b569190613431565b505f84815260046020908152604080832073ffffffffffffffffffffffffffffffffffffffff87168085529083529083208054939055908301519293509091610ba091908361227e565b50506109be60017f9b779b17422d0df92223018b32b4d1fa46e071723d6817e2486d003becc55f0055565b5f610bd4611d87565b60085473ffffffffffffffffffffffffffffffffffffffff163314610c27576040517f8e4c8aa6000000000000000000000000000000000000000000000000000000008152336004820152602401610893565b81515f908152600160205260408120549003610c6f576040517f54446f7100000000000000000000000000000000000000000000000000000000815260040160405180910390fd5b600282515f908152600160205260409020600b015460ff166002811115610c9857610c98612daa565b14610ccf576040517fcdc7646400000000000000000000000000000000000000000000000000000000815260040160405180910390fd5b6007546040517fef0e239b000000000000000000000000000000000000000000000000000000008152600481018590525f9173ffffffffffffffffffffffffffffffffffffffff169063ef0e239b90602401608060405180830381865afa158015610d3c573d5f5f3e3d5ffd5b505050506040513d601f19601f82011682018060405250810190610d609190613431565b5083515f90815260016020526040808220600301548651835281832060060154875184529183206007015493945073ffffffffffffffffffffffffffffffffffffffff1692909190610db390839061230b565b91505f905086606001516002811115610dce57610dce612daa565b03610e695785515f90815260016020526040902060050154610e0a908590859073ffffffffffffffffffffffffffffffffffffffff1684612332565b606086015186515f908152600160208190526040909120600b01805490917fffffffffffffffffffffffffffffffffffffffffffffffffffffffffffffff0090911690836002811115610e5f57610e5f612daa565b021790555061114a565b600186606001516002811115610e8157610e81612daa565b14610eb8576040517f6e718ca000000000000000000000000000000000000000000000000000000000815260040160405180910390fd5b61114a8760015f895f015181526020019081526020015f20604051806101800160405290815f8201548152602001600182018054610ef5906133e0565b80601f0160208091040260200160405190810160405280929190818152602001828054610f21906133e0565b8015610f6c5780601f10610f4357610100808354040283529160200191610f6c565b820191905f5260205f20905b815481529060010190602001808311610f4f57829003601f168201915b5050509183525050600282015473ffffffffffffffffffffffffffffffffffffffff90811660208301526003830154166040820152600482018054606090920191610fb6906133e0565b80601f0160208091040260200160405190810160405280929190818152602001828054610fe2906133e0565b801561102d5780601f106110045761010080835404028352916020019161102d565b820191905f5260205f20905b81548152906001019060200180831161101057829003601f168201915b5050509183525050600582015473ffffffffffffffffffffffffffffffffffffffff166020820152600682015460408201526007820154606082015260088201546080820152600982015460a0820152600a8201805460c090920191611092906133e0565b80601f01602080910402602001604051908101604052809291908181526020018280546110be906133e0565b80156111095780601f106110e057610100808354040283529160200191611109565b820191905f5260205f20905b8154815290600101906020018083116110ec57829003601f168201915b5050509183525050600b82015460209091019060ff16600281111561113057611130612daa565b600281111561114157611141612daa565b90525083612519565b600194505050505061117b60017f9b779b17422d0df92223018b32b4d1fa46e071723d6817e2486d003becc55f0055565b92915050565b611189611d87565b60085473ffffffffffffffffffffffffffffffffffffffff1633146111dc576040517f8e4c8aa6000000000000000000000000000000000000000000000000000000008152336004820152602401610893565b6007546040517fef0e239b000000000000000000000000000000000000000000000000000000008152600481018490525f9173ffffffffffffffffffffffffffffffffffffffff169063ef0e239b90602401608060405180830381865afa158015611249573d5f5f3e3d5ffd5b505050506040513d601f19601f8201168201806040525081019061126d9190613431565b505f84815260056020908152604080832073ffffffffffffffffffffffffffffffffffffffff871684529091528120549192508190036112d9576040517f6806da6800000000000000000000000000000000000000000000000000000000815260040160405180910390fd5b5f84815260056020908152604080832073ffffffffffffffffffffffffffffffffffffffff87168085529083529083209290925583015161131b91908361227e565b8273ffffffffffffffffffffffffffffffffffffffff16847fe3d4066ff5850a350375c03e4752870f2c3526e35f0e28508108f3b4ac13b0cd84602001518460405161138992919073ffffffffffffffffffffffffffffffffffffffff929092168252602082015260400190565b60405180910390a350506109be60017f9b779b17422d0df92223018b32b4d1fa46e071723d6817e2486d003becc55f0055565b6113c461215b565b73ffffffffffffffffffffffffffffffffffffffff8116611429576040517f8e4c8aa600000000000000000000000000000000000000000000000000000000815273ffffffffffffffffffffffffffffffffffffffff82166004820152602401610893565b600980547fffffffffffffffffffffffff00000000000000000000000000000000000000001673ffffffffffffffffffffffffffffffffffffffff83169081179091556040517f7aed1d3e8155a07ccf395e44ea3109a0e2d6c9b29bbbe9f142d9790596f4dc80905f90a250565b7ff0c57e16840df040f15088dc2f81fe391c3923bec73e23a9662efc9c229c6a00805468010000000000000000810460ff16159067ffffffffffffffff165f811580156114e15750825b90505f8267ffffffffffffffff1660011480156114fd5750303b155b90508115801561150b575080155b15611542576040517ff92ee8a900000000000000000000000000000000000000000000000000000000815260040160405180910390fd5b84547fffffffffffffffffffffffffffffffffffffffffffffffff000000000000000016600117855583156115a35784547fffffffffffffffffffffffffffffffffffffffffffffff00ffffffffffffffff16680100000000000000001785555b6115ab6127c5565b6115b36127cd565b6115bc866127dd565b60015f5583156116215784547fffffffffffffffffffffffffffffffffffffffffffffff00ffffffffffffffff168555604051600181527fc7f505b2f371ae2175ee4913f4499e1f2633a7b5936321eed1cdaeb6115181d29060200160405180910390a15b505050505050565b611631611d87565b60095473ffffffffffffffffffffffffffffffffffffffff163314611684576040517f8e4c8aa6000000000000000000000000000000000000000000000000000000008152336004820152602401610893565b60808201515f90611695908361230b565b60608501516007546040517fef0e239b000000000000000000000000000000000000000000000000000000008152600481018990529294509092505f9173ffffffffffffffffffffffffffffffffffffffff9091169063ef0e239b90602401608060405180830381865afa15801561170f573d5f5f3e3d5ffd5b505050506040513d601f19601f820116820180604052508101906117339190613431565b5085515f888152600a6020908152604080832073ffffffffffffffffffffffffffffffffffffffff8881168552908352818420941683529290529081205491925061177e858361230b565b88515f8b8152600a6020908152604080832073ffffffffffffffffffffffffffffffffffffffff808c168552908352818420941683529290522081905591506117c49050565b5f6040518061018001604052805f54815260200189604001518152602001856040015173ffffffffffffffffffffffffffffffffffffffff168152602001896060015173ffffffffffffffffffffffffffffffffffffffff16815260200160405180602001604052805f8152508152602001895f015173ffffffffffffffffffffffffffffffffffffffff168152602001896080015181526020018881526020018960200151815260200142815260200160405180602001604052805f815250815260200160028081111561189b5761189b612daa565b815250905060015f5f8282546118b191906134b8565b92505081905550600160035f8282546118ca91906134b8565b909155505080515f90815260016020818152604090922083518155918301518392918201906118f9908261353b565b50604082015160028201805473ffffffffffffffffffffffffffffffffffffffff9283167fffffffffffffffffffffffff00000000000000000000000000000000000000009182161790915560608401516003840180549190931691161790556080820151600482019061196d908261353b565b5060a08201516005820180547fffffffffffffffffffffffff00000000000000000000000000000000000000001673ffffffffffffffffffffffffffffffffffffffff90921691909117905560c0820151600682015560e0820151600782015561010082015160088201556101208201516009820155610140820151600a8201906119f8908261353b565b50610160820151600b820180547fffffffffffffffffffffffffffffffffffffffffffffffffffffffffffffff00166001836002811115611a3b57611a3b612daa565b0217905550505060a081015173ffffffffffffffffffffffffffffffffffffffff165f908152600260209081526040808320845181546001810183559185529290932090920155517ffe31e11aad0d4767904c798dd8326e02ff3f34ade391dc074800a8b71d34a7ec90611ab0908390612e10565b60405180910390a1505050505050611ae760017f9b779b17422d0df92223018b32b4d1fa46e071723d6817e2486d003becc55f0055565b505050565b611af461215b565b73ffffffffffffffffffffffffffffffffffffffff8116611b59576040517f8e4c8aa600000000000000000000000000000000000000000000000000000000815273ffffffffffffffffffffffffffffffffffffffff82166004820152602401610893565b600880547fffffffffffffffffffffffff00000000000000000000000000000000000000001673ffffffffffffffffffffffffffffffffffffffff83169081179091556040517f2c1c11af44aa5608f1dca38c00275c30ea091e02417d36e70e9a1538689c433d905f90a250565b611bcf61215b565b73ffffffffffffffffffffffffffffffffffffffff8116611c34576040517f8e4c8aa600000000000000000000000000000000000000000000000000000000815273ffffffffffffffffffffffffffffffffffffffff82166004820152602401610893565b6006805473ffffffffffffffffffffffffffffffffffffffff83167fffffffffffffffffffffffff0000000000000000000000000000000000000000918216811790925560078054909116821790556040517f12fd82a8fae6400d0456d521504e56c94dd90726268fd158b0584ec682e1b5b1905f90a250565b73ffffffffffffffffffffffffffffffffffffffff81165f90815260026020908152604091829020805483518184028101840190945280845260609392830182828015611d1857602002820191905f5260205f20905b815481526020019060010190808311611d04575b50505050509050919050565b611d2c61215b565b73ffffffffffffffffffffffffffffffffffffffff8116611d7b576040517f1e4fbdf70000000000000000000000000000000000000000000000000000000081525f6004820152602401610893565b611d84816121e9565b50565b7f9b779b17422d0df92223018b32b4d1fa46e071723d6817e2486d003becc55f0080547ffffffffffffffffffffffffffffffffffffffffffffffffffffffffffffffffe01611e02576040517f3ee5aeb500000000000000000000000000000000000000000000000000000000815260040160405180910390fd5b60029055565b611e2973ffffffffffffffffffffffffffffffffffffffff8416838361227e565b6040805173ffffffffffffffffffffffffffffffffffffffff8581168252602082018490528416917f4b0c3d1fc51b8d48eaf8e0c0a8554a1bdfa3ccd89dff5f774bb84d1d901bc30b910160405180910390a2505050565b60017f9b779b17422d0df92223018b32b4d1fa46e071723d6817e2486d003becc55f0055565b3073ffffffffffffffffffffffffffffffffffffffff7f0000000000000000000000000000000000000000000000000000000000000000161480611f7457507f000000000000000000000000000000000000000000000000000000000000000073ffffffffffffffffffffffffffffffffffffffff16611f5b7f360894a13ba1a3210667c828492db98dca3e2076cc3735a920a3ca505d382bbc5473ffffffffffffffffffffffffffffffffffffffff1690565b73ffffffffffffffffffffffffffffffffffffffff1614155b15610a01576040517fe07c8dba00000000000000000000000000000000000000000000000000000000815260040160405180910390fd5b611d8461215b565b8173ffffffffffffffffffffffffffffffffffffffff166352d1902d6040518163ffffffff1660e01b8152600401602060405180830381865afa925050508015612038575060408051601f3d9081017fffffffffffffffffffffffffffffffffffffffffffffffffffffffffffffffe016820190925261203591810190613652565b60015b612086576040517f4c9c8ce300000000000000000000000000000000000000000000000000000000815273ffffffffffffffffffffffffffffffffffffffff83166004820152602401610893565b7f360894a13ba1a3210667c828492db98dca3e2076cc3735a920a3ca505d382bbc81146120e2576040517faa1d49a400000000000000000000000000000000000000000000000000000000815260048101829052602401610893565b611ae783836127ee565b3073ffffffffffffffffffffffffffffffffffffffff7f00000000000000000000000000000000000000000000000000000000000000001614610a01576040517fe07c8dba00000000000000000000000000000000000000000000000000000000815260040160405180910390fd5b3361219a7f9016d09d72d40fdae2fd8ceac6b6234c7706214fd39c1cd1e609a0528c1993005473ffffffffffffffffffffffffffffffffffffffff1690565b73ffffffffffffffffffffffffffffffffffffffff1614610a01576040517f118cdaa7000000000000000000000000000000000000000000000000000000008152336004820152602401610893565b7f9016d09d72d40fdae2fd8ceac6b6234c7706214fd39c1cd1e609a0528c19930080547fffffffffffffffffffffffff0000000000000000000000000000000000000000811673ffffffffffffffffffffffffffffffffffffffff848116918217845560405192169182907f8be0079c531659141344cd1fd0a4f28419497f9722a3daafe3b4186f6b6457e0905f90a3505050565b6040805173ffffffffffffffffffffffffffffffffffffffff8416602482015260448082018490528251808303909101815260649091019091526020810180517bffffffffffffffffffffffffffffffffffffffffffffffffffffffff167fa9059cbb00000000000000000000000000000000000000000000000000000000179052611ae7908490612850565b5f8083830184811015612324575f5f925092505061232b565b6001925090505b9250929050565b83515f908152600b6020908152604080832073ffffffffffffffffffffffffffffffffffffffff80881685529083528184209086168452909152812054819061237b908461230b565b87515f908152600a6020908152604080832073ffffffffffffffffffffffffffffffffffffffff8b81168552908352818420908a1684529091529020549193509150826123f7576040517fc0d7d3cc00000000000000000000000000000000000000000000000000000000815260016004820152602401610893565b8180821015612432576040517f1eb8e4e900000000000000000000000000000000000000000000000000000000815260040160405180910390fd5b5f8061243e84886128e4565b915091508161247c576040517fc0d7d3cc00000000000000000000000000000000000000000000000000000000815260026004820152602401610893565b89515f908152600a6020908152604080832073ffffffffffffffffffffffffffffffffffffffff8d8116808652918452828520908d168086529084528285208690558e518552600b8452828520918552908352818420818552835292819020869055518981527fc26e84de705d2bfd99e3fa9d482912f6918366d3bbde41683ecfbc118b40efbd910160405180910390a250505050505050505050565b81515f9081526001602090815260408083206007015486845260058352818420606087015173ffffffffffffffffffffffffffffffffffffffff1685529092528220548291612568919061230b565b606086015186515f908152600160209081526040808320600501548b8452600a835281842073ffffffffffffffffffffffffffffffffffffffff958616855283528184209416835292905220549193509150826125f4576040517fc0d7d3cc00000000000000000000000000000000000000000000000000000000815260036004820152602401610893565b5f86815260056020908152604080832060608901805173ffffffffffffffffffffffffffffffffffffffff908116865291845282852087905560c08a01518b865260048552838620915190921685529092528220548291612655919061230b565b9150915081612692576040517fc0d7d3cc000000000000000000000000000000000000000000000000000000008152600481810152602401610893565b5f8061269e85896128e4565b91509150816126dc576040517fc0d7d3cc00000000000000000000000000000000000000000000000000000000815260056004820152602401610893565b5f8a815260046020908152604080832060608d01805173ffffffffffffffffffffffffffffffffffffffff90811686529184528285208890555160a08e01518f8652600a8552838620918316865290845282852091168452909152902081905561014089015189515f908152600160205260409020600a019061275f908261353b565b5088515f908152600160208190526040808320600b0180547fffffffffffffffffffffffffffffffffffffffffffffffffffffffffffffff001690921790915560808b01518b5183529120600401906127b8908261353b565b5050505050505050505050565b610a01612904565b6127d5612904565b610a0161296b565b6127e5612904565b611d8481612973565b6127f78261297b565b60405173ffffffffffffffffffffffffffffffffffffffff8316907fbc7cd75a20ee27fd9adebab32041f755214dbc6bffa90cc0225b39da2e5c2d3b905f90a280511561284857611ae78282612a49565b6109be612ac8565b5f61287173ffffffffffffffffffffffffffffffffffffffff841683612b00565b905080515f141580156128955750808060200190518101906128939190613669565b155b15611ae7576040517f5274afe700000000000000000000000000000000000000000000000000000000815273ffffffffffffffffffffffffffffffffffffffff84166004820152602401610893565b5f5f838311156128f857505f90508061232b565b50600193919092039150565b7ff0c57e16840df040f15088dc2f81fe391c3923bec73e23a9662efc9c229c6a005468010000000000000000900460ff16610a01576040517fd7e6bcf800000000000000000000000000000000000000000000000000000000815260040160405180910390fd5b611e81612904565b611d2c612904565b8073ffffffffffffffffffffffffffffffffffffffff163b5f036129e3576040517f4c9c8ce300000000000000000000000000000000000000000000000000000000815273ffffffffffffffffffffffffffffffffffffffff82166004820152602401610893565b7f360894a13ba1a3210667c828492db98dca3e2076cc3735a920a3ca505d382bbc80547fffffffffffffffffffffffff00000000000000000000000000000000000000001673ffffffffffffffffffffffffffffffffffffffff92909216919091179055565b60605f5f8473ffffffffffffffffffffffffffffffffffffffff1684604051612a729190613688565b5f60405180830381855af49150503d805f8114612aaa576040519150601f19603f3d011682016040523d82523d5f602084013e612aaf565b606091505b5091509150612abf858383612b0d565b95945050505050565b3415610a01576040517fb398979f00000000000000000000000000000000000000000000000000000000815260040160405180910390fd5b606061099c83835f612b9c565b606082612b2257612b1d82612c5b565b61099c565b8151158015612b46575073ffffffffffffffffffffffffffffffffffffffff84163b155b15612b95576040517f9996b31500000000000000000000000000000000000000000000000000000000815273ffffffffffffffffffffffffffffffffffffffff85166004820152602401610893565b508061099c565b606081471015612bda576040517fcd786059000000000000000000000000000000000000000000000000000000008152306004820152602401610893565b5f5f8573ffffffffffffffffffffffffffffffffffffffff168486604051612c029190613688565b5f6040518083038185875af1925050503d805f8114612c3c576040519150601f19603f3d011682016040523d82523d5f602084013e612c41565b606091505b5091509150612c51868383612b0d565b9695505050505050565b805115612c6b5780518082602001fd5b6040517f1425ea4200000000000000000000000000000000000000000000000000000000815260040160405180910390fd5b6040518061018001604052805f8152602001606081526020015f73ffffffffffffffffffffffffffffffffffffffff1681526020015f73ffffffffffffffffffffffffffffffffffffffff168152602001606081526020015f73ffffffffffffffffffffffffffffffffffffffff1681526020015f81526020015f81526020015f81526020015f8152602001606081526020015f6002811115612d4257612d42612daa565b905290565b5f60208284031215612d57575f5ffd5b5035919050565b5f81518084528060208401602086015e5f6020828601015260207fffffffffffffffffffffffffffffffffffffffffffffffffffffffffffffffe0601f83011685010191505092915050565b7f4e487b71000000000000000000000000000000000000000000000000000000005f52602160045260245ffd5b60038110612e0c577f4e487b71000000000000000000000000000000000000000000000000000000005f52602160045260245ffd5b9052565b60208152815160208201525f60208301516101806040840152612e376101a0840182612d5e565b90506040840151612e60606085018273ffffffffffffffffffffffffffffffffffffffff169052565b50606084015173ffffffffffffffffffffffffffffffffffffffff811660808501525060808401517fffffffffffffffffffffffffffffffffffffffffffffffffffffffffffffffe08483030160a0850152612ebc8282612d5e565b91505060a0840151612ee660c085018273ffffffffffffffffffffffffffffffffffffffff169052565b5060c084015160e084015260e08401516101008401526101008401516101208401526101208401516101408401526101408401517fffffffffffffffffffffffffffffffffffffffffffffffffffffffffffffffe084830301610160850152612f4f8282612d5e565b915050610160840151612f66610180850182612dd7565b509392505050565b73ffffffffffffffffffffffffffffffffffffffff81168114611d84575f5ffd5b5f5f5f60608486031215612fa1575f5ffd5b833592506020840135612fb381612f6e565b91506040840135612fc381612f6e565b809150509250925092565b5f5f60408385031215612fdf575f5ffd5b8235612fea81612f6e565b946020939093013593505050565b7f4e487b71000000000000000000000000000000000000000000000000000000005f52604160045260245ffd5b6040516080810167ffffffffffffffff8111828210171561304857613048612ff8565b60405290565b60405160a0810167ffffffffffffffff8111828210171561304857613048612ff8565b5f5f67ffffffffffffffff84111561308b5761308b612ff8565b506040517fffffffffffffffffffffffffffffffffffffffffffffffffffffffffffffffe0601f85018116603f0116810181811067ffffffffffffffff821117156130d8576130d8612ff8565b6040528381529050808284018510156130ef575f5ffd5b838360208301375f60208583010152509392505050565b5f5f60408385031215613117575f5ffd5b823561312281612f6e565b9150602083013567ffffffffffffffff81111561313d575f5ffd5b8301601f8101851361314d575f5ffd5b61315c85823560208401613071565b9150509250929050565b5f5f60408385031215613177575f5ffd5b82359150602083013561318981612f6e565b809150509250929050565b5f5f5f606084860312156131a6575f5ffd5b83356131b181612f6e565b925060208401356131c181612f6e565b929592945050506040919091013590565b602081525f61099c6020830184612d5e565b5f82601f8301126131f3575f5ffd5b61099c83833560208501613071565b5f5f60408385031215613213575f5ffd5b82359150602083013567ffffffffffffffff811115613230575f5ffd5b830160808186031215613241575f5ffd5b613249613025565b81358152602082013567ffffffffffffffff811115613266575f5ffd5b613272878285016131e4565b602083015250604082013567ffffffffffffffff811115613291575f5ffd5b61329d878285016131e4565b60408301525060608201359150600382106132b6575f5ffd5b81606082015280925050509250929050565b5f602082840312156132d8575f5ffd5b813561099c81612f6e565b5f5f5f606084860312156132f5575f5ffd5b83359250602084013567ffffffffffffffff811115613312575f5ffd5b840160a08187031215613323575f5ffd5b61332b61304e565b813561333681612f6e565b815260208281013590820152604082013567ffffffffffffffff81111561335b575f5ffd5b613367888285016131e4565b604083015250606082013561337b81612f6e565b606082015260809182013591810191909152929592945050506040919091013590565b602080825282518282018190525f918401906040840190835b818110156133d55783518352602093840193909201916001016133b7565b509095945050505050565b600181811c908216806133f457607f821691505b60208210810361342b577f4e487b71000000000000000000000000000000000000000000000000000000005f52602260045260245ffd5b50919050565b5f5f8284036080811215613443575f5ffd5b6060811215613450575f5ffd5b506040516060810167ffffffffffffffff8111828210171561347457613474612ff8565b60405283518152602084015161348981612f6e565b6020820152604084015161349c81612f6e565b6040820152606084015190925061ffff81168114613189575f5ffd5b8082018082111561117b577f4e487b71000000000000000000000000000000000000000000000000000000005f52601160045260245ffd5b601f821115611ae757805f5260205f20601f840160051c810160208510156135155750805b601f840160051c820191505b81811015613534575f8155600101613521565b5050505050565b815167ffffffffffffffff81111561355557613555612ff8565b6135698161356384546133e0565b846134f0565b6020601f8211600181146135ba575f83156135845750848201515b7fffffffffffffffffffffffffffffffffffffffffffffffffffffffffffffffff600385901b1c1916600184901b178455613534565b5f848152602081207fffffffffffffffffffffffffffffffffffffffffffffffffffffffffffffffe08516915b8281101561360757878501518255602094850194600190920191016135e7565b508482101561364357868401517fffffffffffffffffffffffffffffffffffffffffffffffffffffffffffffffff600387901b60f8161c191681555b50505050600190811b01905550565b5f60208284031215613662575f5ffd5b5051919050565b5f60208284031215613679575f5ffd5b8151801515811461099c575f5ffd5b5f82518060208501845e5f92019182525091905056fea264697066735822122068c0c45505295625b4f6e9dea7188ebb89c9dbd7d4d6e0b5639d1ffd622f1e6b64736f6c634300081c0033","linkReferences":{}},"methodIdentifiers":{"UPGRADE_INTERFACE_VERSION()":"ad3cb1cc","_fulfillableRegistry()":"0c4393b9","_manager()":"f0329f6b","_router()":"edae876f","beneficiaryWithdraw(uint256,address)":"936a83e5","depositERC20(uint256,(address,uint256,string,address,uint256),uint256)":"ce30c9de","getERC20DepositsFor(address,address,uint256)":"c3dc058d","getERC20FeesFor(address,uint256)":"4efe6f34","getERC20RefundsFor(address,address,uint256)":"a9aa44b0","initialize(address)":"c4d66de8","owner()":"8da5cb5b","proxiableUUID()":"52d1902d","record(uint256)":"2c16cd8a","recordsOf(address)":"e5b7e2b4","registerFulfillment(uint256,(uint256,string,string,uint8))":"b4b9bb7c","renounceOwnership()":"715018a6","setFulfillableRegistry(address)":"dbc85c5a","setManager(address)":"d0ebdbe7","setRouter(address)":"c0d78655","transferOwnership(address)":"f2fde38b","upgradeToAndCall(address,bytes)":"4f1ef286","withdrawAccumulatedFees(uint256,address)":"b726962e","withdrawERC20Refund(uint256,address,address)":"48d20d16"},"id":0}