{"abi":[{"type":"function","name":"UPGRADE_INTERFACE_VERSION","inputs":[],"outputs":[{"name":"","type":"string","internalType":"string"}],"stateMutability":"view"},{"type":"function","name":"_erc20_escrow","inputs":[],"outputs":[{"name":"","type":"address","internalType":"address"}],"stateMutability":"view"},{"type":"function","name":"_escrow","inputs":[],"outputs":[{"name":"","type":"address","internalType":"address"}],"stateMutability":"view"},{"type":"function","name":"_serviceRegistry","inputs":[],"outputs":[{"name":"","type":"address","internalType":"address"}],"stateMutability":"view"},{"type":"function","name":"addAggregator","inputs":[{"name":"aggregator","type":"address","internalType":"address"}],"outputs":[],"stateMutability":"nonpayable"},{"type":"function","name":"beneficiaryWithdraw","inputs":[{"name":"serviceID","type":"uint256","internalType":"uint256"}],"outputs":[],"stateMutability":"nonpayable"},{"type":"function","name":"beneficiaryWithdrawERC20","inputs":[{"name":"serviceID","type":"uint256","internalType":"uint256"},{"name":"token","type":"address","internalType":"address"}],"outputs":[],"stateMutability":"nonpayable"},{"type":"function","name":"fulfillAndSwap","inputs":[{"name":"serviceID","type":"uint256","internalType":"uint256"},{"name":"result","type":"tuple","internalType":"struct FulFillmentResult","components":[{"name":"id","type":"uint256","internalType":"uint256"},{"name":"externalID","type":"string","internalType":"string"},{"name":"receiptURI","type":"string","internalType":"string"},{"name":"status","type":"uint8","internalType":"enum FulFillmentResultState"}]},{"name":"swapData","type":"tuple","internalType":"struct SwapNativeData","components":[{"name":"toToken","type":"address","internalType":"address"},{"name":"amount","type":"uint256","internalType":"uint256"},{"name":"callTo","type":"address","internalType":"address payable"},{"name":"callData","type":"bytes","internalType":"bytes"}]}],"outputs":[],"stateMutability":"nonpayable"},{"type":"function","name":"fulfillERC20AndSwap","inputs":[{"name":"serviceID","type":"uint256","internalType":"uint256"},{"name":"result","type":"tuple","internalType":"struct FulFillmentResult","components":[{"name":"id","type":"uint256","internalType":"uint256"},{"name":"externalID","type":"string","internalType":"string"},{"name":"receiptURI","type":"string","internalType":"string"},{"name":"status","type":"uint8","internalType":"enum FulFillmentResultState"}]},{"name":"swapData","type":"tuple","internalType":"struct SwapData","components":[{"name":"fromToken","type":"address","internalType":"address"},{"name":"toToken","type":"address","internalType":"address"},{"name":"amount","type":"uint256","internalType":"uint256"},{"name":"callTo","type":"address","internalType":"address"},{"name":"callData","type":"bytes","internalType":"bytes"}]}],"outputs":[],"stateMutability":"nonpayable"},{"type":"function","name":"initialize","inputs":[{"name":"initialOwner","type":"address","internalType":"address"}],"outputs":[],"stateMutability":"nonpayable"},{"type":"function","name":"isAggregator","inputs":[{"name":"aggregator","type":"address","internalType":"address"}],"outputs":[{"name":"","type":"bool","internalType":"bool"}],"stateMutability":"view"},{"type":"function","name":"owner","inputs":[],"outputs":[{"name":"","type":"address","internalType":"address"}],"stateMutability":"view"},{"type":"function","name":"proxiableUUID","inputs":[],"outputs":[{"name":"","type":"bytes32","internalType":"bytes32"}],"stateMutability":"view"},{"type":"function","name":"registerERC20Fulfillment","inputs":[{"name":"serviceID","type":"uint256","internalType":"uint256"},{"name":"fulfillment","type":"tuple","internalType":"struct FulFillmentResult","components":[{"name":"id","type":"uint256","internalType":"uint256"},{"name":"externalID","type":"string","internalType":"string"},{"name":"receiptURI","type":"string","internalType":"string"},{"name":"status","type":"uint8","internalType":"enum FulFillmentResultState"}]}],"outputs":[],"stateMutability":"nonpayable"},{"type":"function","name":"registerFulfillment","inputs":[{"name":"serviceID","type":"uint256","internalType":"uint256"},{"name":"fulfillment","type":"tuple","internalType":"struct FulFillmentResult","components":[{"name":"id","type":"uint256","internalType":"uint256"},{"name":"externalID","type":"string","internalType":"string"},{"name":"receiptURI","type":"string","internalType":"string"},{"name":"status","type":"uint8","internalType":"enum FulFillmentResultState"}]}],"outputs":[],"stateMutability":"nonpayable"},{"type":"function","name":"renounceOwnership","inputs":[],"outputs":[],"stateMutability":"nonpayable"},{"type":"function","name":"setERC20Escrow","inputs":[{"name":"erc20Escrow_","type":"address","internalType":"address payable"}],"outputs":[],"stateMutability":"nonpayable"},{"type":"function","name":"setEscrow","inputs":[{"name":"escrow_","type":"address","internalType":"address payable"}],"outputs":[],"stateMutability":"nonpayable"},{"type":"function","name":"setService","inputs":[{"name":"serviceID","type":"uint256","internalType":"uint256"},{"name":"feeAmountBasisPoints","type":"uint16","internalType":"uint16"},{"name":"fulfiller","type":"address","internalType":"address"},{"name":"beneficiary","type":"address","internalType":"address payable"}],"outputs":[{"name":"","type":"tuple","internalType":"struct Service","components":[{"name":"serviceId","type":"uint256","internalType":"uint256"},{"name":"beneficiary","type":"address","internalType":"address payable"},{"name":"fulfiller","type":"address","internalType":"address"}]}],"stateMutability":"nonpayable"},{"type":"function","name":"setServiceFulfillmentFee","inputs":[{"name":"serviceID","type":"uint256","internalType":"uint256"},{"name":"fulfillmentFeeBasisPoints","type":"uint16","internalType":"uint16"}],"outputs":[],"stateMutability":"nonpayable"},{"type":"function","name":"setServiceRef","inputs":[{"name":"serviceID","type":"uint256","internalType":"uint256"},{"name":"serviceRef","type":"string","internalType":"string"}],"outputs":[],"stateMutability":"nonpayable"},{"type":"function","name":"setServiceRegistry","inputs":[{"name":"serviceRegistry_","type":"address","internalType":"address"}],"outputs":[],"stateMutability":"nonpayable"},{"type":"function","name":"transferOwnership","inputs":[{"name":"newOwner","type":"address","internalType":"address"}],"outputs":[],"stateMutability":"nonpayable"},{"type":"function","name":"upgradeToAndCall","inputs":[{"name":"newImplementation","type":"address","internalType":"address"},{"name":"data","type":"bytes","internalType":"bytes"}],"outputs":[],"stateMutability":"payable"},{"type":"function","name":"withdrawERC20Fees","inputs":[{"name":"serviceID","type":"uint256","internalType":"uint256"},{"name":"token","type":"address","internalType":"address"}],"outputs":[],"stateMutability":"nonpayable"},{"type":"function","name":"withdrawNativeFees","inputs":[{"name":"serviceID","type":"uint256","internalType":"uint256"}],"outputs":[],"stateMutability":"nonpayable"},{"type":"event","name":"AggregatorAdded","inputs":[{"name":"aggregator","type":"address","indexed":true,"internalType":"address"}],"anonymous":false},{"type":"event","name":"ERC20EscrowUpdated","inputs":[{"name":"erc20Escrow","type":"address","indexed":true,"internalType":"address"}],"anonymous":false},{"type":"event","name":"EscrowUpdated","inputs":[{"name":"escrow","type":"address","indexed":true,"internalType":"address"}],"anonymous":false},{"type":"event","name":"Initialized","inputs":[{"name":"version","type":"uint64","indexed":false,"internalType":"uint64"}],"anonymous":false},{"type":"event","name":"OwnershipTransferred","inputs":[{"name":"previousOwner","type":"address","indexed":true,"internalType":"address"},{"name":"newOwner","type":"address","indexed":true,"internalType":"address"}],"anonymous":false},{"type":"event","name":"RegistryUpdated","inputs":[{"name":"registry","type":"address","indexed":true,"internalType":"address"}],"anonymous":false},{"type":"event","name":"Upgraded","inputs":[{"name":"implementation","type":"address","indexed":true,"internalType":"address"}],"anonymous":false},{"type":"error","name":"AddressEmptyCode","inputs":[{"name":"target","type":"address","internalType":"address"}]},{"type":"error","name":"ERC1967InvalidImplementation","inputs":[{"name":"implementation","type":"address","internalType":"address"}]},{"type":"error","name":"ERC1967NonPayable","inputs":[]},{"type":"error","name":"FailedInnerCall","inputs":[]},{"type":"error","name":"InvalidAddress","inputs":[{"name":"address_","type":"address","internalType":"address"}]},{"type":"error","name":"InvalidBeneficiary","inputs":[{"name":"beneficiary_","type":"address","internalType":"address"}]},{"type":"error","name":"InvalidFulfiller","inputs":[{"name":"fulfiller_","type":"address","internalType":"address"}]},{"type":"error","name":"InvalidFulfillmentResult","inputs":[{"name":"status","type":"uint8","internalType":"enum FulFillmentResultState"}]},{"type":"error","name":"InvalidInitialization","inputs":[]},{"type":"error","name":"InvalidServiceId","inputs":[{"name":"serviceID_","type":"uint256","internalType":"uint256"}]},{"type":"error","name":"NotInitializing","inputs":[]},{"type":"error","name":"OwnableInvalidOwner","inputs":[{"name":"owner","type":"address","internalType":"address"}]},{"type":"error","name":"OwnableUnauthorizedAccount","inputs":[{"name":"account","type":"address","internalType":"address"}]},{"type":"error","name":"UUPSUnauthorizedCallContext","inputs":[]},{"type":"error","name":"UUPSUnsupportedProxiableUUID","inputs":[{"name":"slot","type":"bytes32","internalType":"bytes32"}]}],"bytecode":{"object":"0x60a06040523060805234801561001457600080fd5b5061001d610022565b6100d4565b7ff0c57e16840df040f15088dc2f81fe391c3923bec73e23a9662efc9c229c6a00805468010000000000000000900460ff16156100725760405163f92ee8a960e01b815260040160405180910390fd5b80546001600160401b03908116146100d15780546001600160401b0319166001600160401b0390811782556040519081527fc7f505b2f371ae2175ee4913f4499e1f2633a7b5936321eed1cdaeb6115181d29060200160405180910390a15b50565b608051612f6a6100fd60003960008181611f2801528181611f5101526121720152612f6a6000f3fe6080604052600436106101a15760003560e01c8063ad3cb1cc116100e1578063cebae8101161008a578063ea5447e611610064578063ea5447e614610547578063ecaec54314610567578063eede444c14610587578063f2fde38b146105a757600080fd5b8063cebae810146104e7578063d67b112514610507578063d7071b1f1461052757600080fd5b8063bf75f119116100bb578063bf75f11914610487578063c10c3546146104a7578063c4d66de8146104c757600080fd5b8063ad3cb1cc146103f1578063b4b9bb7c14610447578063be03f65c1461046757600080fd5b806352d1902d1161014e578063715018a611610128578063715018a6146103385780638da5cb5b1461034d57806390eafe581461039757806391d95f3e146103c457600080fd5b806352d1902d146102d557806358735e63146102f85780636520b0091461031857600080fd5b80632248d9d61161017f5780632248d9d6146102755780634af2a9ff146102a25780634f1ef286146102c257600080fd5b80630619c07a146101a657806307073d91146101fd5780631e8f3c951461021f575b600080fd5b3480156101b257600080fd5b506001546101d39073ffffffffffffffffffffffffffffffffffffffff1681565b60405173ffffffffffffffffffffffffffffffffffffffff90911681526020015b60405180910390f35b34801561020957600080fd5b5061021d6102183660046126d9565b6105c7565b005b34801561022b57600080fd5b5061026561023a366004612742565b73ffffffffffffffffffffffffffffffffffffffff1660009081526003602052604090205460ff1690565b60405190151581526020016101f4565b34801561028157600080fd5b5061029561029036600461276f565b61065d565b6040516101f491906127c2565b3480156102ae57600080fd5b5061021d6102bd3660046128a8565b610850565b61021d6102d0366004612993565b610ba1565b3480156102e157600080fd5b506102ea610bc0565b6040519081526020016101f4565b34801561030457600080fd5b5061021d6103133660046129cd565b610bef565b34801561032457600080fd5b5061021d610333366004612742565b610d6e565b34801561034457600080fd5b5061021d610e52565b34801561035957600080fd5b507f9016d09d72d40fdae2fd8ceac6b6234c7706214fd39c1cd1e609a0528c1993005473ffffffffffffffffffffffffffffffffffffffff166101d3565b3480156103a357600080fd5b506002546101d39073ffffffffffffffffffffffffffffffffffffffff1681565b3480156103d057600080fd5b506000546101d39073ffffffffffffffffffffffffffffffffffffffff1681565b3480156103fd57600080fd5b5061043a6040518060400160405280600581526020017f352e302e3000000000000000000000000000000000000000000000000000000081525081565b6040516101f49190612a6b565b34801561045357600080fd5b5061021d610462366004612a7e565b610e66565b34801561047357600080fd5b5061021d610482366004612742565b61104e565b34801561049357600080fd5b5061021d6104a2366004612abb565b61112a565b3480156104b357600080fd5b5061021d6104c2366004612742565b611193565b3480156104d357600080fd5b5061021d6104e2366004612742565b61126f565b3480156104f357600080fd5b5061021d610502366004612ae0565b6113f6565b34801561051357600080fd5b5061021d610522366004612af9565b61153a565b34801561053357600080fd5b5061021d610542366004612742565b611851565b34801561055357600080fd5b5061021d610562366004612a7e565b61192b565b34801561057357600080fd5b5061021d610582366004612ae0565b611aca565b34801561059357600080fd5b5061021d6105a23660046129cd565b611c70565b3480156105b357600080fd5b5061021d6105c2366004612742565b611e1e565b6105cf611e82565b6000546040517f3f8a7fe000000000000000000000000000000000000000000000000000000000815273ffffffffffffffffffffffffffffffffffffffff90911690633f8a7fe0906106279085908590600401612bd1565b600060405180830381600087803b15801561064157600080fd5b505af1158015610655573d6000803e3d6000fd5b505050505050565b6040805160608101825260008082526020820181905291810191909152610682611e82565b846000036106c4576040517fe0d4974b000000000000000000000000000000000000000000000000000000008152600481018690526024015b60405180910390fd5b73ffffffffffffffffffffffffffffffffffffffff8316610729576040517f8e4c8aa600000000000000000000000000000000000000000000000000000000815273ffffffffffffffffffffffffffffffffffffffff841660048201526024016106bb565b73ffffffffffffffffffffffffffffffffffffffff821661078e576040517f8e4c8aa600000000000000000000000000000000000000000000000000000000815273ffffffffffffffffffffffffffffffffffffffff831660048201526024016106bb565b6040805160608101825286815273ffffffffffffffffffffffffffffffffffffffff80851660208301528581168284015260005492517f4f38e25800000000000000000000000000000000000000000000000000000000815291921690634f38e2589061080390899085908a90600401612bf2565b6020604051808303816000875af1158015610822573d6000803e3d6000fd5b505050506040513d601f19601f820116820180604052508101906108469190612c5b565b5095945050505050565b610858611e82565b600080546040517fef0e239b0000000000000000000000000000000000000000000000000000000081526004810186905273ffffffffffffffffffffffffffffffffffffffff9091169063ef0e239b90602401608060405180830381865afa1580156108c8573d6000803e3d6000fd5b505050506040513d601f19601f820116820180604052508101906108ec9190612c7d565b509050806040015173ffffffffffffffffffffffffffffffffffffffff163373ffffffffffffffffffffffffffffffffffffffff161415801561096657507f9016d09d72d40fdae2fd8ceac6b6234c7706214fd39c1cd1e609a0528c1993005473ffffffffffffffffffffffffffffffffffffffff163314155b1561099f576040517fdb4176c70000000000000000000000000000000000000000000000000000000081523360048201526024016106bb565b6001836060015160028111156109b7576109b7612d01565b146109f45782606001516040517fbbe77e260000000000000000000000000000000000000000000000000000000081526004016106bb9190612d6b565b606082015173ffffffffffffffffffffffffffffffffffffffff1660009081526003602052604090205460ff16610a755760608201516040517f8e4c8aa600000000000000000000000000000000000000000000000000000000815273ffffffffffffffffffffffffffffffffffffffff90911660048201526024016106bb565b6002546040517fb4b9bb7c00000000000000000000000000000000000000000000000000000000815273ffffffffffffffffffffffffffffffffffffffff9091169063b4b9bb7c90610acd9087908790600401612d79565b6020604051808303816000875af1158015610aec573d6000803e3d6000fd5b505050506040513d601f19601f82011682018060405250810190610b109190612c5b565b506002546040517fe535aa3700000000000000000000000000000000000000000000000000000000815273ffffffffffffffffffffffffffffffffffffffff9091169063e535aa3790610b699087908690600401612dfe565b600060405180830381600087803b158015610b8357600080fd5b505af1158015610b97573d6000803e3d6000fd5b5050505050505050565b610ba9611f10565b610bb282612014565b610bbc828261201c565b5050565b6000610bca61215a565b507f360894a13ba1a3210667c828492db98dca3e2076cc3735a920a3ca505d382bbc90565b600080546040517fef0e239b0000000000000000000000000000000000000000000000000000000081526004810185905273ffffffffffffffffffffffffffffffffffffffff9091169063ef0e239b90602401608060405180830381865afa158015610c5f573d6000803e3d6000fd5b505050506040513d601f19601f82011682018060405250810190610c839190612c7d565b50602081015190915073ffffffffffffffffffffffffffffffffffffffff163314610cdc576040517f1a3b45fd0000000000000000000000000000000000000000000000000000000081523360048201526024016106bb565b6002546040517f936a83e50000000000000000000000000000000000000000000000000000000081526004810185905273ffffffffffffffffffffffffffffffffffffffff84811660248301529091169063936a83e5906044015b600060405180830381600087803b158015610d5157600080fd5b505af1158015610d65573d6000803e3d6000fd5b50505050505050565b610d76611e82565b73ffffffffffffffffffffffffffffffffffffffff8116610ddb576040517f8e4c8aa600000000000000000000000000000000000000000000000000000000815273ffffffffffffffffffffffffffffffffffffffff821660048201526024016106bb565b73ffffffffffffffffffffffffffffffffffffffff811660008181526003602052604080822080547fffffffffffffffffffffffffffffffffffffffffffffffffffffffffffffff00166001179055517f6fe83d3564912d267f3f85c4a548ac36ea86d2bb44c5881a8c7e841e5a439a449190a250565b610e5a611e82565b610e6460006121c9565b565b600080546040517fef0e239b0000000000000000000000000000000000000000000000000000000081526004810185905273ffffffffffffffffffffffffffffffffffffffff9091169063ef0e239b90602401608060405180830381865afa158015610ed6573d6000803e3d6000fd5b505050506040513d601f19601f82011682018060405250810190610efa9190612c7d565b509050806040015173ffffffffffffffffffffffffffffffffffffffff163373ffffffffffffffffffffffffffffffffffffffff1614158015610f7457507f9016d09d72d40fdae2fd8ceac6b6234c7706214fd39c1cd1e609a0528c1993005473ffffffffffffffffffffffffffffffffffffffff163314155b15610fad576040517fdb4176c70000000000000000000000000000000000000000000000000000000081523360048201526024016106bb565b6001546040517fb4b9bb7c00000000000000000000000000000000000000000000000000000000815273ffffffffffffffffffffffffffffffffffffffff9091169063b4b9bb7c906110059086908690600401612d79565b6020604051808303816000875af1158015611024573d6000803e3d6000fd5b505050506040513d601f19601f820116820180604052508101906110489190612c5b565b50505050565b611056611e82565b73ffffffffffffffffffffffffffffffffffffffff81166110bb576040517f8e4c8aa600000000000000000000000000000000000000000000000000000000815273ffffffffffffffffffffffffffffffffffffffff821660048201526024016106bb565b600280547fffffffffffffffffffffffff00000000000000000000000000000000000000001673ffffffffffffffffffffffffffffffffffffffff83169081179091556040517fd39b3956f908ed0515c7b777552c15a185e9d13c9dd97db53a16bb661ab0b8d890600090a250565b611132611e82565b6000546040517f0cf4e14c0000000000000000000000000000000000000000000000000000000081526004810184905261ffff8316602482015273ffffffffffffffffffffffffffffffffffffffff90911690630cf4e14c90604401610627565b61119b611e82565b73ffffffffffffffffffffffffffffffffffffffff8116611200576040517f8e4c8aa600000000000000000000000000000000000000000000000000000000815273ffffffffffffffffffffffffffffffffffffffff821660048201526024016106bb565b600180547fffffffffffffffffffffffff00000000000000000000000000000000000000001673ffffffffffffffffffffffffffffffffffffffff83169081179091556040517f43ab431641dd45dd0661cad4b820e826d7c526af92e3121e1242d721f82ab3ad90600090a250565b7ff0c57e16840df040f15088dc2f81fe391c3923bec73e23a9662efc9c229c6a00805468010000000000000000810460ff16159067ffffffffffffffff166000811580156112ba5750825b905060008267ffffffffffffffff1660011480156112d75750303b155b9050811580156112e5575080155b1561131c576040517ff92ee8a900000000000000000000000000000000000000000000000000000000815260040160405180910390fd5b84547fffffffffffffffffffffffffffffffffffffffffffffffff0000000000000000166001178555831561137d5784547fffffffffffffffffffffffffffffffffffffffffffffff00ffffffffffffffff16680100000000000000001785555b61138561225f565b61138e86612267565b83156106555784547fffffffffffffffffffffffffffffffffffffffffffffff00ffffffffffffffff168555604051600181527fc7f505b2f371ae2175ee4913f4499e1f2633a7b5936321eed1cdaeb6115181d29060200160405180910390a1505050505050565b600080546040517fef0e239b0000000000000000000000000000000000000000000000000000000081526004810184905273ffffffffffffffffffffffffffffffffffffffff9091169063ef0e239b90602401608060405180830381865afa158015611466573d6000803e3d6000fd5b505050506040513d601f19601f8201168201806040525081019061148a9190612c7d565b50602081015190915073ffffffffffffffffffffffffffffffffffffffff1633146114e3576040517f1a3b45fd0000000000000000000000000000000000000000000000000000000081523360048201526024016106bb565b6001546040517fcebae8100000000000000000000000000000000000000000000000000000000081526004810184905273ffffffffffffffffffffffffffffffffffffffff9091169063cebae81090602401610627565b611542611e82565b600080546040517fef0e239b0000000000000000000000000000000000000000000000000000000081526004810186905273ffffffffffffffffffffffffffffffffffffffff9091169063ef0e239b90602401608060405180830381865afa1580156115b2573d6000803e3d6000fd5b505050506040513d601f19601f820116820180604052508101906115d69190612c7d565b509050806040015173ffffffffffffffffffffffffffffffffffffffff163373ffffffffffffffffffffffffffffffffffffffff161415801561165057507f9016d09d72d40fdae2fd8ceac6b6234c7706214fd39c1cd1e609a0528c1993005473ffffffffffffffffffffffffffffffffffffffff163314155b15611689576040517fdb4176c70000000000000000000000000000000000000000000000000000000081523360048201526024016106bb565b6001836060015160028111156116a1576116a1612d01565b146116de5782606001516040517fbbe77e260000000000000000000000000000000000000000000000000000000081526004016106bb9190612d6b565b60408083015173ffffffffffffffffffffffffffffffffffffffff1660009081526003602052205460ff1661175d5760408083015190517f8e4c8aa600000000000000000000000000000000000000000000000000000000815273ffffffffffffffffffffffffffffffffffffffff90911660048201526024016106bb565b6001546040517fb4b9bb7c00000000000000000000000000000000000000000000000000000000815273ffffffffffffffffffffffffffffffffffffffff9091169063b4b9bb7c906117b59087908790600401612d79565b6020604051808303816000875af11580156117d4573d6000803e3d6000fd5b505050506040513d601f19601f820116820180604052508101906117f89190612c5b565b506001546040517fd38fcb9100000000000000000000000000000000000000000000000000000000815273ffffffffffffffffffffffffffffffffffffffff9091169063d38fcb9190610b699087908690600401612e93565b611859611e82565b73ffffffffffffffffffffffffffffffffffffffff81166118be576040517f8e4c8aa600000000000000000000000000000000000000000000000000000000815273ffffffffffffffffffffffffffffffffffffffff821660048201526024016106bb565b600080547fffffffffffffffffffffffff00000000000000000000000000000000000000001673ffffffffffffffffffffffffffffffffffffffff8316908117825560405190917fd6ceddf6d2a22f21c7c81675c518004eff43bc5c8a6fc32a0b748e69d58671cd91a250565b600080546040517fef0e239b0000000000000000000000000000000000000000000000000000000081526004810185905273ffffffffffffffffffffffffffffffffffffffff9091169063ef0e239b90602401608060405180830381865afa15801561199b573d6000803e3d6000fd5b505050506040513d601f19601f820116820180604052508101906119bf9190612c7d565b509050806040015173ffffffffffffffffffffffffffffffffffffffff163373ffffffffffffffffffffffffffffffffffffffff1614158015611a3957507f9016d09d72d40fdae2fd8ceac6b6234c7706214fd39c1cd1e609a0528c1993005473ffffffffffffffffffffffffffffffffffffffff163314155b15611a72576040517fdb4176c70000000000000000000000000000000000000000000000000000000081523360048201526024016106bb565b6002546040517fb4b9bb7c00000000000000000000000000000000000000000000000000000000815273ffffffffffffffffffffffffffffffffffffffff9091169063b4b9bb7c906110059086908690600401612d79565b611ad2611e82565b600080546040517fef0e239b0000000000000000000000000000000000000000000000000000000081526004810184905273ffffffffffffffffffffffffffffffffffffffff9091169063ef0e239b90602401608060405180830381865afa158015611b42573d6000803e3d6000fd5b505050506040513d601f19601f82011682018060405250810190611b669190612c7d565b509050806040015173ffffffffffffffffffffffffffffffffffffffff163373ffffffffffffffffffffffffffffffffffffffff1614158015611be057507f9016d09d72d40fdae2fd8ceac6b6234c7706214fd39c1cd1e609a0528c1993005473ffffffffffffffffffffffffffffffffffffffff163314155b15611c19576040517fdb4176c70000000000000000000000000000000000000000000000000000000081523360048201526024016106bb565b6001546040517fb7aeb6ef0000000000000000000000000000000000000000000000000000000081526004810184905273ffffffffffffffffffffffffffffffffffffffff9091169063b7aeb6ef90602401610627565b611c78611e82565b600080546040517fef0e239b0000000000000000000000000000000000000000000000000000000081526004810185905273ffffffffffffffffffffffffffffffffffffffff9091169063ef0e239b90602401608060405180830381865afa158015611ce8573d6000803e3d6000fd5b505050506040513d601f19601f82011682018060405250810190611d0c9190612c7d565b509050806040015173ffffffffffffffffffffffffffffffffffffffff163373ffffffffffffffffffffffffffffffffffffffff1614158015611d8657507f9016d09d72d40fdae2fd8ceac6b6234c7706214fd39c1cd1e609a0528c1993005473ffffffffffffffffffffffffffffffffffffffff163314155b15611dbf576040517fdb4176c70000000000000000000000000000000000000000000000000000000081523360048201526024016106bb565b6002546040517fb726962e0000000000000000000000000000000000000000000000000000000081526004810185905273ffffffffffffffffffffffffffffffffffffffff84811660248301529091169063b726962e90604401610d37565b611e26611e82565b73ffffffffffffffffffffffffffffffffffffffff8116611e76576040517f1e4fbdf7000000000000000000000000000000000000000000000000000000008152600060048201526024016106bb565b611e7f816121c9565b50565b33611ec17f9016d09d72d40fdae2fd8ceac6b6234c7706214fd39c1cd1e609a0528c1993005473ffffffffffffffffffffffffffffffffffffffff1690565b73ffffffffffffffffffffffffffffffffffffffff1614610e64576040517f118cdaa70000000000000000000000000000000000000000000000000000000081523360048201526024016106bb565b3073ffffffffffffffffffffffffffffffffffffffff7f0000000000000000000000000000000000000000000000000000000000000000161480611fdd57507f000000000000000000000000000000000000000000000000000000000000000073ffffffffffffffffffffffffffffffffffffffff16611fc47f360894a13ba1a3210667c828492db98dca3e2076cc3735a920a3ca505d382bbc5473ffffffffffffffffffffffffffffffffffffffff1690565b73ffffffffffffffffffffffffffffffffffffffff1614155b15610e64576040517fe07c8dba00000000000000000000000000000000000000000000000000000000815260040160405180910390fd5b611e7f611e82565b8173ffffffffffffffffffffffffffffffffffffffff166352d1902d6040518163ffffffff1660e01b8152600401602060405180830381865afa9250505080156120a1575060408051601f3d9081017fffffffffffffffffffffffffffffffffffffffffffffffffffffffffffffffe016820190925261209e91810190612eff565b60015b6120ef576040517f4c9c8ce300000000000000000000000000000000000000000000000000000000815273ffffffffffffffffffffffffffffffffffffffff831660048201526024016106bb565b7f360894a13ba1a3210667c828492db98dca3e2076cc3735a920a3ca505d382bbc811461214b576040517faa1d49a4000000000000000000000000000000000000000000000000000000008152600481018290526024016106bb565b6121558383612278565b505050565b3073ffffffffffffffffffffffffffffffffffffffff7f00000000000000000000000000000000000000000000000000000000000000001614610e64576040517fe07c8dba00000000000000000000000000000000000000000000000000000000815260040160405180910390fd5b7f9016d09d72d40fdae2fd8ceac6b6234c7706214fd39c1cd1e609a0528c19930080547fffffffffffffffffffffffff0000000000000000000000000000000000000000811673ffffffffffffffffffffffffffffffffffffffff848116918217845560405192169182907f8be0079c531659141344cd1fd0a4f28419497f9722a3daafe3b4186f6b6457e090600090a3505050565b610e646122db565b61226f6122db565b611e7f81612342565b6122818261234a565b60405173ffffffffffffffffffffffffffffffffffffffff8316907fbc7cd75a20ee27fd9adebab32041f755214dbc6bffa90cc0225b39da2e5c2d3b90600090a28051156122d3576121558282612419565b610bbc61249e565b7ff0c57e16840df040f15088dc2f81fe391c3923bec73e23a9662efc9c229c6a005468010000000000000000900460ff16610e64576040517fd7e6bcf800000000000000000000000000000000000000000000000000000000815260040160405180910390fd5b611e266122db565b8073ffffffffffffffffffffffffffffffffffffffff163b6000036123b3576040517f4c9c8ce300000000000000000000000000000000000000000000000000000000815273ffffffffffffffffffffffffffffffffffffffff821660048201526024016106bb565b7f360894a13ba1a3210667c828492db98dca3e2076cc3735a920a3ca505d382bbc80547fffffffffffffffffffffffff00000000000000000000000000000000000000001673ffffffffffffffffffffffffffffffffffffffff92909216919091179055565b60606000808473ffffffffffffffffffffffffffffffffffffffff16846040516124439190612f18565b600060405180830381855af49150503d806000811461247e576040519150601f19603f3d011682016040523d82523d6000602084013e612483565b606091505b50915091506124938583836124d6565b925050505b92915050565b3415610e64576040517fb398979f00000000000000000000000000000000000000000000000000000000815260040160405180910390fd5b6060826124eb576124e682612568565b612561565b815115801561250f575073ffffffffffffffffffffffffffffffffffffffff84163b155b1561255e576040517f9996b31500000000000000000000000000000000000000000000000000000000815273ffffffffffffffffffffffffffffffffffffffff851660048201526024016106bb565b50805b9392505050565b8051156125785780518082602001fd5b6040517f1425ea4200000000000000000000000000000000000000000000000000000000815260040160405180910390fd5b7f4e487b7100000000000000000000000000000000000000000000000000000000600052604160045260246000fd5b6040516080810167ffffffffffffffff811182821017156125fc576125fc6125aa565b60405290565b60405160a0810167ffffffffffffffff811182821017156125fc576125fc6125aa565b600082601f83011261263657600080fd5b81356020830160008067ffffffffffffffff841115612657576126576125aa565b506040517fffffffffffffffffffffffffffffffffffffffffffffffffffffffffffffffe0601f85018116603f0116810181811067ffffffffffffffff821117156126a4576126a46125aa565b6040528381529050808284018710156126bc57600080fd5b838360208301376000602085830101528094505050505092915050565b600080604083850312156126ec57600080fd5b82359150602083013567ffffffffffffffff81111561270a57600080fd5b61271685828601612625565b9150509250929050565b73ffffffffffffffffffffffffffffffffffffffff81168114611e7f57600080fd5b60006020828403121561275457600080fd5b813561256181612720565b61ffff81168114611e7f57600080fd5b6000806000806080858703121561278557600080fd5b8435935060208501356127978161275f565b925060408501356127a781612720565b915060608501356127b781612720565b939692955090935050565b6060810161249882848051825273ffffffffffffffffffffffffffffffffffffffff602082015116602083015273ffffffffffffffffffffffffffffffffffffffff60408201511660408301525050565b60006080828403121561282557600080fd5b61282d6125d9565b823581529050602082013567ffffffffffffffff81111561284d57600080fd5b61285984828501612625565b602083015250604082013567ffffffffffffffff81111561287957600080fd5b61288584828501612625565b60408301525060608201356003811061289d57600080fd5b606082015292915050565b6000806000606084860312156128bd57600080fd5b83359250602084013567ffffffffffffffff8111156128db57600080fd5b6128e786828701612813565b925050604084013567ffffffffffffffff81111561290457600080fd5b840160a0818703121561291657600080fd5b61291e612602565b813561292981612720565b8152602082013561293981612720565b602082015260408281013590820152606082013561295681612720565b6060820152608082013567ffffffffffffffff81111561297557600080fd5b61298188828501612625565b60808301525080925050509250925092565b600080604083850312156129a657600080fd5b82356129b181612720565b9150602083013567ffffffffffffffff81111561270a57600080fd5b600080604083850312156129e057600080fd5b8235915060208301356129f281612720565b809150509250929050565b60005b83811015612a18578181015183820152602001612a00565b50506000910152565b60008151808452612a398160208601602086016129fd565b601f017fffffffffffffffffffffffffffffffffffffffffffffffffffffffffffffffe0169290920160200192915050565b6020815260006125616020830184612a21565b60008060408385031215612a9157600080fd5b82359150602083013567ffffffffffffffff811115612aaf57600080fd5b61271685828601612813565b60008060408385031215612ace57600080fd5b8235915060208301356129f28161275f565b600060208284031215612af257600080fd5b5035919050565b600080600060608486031215612b0e57600080fd5b83359250602084013567ffffffffffffffff811115612b2c57600080fd5b612b3886828701612813565b925050604084013567ffffffffffffffff811115612b5557600080fd5b840160808187031215612b6757600080fd5b612b6f6125d9565b8135612b7a81612720565b8152602082810135908201526040820135612b9481612720565b6040820152606082013567ffffffffffffffff811115612bb357600080fd5b612bbf88828501612625565b60608301525080925050509250925092565b828152604060208201526000612bea6040830184612a21565b949350505050565b83815260a08101612c4960208301858051825273ffffffffffffffffffffffffffffffffffffffff602082015116602083015273ffffffffffffffffffffffffffffffffffffffff60408201511660408301525050565b61ffff83166080830152949350505050565b600060208284031215612c6d57600080fd5b8151801515811461256157600080fd5b6000808284036080811215612c9157600080fd5b6060811215612c9f57600080fd5b506040516060810167ffffffffffffffff81118282101715612cc357612cc36125aa565b604052835181526020840151612cd881612720565b60208201526040840151612ceb81612720565b604082015260608401519092506129f28161275f565b7f4e487b7100000000000000000000000000000000000000000000000000000000600052602160045260246000fd5b60038110612d67577f4e487b7100000000000000000000000000000000000000000000000000000000600052602160045260246000fd5b9052565b602081016124988284612d30565b82815260406020820152815160408201526000602083015160806060840152612da560c0840182612a21565b905060408401517fffffffffffffffffffffffffffffffffffffffffffffffffffffffffffffffc0848303016080850152612de08282612a21565b9150506060840151612df560a0850182612d30565b50949350505050565b8281526040602082015273ffffffffffffffffffffffffffffffffffffffff825116604082015273ffffffffffffffffffffffffffffffffffffffff60208301511660608201526040820151608082015273ffffffffffffffffffffffffffffffffffffffff60608301511660a08201526000608083015160a060c0840152612e8a60e0840182612a21565b95945050505050565b8281526040602082015273ffffffffffffffffffffffffffffffffffffffff82511660408201526020820151606082015273ffffffffffffffffffffffffffffffffffffffff604083015116608082015260006060830151608060a0840152612e8a60c0840182612a21565b600060208284031215612f1157600080fd5b5051919050565b60008251612f2a8184602087016129fd565b919091019291505056fea26469706673582212201d5b572f8a9b12df49057cdbb6c1f52c1e7ed57725ffd9ccd5eb101798b4666564736f6c634300081c0033","linkReferences":{}},"methodIdentifiers":{"UPGRADE_INTERFACE_VERSION()":"ad3cb1cc","_erc20_escrow()":"90eafe58","_escrow()":"0619c07a","_serviceRegistry()":"91d95f3e","addAggregator(address)":"6520b009","beneficiaryWithdraw(uint256)":"cebae810","beneficiaryWithdrawERC20(uint256,address)":"58735e63","fulfillAndSwap(uint256,(uint256,string,string,uint8),(address,uint256,address,bytes))":"d67b1125","fulfillERC20AndSwap(uint256,(uint256,string,string,uint8),(address,address,uint256,address,bytes))":"4af2a9ff","initialize(address)":"c4d66de8","isAggregator(address)":"1e8f3c95","owner()":"8da5cb5b","proxiableUUID()":"52d1902d","registerERC20Fulfillment(uint256,(uint256,string,string,uint8))":"ea5447e6","registerFulfillment(uint256,(uint256,string,string,uint8))":"b4b9bb7c","renounceOwnership()":"715018a6","setERC20Escrow(address)":"be03f65c","setEscrow(address)":"c10c3546","setService(uint256,uint16,address,address)":"2248d9d6","setServiceFulfillmentFee(uint256,uint16)":"bf75f119","setServiceRef(uint256,string)":"07073d91","setServiceRegistry(address)":"d7071b1f","transferOwnership(address)":"f2fde38b","upgradeToAndCall(address,bytes)":"4f1ef286","withdrawERC20Fees(uint256,address)":"eede444c","withdrawNativeFees(uint256)":"ecaec543"},"id":6}