{"abi":[{"type":"function","name":"UPGRADE_INTERFACE_VERSION","inputs":[],"outputs":[{"name":"","type":"string","internalType":"string"}],"stateMutability":"view"},{"type":"function","name":"_fulfillableRegistry","inputs":[],"outputs":[{"name":"","type":"address","internalType":"address"}],"stateMutability":"view"},{"type":"function","name":"_fulfillmentIdCount","inputs":[],"outputs":[{"name":"","type":"uint256","internalType":"uint256"}],"stateMutability":"view"},{"type":"function","name":"_manager","inputs":[],"outputs":[{"name":"","type":"address","internalType":"address"}],"stateMutability":"view"},{"type":"function","name":"_router","inputs":[],"outputs":[{"name":"","type":"address","internalType":"address"}],"stateMutability":"view"},{"type":"function","name":"beneficiaryWithdraw","inputs":[{"name":"serviceID","type":"uint256","internalType":"uint256"},{"name":"token","type":"address","internalType":"address"}],"outputs":[],"stateMutability":"nonpayable"},{"type":"function","name":"depositERC20","inputs":[{"name":"serviceID","type":"uint256","internalType":"uint256"},{"name":"fulfillmentRequest","type":"tuple","internalType":"struct ERC20FulFillmentRequest","components":[{"name":"payer","type":"address","internalType":"address"},{"name":"fiatAmount","type":"uint256","internalType":"uint256"},{"name":"serviceRef","type":"string","internalType":"string"},{"name":"token","type":"address","internalType":"address"},{"name":"tokenAmount","type":"uint256","internalType":"uint256"}]},{"name":"feeAmount","type":"uint256","internalType":"uint256"}],"outputs":[],"stateMutability":"nonpayable"},{"type":"function","name":"getERC20DepositsFor","inputs":[{"name":"token","type":"address","internalType":"address"},{"name":"payer","type":"address","internalType":"address"},{"name":"serviceID","type":"uint256","internalType":"uint256"}],"outputs":[{"name":"amount","type":"uint256","internalType":"uint256"}],"stateMutability":"view"},{"type":"function","name":"getERC20FeesFor","inputs":[{"name":"token","type":"address","internalType":"address"},{"name":"serviceID","type":"uint256","internalType":"uint256"}],"outputs":[{"name":"amount","type":"uint256","internalType":"uint256"}],"stateMutability":"view"},{"type":"function","name":"getERC20RefundsFor","inputs":[{"name":"token","type":"address","internalType":"address"},{"name":"refundee","type":"address","internalType":"address"},{"name":"serviceID","type":"uint256","internalType":"uint256"}],"outputs":[{"name":"amount","type":"uint256","internalType":"uint256"}],"stateMutability":"view"},{"type":"function","name":"getReleaseablePools","inputs":[{"name":"serviceId","type":"uint256","internalType":"uint256"},{"name":"token","type":"address","internalType":"address"}],"outputs":[{"name":"","type":"uint256","internalType":"uint256"}],"stateMutability":"view"},{"type":"function","name":"initialize","inputs":[{"name":"initialOwner","type":"address","internalType":"address"}],"outputs":[],"stateMutability":"nonpayable"},{"type":"function","name":"owner","inputs":[],"outputs":[{"name":"","type":"address","internalType":"address"}],"stateMutability":"view"},{"type":"function","name":"proxiableUUID","inputs":[],"outputs":[{"name":"","type":"bytes32","internalType":"bytes32"}],"stateMutability":"view"},{"type":"function","name":"record","inputs":[{"name":"id","type":"uint256","internalType":"uint256"}],"outputs":[{"name":"","type":"tuple","internalType":"struct ERC20FulFillmentRecord","components":[{"name":"id","type":"uint256","internalType":"uint256"},{"name":"serviceRef","type":"string","internalType":"string"},{"name":"fulfiller","type":"address","internalType":"address"},{"name":"token","type":"address","internalType":"address"},{"name":"externalID","type":"string","internalType":"string"},{"name":"payer","type":"address","internalType":"address"},{"name":"tokenAmount","type":"uint256","internalType":"uint256"},{"name":"feeAmount","type":"uint256","internalType":"uint256"},{"name":"fiatAmount","type":"uint256","internalType":"uint256"},{"name":"entryTime","type":"uint256","internalType":"uint256"},{"name":"receiptURI","type":"string","internalType":"string"},{"name":"status","type":"uint8","internalType":"enum FulFillmentResultState"}]}],"stateMutability":"view"},{"type":"function","name":"recordsOf","inputs":[{"name":"payer","type":"address","internalType":"address"}],"outputs":[{"name":"","type":"uint256[]","internalType":"uint256[]"}],"stateMutability":"view"},{"type":"function","name":"registerFulfillment","inputs":[{"name":"serviceID","type":"uint256","internalType":"uint256"},{"name":"fulfillment","type":"tuple","internalType":"struct FulFillmentResult","components":[{"name":"id","type":"uint256","internalType":"uint256"},{"name":"externalID","type":"string","internalType":"string"},{"name":"receiptURI","type":"string","internalType":"string"},{"name":"status","type":"uint8","internalType":"enum FulFillmentResultState"}]}],"outputs":[{"name":"","type":"bool","internalType":"bool"}],"stateMutability":"nonpayable"},{"type":"function","name":"renounceOwnership","inputs":[],"outputs":[],"stateMutability":"nonpayable"},{"type":"function","name":"setFulfillableRegistry","inputs":[{"name":"fulfillableRegistry_","type":"address","internalType":"address"}],"outputs":[],"stateMutability":"nonpayable"},{"type":"function","name":"setManager","inputs":[{"name":"manager_","type":"address","internalType":"address"}],"outputs":[],"stateMutability":"nonpayable"},{"type":"function","name":"setRouter","inputs":[{"name":"router_","type":"address","internalType":"address"}],"outputs":[],"stateMutability":"nonpayable"},{"type":"function","name":"swapPoolsToStable","inputs":[{"name":"serviceId","type":"uint256","internalType":"uint256"},{"name":"recordId","type":"uint256","internalType":"uint256"},{"name":"swapData","type":"tuple","internalType":"struct SwapData","components":[{"name":"toToken","type":"address","internalType":"address"},{"name":"amount","type":"uint256","internalType":"uint256"},{"name":"callTo","type":"address","internalType":"address payable"},{"name":"callData","type":"bytes","internalType":"bytes"}]}],"outputs":[],"stateMutability":"nonpayable"},{"type":"function","name":"transferOwnership","inputs":[{"name":"newOwner","type":"address","internalType":"address"}],"outputs":[],"stateMutability":"nonpayable"},{"type":"function","name":"upgradeToAndCall","inputs":[{"name":"newImplementation","type":"address","internalType":"address"},{"name":"data","type":"bytes","internalType":"bytes"}],"outputs":[],"stateMutability":"payable"},{"type":"function","name":"withdrawAccumulatedFees","inputs":[{"name":"serviceId","type":"uint256","internalType":"uint256"},{"name":"token","type":"address","internalType":"address"}],"outputs":[],"stateMutability":"nonpayable"},{"type":"function","name":"withdrawERC20Refund","inputs":[{"name":"serviceID","type":"uint256","internalType":"uint256"},{"name":"recordId","type":"uint256","internalType":"uint256"}],"outputs":[{"name":"","type":"bool","internalType":"bool"}],"stateMutability":"nonpayable"},{"type":"event","name":"ERC20DepositReceived","inputs":[{"name":"record","type":"tuple","indexed":false,"internalType":"struct ERC20FulFillmentRecord","components":[{"name":"id","type":"uint256","internalType":"uint256"},{"name":"serviceRef","type":"string","internalType":"string"},{"name":"fulfiller","type":"address","internalType":"address"},{"name":"token","type":"address","internalType":"address"},{"name":"externalID","type":"string","internalType":"string"},{"name":"payer","type":"address","internalType":"address"},{"name":"tokenAmount","type":"uint256","internalType":"uint256"},{"name":"feeAmount","type":"uint256","internalType":"uint256"},{"name":"fiatAmount","type":"uint256","internalType":"uint256"},{"name":"entryTime","type":"uint256","internalType":"uint256"},{"name":"receiptURI","type":"string","internalType":"string"},{"name":"status","type":"uint8","internalType":"enum FulFillmentResultState"}]}],"anonymous":false},{"type":"event","name":"ERC20FeesWithdrawn","inputs":[{"name":"serviceId","type":"uint256","indexed":true,"internalType":"uint256"},{"name":"token","type":"address","indexed":true,"internalType":"address"},{"name":"beneficiary","type":"address","indexed":false,"internalType":"address"},{"name":"amount","type":"uint256","indexed":false,"internalType":"uint256"}],"anonymous":false},{"type":"event","name":"ERC20RefundAuthorized","inputs":[{"name":"payee","type":"address","indexed":true,"internalType":"address"},{"name":"weiAmount","type":"uint256","indexed":false,"internalType":"uint256"}],"anonymous":false},{"type":"event","name":"ERC20RefundWithdrawn","inputs":[{"name":"token","type":"address","indexed":true,"internalType":"address"},{"name":"payee","type":"address","indexed":true,"internalType":"address"},{"name":"weiAmount","type":"uint256","indexed":false,"internalType":"uint256"},{"name":"recordId","type":"uint256","indexed":false,"internalType":"uint256"}],"anonymous":false},{"type":"event","name":"FulfillableRegistryUpdated","inputs":[{"name":"fulfillableRegistry","type":"address","indexed":true,"internalType":"address"}],"anonymous":false},{"type":"event","name":"Initialized","inputs":[{"name":"version","type":"uint64","indexed":false,"internalType":"uint64"}],"anonymous":false},{"type":"event","name":"ManagerUpdated","inputs":[{"name":"manager","type":"address","indexed":true,"internalType":"address"}],"anonymous":false},{"type":"event","name":"OwnershipTransferred","inputs":[{"name":"previousOwner","type":"address","indexed":true,"internalType":"address"},{"name":"newOwner","type":"address","indexed":true,"internalType":"address"}],"anonymous":false},{"type":"event","name":"PoolsSwappedToStable","inputs":[{"name":"serviceId","type":"uint256","indexed":true,"internalType":"uint256"},{"name":"aggregator","type":"address","indexed":true,"internalType":"address"},{"name":"fromToken","type":"address","indexed":false,"internalType":"address"},{"name":"toToken","type":"address","indexed":false,"internalType":"address"},{"name":"releaseableAmount","type":"uint256","indexed":false,"internalType":"uint256"},{"name":"feesAmount","type":"uint256","indexed":false,"internalType":"uint256"},{"name":"receivedStable","type":"uint256","indexed":false,"internalType":"uint256"}],"anonymous":false},{"type":"event","name":"RouterUpdated","inputs":[{"name":"router","type":"address","indexed":true,"internalType":"address"}],"anonymous":false},{"type":"event","name":"Upgraded","inputs":[{"name":"implementation","type":"address","indexed":true,"internalType":"address"}],"anonymous":false},{"type":"error","name":"AddressEmptyCode","inputs":[{"name":"target","type":"address","internalType":"address"}]},{"type":"error","name":"AddressInsufficientBalance","inputs":[{"name":"account","type":"address","internalType":"address"}]},{"type":"error","name":"AggregatorCallFailed","inputs":[]},{"type":"error","name":"ERC1967InvalidImplementation","inputs":[{"name":"implementation","type":"address","internalType":"address"}]},{"type":"error","name":"ERC1967NonPayable","inputs":[]},{"type":"error","name":"FailedInnerCall","inputs":[]},{"type":"error","name":"FulfillmentAlreadyRegistered","inputs":[]},{"type":"error","name":"FulfillmentRecordDoesNotExist","inputs":[]},{"type":"error","name":"InsufficientCombinedBalance","inputs":[{"name":"totalAvailable","type":"uint256","internalType":"uint256"},{"name":"amount","type":"uint256","internalType":"uint256"}]},{"type":"error","name":"InvalidAddress","inputs":[{"name":"addr","type":"address","internalType":"address"}]},{"type":"error","name":"InvalidCaller","inputs":[{"name":"caller","type":"address","internalType":"address"}]},{"type":"error","name":"InvalidInitialization","inputs":[]},{"type":"error","name":"InvalidSwapAmount","inputs":[]},{"type":"error","name":"InvalidTokenAddress","inputs":[]},{"type":"error","name":"NoBalanceToRelease","inputs":[]},{"type":"error","name":"NoFeesToWithdraw","inputs":[]},{"type":"error","name":"NoRefunds","inputs":[{"name":"refundee","type":"address","internalType":"address"}]},{"type":"error","name":"NotInitializing","inputs":[]},{"type":"error","name":"Overflow","inputs":[{"name":"reason","type":"uint8","internalType":"uint8"}]},{"type":"error","name":"OwnableInvalidOwner","inputs":[{"name":"owner","type":"address","internalType":"address"}]},{"type":"error","name":"OwnableUnauthorizedAccount","inputs":[{"name":"account","type":"address","internalType":"address"}]},{"type":"error","name":"ReentrancyGuardReentrantCall","inputs":[]},{"type":"error","name":"RefundsTooBig","inputs":[]},{"type":"error","name":"SafeERC20FailedDecreaseAllowance","inputs":[{"name":"spender","type":"address","internalType":"address"},{"name":"currentAllowance","type":"uint256","internalType":"uint256"},{"name":"requestedDecrease","type":"uint256","internalType":"uint256"}]},{"type":"error","name":"SafeERC20FailedOperation","inputs":[{"name":"token","type":"address","internalType":"address"}]},{"type":"error","name":"UUPSUnauthorizedCallContext","inputs":[]},{"type":"error","name":"UUPSUnsupportedProxiableUUID","inputs":[{"name":"slot","type":"bytes32","internalType":"bytes32"}]},{"type":"error","name":"UnsupportedFulfillmentStatus","inputs":[]}],"bytecode":{"object":"0x60a06040523060805234801561001457600080fd5b5061001d610022565b6100d4565b7ff0c57e16840df040f15088dc2f81fe391c3923bec73e23a9662efc9c229c6a00805468010000000000000000900460ff16156100725760405163f92ee8a960e01b815260040160405180910390fd5b80546001600160401b03908116146100d15780546001600160401b0319166001600160401b0390811782556040519081527fc7f505b2f371ae2175ee4913f4499e1f2633a7b5936321eed1cdaeb6115181d29060200160405180910390a15b50565b60805161475f6100fd60003960008181612294015281816122bd01526124d9015261475f6000f3fe6080604052600436106101a15760003560e01c8063b4b9bb7c116100e1578063d0ebdbe71161008a578063edae876f11610064578063edae876f146105b6578063f0329f6b146105e3578063f2fde38b14610610578063f5f2e7931461063057600080fd5b8063d0ebdbe714610549578063dbc85c5a14610569578063e5b7e2b41461058957600080fd5b8063c3dc058d116100bb578063c3dc058d146104af578063c4d66de814610509578063ce30c9de1461052957600080fd5b8063b4b9bb7c1461044f578063b726962e1461046f578063c0d786551461048f57600080fd5b806366e11f571161014e578063936a83e511610128578063936a83e51461034f578063a9aa44b01461036f578063aa6694b1146103c9578063ad3cb1cc146103f957600080fd5b806366e11f57146102d0578063715018a6146102f05780638da5cb5b1461030557600080fd5b80634efe6f341161017f5780634efe6f341461024c5780634f1ef286146102a857806352d1902d146102bb57600080fd5b80630c4393b9146101a65780631a016c8b146101fd5780632c16cd8a1461021f575b600080fd5b3480156101b257600080fd5b506006546101d39073ffffffffffffffffffffffffffffffffffffffff1681565b60405173ffffffffffffffffffffffffffffffffffffffff90911681526020015b60405180910390f35b34801561020957600080fd5b5061021d610218366004613c74565b610646565b005b34801561022b57600080fd5b5061023f61023a366004613ccb565b6106f1565b6040516101f49190613dbc565b34801561025857600080fd5b5061029a610267366004613f3d565b600090815260056020908152604080832073ffffffffffffffffffffffffffffffffffffffff9094168352929052205490565b6040519081526020016101f4565b61021d6102b636600461407c565b610986565b3480156102c757600080fd5b5061029a6109a5565b3480156102dc57600080fd5b5061029a6102eb3660046140e0565b6109d4565b3480156102fc57600080fd5b5061021d610a0b565b34801561031157600080fd5b507f9016d09d72d40fdae2fd8ceac6b6234c7706214fd39c1cd1e609a0528c1993005473ffffffffffffffffffffffffffffffffffffffff166101d3565b34801561035b57600080fd5b5061021d61036a3660046140e0565b610a1f565b34801561037b57600080fd5b5061029a61038a366004614110565b6000908152600b6020908152604080832073ffffffffffffffffffffffffffffffffffffffff9586168452825280832093909416825291909152205490565b3480156103d557600080fd5b506103e96103e4366004614151565b610bec565b60405190151581526020016101f4565b34801561040557600080fd5b506104426040518060400160405280600581526020017f352e302e3000000000000000000000000000000000000000000000000000000081525081565b6040516101f49190614173565b34801561045b57600080fd5b506103e961046a3660046141a6565b610c2c565b34801561047b57600080fd5b5061021d61048a3660046140e0565b6111f0565b34801561049b57600080fd5b5061021d6104aa366004614273565b611430565b3480156104bb57600080fd5b5061029a6104ca366004614110565b6000908152600a6020908152604080832073ffffffffffffffffffffffffffffffffffffffff9586168452825280832093909416825291909152205490565b34801561051557600080fd5b5061021d610524366004614273565b61150c565b34801561053557600080fd5b5061021d610544366004614290565b6116a1565b34801561055557600080fd5b5061021d610564366004614273565b611b6f565b34801561057557600080fd5b5061021d610584366004614273565b611c4b565b34801561059557600080fd5b506105a96105a4366004614273565b611d33565b6040516101f49190614351565b3480156105c257600080fd5b506009546101d39073ffffffffffffffffffffffffffffffffffffffff1681565b3480156105ef57600080fd5b506008546101d39073ffffffffffffffffffffffffffffffffffffffff1681565b34801561061c57600080fd5b5061021d61062b366004614273565b611dac565b34801561063c57600080fd5b5061029a60005481565b61064e611e10565b60085473ffffffffffffffffffffffffffffffffffffffff1633146106a6576040517fcbd9d2e00000000000000000000000000000000000000000000000000000000081523360048201526024015b60405180910390fd5b60006106b1836106f1565b90506106c260046005868585611e91565b506106ec60017f9b779b17422d0df92223018b32b4d1fa46e071723d6817e2486d003becc55f0055565b505050565b6106f9613bc1565b600082815260016020818152604092839020835161018081019094528054845291820180549184019161072b90614394565b80601f016020809104026020016040519081016040528092919081815260200182805461075790614394565b80156107a45780601f10610779576101008083540402835291602001916107a4565b820191906000526020600020905b81548152906001019060200180831161078757829003601f168201915b5050509183525050600282015473ffffffffffffffffffffffffffffffffffffffff908116602083015260038301541660408201526004820180546060909201916107ee90614394565b80601f016020809104026020016040519081016040528092919081815260200182805461081a90614394565b80156108675780601f1061083c57610100808354040283529160200191610867565b820191906000526020600020905b81548152906001019060200180831161084a57829003601f168201915b5050509183525050600582015473ffffffffffffffffffffffffffffffffffffffff166020820152600682015460408201526007820154606082015260088201546080820152600982015460a0820152600a8201805460c0909201916108cc90614394565b80601f01602080910402602001604051908101604052809291908181526020018280546108f890614394565b80156109455780601f1061091a57610100808354040283529160200191610945565b820191906000526020600020905b81548152906001019060200180831161092857829003601f168201915b5050509183525050600b82015460209091019060ff16600381111561096c5761096c613d52565b600381111561097d5761097d613d52565b90525092915050565b61098e61227c565b61099782612380565b6109a18282612388565b5050565b60006109af6124c1565b507f360894a13ba1a3210667c828492db98dca3e2076cc3735a920a3ca505d382bbc90565b600082815260046020908152604080832073ffffffffffffffffffffffffffffffffffffffff851684529091529020545b92915050565b610a13612530565b610a1d60006125be565b565b610a27611e10565b60085473ffffffffffffffffffffffffffffffffffffffff163314610a7a576040517f8e4c8aa600000000000000000000000000000000000000000000000000000000815233600482015260240161069d565b600082815260046020908152604080832073ffffffffffffffffffffffffffffffffffffffff851684529091528120549003610ae2576040517f6e7e9ea500000000000000000000000000000000000000000000000000000000815260040160405180910390fd5b6007546040517fef0e239b0000000000000000000000000000000000000000000000000000000081526004810184905260009173ffffffffffffffffffffffffffffffffffffffff169063ef0e239b90602401608060405180830381865afa158015610b52573d6000803e3d6000fd5b505050506040513d601f19601f82011682018060405250810190610b7691906143e7565b50600084815260046020908152604080832073ffffffffffffffffffffffffffffffffffffffff87168085529083529083208054939055908301519293509091610bc1919083612654565b50506109a160017f9b779b17422d0df92223018b32b4d1fa46e071723d6817e2486d003becc55f0055565b6000610bf6611e10565b610c0083836126d5565b506001610a0560017f9b779b17422d0df92223018b32b4d1fa46e071723d6817e2486d003becc55f0055565b6000610c36611e10565b60085473ffffffffffffffffffffffffffffffffffffffff163314610c89576040517f8e4c8aa600000000000000000000000000000000000000000000000000000000815233600482015260240161069d565b81516000908152600160205260408120549003610cd2576040517f54446f7100000000000000000000000000000000000000000000000000000000815260040160405180910390fd5b600282516000908152600160205260409020600b015460ff166003811115610cfc57610cfc613d52565b14610d33576040517fcdc7646400000000000000000000000000000000000000000000000000000000815260040160405180910390fd5b6007546040517fef0e239b0000000000000000000000000000000000000000000000000000000081526004810185905260009173ffffffffffffffffffffffffffffffffffffffff169063ef0e239b90602401608060405180830381865afa158015610da3573d6000803e3d6000fd5b505050506040513d601f19601f82011682018060405250810190610dc791906143e7565b508351600090815260016020526040808220600301548651835281832060060154875184529183206007015493945073ffffffffffffffffffffffffffffffffffffffff1692909190610e1b908390612bcd565b91506000905086606001516003811115610e3757610e37613d52565b03610ed4578551600090815260016020526040902060050154610e74908590859073ffffffffffffffffffffffffffffffffffffffff1684612bf6565b606086015186516000908152600160208190526040909120600b01805490917fffffffffffffffffffffffffffffffffffffffffffffffffffffffffffffff0090911690836003811115610eca57610eca613d52565b02179055506111bf565b600186606001516003811115610eec57610eec613d52565b14610f23576040517f6e718ca000000000000000000000000000000000000000000000000000000000815260040160405180910390fd5b6111bf8760016000896000015181526020019081526020016000206040518061018001604052908160008201548152602001600182018054610f6490614394565b80601f0160208091040260200160405190810160405280929190818152602001828054610f9090614394565b8015610fdd5780601f10610fb257610100808354040283529160200191610fdd565b820191906000526020600020905b815481529060010190602001808311610fc057829003601f168201915b5050509183525050600282015473ffffffffffffffffffffffffffffffffffffffff9081166020830152600383015416604082015260048201805460609092019161102790614394565b80601f016020809104026020016040519081016040528092919081815260200182805461105390614394565b80156110a05780601f10611075576101008083540402835291602001916110a0565b820191906000526020600020905b81548152906001019060200180831161108357829003601f168201915b5050509183525050600582015473ffffffffffffffffffffffffffffffffffffffff166020820152600682015460408201526007820154606082015260088201546080820152600982015460a0820152600a8201805460c09092019161110590614394565b80601f016020809104026020016040519081016040528092919081815260200182805461113190614394565b801561117e5780601f106111535761010080835404028352916020019161117e565b820191906000526020600020905b81548152906001019060200180831161116157829003601f168201915b5050509183525050600b82015460209091019060ff1660038111156111a5576111a5613d52565b60038111156111b6576111b6613d52565b90525083612dc3565b6001945050505050610a0560017f9b779b17422d0df92223018b32b4d1fa46e071723d6817e2486d003becc55f0055565b6111f8611e10565b60085473ffffffffffffffffffffffffffffffffffffffff16331461124b576040517f8e4c8aa600000000000000000000000000000000000000000000000000000000815233600482015260240161069d565b6007546040517fef0e239b0000000000000000000000000000000000000000000000000000000081526004810184905260009173ffffffffffffffffffffffffffffffffffffffff169063ef0e239b90602401608060405180830381865afa1580156112bb573d6000803e3d6000fd5b505050506040513d601f19601f820116820180604052508101906112df91906143e7565b50600084815260056020908152604080832073ffffffffffffffffffffffffffffffffffffffff8716845290915281205491925081900361134c576040517f6806da6800000000000000000000000000000000000000000000000000000000815260040160405180910390fd5b600084815260056020908152604080832073ffffffffffffffffffffffffffffffffffffffff87168085529083529083209290925583015161138f919083612654565b8273ffffffffffffffffffffffffffffffffffffffff16847fe3d4066ff5850a350375c03e4752870f2c3526e35f0e28508108f3b4ac13b0cd8460200151846040516113fd92919073ffffffffffffffffffffffffffffffffffffffff929092168252602082015260400190565b60405180910390a350506109a160017f9b779b17422d0df92223018b32b4d1fa46e071723d6817e2486d003becc55f0055565b611438612530565b73ffffffffffffffffffffffffffffffffffffffff811661149d576040517f8e4c8aa600000000000000000000000000000000000000000000000000000000815273ffffffffffffffffffffffffffffffffffffffff8216600482015260240161069d565b600980547fffffffffffffffffffffffff00000000000000000000000000000000000000001673ffffffffffffffffffffffffffffffffffffffff83169081179091556040517f7aed1d3e8155a07ccf395e44ea3109a0e2d6c9b29bbbe9f142d9790596f4dc8090600090a250565b7ff0c57e16840df040f15088dc2f81fe391c3923bec73e23a9662efc9c229c6a00805468010000000000000000810460ff16159067ffffffffffffffff166000811580156115575750825b905060008267ffffffffffffffff1660011480156115745750303b155b905081158015611582575080155b156115b9576040517ff92ee8a900000000000000000000000000000000000000000000000000000000815260040160405180910390fd5b84547fffffffffffffffffffffffffffffffffffffffffffffffff0000000000000000166001178555831561161a5784547fffffffffffffffffffffffffffffffffffffffffffffff00ffffffffffffffff16680100000000000000001785555b611622613076565b61162a61307e565b6116338661308e565b600160005583156116995784547fffffffffffffffffffffffffffffffffffffffffffffff00ffffffffffffffff168555604051600181527fc7f505b2f371ae2175ee4913f4499e1f2633a7b5936321eed1cdaeb6115181d29060200160405180910390a15b505050505050565b6116a9611e10565b60095473ffffffffffffffffffffffffffffffffffffffff1633146116fc576040517f8e4c8aa600000000000000000000000000000000000000000000000000000000815233600482015260240161069d565b608082015160009061170e9083612bcd565b60608501516007546040517fef0e239b0000000000000000000000000000000000000000000000000000000081526004810189905292945090925060009173ffffffffffffffffffffffffffffffffffffffff9091169063ef0e239b90602401608060405180830381865afa15801561178b573d6000803e3d6000fd5b505050506040513d601f19601f820116820180604052508101906117af91906143e7565b5085516000888152600a6020908152604080832073ffffffffffffffffffffffffffffffffffffffff888116855290835281842094168352929052908120549192506117fb8583612bcd565b885160008b8152600a6020908152604080832073ffffffffffffffffffffffffffffffffffffffff808c168552908352818420941683529290522081905591506118429050565b6000604051806101800160405280600054815260200189604001518152602001856040015173ffffffffffffffffffffffffffffffffffffffff168152602001896060015173ffffffffffffffffffffffffffffffffffffffff168152602001604051806020016040528060008152508152602001896000015173ffffffffffffffffffffffffffffffffffffffff16815260200189608001518152602001888152602001896020015181526020014281526020016040518060200160405280600081525081526020016002600381111561191f5761191f613d52565b8152509050600160008082825461193691906144a1565b9250508190555060016003600082825461195091906144a1565b90915550508051600090815260016020818152604090922083518155918301518392918201906119809082614502565b50604082015160028201805473ffffffffffffffffffffffffffffffffffffffff9283167fffffffffffffffffffffffff0000000000000000000000000000000000000000918216179091556060840151600384018054919093169116179055608082015160048201906119f49082614502565b5060a08201516005820180547fffffffffffffffffffffffff00000000000000000000000000000000000000001673ffffffffffffffffffffffffffffffffffffffff90921691909117905560c0820151600682015560e0820151600782015561010082015160088201556101208201516009820155610140820151600a820190611a7f9082614502565b50610160820151600b820180547fffffffffffffffffffffffffffffffffffffffffffffffffffffffffffffff00166001836003811115611ac257611ac2613d52565b0217905550505060a081015173ffffffffffffffffffffffffffffffffffffffff166000908152600260209081526040808320845181546001810183559185529290932090920155517ffe31e11aad0d4767904c798dd8326e02ff3f34ade391dc074800a8b71d34a7ec90611b38908390613dbc565b60405180910390a15050505050506106ec60017f9b779b17422d0df92223018b32b4d1fa46e071723d6817e2486d003becc55f0055565b611b77612530565b73ffffffffffffffffffffffffffffffffffffffff8116611bdc576040517f8e4c8aa600000000000000000000000000000000000000000000000000000000815273ffffffffffffffffffffffffffffffffffffffff8216600482015260240161069d565b600880547fffffffffffffffffffffffff00000000000000000000000000000000000000001673ffffffffffffffffffffffffffffffffffffffff83169081179091556040517f2c1c11af44aa5608f1dca38c00275c30ea091e02417d36e70e9a1538689c433d90600090a250565b611c53612530565b73ffffffffffffffffffffffffffffffffffffffff8116611cb8576040517f8e4c8aa600000000000000000000000000000000000000000000000000000000815273ffffffffffffffffffffffffffffffffffffffff8216600482015260240161069d565b6006805473ffffffffffffffffffffffffffffffffffffffff83167fffffffffffffffffffffffff0000000000000000000000000000000000000000918216811790925560078054909116821790556040517f12fd82a8fae6400d0456d521504e56c94dd90726268fd158b0584ec682e1b5b190600090a250565b73ffffffffffffffffffffffffffffffffffffffff8116600090815260026020908152604091829020805483518184028101840190945280845260609392830182828015611da057602002820191906000526020600020905b815481526020019060010190808311611d8c575b50505050509050919050565b611db4612530565b73ffffffffffffffffffffffffffffffffffffffff8116611e04576040517f1e4fbdf70000000000000000000000000000000000000000000000000000000081526000600482015260240161069d565b611e0d816125be565b50565b7f9b779b17422d0df92223018b32b4d1fa46e071723d6817e2486d003becc55f0080547ffffffffffffffffffffffffffffffffffffffffffffffffffffffffffffffffe01611e8b576040517f3ee5aeb500000000000000000000000000000000000000000000000000000000815260040160405180910390fd5b60029055565b606081015173ffffffffffffffffffffffffffffffffffffffff161580611eda57506000611ec26020840184614273565b73ffffffffffffffffffffffffffffffffffffffff16145b15611f11576040517f1eb00b0600000000000000000000000000000000000000000000000000000000815260040160405180910390fd5b8160200135600003611f4f576040517fe346d81d00000000000000000000000000000000000000000000000000000000815260040160405180910390fd5b60008381526020868152604080832060608501805173ffffffffffffffffffffffffffffffffffffffff908116865291845282852054888652898552838620915190921685529092528220549091611fa782846144a1565b90508460200135811015611ff4576040517f29b1c811000000000000000000000000000000000000000000000000000000008152600481018290526020860135602482015260440161069d565b612002838560c0015161309f565b61200c908461461b565b600087815260208a81526040808320606089015173ffffffffffffffffffffffffffffffffffffffff16845290915290205560e084015161204e90839061309f565b612058908361461b565b6000878152602089815260408083206060808a015173ffffffffffffffffffffffffffffffffffffffff16855292528083209390935590916120ae916120a391908901908901614273565b8660600151886130b7565b90506000806120c688602001358860c0015185613307565b60008b815260208e8152604082209395509193508492916120e9908c018c614273565b73ffffffffffffffffffffffffffffffffffffffff1673ffffffffffffffffffffffffffffffffffffffff168152602001908152602001600020600082825461213291906144a1565b9091555050600089815260208b81526040822083929091612155908c018c614273565b73ffffffffffffffffffffffffffffffffffffffff1673ffffffffffffffffffffffffffffffffffffffff168152602001908152602001600020600082825461219e91906144a1565b909155506121b490506060890160408a01614273565b73ffffffffffffffffffffffffffffffffffffffff16897f527621353620f34f430c80603e6f08e61362d3e365d229288b14e89b4ffb1c3289606001518b60000160208101906122049190614273565b6040805173ffffffffffffffffffffffffffffffffffffffff938416815292909116602083015281018a9052606081018990526080810187905260a00160405180910390a35050505050505050505050565b60017f9b779b17422d0df92223018b32b4d1fa46e071723d6817e2486d003becc55f0055565b3073ffffffffffffffffffffffffffffffffffffffff7f000000000000000000000000000000000000000000000000000000000000000016148061234957507f000000000000000000000000000000000000000000000000000000000000000073ffffffffffffffffffffffffffffffffffffffff166123307f360894a13ba1a3210667c828492db98dca3e2076cc3735a920a3ca505d382bbc5473ffffffffffffffffffffffffffffffffffffffff1690565b73ffffffffffffffffffffffffffffffffffffffff1614155b15610a1d576040517fe07c8dba00000000000000000000000000000000000000000000000000000000815260040160405180910390fd5b611e0d612530565b8173ffffffffffffffffffffffffffffffffffffffff166352d1902d6040518163ffffffff1660e01b8152600401602060405180830381865afa92505050801561240d575060408051601f3d9081017fffffffffffffffffffffffffffffffffffffffffffffffffffffffffffffffe016820190925261240a9181019061462e565b60015b61245b576040517f4c9c8ce300000000000000000000000000000000000000000000000000000000815273ffffffffffffffffffffffffffffffffffffffff8316600482015260240161069d565b7f360894a13ba1a3210667c828492db98dca3e2076cc3735a920a3ca505d382bbc81146124b7576040517faa1d49a40000000000000000000000000000000000000000000000000000000081526004810182905260240161069d565b6106ec838361333f565b3073ffffffffffffffffffffffffffffffffffffffff7f00000000000000000000000000000000000000000000000000000000000000001614610a1d576040517fe07c8dba00000000000000000000000000000000000000000000000000000000815260040160405180910390fd5b3361256f7f9016d09d72d40fdae2fd8ceac6b6234c7706214fd39c1cd1e609a0528c1993005473ffffffffffffffffffffffffffffffffffffffff1690565b73ffffffffffffffffffffffffffffffffffffffff1614610a1d576040517f118cdaa700000000000000000000000000000000000000000000000000000000815233600482015260240161069d565b7f9016d09d72d40fdae2fd8ceac6b6234c7706214fd39c1cd1e609a0528c19930080547fffffffffffffffffffffffff0000000000000000000000000000000000000000811673ffffffffffffffffffffffffffffffffffffffff848116918217845560405192169182907f8be0079c531659141344cd1fd0a4f28419497f9722a3daafe3b4186f6b6457e090600090a3505050565b60405173ffffffffffffffffffffffffffffffffffffffff8381166024830152604482018390526106ec91859182169063a9059cbb906064015b604051602081830303815290604052915060e01b6020820180517bffffffffffffffffffffffffffffffffffffffffffffffffffffffff83818316178352505050506133a2565b60095473ffffffffffffffffffffffffffffffffffffffff163314612728576040517f8e4c8aa600000000000000000000000000000000000000000000000000000000815233600482015260240161069d565b60008181526001602081815260408084208151610180810190925280548252928301805491939284019161275b90614394565b80601f016020809104026020016040519081016040528092919081815260200182805461278790614394565b80156127d45780601f106127a9576101008083540402835291602001916127d4565b820191906000526020600020905b8154815290600101906020018083116127b757829003601f168201915b5050509183525050600282015473ffffffffffffffffffffffffffffffffffffffff9081166020830152600383015416604082015260048201805460609092019161281e90614394565b80601f016020809104026020016040519081016040528092919081815260200182805461284a90614394565b80156128975780601f1061286c57610100808354040283529160200191612897565b820191906000526020600020905b81548152906001019060200180831161287a57829003601f168201915b5050509183525050600582015473ffffffffffffffffffffffffffffffffffffffff166020820152600682015460408201526007820154606082015260088201546080820152600982015460a0820152600a8201805460c0909201916128fc90614394565b80601f016020809104026020016040519081016040528092919081815260200182805461292890614394565b80156129755780601f1061294a57610100808354040283529160200191612975565b820191906000526020600020905b81548152906001019060200180831161295857829003601f168201915b5050509183525050600b82015460209091019060ff16600381111561299c5761299c613d52565b60038111156129ad576129ad613d52565b90525080519091506000036129ee576040517f54446f7100000000000000000000000000000000000000000000000000000000815260040160405180910390fd5b606081015160a08201516000858152600b6020908152604080832073ffffffffffffffffffffffffffffffffffffffff958616845282528083209490931682529290925281205460e083015160c0840151919291612a4b91612bcd565b91505081811115612a88576040517f1eb8e4e900000000000000000000000000000000000000000000000000000000815260040160405180910390fd5b6000612a948383613438565b606086015160a087015160008a8152600b6020908152604080832073ffffffffffffffffffffffffffffffffffffffff958616845282528083209490931682529290925290208190559150612ae69050565b6000858152600160205260409020600b0180547fffffffffffffffffffffffffffffffffffffffffffffffffffffffffffffff0016600317905560a08401516060850151612b4d9173ffffffffffffffffffffffffffffffffffffffff9091169084612654565b8360a0015173ffffffffffffffffffffffffffffffffffffffff16846060015173ffffffffffffffffffffffffffffffffffffffff167f53e8f7e8ed4fc8a54cbbe101fcbd61bb97ff9a45c719390450e60902744297018488604051612bbd929190918252602082015260400190565b60405180910390a3505050505050565b60008083830184811015612be8576000809250925050612bef565b6001925090505b9250929050565b83516000908152600b6020908152604080832073ffffffffffffffffffffffffffffffffffffffff8781168086529184528285209087168086529084528285205489518652600a85528386209286529184528285209085529092529091205480831115612c8f576040517f1eb8e4e900000000000000000000000000000000000000000000000000000000815260040160405180910390fd5b600080612c9c8486612bcd565b9150915081612cda576040517fc0d7d3cc0000000000000000000000000000000000000000000000000000000081526001600482015260240161069d565b600080612ce78588613438565b9150915081612d25576040517fc0d7d3cc0000000000000000000000000000000000000000000000000000000081526002600482015260240161069d565b89516000908152600a6020908152604080832073ffffffffffffffffffffffffffffffffffffffff8d8116808652918452828520908d168086529084528285208690558e518552600b8452828520918552908352818420818552835292819020869055518981527fc26e84de705d2bfd99e3fa9d482912f6918366d3bbde41683ecfbc118b40efbd910160405180910390a250505050505050505050565b815160009081526001602090815260408083206007015486845260058352818420606087015173ffffffffffffffffffffffffffffffffffffffff1685529092528220548291612e139190612bcd565b606086015186516000908152600160209081526040808320600501548b8452600a835281842073ffffffffffffffffffffffffffffffffffffffff95861685528352818420941683529290522054919350915082612ea0576040517fc0d7d3cc0000000000000000000000000000000000000000000000000000000081526003600482015260240161069d565b600086815260056020908152604080832060608901805173ffffffffffffffffffffffffffffffffffffffff908116865291845282852087905560c08a01518b865260048552838620915190921685529092528220548291612f029190612bcd565b9150915081612f3f576040517fc0d7d3cc00000000000000000000000000000000000000000000000000000000815260048181015260240161069d565b600080612f4c8589613438565b9150915081612f8a576040517fc0d7d3cc0000000000000000000000000000000000000000000000000000000081526005600482015260240161069d565b60008a815260046020908152604080832060608d01805173ffffffffffffffffffffffffffffffffffffffff90811686529184528285208890555160a08e01518f8652600a8552838620918316865290845282852091168452909152902081905561014089015189516000908152600160205260409020600a019061300f9082614502565b5088516000908152600160208190526040808320600b0180547fffffffffffffffffffffffffffffffffffffffffffffffffffffffffffffff001690921790915560808b01518b5183529120600401906130699082614502565b5050505050505050505050565b610a1d61345a565b61308661345a565b610a1d6134c1565b61309661345a565b611e0d816134c9565b60008183106130ae57816130b0565b825b9392505050565b6000806130c76020840184614273565b6040517f70a0823100000000000000000000000000000000000000000000000000000000815230600482015273ffffffffffffffffffffffffffffffffffffffff91909116906370a0823190602401602060405180830381865afa158015613133573d6000803e3d6000fd5b505050506040513d601f19601f82011682018060405250810190613157919061462e565b905061317e73ffffffffffffffffffffffffffffffffffffffff85168660208601356134d1565b600073ffffffffffffffffffffffffffffffffffffffff86166131a46060860186614647565b6040516131b29291906146ac565b6000604051808303816000865af19150503d80600081146131ef576040519150601f19603f3d011682016040523d82523d6000602084013e6131f4565b606091505b505090508061322f576040517fd0bbd5ad00000000000000000000000000000000000000000000000000000000815260040160405180910390fd5b61325173ffffffffffffffffffffffffffffffffffffffff8616876000613587565b60006132606020860186614273565b6040517f70a0823100000000000000000000000000000000000000000000000000000000815230600482015273ffffffffffffffffffffffffffffffffffffffff91909116906370a0823190602401602060405180830381865afa1580156132cc573d6000803e3d6000fd5b505050506040513d601f19601f820116820180604052508101906132f0919061462e565b90506132fc838261461b565b979650505050505050565b600080806133158486613690565b9150613323905081876136cd565b935061333190508484613438565b939793965092945050505050565b61334882613700565b60405173ffffffffffffffffffffffffffffffffffffffff8316907fbc7cd75a20ee27fd9adebab32041f755214dbc6bffa90cc0225b39da2e5c2d3b90600090a280511561339a576106ec82826137cf565b6109a1613852565b60006133c473ffffffffffffffffffffffffffffffffffffffff84168361388a565b905080516000141580156133e95750808060200190518101906133e791906146bc565b155b156106ec576040517f5274afe700000000000000000000000000000000000000000000000000000000815273ffffffffffffffffffffffffffffffffffffffff8416600482015260240161069d565b6000808383111561344e57506000905080612bef565b50600193919092039150565b7ff0c57e16840df040f15088dc2f81fe391c3923bec73e23a9662efc9c229c6a005468010000000000000000900460ff16610a1d576040517fd7e6bcf800000000000000000000000000000000000000000000000000000000815260040160405180910390fd5b61225661345a565b611db461345a565b6040517fdd62ed3e00000000000000000000000000000000000000000000000000000000815230600482015273ffffffffffffffffffffffffffffffffffffffff83811660248301526000919085169063dd62ed3e90604401602060405180830381865afa158015613547573d6000803e3d6000fd5b505050506040513d601f19601f8201168201806040525081019061356b919061462e565b9050613581848461357c85856144a1565b613898565b50505050565b6040517fdd62ed3e00000000000000000000000000000000000000000000000000000000815230600482015273ffffffffffffffffffffffffffffffffffffffff83811660248301526000919085169063dd62ed3e90604401602060405180830381865afa1580156135fd573d6000803e3d6000fd5b505050506040513d601f19601f82011682018060405250810190613621919061462e565b905081811015613683576040517fe570110f00000000000000000000000000000000000000000000000000000000815273ffffffffffffffffffffffffffffffffffffffff84166004820152602481018290526044810183905260640161069d565b6135818484848403613898565b600080836000036136a75750600190506000612bef565b838302838582816136ba576136ba6146de565b0414612be8576000809250925050612bef565b600080826000036136e357506000905080612bef565b60018385816136f4576136f46146de565b04915091509250929050565b8073ffffffffffffffffffffffffffffffffffffffff163b600003613769576040517f4c9c8ce300000000000000000000000000000000000000000000000000000000815273ffffffffffffffffffffffffffffffffffffffff8216600482015260240161069d565b7f360894a13ba1a3210667c828492db98dca3e2076cc3735a920a3ca505d382bbc80547fffffffffffffffffffffffff00000000000000000000000000000000000000001673ffffffffffffffffffffffffffffffffffffffff92909216919091179055565b60606000808473ffffffffffffffffffffffffffffffffffffffff16846040516137f9919061470d565b600060405180830381855af49150503d8060008114613834576040519150601f19603f3d011682016040523d82523d6000602084013e613839565b606091505b5091509150613849858383613970565b95945050505050565b3415610a1d576040517fb398979f00000000000000000000000000000000000000000000000000000000815260040160405180910390fd5b60606130b0838360006139ff565b6040805173ffffffffffffffffffffffffffffffffffffffff8416602482015260448082018490528251808303909101815260649091019091526020810180517bffffffffffffffffffffffffffffffffffffffffffffffffffffffff167f095ea7b3000000000000000000000000000000000000000000000000000000001790526139248482613ac2565b6135815760405173ffffffffffffffffffffffffffffffffffffffff84811660248301526000604483015261396691869182169063095ea7b39060640161268e565b61358184826133a2565b6060826139855761398082613b7f565b6130b0565b81511580156139a9575073ffffffffffffffffffffffffffffffffffffffff84163b155b156139f8576040517f9996b31500000000000000000000000000000000000000000000000000000000815273ffffffffffffffffffffffffffffffffffffffff8516600482015260240161069d565b5092915050565b606081471015613a3d576040517fcd78605900000000000000000000000000000000000000000000000000000000815230600482015260240161069d565b6000808573ffffffffffffffffffffffffffffffffffffffff168486604051613a66919061470d565b60006040518083038185875af1925050503d8060008114613aa3576040519150601f19603f3d011682016040523d82523d6000602084013e613aa8565b606091505b5091509150613ab8868383613970565b9695505050505050565b60008060008473ffffffffffffffffffffffffffffffffffffffff1684604051613aec919061470d565b6000604051808303816000865af19150503d8060008114613b29576040519150601f19603f3d011682016040523d82523d6000602084013e613b2e565b606091505b5091509150818015613b58575080511580613b58575080806020019051810190613b5891906146bc565b801561384957505050505073ffffffffffffffffffffffffffffffffffffffff163b151590565b805115613b8f5780518082602001fd5b6040517f1425ea4200000000000000000000000000000000000000000000000000000000815260040160405180910390fd5b6040518061018001604052806000815260200160608152602001600073ffffffffffffffffffffffffffffffffffffffff168152602001600073ffffffffffffffffffffffffffffffffffffffff16815260200160608152602001600073ffffffffffffffffffffffffffffffffffffffff168152602001600081526020016000815260200160008152602001600081526020016060815260200160006003811115613c6f57613c6f613d52565b905290565b600080600060608486031215613c8957600080fd5b8335925060208401359150604084013567ffffffffffffffff811115613cae57600080fd5b840160808187031215613cc057600080fd5b809150509250925092565b600060208284031215613cdd57600080fd5b5035919050565b60005b83811015613cff578181015183820152602001613ce7565b50506000910152565b60008151808452613d20816020860160208601613ce4565b601f017fffffffffffffffffffffffffffffffffffffffffffffffffffffffffffffffe0169290920160200192915050565b7f4e487b7100000000000000000000000000000000000000000000000000000000600052602160045260246000fd5b60048110613db8577f4e487b7100000000000000000000000000000000000000000000000000000000600052602160045260246000fd5b9052565b6020815281516020820152600060208301516101806040840152613de46101a0840182613d08565b90506040840151613e0d606085018273ffffffffffffffffffffffffffffffffffffffff169052565b50606084015173ffffffffffffffffffffffffffffffffffffffff811660808501525060808401517fffffffffffffffffffffffffffffffffffffffffffffffffffffffffffffffe08483030160a0850152613e698282613d08565b91505060a0840151613e9360c085018273ffffffffffffffffffffffffffffffffffffffff169052565b5060c084015160e084015260e08401516101008401526101008401516101208401526101208401516101408401526101408401517fffffffffffffffffffffffffffffffffffffffffffffffffffffffffffffffe084830301610160850152613efc8282613d08565b915050610160840151613f13610180850182613d81565b509392505050565b73ffffffffffffffffffffffffffffffffffffffff81168114611e0d57600080fd5b60008060408385031215613f5057600080fd5b8235613f5b81613f1b565b946020939093013593505050565b7f4e487b7100000000000000000000000000000000000000000000000000000000600052604160045260246000fd5b6040516080810167ffffffffffffffff81118282101715613fbb57613fbb613f69565b60405290565b60405160a0810167ffffffffffffffff81118282101715613fbb57613fbb613f69565b60008067ffffffffffffffff841115613fff57613fff613f69565b506040517fffffffffffffffffffffffffffffffffffffffffffffffffffffffffffffffe0601f85018116603f0116810181811067ffffffffffffffff8211171561404c5761404c613f69565b60405283815290508082840185101561406457600080fd5b83836020830137600060208583010152509392505050565b6000806040838503121561408f57600080fd5b823561409a81613f1b565b9150602083013567ffffffffffffffff8111156140b657600080fd5b8301601f810185136140c757600080fd5b6140d685823560208401613fe4565b9150509250929050565b600080604083850312156140f357600080fd5b82359150602083013561410581613f1b565b809150509250929050565b60008060006060848603121561412557600080fd5b833561413081613f1b565b9250602084013561414081613f1b565b929592945050506040919091013590565b6000806040838503121561416457600080fd5b50508035926020909101359150565b6020815260006130b06020830184613d08565b600082601f83011261419757600080fd5b6130b083833560208501613fe4565b600080604083850312156141b957600080fd5b82359150602083013567ffffffffffffffff8111156141d757600080fd5b8301608081860312156141e957600080fd5b6141f1613f98565b81358152602082013567ffffffffffffffff81111561420f57600080fd5b61421b87828501614186565b602083015250604082013567ffffffffffffffff81111561423b57600080fd5b61424787828501614186565b604083015250606082013591506004821061426157600080fd5b81606082015280925050509250929050565b60006020828403121561428557600080fd5b81356130b081613f1b565b6000806000606084860312156142a557600080fd5b83359250602084013567ffffffffffffffff8111156142c357600080fd5b840160a081870312156142d557600080fd5b6142dd613fc1565b81356142e881613f1b565b815260208281013590820152604082013567ffffffffffffffff81111561430e57600080fd5b61431a88828501614186565b604083015250606082013561432e81613f1b565b606082015260809182013591810191909152929592945050506040919091013590565b602080825282518282018190526000918401906040840190835b8181101561438957835183526020938401939092019160010161436b565b509095945050505050565b600181811c908216806143a857607f821691505b6020821081036143e1577f4e487b7100000000000000000000000000000000000000000000000000000000600052602260045260246000fd5b50919050565b60008082840360808112156143fb57600080fd5b606081121561440957600080fd5b506040516060810167ffffffffffffffff8111828210171561442d5761442d613f69565b60405283518152602084015161444281613f1b565b6020820152604084015161445581613f1b565b6040820152606084015190925061ffff8116811461410557600080fd5b7f4e487b7100000000000000000000000000000000000000000000000000000000600052601160045260246000fd5b80820180821115610a0557610a05614472565b601f8211156106ec57806000526020600020601f840160051c810160208510156144db5750805b601f840160051c820191505b818110156144fb57600081556001016144e7565b5050505050565b815167ffffffffffffffff81111561451c5761451c613f69565b6145308161452a8454614394565b846144b4565b6020601f821160018114614582576000831561454c5750848201515b7fffffffffffffffffffffffffffffffffffffffffffffffffffffffffffffffff600385901b1c1916600184901b1784556144fb565b6000848152602081207fffffffffffffffffffffffffffffffffffffffffffffffffffffffffffffffe08516915b828110156145d057878501518255602094850194600190920191016145b0565b508482101561460c57868401517fffffffffffffffffffffffffffffffffffffffffffffffffffffffffffffffff600387901b60f8161c191681555b50505050600190811b01905550565b81810381811115610a0557610a05614472565b60006020828403121561464057600080fd5b5051919050565b60008083357fffffffffffffffffffffffffffffffffffffffffffffffffffffffffffffffe184360301811261467c57600080fd5b83018035915067ffffffffffffffff82111561469757600080fd5b602001915036819003821315612bef57600080fd5b8183823760009101908152919050565b6000602082840312156146ce57600080fd5b815180151581146130b057600080fd5b7f4e487b7100000000000000000000000000000000000000000000000000000000600052601260045260246000fd5b6000825161471f818460208701613ce4565b919091019291505056fea2646970667358221220a32911cc609bb15863872097bad6c8d092a8fd23c77f5922d80936e7359366a164736f6c634300081c0033","linkReferences":{}},"methodIdentifiers":{"UPGRADE_INTERFACE_VERSION()":"ad3cb1cc","_fulfillableRegistry()":"0c4393b9","_fulfillmentIdCount()":"f5f2e793","_manager()":"f0329f6b","_router()":"edae876f","beneficiaryWithdraw(uint256,address)":"936a83e5","depositERC20(uint256,(address,uint256,string,address,uint256),uint256)":"ce30c9de","getERC20DepositsFor(address,address,uint256)":"c3dc058d","getERC20FeesFor(address,uint256)":"4efe6f34","getERC20RefundsFor(address,address,uint256)":"a9aa44b0","getReleaseablePools(uint256,address)":"66e11f57","initialize(address)":"c4d66de8","owner()":"8da5cb5b","proxiableUUID()":"52d1902d","record(uint256)":"2c16cd8a","recordsOf(address)":"e5b7e2b4","registerFulfillment(uint256,(uint256,string,string,uint8))":"b4b9bb7c","renounceOwnership()":"715018a6","setFulfillableRegistry(address)":"dbc85c5a","setManager(address)":"d0ebdbe7","setRouter(address)":"c0d78655","swapPoolsToStable(uint256,uint256,(address,uint256,address,bytes))":"1a016c8b","transferOwnership(address)":"f2fde38b","upgradeToAndCall(address,bytes)":"4f1ef286","withdrawAccumulatedFees(uint256,address)":"b726962e","withdrawERC20Refund(uint256,uint256)":"aa6694b1"},"id":2}