{"abi":[{"type":"constructor","inputs":[],"stateMutability":"nonpayable"},{"type":"function","name":"UPGRADE_INTERFACE_VERSION","inputs":[],"outputs":[{"name":"","type":"string","internalType":"string"}],"stateMutability":"view"},{"type":"function","name":"_fulfillableRegistry","inputs":[],"outputs":[{"name":"","type":"address","internalType":"address"}],"stateMutability":"view"},{"type":"function","name":"_manager","inputs":[],"outputs":[{"name":"","type":"address","internalType":"address"}],"stateMutability":"view"},{"type":"function","name":"_router","inputs":[],"outputs":[{"name":"","type":"address","internalType":"address"}],"stateMutability":"view"},{"type":"function","name":"beneficiaryWithdraw","inputs":[{"name":"serviceID","type":"uint256","internalType":"uint256"},{"name":"token","type":"address","internalType":"address"}],"outputs":[],"stateMutability":"nonpayable"},{"type":"function","name":"depositERC20","inputs":[{"name":"serviceID","type":"uint256","internalType":"uint256"},{"name":"fulfillmentRequest","type":"tuple","internalType":"struct ERC20FulFillmentRequest","components":[{"name":"payer","type":"address","internalType":"address"},{"name":"fiatAmount","type":"uint256","internalType":"uint256"},{"name":"serviceRef","type":"string","internalType":"string"},{"name":"token","type":"address","internalType":"address"},{"name":"tokenAmount","type":"uint256","internalType":"uint256"}]},{"name":"feeAmount","type":"uint256","internalType":"uint256"}],"outputs":[],"stateMutability":"nonpayable"},{"type":"function","name":"getERC20DepositsFor","inputs":[{"name":"token","type":"address","internalType":"address"},{"name":"payer","type":"address","internalType":"address"},{"name":"serviceID","type":"uint256","internalType":"uint256"}],"outputs":[{"name":"amount","type":"uint256","internalType":"uint256"}],"stateMutability":"view"},{"type":"function","name":"getERC20FeesFor","inputs":[{"name":"token","type":"address","internalType":"address"},{"name":"serviceID","type":"uint256","internalType":"uint256"}],"outputs":[{"name":"amount","type":"uint256","internalType":"uint256"}],"stateMutability":"view"},{"type":"function","name":"getERC20RefundsFor","inputs":[{"name":"token","type":"address","internalType":"address"},{"name":"refundee","type":"address","internalType":"address"},{"name":"serviceID","type":"uint256","internalType":"uint256"}],"outputs":[{"name":"amount","type":"uint256","internalType":"uint256"}],"stateMutability":"view"},{"type":"function","name":"initialize","inputs":[{"name":"initialOwner","type":"address","internalType":"address"}],"outputs":[],"stateMutability":"nonpayable"},{"type":"function","name":"owner","inputs":[],"outputs":[{"name":"","type":"address","internalType":"address"}],"stateMutability":"view"},{"type":"function","name":"proxiableUUID","inputs":[],"outputs":[{"name":"","type":"bytes32","internalType":"bytes32"}],"stateMutability":"view"},{"type":"function","name":"record","inputs":[{"name":"id","type":"uint256","internalType":"uint256"}],"outputs":[{"name":"","type":"tuple","internalType":"struct ERC20FulFillmentRecord","components":[{"name":"id","type":"uint256","internalType":"uint256"},{"name":"serviceRef","type":"string","internalType":"string"},{"name":"fulfiller","type":"address","internalType":"address"},{"name":"token","type":"address","internalType":"address"},{"name":"externalID","type":"string","internalType":"string"},{"name":"payer","type":"address","internalType":"address"},{"name":"tokenAmount","type":"uint256","internalType":"uint256"},{"name":"feeAmount","type":"uint256","internalType":"uint256"},{"name":"fiatAmount","type":"uint256","internalType":"uint256"},{"name":"entryTime","type":"uint256","internalType":"uint256"},{"name":"receiptURI","type":"string","internalType":"string"},{"name":"status","type":"uint8","internalType":"enum FulFillmentResultState"}]}],"stateMutability":"view"},{"type":"function","name":"recordsOf","inputs":[{"name":"payer","type":"address","internalType":"address"}],"outputs":[{"name":"","type":"uint256[]","internalType":"uint256[]"}],"stateMutability":"view"},{"type":"function","name":"registerFulfillment","inputs":[{"name":"serviceID","type":"uint256","internalType":"uint256"},{"name":"fulfillment","type":"tuple","internalType":"struct FulFillmentResult","components":[{"name":"id","type":"uint256","internalType":"uint256"},{"name":"externalID","type":"string","internalType":"string"},{"name":"receiptURI","type":"string","internalType":"string"},{"name":"status","type":"uint8","internalType":"enum FulFillmentResultState"}]}],"outputs":[{"name":"","type":"bool","internalType":"bool"}],"stateMutability":"nonpayable"},{"type":"function","name":"renounceOwnership","inputs":[],"outputs":[],"stateMutability":"nonpayable"},{"type":"function","name":"setFulfillableRegistry","inputs":[{"name":"fulfillableRegistry_","type":"address","internalType":"address"}],"outputs":[],"stateMutability":"nonpayable"},{"type":"function","name":"setManager","inputs":[{"name":"manager_","type":"address","internalType":"address"}],"outputs":[],"stateMutability":"nonpayable"},{"type":"function","name":"setRouter","inputs":[{"name":"router_","type":"address","internalType":"address"}],"outputs":[],"stateMutability":"nonpayable"},{"type":"function","name":"transferOwnership","inputs":[{"name":"newOwner","type":"address","internalType":"address"}],"outputs":[],"stateMutability":"nonpayable"},{"type":"function","name":"upgradeToAndCall","inputs":[{"name":"newImplementation","type":"address","internalType":"address"},{"name":"data","type":"bytes","internalType":"bytes"}],"outputs":[],"stateMutability":"payable"},{"type":"function","name":"withdrawAccumulatedFees","inputs":[{"name":"serviceId","type":"uint256","internalType":"uint256"},{"name":"token","type":"address","internalType":"address"}],"outputs":[],"stateMutability":"nonpayable"},{"type":"function","name":"withdrawERC20Refund","inputs":[{"name":"serviceID","type":"uint256","internalType":"uint256"},{"name":"token","type":"address","internalType":"address"},{"name":"refundee","type":"address","internalType":"address"}],"outputs":[{"name":"","type":"bool","internalType":"bool"}],"stateMutability":"nonpayable"},{"type":"event","name":"ERC20DepositReceived","inputs":[{"name":"record","type":"tuple","indexed":false,"internalType":"struct ERC20FulFillmentRecord","components":[{"name":"id","type":"uint256","internalType":"uint256"},{"name":"serviceRef","type":"string","internalType":"string"},{"name":"fulfiller","type":"address","internalType":"address"},{"name":"token","type":"address","internalType":"address"},{"name":"externalID","type":"string","internalType":"string"},{"name":"payer","type":"address","internalType":"address"},{"name":"tokenAmount","type":"uint256","internalType":"uint256"},{"name":"feeAmount","type":"uint256","internalType":"uint256"},{"name":"fiatAmount","type":"uint256","internalType":"uint256"},{"name":"entryTime","type":"uint256","internalType":"uint256"},{"name":"receiptURI","type":"string","internalType":"string"},{"name":"status","type":"uint8","internalType":"enum FulFillmentResultState"}]}],"anonymous":false},{"type":"event","name":"ERC20FeesWithdrawn","inputs":[{"name":"serviceId","type":"uint256","indexed":true,"internalType":"uint256"},{"name":"token","type":"address","indexed":true,"internalType":"address"},{"name":"beneficiary","type":"address","indexed":false,"internalType":"address"},{"name":"amount","type":"uint256","indexed":false,"internalType":"uint256"}],"anonymous":false},{"type":"event","name":"ERC20RefundAuthorized","inputs":[{"name":"payee","type":"address","indexed":true,"internalType":"address"},{"name":"weiAmount","type":"uint256","indexed":false,"internalType":"uint256"}],"anonymous":false},{"type":"event","name":"ERC20RefundWithdrawn","inputs":[{"name":"token","type":"address","indexed":false,"internalType":"address"},{"name":"payee","type":"address","indexed":true,"internalType":"address"},{"name":"weiAmount","type":"uint256","indexed":false,"internalType":"uint256"}],"anonymous":false},{"type":"event","name":"FulfillableRegistryUpdated","inputs":[{"name":"fulfillableRegistry","type":"address","indexed":true,"internalType":"address"}],"anonymous":false},{"type":"event","name":"Initialized","inputs":[{"name":"version","type":"uint64","indexed":false,"internalType":"uint64"}],"anonymous":false},{"type":"event","name":"ManagerUpdated","inputs":[{"name":"manager","type":"address","indexed":true,"internalType":"address"}],"anonymous":false},{"type":"event","name":"OwnershipTransferred","inputs":[{"name":"previousOwner","type":"address","indexed":true,"internalType":"address"},{"name":"newOwner","type":"address","indexed":true,"internalType":"address"}],"anonymous":false},{"type":"event","name":"RouterUpdated","inputs":[{"name":"router","type":"address","indexed":true,"internalType":"address"}],"anonymous":false},{"type":"event","name":"Upgraded","inputs":[{"name":"implementation","type":"address","indexed":true,"internalType":"address"}],"anonymous":false},{"type":"error","name":"AddressEmptyCode","inputs":[{"name":"target","type":"address","internalType":"address"}]},{"type":"error","name":"AddressInsufficientBalance","inputs":[{"name":"account","type":"address","internalType":"address"}]},{"type":"error","name":"ERC1967InvalidImplementation","inputs":[{"name":"implementation","type":"address","internalType":"address"}]},{"type":"error","name":"ERC1967NonPayable","inputs":[]},{"type":"error","name":"FailedInnerCall","inputs":[]},{"type":"error","name":"FulfillmentAlreadyRegistered","inputs":[]},{"type":"error","name":"FulfillmentRecordDoesNotExist","inputs":[]},{"type":"error","name":"InvalidAddress","inputs":[{"name":"addr","type":"address","internalType":"address"}]},{"type":"error","name":"InvalidInitialization","inputs":[]},{"type":"error","name":"NoBalanceToRelease","inputs":[]},{"type":"error","name":"NoFeesToWithdraw","inputs":[]},{"type":"error","name":"NoRefunds","inputs":[{"name":"refundee","type":"address","internalType":"address"}]},{"type":"error","name":"NotInitializing","inputs":[]},{"type":"error","name":"Overflow","inputs":[{"name":"reason","type":"uint8","internalType":"uint8"}]},{"type":"error","name":"OwnableInvalidOwner","inputs":[{"name":"owner","type":"address","internalType":"address"}]},{"type":"error","name":"OwnableUnauthorizedAccount","inputs":[{"name":"account","type":"address","internalType":"address"}]},{"type":"error","name":"ReentrancyGuardReentrantCall","inputs":[]},{"type":"error","name":"RefundsTooBig","inputs":[]},{"type":"error","name":"SafeERC20FailedOperation","inputs":[{"name":"token","type":"address","internalType":"address"}]},{"type":"error","name":"UUPSUnauthorizedCallContext","inputs":[]},{"type":"error","name":"UUPSUnsupportedProxiableUUID","inputs":[{"name":"slot","type":"bytes32","internalType":"bytes32"}]},{"type":"error","name":"UnsupportedFulfillmentStatus","inputs":[]}],"bytecode":{"object":"0x60a06040523060805234801561001457600080fd5b5061001d610022565b6100d4565b7ff0c57e16840df040f15088dc2f81fe391c3923bec73e23a9662efc9c229c6a00805468010000000000000000900460ff16156100725760405163f92ee8a960e01b815260040160405180910390fd5b80546001600160401b03908116146100d15780546001600160401b0319166001600160401b0390811782556040519081527fc7f505b2f371ae2175ee4913f4499e1f2633a7b5936321eed1cdaeb6115181d29060200160405180910390a15b50565b6080516137c86100fd60003960008181611f2501528181611f4e015261216a01526137c86000f3fe6080604052600436106101805760003560e01c8063b4b9bb7c116100d6578063d0ebdbe71161007f578063edae876f11610059578063edae876f14610555578063f0329f6b14610582578063f2fde38b146105af57600080fd5b8063d0ebdbe7146104e8578063dbc85c5a14610508578063e5b7e2b41461052857600080fd5b8063c3dc058d116100b0578063c3dc058d1461044e578063c4d66de8146104a8578063ce30c9de146104c857600080fd5b8063b4b9bb7c146103ee578063b726962e1461040e578063c0d786551461042e57600080fd5b806352d1902d11610138578063936a83e511610112578063936a83e51461031e578063a9aa44b01461033e578063ad3cb1cc1461039857600080fd5b806352d1902d146102aa578063715018a6146102bf5780638da5cb5b146102d457600080fd5b806348d20d161161016957806348d20d16146102095780634efe6f34146102395780634f1ef2861461029557600080fd5b80630c4393b9146101855780632c16cd8a146101dc575b600080fd5b34801561019157600080fd5b506006546101b29073ffffffffffffffffffffffffffffffffffffffff1681565b60405173ffffffffffffffffffffffffffffffffffffffff90911681526020015b60405180910390f35b3480156101e857600080fd5b506101fc6101f7366004612dd3565b6105cf565b6040516101d39190612ec4565b34801561021557600080fd5b50610229610224366004613045565b610864565b60405190151581526020016101d3565b34801561024557600080fd5b50610287610254366004613087565b600090815260056020908152604080832073ffffffffffffffffffffffffffffffffffffffff9094168352929052205490565b6040519081526020016101d3565b6102a86102a33660046131c6565b6109cf565b005b3480156102b657600080fd5b506102876109ee565b3480156102cb57600080fd5b506102a8610a1d565b3480156102e057600080fd5b507f9016d09d72d40fdae2fd8ceac6b6234c7706214fd39c1cd1e609a0528c1993005473ffffffffffffffffffffffffffffffffffffffff166101b2565b34801561032a57600080fd5b506102a861033936600461322a565b610a31565b34801561034a57600080fd5b5061028761035936600461325a565b6000908152600b6020908152604080832073ffffffffffffffffffffffffffffffffffffffff9586168452825280832093909416825291909152205490565b3480156103a457600080fd5b506103e16040518060400160405280600581526020017f352e302e3000000000000000000000000000000000000000000000000000000081525081565b6040516101d3919061329b565b3480156103fa57600080fd5b506102296104093660046132ce565b610bfe565b34801561041a57600080fd5b506102a861042936600461322a565b6111c8565b34801561043a57600080fd5b506102a861044936600461339b565b611408565b34801561045a57600080fd5b5061028761046936600461325a565b6000908152600a6020908152604080832073ffffffffffffffffffffffffffffffffffffffff9586168452825280832093909416825291909152205490565b3480156104b457600080fd5b506102a86104c336600461339b565b6114e4565b3480156104d457600080fd5b506102a86104e33660046133b8565b611679565b3480156104f457600080fd5b506102a861050336600461339b565b611b4c565b34801561051457600080fd5b506102a861052336600461339b565b611c28565b34801561053457600080fd5b5061054861054336600461339b565b611d10565b6040516101d39190613479565b34801561056157600080fd5b506009546101b29073ffffffffffffffffffffffffffffffffffffffff1681565b34801561058e57600080fd5b506008546101b29073ffffffffffffffffffffffffffffffffffffffff1681565b3480156105bb57600080fd5b506102a86105ca36600461339b565b611d89565b6105d7612d20565b6000828152600160208181526040928390208351610180810190945280548452918201805491840191610609906134bc565b80601f0160208091040260200160405190810160405280929190818152602001828054610635906134bc565b80156106825780601f1061065757610100808354040283529160200191610682565b820191906000526020600020905b81548152906001019060200180831161066557829003601f168201915b5050509183525050600282015473ffffffffffffffffffffffffffffffffffffffff908116602083015260038301541660408201526004820180546060909201916106cc906134bc565b80601f01602080910402602001604051908101604052809291908181526020018280546106f8906134bc565b80156107455780601f1061071a57610100808354040283529160200191610745565b820191906000526020600020905b81548152906001019060200180831161072857829003601f168201915b5050509183525050600582015473ffffffffffffffffffffffffffffffffffffffff166020820152600682015460408201526007820154606082015260088201546080820152600982015460a0820152600a8201805460c0909201916107aa906134bc565b80601f01602080910402602001604051908101604052809291908181526020018280546107d6906134bc565b80156108235780601f106107f857610100808354040283529160200191610823565b820191906000526020600020905b81548152906001019060200180831161080657829003601f168201915b5050509183525050600b82015460209091019060ff16600381111561084a5761084a612e5a565b600381111561085b5761085b612e5a565b90525092915050565b600061086e611ded565b60095473ffffffffffffffffffffffffffffffffffffffff1633146108c6576040517f8e4c8aa60000000000000000000000000000000000000000000000000000000081523360048201526024015b60405180910390fd5b6000848152600b6020908152604080832073ffffffffffffffffffffffffffffffffffffffff8781168552908352818420908616845290915281205490819003610954576040517fb4741e1a00000000000000000000000000000000000000000000000000000000815273ffffffffffffffffffffffffffffffffffffffff841660048201526024016108bd565b61095f848483611e6e565b50506000838152600b6020908152604080832073ffffffffffffffffffffffffffffffffffffffff8681168552908352818420908516845290915281205560016109c860017f9b779b17422d0df92223018b32b4d1fa46e071723d6817e2486d003becc55f0055565b9392505050565b6109d7611f0d565b6109e082612011565b6109ea8282612019565b5050565b60006109f8612152565b507f360894a13ba1a3210667c828492db98dca3e2076cc3735a920a3ca505d382bbc90565b610a256121c1565b610a2f600061224f565b565b610a39611ded565b60085473ffffffffffffffffffffffffffffffffffffffff163314610a8c576040517f8e4c8aa60000000000000000000000000000000000000000000000000000000081523360048201526024016108bd565b600082815260046020908152604080832073ffffffffffffffffffffffffffffffffffffffff851684529091528120549003610af4576040517f6e7e9ea500000000000000000000000000000000000000000000000000000000815260040160405180910390fd5b6007546040517fef0e239b0000000000000000000000000000000000000000000000000000000081526004810184905260009173ffffffffffffffffffffffffffffffffffffffff169063ef0e239b90602401608060405180830381865afa158015610b64573d6000803e3d6000fd5b505050506040513d601f19601f82011682018060405250810190610b88919061350f565b50600084815260046020908152604080832073ffffffffffffffffffffffffffffffffffffffff87168085529083529083208054939055908301519293509091610bd39190836122e5565b50506109ea60017f9b779b17422d0df92223018b32b4d1fa46e071723d6817e2486d003becc55f0055565b6000610c08611ded565b60085473ffffffffffffffffffffffffffffffffffffffff163314610c5b576040517f8e4c8aa60000000000000000000000000000000000000000000000000000000081523360048201526024016108bd565b81516000908152600160205260408120549003610ca4576040517f54446f7100000000000000000000000000000000000000000000000000000000815260040160405180910390fd5b600282516000908152600160205260409020600b015460ff166003811115610cce57610cce612e5a565b14610d05576040517fcdc7646400000000000000000000000000000000000000000000000000000000815260040160405180910390fd5b6007546040517fef0e239b0000000000000000000000000000000000000000000000000000000081526004810185905260009173ffffffffffffffffffffffffffffffffffffffff169063ef0e239b90602401608060405180830381865afa158015610d75573d6000803e3d6000fd5b505050506040513d601f19601f82011682018060405250810190610d99919061350f565b508351600090815260016020526040808220600301548651835281832060060154875184529183206007015493945073ffffffffffffffffffffffffffffffffffffffff1692909190610ded908390612372565b91506000905086606001516003811115610e0957610e09612e5a565b03610ea6578551600090815260016020526040902060050154610e46908590859073ffffffffffffffffffffffffffffffffffffffff168461239b565b606086015186516000908152600160208190526040909120600b01805490917fffffffffffffffffffffffffffffffffffffffffffffffffffffffffffffff0090911690836003811115610e9c57610e9c612e5a565b0217905550611191565b600186606001516003811115610ebe57610ebe612e5a565b14610ef5576040517f6e718ca000000000000000000000000000000000000000000000000000000000815260040160405180910390fd5b6111918760016000896000015181526020019081526020016000206040518061018001604052908160008201548152602001600182018054610f36906134bc565b80601f0160208091040260200160405190810160405280929190818152602001828054610f62906134bc565b8015610faf5780601f10610f8457610100808354040283529160200191610faf565b820191906000526020600020905b815481529060010190602001808311610f9257829003601f168201915b5050509183525050600282015473ffffffffffffffffffffffffffffffffffffffff90811660208301526003830154166040820152600482018054606090920191610ff9906134bc565b80601f0160208091040260200160405190810160405280929190818152602001828054611025906134bc565b80156110725780601f1061104757610100808354040283529160200191611072565b820191906000526020600020905b81548152906001019060200180831161105557829003601f168201915b5050509183525050600582015473ffffffffffffffffffffffffffffffffffffffff166020820152600682015460408201526007820154606082015260088201546080820152600982015460a0820152600a8201805460c0909201916110d7906134bc565b80601f0160208091040260200160405190810160405280929190818152602001828054611103906134bc565b80156111505780601f1061112557610100808354040283529160200191611150565b820191906000526020600020905b81548152906001019060200180831161113357829003601f168201915b5050509183525050600b82015460209091019060ff16600381111561117757611177612e5a565b600381111561118857611188612e5a565b90525083612586565b60019450505050506111c260017f9b779b17422d0df92223018b32b4d1fa46e071723d6817e2486d003becc55f0055565b92915050565b6111d0611ded565b60085473ffffffffffffffffffffffffffffffffffffffff163314611223576040517f8e4c8aa60000000000000000000000000000000000000000000000000000000081523360048201526024016108bd565b6007546040517fef0e239b0000000000000000000000000000000000000000000000000000000081526004810184905260009173ffffffffffffffffffffffffffffffffffffffff169063ef0e239b90602401608060405180830381865afa158015611293573d6000803e3d6000fd5b505050506040513d601f19601f820116820180604052508101906112b7919061350f565b50600084815260056020908152604080832073ffffffffffffffffffffffffffffffffffffffff87168452909152812054919250819003611324576040517f6806da6800000000000000000000000000000000000000000000000000000000815260040160405180910390fd5b600084815260056020908152604080832073ffffffffffffffffffffffffffffffffffffffff8716808552908352908320929092558301516113679190836122e5565b8273ffffffffffffffffffffffffffffffffffffffff16847fe3d4066ff5850a350375c03e4752870f2c3526e35f0e28508108f3b4ac13b0cd8460200151846040516113d592919073ffffffffffffffffffffffffffffffffffffffff929092168252602082015260400190565b60405180910390a350506109ea60017f9b779b17422d0df92223018b32b4d1fa46e071723d6817e2486d003becc55f0055565b6114106121c1565b73ffffffffffffffffffffffffffffffffffffffff8116611475576040517f8e4c8aa600000000000000000000000000000000000000000000000000000000815273ffffffffffffffffffffffffffffffffffffffff821660048201526024016108bd565b600980547fffffffffffffffffffffffff00000000000000000000000000000000000000001673ffffffffffffffffffffffffffffffffffffffff83169081179091556040517f7aed1d3e8155a07ccf395e44ea3109a0e2d6c9b29bbbe9f142d9790596f4dc8090600090a250565b7ff0c57e16840df040f15088dc2f81fe391c3923bec73e23a9662efc9c229c6a00805468010000000000000000810460ff16159067ffffffffffffffff1660008115801561152f5750825b905060008267ffffffffffffffff16600114801561154c5750303b155b90508115801561155a575080155b15611591576040517ff92ee8a900000000000000000000000000000000000000000000000000000000815260040160405180910390fd5b84547fffffffffffffffffffffffffffffffffffffffffffffffff000000000000000016600117855583156115f25784547fffffffffffffffffffffffffffffffffffffffffffffff00ffffffffffffffff16680100000000000000001785555b6115fa612839565b611602612841565b61160b86612851565b600160005583156116715784547fffffffffffffffffffffffffffffffffffffffffffffff00ffffffffffffffff168555604051600181527fc7f505b2f371ae2175ee4913f4499e1f2633a7b5936321eed1cdaeb6115181d29060200160405180910390a15b505050505050565b611681611ded565b60095473ffffffffffffffffffffffffffffffffffffffff1633146116d4576040517f8e4c8aa60000000000000000000000000000000000000000000000000000000081523360048201526024016108bd565b60808201516000906116e69083612372565b60608501516007546040517fef0e239b0000000000000000000000000000000000000000000000000000000081526004810189905292945090925060009173ffffffffffffffffffffffffffffffffffffffff9091169063ef0e239b90602401608060405180830381865afa158015611763573d6000803e3d6000fd5b505050506040513d601f19601f82011682018060405250810190611787919061350f565b5085516000888152600a6020908152604080832073ffffffffffffffffffffffffffffffffffffffff888116855290835281842094168352929052908120549192506117d38583612372565b885160008b8152600a6020908152604080832073ffffffffffffffffffffffffffffffffffffffff808c1685529083528184209416835292905220819055915061181a9050565b6000604051806101800160405280600054815260200189604001518152602001856040015173ffffffffffffffffffffffffffffffffffffffff168152602001896060015173ffffffffffffffffffffffffffffffffffffffff168152602001604051806020016040528060008152508152602001896000015173ffffffffffffffffffffffffffffffffffffffff1681526020018960800151815260200188815260200189602001518152602001428152602001604051806020016040528060008152508152602001600260038111156118f7576118f7612e5a565b8152509050600160008082825461190e919061359a565b92505081905550600160036000828254611928919061359a565b90915550508051600090815260016020818152604090922083518155918301518392918201906119589082613622565b50604082015160028201805473ffffffffffffffffffffffffffffffffffffffff9283167fffffffffffffffffffffffff0000000000000000000000000000000000000000918216179091556060840151600384018054919093169116179055608082015160048201906119cc9082613622565b5060a08201516005820180547fffffffffffffffffffffffff00000000000000000000000000000000000000001673ffffffffffffffffffffffffffffffffffffffff90921691909117905560c0820151600682015560e0820151600782015561010082015160088201556101208201516009820155610140820151600a820190611a579082613622565b50610160820151600b820180547fffffffffffffffffffffffffffffffffffffffffffffffffffffffffffffff00166001836003811115611a9a57611a9a612e5a565b0217905550505060a081015173ffffffffffffffffffffffffffffffffffffffff166000908152600260209081526040808320845181546001810183559185529290932090920155517ffe31e11aad0d4767904c798dd8326e02ff3f34ade391dc074800a8b71d34a7ec90611b10908390612ec4565b60405180910390a1505050505050611b4760017f9b779b17422d0df92223018b32b4d1fa46e071723d6817e2486d003becc55f0055565b505050565b611b546121c1565b73ffffffffffffffffffffffffffffffffffffffff8116611bb9576040517f8e4c8aa600000000000000000000000000000000000000000000000000000000815273ffffffffffffffffffffffffffffffffffffffff821660048201526024016108bd565b600880547fffffffffffffffffffffffff00000000000000000000000000000000000000001673ffffffffffffffffffffffffffffffffffffffff83169081179091556040517f2c1c11af44aa5608f1dca38c00275c30ea091e02417d36e70e9a1538689c433d90600090a250565b611c306121c1565b73ffffffffffffffffffffffffffffffffffffffff8116611c95576040517f8e4c8aa600000000000000000000000000000000000000000000000000000000815273ffffffffffffffffffffffffffffffffffffffff821660048201526024016108bd565b6006805473ffffffffffffffffffffffffffffffffffffffff83167fffffffffffffffffffffffff0000000000000000000000000000000000000000918216811790925560078054909116821790556040517f12fd82a8fae6400d0456d521504e56c94dd90726268fd158b0584ec682e1b5b190600090a250565b73ffffffffffffffffffffffffffffffffffffffff8116600090815260026020908152604091829020805483518184028101840190945280845260609392830182828015611d7d57602002820191906000526020600020905b815481526020019060010190808311611d69575b50505050509050919050565b611d916121c1565b73ffffffffffffffffffffffffffffffffffffffff8116611de1576040517f1e4fbdf7000000000000000000000000000000000000000000000000000000008152600060048201526024016108bd565b611dea8161224f565b50565b7f9b779b17422d0df92223018b32b4d1fa46e071723d6817e2486d003becc55f0080547ffffffffffffffffffffffffffffffffffffffffffffffffffffffffffffffffe01611e68576040517f3ee5aeb500000000000000000000000000000000000000000000000000000000815260040160405180910390fd5b60029055565b611e8f73ffffffffffffffffffffffffffffffffffffffff841683836122e5565b6040805173ffffffffffffffffffffffffffffffffffffffff8581168252602082018490528416917f4b0c3d1fc51b8d48eaf8e0c0a8554a1bdfa3ccd89dff5f774bb84d1d901bc30b910160405180910390a2505050565b60017f9b779b17422d0df92223018b32b4d1fa46e071723d6817e2486d003becc55f0055565b3073ffffffffffffffffffffffffffffffffffffffff7f0000000000000000000000000000000000000000000000000000000000000000161480611fda57507f000000000000000000000000000000000000000000000000000000000000000073ffffffffffffffffffffffffffffffffffffffff16611fc17f360894a13ba1a3210667c828492db98dca3e2076cc3735a920a3ca505d382bbc5473ffffffffffffffffffffffffffffffffffffffff1690565b73ffffffffffffffffffffffffffffffffffffffff1614155b15610a2f576040517fe07c8dba00000000000000000000000000000000000000000000000000000000815260040160405180910390fd5b611dea6121c1565b8173ffffffffffffffffffffffffffffffffffffffff166352d1902d6040518163ffffffff1660e01b8152600401602060405180830381865afa92505050801561209e575060408051601f3d9081017fffffffffffffffffffffffffffffffffffffffffffffffffffffffffffffffe016820190925261209b9181019061373b565b60015b6120ec576040517f4c9c8ce300000000000000000000000000000000000000000000000000000000815273ffffffffffffffffffffffffffffffffffffffff831660048201526024016108bd565b7f360894a13ba1a3210667c828492db98dca3e2076cc3735a920a3ca505d382bbc8114612148576040517faa1d49a4000000000000000000000000000000000000000000000000000000008152600481018290526024016108bd565b611b478383612862565b3073ffffffffffffffffffffffffffffffffffffffff7f00000000000000000000000000000000000000000000000000000000000000001614610a2f576040517fe07c8dba00000000000000000000000000000000000000000000000000000000815260040160405180910390fd5b336122007f9016d09d72d40fdae2fd8ceac6b6234c7706214fd39c1cd1e609a0528c1993005473ffffffffffffffffffffffffffffffffffffffff1690565b73ffffffffffffffffffffffffffffffffffffffff1614610a2f576040517f118cdaa70000000000000000000000000000000000000000000000000000000081523360048201526024016108bd565b7f9016d09d72d40fdae2fd8ceac6b6234c7706214fd39c1cd1e609a0528c19930080547fffffffffffffffffffffffff0000000000000000000000000000000000000000811673ffffffffffffffffffffffffffffffffffffffff848116918217845560405192169182907f8be0079c531659141344cd1fd0a4f28419497f9722a3daafe3b4186f6b6457e090600090a3505050565b6040805173ffffffffffffffffffffffffffffffffffffffff8416602482015260448082018490528251808303909101815260649091019091526020810180517bffffffffffffffffffffffffffffffffffffffffffffffffffffffff167fa9059cbb00000000000000000000000000000000000000000000000000000000179052611b479084906128c5565b6000808383018481101561238d576000809250925050612394565b6001925090505b9250929050565b83516000908152600b6020908152604080832073ffffffffffffffffffffffffffffffffffffffff8088168552908352818420908616845290915281205481906123e59084612372565b87516000908152600a6020908152604080832073ffffffffffffffffffffffffffffffffffffffff8b81168552908352818420908a168452909152902054919350915082612462576040517fc0d7d3cc000000000000000000000000000000000000000000000000000000008152600160048201526024016108bd565b818082101561249d576040517f1eb8e4e900000000000000000000000000000000000000000000000000000000815260040160405180910390fd5b6000806124aa848861295b565b91509150816124e8576040517fc0d7d3cc000000000000000000000000000000000000000000000000000000008152600260048201526024016108bd565b89516000908152600a6020908152604080832073ffffffffffffffffffffffffffffffffffffffff8d8116808652918452828520908d168086529084528285208690558e518552600b8452828520918552908352818420818552835292819020869055518981527fc26e84de705d2bfd99e3fa9d482912f6918366d3bbde41683ecfbc118b40efbd910160405180910390a250505050505050505050565b815160009081526001602090815260408083206007015486845260058352818420606087015173ffffffffffffffffffffffffffffffffffffffff16855290925282205482916125d69190612372565b606086015186516000908152600160209081526040808320600501548b8452600a835281842073ffffffffffffffffffffffffffffffffffffffff95861685528352818420941683529290522054919350915082612663576040517fc0d7d3cc000000000000000000000000000000000000000000000000000000008152600360048201526024016108bd565b600086815260056020908152604080832060608901805173ffffffffffffffffffffffffffffffffffffffff908116865291845282852087905560c08a01518b8652600485528386209151909216855290925282205482916126c59190612372565b9150915081612702576040517fc0d7d3cc0000000000000000000000000000000000000000000000000000000081526004818101526024016108bd565b60008061270f858961295b565b915091508161274d576040517fc0d7d3cc000000000000000000000000000000000000000000000000000000008152600560048201526024016108bd565b60008a815260046020908152604080832060608d01805173ffffffffffffffffffffffffffffffffffffffff90811686529184528285208890555160a08e01518f8652600a8552838620918316865290845282852091168452909152902081905561014089015189516000908152600160205260409020600a01906127d29082613622565b5088516000908152600160208190526040808320600b0180547fffffffffffffffffffffffffffffffffffffffffffffffffffffffffffffff001690921790915560808b01518b51835291206004019061282c9082613622565b5050505050505050505050565b610a2f61297d565b61284961297d565b610a2f6129e4565b61285961297d565b611dea816129ec565b61286b826129f4565b60405173ffffffffffffffffffffffffffffffffffffffff8316907fbc7cd75a20ee27fd9adebab32041f755214dbc6bffa90cc0225b39da2e5c2d3b90600090a28051156128bd57611b478282612ac3565b6109ea612b46565b60006128e773ffffffffffffffffffffffffffffffffffffffff841683612b7e565b9050805160001415801561290c57508080602001905181019061290a9190613754565b155b15611b47576040517f5274afe700000000000000000000000000000000000000000000000000000000815273ffffffffffffffffffffffffffffffffffffffff841660048201526024016108bd565b6000808383111561297157506000905080612394565b50600193919092039150565b7ff0c57e16840df040f15088dc2f81fe391c3923bec73e23a9662efc9c229c6a005468010000000000000000900460ff16610a2f576040517fd7e6bcf800000000000000000000000000000000000000000000000000000000815260040160405180910390fd5b611ee761297d565b611d9161297d565b8073ffffffffffffffffffffffffffffffffffffffff163b600003612a5d576040517f4c9c8ce300000000000000000000000000000000000000000000000000000000815273ffffffffffffffffffffffffffffffffffffffff821660048201526024016108bd565b7f360894a13ba1a3210667c828492db98dca3e2076cc3735a920a3ca505d382bbc80547fffffffffffffffffffffffff00000000000000000000000000000000000000001673ffffffffffffffffffffffffffffffffffffffff92909216919091179055565b60606000808473ffffffffffffffffffffffffffffffffffffffff1684604051612aed9190613776565b600060405180830381855af49150503d8060008114612b28576040519150601f19603f3d011682016040523d82523d6000602084013e612b2d565b606091505b5091509150612b3d858383612b8c565b95945050505050565b3415610a2f576040517fb398979f00000000000000000000000000000000000000000000000000000000815260040160405180910390fd5b60606109c883836000612c1b565b606082612ba157612b9c82612cde565b6109c8565b8151158015612bc5575073ffffffffffffffffffffffffffffffffffffffff84163b155b15612c14576040517f9996b31500000000000000000000000000000000000000000000000000000000815273ffffffffffffffffffffffffffffffffffffffff851660048201526024016108bd565b50806109c8565b606081471015612c59576040517fcd7860590000000000000000000000000000000000000000000000000000000081523060048201526024016108bd565b6000808573ffffffffffffffffffffffffffffffffffffffff168486604051612c829190613776565b60006040518083038185875af1925050503d8060008114612cbf576040519150601f19603f3d011682016040523d82523d6000602084013e612cc4565b606091505b5091509150612cd4868383612b8c565b9695505050505050565b805115612cee5780518082602001fd5b6040517f1425ea4200000000000000000000000000000000000000000000000000000000815260040160405180910390fd5b6040518061018001604052806000815260200160608152602001600073ffffffffffffffffffffffffffffffffffffffff168152602001600073ffffffffffffffffffffffffffffffffffffffff16815260200160608152602001600073ffffffffffffffffffffffffffffffffffffffff168152602001600081526020016000815260200160008152602001600081526020016060815260200160006003811115612dce57612dce612e5a565b905290565b600060208284031215612de557600080fd5b5035919050565b60005b83811015612e07578181015183820152602001612def565b50506000910152565b60008151808452612e28816020860160208601612dec565b601f017fffffffffffffffffffffffffffffffffffffffffffffffffffffffffffffffe0169290920160200192915050565b7f4e487b7100000000000000000000000000000000000000000000000000000000600052602160045260246000fd5b60048110612ec0577f4e487b7100000000000000000000000000000000000000000000000000000000600052602160045260246000fd5b9052565b6020815281516020820152600060208301516101806040840152612eec6101a0840182612e10565b90506040840151612f15606085018273ffffffffffffffffffffffffffffffffffffffff169052565b50606084015173ffffffffffffffffffffffffffffffffffffffff811660808501525060808401517fffffffffffffffffffffffffffffffffffffffffffffffffffffffffffffffe08483030160a0850152612f718282612e10565b91505060a0840151612f9b60c085018273ffffffffffffffffffffffffffffffffffffffff169052565b5060c084015160e084015260e08401516101008401526101008401516101208401526101208401516101408401526101408401517fffffffffffffffffffffffffffffffffffffffffffffffffffffffffffffffe0848303016101608501526130048282612e10565b91505061016084015161301b610180850182612e89565b509392505050565b73ffffffffffffffffffffffffffffffffffffffff81168114611dea57600080fd5b60008060006060848603121561305a57600080fd5b83359250602084013561306c81613023565b9150604084013561307c81613023565b809150509250925092565b6000806040838503121561309a57600080fd5b82356130a581613023565b946020939093013593505050565b7f4e487b7100000000000000000000000000000000000000000000000000000000600052604160045260246000fd5b6040516080810167ffffffffffffffff81118282101715613105576131056130b3565b60405290565b60405160a0810167ffffffffffffffff81118282101715613105576131056130b3565b60008067ffffffffffffffff841115613149576131496130b3565b506040517fffffffffffffffffffffffffffffffffffffffffffffffffffffffffffffffe0601f85018116603f0116810181811067ffffffffffffffff82111715613196576131966130b3565b6040528381529050808284018510156131ae57600080fd5b83836020830137600060208583010152509392505050565b600080604083850312156131d957600080fd5b82356131e481613023565b9150602083013567ffffffffffffffff81111561320057600080fd5b8301601f8101851361321157600080fd5b6132208582356020840161312e565b9150509250929050565b6000806040838503121561323d57600080fd5b82359150602083013561324f81613023565b809150509250929050565b60008060006060848603121561326f57600080fd5b833561327a81613023565b9250602084013561328a81613023565b929592945050506040919091013590565b6020815260006109c86020830184612e10565b600082601f8301126132bf57600080fd5b6109c88383356020850161312e565b600080604083850312156132e157600080fd5b82359150602083013567ffffffffffffffff8111156132ff57600080fd5b83016080818603121561331157600080fd5b6133196130e2565b81358152602082013567ffffffffffffffff81111561333757600080fd5b613343878285016132ae565b602083015250604082013567ffffffffffffffff81111561336357600080fd5b61336f878285016132ae565b604083015250606082013591506004821061338957600080fd5b81606082015280925050509250929050565b6000602082840312156133ad57600080fd5b81356109c881613023565b6000806000606084860312156133cd57600080fd5b83359250602084013567ffffffffffffffff8111156133eb57600080fd5b840160a081870312156133fd57600080fd5b61340561310b565b813561341081613023565b815260208281013590820152604082013567ffffffffffffffff81111561343657600080fd5b613442888285016132ae565b604083015250606082013561345681613023565b606082015260809182013591810191909152929592945050506040919091013590565b602080825282518282018190526000918401906040840190835b818110156134b1578351835260209384019390920191600101613493565b509095945050505050565b600181811c908216806134d057607f821691505b602082108103613509577f4e487b7100000000000000000000000000000000000000000000000000000000600052602260045260246000fd5b50919050565b600080828403608081121561352357600080fd5b606081121561353157600080fd5b506040516060810167ffffffffffffffff81118282101715613555576135556130b3565b60405283518152602084015161356a81613023565b6020820152604084015161357d81613023565b6040820152606084015190925061ffff8116811461324f57600080fd5b808201808211156111c2577f4e487b7100000000000000000000000000000000000000000000000000000000600052601160045260246000fd5b601f821115611b4757806000526020600020601f840160051c810160208510156135fb5750805b601f840160051c820191505b8181101561361b5760008155600101613607565b5050505050565b815167ffffffffffffffff81111561363c5761363c6130b3565b6136508161364a84546134bc565b846135d4565b6020601f8211600181146136a2576000831561366c5750848201515b7fffffffffffffffffffffffffffffffffffffffffffffffffffffffffffffffff600385901b1c1916600184901b17845561361b565b6000848152602081207fffffffffffffffffffffffffffffffffffffffffffffffffffffffffffffffe08516915b828110156136f057878501518255602094850194600190920191016136d0565b508482101561372c57868401517fffffffffffffffffffffffffffffffffffffffffffffffffffffffffffffffff600387901b60f8161c191681555b50505050600190811b01905550565b60006020828403121561374d57600080fd5b5051919050565b60006020828403121561376657600080fd5b815180151581146109c857600080fd5b60008251613788818460208701612dec565b919091019291505056fea2646970667358221220e85696c6b9296d8ab8502d6f463d1c6c5d8d0c62b20ca32ac587916a2f6d14f864736f6c634300081c0033","linkReferences":{}},"methodIdentifiers":{"UPGRADE_INTERFACE_VERSION()":"ad3cb1cc","_fulfillableRegistry()":"0c4393b9","_manager()":"f0329f6b","_router()":"edae876f","beneficiaryWithdraw(uint256,address)":"936a83e5","depositERC20(uint256,(address,uint256,string,address,uint256),uint256)":"ce30c9de","getERC20DepositsFor(address,address,uint256)":"c3dc058d","getERC20FeesFor(address,uint256)":"4efe6f34","getERC20RefundsFor(address,address,uint256)":"a9aa44b0","initialize(address)":"c4d66de8","owner()":"8da5cb5b","proxiableUUID()":"52d1902d","record(uint256)":"2c16cd8a","recordsOf(address)":"e5b7e2b4","registerFulfillment(uint256,(uint256,string,string,uint8))":"b4b9bb7c","renounceOwnership()":"715018a6","setFulfillableRegistry(address)":"dbc85c5a","setManager(address)":"d0ebdbe7","setRouter(address)":"c0d78655","transferOwnership(address)":"f2fde38b","upgradeToAndCall(address,bytes)":"4f1ef286","withdrawAccumulatedFees(uint256,address)":"b726962e","withdrawERC20Refund(uint256,address,address)":"48d20d16"},"id":0}