{"abi":[{"type":"constructor","inputs":[],"stateMutability":"nonpayable"},{"type":"function","name":"UPGRADE_INTERFACE_VERSION","inputs":[],"outputs":[{"name":"","type":"string","internalType":"string"}],"stateMutability":"view"},{"type":"function","name":"_accumulatedFees","inputs":[{"name":"","type":"uint256","internalType":"uint256"}],"outputs":[{"name":"","type":"uint256","internalType":"uint256"}],"stateMutability":"view"},{"type":"function","name":"_authorized_refunds","inputs":[{"name":"","type":"uint256","internalType":"uint256"},{"name":"","type":"address","internalType":"address"}],"outputs":[{"name":"","type":"uint256","internalType":"uint256"}],"stateMutability":"view"},{"type":"function","name":"_deposits","inputs":[{"name":"","type":"uint256","internalType":"uint256"},{"name":"","type":"address","internalType":"address"}],"outputs":[{"name":"","type":"uint256","internalType":"uint256"}],"stateMutability":"view"},{"type":"function","name":"_fulfillableRegistry","inputs":[],"outputs":[{"name":"","type":"address","internalType":"address"}],"stateMutability":"view"},{"type":"function","name":"_manager","inputs":[],"outputs":[{"name":"","type":"address","internalType":"address"}],"stateMutability":"view"},{"type":"function","name":"_releaseablePool","inputs":[{"name":"","type":"uint256","internalType":"uint256"}],"outputs":[{"name":"","type":"uint256","internalType":"uint256"}],"stateMutability":"view"},{"type":"function","name":"_router","inputs":[],"outputs":[{"name":"","type":"address","internalType":"address"}],"stateMutability":"view"},{"type":"function","name":"beneficiaryWithdraw","inputs":[{"name":"serviceID","type":"uint256","internalType":"uint256"}],"outputs":[],"stateMutability":"nonpayable"},{"type":"function","name":"deposit","inputs":[{"name":"serviceID","type":"uint256","internalType":"uint256"},{"name":"fulfillmentRequest","type":"tuple","internalType":"struct FulFillmentRequest","components":[{"name":"payer","type":"address","internalType":"address"},{"name":"weiAmount","type":"uint256","internalType":"uint256"},{"name":"fiatAmount","type":"uint256","internalType":"uint256"},{"name":"serviceRef","type":"string","internalType":"string"}]},{"name":"feeAmount","type":"uint256","internalType":"uint256"}],"outputs":[],"stateMutability":"payable"},{"type":"function","name":"getDepositsFor","inputs":[{"name":"payer","type":"address","internalType":"address"},{"name":"serviceID","type":"uint256","internalType":"uint256"}],"outputs":[{"name":"amount","type":"uint256","internalType":"uint256"}],"stateMutability":"view"},{"type":"function","name":"getNativeFeesFor","inputs":[{"name":"serviceId","type":"uint256","internalType":"uint256"}],"outputs":[{"name":"amount","type":"uint256","internalType":"uint256"}],"stateMutability":"view"},{"type":"function","name":"getRefundsFor","inputs":[{"name":"payer","type":"address","internalType":"address"},{"name":"serviceID","type":"uint256","internalType":"uint256"}],"outputs":[{"name":"amount","type":"uint256","internalType":"uint256"}],"stateMutability":"view"},{"type":"function","name":"initialize","inputs":[{"name":"initialOwner","type":"address","internalType":"address"}],"outputs":[],"stateMutability":"nonpayable"},{"type":"function","name":"owner","inputs":[],"outputs":[{"name":"","type":"address","internalType":"address"}],"stateMutability":"view"},{"type":"function","name":"proxiableUUID","inputs":[],"outputs":[{"name":"","type":"bytes32","internalType":"bytes32"}],"stateMutability":"view"},{"type":"function","name":"record","inputs":[{"name":"id","type":"uint256","internalType":"uint256"}],"outputs":[{"name":"","type":"tuple","internalType":"struct FulFillmentRecord","components":[{"name":"id","type":"uint256","internalType":"uint256"},{"name":"serviceRef","type":"string","internalType":"string"},{"name":"fulfiller","type":"address","internalType":"address"},{"name":"externalID","type":"string","internalType":"string"},{"name":"payer","type":"address","internalType":"address"},{"name":"weiAmount","type":"uint256","internalType":"uint256"},{"name":"feeAmount","type":"uint256","internalType":"uint256"},{"name":"fiatAmount","type":"uint256","internalType":"uint256"},{"name":"entryTime","type":"uint256","internalType":"uint256"},{"name":"receiptURI","type":"string","internalType":"string"},{"name":"status","type":"uint8","internalType":"enum FulFillmentResultState"}]}],"stateMutability":"view"},{"type":"function","name":"recordsOf","inputs":[{"name":"payer","type":"address","internalType":"address"}],"outputs":[{"name":"","type":"uint256[]","internalType":"uint256[]"}],"stateMutability":"view"},{"type":"function","name":"registerFulfillment","inputs":[{"name":"serviceID","type":"uint256","internalType":"uint256"},{"name":"fulfillment","type":"tuple","internalType":"struct FulFillmentResult","components":[{"name":"id","type":"uint256","internalType":"uint256"},{"name":"externalID","type":"string","internalType":"string"},{"name":"receiptURI","type":"string","internalType":"string"},{"name":"status","type":"uint8","internalType":"enum FulFillmentResultState"}]}],"outputs":[{"name":"","type":"bool","internalType":"bool"}],"stateMutability":"nonpayable"},{"type":"function","name":"renounceOwnership","inputs":[],"outputs":[],"stateMutability":"nonpayable"},{"type":"function","name":"setFulfillableRegistry","inputs":[{"name":"fulfillableRegistry_","type":"address","internalType":"address"}],"outputs":[],"stateMutability":"nonpayable"},{"type":"function","name":"setManager","inputs":[{"name":"manager_","type":"address","internalType":"address"}],"outputs":[],"stateMutability":"nonpayable"},{"type":"function","name":"setRouter","inputs":[{"name":"router_","type":"address","internalType":"address"}],"outputs":[],"stateMutability":"nonpayable"},{"type":"function","name":"transferOwnership","inputs":[{"name":"newOwner","type":"address","internalType":"address"}],"outputs":[],"stateMutability":"nonpayable"},{"type":"function","name":"upgradeToAndCall","inputs":[{"name":"newImplementation","type":"address","internalType":"address"},{"name":"data","type":"bytes","internalType":"bytes"}],"outputs":[],"stateMutability":"payable"},{"type":"function","name":"withdrawAccumulatedFees","inputs":[{"name":"serviceId","type":"uint256","internalType":"uint256"}],"outputs":[],"stateMutability":"nonpayable"},{"type":"function","name":"withdrawRefund","inputs":[{"name":"serviceID","type":"uint256","internalType":"uint256"},{"name":"refundee","type":"address","internalType":"address payable"}],"outputs":[{"name":"","type":"bool","internalType":"bool"}],"stateMutability":"nonpayable"},{"type":"event","name":"DepositReceived","inputs":[{"name":"record","type":"tuple","indexed":false,"internalType":"struct FulFillmentRecord","components":[{"name":"id","type":"uint256","internalType":"uint256"},{"name":"serviceRef","type":"string","internalType":"string"},{"name":"fulfiller","type":"address","internalType":"address"},{"name":"externalID","type":"string","internalType":"string"},{"name":"payer","type":"address","internalType":"address"},{"name":"weiAmount","type":"uint256","internalType":"uint256"},{"name":"feeAmount","type":"uint256","internalType":"uint256"},{"name":"fiatAmount","type":"uint256","internalType":"uint256"},{"name":"entryTime","type":"uint256","internalType":"uint256"},{"name":"receiptURI","type":"string","internalType":"string"},{"name":"status","type":"uint8","internalType":"enum FulFillmentResultState"}]}],"anonymous":false},{"type":"event","name":"FeeUpdated","inputs":[{"name":"serviceID","type":"uint256","indexed":false,"internalType":"uint256"},{"name":"amount","type":"uint256","indexed":false,"internalType":"uint256"}],"anonymous":false},{"type":"event","name":"FeesWithdrawn","inputs":[{"name":"serviceId","type":"uint256","indexed":true,"internalType":"uint256"},{"name":"beneficiary","type":"address","indexed":false,"internalType":"address"},{"name":"amount","type":"uint256","indexed":false,"internalType":"uint256"}],"anonymous":false},{"type":"event","name":"FulfillableRegistryUpdated","inputs":[{"name":"fulfillableRegistry","type":"address","indexed":true,"internalType":"address"}],"anonymous":false},{"type":"event","name":"Initialized","inputs":[{"name":"version","type":"uint64","indexed":false,"internalType":"uint64"}],"anonymous":false},{"type":"event","name":"ManagerUpdated","inputs":[{"name":"manager","type":"address","indexed":true,"internalType":"address"}],"anonymous":false},{"type":"event","name":"OwnershipTransferred","inputs":[{"name":"previousOwner","type":"address","indexed":true,"internalType":"address"},{"name":"newOwner","type":"address","indexed":true,"internalType":"address"}],"anonymous":false},{"type":"event","name":"RefundAuthorized","inputs":[{"name":"payee","type":"address","indexed":true,"internalType":"address"},{"name":"weiAmount","type":"uint256","indexed":false,"internalType":"uint256"}],"anonymous":false},{"type":"event","name":"RefundWithdrawn","inputs":[{"name":"payee","type":"address","indexed":true,"internalType":"address"},{"name":"weiAmount","type":"uint256","indexed":false,"internalType":"uint256"}],"anonymous":false},{"type":"event","name":"RouterUpdated","inputs":[{"name":"router","type":"address","indexed":true,"internalType":"address"}],"anonymous":false},{"type":"event","name":"Upgraded","inputs":[{"name":"implementation","type":"address","indexed":true,"internalType":"address"}],"anonymous":false},{"type":"error","name":"AddressEmptyCode","inputs":[{"name":"target","type":"address","internalType":"address"}]},{"type":"error","name":"AddressInsufficientBalance","inputs":[{"name":"account","type":"address","internalType":"address"}]},{"type":"error","name":"ERC1967InvalidImplementation","inputs":[{"name":"implementation","type":"address","internalType":"address"}]},{"type":"error","name":"ERC1967NonPayable","inputs":[]},{"type":"error","name":"FailedInnerCall","inputs":[]},{"type":"error","name":"FulfillmentAlreadyRegistered","inputs":[]},{"type":"error","name":"FulfillmentRecordDoesNotExist","inputs":[]},{"type":"error","name":"InvalidAddress","inputs":[{"name":"address_","type":"address","internalType":"address"}]},{"type":"error","name":"InvalidInitialization","inputs":[]},{"type":"error","name":"InvalidManager","inputs":[{"name":"manager","type":"address","internalType":"address"}]},{"type":"error","name":"InvalidRouter","inputs":[{"name":"router_","type":"address","internalType":"address"}]},{"type":"error","name":"NoBalanceToRelease","inputs":[]},{"type":"error","name":"NoFeesToWithdraw","inputs":[]},{"type":"error","name":"NoRefunds","inputs":[{"name":"refundee","type":"address","internalType":"address"},{"name":"serviceID","type":"uint256","internalType":"uint256"}]},{"type":"error","name":"NotInitializing","inputs":[]},{"type":"error","name":"Overflow","inputs":[{"name":"reason","type":"uint8","internalType":"uint8"}]},{"type":"error","name":"OwnableInvalidOwner","inputs":[{"name":"owner","type":"address","internalType":"address"}]},{"type":"error","name":"OwnableUnauthorizedAccount","inputs":[{"name":"account","type":"address","internalType":"address"}]},{"type":"error","name":"ReentrancyGuardReentrantCall","inputs":[]},{"type":"error","name":"RefundsTooBig","inputs":[]},{"type":"error","name":"UUPSUnauthorizedCallContext","inputs":[]},{"type":"error","name":"UUPSUnsupportedProxiableUUID","inputs":[{"name":"slot","type":"bytes32","internalType":"bytes32"}]},{"type":"error","name":"UnsupportedStatus","inputs":[{"name":"status","type":"uint8","internalType":"enum FulFillmentResultState"}]}],"bytecode":{"object":"0x60a06040523060805234801561001457600080fd5b5061001d610022565b6100d4565b7ff0c57e16840df040f15088dc2f81fe391c3923bec73e23a9662efc9c229c6a00805468010000000000000000900460ff16156100725760405163f92ee8a960e01b815260040160405180910390fd5b80546001600160401b03908116146100d15780546001600160401b0319166001600160401b0390811782556040519081527fc7f505b2f371ae2175ee4913f4499e1f2633a7b5936321eed1cdaeb6115181d29060200160405180910390a15b50565b6080516130e86100fd60003960008181611d7401528181611d9d0152611fb901526130e86000f3fe6080604052600436106101ac5760003560e01c8063b4b9bb7c116100ec578063dbc85c5a1161008a578063e5b7e2b411610064578063e5b7e2b4146105d8578063edae876f14610605578063f0329f6b14610632578063f2fde38b1461065f57600080fd5b8063dbc85c5a14610553578063e428c80214610573578063e53025ed146105ab57600080fd5b8063c4d66de8116100c6578063c4d66de8146104a5578063cebae810146104c5578063d0ebdbe7146104e5578063d4b59fed1461050557600080fd5b8063b4b9bb7c14610445578063b7aeb6ef14610465578063c0d786551461048557600080fd5b8063596e250d11610159578063857e57f611610133578063857e57f61461034b5780638da5cb5b14610378578063ad3cb1cc146103c2578063ae4d49ba1461041857600080fd5b8063596e250d146102eb5780636928c27114610323578063715018a61461033657600080fd5b80634248d5b81161018a5780634248d5b8146102915780634f1ef286146102c157806352d1902d146102d657600080fd5b80630b28a076146101b15780630c4393b9146102125780632c16cd8a14610264575b600080fd5b3480156101bd57600080fd5b506101ff6101cc366004612808565b6000908152600b6020908152604080832073ffffffffffffffffffffffffffffffffffffffff9094168352929052205490565b6040519081526020015b60405180910390f35b34801561021e57600080fd5b5060065461023f9073ffffffffffffffffffffffffffffffffffffffff1681565b60405173ffffffffffffffffffffffffffffffffffffffff9091168152602001610209565b34801561027057600080fd5b5061028461027f366004612834565b61067f565b6040516102099190612925565b34801561029d57600080fd5b506102b16102ac366004612a60565b610907565b6040519015158152602001610209565b6102d46102cf366004612b80565b610a60565b005b3480156102e257600080fd5b506101ff610a7f565b3480156102f757600080fd5b506101ff610306366004612a60565b600b60209081526000928352604080842090915290825290205481565b6102d4610331366004612c04565b610aae565b34801561034257600080fd5b506102d4610f07565b34801561035757600080fd5b506101ff610366366004612834565b60009081526009602052604090205490565b34801561038457600080fd5b507f9016d09d72d40fdae2fd8ceac6b6234c7706214fd39c1cd1e609a0528c1993005473ffffffffffffffffffffffffffffffffffffffff1661023f565b3480156103ce57600080fd5b5061040b6040518060400160405280600581526020017f352e302e3000000000000000000000000000000000000000000000000000000081525081565b6040516102099190612cb0565b34801561042457600080fd5b506101ff610433366004612834565b60086020526000908152604090205481565b34801561045157600080fd5b506102b1610460366004612cc3565b610f1b565b34801561047157600080fd5b506102d4610480366004612834565b61139f565b34801561049157600080fd5b506102d46104a0366004612d90565b611596565b3480156104b157600080fd5b506102d46104c0366004612d90565b611672565b3480156104d157600080fd5b506102d46104e0366004612834565b611807565b3480156104f157600080fd5b506102d4610500366004612d90565b6119a3565b34801561051157600080fd5b506101ff610520366004612808565b6000908152600a6020908152604080832073ffffffffffffffffffffffffffffffffffffffff9094168352929052205490565b34801561055f57600080fd5b506102d461056e366004612d90565b611a7f565b34801561057f57600080fd5b506101ff61058e366004612a60565b600a60209081526000928352604080842090915290825290205481565b3480156105b757600080fd5b506101ff6105c6366004612834565b60096020526000908152604090205481565b3480156105e457600080fd5b506105f86105f3366004612d90565b611b67565b6040516102099190612dad565b34801561061157600080fd5b5060055461023f9073ffffffffffffffffffffffffffffffffffffffff1681565b34801561063e57600080fd5b5060045461023f9073ffffffffffffffffffffffffffffffffffffffff1681565b34801561066b57600080fd5b506102d461067a366004612d90565b611be0565b610687612750565b60008281526001602081815260409283902083516101608101909452805484529182018054918401916106b990612df0565b80601f01602080910402602001604051908101604052809291908181526020018280546106e590612df0565b80156107325780601f1061070757610100808354040283529160200191610732565b820191906000526020600020905b81548152906001019060200180831161071557829003601f168201915b5050509183525050600282015473ffffffffffffffffffffffffffffffffffffffff16602082015260038201805460409092019161076f90612df0565b80601f016020809104026020016040519081016040528092919081815260200182805461079b90612df0565b80156107e85780601f106107bd576101008083540402835291602001916107e8565b820191906000526020600020905b8154815290600101906020018083116107cb57829003601f168201915b5050509183525050600482015473ffffffffffffffffffffffffffffffffffffffff166020820152600582015460408201526006820154606082015260078201546080820152600882015460a082015260098201805460c09092019161084d90612df0565b80601f016020809104026020016040519081016040528092919081815260200182805461087990612df0565b80156108c65780601f1061089b576101008083540402835291602001916108c6565b820191906000526020600020905b8154815290600101906020018083116108a957829003601f168201915b5050509183525050600a82015460209091019060ff1660028111156108ed576108ed6128bb565b60028111156108fe576108fe6128bb565b90525092915050565b6000610911611c41565b60055473ffffffffffffffffffffffffffffffffffffffff163314610969576040517fd7f733340000000000000000000000000000000000000000000000000000000081523360048201526024015b60405180910390fd5b6000838152600b6020908152604080832073ffffffffffffffffffffffffffffffffffffffff86168452909152812054908190036109f2576040517fd89b7b0400000000000000000000000000000000000000000000000000000000815273ffffffffffffffffffffffffffffffffffffffff8416600482015260248101859052604401610960565b6000848152600b6020908152604080832073ffffffffffffffffffffffffffffffffffffffff87168452909152812055610a2c8382611cc2565b6001915050610a5a60017f9b779b17422d0df92223018b32b4d1fa46e071723d6817e2486d003becc55f0055565b92915050565b610a68611d5c565b610a7182611e60565b610a7b8282611e68565b5050565b6000610a89611fa1565b507f360894a13ba1a3210667c828492db98dca3e2076cc3735a920a3ca505d382bbc90565b610ab6611c41565b60055473ffffffffffffffffffffffffffffffffffffffff163314610b09576040517fd7f73334000000000000000000000000000000000000000000000000000000008152336004820152602401610960565b6007546040517fef0e239b0000000000000000000000000000000000000000000000000000000081526004810185905260009173ffffffffffffffffffffffffffffffffffffffff169063ef0e239b90602401608060405180830381865afa158015610b79573d6000803e3d6000fd5b505050506040513d601f19601f82011682018060405250810190610b9d9190612e43565b5083516000868152600a6020908152604080832073ffffffffffffffffffffffffffffffffffffffff90941683529290529081205491925034919080610be38484612010565b9150915081610c21576040517fc0d7d3cc00000000000000000000000000000000000000000000000000000000815260066004820152602401610960565b86516000898152600a6020908152604080832073ffffffffffffffffffffffffffffffffffffffff94851684528252808320859055805161016081018252835481526060808d0151828501528a83015186168284015282518085018452858152908201528b519094166080850152818b015160a085015260c084018a9052808b015160e08501524261010085015280519182019052818152610120830152906101408101600281525090506001600080828254610cde9190612ece565b92505081905550600160036000828254610cf89190612ece565b9091555050805160009081526001602081815260409092208351815591830151839291820190610d289082612f56565b5060408201516002820180547fffffffffffffffffffffffff00000000000000000000000000000000000000001673ffffffffffffffffffffffffffffffffffffffff90921691909117905560608201516003820190610d889082612f56565b5060808201516004820180547fffffffffffffffffffffffff00000000000000000000000000000000000000001673ffffffffffffffffffffffffffffffffffffffff90921691909117905560a0820151600582015560c0820151600682015560e0820151600782015561010082015160088201556101208201516009820190610e129082612f56565b50610140820151600a820180547fffffffffffffffffffffffffffffffffffffffffffffffffffffffffffffff00166001836002811115610e5557610e556128bb565b02179055505050608081015173ffffffffffffffffffffffffffffffffffffffff166000908152600260209081526040808320845181546001810183559185529290932090920155517f600d16f62674ed495bf7267a98a253325b6f464cbc486bf1b9a66e101551e4e590610ecb908390612925565b60405180910390a1505050505050610f0260017f9b779b17422d0df92223018b32b4d1fa46e071723d6817e2486d003becc55f0055565b505050565b610f0f612039565b610f1960006120c7565b565b6000610f25611c41565b60045473ffffffffffffffffffffffffffffffffffffffff163314610f78576040517f294f8a17000000000000000000000000000000000000000000000000000000008152336004820152602401610960565b81516000908152600160205260408120549003610fc1576040517f54446f7100000000000000000000000000000000000000000000000000000000815260040160405180910390fd5b600282516000908152600160205260409020600a015460ff166002811115610feb57610feb6128bb565b14611022576040517fcdc7646400000000000000000000000000000000000000000000000000000000815260040160405180910390fd5b8151600090815260016020818152604080842060040154878552600a835281852073ffffffffffffffffffffffffffffffffffffffff9091168086529083528185205487518652939092528084206005015486518552908420600601549193909161108e908390612010565b915060009050866060015160028111156110aa576110aa6128bb565b0361111a576110ba87858361215d565b606086015186516000908152600160208190526040909120600a01805490917fffffffffffffffffffffffffffffffffffffffffffffffffffffffffffffff0090911690836002811115611110576111106128bb565b021790555061136e565b600186606001516002811115611132576111326128bb565b1461116f5785606001516040517fab8cc2a8000000000000000000000000000000000000000000000000000000008152600401610960919061306f565b85516000908152600160209081526040808320600601548a84526009909252822054829161119d9190612010565b91509150816111db576040517fc0d7d3cc00000000000000000000000000000000000000000000000000000000815260036004820152602401610960565b6000898152600960209081526040808320849055600890915281205481906112039087612010565b9150915081611240576040517fc0d7d3cc000000000000000000000000000000000000000000000000000000008152600481810152602401610960565b60008061124d89886122f7565b915091508161128b576040517fc0d7d3cc00000000000000000000000000000000000000000000000000000000815260056004820152602401610960565b60008d8152600860209081526040808320869055600a825280832073ffffffffffffffffffffffffffffffffffffffff8e16845282528083208490558e8101518f5184526001909252909120600901906112e59082612f56565b5060608c01518c516000908152600160208190526040909120600a01805490917fffffffffffffffffffffffffffffffffffffffffffffffffffffffffffffff009091169083600281111561133c5761133c6128bb565b02179055506020808d01518d51600090815260019092526040909120600301906113669082612f56565b505050505050505b6001945050505050610a5a60017f9b779b17422d0df92223018b32b4d1fa46e071723d6817e2486d003becc55f0055565b6113a7611c41565b60045473ffffffffffffffffffffffffffffffffffffffff1633146113fa576040517f294f8a17000000000000000000000000000000000000000000000000000000008152336004820152602401610960565b6007546040517fef0e239b0000000000000000000000000000000000000000000000000000000081526004810183905260009173ffffffffffffffffffffffffffffffffffffffff169063ef0e239b90602401608060405180830381865afa15801561146a573d6000803e3d6000fd5b505050506040513d601f19601f8201168201806040525081019061148e9190612e43565b506000838152600960205260408120549192508190036114da576040517f6806da6800000000000000000000000000000000000000000000000000000000815260040160405180910390fd5b60008381526009602090815260408220919091558201516115119073ffffffffffffffffffffffffffffffffffffffff1682612319565b6020808301516040805173ffffffffffffffffffffffffffffffffffffffff909216825291810183905284917f538e1189c5c6413ddd9194fe5e947ef693ea737bd368a9e0aca4c286854c9bd8910160405180910390a2505061159360017f9b779b17422d0df92223018b32b4d1fa46e071723d6817e2486d003becc55f0055565b50565b61159e612039565b73ffffffffffffffffffffffffffffffffffffffff8116611603576040517f8e4c8aa600000000000000000000000000000000000000000000000000000000815273ffffffffffffffffffffffffffffffffffffffff82166004820152602401610960565b600580547fffffffffffffffffffffffff00000000000000000000000000000000000000001673ffffffffffffffffffffffffffffffffffffffff83169081179091556040517f7aed1d3e8155a07ccf395e44ea3109a0e2d6c9b29bbbe9f142d9790596f4dc8090600090a250565b7ff0c57e16840df040f15088dc2f81fe391c3923bec73e23a9662efc9c229c6a00805468010000000000000000810460ff16159067ffffffffffffffff166000811580156116bd5750825b905060008267ffffffffffffffff1660011480156116da5750303b155b9050811580156116e8575080155b1561171f576040517ff92ee8a900000000000000000000000000000000000000000000000000000000815260040160405180910390fd5b84547fffffffffffffffffffffffffffffffffffffffffffffffff000000000000000016600117855583156117805784547fffffffffffffffffffffffffffffffffffffffffffffff00ffffffffffffffff16680100000000000000001785555b6117886123ef565b6117906123f7565b61179986612407565b600160005583156117ff5784547fffffffffffffffffffffffffffffffffffffffffffffff00ffffffffffffffff168555604051600181527fc7f505b2f371ae2175ee4913f4499e1f2633a7b5936321eed1cdaeb6115181d29060200160405180910390a15b505050505050565b61180f611c41565b60045473ffffffffffffffffffffffffffffffffffffffff163314611862576040517f294f8a17000000000000000000000000000000000000000000000000000000008152336004820152602401610960565b6007546040517fef0e239b0000000000000000000000000000000000000000000000000000000081526004810183905260009173ffffffffffffffffffffffffffffffffffffffff169063ef0e239b90602401608060405180830381865afa1580156118d2573d6000803e3d6000fd5b505050506040513d601f19601f820116820180604052508101906118f69190612e43565b5060008381526008602052604081205491925003611940576040517f6e7e9ea500000000000000000000000000000000000000000000000000000000815260040160405180910390fd5b6000828152600860209081526040822080549290558201516119789073ffffffffffffffffffffffffffffffffffffffff1682612319565b505061159360017f9b779b17422d0df92223018b32b4d1fa46e071723d6817e2486d003becc55f0055565b6119ab612039565b73ffffffffffffffffffffffffffffffffffffffff8116611a10576040517f8e4c8aa600000000000000000000000000000000000000000000000000000000815273ffffffffffffffffffffffffffffffffffffffff82166004820152602401610960565b600480547fffffffffffffffffffffffff00000000000000000000000000000000000000001673ffffffffffffffffffffffffffffffffffffffff83169081179091556040517f2c1c11af44aa5608f1dca38c00275c30ea091e02417d36e70e9a1538689c433d90600090a250565b611a87612039565b73ffffffffffffffffffffffffffffffffffffffff8116611aec576040517f8e4c8aa600000000000000000000000000000000000000000000000000000000815273ffffffffffffffffffffffffffffffffffffffff82166004820152602401610960565b6006805473ffffffffffffffffffffffffffffffffffffffff83167fffffffffffffffffffffffff0000000000000000000000000000000000000000918216811790925560078054909116821790556040517f12fd82a8fae6400d0456d521504e56c94dd90726268fd158b0584ec682e1b5b190600090a250565b73ffffffffffffffffffffffffffffffffffffffff8116600090815260026020908152604091829020805483518184028101840190945280845260609392830182828015611bd457602002820191906000526020600020905b815481526020019060010190808311611bc0575b50505050509050919050565b611be8612039565b73ffffffffffffffffffffffffffffffffffffffff8116611c38576040517f1e4fbdf700000000000000000000000000000000000000000000000000000000815260006004820152602401610960565b611593816120c7565b7f9b779b17422d0df92223018b32b4d1fa46e071723d6817e2486d003becc55f0080547ffffffffffffffffffffffffffffffffffffffffffffffffffffffffffffffffe01611cbc576040517f3ee5aeb500000000000000000000000000000000000000000000000000000000815260040160405180910390fd5b60029055565b611ce273ffffffffffffffffffffffffffffffffffffffff831682612319565b8173ffffffffffffffffffffffffffffffffffffffff167f3d97f39b86d061200a7834082f5926e58ec10fd85a9d6930f497729d5e6cc35c82604051611d2a91815260200190565b60405180910390a25050565b60017f9b779b17422d0df92223018b32b4d1fa46e071723d6817e2486d003becc55f0055565b3073ffffffffffffffffffffffffffffffffffffffff7f0000000000000000000000000000000000000000000000000000000000000000161480611e2957507f000000000000000000000000000000000000000000000000000000000000000073ffffffffffffffffffffffffffffffffffffffff16611e107f360894a13ba1a3210667c828492db98dca3e2076cc3735a920a3ca505d382bbc5473ffffffffffffffffffffffffffffffffffffffff1690565b73ffffffffffffffffffffffffffffffffffffffff1614155b15610f19576040517fe07c8dba00000000000000000000000000000000000000000000000000000000815260040160405180910390fd5b611593612039565b8173ffffffffffffffffffffffffffffffffffffffff166352d1902d6040518163ffffffff1660e01b8152600401602060405180830381865afa925050508015611eed575060408051601f3d9081017fffffffffffffffffffffffffffffffffffffffffffffffffffffffffffffffe0168201909252611eea9181019061307d565b60015b611f3b576040517f4c9c8ce300000000000000000000000000000000000000000000000000000000815273ffffffffffffffffffffffffffffffffffffffff83166004820152602401610960565b7f360894a13ba1a3210667c828492db98dca3e2076cc3735a920a3ca505d382bbc8114611f97576040517faa1d49a400000000000000000000000000000000000000000000000000000000815260048101829052602401610960565b610f028383612418565b3073ffffffffffffffffffffffffffffffffffffffff7f00000000000000000000000000000000000000000000000000000000000000001614610f19576040517fe07c8dba00000000000000000000000000000000000000000000000000000000815260040160405180910390fd5b6000808383018481101561202b576000809250925050612032565b6001925090505b9250929050565b336120787f9016d09d72d40fdae2fd8ceac6b6234c7706214fd39c1cd1e609a0528c1993005473ffffffffffffffffffffffffffffffffffffffff1690565b73ffffffffffffffffffffffffffffffffffffffff1614610f19576040517f118cdaa7000000000000000000000000000000000000000000000000000000008152336004820152602401610960565b7f9016d09d72d40fdae2fd8ceac6b6234c7706214fd39c1cd1e609a0528c19930080547fffffffffffffffffffffffff0000000000000000000000000000000000000000811673ffffffffffffffffffffffffffffffffffffffff848116918217845560405192169182907f8be0079c531659141344cd1fd0a4f28419497f9722a3daafe3b4186f6b6457e090600090a3505050565b6000838152600b6020908152604080832073ffffffffffffffffffffffffffffffffffffffff861680855290835281842054878552600a845282852091855292528220549091806121ae8486612010565b91509150816121ec576040517fc0d7d3cc00000000000000000000000000000000000000000000000000000000815260016004820152602401610960565b8080841015612227576040517f1eb8e4e900000000000000000000000000000000000000000000000000000000815260040160405180910390fd5b60008061223486896122f7565b9150915081612272576040517fc0d7d3cc00000000000000000000000000000000000000000000000000000000815260026004820152602401610960565b60008a8152600a6020908152604080832073ffffffffffffffffffffffffffffffffffffffff8d168085529083528184208590558d8452600b8352818420818552835292819020869055518a81527f7fd36617a06b55977ffa06f8dc94b5ec0650c2b7b353fa22c7d0f211284dc749910160405180910390a250505050505050505050565b6000808383111561230d57506000905080612032565b50600193919092039150565b80471015612355576040517fcd786059000000000000000000000000000000000000000000000000000000008152306004820152602401610960565b60008273ffffffffffffffffffffffffffffffffffffffff168260405160006040518083038185875af1925050503d80600081146123af576040519150601f19603f3d011682016040523d82523d6000602084013e6123b4565b606091505b5050905080610f02576040517f1425ea4200000000000000000000000000000000000000000000000000000000815260040160405180910390fd5b610f1961247b565b6123ff61247b565b610f196124e2565b61240f61247b565b611593816124ea565b612421826124f2565b60405173ffffffffffffffffffffffffffffffffffffffff8316907fbc7cd75a20ee27fd9adebab32041f755214dbc6bffa90cc0225b39da2e5c2d3b90600090a280511561247357610f0282826125c1565b610a7b612644565b7ff0c57e16840df040f15088dc2f81fe391c3923bec73e23a9662efc9c229c6a005468010000000000000000900460ff16610f19576040517fd7e6bcf800000000000000000000000000000000000000000000000000000000815260040160405180910390fd5b611d3661247b565b611be861247b565b8073ffffffffffffffffffffffffffffffffffffffff163b60000361255b576040517f4c9c8ce300000000000000000000000000000000000000000000000000000000815273ffffffffffffffffffffffffffffffffffffffff82166004820152602401610960565b7f360894a13ba1a3210667c828492db98dca3e2076cc3735a920a3ca505d382bbc80547fffffffffffffffffffffffff00000000000000000000000000000000000000001673ffffffffffffffffffffffffffffffffffffffff92909216919091179055565b60606000808473ffffffffffffffffffffffffffffffffffffffff16846040516125eb9190613096565b600060405180830381855af49150503d8060008114612626576040519150601f19603f3d011682016040523d82523d6000602084013e61262b565b606091505b509150915061263b85838361267c565b95945050505050565b3415610f19576040517fb398979f00000000000000000000000000000000000000000000000000000000815260040160405180910390fd5b6060826126915761268c8261270e565b612707565b81511580156126b5575073ffffffffffffffffffffffffffffffffffffffff84163b155b15612704576040517f9996b31500000000000000000000000000000000000000000000000000000000815273ffffffffffffffffffffffffffffffffffffffff85166004820152602401610960565b50805b9392505050565b80511561271e5780518082602001fd5b6040517f1425ea4200000000000000000000000000000000000000000000000000000000815260040160405180910390fd5b6040518061016001604052806000815260200160608152602001600073ffffffffffffffffffffffffffffffffffffffff16815260200160608152602001600073ffffffffffffffffffffffffffffffffffffffff1681526020016000815260200160008152602001600081526020016000815260200160608152602001600060028111156127e1576127e16128bb565b905290565b73ffffffffffffffffffffffffffffffffffffffff8116811461159357600080fd5b6000806040838503121561281b57600080fd5b8235612826816127e6565b946020939093013593505050565b60006020828403121561284657600080fd5b5035919050565b60005b83811015612868578181015183820152602001612850565b50506000910152565b6000815180845261288981602086016020860161284d565b601f017fffffffffffffffffffffffffffffffffffffffffffffffffffffffffffffffe0169290920160200192915050565b7f4e487b7100000000000000000000000000000000000000000000000000000000600052602160045260246000fd5b60038110612921577f4e487b7100000000000000000000000000000000000000000000000000000000600052602160045260246000fd5b9052565b602081528151602082015260006020830151610160604084015261294d610180840182612871565b90506040840151612976606085018273ffffffffffffffffffffffffffffffffffffffff169052565b5060608401517fffffffffffffffffffffffffffffffffffffffffffffffffffffffffffffffe08483030160808501526129b08282612871565b91505060808401516129da60a085018273ffffffffffffffffffffffffffffffffffffffff169052565b5060a084015160c084015260c084015160e084015260e08401516101008401526101008401516101208401526101208401517fffffffffffffffffffffffffffffffffffffffffffffffffffffffffffffffe084830301610140850152612a418282612871565b915050610140840151612a586101608501826128ea565b509392505050565b60008060408385031215612a7357600080fd5b823591506020830135612a85816127e6565b809150509250929050565b7f4e487b7100000000000000000000000000000000000000000000000000000000600052604160045260246000fd5b6040516080810167ffffffffffffffff81118282101715612ae257612ae2612a90565b60405290565b60008067ffffffffffffffff841115612b0357612b03612a90565b506040517fffffffffffffffffffffffffffffffffffffffffffffffffffffffffffffffe0601f85018116603f0116810181811067ffffffffffffffff82111715612b5057612b50612a90565b604052838152905080828401851015612b6857600080fd5b83836020830137600060208583010152509392505050565b60008060408385031215612b9357600080fd5b8235612b9e816127e6565b9150602083013567ffffffffffffffff811115612bba57600080fd5b8301601f81018513612bcb57600080fd5b612bda85823560208401612ae8565b9150509250929050565b600082601f830112612bf557600080fd5b61270783833560208501612ae8565b600080600060608486031215612c1957600080fd5b83359250602084013567ffffffffffffffff811115612c3757600080fd5b840160808187031215612c4957600080fd5b612c51612abf565b8135612c5c816127e6565b81526020828101359082015260408083013590820152606082013567ffffffffffffffff811115612c8c57600080fd5b612c9888828501612be4565b60608301525093969395505050506040919091013590565b6020815260006127076020830184612871565b60008060408385031215612cd657600080fd5b82359150602083013567ffffffffffffffff811115612cf457600080fd5b830160808186031215612d0657600080fd5b612d0e612abf565b81358152602082013567ffffffffffffffff811115612d2c57600080fd5b612d3887828501612be4565b602083015250604082013567ffffffffffffffff811115612d5857600080fd5b612d6487828501612be4565b6040830152506060820135915060038210612d7e57600080fd5b81606082015280925050509250929050565b600060208284031215612da257600080fd5b8135612707816127e6565b602080825282518282018190526000918401906040840190835b81811015612de5578351835260209384019390920191600101612dc7565b509095945050505050565b600181811c90821680612e0457607f821691505b602082108103612e3d577f4e487b7100000000000000000000000000000000000000000000000000000000600052602260045260246000fd5b50919050565b6000808284036080811215612e5757600080fd5b6060811215612e6557600080fd5b506040516060810167ffffffffffffffff81118282101715612e8957612e89612a90565b604052835181526020840151612e9e816127e6565b60208201526040840151612eb1816127e6565b6040820152606084015190925061ffff81168114612a8557600080fd5b80820180821115610a5a577f4e487b7100000000000000000000000000000000000000000000000000000000600052601160045260246000fd5b601f821115610f0257806000526020600020601f840160051c81016020851015612f2f5750805b601f840160051c820191505b81811015612f4f5760008155600101612f3b565b5050505050565b815167ffffffffffffffff811115612f7057612f70612a90565b612f8481612f7e8454612df0565b84612f08565b6020601f821160018114612fd65760008315612fa05750848201515b7fffffffffffffffffffffffffffffffffffffffffffffffffffffffffffffffff600385901b1c1916600184901b178455612f4f565b6000848152602081207fffffffffffffffffffffffffffffffffffffffffffffffffffffffffffffffe08516915b828110156130245787850151825560209485019460019092019101613004565b508482101561306057868401517fffffffffffffffffffffffffffffffffffffffffffffffffffffffffffffffff600387901b60f8161c191681555b50505050600190811b01905550565b60208101610a5a82846128ea565b60006020828403121561308f57600080fd5b5051919050565b600082516130a881846020870161284d565b919091019291505056fea2646970667358221220a81d5e73a89541a54a1971847732530cd08f63d762d9ba11d085c97c7fefcdde64736f6c634300081c0033","linkReferences":{}},"methodIdentifiers":{"UPGRADE_INTERFACE_VERSION()":"ad3cb1cc","_accumulatedFees(uint256)":"e53025ed","_authorized_refunds(uint256,address)":"596e250d","_deposits(uint256,address)":"e428c802","_fulfillableRegistry()":"0c4393b9","_manager()":"f0329f6b","_releaseablePool(uint256)":"ae4d49ba","_router()":"edae876f","beneficiaryWithdraw(uint256)":"cebae810","deposit(uint256,(address,uint256,uint256,string),uint256)":"6928c271","getDepositsFor(address,uint256)":"d4b59fed","getNativeFeesFor(uint256)":"857e57f6","getRefundsFor(address,uint256)":"0b28a076","initialize(address)":"c4d66de8","owner()":"8da5cb5b","proxiableUUID()":"52d1902d","record(uint256)":"2c16cd8a","recordsOf(address)":"e5b7e2b4","registerFulfillment(uint256,(uint256,string,string,uint8))":"b4b9bb7c","renounceOwnership()":"715018a6","setFulfillableRegistry(address)":"dbc85c5a","setManager(address)":"d0ebdbe7","setRouter(address)":"c0d78655","transferOwnership(address)":"f2fde38b","upgradeToAndCall(address,bytes)":"4f1ef286","withdrawAccumulatedFees(uint256)":"b7aeb6ef","withdrawRefund(uint256,address)":"4248d5b8"},"id":1}