{"abi":[{"type":"constructor","inputs":[],"stateMutability":"nonpayable"},{"type":"function","name":"UPGRADE_INTERFACE_VERSION","inputs":[],"outputs":[{"name":"","type":"string","internalType":"string"}],"stateMutability":"view"},{"type":"function","name":"_erc20Escrow","inputs":[],"outputs":[{"name":"","type":"address","internalType":"address payable"}],"stateMutability":"view"},{"type":"function","name":"_escrow","inputs":[],"outputs":[{"name":"","type":"address","internalType":"address payable"}],"stateMutability":"view"},{"type":"function","name":"_fulfillableRegistry","inputs":[],"outputs":[{"name":"","type":"address","internalType":"address"}],"stateMutability":"view"},{"type":"function","name":"_tokenRegistry","inputs":[],"outputs":[{"name":"","type":"address","internalType":"address"}],"stateMutability":"view"},{"type":"function","name":"initialize","inputs":[{"name":"initialOwner","type":"address","internalType":"address"}],"outputs":[],"stateMutability":"nonpayable"},{"type":"function","name":"owner","inputs":[],"outputs":[{"name":"","type":"address","internalType":"address"}],"stateMutability":"view"},{"type":"function","name":"pause","inputs":[],"outputs":[],"stateMutability":"nonpayable"},{"type":"function","name":"paused","inputs":[],"outputs":[{"name":"","type":"bool","internalType":"bool"}],"stateMutability":"view"},{"type":"function","name":"proxiableUUID","inputs":[],"outputs":[{"name":"","type":"bytes32","internalType":"bytes32"}],"stateMutability":"view"},{"type":"function","name":"renounceOwnership","inputs":[],"outputs":[],"stateMutability":"nonpayable"},{"type":"function","name":"requestERC20Service","inputs":[{"name":"serviceID","type":"uint256","internalType":"uint256"},{"name":"request","type":"tuple","internalType":"struct ERC20FulFillmentRequest","components":[{"name":"payer","type":"address","internalType":"address"},{"name":"fiatAmount","type":"uint256","internalType":"uint256"},{"name":"serviceRef","type":"string","internalType":"string"},{"name":"token","type":"address","internalType":"address"},{"name":"tokenAmount","type":"uint256","internalType":"uint256"}]}],"outputs":[{"name":"","type":"bool","internalType":"bool"}],"stateMutability":"nonpayable"},{"type":"function","name":"requestService","inputs":[{"name":"serviceID","type":"uint256","internalType":"uint256"},{"name":"request","type":"tuple","internalType":"struct FulFillmentRequest","components":[{"name":"payer","type":"address","internalType":"address"},{"name":"weiAmount","type":"uint256","internalType":"uint256"},{"name":"fiatAmount","type":"uint256","internalType":"uint256"},{"name":"serviceRef","type":"string","internalType":"string"}]}],"outputs":[{"name":"","type":"bool","internalType":"bool"}],"stateMutability":"payable"},{"type":"function","name":"setERC20Escrow","inputs":[{"name":"erc20Escrow_","type":"address","internalType":"address payable"}],"outputs":[],"stateMutability":"nonpayable"},{"type":"function","name":"setEscrow","inputs":[{"name":"escrow_","type":"address","internalType":"address payable"}],"outputs":[],"stateMutability":"nonpayable"},{"type":"function","name":"setFulfillableRegistry","inputs":[{"name":"fulfillableRegistry_","type":"address","internalType":"address"}],"outputs":[],"stateMutability":"nonpayable"},{"type":"function","name":"setTokenRegistry","inputs":[{"name":"tokenRegistry_","type":"address","internalType":"address"}],"outputs":[],"stateMutability":"nonpayable"},{"type":"function","name":"transferOwnership","inputs":[{"name":"newOwner","type":"address","internalType":"address"}],"outputs":[],"stateMutability":"nonpayable"},{"type":"function","name":"unpause","inputs":[],"outputs":[],"stateMutability":"nonpayable"},{"type":"function","name":"upgradeToAndCall","inputs":[{"name":"newImplementation","type":"address","internalType":"address"},{"name":"data","type":"bytes","internalType":"bytes"}],"outputs":[],"stateMutability":"payable"},{"type":"function","name":"withdrawERC20Refund","inputs":[{"name":"serviceID","type":"uint256","internalType":"uint256"},{"name":"token","type":"address","internalType":"address"},{"name":"refundee","type":"address","internalType":"address"}],"outputs":[],"stateMutability":"nonpayable"},{"type":"function","name":"withdrawRefund","inputs":[{"name":"serviceID","type":"uint256","internalType":"uint256"},{"name":"refundee","type":"address","internalType":"address payable"}],"outputs":[],"stateMutability":"nonpayable"},{"type":"event","name":"ERC20EscrowUpdated","inputs":[{"name":"erc20Escrow","type":"address","indexed":true,"internalType":"address"}],"anonymous":false},{"type":"event","name":"ERC20ServiceRequested","inputs":[{"name":"serviceID","type":"uint256","indexed":false,"internalType":"uint256"},{"name":"request","type":"tuple","indexed":false,"internalType":"struct ERC20FulFillmentRequest","components":[{"name":"payer","type":"address","internalType":"address"},{"name":"fiatAmount","type":"uint256","internalType":"uint256"},{"name":"serviceRef","type":"string","internalType":"string"},{"name":"token","type":"address","internalType":"address"},{"name":"tokenAmount","type":"uint256","internalType":"uint256"}]}],"anonymous":false},{"type":"event","name":"EscrowUpdated","inputs":[{"name":"escrow","type":"address","indexed":true,"internalType":"address"}],"anonymous":false},{"type":"event","name":"FulfillableRegistryUpdated","inputs":[{"name":"fulfillableRegistry","type":"address","indexed":true,"internalType":"address"}],"anonymous":false},{"type":"event","name":"Initialized","inputs":[{"name":"version","type":"uint64","indexed":false,"internalType":"uint64"}],"anonymous":false},{"type":"event","name":"OwnershipTransferred","inputs":[{"name":"previousOwner","type":"address","indexed":true,"internalType":"address"},{"name":"newOwner","type":"address","indexed":true,"internalType":"address"}],"anonymous":false},{"type":"event","name":"Paused","inputs":[{"name":"account","type":"address","indexed":false,"internalType":"address"}],"anonymous":false},{"type":"event","name":"RefValidationFailed","inputs":[{"name":"serviceID","type":"uint256","indexed":false,"internalType":"uint256"},{"name":"serviceRef","type":"string","indexed":false,"internalType":"string"}],"anonymous":false},{"type":"event","name":"ServiceRequested","inputs":[{"name":"serviceID","type":"uint256","indexed":false,"internalType":"uint256"},{"name":"request","type":"tuple","indexed":false,"internalType":"struct FulFillmentRequest","components":[{"name":"payer","type":"address","internalType":"address"},{"name":"weiAmount","type":"uint256","internalType":"uint256"},{"name":"fiatAmount","type":"uint256","internalType":"uint256"},{"name":"serviceRef","type":"string","internalType":"string"}]},{"name":"serviceFeeAmount","type":"uint256","indexed":false,"internalType":"uint256"}],"anonymous":false},{"type":"event","name":"TokenRegistryUpdated","inputs":[{"name":"tokenRegistry","type":"address","indexed":true,"internalType":"address"}],"anonymous":false},{"type":"event","name":"Unpaused","inputs":[{"name":"account","type":"address","indexed":false,"internalType":"address"}],"anonymous":false},{"type":"event","name":"Upgraded","inputs":[{"name":"implementation","type":"address","indexed":true,"internalType":"address"}],"anonymous":false},{"type":"error","name":"AddressEmptyCode","inputs":[{"name":"target","type":"address","internalType":"address"}]},{"type":"error","name":"AddressInsufficientBalance","inputs":[{"name":"account","type":"address","internalType":"address"}]},{"type":"error","name":"ERC1967InvalidImplementation","inputs":[{"name":"implementation","type":"address","internalType":"address"}]},{"type":"error","name":"ERC1967NonPayable","inputs":[]},{"type":"error","name":"EnforcedPause","inputs":[]},{"type":"error","name":"ExpectedPause","inputs":[]},{"type":"error","name":"FailedInnerCall","inputs":[]},{"type":"error","name":"InsufficientAmount","inputs":[]},{"type":"error","name":"InvalidAddress","inputs":[{"name":"address_","type":"address","internalType":"address"}]},{"type":"error","name":"InvalidFiatAmount","inputs":[]},{"type":"error","name":"InvalidInitialization","inputs":[]},{"type":"error","name":"InvalidRef","inputs":[]},{"type":"error","name":"NotInitializing","inputs":[]},{"type":"error","name":"OwnableInvalidOwner","inputs":[{"name":"owner","type":"address","internalType":"address"}]},{"type":"error","name":"OwnableUnauthorizedAccount","inputs":[{"name":"account","type":"address","internalType":"address"}]},{"type":"error","name":"PayerMismatch","inputs":[{"name":"payer","type":"address","internalType":"address"},{"name":"sender","type":"address","internalType":"address"}]},{"type":"error","name":"SafeERC20FailedOperation","inputs":[{"name":"token","type":"address","internalType":"address"}]},{"type":"error","name":"UUPSUnauthorizedCallContext","inputs":[]},{"type":"error","name":"UUPSUnsupportedProxiableUUID","inputs":[{"name":"slot","type":"bytes32","internalType":"bytes32"}]},{"type":"error","name":"UnsupportedToken","inputs":[{"name":"token","type":"address","internalType":"address"}]}],"bytecode":{"object":"0x60a06040523060805234801561001457600080fd5b5061001d610022565b6100d4565b7ff0c57e16840df040f15088dc2f81fe391c3923bec73e23a9662efc9c229c6a00805468010000000000000000900460ff16156100725760405163f92ee8a960e01b815260040160405180910390fd5b80546001600160401b03908116146100d15780546001600160401b0319166001600160401b0390811782556040519081527fc7f505b2f371ae2175ee4913f4499e1f2633a7b5936321eed1cdaeb6115181d29060200160405180910390a15b50565b6080516129ec6100fd600039600081816111d801528181611201015261141d01526129ec6000f3fe6080604052600436106101755760003560e01c80638456cb59116100cb578063c10c35461161007f578063e2f6ad2511610059578063e2f6ad2514610478578063ede6a9a014610498578063f2fde38b146104c557600080fd5b8063c10c354614610418578063c4d66de814610438578063dbc85c5a1461045857600080fd5b80638da5cb5b116100b05780638da5cb5b14610358578063ad3cb1cc146103a2578063be03f65c146103f857600080fd5b80638456cb59146103305780638d5e694f1461034557600080fd5b80634248d5b81161012d57806352d1902d1161010757806352d1902d146102b55780635c975abb146102d8578063715018a61461031b57600080fd5b80634248d5b81461026257806348d20d16146102825780634f1ef286146102a257600080fd5b806335a5af921161015e57806335a5af92146101fe5780633754e87f146102205780633f4ba83a1461024d57600080fd5b80630619c07a1461017a5780630c4393b9146101d1575b600080fd5b34801561018657600080fd5b506002546101a79073ffffffffffffffffffffffffffffffffffffffff1681565b60405173ffffffffffffffffffffffffffffffffffffffff90911681526020015b60405180910390f35b3480156101dd57600080fd5b506000546101a79073ffffffffffffffffffffffffffffffffffffffff1681565b34801561020a57600080fd5b5061021e610219366004612331565b6104e5565b005b34801561022c57600080fd5b506003546101a79073ffffffffffffffffffffffffffffffffffffffff1681565b34801561025957600080fd5b5061021e6105c6565b34801561026e57600080fd5b5061021e61027d36600461234e565b6105d8565b34801561028e57600080fd5b5061021e61029d36600461237e565b6106e7565b61021e6102b03660046124d3565b6107ff565b3480156102c157600080fd5b506102ca61081e565b6040519081526020016101c8565b3480156102e457600080fd5b507fcd5ed15c6e187e77e9aee88184c21f4f2182ab5827cb3b7e07fbedcd63f033005460ff165b60405190151581526020016101c8565b34801561032757600080fd5b5061021e61084d565b34801561033c57600080fd5b5061021e61085f565b61030b610353366004612557565b61086f565b34801561036457600080fd5b507f9016d09d72d40fdae2fd8ceac6b6234c7706214fd39c1cd1e609a0528c1993005473ffffffffffffffffffffffffffffffffffffffff166101a7565b3480156103ae57600080fd5b506103eb6040518060400160405280600581526020017f352e302e3000000000000000000000000000000000000000000000000000000081525081565b6040516101c89190612669565b34801561040457600080fd5b5061021e610413366004612331565b610a12565b34801561042457600080fd5b5061021e610433366004612331565b610aee565b34801561044457600080fd5b5061021e610453366004612331565b610bca565b34801561046457600080fd5b5061021e610473366004612331565b610d5a565b34801561048457600080fd5b5061030b61049336600461267c565b610e34565b3480156104a457600080fd5b506001546101a79073ffffffffffffffffffffffffffffffffffffffff1681565b3480156104d157600080fd5b5061021e6104e0366004612331565b611031565b6104ed611095565b73ffffffffffffffffffffffffffffffffffffffff8116610557576040517f8e4c8aa600000000000000000000000000000000000000000000000000000000815273ffffffffffffffffffffffffffffffffffffffff821660048201526024015b60405180910390fd5b600180547fffffffffffffffffffffffff00000000000000000000000000000000000000001673ffffffffffffffffffffffffffffffffffffffff83169081179091556040517f6e6ac0f8d11e6cdb54912074bf573e81cf445de6f137e4bd86ff31e396c8285690600090a250565b6105ce611095565b6105d6611123565b565b3373ffffffffffffffffffffffffffffffffffffffff821614610645576040517f35b13a3900000000000000000000000000000000000000000000000000000000815273ffffffffffffffffffffffffffffffffffffffff8216600482015233602482015260440161054e565b6002546040517f4248d5b80000000000000000000000000000000000000000000000000000000081526004810184905273ffffffffffffffffffffffffffffffffffffffff838116602483015290911690634248d5b8906044016020604051808303816000875af11580156106be573d6000803e3d6000fd5b505050506040513d601f19601f820116820180604052508101906106e29190612735565b505050565b3373ffffffffffffffffffffffffffffffffffffffff821614610754576040517f35b13a3900000000000000000000000000000000000000000000000000000000815273ffffffffffffffffffffffffffffffffffffffff8216600482015233602482015260440161054e565b6003546040517f48d20d160000000000000000000000000000000000000000000000000000000081526004810185905273ffffffffffffffffffffffffffffffffffffffff84811660248301528381166044830152909116906348d20d16906064016020604051808303816000875af11580156107d5573d6000803e3d6000fd5b505050506040513d601f19601f820116820180604052508101906107f99190612735565b50505050565b6108076111c0565b610810826112c4565b61081a82826112cc565b5050565b6000610828611405565b507f360894a13ba1a3210667c828492db98dca3e2076cc3735a920a3ca505d382bbc90565b610855611095565b6105d66000611474565b610867611095565b6105d661150a565b6000610879611583565b815173ffffffffffffffffffffffffffffffffffffffff1633146108ea5781516040517f35b13a3900000000000000000000000000000000000000000000000000000000815273ffffffffffffffffffffffffffffffffffffffff909116600482015233602482015260440161054e565b600054610910908490849073ffffffffffffffffffffffffffffffffffffffff166115df565b506000805460015461093e9173ffffffffffffffffffffffffffffffffffffffff90811691168684346117e3565b6002546040517f6928c27100000000000000000000000000000000000000000000000000000000815291925073ffffffffffffffffffffffffffffffffffffffff1690636928c27190349061099b90889088908790600401612757565b6000604051808303818588803b1580156109b457600080fd5b505af11580156109c8573d6000803e3d6000fd5b50505050507f5373ceb5889d7ecc59292760c565a6540b99dd95c5fafb5a360ebfa6e405dca1848483604051610a0093929190612757565b60405180910390a15060019392505050565b610a1a611095565b73ffffffffffffffffffffffffffffffffffffffff8116610a7f576040517f8e4c8aa600000000000000000000000000000000000000000000000000000000815273ffffffffffffffffffffffffffffffffffffffff8216600482015260240161054e565b600380547fffffffffffffffffffffffff00000000000000000000000000000000000000001673ffffffffffffffffffffffffffffffffffffffff83169081179091556040517fd39b3956f908ed0515c7b777552c15a185e9d13c9dd97db53a16bb661ab0b8d890600090a250565b610af6611095565b73ffffffffffffffffffffffffffffffffffffffff8116610b5b576040517f8e4c8aa600000000000000000000000000000000000000000000000000000000815273ffffffffffffffffffffffffffffffffffffffff8216600482015260240161054e565b600280547fffffffffffffffffffffffff00000000000000000000000000000000000000001673ffffffffffffffffffffffffffffffffffffffff83169081179091556040517f43ab431641dd45dd0661cad4b820e826d7c526af92e3121e1242d721f82ab3ad90600090a250565b7ff0c57e16840df040f15088dc2f81fe391c3923bec73e23a9662efc9c229c6a00805468010000000000000000810460ff16159067ffffffffffffffff16600081158015610c155750825b905060008267ffffffffffffffff166001148015610c325750303b155b905081158015610c40575080155b15610c77576040517ff92ee8a900000000000000000000000000000000000000000000000000000000815260040160405180910390fd5b84547fffffffffffffffffffffffffffffffffffffffffffffffff00000000000000001660011785558315610cd85784547fffffffffffffffffffffffffffffffffffffffffffffff00ffffffffffffffff16680100000000000000001785555b610ce06119aa565b610ce86119b2565b610cf1866119c2565b8315610d525784547fffffffffffffffffffffffffffffffffffffffffffffff00ffffffffffffffff168555604051600181527fc7f505b2f371ae2175ee4913f4499e1f2633a7b5936321eed1cdaeb6115181d29060200160405180910390a15b505050505050565b610d62611095565b73ffffffffffffffffffffffffffffffffffffffff8116610dc7576040517f8e4c8aa600000000000000000000000000000000000000000000000000000000815273ffffffffffffffffffffffffffffffffffffffff8216600482015260240161054e565b600080547fffffffffffffffffffffffff00000000000000000000000000000000000000001673ffffffffffffffffffffffffffffffffffffffff8316908117825560405190917f12fd82a8fae6400d0456d521504e56c94dd90726268fd158b0584ec682e1b5b191a250565b6000610e3e611583565b815173ffffffffffffffffffffffffffffffffffffffff163314610eaf5781516040517f35b13a3900000000000000000000000000000000000000000000000000000000815273ffffffffffffffffffffffffffffffffffffffff909116600482015233602482015260440161054e565b600054600154610edc918591859173ffffffffffffffffffffffffffffffffffffffff90811691166119d3565b506000805460015460608501516080860151610f149373ffffffffffffffffffffffffffffffffffffffff90811693169188916117e3565b90506000610f2f828560800151611caa90919063ffffffff16565b6003546060870151919350610f61925073ffffffffffffffffffffffffffffffffffffffff9182169133911684611cd3565b6003546040517fce30c9de00000000000000000000000000000000000000000000000000000000815273ffffffffffffffffffffffffffffffffffffffff9091169063ce30c9de90610fbb90889088908790600401612833565b600060405180830381600087803b158015610fd557600080fd5b505af1158015610fe9573d6000803e3d6000fd5b505050507fcffa77ca666af7f5f48cb67286d2851dd1a316733e8bf15cd1bee264a83742ad858560405161101e92919061285c565b60405180910390a1506001949350505050565b611039611095565b73ffffffffffffffffffffffffffffffffffffffff8116611089576040517f1e4fbdf70000000000000000000000000000000000000000000000000000000081526000600482015260240161054e565b61109281611474565b50565b336110d47f9016d09d72d40fdae2fd8ceac6b6234c7706214fd39c1cd1e609a0528c1993005473ffffffffffffffffffffffffffffffffffffffff1690565b73ffffffffffffffffffffffffffffffffffffffff16146105d6576040517f118cdaa700000000000000000000000000000000000000000000000000000000815233600482015260240161054e565b61112b611d68565b7fcd5ed15c6e187e77e9aee88184c21f4f2182ab5827cb3b7e07fbedcd63f0330080547fffffffffffffffffffffffffffffffffffffffffffffffffffffffffffffff001681557f5db9ee0a495bf2e6ff9c91a7834c1ba4fdd244a5e8aa4e537bd38aeae4b073aa335b60405173ffffffffffffffffffffffffffffffffffffffff909116815260200160405180910390a150565b3073ffffffffffffffffffffffffffffffffffffffff7f000000000000000000000000000000000000000000000000000000000000000016148061128d57507f000000000000000000000000000000000000000000000000000000000000000073ffffffffffffffffffffffffffffffffffffffff166112747f360894a13ba1a3210667c828492db98dca3e2076cc3735a920a3ca505d382bbc5473ffffffffffffffffffffffffffffffffffffffff1690565b73ffffffffffffffffffffffffffffffffffffffff1614155b156105d6576040517fe07c8dba00000000000000000000000000000000000000000000000000000000815260040160405180910390fd5b611092611095565b8173ffffffffffffffffffffffffffffffffffffffff166352d1902d6040518163ffffffff1660e01b8152600401602060405180830381865afa925050508015611351575060408051601f3d9081017fffffffffffffffffffffffffffffffffffffffffffffffffffffffffffffffe016820190925261134e9181019061287d565b60015b61139f576040517f4c9c8ce300000000000000000000000000000000000000000000000000000000815273ffffffffffffffffffffffffffffffffffffffff8316600482015260240161054e565b7f360894a13ba1a3210667c828492db98dca3e2076cc3735a920a3ca505d382bbc81146113fb576040517faa1d49a40000000000000000000000000000000000000000000000000000000081526004810182905260240161054e565b6106e28383611dc3565b3073ffffffffffffffffffffffffffffffffffffffff7f000000000000000000000000000000000000000000000000000000000000000016146105d6576040517fe07c8dba00000000000000000000000000000000000000000000000000000000815260040160405180910390fd5b7f9016d09d72d40fdae2fd8ceac6b6234c7706214fd39c1cd1e609a0528c19930080547fffffffffffffffffffffffff0000000000000000000000000000000000000000811673ffffffffffffffffffffffffffffffffffffffff848116918217845560405192169182907f8be0079c531659141344cd1fd0a4f28419497f9722a3daafe3b4186f6b6457e090600090a3505050565b611512611583565b7fcd5ed15c6e187e77e9aee88184c21f4f2182ab5827cb3b7e07fbedcd63f0330080547fffffffffffffffffffffffffffffffffffffffffffffffffffffffffffffff001660011781557f62e78cea01bee320cd4e420270b5ea74000d11b0c9f74754ebdbfc544b05a25833611195565b7fcd5ed15c6e187e77e9aee88184c21f4f2182ab5827cb3b7e07fbedcd63f033005460ff16156105d6576040517fd93c066500000000000000000000000000000000000000000000000000000000815260040160405180910390fd5b604080516060810182526000808252602082018190529181019190915234600003611636576040517f5945ea5600000000000000000000000000000000000000000000000000000000815260040160405180910390fd5b8260400151600003611674576040517faaf0371a00000000000000000000000000000000000000000000000000000000815260040160405180910390fd5b6040517fef0e239b0000000000000000000000000000000000000000000000000000000081526004810185905260009073ffffffffffffffffffffffffffffffffffffffff84169063ef0e239b90602401608060405180830381865afa1580156116e2573d6000803e3d6000fd5b505050506040513d601f19601f8201168201806040525081019061170691906128ad565b5060608501516040517fd4a2470300000000000000000000000000000000000000000000000000000000815291925073ffffffffffffffffffffffffffffffffffffffff85169163d4a247039161176291899190600401612937565b602060405180830381865afa15801561177f573d6000803e3d6000fd5b505050506040513d601f19601f820116820180604052508101906117a39190612735565b6117d9576040517fe97d945b00000000000000000000000000000000000000000000000000000000815260040160405180910390fd5b90505b9392505050565b6040517fef0e239b00000000000000000000000000000000000000000000000000000000815260048101849052600090819073ffffffffffffffffffffffffffffffffffffffff88169063ef0e239b90602401608060405180830381865afa158015611853573d6000803e3d6000fd5b505050506040513d601f19601f8201168201806040525081019061187791906128ad565b91506000905061188b8461ffff8416611e26565b91506000905061189d8261270f611caa565b91506118ad905081612710611e63565b6040517f2b6eaf1a00000000000000000000000000000000000000000000000000000000815273ffffffffffffffffffffffffffffffffffffffff898116600483015291965060009250908a1690632b6eaf1a90602401602060405180830381865afa158015611921573d6000803e3d6000fd5b505050506040513d601f19601f820116820180604052508101906119459190612950565b905061ffff81161561199d5760006119618761ffff8416611e26565b9150600090506119738261270f611caa565b91506000905061198582612710611e63565b9150600090506119958983611caa565b995050505050505b5050505095945050505050565b6105d6611e96565b6119ba611e96565b6105d6611efd565b6119ca611e96565b61109281611f4e565b60408051606081018252600080825260208201819052918101919091528360800151600003611a2e576040517f5945ea5600000000000000000000000000000000000000000000000000000000815260040160405180910390fd5b8360200151600003611a6c576040517faaf0371a00000000000000000000000000000000000000000000000000000000815260040160405180910390fd5b60608401516040517fb5af090f00000000000000000000000000000000000000000000000000000000815273ffffffffffffffffffffffffffffffffffffffff91821660048201529083169063b5af090f90602401602060405180830381865afa158015611ade573d6000803e3d6000fd5b505050506040513d601f19601f82011682018060405250810190611b029190612735565b611b565760608401516040517fbf16aab600000000000000000000000000000000000000000000000000000000815273ffffffffffffffffffffffffffffffffffffffff909116600482015260240161054e565b6040517fef0e239b0000000000000000000000000000000000000000000000000000000081526004810186905260009073ffffffffffffffffffffffffffffffffffffffff85169063ef0e239b90602401608060405180830381865afa158015611bc4573d6000803e3d6000fd5b505050506040513d601f19601f82011682018060405250810190611be891906128ad565b5090508373ffffffffffffffffffffffffffffffffffffffff1663d4a247038787604001516040518363ffffffff1660e01b8152600401611c2a929190612937565b602060405180830381865afa158015611c47573d6000803e3d6000fd5b505050506040513d601f19601f82011682018060405250810190611c6b9190612735565b611ca1576040517fe97d945b00000000000000000000000000000000000000000000000000000000815260040160405180910390fd5b95945050505050565b60008083830184811015611cc5576000809250925050611ccc565b6001925090505b9250929050565b6040805173ffffffffffffffffffffffffffffffffffffffff85811660248301528416604482015260648082018490528251808303909101815260849091019091526020810180517bffffffffffffffffffffffffffffffffffffffffffffffffffffffff167f23b872dd000000000000000000000000000000000000000000000000000000001790526107f9908590611f56565b7fcd5ed15c6e187e77e9aee88184c21f4f2182ab5827cb3b7e07fbedcd63f033005460ff166105d6576040517f8dfc202b00000000000000000000000000000000000000000000000000000000815260040160405180910390fd5b611dcc82611fec565b60405173ffffffffffffffffffffffffffffffffffffffff8316907fbc7cd75a20ee27fd9adebab32041f755214dbc6bffa90cc0225b39da2e5c2d3b90600090a2805115611e1e576106e282826120bb565b61081a612135565b60008083600003611e3d5750600190506000611ccc565b83830283858281611e5057611e5061296b565b0414611cc5576000809250925050611ccc565b60008082600003611e7957506000905080611ccc565b6001838581611e8a57611e8a61296b565b04915091509250929050565b7ff0c57e16840df040f15088dc2f81fe391c3923bec73e23a9662efc9c229c6a005468010000000000000000900460ff166105d6576040517fd7e6bcf800000000000000000000000000000000000000000000000000000000815260040160405180910390fd5b611f05611e96565b7fcd5ed15c6e187e77e9aee88184c21f4f2182ab5827cb3b7e07fbedcd63f0330080547fffffffffffffffffffffffffffffffffffffffffffffffffffffffffffffff00169055565b611039611e96565b6000611f7873ffffffffffffffffffffffffffffffffffffffff84168361216d565b90508051600014158015611f9d575080806020019051810190611f9b9190612735565b155b156106e2576040517f5274afe700000000000000000000000000000000000000000000000000000000815273ffffffffffffffffffffffffffffffffffffffff8416600482015260240161054e565b8073ffffffffffffffffffffffffffffffffffffffff163b600003612055576040517f4c9c8ce300000000000000000000000000000000000000000000000000000000815273ffffffffffffffffffffffffffffffffffffffff8216600482015260240161054e565b7f360894a13ba1a3210667c828492db98dca3e2076cc3735a920a3ca505d382bbc80547fffffffffffffffffffffffff00000000000000000000000000000000000000001673ffffffffffffffffffffffffffffffffffffffff92909216919091179055565b60606000808473ffffffffffffffffffffffffffffffffffffffff16846040516120e5919061299a565b600060405180830381855af49150503d8060008114612120576040519150601f19603f3d011682016040523d82523d6000602084013e612125565b606091505b5091509150611ca185838361217b565b34156105d6576040517fb398979f00000000000000000000000000000000000000000000000000000000815260040160405180910390fd5b60606117dc8383600061220a565b6060826121905761218b826122cd565b6117dc565b81511580156121b4575073ffffffffffffffffffffffffffffffffffffffff84163b155b15612203576040517f9996b31500000000000000000000000000000000000000000000000000000000815273ffffffffffffffffffffffffffffffffffffffff8516600482015260240161054e565b50806117dc565b606081471015612248576040517fcd78605900000000000000000000000000000000000000000000000000000000815230600482015260240161054e565b6000808573ffffffffffffffffffffffffffffffffffffffff168486604051612271919061299a565b60006040518083038185875af1925050503d80600081146122ae576040519150601f19603f3d011682016040523d82523d6000602084013e6122b3565b606091505b50915091506122c386838361217b565b9695505050505050565b8051156122dd5780518082602001fd5b6040517f1425ea4200000000000000000000000000000000000000000000000000000000815260040160405180910390fd5b73ffffffffffffffffffffffffffffffffffffffff8116811461109257600080fd5b60006020828403121561234357600080fd5b81356117dc8161230f565b6000806040838503121561236157600080fd5b8235915060208301356123738161230f565b809150509250929050565b60008060006060848603121561239357600080fd5b8335925060208401356123a58161230f565b915060408401356123b58161230f565b809150509250925092565b7f4e487b7100000000000000000000000000000000000000000000000000000000600052604160045260246000fd5b6040516080810167ffffffffffffffff81118282101715612412576124126123c0565b60405290565b60405160a0810167ffffffffffffffff81118282101715612412576124126123c0565b60008067ffffffffffffffff841115612456576124566123c0565b506040517fffffffffffffffffffffffffffffffffffffffffffffffffffffffffffffffe0601f85018116603f0116810181811067ffffffffffffffff821117156124a3576124a36123c0565b6040528381529050808284018510156124bb57600080fd5b83836020830137600060208583010152509392505050565b600080604083850312156124e657600080fd5b82356124f18161230f565b9150602083013567ffffffffffffffff81111561250d57600080fd5b8301601f8101851361251e57600080fd5b61252d8582356020840161243b565b9150509250929050565b600082601f83011261254857600080fd5b6117dc8383356020850161243b565b6000806040838503121561256a57600080fd5b82359150602083013567ffffffffffffffff81111561258857600080fd5b83016080818603121561259a57600080fd5b6125a26123ef565b81356125ad8161230f565b81526020828101359082015260408083013590820152606082013567ffffffffffffffff8111156125dd57600080fd5b6125e987828501612537565b60608301525080925050509250929050565b60005b838110156126165781810151838201526020016125fe565b50506000910152565b600081518084526126378160208601602086016125fb565b601f017fffffffffffffffffffffffffffffffffffffffffffffffffffffffffffffffe0169290920160200192915050565b6020815260006117dc602083018461261f565b6000806040838503121561268f57600080fd5b82359150602083013567ffffffffffffffff8111156126ad57600080fd5b830160a081860312156126bf57600080fd5b6126c7612418565b81356126d28161230f565b815260208281013590820152604082013567ffffffffffffffff8111156126f857600080fd5b61270487828501612537565b60408301525060608201356127188161230f565b606082015260809182013591810191909152919491935090915050565b60006020828403121561274757600080fd5b815180151581146117dc57600080fd5b8381526060602082015273ffffffffffffffffffffffffffffffffffffffff835116606082015260208301516080820152604083015160a082015260006060840151608060c08401526127ad60e084018261261f565b915050826040830152949350505050565b73ffffffffffffffffffffffffffffffffffffffff8151168252602081015160208301526000604082015160a060408501526127fd60a085018261261f565b905073ffffffffffffffffffffffffffffffffffffffff6060840151166060850152608083015160808501528091505092915050565b83815260606020820152600061284c60608301856127be565b9050826040830152949350505050565b82815260406020820152600061287560408301846127be565b949350505050565b60006020828403121561288f57600080fd5b5051919050565b805161ffff811681146128a857600080fd5b919050565b60008082840360808112156128c157600080fd5b60608112156128cf57600080fd5b506040516060810167ffffffffffffffff811182821017156128f3576128f36123c0565b6040528351815260208401516129088161230f565b6020820152604084015161291b8161230f565b6040820152915061292e60608401612896565b90509250929050565b828152604060208201526000612875604083018461261f565b60006020828403121561296257600080fd5b6117dc82612896565b7f4e487b7100000000000000000000000000000000000000000000000000000000600052601260045260246000fd5b600082516129ac8184602087016125fb565b919091019291505056fea26469706673582212200ff45c97b09317f29c1861b242a36e2e86b1075cfaf2ba33f5a0dbfe3d5a70a964736f6c634300081c0033","linkReferences":{}},"methodIdentifiers":{"UPGRADE_INTERFACE_VERSION()":"ad3cb1cc","_erc20Escrow()":"3754e87f","_escrow()":"0619c07a","_fulfillableRegistry()":"0c4393b9","_tokenRegistry()":"ede6a9a0","initialize(address)":"c4d66de8","owner()":"8da5cb5b","pause()":"8456cb59","paused()":"5c975abb","proxiableUUID()":"52d1902d","renounceOwnership()":"715018a6","requestERC20Service(uint256,(address,uint256,string,address,uint256))":"e2f6ad25","requestService(uint256,(address,uint256,uint256,string))":"8d5e694f","setERC20Escrow(address)":"be03f65c","setEscrow(address)":"c10c3546","setFulfillableRegistry(address)":"dbc85c5a","setTokenRegistry(address)":"35a5af92","transferOwnership(address)":"f2fde38b","unpause()":"3f4ba83a","upgradeToAndCall(address,bytes)":"4f1ef286","withdrawERC20Refund(uint256,address,address)":"48d20d16","withdrawRefund(uint256,address)":"4248d5b8"},"id":7}