{"abi":[{"type":"constructor","inputs":[],"stateMutability":"nonpayable"},{"type":"function","name":"UPGRADE_INTERFACE_VERSION","inputs":[],"outputs":[{"name":"","type":"string","internalType":"string"}],"stateMutability":"view"},{"type":"function","name":"_erc20_escrow","inputs":[],"outputs":[{"name":"","type":"address","internalType":"address"}],"stateMutability":"view"},{"type":"function","name":"_escrow","inputs":[],"outputs":[{"name":"","type":"address","internalType":"address"}],"stateMutability":"view"},{"type":"function","name":"_serviceRegistry","inputs":[],"outputs":[{"name":"","type":"address","internalType":"address"}],"stateMutability":"view"},{"type":"function","name":"beneficiaryWithdraw","inputs":[{"name":"serviceID","type":"uint256","internalType":"uint256"}],"outputs":[],"stateMutability":"nonpayable"},{"type":"function","name":"beneficiaryWithdrawERC20","inputs":[{"name":"serviceID","type":"uint256","internalType":"uint256"},{"name":"token","type":"address","internalType":"address"}],"outputs":[],"stateMutability":"nonpayable"},{"type":"function","name":"initialize","inputs":[{"name":"initialOwner","type":"address","internalType":"address"}],"outputs":[],"stateMutability":"nonpayable"},{"type":"function","name":"owner","inputs":[],"outputs":[{"name":"","type":"address","internalType":"address"}],"stateMutability":"view"},{"type":"function","name":"proxiableUUID","inputs":[],"outputs":[{"name":"","type":"bytes32","internalType":"bytes32"}],"stateMutability":"view"},{"type":"function","name":"registerERC20Fulfillment","inputs":[{"name":"serviceID","type":"uint256","internalType":"uint256"},{"name":"fulfillment","type":"tuple","internalType":"struct FulFillmentResult","components":[{"name":"id","type":"uint256","internalType":"uint256"},{"name":"externalID","type":"string","internalType":"string"},{"name":"receiptURI","type":"string","internalType":"string"},{"name":"status","type":"uint8","internalType":"enum FulFillmentResultState"}]}],"outputs":[],"stateMutability":"nonpayable"},{"type":"function","name":"registerFulfillment","inputs":[{"name":"serviceID","type":"uint256","internalType":"uint256"},{"name":"fulfillment","type":"tuple","internalType":"struct FulFillmentResult","components":[{"name":"id","type":"uint256","internalType":"uint256"},{"name":"externalID","type":"string","internalType":"string"},{"name":"receiptURI","type":"string","internalType":"string"},{"name":"status","type":"uint8","internalType":"enum FulFillmentResultState"}]}],"outputs":[],"stateMutability":"nonpayable"},{"type":"function","name":"renounceOwnership","inputs":[],"outputs":[],"stateMutability":"nonpayable"},{"type":"function","name":"setERC20Escrow","inputs":[{"name":"erc20Escrow_","type":"address","internalType":"address payable"}],"outputs":[],"stateMutability":"nonpayable"},{"type":"function","name":"setEscrow","inputs":[{"name":"escrow_","type":"address","internalType":"address payable"}],"outputs":[],"stateMutability":"nonpayable"},{"type":"function","name":"setService","inputs":[{"name":"serviceID","type":"uint256","internalType":"uint256"},{"name":"feeAmountBasisPoints","type":"uint16","internalType":"uint16"},{"name":"fulfiller","type":"address","internalType":"address"},{"name":"beneficiary","type":"address","internalType":"address payable"}],"outputs":[{"name":"","type":"tuple","internalType":"struct Service","components":[{"name":"serviceId","type":"uint256","internalType":"uint256"},{"name":"beneficiary","type":"address","internalType":"address payable"},{"name":"fulfiller","type":"address","internalType":"address"}]}],"stateMutability":"nonpayable"},{"type":"function","name":"setServiceFulfillmentFee","inputs":[{"name":"serviceID","type":"uint256","internalType":"uint256"},{"name":"fulfillmentFeeBasisPoints","type":"uint16","internalType":"uint16"}],"outputs":[],"stateMutability":"nonpayable"},{"type":"function","name":"setServiceRef","inputs":[{"name":"serviceID","type":"uint256","internalType":"uint256"},{"name":"serviceRef","type":"string","internalType":"string"}],"outputs":[],"stateMutability":"nonpayable"},{"type":"function","name":"setServiceRegistry","inputs":[{"name":"serviceRegistry_","type":"address","internalType":"address"}],"outputs":[],"stateMutability":"nonpayable"},{"type":"function","name":"transferOwnership","inputs":[{"name":"newOwner","type":"address","internalType":"address"}],"outputs":[],"stateMutability":"nonpayable"},{"type":"function","name":"upgradeToAndCall","inputs":[{"name":"newImplementation","type":"address","internalType":"address"},{"name":"data","type":"bytes","internalType":"bytes"}],"outputs":[],"stateMutability":"payable"},{"type":"function","name":"withdrawERC20Fees","inputs":[{"name":"serviceID","type":"uint256","internalType":"uint256"},{"name":"token","type":"address","internalType":"address"}],"outputs":[],"stateMutability":"nonpayable"},{"type":"function","name":"withdrawNativeFees","inputs":[{"name":"serviceID","type":"uint256","internalType":"uint256"}],"outputs":[],"stateMutability":"nonpayable"},{"type":"event","name":"ERC20EscrowUpdated","inputs":[{"name":"erc20Escrow","type":"address","indexed":true,"internalType":"address"}],"anonymous":false},{"type":"event","name":"EscrowUpdated","inputs":[{"name":"escrow","type":"address","indexed":true,"internalType":"address"}],"anonymous":false},{"type":"event","name":"Initialized","inputs":[{"name":"version","type":"uint64","indexed":false,"internalType":"uint64"}],"anonymous":false},{"type":"event","name":"OwnershipTransferred","inputs":[{"name":"previousOwner","type":"address","indexed":true,"internalType":"address"},{"name":"newOwner","type":"address","indexed":true,"internalType":"address"}],"anonymous":false},{"type":"event","name":"RegistryUpdated","inputs":[{"name":"registry","type":"address","indexed":true,"internalType":"address"}],"anonymous":false},{"type":"event","name":"Upgraded","inputs":[{"name":"implementation","type":"address","indexed":true,"internalType":"address"}],"anonymous":false},{"type":"error","name":"AddressEmptyCode","inputs":[{"name":"target","type":"address","internalType":"address"}]},{"type":"error","name":"ERC1967InvalidImplementation","inputs":[{"name":"implementation","type":"address","internalType":"address"}]},{"type":"error","name":"ERC1967NonPayable","inputs":[]},{"type":"error","name":"FailedInnerCall","inputs":[]},{"type":"error","name":"InvalidAddress","inputs":[{"name":"address_","type":"address","internalType":"address"}]},{"type":"error","name":"InvalidBeneficiary","inputs":[{"name":"beneficiary_","type":"address","internalType":"address"}]},{"type":"error","name":"InvalidFulfiller","inputs":[{"name":"fulfiller_","type":"address","internalType":"address"}]},{"type":"error","name":"InvalidInitialization","inputs":[]},{"type":"error","name":"InvalidServiceId","inputs":[{"name":"serviceID_","type":"uint256","internalType":"uint256"}]},{"type":"error","name":"NotInitializing","inputs":[]},{"type":"error","name":"OwnableInvalidOwner","inputs":[{"name":"owner","type":"address","internalType":"address"}]},{"type":"error","name":"OwnableUnauthorizedAccount","inputs":[{"name":"account","type":"address","internalType":"address"}]},{"type":"error","name":"UUPSUnauthorizedCallContext","inputs":[]},{"type":"error","name":"UUPSUnsupportedProxiableUUID","inputs":[{"name":"slot","type":"bytes32","internalType":"bytes32"}]}],"bytecode":{"object":"0x60a06040523060805234801561001457600080fd5b5061001d610022565b6100d4565b7ff0c57e16840df040f15088dc2f81fe391c3923bec73e23a9662efc9c229c6a00805468010000000000000000900460ff16156100725760405163f92ee8a960e01b815260040160405180910390fd5b80546001600160401b03908116146100d15780546001600160401b0319166001600160401b0390811782556040519081527fc7f505b2f371ae2175ee4913f4499e1f2633a7b5936321eed1cdaeb6115181d29060200160405180910390a15b50565b60805161242e6100fd600039600081816116fa015281816117230152611944015261242e6000f3fe6080604052600436106101755760003560e01c8063b4b9bb7c116100cb578063cebae8101161007f578063ecaec54311610059578063ecaec54314610485578063eede444c146104a5578063f2fde38b146104c557600080fd5b8063cebae81014610425578063d7071b1f14610445578063ea5447e61461046557600080fd5b8063bf75f119116100b0578063bf75f119146103c5578063c10c3546146103e5578063c4d66de81461040557600080fd5b8063b4b9bb7c14610385578063be03f65c146103a557600080fd5b806358735e631161012d57806390eafe581161010757806390eafe58146102d557806391d95f3e14610302578063ad3cb1cc1461032f57600080fd5b806358735e6314610256578063715018a6146102765780638da5cb5b1461028b57600080fd5b80632248d9d61161015e5780632248d9d6146101f35780634f1ef2861461022057806352d1902d1461023357600080fd5b80630619c07a1461017a57806307073d91146101d1575b600080fd5b34801561018657600080fd5b506001546101a79073ffffffffffffffffffffffffffffffffffffffff1681565b60405173ffffffffffffffffffffffffffffffffffffffff90911681526020015b60405180910390f35b3480156101dd57600080fd5b506101f16101ec366004611e8c565b6104e5565b005b3480156101ff57600080fd5b5061021361020e366004611f05565b61057b565b6040516101c89190611f58565b6101f161022e366004611fa9565b61076e565b34801561023f57600080fd5b5061024861078d565b6040519081526020016101c8565b34801561026257600080fd5b506101f1610271366004612003565b6107bc565b34801561028257600080fd5b506101f161093b565b34801561029757600080fd5b507f9016d09d72d40fdae2fd8ceac6b6234c7706214fd39c1cd1e609a0528c1993005473ffffffffffffffffffffffffffffffffffffffff166101a7565b3480156102e157600080fd5b506002546101a79073ffffffffffffffffffffffffffffffffffffffff1681565b34801561030e57600080fd5b506000546101a79073ffffffffffffffffffffffffffffffffffffffff1681565b34801561033b57600080fd5b506103786040518060400160405280600581526020017f352e302e3000000000000000000000000000000000000000000000000000000081525081565b6040516101c891906120a1565b34801561039157600080fd5b506101f16103a03660046120b4565b61094f565b3480156103b157600080fd5b506101f16103c0366004612181565b610b37565b3480156103d157600080fd5b506101f16103e036600461219e565b610c13565b3480156103f157600080fd5b506101f1610400366004612181565b610c7c565b34801561041157600080fd5b506101f1610420366004612181565b610d58565b34801561043157600080fd5b506101f16104403660046121c3565b610edf565b34801561045157600080fd5b506101f1610460366004612181565b611023565b34801561047157600080fd5b506101f16104803660046120b4565b6110fd565b34801561049157600080fd5b506101f16104a03660046121c3565b61129c565b3480156104b157600080fd5b506101f16104c0366004612003565b611442565b3480156104d157600080fd5b506101f16104e0366004612181565b6115f0565b6104ed611654565b6000546040517f3f8a7fe000000000000000000000000000000000000000000000000000000000815273ffffffffffffffffffffffffffffffffffffffff90911690633f8a7fe09061054590859085906004016121dc565b600060405180830381600087803b15801561055f57600080fd5b505af1158015610573573d6000803e3d6000fd5b505050505050565b60408051606081018252600080825260208201819052918101919091526105a0611654565b846000036105e2576040517fe0d4974b000000000000000000000000000000000000000000000000000000008152600481018690526024015b60405180910390fd5b73ffffffffffffffffffffffffffffffffffffffff8316610647576040517f8e4c8aa600000000000000000000000000000000000000000000000000000000815273ffffffffffffffffffffffffffffffffffffffff841660048201526024016105d9565b73ffffffffffffffffffffffffffffffffffffffff82166106ac576040517f8e4c8aa600000000000000000000000000000000000000000000000000000000815273ffffffffffffffffffffffffffffffffffffffff831660048201526024016105d9565b6040805160608101825286815273ffffffffffffffffffffffffffffffffffffffff80851660208301528581168284015260005492517f4f38e25800000000000000000000000000000000000000000000000000000000815291921690634f38e2589061072190899085908a906004016121fd565b6020604051808303816000875af1158015610740573d6000803e3d6000fd5b505050506040513d601f19601f820116820180604052508101906107649190612266565b5095945050505050565b6107766116e2565b61077f826117e6565b61078982826117ee565b5050565b600061079761192c565b507f360894a13ba1a3210667c828492db98dca3e2076cc3735a920a3ca505d382bbc90565b600080546040517fef0e239b0000000000000000000000000000000000000000000000000000000081526004810185905273ffffffffffffffffffffffffffffffffffffffff9091169063ef0e239b90602401608060405180830381865afa15801561082c573d6000803e3d6000fd5b505050506040513d601f19601f820116820180604052508101906108509190612288565b50602081015190915073ffffffffffffffffffffffffffffffffffffffff1633146108a9576040517f1a3b45fd0000000000000000000000000000000000000000000000000000000081523360048201526024016105d9565b6002546040517f936a83e50000000000000000000000000000000000000000000000000000000081526004810185905273ffffffffffffffffffffffffffffffffffffffff84811660248301529091169063936a83e5906044015b600060405180830381600087803b15801561091e57600080fd5b505af1158015610932573d6000803e3d6000fd5b50505050505050565b610943611654565b61094d600061199b565b565b600080546040517fef0e239b0000000000000000000000000000000000000000000000000000000081526004810185905273ffffffffffffffffffffffffffffffffffffffff9091169063ef0e239b90602401608060405180830381865afa1580156109bf573d6000803e3d6000fd5b505050506040513d601f19601f820116820180604052508101906109e39190612288565b509050806040015173ffffffffffffffffffffffffffffffffffffffff163373ffffffffffffffffffffffffffffffffffffffff1614158015610a5d57507f9016d09d72d40fdae2fd8ceac6b6234c7706214fd39c1cd1e609a0528c1993005473ffffffffffffffffffffffffffffffffffffffff163314155b15610a96576040517fdb4176c70000000000000000000000000000000000000000000000000000000081523360048201526024016105d9565b6001546040517fb4b9bb7c00000000000000000000000000000000000000000000000000000000815273ffffffffffffffffffffffffffffffffffffffff9091169063b4b9bb7c90610aee908690869060040161230c565b6020604051808303816000875af1158015610b0d573d6000803e3d6000fd5b505050506040513d601f19601f82011682018060405250810190610b319190612266565b50505050565b610b3f611654565b73ffffffffffffffffffffffffffffffffffffffff8116610ba4576040517f8e4c8aa600000000000000000000000000000000000000000000000000000000815273ffffffffffffffffffffffffffffffffffffffff821660048201526024016105d9565b600280547fffffffffffffffffffffffff00000000000000000000000000000000000000001673ffffffffffffffffffffffffffffffffffffffff83169081179091556040517fd39b3956f908ed0515c7b777552c15a185e9d13c9dd97db53a16bb661ab0b8d890600090a250565b610c1b611654565b6000546040517f0cf4e14c0000000000000000000000000000000000000000000000000000000081526004810184905261ffff8316602482015273ffffffffffffffffffffffffffffffffffffffff90911690630cf4e14c90604401610545565b610c84611654565b73ffffffffffffffffffffffffffffffffffffffff8116610ce9576040517f8e4c8aa600000000000000000000000000000000000000000000000000000000815273ffffffffffffffffffffffffffffffffffffffff821660048201526024016105d9565b600180547fffffffffffffffffffffffff00000000000000000000000000000000000000001673ffffffffffffffffffffffffffffffffffffffff83169081179091556040517f43ab431641dd45dd0661cad4b820e826d7c526af92e3121e1242d721f82ab3ad90600090a250565b7ff0c57e16840df040f15088dc2f81fe391c3923bec73e23a9662efc9c229c6a00805468010000000000000000810460ff16159067ffffffffffffffff16600081158015610da35750825b905060008267ffffffffffffffff166001148015610dc05750303b155b905081158015610dce575080155b15610e05576040517ff92ee8a900000000000000000000000000000000000000000000000000000000815260040160405180910390fd5b84547fffffffffffffffffffffffffffffffffffffffffffffffff00000000000000001660011785558315610e665784547fffffffffffffffffffffffffffffffffffffffffffffff00ffffffffffffffff16680100000000000000001785555b610e6e611a31565b610e7786611a39565b83156105735784547fffffffffffffffffffffffffffffffffffffffffffffff00ffffffffffffffff168555604051600181527fc7f505b2f371ae2175ee4913f4499e1f2633a7b5936321eed1cdaeb6115181d29060200160405180910390a1505050505050565b600080546040517fef0e239b0000000000000000000000000000000000000000000000000000000081526004810184905273ffffffffffffffffffffffffffffffffffffffff9091169063ef0e239b90602401608060405180830381865afa158015610f4f573d6000803e3d6000fd5b505050506040513d601f19601f82011682018060405250810190610f739190612288565b50602081015190915073ffffffffffffffffffffffffffffffffffffffff163314610fcc576040517f1a3b45fd0000000000000000000000000000000000000000000000000000000081523360048201526024016105d9565b6001546040517fcebae8100000000000000000000000000000000000000000000000000000000081526004810184905273ffffffffffffffffffffffffffffffffffffffff9091169063cebae81090602401610545565b61102b611654565b73ffffffffffffffffffffffffffffffffffffffff8116611090576040517f8e4c8aa600000000000000000000000000000000000000000000000000000000815273ffffffffffffffffffffffffffffffffffffffff821660048201526024016105d9565b600080547fffffffffffffffffffffffff00000000000000000000000000000000000000001673ffffffffffffffffffffffffffffffffffffffff8316908117825560405190917fd6ceddf6d2a22f21c7c81675c518004eff43bc5c8a6fc32a0b748e69d58671cd91a250565b600080546040517fef0e239b0000000000000000000000000000000000000000000000000000000081526004810185905273ffffffffffffffffffffffffffffffffffffffff9091169063ef0e239b90602401608060405180830381865afa15801561116d573d6000803e3d6000fd5b505050506040513d601f19601f820116820180604052508101906111919190612288565b509050806040015173ffffffffffffffffffffffffffffffffffffffff163373ffffffffffffffffffffffffffffffffffffffff161415801561120b57507f9016d09d72d40fdae2fd8ceac6b6234c7706214fd39c1cd1e609a0528c1993005473ffffffffffffffffffffffffffffffffffffffff163314155b15611244576040517fdb4176c70000000000000000000000000000000000000000000000000000000081523360048201526024016105d9565b6002546040517fb4b9bb7c00000000000000000000000000000000000000000000000000000000815273ffffffffffffffffffffffffffffffffffffffff9091169063b4b9bb7c90610aee908690869060040161230c565b6112a4611654565b600080546040517fef0e239b0000000000000000000000000000000000000000000000000000000081526004810184905273ffffffffffffffffffffffffffffffffffffffff9091169063ef0e239b90602401608060405180830381865afa158015611314573d6000803e3d6000fd5b505050506040513d601f19601f820116820180604052508101906113389190612288565b509050806040015173ffffffffffffffffffffffffffffffffffffffff163373ffffffffffffffffffffffffffffffffffffffff16141580156113b257507f9016d09d72d40fdae2fd8ceac6b6234c7706214fd39c1cd1e609a0528c1993005473ffffffffffffffffffffffffffffffffffffffff163314155b156113eb576040517fdb4176c70000000000000000000000000000000000000000000000000000000081523360048201526024016105d9565b6001546040517fb7aeb6ef0000000000000000000000000000000000000000000000000000000081526004810184905273ffffffffffffffffffffffffffffffffffffffff9091169063b7aeb6ef90602401610545565b61144a611654565b600080546040517fef0e239b0000000000000000000000000000000000000000000000000000000081526004810185905273ffffffffffffffffffffffffffffffffffffffff9091169063ef0e239b90602401608060405180830381865afa1580156114ba573d6000803e3d6000fd5b505050506040513d601f19601f820116820180604052508101906114de9190612288565b509050806040015173ffffffffffffffffffffffffffffffffffffffff163373ffffffffffffffffffffffffffffffffffffffff161415801561155857507f9016d09d72d40fdae2fd8ceac6b6234c7706214fd39c1cd1e609a0528c1993005473ffffffffffffffffffffffffffffffffffffffff163314155b15611591576040517fdb4176c70000000000000000000000000000000000000000000000000000000081523360048201526024016105d9565b6002546040517fb726962e0000000000000000000000000000000000000000000000000000000081526004810185905273ffffffffffffffffffffffffffffffffffffffff84811660248301529091169063b726962e90604401610904565b6115f8611654565b73ffffffffffffffffffffffffffffffffffffffff8116611648576040517f1e4fbdf7000000000000000000000000000000000000000000000000000000008152600060048201526024016105d9565b6116518161199b565b50565b336116937f9016d09d72d40fdae2fd8ceac6b6234c7706214fd39c1cd1e609a0528c1993005473ffffffffffffffffffffffffffffffffffffffff1690565b73ffffffffffffffffffffffffffffffffffffffff161461094d576040517f118cdaa70000000000000000000000000000000000000000000000000000000081523360048201526024016105d9565b3073ffffffffffffffffffffffffffffffffffffffff7f00000000000000000000000000000000000000000000000000000000000000001614806117af57507f000000000000000000000000000000000000000000000000000000000000000073ffffffffffffffffffffffffffffffffffffffff166117967f360894a13ba1a3210667c828492db98dca3e2076cc3735a920a3ca505d382bbc5473ffffffffffffffffffffffffffffffffffffffff1690565b73ffffffffffffffffffffffffffffffffffffffff1614155b1561094d576040517fe07c8dba00000000000000000000000000000000000000000000000000000000815260040160405180910390fd5b611651611654565b8173ffffffffffffffffffffffffffffffffffffffff166352d1902d6040518163ffffffff1660e01b8152600401602060405180830381865afa925050508015611873575060408051601f3d9081017fffffffffffffffffffffffffffffffffffffffffffffffffffffffffffffffe0168201909252611870918101906123c3565b60015b6118c1576040517f4c9c8ce300000000000000000000000000000000000000000000000000000000815273ffffffffffffffffffffffffffffffffffffffff831660048201526024016105d9565b7f360894a13ba1a3210667c828492db98dca3e2076cc3735a920a3ca505d382bbc811461191d576040517faa1d49a4000000000000000000000000000000000000000000000000000000008152600481018290526024016105d9565b6119278383611a4a565b505050565b3073ffffffffffffffffffffffffffffffffffffffff7f0000000000000000000000000000000000000000000000000000000000000000161461094d576040517fe07c8dba00000000000000000000000000000000000000000000000000000000815260040160405180910390fd5b7f9016d09d72d40fdae2fd8ceac6b6234c7706214fd39c1cd1e609a0528c19930080547fffffffffffffffffffffffff0000000000000000000000000000000000000000811673ffffffffffffffffffffffffffffffffffffffff848116918217845560405192169182907f8be0079c531659141344cd1fd0a4f28419497f9722a3daafe3b4186f6b6457e090600090a3505050565b61094d611aad565b611a41611aad565b61165181611b14565b611a5382611b1c565b60405173ffffffffffffffffffffffffffffffffffffffff8316907fbc7cd75a20ee27fd9adebab32041f755214dbc6bffa90cc0225b39da2e5c2d3b90600090a2805115611aa5576119278282611beb565b610789611c70565b7ff0c57e16840df040f15088dc2f81fe391c3923bec73e23a9662efc9c229c6a005468010000000000000000900460ff1661094d576040517fd7e6bcf800000000000000000000000000000000000000000000000000000000815260040160405180910390fd5b6115f8611aad565b8073ffffffffffffffffffffffffffffffffffffffff163b600003611b85576040517f4c9c8ce300000000000000000000000000000000000000000000000000000000815273ffffffffffffffffffffffffffffffffffffffff821660048201526024016105d9565b7f360894a13ba1a3210667c828492db98dca3e2076cc3735a920a3ca505d382bbc80547fffffffffffffffffffffffff00000000000000000000000000000000000000001673ffffffffffffffffffffffffffffffffffffffff92909216919091179055565b60606000808473ffffffffffffffffffffffffffffffffffffffff1684604051611c1591906123dc565b600060405180830381855af49150503d8060008114611c50576040519150601f19603f3d011682016040523d82523d6000602084013e611c55565b606091505b5091509150611c65858383611ca8565b925050505b92915050565b341561094d576040517fb398979f00000000000000000000000000000000000000000000000000000000815260040160405180910390fd5b606082611cbd57611cb882611d3a565b611d33565b8151158015611ce1575073ffffffffffffffffffffffffffffffffffffffff84163b155b15611d30576040517f9996b31500000000000000000000000000000000000000000000000000000000815273ffffffffffffffffffffffffffffffffffffffff851660048201526024016105d9565b50805b9392505050565b805115611d4a5780518082602001fd5b6040517f1425ea4200000000000000000000000000000000000000000000000000000000815260040160405180910390fd5b7f4e487b7100000000000000000000000000000000000000000000000000000000600052604160045260246000fd5b6040516080810167ffffffffffffffff81118282101715611dce57611dce611d7c565b60405290565b60008067ffffffffffffffff841115611def57611def611d7c565b506040517fffffffffffffffffffffffffffffffffffffffffffffffffffffffffffffffe0601f85018116603f0116810181811067ffffffffffffffff82111715611e3c57611e3c611d7c565b604052838152905080828401851015611e5457600080fd5b83836020830137600060208583010152509392505050565b600082601f830112611e7d57600080fd5b611d3383833560208501611dd4565b60008060408385031215611e9f57600080fd5b82359150602083013567ffffffffffffffff811115611ebd57600080fd5b611ec985828601611e6c565b9150509250929050565b61ffff8116811461165157600080fd5b73ffffffffffffffffffffffffffffffffffffffff8116811461165157600080fd5b60008060008060808587031215611f1b57600080fd5b843593506020850135611f2d81611ed3565b92506040850135611f3d81611ee3565b91506060850135611f4d81611ee3565b939692955090935050565b60608101611c6a82848051825273ffffffffffffffffffffffffffffffffffffffff602082015116602083015273ffffffffffffffffffffffffffffffffffffffff60408201511660408301525050565b60008060408385031215611fbc57600080fd5b8235611fc781611ee3565b9150602083013567ffffffffffffffff811115611fe357600080fd5b8301601f81018513611ff457600080fd5b611ec985823560208401611dd4565b6000806040838503121561201657600080fd5b82359150602083013561202881611ee3565b809150509250929050565b60005b8381101561204e578181015183820152602001612036565b50506000910152565b6000815180845261206f816020860160208601612033565b601f017fffffffffffffffffffffffffffffffffffffffffffffffffffffffffffffffe0169290920160200192915050565b602081526000611d336020830184612057565b600080604083850312156120c757600080fd5b82359150602083013567ffffffffffffffff8111156120e557600080fd5b8301608081860312156120f757600080fd5b6120ff611dab565b81358152602082013567ffffffffffffffff81111561211d57600080fd5b61212987828501611e6c565b602083015250604082013567ffffffffffffffff81111561214957600080fd5b61215587828501611e6c565b604083015250606082013591506004821061216f57600080fd5b81606082015280925050509250929050565b60006020828403121561219357600080fd5b8135611d3381611ee3565b600080604083850312156121b157600080fd5b82359150602083013561202881611ed3565b6000602082840312156121d557600080fd5b5035919050565b8281526040602082015260006121f56040830184612057565b949350505050565b83815260a0810161225460208301858051825273ffffffffffffffffffffffffffffffffffffffff602082015116602083015273ffffffffffffffffffffffffffffffffffffffff60408201511660408301525050565b61ffff83166080830152949350505050565b60006020828403121561227857600080fd5b81518015158114611d3357600080fd5b600080828403608081121561229c57600080fd5b60608112156122aa57600080fd5b506040516060810167ffffffffffffffff811182821017156122ce576122ce611d7c565b6040528351815260208401516122e381611ee3565b602082015260408401516122f681611ee3565b6040820152606084015190925061202881611ed3565b8281526040602082015281516040820152600060208301516080606084015261233860c0840182612057565b905060408401517fffffffffffffffffffffffffffffffffffffffffffffffffffffffffffffffc08483030160808501526123738282612057565b9150506060840151600481106123b2577f4e487b7100000000000000000000000000000000000000000000000000000000600052602160045260246000fd5b60a093909301929092525092915050565b6000602082840312156123d557600080fd5b5051919050565b600082516123ee818460208701612033565b919091019291505056fea264697066735822122003d67d82e3ed61f4fb8974b22b9de5b62bc95d47c26528f22349b9a27a992b7d64736f6c634300081c0033","linkReferences":{}},"methodIdentifiers":{"UPGRADE_INTERFACE_VERSION()":"ad3cb1cc","_erc20_escrow()":"90eafe58","_escrow()":"0619c07a","_serviceRegistry()":"91d95f3e","beneficiaryWithdraw(uint256)":"cebae810","beneficiaryWithdrawERC20(uint256,address)":"58735e63","initialize(address)":"c4d66de8","owner()":"8da5cb5b","proxiableUUID()":"52d1902d","registerERC20Fulfillment(uint256,(uint256,string,string,uint8))":"ea5447e6","registerFulfillment(uint256,(uint256,string,string,uint8))":"b4b9bb7c","renounceOwnership()":"715018a6","setERC20Escrow(address)":"be03f65c","setEscrow(address)":"c10c3546","setService(uint256,uint16,address,address)":"2248d9d6","setServiceFulfillmentFee(uint256,uint16)":"bf75f119","setServiceRef(uint256,string)":"07073d91","setServiceRegistry(address)":"d7071b1f","transferOwnership(address)":"f2fde38b","upgradeToAndCall(address,bytes)":"4f1ef286","withdrawERC20Fees(uint256,address)":"eede444c","withdrawNativeFees(uint256)":"ecaec543"},"id":6}