{"abi":[{"type":"function","name":"UPGRADE_INTERFACE_VERSION","inputs":[],"outputs":[{"name":"","type":"string","internalType":"string"}],"stateMutability":"view"},{"type":"function","name":"_accumulatedFees","inputs":[{"name":"","type":"uint256","internalType":"uint256"}],"outputs":[{"name":"","type":"uint256","internalType":"uint256"}],"stateMutability":"view"},{"type":"function","name":"_authorized_refunds","inputs":[{"name":"","type":"uint256","internalType":"uint256"},{"name":"","type":"address","internalType":"address"}],"outputs":[{"name":"","type":"uint256","internalType":"uint256"}],"stateMutability":"view"},{"type":"function","name":"_deposits","inputs":[{"name":"","type":"uint256","internalType":"uint256"},{"name":"","type":"address","internalType":"address"}],"outputs":[{"name":"","type":"uint256","internalType":"uint256"}],"stateMutability":"view"},{"type":"function","name":"_fulfillableRegistry","inputs":[],"outputs":[{"name":"","type":"address","internalType":"address"}],"stateMutability":"view"},{"type":"function","name":"_fulfillmentRecordCount","inputs":[],"outputs":[{"name":"","type":"uint256","internalType":"uint256"}],"stateMutability":"view"},{"type":"function","name":"_manager","inputs":[],"outputs":[{"name":"","type":"address","internalType":"address"}],"stateMutability":"view"},{"type":"function","name":"_releaseablePool","inputs":[{"name":"","type":"uint256","internalType":"uint256"}],"outputs":[{"name":"","type":"uint256","internalType":"uint256"}],"stateMutability":"view"},{"type":"function","name":"_router","inputs":[],"outputs":[{"name":"","type":"address","internalType":"address"}],"stateMutability":"view"},{"type":"function","name":"_stableAccumulatedFees","inputs":[{"name":"","type":"uint256","internalType":"uint256"},{"name":"","type":"address","internalType":"address"}],"outputs":[{"name":"","type":"uint256","internalType":"uint256"}],"stateMutability":"view"},{"type":"function","name":"_stableReleasePools","inputs":[{"name":"","type":"uint256","internalType":"uint256"},{"name":"","type":"address","internalType":"address"}],"outputs":[{"name":"","type":"uint256","internalType":"uint256"}],"stateMutability":"view"},{"type":"function","name":"beneficiaryWithdraw","inputs":[{"name":"serviceID","type":"uint256","internalType":"uint256"}],"outputs":[],"stateMutability":"nonpayable"},{"type":"function","name":"beneficiaryWithdrawStable","inputs":[{"name":"serviceId","type":"uint256","internalType":"uint256"},{"name":"token","type":"address","internalType":"address"}],"outputs":[],"stateMutability":"nonpayable"},{"type":"function","name":"deposit","inputs":[{"name":"serviceID","type":"uint256","internalType":"uint256"},{"name":"fulfillmentRequest","type":"tuple","internalType":"struct FulFillmentRequest","components":[{"name":"payer","type":"address","internalType":"address"},{"name":"weiAmount","type":"uint256","internalType":"uint256"},{"name":"fiatAmount","type":"uint256","internalType":"uint256"},{"name":"serviceRef","type":"string","internalType":"string"}]},{"name":"feeAmount","type":"uint256","internalType":"uint256"}],"outputs":[],"stateMutability":"payable"},{"type":"function","name":"getDepositsFor","inputs":[{"name":"payer","type":"address","internalType":"address"},{"name":"serviceID","type":"uint256","internalType":"uint256"}],"outputs":[{"name":"amount","type":"uint256","internalType":"uint256"}],"stateMutability":"view"},{"type":"function","name":"getNativeFeesFor","inputs":[{"name":"serviceId","type":"uint256","internalType":"uint256"}],"outputs":[{"name":"amount","type":"uint256","internalType":"uint256"}],"stateMutability":"view"},{"type":"function","name":"getRefundsFor","inputs":[{"name":"payer","type":"address","internalType":"address"},{"name":"serviceID","type":"uint256","internalType":"uint256"}],"outputs":[{"name":"amount","type":"uint256","internalType":"uint256"}],"stateMutability":"view"},{"type":"function","name":"initialize","inputs":[{"name":"initialOwner","type":"address","internalType":"address"}],"outputs":[],"stateMutability":"nonpayable"},{"type":"function","name":"owner","inputs":[],"outputs":[{"name":"","type":"address","internalType":"address"}],"stateMutability":"view"},{"type":"function","name":"proxiableUUID","inputs":[],"outputs":[{"name":"","type":"bytes32","internalType":"bytes32"}],"stateMutability":"view"},{"type":"function","name":"record","inputs":[{"name":"id","type":"uint256","internalType":"uint256"}],"outputs":[{"name":"","type":"tuple","internalType":"struct FulFillmentRecord","components":[{"name":"id","type":"uint256","internalType":"uint256"},{"name":"serviceRef","type":"string","internalType":"string"},{"name":"fulfiller","type":"address","internalType":"address"},{"name":"externalID","type":"string","internalType":"string"},{"name":"payer","type":"address","internalType":"address"},{"name":"weiAmount","type":"uint256","internalType":"uint256"},{"name":"feeAmount","type":"uint256","internalType":"uint256"},{"name":"fiatAmount","type":"uint256","internalType":"uint256"},{"name":"entryTime","type":"uint256","internalType":"uint256"},{"name":"receiptURI","type":"string","internalType":"string"},{"name":"status","type":"uint8","internalType":"enum FulFillmentResultState"}]}],"stateMutability":"view"},{"type":"function","name":"recordsOf","inputs":[{"name":"payer","type":"address","internalType":"address"}],"outputs":[{"name":"","type":"uint256[]","internalType":"uint256[]"}],"stateMutability":"view"},{"type":"function","name":"registerFulfillment","inputs":[{"name":"serviceID","type":"uint256","internalType":"uint256"},{"name":"fulfillment","type":"tuple","internalType":"struct FulFillmentResult","components":[{"name":"id","type":"uint256","internalType":"uint256"},{"name":"externalID","type":"string","internalType":"string"},{"name":"receiptURI","type":"string","internalType":"string"},{"name":"status","type":"uint8","internalType":"enum FulFillmentResultState"}]}],"outputs":[{"name":"","type":"bool","internalType":"bool"}],"stateMutability":"nonpayable"},{"type":"function","name":"renounceOwnership","inputs":[],"outputs":[],"stateMutability":"nonpayable"},{"type":"function","name":"setFulfillableRegistry","inputs":[{"name":"fulfillableRegistry_","type":"address","internalType":"address"}],"outputs":[],"stateMutability":"nonpayable"},{"type":"function","name":"setManager","inputs":[{"name":"manager_","type":"address","internalType":"address"}],"outputs":[],"stateMutability":"nonpayable"},{"type":"function","name":"setRouter","inputs":[{"name":"router_","type":"address","internalType":"address"}],"outputs":[],"stateMutability":"nonpayable"},{"type":"function","name":"swapPoolsToStable","inputs":[{"name":"serviceId","type":"uint256","internalType":"uint256"},{"name":"recordId","type":"uint256","internalType":"uint256"},{"name":"swapData","type":"tuple","internalType":"struct SwapData","components":[{"name":"toToken","type":"address","internalType":"address"},{"name":"amount","type":"uint256","internalType":"uint256"},{"name":"callTo","type":"address","internalType":"address payable"},{"name":"callData","type":"bytes","internalType":"bytes"}]}],"outputs":[],"stateMutability":"nonpayable"},{"type":"function","name":"transferOwnership","inputs":[{"name":"newOwner","type":"address","internalType":"address"}],"outputs":[],"stateMutability":"nonpayable"},{"type":"function","name":"upgradeToAndCall","inputs":[{"name":"newImplementation","type":"address","internalType":"address"},{"name":"data","type":"bytes","internalType":"bytes"}],"outputs":[],"stateMutability":"payable"},{"type":"function","name":"withdrawAccumulatedFees","inputs":[{"name":"serviceId","type":"uint256","internalType":"uint256"}],"outputs":[],"stateMutability":"nonpayable"},{"type":"function","name":"withdrawAccumulatedFeesStable","inputs":[{"name":"serviceId","type":"uint256","internalType":"uint256"},{"name":"token","type":"address","internalType":"address"}],"outputs":[],"stateMutability":"nonpayable"},{"type":"function","name":"withdrawRefund","inputs":[{"name":"serviceID","type":"uint256","internalType":"uint256"},{"name":"recordId","type":"uint256","internalType":"uint256"}],"outputs":[{"name":"","type":"bool","internalType":"bool"}],"stateMutability":"nonpayable"},{"type":"event","name":"DepositReceived","inputs":[{"name":"record","type":"tuple","indexed":false,"internalType":"struct FulFillmentRecord","components":[{"name":"id","type":"uint256","internalType":"uint256"},{"name":"serviceRef","type":"string","internalType":"string"},{"name":"fulfiller","type":"address","internalType":"address"},{"name":"externalID","type":"string","internalType":"string"},{"name":"payer","type":"address","internalType":"address"},{"name":"weiAmount","type":"uint256","internalType":"uint256"},{"name":"feeAmount","type":"uint256","internalType":"uint256"},{"name":"fiatAmount","type":"uint256","internalType":"uint256"},{"name":"entryTime","type":"uint256","internalType":"uint256"},{"name":"receiptURI","type":"string","internalType":"string"},{"name":"status","type":"uint8","internalType":"enum FulFillmentResultState"}]}],"anonymous":false},{"type":"event","name":"FeeUpdated","inputs":[{"name":"serviceID","type":"uint256","indexed":false,"internalType":"uint256"},{"name":"amount","type":"uint256","indexed":false,"internalType":"uint256"}],"anonymous":false},{"type":"event","name":"FeesWithdrawn","inputs":[{"name":"serviceId","type":"uint256","indexed":true,"internalType":"uint256"},{"name":"beneficiary","type":"address","indexed":false,"internalType":"address"},{"name":"amount","type":"uint256","indexed":false,"internalType":"uint256"}],"anonymous":false},{"type":"event","name":"FulfillableRegistryUpdated","inputs":[{"name":"fulfillableRegistry","type":"address","indexed":true,"internalType":"address"}],"anonymous":false},{"type":"event","name":"Initialized","inputs":[{"name":"version","type":"uint64","indexed":false,"internalType":"uint64"}],"anonymous":false},{"type":"event","name":"ManagerUpdated","inputs":[{"name":"manager","type":"address","indexed":true,"internalType":"address"}],"anonymous":false},{"type":"event","name":"OwnershipTransferred","inputs":[{"name":"previousOwner","type":"address","indexed":true,"internalType":"address"},{"name":"newOwner","type":"address","indexed":true,"internalType":"address"}],"anonymous":false},{"type":"event","name":"PoolsSwappedToStable","inputs":[{"name":"serviceId","type":"uint256","indexed":true,"internalType":"uint256"},{"name":"aggregator","type":"address","indexed":true,"internalType":"address payable"},{"name":"toToken","type":"address","indexed":false,"internalType":"address"},{"name":"releaseableAmount","type":"uint256","indexed":false,"internalType":"uint256"},{"name":"feesAmount","type":"uint256","indexed":false,"internalType":"uint256"},{"name":"receivedStable","type":"uint256","indexed":false,"internalType":"uint256"}],"anonymous":false},{"type":"event","name":"RefundAuthorized","inputs":[{"name":"payee","type":"address","indexed":true,"internalType":"address"},{"name":"weiAmount","type":"uint256","indexed":false,"internalType":"uint256"}],"anonymous":false},{"type":"event","name":"RefundWithdrawn","inputs":[{"name":"payee","type":"address","indexed":true,"internalType":"address"},{"name":"weiAmount","type":"uint256","indexed":false,"internalType":"uint256"},{"name":"recordId","type":"uint256","indexed":false,"internalType":"uint256"}],"anonymous":false},{"type":"event","name":"RouterUpdated","inputs":[{"name":"router","type":"address","indexed":true,"internalType":"address"}],"anonymous":false},{"type":"event","name":"Upgraded","inputs":[{"name":"implementation","type":"address","indexed":true,"internalType":"address"}],"anonymous":false},{"type":"error","name":"AddressEmptyCode","inputs":[{"name":"target","type":"address","internalType":"address"}]},{"type":"error","name":"AddressInsufficientBalance","inputs":[{"name":"account","type":"address","internalType":"address"}]},{"type":"error","name":"AggregatorCallFailed","inputs":[]},{"type":"error","name":"ERC1967InvalidImplementation","inputs":[{"name":"implementation","type":"address","internalType":"address"}]},{"type":"error","name":"ERC1967NonPayable","inputs":[]},{"type":"error","name":"FailedInnerCall","inputs":[]},{"type":"error","name":"FulfillmentAlreadyRegistered","inputs":[]},{"type":"error","name":"FulfillmentRecordDoesNotExist","inputs":[]},{"type":"error","name":"InsufficientCombinedBalance","inputs":[{"name":"totalAvailable","type":"uint256","internalType":"uint256"},{"name":"amount","type":"uint256","internalType":"uint256"}]},{"type":"error","name":"InvalidAddress","inputs":[{"name":"address_","type":"address","internalType":"address"}]},{"type":"error","name":"InvalidCaller","inputs":[{"name":"caller","type":"address","internalType":"address"}]},{"type":"error","name":"InvalidInitialization","inputs":[]},{"type":"error","name":"InvalidManager","inputs":[{"name":"manager","type":"address","internalType":"address"}]},{"type":"error","name":"InvalidRouter","inputs":[{"name":"router_","type":"address","internalType":"address"}]},{"type":"error","name":"InvalidSwapAmount","inputs":[]},{"type":"error","name":"InvalidTokenAddress","inputs":[]},{"type":"error","name":"NoBalanceToRelease","inputs":[]},{"type":"error","name":"NoFeesToWithdraw","inputs":[]},{"type":"error","name":"NoRefunds","inputs":[{"name":"refundee","type":"address","internalType":"address"},{"name":"serviceID","type":"uint256","internalType":"uint256"}]},{"type":"error","name":"NotInitializing","inputs":[]},{"type":"error","name":"Overflow","inputs":[{"name":"reason","type":"uint8","internalType":"uint8"}]},{"type":"error","name":"OwnableInvalidOwner","inputs":[{"name":"owner","type":"address","internalType":"address"}]},{"type":"error","name":"OwnableUnauthorizedAccount","inputs":[{"name":"account","type":"address","internalType":"address"}]},{"type":"error","name":"ReentrancyGuardReentrantCall","inputs":[]},{"type":"error","name":"RefundsTooBig","inputs":[]},{"type":"error","name":"SafeERC20FailedOperation","inputs":[{"name":"token","type":"address","internalType":"address"}]},{"type":"error","name":"UUPSUnauthorizedCallContext","inputs":[]},{"type":"error","name":"UUPSUnsupportedProxiableUUID","inputs":[{"name":"slot","type":"bytes32","internalType":"bytes32"}]},{"type":"error","name":"UnsupportedStatus","inputs":[{"name":"status","type":"uint8","internalType":"enum FulFillmentResultState"}]}],"bytecode":{"object":"0x60a06040523060805234801561001457600080fd5b5061001d610022565b6100d4565b7ff0c57e16840df040f15088dc2f81fe391c3923bec73e23a9662efc9c229c6a00805468010000000000000000900460ff16156100725760405163f92ee8a960e01b815260040160405180910390fd5b80546001600160401b03908116146100d15780546001600160401b0319166001600160401b0390811782556040519081527fc7f505b2f371ae2175ee4913f4499e1f2633a7b5936321eed1cdaeb6115181d29060200160405180910390a15b50565b6080516144ea6100fd60003960008181612594015281816125bd01526127d901526144ea6000f3fe6080604052600436106101fe5760003560e01c8063ae4d49ba1161011d578063d4b59fed116100b0578063e53025ed1161007f578063edae876f11610064578063edae876f1461073d578063f0329f6b1461076a578063f2fde38b1461079757600080fd5b8063e53025ed146106e3578063e5b7e2b41461071057600080fd5b8063d4b59fed1461061d578063dbc85c5a1461066b578063ddb7d5df1461068b578063e428c802146106ab57600080fd5b8063c0d78655116100ec578063c0d786551461059d578063c4d66de8146105bd578063cebae810146105dd578063d0ebdbe7146105fd57600080fd5b8063ae4d49ba14610500578063b4b9bb7c1461052d578063b7aeb6ef1461055d578063bc8aeb321461057d57600080fd5b806362e2a11611610195578063857e57f611610164578063857e57f6146103fb5780638da5cb5b146104285780638eb48beb14610472578063ad3cb1cc146104aa57600080fd5b806362e2a116146103855780636928c271146103bd578063715018a6146103d0578063835d140e146103e557600080fd5b806341ccb1b8116101d157806341ccb1b8146103055780634f1ef2861461032557806352d1902d14610338578063596e250d1461034d57600080fd5b80630b28a076146102035780630c4393b9146102645780631a016c8b146102b65780632c16cd8a146102d8575b600080fd5b34801561020f57600080fd5b5061025161021e366004613ab0565b6000908152600b6020908152604080832073ffffffffffffffffffffffffffffffffffffffff9094168352929052205490565b6040519081526020015b60405180910390f35b34801561027057600080fd5b506006546102919073ffffffffffffffffffffffffffffffffffffffff1681565b60405173ffffffffffffffffffffffffffffffffffffffff909116815260200161025b565b3480156102c257600080fd5b506102d66102d1366004613adc565b6107b7565b005b3480156102e457600080fd5b506102f86102f3366004613b33565b610ad6565b60405161025b9190613c24565b34801561031157600080fd5b506102d6610320366004613d5f565b610d5e565b6102d6610333366004613e7f565b610df0565b34801561034457600080fd5b50610251610e0b565b34801561035957600080fd5b50610251610368366004613d5f565b600b60209081526000928352604080842090915290825290205481565b34801561039157600080fd5b506102516103a0366004613d5f565b600d60209081526000928352604080842090915290825290205481565b6102d66103cb366004613f03565b610e3a565b3480156103dc57600080fd5b506102d661128e565b3480156103f157600080fd5b5061025160035481565b34801561040757600080fd5b50610251610416366004613b33565b60009081526009602052604090205490565b34801561043457600080fd5b507f9016d09d72d40fdae2fd8ceac6b6234c7706214fd39c1cd1e609a0528c1993005473ffffffffffffffffffffffffffffffffffffffff16610291565b34801561047e57600080fd5b5061025161048d366004613d5f565b600c60209081526000928352604080842090915290825290205481565b3480156104b657600080fd5b506104f36040518060400160405280600581526020017f352e302e3000000000000000000000000000000000000000000000000000000081525081565b60405161025b9190613faf565b34801561050c57600080fd5b5061025161051b366004613b33565b60086020526000908152604090205481565b34801561053957600080fd5b5061054d610548366004613fc2565b6112a2565b604051901515815260200161025b565b34801561056957600080fd5b506102d6610578366004613b33565b61172c565b34801561058957600080fd5b506102d6610598366004613d5f565b611923565b3480156105a957600080fd5b506102d66105b836600461408f565b611988565b3480156105c957600080fd5b506102d66105d836600461408f565b611a64565b3480156105e957600080fd5b506102d66105f8366004613b33565b611bf9565b34801561060957600080fd5b506102d661061836600461408f565b611d95565b34801561062957600080fd5b50610251610638366004613ab0565b6000908152600a6020908152604080832073ffffffffffffffffffffffffffffffffffffffff9094168352929052205490565b34801561067757600080fd5b506102d661068636600461408f565b611e71565b34801561069757600080fd5b5061054d6106a63660046140ac565b611f59565b3480156106b757600080fd5b506102516106c6366004613d5f565b600a60209081526000928352604080842090915290825290205481565b3480156106ef57600080fd5b506102516106fe366004613b33565b60096020526000908152604090205481565b34801561071c57600080fd5b5061073061072b36600461408f565b611f99565b60405161025b91906140ce565b34801561074957600080fd5b506005546102919073ffffffffffffffffffffffffffffffffffffffff1681565b34801561077657600080fd5b506004546102919073ffffffffffffffffffffffffffffffffffffffff1681565b3480156107a357600080fd5b506102d66107b236600461408f565b612012565b6107bf612073565b60045473ffffffffffffffffffffffffffffffffffffffff163314610817576040517fcbd9d2e00000000000000000000000000000000000000000000000000000000081523360048201526024015b60405180910390fd5b60008281526001602081815260408084208151610160810190925280548252928301805491939284019161084a90614111565b80601f016020809104026020016040519081016040528092919081815260200182805461087690614111565b80156108c35780601f10610898576101008083540402835291602001916108c3565b820191906000526020600020905b8154815290600101906020018083116108a657829003601f168201915b5050509183525050600282015473ffffffffffffffffffffffffffffffffffffffff16602082015260038201805460409092019161090090614111565b80601f016020809104026020016040519081016040528092919081815260200182805461092c90614111565b80156109795780601f1061094e57610100808354040283529160200191610979565b820191906000526020600020905b81548152906001019060200180831161095c57829003601f168201915b5050509183525050600482015473ffffffffffffffffffffffffffffffffffffffff166020820152600582015460408201526006820154606082015260078201546080820152600882015460a082015260098201805460c0909201916109de90614111565b80601f0160208091040260200160405190810160405280929190818152602001828054610a0a90614111565b8015610a575780601f10610a2c57610100808354040283529160200191610a57565b820191906000526020600020905b815481529060010190602001808311610a3a57829003601f168201915b5050509183525050600a82015460209091019060ff166003811115610a7e57610a7e613bba565b6003811115610a8f57610a8f613bba565b9052509050610aa7600c600d600860098887876120f4565b50610ad160017f9b779b17422d0df92223018b32b4d1fa46e071723d6817e2486d003becc55f0055565b505050565b610ade6139f8565b6000828152600160208181526040928390208351610160810190945280548452918201805491840191610b1090614111565b80601f0160208091040260200160405190810160405280929190818152602001828054610b3c90614111565b8015610b895780601f10610b5e57610100808354040283529160200191610b89565b820191906000526020600020905b815481529060010190602001808311610b6c57829003601f168201915b5050509183525050600282015473ffffffffffffffffffffffffffffffffffffffff166020820152600382018054604090920191610bc690614111565b80601f0160208091040260200160405190810160405280929190818152602001828054610bf290614111565b8015610c3f5780601f10610c1457610100808354040283529160200191610c3f565b820191906000526020600020905b815481529060010190602001808311610c2257829003601f168201915b5050509183525050600482015473ffffffffffffffffffffffffffffffffffffffff166020820152600582015460408201526006820154606082015260078201546080820152600882015460a082015260098201805460c090920191610ca490614111565b80601f0160208091040260200160405190810160405280929190818152602001828054610cd090614111565b8015610d1d5780601f10610cf257610100808354040283529160200191610d1d565b820191906000526020600020905b815481529060010190602001808311610d0057829003601f168201915b5050509183525050600a82015460209091019060ff166003811115610d4457610d44613bba565b6003811115610d5557610d55613bba565b90525092915050565b60045473ffffffffffffffffffffffffffffffffffffffff163314610db1576040517fcbd9d2e000000000000000000000000000000000000000000000000000000000815233600482015260240161080e565b610db9612073565b610dc38282612432565b610dec60017f9b779b17422d0df92223018b32b4d1fa46e071723d6817e2486d003becc55f0055565b5050565b610df861257c565b610e0182612680565b610dec8282612688565b6000610e156127c1565b507f360894a13ba1a3210667c828492db98dca3e2076cc3735a920a3ca505d382bbc90565b610e42612073565b60055473ffffffffffffffffffffffffffffffffffffffff163314610e95576040517fd7f7333400000000000000000000000000000000000000000000000000000000815233600482015260240161080e565b6007546040517fef0e239b0000000000000000000000000000000000000000000000000000000081526004810185905260009173ffffffffffffffffffffffffffffffffffffffff169063ef0e239b90602401608060405180830381865afa158015610f05573d6000803e3d6000fd5b505050506040513d601f19601f82011682018060405250810190610f299190614164565b5083516000868152600a6020908152604080832073ffffffffffffffffffffffffffffffffffffffff90941683529290529081205491925034919080610f6f8484612830565b9150915081610fad576040517fc0d7d3cc0000000000000000000000000000000000000000000000000000000081526006600482015260240161080e565b86516000898152600a6020908152604080832073ffffffffffffffffffffffffffffffffffffffff94851684528252808320859055805161016081018252835481526060808d0151828501528a83015186168284015282518085018452858152908201528b519094166080850152818b015160a085015260c084018a9052808b015160e0850152426101008501528051918201905281815261012083015290610140810160028152509050600160008082825461106a919061421e565b92505081905550600160036000828254611084919061421e565b90915550508051600090815260016020818152604090922083518155918301518392918201906110b4908261427f565b5060408201516002820180547fffffffffffffffffffffffff00000000000000000000000000000000000000001673ffffffffffffffffffffffffffffffffffffffff90921691909117905560608201516003820190611114908261427f565b5060808201516004820180547fffffffffffffffffffffffff00000000000000000000000000000000000000001673ffffffffffffffffffffffffffffffffffffffff90921691909117905560a0820151600582015560c0820151600682015560e082015160078201556101008201516008820155610120820151600982019061119e908261427f565b50610140820151600a820180547fffffffffffffffffffffffffffffffffffffffffffffffffffffffffffffff001660018360038111156111e1576111e1613bba565b02179055505050608081015173ffffffffffffffffffffffffffffffffffffffff166000908152600260209081526040808320845181546001810183559185529290932090920155517f600d16f62674ed495bf7267a98a253325b6f464cbc486bf1b9a66e101551e4e590611257908390613c24565b60405180910390a1505050505050610ad160017f9b779b17422d0df92223018b32b4d1fa46e071723d6817e2486d003becc55f0055565b611296612859565b6112a060006128e7565b565b60006112ac612073565b60045473ffffffffffffffffffffffffffffffffffffffff1633146112ff576040517f294f8a1700000000000000000000000000000000000000000000000000000000815233600482015260240161080e565b81516000908152600160205260408120549003611348576040517f54446f7100000000000000000000000000000000000000000000000000000000815260040160405180910390fd5b600282516000908152600160205260409020600a015460ff16600381111561137257611372613bba565b146113a9576040517fcdc7646400000000000000000000000000000000000000000000000000000000815260040160405180910390fd5b8151600090815260016020818152604080842060040154878552600a835281852073ffffffffffffffffffffffffffffffffffffffff90911680865290835281852054875186529390925280842060050154865185529084206006015491939091611415908390612830565b9150600090508660600151600381111561143157611431613bba565b036114a15761144187858361297d565b606086015186516000908152600160208190526040909120600a01805490917fffffffffffffffffffffffffffffffffffffffffffffffffffffffffffffff009091169083600381111561149757611497613bba565b02179055506116f5565b6001866060015160038111156114b9576114b9613bba565b146114f65785606001516040517fab8cc2a800000000000000000000000000000000000000000000000000000000815260040161080e9190614398565b85516000908152600160209081526040808320600601548a8452600990925282205482916115249190612830565b9150915081611562576040517fc0d7d3cc0000000000000000000000000000000000000000000000000000000081526003600482015260240161080e565b60008981526009602090815260408083208490556008909152812054819061158a9087612830565b91509150816115c7576040517fc0d7d3cc00000000000000000000000000000000000000000000000000000000815260048181015260240161080e565b6000806115d48988612afb565b9150915081611612576040517fc0d7d3cc0000000000000000000000000000000000000000000000000000000081526005600482015260240161080e565b60008d8152600860209081526040808320869055600a825280832073ffffffffffffffffffffffffffffffffffffffff8e16845282528083208490558e8101518f51845260019092529091206009019061166c908261427f565b5060608c01518c516000908152600160208190526040909120600a01805490917fffffffffffffffffffffffffffffffffffffffffffffffffffffffffffffff00909116908360038111156116c3576116c3613bba565b02179055506020808d01518d51600090815260019092526040909120600301906116ed908261427f565b505050505050505b600194505050505061172660017f9b779b17422d0df92223018b32b4d1fa46e071723d6817e2486d003becc55f0055565b92915050565b611734612073565b60045473ffffffffffffffffffffffffffffffffffffffff163314611787576040517f294f8a1700000000000000000000000000000000000000000000000000000000815233600482015260240161080e565b6007546040517fef0e239b0000000000000000000000000000000000000000000000000000000081526004810183905260009173ffffffffffffffffffffffffffffffffffffffff169063ef0e239b90602401608060405180830381865afa1580156117f7573d6000803e3d6000fd5b505050506040513d601f19601f8201168201806040525081019061181b9190614164565b50600083815260096020526040812054919250819003611867576040517f6806da6800000000000000000000000000000000000000000000000000000000815260040160405180910390fd5b600083815260096020908152604082209190915582015161189e9073ffffffffffffffffffffffffffffffffffffffff1682612b1d565b6020808301516040805173ffffffffffffffffffffffffffffffffffffffff909216825291810183905284917f538e1189c5c6413ddd9194fe5e947ef693ea737bd368a9e0aca4c286854c9bd8910160405180910390a2505061192060017f9b779b17422d0df92223018b32b4d1fa46e071723d6817e2486d003becc55f0055565b50565b60045473ffffffffffffffffffffffffffffffffffffffff163314611976576040517fcbd9d2e000000000000000000000000000000000000000000000000000000000815233600482015260240161080e565b61197e612073565b610dc38282612bf3565b611990612859565b73ffffffffffffffffffffffffffffffffffffffff81166119f5576040517f8e4c8aa600000000000000000000000000000000000000000000000000000000815273ffffffffffffffffffffffffffffffffffffffff8216600482015260240161080e565b600580547fffffffffffffffffffffffff00000000000000000000000000000000000000001673ffffffffffffffffffffffffffffffffffffffff83169081179091556040517f7aed1d3e8155a07ccf395e44ea3109a0e2d6c9b29bbbe9f142d9790596f4dc8090600090a250565b7ff0c57e16840df040f15088dc2f81fe391c3923bec73e23a9662efc9c229c6a00805468010000000000000000810460ff16159067ffffffffffffffff16600081158015611aaf5750825b905060008267ffffffffffffffff166001148015611acc5750303b155b905081158015611ada575080155b15611b11576040517ff92ee8a900000000000000000000000000000000000000000000000000000000815260040160405180910390fd5b84547fffffffffffffffffffffffffffffffffffffffffffffffff00000000000000001660011785558315611b725784547fffffffffffffffffffffffffffffffffffffffffffffff00ffffffffffffffff16680100000000000000001785555b611b7a612d37565b611b82612d3f565b611b8b86612d4f565b60016000558315611bf15784547fffffffffffffffffffffffffffffffffffffffffffffff00ffffffffffffffff168555604051600181527fc7f505b2f371ae2175ee4913f4499e1f2633a7b5936321eed1cdaeb6115181d29060200160405180910390a15b505050505050565b611c01612073565b60045473ffffffffffffffffffffffffffffffffffffffff163314611c54576040517f294f8a1700000000000000000000000000000000000000000000000000000000815233600482015260240161080e565b6007546040517fef0e239b0000000000000000000000000000000000000000000000000000000081526004810183905260009173ffffffffffffffffffffffffffffffffffffffff169063ef0e239b90602401608060405180830381865afa158015611cc4573d6000803e3d6000fd5b505050506040513d601f19601f82011682018060405250810190611ce89190614164565b5060008381526008602052604081205491925003611d32576040517f6e7e9ea500000000000000000000000000000000000000000000000000000000815260040160405180910390fd5b600082815260086020908152604082208054929055820151611d6a9073ffffffffffffffffffffffffffffffffffffffff1682612b1d565b505061192060017f9b779b17422d0df92223018b32b4d1fa46e071723d6817e2486d003becc55f0055565b611d9d612859565b73ffffffffffffffffffffffffffffffffffffffff8116611e02576040517f8e4c8aa600000000000000000000000000000000000000000000000000000000815273ffffffffffffffffffffffffffffffffffffffff8216600482015260240161080e565b600480547fffffffffffffffffffffffff00000000000000000000000000000000000000001673ffffffffffffffffffffffffffffffffffffffff83169081179091556040517f2c1c11af44aa5608f1dca38c00275c30ea091e02417d36e70e9a1538689c433d90600090a250565b611e79612859565b73ffffffffffffffffffffffffffffffffffffffff8116611ede576040517f8e4c8aa600000000000000000000000000000000000000000000000000000000815273ffffffffffffffffffffffffffffffffffffffff8216600482015260240161080e565b6006805473ffffffffffffffffffffffffffffffffffffffff83167fffffffffffffffffffffffff0000000000000000000000000000000000000000918216811790925560078054909116821790556040517f12fd82a8fae6400d0456d521504e56c94dd90726268fd158b0584ec682e1b5b190600090a250565b6000611f63612073565b611f6d8383612d60565b50600161172660017f9b779b17422d0df92223018b32b4d1fa46e071723d6817e2486d003becc55f0055565b73ffffffffffffffffffffffffffffffffffffffff811660009081526002602090815260409182902080548351818402810184019094528084526060939283018282801561200657602002820191906000526020600020905b815481526020019060010190808311611ff2575b50505050509050919050565b61201a612859565b73ffffffffffffffffffffffffffffffffffffffff811661206a576040517f1e4fbdf70000000000000000000000000000000000000000000000000000000081526000600482015260240161080e565b611920816128e7565b7f9b779b17422d0df92223018b32b4d1fa46e071723d6817e2486d003becc55f0080547ffffffffffffffffffffffffffffffffffffffffffffffffffffffffffffffffe016120ee576040517f3ee5aeb500000000000000000000000000000000000000000000000000000000815260040160405180910390fd5b60029055565b6000612103602084018461408f565b73ffffffffffffffffffffffffffffffffffffffff1603612150576040517f1eb00b0600000000000000000000000000000000000000000000000000000000815260040160405180910390fd5b816020013560000361218e576040517fe346d81d00000000000000000000000000000000000000000000000000000000815260040160405180910390fd5b600083815260208681526040808320549187905282205490916121b1828461421e565b905084602001358110156121fe576040517f29b1c811000000000000000000000000000000000000000000000000000000008152600481018290526020860135602482015260440161080e565b61220c838560a0015161320c565b61221690846143a6565b600087815260208a9052604090205560c084015161223590839061320c565b61223f90836143a6565b600087815260208990526040808220929092559061226d90612267906060890190890161408f565b87613224565b905060008061228588602001358860a0015185613431565b91509150818d60008b815260200190815260200160002060008a60000160208101906122b1919061408f565b73ffffffffffffffffffffffffffffffffffffffff1673ffffffffffffffffffffffffffffffffffffffff16815260200190815260200160002060008282546122fa919061421e565b9091555050600089815260208d8152604082208392909161231d908c018c61408f565b73ffffffffffffffffffffffffffffffffffffffff1673ffffffffffffffffffffffffffffffffffffffff1681526020019081526020016000206000828254612366919061421e565b9091555061237c90506060890160408a0161408f565b73ffffffffffffffffffffffffffffffffffffffff16897fca3505fbd3a47a94271554014329e93911d2e5eb9e0fdf1d50d5f67cd31603a96123c160208c018c61408f565b6040805173ffffffffffffffffffffffffffffffffffffffff9092168252602082018b905281018990526060810187905260800160405180910390a350505050505050505050505050565b60017f9b779b17422d0df92223018b32b4d1fa46e071723d6817e2486d003becc55f0055565b6007546040517fef0e239b0000000000000000000000000000000000000000000000000000000081526004810184905260009173ffffffffffffffffffffffffffffffffffffffff169063ef0e239b90602401608060405180830381865afa1580156124a2573d6000803e3d6000fd5b505050506040513d601f19601f820116820180604052508101906124c69190614164565b506000848152600c6020908152604080832073ffffffffffffffffffffffffffffffffffffffff8716845290915281205491925003612531576040517f6e7e9ea500000000000000000000000000000000000000000000000000000000815260040160405180910390fd5b6000838152600c6020908152604080832073ffffffffffffffffffffffffffffffffffffffff8616808552908352908320805493905590830151612576919083613469565b50505050565b3073ffffffffffffffffffffffffffffffffffffffff7f000000000000000000000000000000000000000000000000000000000000000016148061264957507f000000000000000000000000000000000000000000000000000000000000000073ffffffffffffffffffffffffffffffffffffffff166126307f360894a13ba1a3210667c828492db98dca3e2076cc3735a920a3ca505d382bbc5473ffffffffffffffffffffffffffffffffffffffff1690565b73ffffffffffffffffffffffffffffffffffffffff1614155b156112a0576040517fe07c8dba00000000000000000000000000000000000000000000000000000000815260040160405180910390fd5b611920612859565b8173ffffffffffffffffffffffffffffffffffffffff166352d1902d6040518163ffffffff1660e01b8152600401602060405180830381865afa92505050801561270d575060408051601f3d9081017fffffffffffffffffffffffffffffffffffffffffffffffffffffffffffffffe016820190925261270a918101906143b9565b60015b61275b576040517f4c9c8ce300000000000000000000000000000000000000000000000000000000815273ffffffffffffffffffffffffffffffffffffffff8316600482015260240161080e565b7f360894a13ba1a3210667c828492db98dca3e2076cc3735a920a3ca505d382bbc81146127b7576040517faa1d49a40000000000000000000000000000000000000000000000000000000081526004810182905260240161080e565b610ad183836134f6565b3073ffffffffffffffffffffffffffffffffffffffff7f000000000000000000000000000000000000000000000000000000000000000016146112a0576040517fe07c8dba00000000000000000000000000000000000000000000000000000000815260040160405180910390fd5b6000808383018481101561284b576000809250925050612852565b6001925090505b9250929050565b336128987f9016d09d72d40fdae2fd8ceac6b6234c7706214fd39c1cd1e609a0528c1993005473ffffffffffffffffffffffffffffffffffffffff1690565b73ffffffffffffffffffffffffffffffffffffffff16146112a0576040517f118cdaa700000000000000000000000000000000000000000000000000000000815233600482015260240161080e565b7f9016d09d72d40fdae2fd8ceac6b6234c7706214fd39c1cd1e609a0528c19930080547fffffffffffffffffffffffff0000000000000000000000000000000000000000811673ffffffffffffffffffffffffffffffffffffffff848116918217845560405192169182907f8be0079c531659141344cd1fd0a4f28419497f9722a3daafe3b4186f6b6457e090600090a3505050565b6000838152600b6020908152604080832073ffffffffffffffffffffffffffffffffffffffff861680855290835281842054878552600a845282852091855292528220549091806129ce8486612830565b9150915081612a0c576040517fc0d7d3cc0000000000000000000000000000000000000000000000000000000081526001600482015260240161080e565b84831015612a46576040517f1eb8e4e900000000000000000000000000000000000000000000000000000000815260040160405180910390fd5b6000612a528487612afb565b60008a8152600a6020908152604080832073ffffffffffffffffffffffffffffffffffffffff8d16845290915290208190559150612a8d9050565b6000888152600b6020908152604080832073ffffffffffffffffffffffffffffffffffffffff8b1680855290835292819020859055518881527f7fd36617a06b55977ffa06f8dc94b5ec0650c2b7b353fa22c7d0f211284dc749910160405180910390a25050505050505050565b60008083831115612b1157506000905080612852565b50600193919092039150565b80471015612b59576040517fcd78605900000000000000000000000000000000000000000000000000000000815230600482015260240161080e565b60008273ffffffffffffffffffffffffffffffffffffffff168260405160006040518083038185875af1925050503d8060008114612bb3576040519150601f19603f3d011682016040523d82523d6000602084013e612bb8565b606091505b5050905080610ad1576040517f1425ea4200000000000000000000000000000000000000000000000000000000815260040160405180910390fd5b6007546040517fef0e239b0000000000000000000000000000000000000000000000000000000081526004810184905260009173ffffffffffffffffffffffffffffffffffffffff169063ef0e239b90602401608060405180830381865afa158015612c63573d6000803e3d6000fd5b505050506040513d601f19601f82011682018060405250810190612c879190614164565b506000848152600d6020908152604080832073ffffffffffffffffffffffffffffffffffffffff8716845290915281205491925003612cf2576040517f6e7e9ea500000000000000000000000000000000000000000000000000000000815260040160405180910390fd5b6000838152600d6020908152604080832073ffffffffffffffffffffffffffffffffffffffff8616808552908352908320805493905590830151612576919083613469565b6112a0613559565b612d47613559565b6112a06135c0565b612d57613559565b611920816135c8565b60055473ffffffffffffffffffffffffffffffffffffffff163314612db3576040517fd7f7333400000000000000000000000000000000000000000000000000000000815233600482015260240161080e565b600081815260016020818152604080842081516101608101909252805482529283018054919392840191612de690614111565b80601f0160208091040260200160405190810160405280929190818152602001828054612e1290614111565b8015612e5f5780601f10612e3457610100808354040283529160200191612e5f565b820191906000526020600020905b815481529060010190602001808311612e4257829003601f168201915b5050509183525050600282015473ffffffffffffffffffffffffffffffffffffffff166020820152600382018054604090920191612e9c90614111565b80601f0160208091040260200160405190810160405280929190818152602001828054612ec890614111565b8015612f155780601f10612eea57610100808354040283529160200191612f15565b820191906000526020600020905b815481529060010190602001808311612ef857829003601f168201915b5050509183525050600482015473ffffffffffffffffffffffffffffffffffffffff166020820152600582015460408201526006820154606082015260078201546080820152600882015460a082015260098201805460c090920191612f7a90614111565b80601f0160208091040260200160405190810160405280929190818152602001828054612fa690614111565b8015612ff35780601f10612fc857610100808354040283529160200191612ff3565b820191906000526020600020905b815481529060010190602001808311612fd657829003601f168201915b5050509183525050600a82015460209091019060ff16600381111561301a5761301a613bba565b600381111561302b5761302b613bba565b815250509050600061306f8260800151856000908152600b6020908152604080832073ffffffffffffffffffffffffffffffffffffffff9094168352929052205490565b9050806000036130d05760808201516040517fd89b7b0400000000000000000000000000000000000000000000000000000000815273ffffffffffffffffffffffffffffffffffffffff90911660048201526024810185905260440161080e565b60006130ed8360c001518460a0015161283090919063ffffffff16565b9150508181111561312a576040517f1eb8e4e900000000000000000000000000000000000000000000000000000000815260040160405180910390fd5b60006131368383612afb565b60808601516000898152600b6020908152604080832073ffffffffffffffffffffffffffffffffffffffff90941683529290522081905591506131769050565b600361014085015260808401516131a39073ffffffffffffffffffffffffffffffffffffffff1683612b1d565b836080015173ffffffffffffffffffffffffffffffffffffffff167f432bf07925e3f493ca5c2e315cbff9cfe373763d71c4021dfd0fff69ee5413978386600001516040516131fc929190918252602082015260400190565b60405180910390a2505050505050565b600081831061321b578161321d565b825b9392505050565b600080613234602084018461408f565b6040517f70a0823100000000000000000000000000000000000000000000000000000000815230600482015273ffffffffffffffffffffffffffffffffffffffff91909116906370a0823190602401602060405180830381865afa1580156132a0573d6000803e3d6000fd5b505050506040513d601f19601f820116820180604052508101906132c491906143b9565b9050600073ffffffffffffffffffffffffffffffffffffffff851660208501356132f160608701876143d2565b6040516132ff929190614437565b60006040518083038185875af1925050503d806000811461333c576040519150601f19603f3d011682016040523d82523d6000602084013e613341565b606091505b505090508061337c576040517fd0bbd5ad00000000000000000000000000000000000000000000000000000000815260040160405180910390fd5b600061338b602086018661408f565b6040517f70a0823100000000000000000000000000000000000000000000000000000000815230600482015273ffffffffffffffffffffffffffffffffffffffff91909116906370a0823190602401602060405180830381865afa1580156133f7573d6000803e3d6000fd5b505050506040513d601f19601f8201168201806040525081019061341b91906143b9565b905061342783826143a6565b9695505050505050565b6000808061343f84866135d0565b915061344d9050818761360d565b935061345b90508484612afb565b939793965092945050505050565b6040805173ffffffffffffffffffffffffffffffffffffffff8416602482015260448082018490528251808303909101815260649091019091526020810180517bffffffffffffffffffffffffffffffffffffffffffffffffffffffff167fa9059cbb00000000000000000000000000000000000000000000000000000000179052610ad1908490613640565b6134ff826136d6565b60405173ffffffffffffffffffffffffffffffffffffffff8316907fbc7cd75a20ee27fd9adebab32041f755214dbc6bffa90cc0225b39da2e5c2d3b90600090a280511561355157610ad182826137a5565b610dec613828565b7ff0c57e16840df040f15088dc2f81fe391c3923bec73e23a9662efc9c229c6a005468010000000000000000900460ff166112a0576040517fd7e6bcf800000000000000000000000000000000000000000000000000000000815260040160405180910390fd5b61240c613559565b61201a613559565b600080836000036135e75750600190506000612852565b838302838582816135fa576135fa614447565b041461284b576000809250925050612852565b6000808260000361362357506000905080612852565b600183858161363457613634614447565b04915091509250929050565b600061366273ffffffffffffffffffffffffffffffffffffffff841683613860565b905080516000141580156136875750808060200190518101906136859190614476565b155b15610ad1576040517f5274afe700000000000000000000000000000000000000000000000000000000815273ffffffffffffffffffffffffffffffffffffffff8416600482015260240161080e565b8073ffffffffffffffffffffffffffffffffffffffff163b60000361373f576040517f4c9c8ce300000000000000000000000000000000000000000000000000000000815273ffffffffffffffffffffffffffffffffffffffff8216600482015260240161080e565b7f360894a13ba1a3210667c828492db98dca3e2076cc3735a920a3ca505d382bbc80547fffffffffffffffffffffffff00000000000000000000000000000000000000001673ffffffffffffffffffffffffffffffffffffffff92909216919091179055565b60606000808473ffffffffffffffffffffffffffffffffffffffff16846040516137cf9190614498565b600060405180830381855af49150503d806000811461380a576040519150601f19603f3d011682016040523d82523d6000602084013e61380f565b606091505b509150915061381f85838361386e565b95945050505050565b34156112a0576040517fb398979f00000000000000000000000000000000000000000000000000000000815260040160405180910390fd5b606061321d838360006138fd565b6060826138835761387e826139b6565b61321d565b81511580156138a7575073ffffffffffffffffffffffffffffffffffffffff84163b155b156138f6576040517f9996b31500000000000000000000000000000000000000000000000000000000815273ffffffffffffffffffffffffffffffffffffffff8516600482015260240161080e565b5092915050565b60608147101561393b576040517fcd78605900000000000000000000000000000000000000000000000000000000815230600482015260240161080e565b6000808573ffffffffffffffffffffffffffffffffffffffff1684866040516139649190614498565b60006040518083038185875af1925050503d80600081146139a1576040519150601f19603f3d011682016040523d82523d6000602084013e6139a6565b606091505b509150915061342786838361386e565b8051156139c65780518082602001fd5b6040517f1425ea4200000000000000000000000000000000000000000000000000000000815260040160405180910390fd5b6040518061016001604052806000815260200160608152602001600073ffffffffffffffffffffffffffffffffffffffff16815260200160608152602001600073ffffffffffffffffffffffffffffffffffffffff168152602001600081526020016000815260200160008152602001600081526020016060815260200160006003811115613a8957613a89613bba565b905290565b73ffffffffffffffffffffffffffffffffffffffff8116811461192057600080fd5b60008060408385031215613ac357600080fd5b8235613ace81613a8e565b946020939093013593505050565b600080600060608486031215613af157600080fd5b8335925060208401359150604084013567ffffffffffffffff811115613b1657600080fd5b840160808187031215613b2857600080fd5b809150509250925092565b600060208284031215613b4557600080fd5b5035919050565b60005b83811015613b67578181015183820152602001613b4f565b50506000910152565b60008151808452613b88816020860160208601613b4c565b601f017fffffffffffffffffffffffffffffffffffffffffffffffffffffffffffffffe0169290920160200192915050565b7f4e487b7100000000000000000000000000000000000000000000000000000000600052602160045260246000fd5b60048110613c20577f4e487b7100000000000000000000000000000000000000000000000000000000600052602160045260246000fd5b9052565b6020815281516020820152600060208301516101606040840152613c4c610180840182613b70565b90506040840151613c75606085018273ffffffffffffffffffffffffffffffffffffffff169052565b5060608401517fffffffffffffffffffffffffffffffffffffffffffffffffffffffffffffffe0848303016080850152613caf8282613b70565b9150506080840151613cd960a085018273ffffffffffffffffffffffffffffffffffffffff169052565b5060a084015160c084015260c084015160e084015260e08401516101008401526101008401516101208401526101208401517fffffffffffffffffffffffffffffffffffffffffffffffffffffffffffffffe084830301610140850152613d408282613b70565b915050610140840151613d57610160850182613be9565b509392505050565b60008060408385031215613d7257600080fd5b823591506020830135613d8481613a8e565b809150509250929050565b7f4e487b7100000000000000000000000000000000000000000000000000000000600052604160045260246000fd5b6040516080810167ffffffffffffffff81118282101715613de157613de1613d8f565b60405290565b60008067ffffffffffffffff841115613e0257613e02613d8f565b506040517fffffffffffffffffffffffffffffffffffffffffffffffffffffffffffffffe0601f85018116603f0116810181811067ffffffffffffffff82111715613e4f57613e4f613d8f565b604052838152905080828401851015613e6757600080fd5b83836020830137600060208583010152509392505050565b60008060408385031215613e9257600080fd5b8235613e9d81613a8e565b9150602083013567ffffffffffffffff811115613eb957600080fd5b8301601f81018513613eca57600080fd5b613ed985823560208401613de7565b9150509250929050565b600082601f830112613ef457600080fd5b61321d83833560208501613de7565b600080600060608486031215613f1857600080fd5b83359250602084013567ffffffffffffffff811115613f3657600080fd5b840160808187031215613f4857600080fd5b613f50613dbe565b8135613f5b81613a8e565b81526020828101359082015260408083013590820152606082013567ffffffffffffffff811115613f8b57600080fd5b613f9788828501613ee3565b60608301525093969395505050506040919091013590565b60208152600061321d6020830184613b70565b60008060408385031215613fd557600080fd5b82359150602083013567ffffffffffffffff811115613ff357600080fd5b83016080818603121561400557600080fd5b61400d613dbe565b81358152602082013567ffffffffffffffff81111561402b57600080fd5b61403787828501613ee3565b602083015250604082013567ffffffffffffffff81111561405757600080fd5b61406387828501613ee3565b604083015250606082013591506004821061407d57600080fd5b81606082015280925050509250929050565b6000602082840312156140a157600080fd5b813561321d81613a8e565b600080604083850312156140bf57600080fd5b50508035926020909101359150565b602080825282518282018190526000918401906040840190835b818110156141065783518352602093840193909201916001016140e8565b509095945050505050565b600181811c9082168061412557607f821691505b60208210810361415e577f4e487b7100000000000000000000000000000000000000000000000000000000600052602260045260246000fd5b50919050565b600080828403608081121561417857600080fd5b606081121561418657600080fd5b506040516060810167ffffffffffffffff811182821017156141aa576141aa613d8f565b6040528351815260208401516141bf81613a8e565b602082015260408401516141d281613a8e565b6040820152606084015190925061ffff81168114613d8457600080fd5b7f4e487b7100000000000000000000000000000000000000000000000000000000600052601160045260246000fd5b80820180821115611726576117266141ef565b601f821115610ad157806000526020600020601f840160051c810160208510156142585750805b601f840160051c820191505b818110156142785760008155600101614264565b5050505050565b815167ffffffffffffffff81111561429957614299613d8f565b6142ad816142a78454614111565b84614231565b6020601f8211600181146142ff57600083156142c95750848201515b7fffffffffffffffffffffffffffffffffffffffffffffffffffffffffffffffff600385901b1c1916600184901b178455614278565b6000848152602081207fffffffffffffffffffffffffffffffffffffffffffffffffffffffffffffffe08516915b8281101561434d578785015182556020948501946001909201910161432d565b508482101561438957868401517fffffffffffffffffffffffffffffffffffffffffffffffffffffffffffffffff600387901b60f8161c191681555b50505050600190811b01905550565b602081016117268284613be9565b81810381811115611726576117266141ef565b6000602082840312156143cb57600080fd5b5051919050565b60008083357fffffffffffffffffffffffffffffffffffffffffffffffffffffffffffffffe184360301811261440757600080fd5b83018035915067ffffffffffffffff82111561442257600080fd5b60200191503681900382131561285257600080fd5b8183823760009101908152919050565b7f4e487b7100000000000000000000000000000000000000000000000000000000600052601260045260246000fd5b60006020828403121561448857600080fd5b8151801515811461321d57600080fd5b600082516144aa818460208701613b4c565b919091019291505056fea26469706673582212202e303fbc2cb79924e8c590283c2bab5fa6981e4a229762b76b295511be633a8d64736f6c634300081c0033","linkReferences":{}},"methodIdentifiers":{"UPGRADE_INTERFACE_VERSION()":"ad3cb1cc","_accumulatedFees(uint256)":"e53025ed","_authorized_refunds(uint256,address)":"596e250d","_deposits(uint256,address)":"e428c802","_fulfillableRegistry()":"0c4393b9","_fulfillmentRecordCount()":"835d140e","_manager()":"f0329f6b","_releaseablePool(uint256)":"ae4d49ba","_router()":"edae876f","_stableAccumulatedFees(uint256,address)":"62e2a116","_stableReleasePools(uint256,address)":"8eb48beb","beneficiaryWithdraw(uint256)":"cebae810","beneficiaryWithdrawStable(uint256,address)":"41ccb1b8","deposit(uint256,(address,uint256,uint256,string),uint256)":"6928c271","getDepositsFor(address,uint256)":"d4b59fed","getNativeFeesFor(uint256)":"857e57f6","getRefundsFor(address,uint256)":"0b28a076","initialize(address)":"c4d66de8","owner()":"8da5cb5b","proxiableUUID()":"52d1902d","record(uint256)":"2c16cd8a","recordsOf(address)":"e5b7e2b4","registerFulfillment(uint256,(uint256,string,string,uint8))":"b4b9bb7c","renounceOwnership()":"715018a6","setFulfillableRegistry(address)":"dbc85c5a","setManager(address)":"d0ebdbe7","setRouter(address)":"c0d78655","swapPoolsToStable(uint256,uint256,(address,uint256,address,bytes))":"1a016c8b","transferOwnership(address)":"f2fde38b","upgradeToAndCall(address,bytes)":"4f1ef286","withdrawAccumulatedFees(uint256)":"b7aeb6ef","withdrawAccumulatedFeesStable(uint256,address)":"bc8aeb32","withdrawRefund(uint256,uint256)":"ddb7d5df"},"id":5}