{"abi":[{"type":"function","name":"UPGRADE_INTERFACE_VERSION","inputs":[],"outputs":[{"name":"","type":"string","internalType":"string"}],"stateMutability":"view"},{"type":"function","name":"_erc20_escrow","inputs":[],"outputs":[{"name":"","type":"address","internalType":"address"}],"stateMutability":"view"},{"type":"function","name":"_escrow","inputs":[],"outputs":[{"name":"","type":"address","internalType":"address"}],"stateMutability":"view"},{"type":"function","name":"_serviceRegistry","inputs":[],"outputs":[{"name":"","type":"address","internalType":"address"}],"stateMutability":"view"},{"type":"function","name":"addAggregator","inputs":[{"name":"aggregator","type":"address","internalType":"address"}],"outputs":[],"stateMutability":"nonpayable"},{"type":"function","name":"beneficiaryWithdraw","inputs":[{"name":"serviceID","type":"uint256","internalType":"uint256"}],"outputs":[],"stateMutability":"nonpayable"},{"type":"function","name":"beneficiaryWithdrawERC20","inputs":[{"name":"serviceID","type":"uint256","internalType":"uint256"},{"name":"token","type":"address","internalType":"address"}],"outputs":[],"stateMutability":"nonpayable"},{"type":"function","name":"beneficiaryWithdrawStable","inputs":[{"name":"serviceId","type":"uint256","internalType":"uint256"},{"name":"token","type":"address","internalType":"address"}],"outputs":[],"stateMutability":"nonpayable"},{"type":"function","name":"fulfillAndSwap","inputs":[{"name":"serviceID","type":"uint256","internalType":"uint256"},{"name":"result","type":"tuple","internalType":"struct FulFillmentResult","components":[{"name":"id","type":"uint256","internalType":"uint256"},{"name":"externalID","type":"string","internalType":"string"},{"name":"receiptURI","type":"string","internalType":"string"},{"name":"status","type":"uint8","internalType":"enum FulFillmentResultState"}]},{"name":"swapData","type":"tuple","internalType":"struct SwapData","components":[{"name":"toToken","type":"address","internalType":"address"},{"name":"amount","type":"uint256","internalType":"uint256"},{"name":"callTo","type":"address","internalType":"address payable"},{"name":"callData","type":"bytes","internalType":"bytes"}]}],"outputs":[],"stateMutability":"nonpayable"},{"type":"function","name":"fulfillERC20AndSwap","inputs":[{"name":"serviceID","type":"uint256","internalType":"uint256"},{"name":"result","type":"tuple","internalType":"struct FulFillmentResult","components":[{"name":"id","type":"uint256","internalType":"uint256"},{"name":"externalID","type":"string","internalType":"string"},{"name":"receiptURI","type":"string","internalType":"string"},{"name":"status","type":"uint8","internalType":"enum FulFillmentResultState"}]},{"name":"swapData","type":"tuple","internalType":"struct SwapData","components":[{"name":"toToken","type":"address","internalType":"address"},{"name":"amount","type":"uint256","internalType":"uint256"},{"name":"callTo","type":"address","internalType":"address payable"},{"name":"callData","type":"bytes","internalType":"bytes"}]}],"outputs":[],"stateMutability":"nonpayable"},{"type":"function","name":"initialize","inputs":[{"name":"initialOwner","type":"address","internalType":"address"}],"outputs":[],"stateMutability":"nonpayable"},{"type":"function","name":"isAggregator","inputs":[{"name":"aggregator","type":"address","internalType":"address"}],"outputs":[{"name":"","type":"bool","internalType":"bool"}],"stateMutability":"view"},{"type":"function","name":"owner","inputs":[],"outputs":[{"name":"","type":"address","internalType":"address"}],"stateMutability":"view"},{"type":"function","name":"proxiableUUID","inputs":[],"outputs":[{"name":"","type":"bytes32","internalType":"bytes32"}],"stateMutability":"view"},{"type":"function","name":"registerERC20Fulfillment","inputs":[{"name":"serviceID","type":"uint256","internalType":"uint256"},{"name":"fulfillment","type":"tuple","internalType":"struct FulFillmentResult","components":[{"name":"id","type":"uint256","internalType":"uint256"},{"name":"externalID","type":"string","internalType":"string"},{"name":"receiptURI","type":"string","internalType":"string"},{"name":"status","type":"uint8","internalType":"enum FulFillmentResultState"}]}],"outputs":[],"stateMutability":"nonpayable"},{"type":"function","name":"registerFulfillment","inputs":[{"name":"serviceID","type":"uint256","internalType":"uint256"},{"name":"fulfillment","type":"tuple","internalType":"struct FulFillmentResult","components":[{"name":"id","type":"uint256","internalType":"uint256"},{"name":"externalID","type":"string","internalType":"string"},{"name":"receiptURI","type":"string","internalType":"string"},{"name":"status","type":"uint8","internalType":"enum FulFillmentResultState"}]}],"outputs":[],"stateMutability":"nonpayable"},{"type":"function","name":"renounceOwnership","inputs":[],"outputs":[],"stateMutability":"nonpayable"},{"type":"function","name":"setERC20Escrow","inputs":[{"name":"erc20Escrow_","type":"address","internalType":"address payable"}],"outputs":[],"stateMutability":"nonpayable"},{"type":"function","name":"setEscrow","inputs":[{"name":"escrow_","type":"address","internalType":"address payable"}],"outputs":[],"stateMutability":"nonpayable"},{"type":"function","name":"setService","inputs":[{"name":"serviceID","type":"uint256","internalType":"uint256"},{"name":"feeAmountBasisPoints","type":"uint16","internalType":"uint16"},{"name":"fulfiller","type":"address","internalType":"address"},{"name":"beneficiary","type":"address","internalType":"address payable"}],"outputs":[{"name":"","type":"tuple","internalType":"struct Service","components":[{"name":"serviceId","type":"uint256","internalType":"uint256"},{"name":"beneficiary","type":"address","internalType":"address payable"},{"name":"fulfiller","type":"address","internalType":"address"}]}],"stateMutability":"nonpayable"},{"type":"function","name":"setServiceFulfillmentFee","inputs":[{"name":"serviceID","type":"uint256","internalType":"uint256"},{"name":"fulfillmentFeeBasisPoints","type":"uint16","internalType":"uint16"}],"outputs":[],"stateMutability":"nonpayable"},{"type":"function","name":"setServiceRef","inputs":[{"name":"serviceID","type":"uint256","internalType":"uint256"},{"name":"serviceRef","type":"string","internalType":"string"}],"outputs":[],"stateMutability":"nonpayable"},{"type":"function","name":"setServiceRegistry","inputs":[{"name":"serviceRegistry_","type":"address","internalType":"address"}],"outputs":[],"stateMutability":"nonpayable"},{"type":"function","name":"transferOwnership","inputs":[{"name":"newOwner","type":"address","internalType":"address"}],"outputs":[],"stateMutability":"nonpayable"},{"type":"function","name":"upgradeToAndCall","inputs":[{"name":"newImplementation","type":"address","internalType":"address"},{"name":"data","type":"bytes","internalType":"bytes"}],"outputs":[],"stateMutability":"payable"},{"type":"function","name":"withdrawAccumulatedFeesStable","inputs":[{"name":"serviceId","type":"uint256","internalType":"uint256"},{"name":"token","type":"address","internalType":"address"}],"outputs":[],"stateMutability":"nonpayable"},{"type":"function","name":"withdrawERC20Fees","inputs":[{"name":"serviceID","type":"uint256","internalType":"uint256"},{"name":"token","type":"address","internalType":"address"}],"outputs":[],"stateMutability":"nonpayable"},{"type":"function","name":"withdrawNativeFees","inputs":[{"name":"serviceID","type":"uint256","internalType":"uint256"}],"outputs":[],"stateMutability":"nonpayable"},{"type":"event","name":"AggregatorAdded","inputs":[{"name":"aggregator","type":"address","indexed":true,"internalType":"address"}],"anonymous":false},{"type":"event","name":"ERC20EscrowUpdated","inputs":[{"name":"erc20Escrow","type":"address","indexed":true,"internalType":"address"}],"anonymous":false},{"type":"event","name":"ERC20FulfillmentRegistered","inputs":[{"name":"serviceID","type":"uint256","indexed":true,"internalType":"uint256"},{"name":"fulfillment","type":"tuple","indexed":false,"internalType":"struct FulFillmentResult","components":[{"name":"id","type":"uint256","internalType":"uint256"},{"name":"externalID","type":"string","internalType":"string"},{"name":"receiptURI","type":"string","internalType":"string"},{"name":"status","type":"uint8","internalType":"enum FulFillmentResultState"}]}],"anonymous":false},{"type":"event","name":"EscrowUpdated","inputs":[{"name":"escrow","type":"address","indexed":true,"internalType":"address"}],"anonymous":false},{"type":"event","name":"FulfillmentRegistered","inputs":[{"name":"serviceID","type":"uint256","indexed":true,"internalType":"uint256"},{"name":"fulfillment","type":"tuple","indexed":false,"internalType":"struct FulFillmentResult","components":[{"name":"id","type":"uint256","internalType":"uint256"},{"name":"externalID","type":"string","internalType":"string"},{"name":"receiptURI","type":"string","internalType":"string"},{"name":"status","type":"uint8","internalType":"enum FulFillmentResultState"}]}],"anonymous":false},{"type":"event","name":"Initialized","inputs":[{"name":"version","type":"uint64","indexed":false,"internalType":"uint64"}],"anonymous":false},{"type":"event","name":"OwnershipTransferred","inputs":[{"name":"previousOwner","type":"address","indexed":true,"internalType":"address"},{"name":"newOwner","type":"address","indexed":true,"internalType":"address"}],"anonymous":false},{"type":"event","name":"RegistryUpdated","inputs":[{"name":"registry","type":"address","indexed":true,"internalType":"address"}],"anonymous":false},{"type":"event","name":"Upgraded","inputs":[{"name":"implementation","type":"address","indexed":true,"internalType":"address"}],"anonymous":false},{"type":"event","name":"WithdrawnToBeneficiary","inputs":[{"name":"serviceID","type":"uint256","indexed":true,"internalType":"uint256"},{"name":"beneficiary","type":"address","indexed":true,"internalType":"address"}],"anonymous":false},{"type":"error","name":"AddressEmptyCode","inputs":[{"name":"target","type":"address","internalType":"address"}]},{"type":"error","name":"ERC1967InvalidImplementation","inputs":[{"name":"implementation","type":"address","internalType":"address"}]},{"type":"error","name":"ERC1967NonPayable","inputs":[]},{"type":"error","name":"FailedInnerCall","inputs":[]},{"type":"error","name":"InvalidAddress","inputs":[{"name":"address_","type":"address","internalType":"address"}]},{"type":"error","name":"InvalidBeneficiary","inputs":[{"name":"beneficiary_","type":"address","internalType":"address"}]},{"type":"error","name":"InvalidFulfiller","inputs":[{"name":"fulfiller_","type":"address","internalType":"address"}]},{"type":"error","name":"InvalidFulfillmentResult","inputs":[{"name":"status","type":"uint8","internalType":"enum FulFillmentResultState"}]},{"type":"error","name":"InvalidInitialization","inputs":[]},{"type":"error","name":"InvalidServiceId","inputs":[{"name":"serviceID_","type":"uint256","internalType":"uint256"}]},{"type":"error","name":"NotInitializing","inputs":[]},{"type":"error","name":"OwnableInvalidOwner","inputs":[{"name":"owner","type":"address","internalType":"address"}]},{"type":"error","name":"OwnableUnauthorizedAccount","inputs":[{"name":"account","type":"address","internalType":"address"}]},{"type":"error","name":"UUPSUnauthorizedCallContext","inputs":[]},{"type":"error","name":"UUPSUnsupportedProxiableUUID","inputs":[{"name":"slot","type":"bytes32","internalType":"bytes32"}]}],"bytecode":{"object":"0x60a06040523060805234801561001457600080fd5b5061001d610022565b6100d4565b7ff0c57e16840df040f15088dc2f81fe391c3923bec73e23a9662efc9c229c6a00805468010000000000000000900460ff16156100725760405163f92ee8a960e01b815260040160405180910390fd5b80546001600160401b03908116146100d15780546001600160401b0319166001600160401b0390811782556040519081527fc7f505b2f371ae2175ee4913f4499e1f2633a7b5936321eed1cdaeb6115181d29060200160405180910390a15b50565b60805161324d6100fd600039600081816123a2015281816123cb01526125ec015261324d6000f3fe6080604052600436106101b75760003560e01c8063ad3cb1cc116100ec578063cebae8101161008a578063ea5447e611610064578063ea5447e61461059d578063ecaec543146105bd578063eede444c146105dd578063f2fde38b146105fd57600080fd5b8063cebae8101461053d578063d67b11251461055d578063d7071b1f1461057d57600080fd5b8063be03f65c116100c6578063be03f65c146104bd578063bf75f119146104dd578063c10c3546146104fd578063c4d66de81461051d57600080fd5b8063ad3cb1cc14610427578063b4b9bb7c1461047d578063bc8aeb321461049d57600080fd5b8063535a9b8b11610159578063715018a611610133578063715018a61461036e5780638da5cb5b1461038357806390eafe58146103cd57806391d95f3e146103fa57600080fd5b8063535a9b8b1461030e57806358735e631461032e5780636520b0091461034e57600080fd5b80632248d9d6116101955780632248d9d61461028b57806341ccb1b8146102b85780634f1ef286146102d857806352d1902d146102eb57600080fd5b80630619c07a146101bc57806307073d91146102135780631e8f3c9514610235575b600080fd5b3480156101c857600080fd5b506001546101e99073ffffffffffffffffffffffffffffffffffffffff1681565b60405173ffffffffffffffffffffffffffffffffffffffff90911681526020015b60405180910390f35b34801561021f57600080fd5b5061023361022e366004612b30565b61061d565b005b34801561024157600080fd5b5061027b610250366004612b99565b73ffffffffffffffffffffffffffffffffffffffff1660009081526003602052604090205460ff1690565b604051901515815260200161020a565b34801561029757600080fd5b506102ab6102a6366004612bc6565b6106b3565b60405161020a9190612c19565b3480156102c457600080fd5b506102336102d3366004612c6a565b6108a6565b6102336102e6366004612c9a565b610a82565b3480156102f757600080fd5b50610300610aa1565b60405190815260200161020a565b34801561031a57600080fd5b50610233610329366004612d69565b610ad0565b34801561033a57600080fd5b50610233610349366004612c6a565b610e52565b34801561035a57600080fd5b50610233610369366004612b99565b610f9e565b34801561037a57600080fd5b50610233611082565b34801561038f57600080fd5b507f9016d09d72d40fdae2fd8ceac6b6234c7706214fd39c1cd1e609a0528c1993005473ffffffffffffffffffffffffffffffffffffffff166101e9565b3480156103d957600080fd5b506002546101e99073ffffffffffffffffffffffffffffffffffffffff1681565b34801561040657600080fd5b506000546101e99073ffffffffffffffffffffffffffffffffffffffff1681565b34801561043357600080fd5b506104706040518060400160405280600581526020017f352e302e3000000000000000000000000000000000000000000000000000000081525081565b60405161020a9190612eaf565b34801561048957600080fd5b50610233610498366004612ec2565b611096565b3480156104a957600080fd5b506102336104b8366004612c6a565b6112b6565b3480156104c957600080fd5b506102336104d8366004612b99565b611417565b3480156104e957600080fd5b506102336104f8366004612eff565b6114f3565b34801561050957600080fd5b50610233610518366004612b99565b61155c565b34801561052957600080fd5b50610233610538366004612b99565b611638565b34801561054957600080fd5b50610233610558366004612f24565b6117bf565b34801561056957600080fd5b50610233610578366004612d69565b61197d565b34801561058957600080fd5b50610233610598366004612b99565b611cf1565b3480156105a957600080fd5b506102336105b8366004612ec2565b611dcb565b3480156105c957600080fd5b506102336105d8366004612f24565b611fde565b3480156105e957600080fd5b506102336105f8366004612c6a565b612137565b34801561060957600080fd5b50610233610618366004612b99565b612298565b6106256122fc565b6000546040517f3f8a7fe000000000000000000000000000000000000000000000000000000000815273ffffffffffffffffffffffffffffffffffffffff90911690633f8a7fe09061067d9085908590600401612f3d565b600060405180830381600087803b15801561069757600080fd5b505af11580156106ab573d6000803e3d6000fd5b505050505050565b60408051606081018252600080825260208201819052918101919091526106d86122fc565b8460000361071a576040517fe0d4974b000000000000000000000000000000000000000000000000000000008152600481018690526024015b60405180910390fd5b73ffffffffffffffffffffffffffffffffffffffff831661077f576040517f8e4c8aa600000000000000000000000000000000000000000000000000000000815273ffffffffffffffffffffffffffffffffffffffff84166004820152602401610711565b73ffffffffffffffffffffffffffffffffffffffff82166107e4576040517f8e4c8aa600000000000000000000000000000000000000000000000000000000815273ffffffffffffffffffffffffffffffffffffffff83166004820152602401610711565b6040805160608101825286815273ffffffffffffffffffffffffffffffffffffffff80851660208301528581168284015260005492517f4f38e25800000000000000000000000000000000000000000000000000000000815291921690634f38e2589061085990899085908a90600401612f5e565b6020604051808303816000875af1158015610878573d6000803e3d6000fd5b505050506040513d601f19601f8201168201806040525081019061089c9190612fc7565b5095945050505050565b600080546040517fef0e239b0000000000000000000000000000000000000000000000000000000081526004810185905273ffffffffffffffffffffffffffffffffffffffff9091169063ef0e239b90602401608060405180830381865afa158015610916573d6000803e3d6000fd5b505050506040513d601f19601f8201168201806040525081019061093a9190612fe9565b509050806040015173ffffffffffffffffffffffffffffffffffffffff163373ffffffffffffffffffffffffffffffffffffffff16146109a8576040517fdb4176c7000000000000000000000000000000000000000000000000000000008152336004820152602401610711565b6001546040517f41ccb1b80000000000000000000000000000000000000000000000000000000081526004810185905273ffffffffffffffffffffffffffffffffffffffff8481166024830152909116906341ccb1b8906044015b600060405180830381600087803b158015610a1d57600080fd5b505af1158015610a31573d6000803e3d6000fd5b50505050806020015173ffffffffffffffffffffffffffffffffffffffff16837fcb51d4484f2b22d6b3d1b57f410f5bc04439a073a28a9ad319c840d9bb880a4160405160405180910390a3505050565b610a8a61238a565b610a938261248e565b610a9d8282612496565b5050565b6000610aab6125d4565b507f360894a13ba1a3210667c828492db98dca3e2076cc3735a920a3ca505d382bbc90565b600080546040517fef0e239b0000000000000000000000000000000000000000000000000000000081526004810186905273ffffffffffffffffffffffffffffffffffffffff9091169063ef0e239b90602401608060405180830381865afa158015610b40573d6000803e3d6000fd5b505050506040513d601f19601f82011682018060405250810190610b649190612fe9565b509050806040015173ffffffffffffffffffffffffffffffffffffffff163373ffffffffffffffffffffffffffffffffffffffff1614158015610bde57507f9016d09d72d40fdae2fd8ceac6b6234c7706214fd39c1cd1e609a0528c1993005473ffffffffffffffffffffffffffffffffffffffff163314155b15610c17576040517fdb4176c7000000000000000000000000000000000000000000000000000000008152336004820152602401610711565b600183606001516003811115610c2f57610c2f61306d565b14610c6c5782606001516040517fbbe77e2600000000000000000000000000000000000000000000000000000000815260040161071191906130d7565b60408083015173ffffffffffffffffffffffffffffffffffffffff1660009081526003602052205460ff16610ceb5760408083015190517f8e4c8aa600000000000000000000000000000000000000000000000000000000815273ffffffffffffffffffffffffffffffffffffffff9091166004820152602401610711565b6002546040517fb4b9bb7c00000000000000000000000000000000000000000000000000000000815273ffffffffffffffffffffffffffffffffffffffff9091169063b4b9bb7c90610d43908790879060040161313a565b6020604051808303816000875af1158015610d62573d6000803e3d6000fd5b505050506040513d601f19601f82011682018060405250810190610d869190612fc7565b5060025483516040517f1a016c8b00000000000000000000000000000000000000000000000000000000815273ffffffffffffffffffffffffffffffffffffffff90921691631a016c8b91610de2918891908790600401613153565b600060405180830381600087803b158015610dfc57600080fd5b505af1158015610e10573d6000803e3d6000fd5b50505050837f844b50b8d5cfeca71e001fe9d5711e4cb4d67241795b4864cdda9494a98746f784604051610e4491906131cf565b60405180910390a250505050565b600080546040517fef0e239b0000000000000000000000000000000000000000000000000000000081526004810185905273ffffffffffffffffffffffffffffffffffffffff9091169063ef0e239b90602401608060405180830381865afa158015610ec2573d6000803e3d6000fd5b505050506040513d601f19601f82011682018060405250810190610ee69190612fe9565b50604081015190915073ffffffffffffffffffffffffffffffffffffffff163314610f3f576040517fdb4176c7000000000000000000000000000000000000000000000000000000008152336004820152602401610711565b6002546040517f936a83e50000000000000000000000000000000000000000000000000000000081526004810185905273ffffffffffffffffffffffffffffffffffffffff84811660248301529091169063936a83e590604401610a03565b610fa66122fc565b73ffffffffffffffffffffffffffffffffffffffff811661100b576040517f8e4c8aa600000000000000000000000000000000000000000000000000000000815273ffffffffffffffffffffffffffffffffffffffff82166004820152602401610711565b73ffffffffffffffffffffffffffffffffffffffff811660008181526003602052604080822080547fffffffffffffffffffffffffffffffffffffffffffffffffffffffffffffff00166001179055517f6fe83d3564912d267f3f85c4a548ac36ea86d2bb44c5881a8c7e841e5a439a449190a250565b61108a6122fc565b6110946000612643565b565b600080546040517fef0e239b0000000000000000000000000000000000000000000000000000000081526004810185905273ffffffffffffffffffffffffffffffffffffffff9091169063ef0e239b90602401608060405180830381865afa158015611106573d6000803e3d6000fd5b505050506040513d601f19601f8201168201806040525081019061112a9190612fe9565b509050806040015173ffffffffffffffffffffffffffffffffffffffff163373ffffffffffffffffffffffffffffffffffffffff16141580156111a457507f9016d09d72d40fdae2fd8ceac6b6234c7706214fd39c1cd1e609a0528c1993005473ffffffffffffffffffffffffffffffffffffffff163314155b156111dd576040517fdb4176c7000000000000000000000000000000000000000000000000000000008152336004820152602401610711565b6001546040517fb4b9bb7c00000000000000000000000000000000000000000000000000000000815273ffffffffffffffffffffffffffffffffffffffff9091169063b4b9bb7c90611235908690869060040161313a565b6020604051808303816000875af1158015611254573d6000803e3d6000fd5b505050506040513d601f19601f820116820180604052508101906112789190612fc7565b50827f11988977feb8a6b5297b83f540df9428b7613fa44b5ea4711b224bee575ae4bf836040516112a991906131cf565b60405180910390a2505050565b600080546040517fef0e239b0000000000000000000000000000000000000000000000000000000081526004810185905273ffffffffffffffffffffffffffffffffffffffff9091169063ef0e239b90602401608060405180830381865afa158015611326573d6000803e3d6000fd5b505050506040513d601f19601f8201168201806040525081019061134a9190612fe9565b509050806040015173ffffffffffffffffffffffffffffffffffffffff163373ffffffffffffffffffffffffffffffffffffffff16146113b8576040517fdb4176c7000000000000000000000000000000000000000000000000000000008152336004820152602401610711565b6001546040517fbc8aeb320000000000000000000000000000000000000000000000000000000081526004810185905273ffffffffffffffffffffffffffffffffffffffff84811660248301529091169063bc8aeb3290604401610a03565b61141f6122fc565b73ffffffffffffffffffffffffffffffffffffffff8116611484576040517f8e4c8aa600000000000000000000000000000000000000000000000000000000815273ffffffffffffffffffffffffffffffffffffffff82166004820152602401610711565b600280547fffffffffffffffffffffffff00000000000000000000000000000000000000001673ffffffffffffffffffffffffffffffffffffffff83169081179091556040517fd39b3956f908ed0515c7b777552c15a185e9d13c9dd97db53a16bb661ab0b8d890600090a250565b6114fb6122fc565b6000546040517f0cf4e14c0000000000000000000000000000000000000000000000000000000081526004810184905261ffff8316602482015273ffffffffffffffffffffffffffffffffffffffff90911690630cf4e14c9060440161067d565b6115646122fc565b73ffffffffffffffffffffffffffffffffffffffff81166115c9576040517f8e4c8aa600000000000000000000000000000000000000000000000000000000815273ffffffffffffffffffffffffffffffffffffffff82166004820152602401610711565b600180547fffffffffffffffffffffffff00000000000000000000000000000000000000001673ffffffffffffffffffffffffffffffffffffffff83169081179091556040517f43ab431641dd45dd0661cad4b820e826d7c526af92e3121e1242d721f82ab3ad90600090a250565b7ff0c57e16840df040f15088dc2f81fe391c3923bec73e23a9662efc9c229c6a00805468010000000000000000810460ff16159067ffffffffffffffff166000811580156116835750825b905060008267ffffffffffffffff1660011480156116a05750303b155b9050811580156116ae575080155b156116e5576040517ff92ee8a900000000000000000000000000000000000000000000000000000000815260040160405180910390fd5b84547fffffffffffffffffffffffffffffffffffffffffffffffff000000000000000016600117855583156117465784547fffffffffffffffffffffffffffffffffffffffffffffff00ffffffffffffffff16680100000000000000001785555b61174e6126d9565b611757866126e1565b83156106ab5784547fffffffffffffffffffffffffffffffffffffffffffffff00ffffffffffffffff168555604051600181527fc7f505b2f371ae2175ee4913f4499e1f2633a7b5936321eed1cdaeb6115181d29060200160405180910390a1505050505050565b600080546040517fef0e239b0000000000000000000000000000000000000000000000000000000081526004810184905273ffffffffffffffffffffffffffffffffffffffff9091169063ef0e239b90602401608060405180830381865afa15801561182f573d6000803e3d6000fd5b505050506040513d601f19601f820116820180604052508101906118539190612fe9565b50604081015190915073ffffffffffffffffffffffffffffffffffffffff1633146118ac576040517fdb4176c7000000000000000000000000000000000000000000000000000000008152336004820152602401610711565b6001546040517fcebae8100000000000000000000000000000000000000000000000000000000081526004810184905273ffffffffffffffffffffffffffffffffffffffff9091169063cebae810906024015b600060405180830381600087803b15801561191957600080fd5b505af115801561192d573d6000803e3d6000fd5b50505050806020015173ffffffffffffffffffffffffffffffffffffffff16827fcb51d4484f2b22d6b3d1b57f410f5bc04439a073a28a9ad319c840d9bb880a4160405160405180910390a35050565b600080546040517fef0e239b0000000000000000000000000000000000000000000000000000000081526004810186905273ffffffffffffffffffffffffffffffffffffffff9091169063ef0e239b90602401608060405180830381865afa1580156119ed573d6000803e3d6000fd5b505050506040513d601f19601f82011682018060405250810190611a119190612fe9565b509050806040015173ffffffffffffffffffffffffffffffffffffffff163373ffffffffffffffffffffffffffffffffffffffff1614158015611a8b57507f9016d09d72d40fdae2fd8ceac6b6234c7706214fd39c1cd1e609a0528c1993005473ffffffffffffffffffffffffffffffffffffffff163314155b15611ac4576040517fdb4176c7000000000000000000000000000000000000000000000000000000008152336004820152602401610711565b600183606001516003811115611adc57611adc61306d565b14611b195782606001516040517fbbe77e2600000000000000000000000000000000000000000000000000000000815260040161071191906130d7565b60408083015173ffffffffffffffffffffffffffffffffffffffff1660009081526003602052205460ff16611b985760408083015190517f8e4c8aa600000000000000000000000000000000000000000000000000000000815273ffffffffffffffffffffffffffffffffffffffff9091166004820152602401610711565b6001546040517fb4b9bb7c00000000000000000000000000000000000000000000000000000000815273ffffffffffffffffffffffffffffffffffffffff9091169063b4b9bb7c90611bf0908790879060040161313a565b6020604051808303816000875af1158015611c0f573d6000803e3d6000fd5b505050506040513d601f19601f82011682018060405250810190611c339190612fc7565b5060015483516040517f1a016c8b00000000000000000000000000000000000000000000000000000000815273ffffffffffffffffffffffffffffffffffffffff90921691631a016c8b91611c8f918891908790600401613153565b600060405180830381600087803b158015611ca957600080fd5b505af1158015611cbd573d6000803e3d6000fd5b50505050837f11988977feb8a6b5297b83f540df9428b7613fa44b5ea4711b224bee575ae4bf84604051610e4491906131cf565b611cf96122fc565b73ffffffffffffffffffffffffffffffffffffffff8116611d5e576040517f8e4c8aa600000000000000000000000000000000000000000000000000000000815273ffffffffffffffffffffffffffffffffffffffff82166004820152602401610711565b600080547fffffffffffffffffffffffff00000000000000000000000000000000000000001673ffffffffffffffffffffffffffffffffffffffff8316908117825560405190917fd6ceddf6d2a22f21c7c81675c518004eff43bc5c8a6fc32a0b748e69d58671cd91a250565b600080546040517fef0e239b0000000000000000000000000000000000000000000000000000000081526004810185905273ffffffffffffffffffffffffffffffffffffffff9091169063ef0e239b90602401608060405180830381865afa158015611e3b573d6000803e3d6000fd5b505050506040513d601f19601f82011682018060405250810190611e5f9190612fe9565b509050806040015173ffffffffffffffffffffffffffffffffffffffff163373ffffffffffffffffffffffffffffffffffffffff1614158015611ed957507f9016d09d72d40fdae2fd8ceac6b6234c7706214fd39c1cd1e609a0528c1993005473ffffffffffffffffffffffffffffffffffffffff163314155b15611f12576040517fdb4176c7000000000000000000000000000000000000000000000000000000008152336004820152602401610711565b6002546040517fb4b9bb7c00000000000000000000000000000000000000000000000000000000815273ffffffffffffffffffffffffffffffffffffffff9091169063b4b9bb7c90611f6a908690869060040161313a565b6020604051808303816000875af1158015611f89573d6000803e3d6000fd5b505050506040513d601f19601f82011682018060405250810190611fad9190612fc7565b50827f844b50b8d5cfeca71e001fe9d5711e4cb4d67241795b4864cdda9494a98746f7836040516112a991906131cf565b600080546040517fef0e239b0000000000000000000000000000000000000000000000000000000081526004810184905273ffffffffffffffffffffffffffffffffffffffff9091169063ef0e239b90602401608060405180830381865afa15801561204e573d6000803e3d6000fd5b505050506040513d601f19601f820116820180604052508101906120729190612fe9565b509050806040015173ffffffffffffffffffffffffffffffffffffffff163373ffffffffffffffffffffffffffffffffffffffff16146120e0576040517fdb4176c7000000000000000000000000000000000000000000000000000000008152336004820152602401610711565b6001546040517fb7aeb6ef0000000000000000000000000000000000000000000000000000000081526004810184905273ffffffffffffffffffffffffffffffffffffffff9091169063b7aeb6ef906024016118ff565b600080546040517fef0e239b0000000000000000000000000000000000000000000000000000000081526004810185905273ffffffffffffffffffffffffffffffffffffffff9091169063ef0e239b90602401608060405180830381865afa1580156121a7573d6000803e3d6000fd5b505050506040513d601f19601f820116820180604052508101906121cb9190612fe9565b509050806040015173ffffffffffffffffffffffffffffffffffffffff163373ffffffffffffffffffffffffffffffffffffffff1614612239576040517fdb4176c7000000000000000000000000000000000000000000000000000000008152336004820152602401610711565b6002546040517fb726962e0000000000000000000000000000000000000000000000000000000081526004810185905273ffffffffffffffffffffffffffffffffffffffff84811660248301529091169063b726962e90604401610a03565b6122a06122fc565b73ffffffffffffffffffffffffffffffffffffffff81166122f0576040517f1e4fbdf700000000000000000000000000000000000000000000000000000000815260006004820152602401610711565b6122f981612643565b50565b3361233b7f9016d09d72d40fdae2fd8ceac6b6234c7706214fd39c1cd1e609a0528c1993005473ffffffffffffffffffffffffffffffffffffffff1690565b73ffffffffffffffffffffffffffffffffffffffff1614611094576040517f118cdaa7000000000000000000000000000000000000000000000000000000008152336004820152602401610711565b3073ffffffffffffffffffffffffffffffffffffffff7f000000000000000000000000000000000000000000000000000000000000000016148061245757507f000000000000000000000000000000000000000000000000000000000000000073ffffffffffffffffffffffffffffffffffffffff1661243e7f360894a13ba1a3210667c828492db98dca3e2076cc3735a920a3ca505d382bbc5473ffffffffffffffffffffffffffffffffffffffff1690565b73ffffffffffffffffffffffffffffffffffffffff1614155b15611094576040517fe07c8dba00000000000000000000000000000000000000000000000000000000815260040160405180910390fd5b6122f96122fc565b8173ffffffffffffffffffffffffffffffffffffffff166352d1902d6040518163ffffffff1660e01b8152600401602060405180830381865afa92505050801561251b575060408051601f3d9081017fffffffffffffffffffffffffffffffffffffffffffffffffffffffffffffffe0168201909252612518918101906131e2565b60015b612569576040517f4c9c8ce300000000000000000000000000000000000000000000000000000000815273ffffffffffffffffffffffffffffffffffffffff83166004820152602401610711565b7f360894a13ba1a3210667c828492db98dca3e2076cc3735a920a3ca505d382bbc81146125c5576040517faa1d49a400000000000000000000000000000000000000000000000000000000815260048101829052602401610711565b6125cf83836126f2565b505050565b3073ffffffffffffffffffffffffffffffffffffffff7f00000000000000000000000000000000000000000000000000000000000000001614611094576040517fe07c8dba00000000000000000000000000000000000000000000000000000000815260040160405180910390fd5b7f9016d09d72d40fdae2fd8ceac6b6234c7706214fd39c1cd1e609a0528c19930080547fffffffffffffffffffffffff0000000000000000000000000000000000000000811673ffffffffffffffffffffffffffffffffffffffff848116918217845560405192169182907f8be0079c531659141344cd1fd0a4f28419497f9722a3daafe3b4186f6b6457e090600090a3505050565b611094612755565b6126e9612755565b6122f9816127bc565b6126fb826127c4565b60405173ffffffffffffffffffffffffffffffffffffffff8316907fbc7cd75a20ee27fd9adebab32041f755214dbc6bffa90cc0225b39da2e5c2d3b90600090a280511561274d576125cf8282612893565b610a9d612918565b7ff0c57e16840df040f15088dc2f81fe391c3923bec73e23a9662efc9c229c6a005468010000000000000000900460ff16611094576040517fd7e6bcf800000000000000000000000000000000000000000000000000000000815260040160405180910390fd5b6122a0612755565b8073ffffffffffffffffffffffffffffffffffffffff163b60000361282d576040517f4c9c8ce300000000000000000000000000000000000000000000000000000000815273ffffffffffffffffffffffffffffffffffffffff82166004820152602401610711565b7f360894a13ba1a3210667c828492db98dca3e2076cc3735a920a3ca505d382bbc80547fffffffffffffffffffffffff00000000000000000000000000000000000000001673ffffffffffffffffffffffffffffffffffffffff92909216919091179055565b60606000808473ffffffffffffffffffffffffffffffffffffffff16846040516128bd91906131fb565b600060405180830381855af49150503d80600081146128f8576040519150601f19603f3d011682016040523d82523d6000602084013e6128fd565b606091505b509150915061290d858383612950565b925050505b92915050565b3415611094576040517fb398979f00000000000000000000000000000000000000000000000000000000815260040160405180910390fd5b60608261296557612960826129e2565b6129db565b8151158015612989575073ffffffffffffffffffffffffffffffffffffffff84163b155b156129d8576040517f9996b31500000000000000000000000000000000000000000000000000000000815273ffffffffffffffffffffffffffffffffffffffff85166004820152602401610711565b50805b9392505050565b8051156129f25780518082602001fd5b6040517f1425ea4200000000000000000000000000000000000000000000000000000000815260040160405180910390fd5b7f4e487b7100000000000000000000000000000000000000000000000000000000600052604160045260246000fd5b6040516080810167ffffffffffffffff81118282101715612a7657612a76612a24565b60405290565b600082601f830112612a8d57600080fd5b81356020830160008067ffffffffffffffff841115612aae57612aae612a24565b506040517fffffffffffffffffffffffffffffffffffffffffffffffffffffffffffffffe0601f85018116603f0116810181811067ffffffffffffffff82111715612afb57612afb612a24565b604052838152905080828401871015612b1357600080fd5b838360208301376000602085830101528094505050505092915050565b60008060408385031215612b4357600080fd5b82359150602083013567ffffffffffffffff811115612b6157600080fd5b612b6d85828601612a7c565b9150509250929050565b73ffffffffffffffffffffffffffffffffffffffff811681146122f957600080fd5b600060208284031215612bab57600080fd5b81356129db81612b77565b61ffff811681146122f957600080fd5b60008060008060808587031215612bdc57600080fd5b843593506020850135612bee81612bb6565b92506040850135612bfe81612b77565b91506060850135612c0e81612b77565b939692955090935050565b6060810161291282848051825273ffffffffffffffffffffffffffffffffffffffff602082015116602083015273ffffffffffffffffffffffffffffffffffffffff60408201511660408301525050565b60008060408385031215612c7d57600080fd5b823591506020830135612c8f81612b77565b809150509250929050565b60008060408385031215612cad57600080fd5b8235612cb881612b77565b9150602083013567ffffffffffffffff811115612b6157600080fd5b600060808284031215612ce657600080fd5b612cee612a53565b823581529050602082013567ffffffffffffffff811115612d0e57600080fd5b612d1a84828501612a7c565b602083015250604082013567ffffffffffffffff811115612d3a57600080fd5b612d4684828501612a7c565b604083015250606082013560048110612d5e57600080fd5b606082015292915050565b600080600060608486031215612d7e57600080fd5b83359250602084013567ffffffffffffffff811115612d9c57600080fd5b612da886828701612cd4565b925050604084013567ffffffffffffffff811115612dc557600080fd5b840160808187031215612dd757600080fd5b612ddf612a53565b8135612dea81612b77565b8152602082810135908201526040820135612e0481612b77565b6040820152606082013567ffffffffffffffff811115612e2357600080fd5b612e2f88828501612a7c565b60608301525080925050509250925092565b60005b83811015612e5c578181015183820152602001612e44565b50506000910152565b60008151808452612e7d816020860160208601612e41565b601f017fffffffffffffffffffffffffffffffffffffffffffffffffffffffffffffffe0169290920160200192915050565b6020815260006129db6020830184612e65565b60008060408385031215612ed557600080fd5b82359150602083013567ffffffffffffffff811115612ef357600080fd5b612b6d85828601612cd4565b60008060408385031215612f1257600080fd5b823591506020830135612c8f81612bb6565b600060208284031215612f3657600080fd5b5035919050565b828152604060208201526000612f566040830184612e65565b949350505050565b83815260a08101612fb560208301858051825273ffffffffffffffffffffffffffffffffffffffff602082015116602083015273ffffffffffffffffffffffffffffffffffffffff60408201511660408301525050565b61ffff83166080830152949350505050565b600060208284031215612fd957600080fd5b815180151581146129db57600080fd5b6000808284036080811215612ffd57600080fd5b606081121561300b57600080fd5b506040516060810167ffffffffffffffff8111828210171561302f5761302f612a24565b60405283518152602084015161304481612b77565b6020820152604084015161305781612b77565b60408201526060840151909250612c8f81612bb6565b7f4e487b7100000000000000000000000000000000000000000000000000000000600052602160045260246000fd5b600481106130d3577f4e487b7100000000000000000000000000000000000000000000000000000000600052602160045260246000fd5b9052565b60208101612912828461309c565b8051825260006020820151608060208501526131046080850182612e65565b90506040830151848203604086015261311d8282612e65565b9150506060830151613132606086018261309c565b509392505050565b828152604060208201526000612f5660408301846130e5565b8381528260208201526060604082015273ffffffffffffffffffffffffffffffffffffffff82511660608201526020820151608082015273ffffffffffffffffffffffffffffffffffffffff60408301511660a082015260006060830151608060c08401526131c560e0840182612e65565b9695505050505050565b6020815260006129db60208301846130e5565b6000602082840312156131f457600080fd5b5051919050565b6000825161320d818460208701612e41565b919091019291505056fea264697066735822122067c20dd6693a1cf894937fe3168ab34503c922955d89679a1ee1891a66b9af7564736f6c634300081c0033","linkReferences":{}},"methodIdentifiers":{"UPGRADE_INTERFACE_VERSION()":"ad3cb1cc","_erc20_escrow()":"90eafe58","_escrow()":"0619c07a","_serviceRegistry()":"91d95f3e","addAggregator(address)":"6520b009","beneficiaryWithdraw(uint256)":"cebae810","beneficiaryWithdrawERC20(uint256,address)":"58735e63","beneficiaryWithdrawStable(uint256,address)":"41ccb1b8","fulfillAndSwap(uint256,(uint256,string,string,uint8),(address,uint256,address,bytes))":"d67b1125","fulfillERC20AndSwap(uint256,(uint256,string,string,uint8),(address,uint256,address,bytes))":"535a9b8b","initialize(address)":"c4d66de8","isAggregator(address)":"1e8f3c95","owner()":"8da5cb5b","proxiableUUID()":"52d1902d","registerERC20Fulfillment(uint256,(uint256,string,string,uint8))":"ea5447e6","registerFulfillment(uint256,(uint256,string,string,uint8))":"b4b9bb7c","renounceOwnership()":"715018a6","setERC20Escrow(address)":"be03f65c","setEscrow(address)":"c10c3546","setService(uint256,uint16,address,address)":"2248d9d6","setServiceFulfillmentFee(uint256,uint16)":"bf75f119","setServiceRef(uint256,string)":"07073d91","setServiceRegistry(address)":"d7071b1f","transferOwnership(address)":"f2fde38b","upgradeToAndCall(address,bytes)":"4f1ef286","withdrawAccumulatedFeesStable(uint256,address)":"bc8aeb32","withdrawERC20Fees(uint256,address)":"eede444c","withdrawNativeFees(uint256)":"ecaec543"},"id":8}