{"abi":[{"type":"function","name":"UPGRADE_INTERFACE_VERSION","inputs":[],"outputs":[{"name":"","type":"string","internalType":"string"}],"stateMutability":"view"},{"type":"function","name":"_fulfillableRegistry","inputs":[],"outputs":[{"name":"","type":"address","internalType":"address"}],"stateMutability":"view"},{"type":"function","name":"_fulfillmentIdCount","inputs":[],"outputs":[{"name":"","type":"uint256","internalType":"uint256"}],"stateMutability":"view"},{"type":"function","name":"_manager","inputs":[],"outputs":[{"name":"","type":"address","internalType":"address"}],"stateMutability":"view"},{"type":"function","name":"_router","inputs":[],"outputs":[{"name":"","type":"address","internalType":"address"}],"stateMutability":"view"},{"type":"function","name":"beneficiaryWithdraw","inputs":[{"name":"serviceID","type":"uint256","internalType":"uint256"},{"name":"token","type":"address","internalType":"address"}],"outputs":[],"stateMutability":"nonpayable"},{"type":"function","name":"depositERC20","inputs":[{"name":"serviceID","type":"uint256","internalType":"uint256"},{"name":"fulfillmentRequest","type":"tuple","internalType":"struct ERC20FulFillmentRequest","components":[{"name":"payer","type":"address","internalType":"address"},{"name":"fiatAmount","type":"uint256","internalType":"uint256"},{"name":"serviceRef","type":"string","internalType":"string"},{"name":"token","type":"address","internalType":"address"},{"name":"tokenAmount","type":"uint256","internalType":"uint256"}]},{"name":"feeAmount","type":"uint256","internalType":"uint256"}],"outputs":[],"stateMutability":"nonpayable"},{"type":"function","name":"getERC20DepositsFor","inputs":[{"name":"token","type":"address","internalType":"address"},{"name":"payer","type":"address","internalType":"address"},{"name":"serviceID","type":"uint256","internalType":"uint256"}],"outputs":[{"name":"amount","type":"uint256","internalType":"uint256"}],"stateMutability":"view"},{"type":"function","name":"getERC20FeesFor","inputs":[{"name":"token","type":"address","internalType":"address"},{"name":"serviceID","type":"uint256","internalType":"uint256"}],"outputs":[{"name":"amount","type":"uint256","internalType":"uint256"}],"stateMutability":"view"},{"type":"function","name":"getERC20RefundsFor","inputs":[{"name":"token","type":"address","internalType":"address"},{"name":"refundee","type":"address","internalType":"address"},{"name":"serviceID","type":"uint256","internalType":"uint256"}],"outputs":[{"name":"amount","type":"uint256","internalType":"uint256"}],"stateMutability":"view"},{"type":"function","name":"initialize","inputs":[{"name":"initialOwner","type":"address","internalType":"address"}],"outputs":[],"stateMutability":"nonpayable"},{"type":"function","name":"owner","inputs":[],"outputs":[{"name":"","type":"address","internalType":"address"}],"stateMutability":"view"},{"type":"function","name":"proxiableUUID","inputs":[],"outputs":[{"name":"","type":"bytes32","internalType":"bytes32"}],"stateMutability":"view"},{"type":"function","name":"record","inputs":[{"name":"id","type":"uint256","internalType":"uint256"}],"outputs":[{"name":"","type":"tuple","internalType":"struct ERC20FulFillmentRecord","components":[{"name":"id","type":"uint256","internalType":"uint256"},{"name":"serviceRef","type":"string","internalType":"string"},{"name":"fulfiller","type":"address","internalType":"address"},{"name":"token","type":"address","internalType":"address"},{"name":"externalID","type":"string","internalType":"string"},{"name":"payer","type":"address","internalType":"address"},{"name":"tokenAmount","type":"uint256","internalType":"uint256"},{"name":"feeAmount","type":"uint256","internalType":"uint256"},{"name":"fiatAmount","type":"uint256","internalType":"uint256"},{"name":"entryTime","type":"uint256","internalType":"uint256"},{"name":"receiptURI","type":"string","internalType":"string"},{"name":"status","type":"uint8","internalType":"enum FulFillmentResultState"}]}],"stateMutability":"view"},{"type":"function","name":"recordsOf","inputs":[{"name":"payer","type":"address","internalType":"address"}],"outputs":[{"name":"","type":"uint256[]","internalType":"uint256[]"}],"stateMutability":"view"},{"type":"function","name":"registerFulfillment","inputs":[{"name":"serviceID","type":"uint256","internalType":"uint256"},{"name":"fulfillment","type":"tuple","internalType":"struct FulFillmentResult","components":[{"name":"id","type":"uint256","internalType":"uint256"},{"name":"externalID","type":"string","internalType":"string"},{"name":"receiptURI","type":"string","internalType":"string"},{"name":"status","type":"uint8","internalType":"enum FulFillmentResultState"}]}],"outputs":[{"name":"","type":"bool","internalType":"bool"}],"stateMutability":"nonpayable"},{"type":"function","name":"renounceOwnership","inputs":[],"outputs":[],"stateMutability":"nonpayable"},{"type":"function","name":"setFulfillableRegistry","inputs":[{"name":"fulfillableRegistry_","type":"address","internalType":"address"}],"outputs":[],"stateMutability":"nonpayable"},{"type":"function","name":"setManager","inputs":[{"name":"manager_","type":"address","internalType":"address"}],"outputs":[],"stateMutability":"nonpayable"},{"type":"function","name":"setRouter","inputs":[{"name":"router_","type":"address","internalType":"address"}],"outputs":[],"stateMutability":"nonpayable"},{"type":"function","name":"swapPoolsToStable","inputs":[{"name":"serviceId","type":"uint256","internalType":"uint256"},{"name":"swapData","type":"tuple","internalType":"struct SwapData","components":[{"name":"fromToken","type":"address","internalType":"address"},{"name":"toToken","type":"address","internalType":"address"},{"name":"amount","type":"uint256","internalType":"uint256"},{"name":"callTo","type":"address","internalType":"address"},{"name":"callData","type":"bytes","internalType":"bytes"}]}],"outputs":[],"stateMutability":"nonpayable"},{"type":"function","name":"transferOwnership","inputs":[{"name":"newOwner","type":"address","internalType":"address"}],"outputs":[],"stateMutability":"nonpayable"},{"type":"function","name":"upgradeToAndCall","inputs":[{"name":"newImplementation","type":"address","internalType":"address"},{"name":"data","type":"bytes","internalType":"bytes"}],"outputs":[],"stateMutability":"payable"},{"type":"function","name":"withdrawAccumulatedFees","inputs":[{"name":"serviceId","type":"uint256","internalType":"uint256"},{"name":"token","type":"address","internalType":"address"}],"outputs":[],"stateMutability":"nonpayable"},{"type":"function","name":"withdrawERC20Refund","inputs":[{"name":"serviceID","type":"uint256","internalType":"uint256"},{"name":"token","type":"address","internalType":"address"},{"name":"refundee","type":"address","internalType":"address"}],"outputs":[{"name":"","type":"bool","internalType":"bool"}],"stateMutability":"nonpayable"},{"type":"event","name":"ERC20DepositReceived","inputs":[{"name":"record","type":"tuple","indexed":false,"internalType":"struct ERC20FulFillmentRecord","components":[{"name":"id","type":"uint256","internalType":"uint256"},{"name":"serviceRef","type":"string","internalType":"string"},{"name":"fulfiller","type":"address","internalType":"address"},{"name":"token","type":"address","internalType":"address"},{"name":"externalID","type":"string","internalType":"string"},{"name":"payer","type":"address","internalType":"address"},{"name":"tokenAmount","type":"uint256","internalType":"uint256"},{"name":"feeAmount","type":"uint256","internalType":"uint256"},{"name":"fiatAmount","type":"uint256","internalType":"uint256"},{"name":"entryTime","type":"uint256","internalType":"uint256"},{"name":"receiptURI","type":"string","internalType":"string"},{"name":"status","type":"uint8","internalType":"enum FulFillmentResultState"}]}],"anonymous":false},{"type":"event","name":"ERC20FeesWithdrawn","inputs":[{"name":"serviceId","type":"uint256","indexed":true,"internalType":"uint256"},{"name":"token","type":"address","indexed":true,"internalType":"address"},{"name":"beneficiary","type":"address","indexed":false,"internalType":"address"},{"name":"amount","type":"uint256","indexed":false,"internalType":"uint256"}],"anonymous":false},{"type":"event","name":"ERC20RefundAuthorized","inputs":[{"name":"payee","type":"address","indexed":true,"internalType":"address"},{"name":"weiAmount","type":"uint256","indexed":false,"internalType":"uint256"}],"anonymous":false},{"type":"event","name":"ERC20RefundWithdrawn","inputs":[{"name":"token","type":"address","indexed":false,"internalType":"address"},{"name":"payee","type":"address","indexed":true,"internalType":"address"},{"name":"weiAmount","type":"uint256","indexed":false,"internalType":"uint256"}],"anonymous":false},{"type":"event","name":"FulfillableRegistryUpdated","inputs":[{"name":"fulfillableRegistry","type":"address","indexed":true,"internalType":"address"}],"anonymous":false},{"type":"event","name":"Initialized","inputs":[{"name":"version","type":"uint64","indexed":false,"internalType":"uint64"}],"anonymous":false},{"type":"event","name":"ManagerUpdated","inputs":[{"name":"manager","type":"address","indexed":true,"internalType":"address"}],"anonymous":false},{"type":"event","name":"OwnershipTransferred","inputs":[{"name":"previousOwner","type":"address","indexed":true,"internalType":"address"},{"name":"newOwner","type":"address","indexed":true,"internalType":"address"}],"anonymous":false},{"type":"event","name":"PoolsSwappedToStable","inputs":[{"name":"serviceId","type":"uint256","indexed":true,"internalType":"uint256"},{"name":"aggregator","type":"address","indexed":true,"internalType":"address"},{"name":"fromToken","type":"address","indexed":false,"internalType":"address"},{"name":"toToken","type":"address","indexed":false,"internalType":"address"},{"name":"releaseableAmount","type":"uint256","indexed":false,"internalType":"uint256"},{"name":"feesAmount","type":"uint256","indexed":false,"internalType":"uint256"},{"name":"receivedStable","type":"uint256","indexed":false,"internalType":"uint256"}],"anonymous":false},{"type":"event","name":"RouterUpdated","inputs":[{"name":"router","type":"address","indexed":true,"internalType":"address"}],"anonymous":false},{"type":"event","name":"Upgraded","inputs":[{"name":"implementation","type":"address","indexed":true,"internalType":"address"}],"anonymous":false},{"type":"error","name":"AddressEmptyCode","inputs":[{"name":"target","type":"address","internalType":"address"}]},{"type":"error","name":"AddressInsufficientBalance","inputs":[{"name":"account","type":"address","internalType":"address"}]},{"type":"error","name":"AggregatorCallFailed","inputs":[]},{"type":"error","name":"ERC1967InvalidImplementation","inputs":[{"name":"implementation","type":"address","internalType":"address"}]},{"type":"error","name":"ERC1967NonPayable","inputs":[]},{"type":"error","name":"FailedInnerCall","inputs":[]},{"type":"error","name":"FulfillmentAlreadyRegistered","inputs":[]},{"type":"error","name":"FulfillmentRecordDoesNotExist","inputs":[]},{"type":"error","name":"InsufficientCombinedBalance","inputs":[{"name":"totalAvailable","type":"uint256","internalType":"uint256"},{"name":"amount","type":"uint256","internalType":"uint256"}]},{"type":"error","name":"InvalidAddress","inputs":[{"name":"addr","type":"address","internalType":"address"}]},{"type":"error","name":"InvalidCaller","inputs":[{"name":"caller","type":"address","internalType":"address"}]},{"type":"error","name":"InvalidInitialization","inputs":[]},{"type":"error","name":"InvalidSwapAmount","inputs":[]},{"type":"error","name":"InvalidTokenAddress","inputs":[]},{"type":"error","name":"NoBalanceToRelease","inputs":[]},{"type":"error","name":"NoFeesToWithdraw","inputs":[]},{"type":"error","name":"NoRefunds","inputs":[{"name":"refundee","type":"address","internalType":"address"}]},{"type":"error","name":"NotInitializing","inputs":[]},{"type":"error","name":"Overflow","inputs":[{"name":"reason","type":"uint8","internalType":"uint8"}]},{"type":"error","name":"OwnableInvalidOwner","inputs":[{"name":"owner","type":"address","internalType":"address"}]},{"type":"error","name":"OwnableUnauthorizedAccount","inputs":[{"name":"account","type":"address","internalType":"address"}]},{"type":"error","name":"ReentrancyGuardReentrantCall","inputs":[]},{"type":"error","name":"RefundsTooBig","inputs":[]},{"type":"error","name":"SafeERC20FailedDecreaseAllowance","inputs":[{"name":"spender","type":"address","internalType":"address"},{"name":"currentAllowance","type":"uint256","internalType":"uint256"},{"name":"requestedDecrease","type":"uint256","internalType":"uint256"}]},{"type":"error","name":"SafeERC20FailedOperation","inputs":[{"name":"token","type":"address","internalType":"address"}]},{"type":"error","name":"UUPSUnauthorizedCallContext","inputs":[]},{"type":"error","name":"UUPSUnsupportedProxiableUUID","inputs":[{"name":"slot","type":"bytes32","internalType":"bytes32"}]},{"type":"error","name":"UnsupportedFulfillmentStatus","inputs":[]}],"bytecode":{"object":"0x60a06040523060805234801561001457600080fd5b5061001d610022565b6100d4565b7ff0c57e16840df040f15088dc2f81fe391c3923bec73e23a9662efc9c229c6a00805468010000000000000000900460ff16156100725760405163f92ee8a960e01b815260040160405180910390fd5b80546001600160401b03908116146100d15780546001600160401b0319166001600160401b0390811782556040519081527fc7f505b2f371ae2175ee4913f4499e1f2633a7b5936321eed1cdaeb6115181d29060200160405180910390a15b50565b6080516144ed6100fd600039600081816120020152818161202b015261224701526144ed6000f3fe6080604052600436106101965760003560e01c8063b726962e116100e1578063dbc85c5a1161008a578063edae876f11610064578063edae876f1461058b578063f0329f6b146105b8578063f2fde38b146105e5578063f5f2e7931461060557600080fd5b8063dbc85c5a1461051e578063e535aa371461053e578063e5b7e2b41461055e57600080fd5b8063c4d66de8116100bb578063c4d66de8146104be578063ce30c9de146104de578063d0ebdbe7146104fe57600080fd5b8063b726962e14610424578063c0d7865514610444578063c3dc058d1461046457600080fd5b8063715018a611610143578063a9aa44b01161011d578063a9aa44b014610354578063ad3cb1cc146103ae578063b4b9bb7c1461040457600080fd5b8063715018a6146102d55780638da5cb5b146102ea578063936a83e51461033457600080fd5b80634efe6f34116101745780634efe6f341461024f5780634f1ef286146102ab57806352d1902d146102c057600080fd5b80630c4393b91461019b5780632c16cd8a146101f257806348d20d161461021f575b600080fd5b3480156101a757600080fd5b506006546101c89073ffffffffffffffffffffffffffffffffffffffff1681565b60405173ffffffffffffffffffffffffffffffffffffffff90911681526020015b60405180910390f35b3480156101fe57600080fd5b5061021261020d3660046139a4565b61061b565b6040516101e99190613a95565b34801561022b57600080fd5b5061023f61023a366004613c16565b6108b0565b60405190151581526020016101e9565b34801561025b57600080fd5b5061029d61026a366004613c58565b600090815260056020908152604080832073ffffffffffffffffffffffffffffffffffffffff9094168352929052205490565b6040519081526020016101e9565b6102be6102b9366004613d97565b610a1b565b005b3480156102cc57600080fd5b5061029d610a3a565b3480156102e157600080fd5b506102be610a69565b3480156102f657600080fd5b507f9016d09d72d40fdae2fd8ceac6b6234c7706214fd39c1cd1e609a0528c1993005473ffffffffffffffffffffffffffffffffffffffff166101c8565b34801561034057600080fd5b506102be61034f366004613dfb565b610a7d565b34801561036057600080fd5b5061029d61036f366004613e2b565b6000908152600b6020908152604080832073ffffffffffffffffffffffffffffffffffffffff9586168452825280832093909416825291909152205490565b3480156103ba57600080fd5b506103f76040518060400160405280600581526020017f352e302e3000000000000000000000000000000000000000000000000000000081525081565b6040516101e99190613e6c565b34801561041057600080fd5b5061023f61041f366004613e9f565b610c4a565b34801561043057600080fd5b506102be61043f366004613dfb565b611214565b34801561045057600080fd5b506102be61045f366004613f6c565b611454565b34801561047057600080fd5b5061029d61047f366004613e2b565b6000908152600a6020908152604080832073ffffffffffffffffffffffffffffffffffffffff9586168452825280832093909416825291909152205490565b3480156104ca57600080fd5b506102be6104d9366004613f6c565b611530565b3480156104ea57600080fd5b506102be6104f9366004613f89565b6116c5565b34801561050a57600080fd5b506102be610519366004613f6c565b611b97565b34801561052a57600080fd5b506102be610539366004613f6c565b611c73565b34801561054a57600080fd5b506102be61055936600461404a565b611d5b565b34801561056a57600080fd5b5061057e610579366004613f6c565b611ded565b6040516101e9919061408d565b34801561059757600080fd5b506009546101c89073ffffffffffffffffffffffffffffffffffffffff1681565b3480156105c457600080fd5b506008546101c89073ffffffffffffffffffffffffffffffffffffffff1681565b3480156105f157600080fd5b506102be610600366004613f6c565b611e66565b34801561061157600080fd5b5061029d60005481565b6106236138f1565b6000828152600160208181526040928390208351610180810190945280548452918201805491840191610655906140d0565b80601f0160208091040260200160405190810160405280929190818152602001828054610681906140d0565b80156106ce5780601f106106a3576101008083540402835291602001916106ce565b820191906000526020600020905b8154815290600101906020018083116106b157829003601f168201915b5050509183525050600282015473ffffffffffffffffffffffffffffffffffffffff90811660208301526003830154166040820152600482018054606090920191610718906140d0565b80601f0160208091040260200160405190810160405280929190818152602001828054610744906140d0565b80156107915780601f1061076657610100808354040283529160200191610791565b820191906000526020600020905b81548152906001019060200180831161077457829003601f168201915b5050509183525050600582015473ffffffffffffffffffffffffffffffffffffffff166020820152600682015460408201526007820154606082015260088201546080820152600982015460a0820152600a8201805460c0909201916107f6906140d0565b80601f0160208091040260200160405190810160405280929190818152602001828054610822906140d0565b801561086f5780601f106108445761010080835404028352916020019161086f565b820191906000526020600020905b81548152906001019060200180831161085257829003601f168201915b5050509183525050600b82015460209091019060ff16600281111561089657610896613a2b565b60028111156108a7576108a7613a2b565b90525092915050565b60006108ba611eca565b60095473ffffffffffffffffffffffffffffffffffffffff163314610912576040517f8e4c8aa60000000000000000000000000000000000000000000000000000000081523360048201526024015b60405180910390fd5b6000848152600b6020908152604080832073ffffffffffffffffffffffffffffffffffffffff87811685529083528184209086168452909152812054908190036109a0576040517fb4741e1a00000000000000000000000000000000000000000000000000000000815273ffffffffffffffffffffffffffffffffffffffff84166004820152602401610909565b6109ab848483611f4b565b50506000838152600b6020908152604080832073ffffffffffffffffffffffffffffffffffffffff868116855290835281842090851684529091528120556001610a1460017f9b779b17422d0df92223018b32b4d1fa46e071723d6817e2486d003becc55f0055565b9392505050565b610a23611fea565b610a2c826120ee565b610a3682826120f6565b5050565b6000610a4461222f565b507f360894a13ba1a3210667c828492db98dca3e2076cc3735a920a3ca505d382bbc90565b610a7161229e565b610a7b600061232c565b565b610a85611eca565b60085473ffffffffffffffffffffffffffffffffffffffff163314610ad8576040517f8e4c8aa6000000000000000000000000000000000000000000000000000000008152336004820152602401610909565b600082815260046020908152604080832073ffffffffffffffffffffffffffffffffffffffff851684529091528120549003610b40576040517f6e7e9ea500000000000000000000000000000000000000000000000000000000815260040160405180910390fd5b6007546040517fef0e239b0000000000000000000000000000000000000000000000000000000081526004810184905260009173ffffffffffffffffffffffffffffffffffffffff169063ef0e239b90602401608060405180830381865afa158015610bb0573d6000803e3d6000fd5b505050506040513d601f19601f82011682018060405250810190610bd49190614123565b50600084815260046020908152604080832073ffffffffffffffffffffffffffffffffffffffff87168085529083529083208054939055908301519293509091610c1f9190836123c2565b5050610a3660017f9b779b17422d0df92223018b32b4d1fa46e071723d6817e2486d003becc55f0055565b6000610c54611eca565b60085473ffffffffffffffffffffffffffffffffffffffff163314610ca7576040517f8e4c8aa6000000000000000000000000000000000000000000000000000000008152336004820152602401610909565b81516000908152600160205260408120549003610cf0576040517f54446f7100000000000000000000000000000000000000000000000000000000815260040160405180910390fd5b600282516000908152600160205260409020600b015460ff166002811115610d1a57610d1a613a2b565b14610d51576040517fcdc7646400000000000000000000000000000000000000000000000000000000815260040160405180910390fd5b6007546040517fef0e239b0000000000000000000000000000000000000000000000000000000081526004810185905260009173ffffffffffffffffffffffffffffffffffffffff169063ef0e239b90602401608060405180830381865afa158015610dc1573d6000803e3d6000fd5b505050506040513d601f19601f82011682018060405250810190610de59190614123565b508351600090815260016020526040808220600301548651835281832060060154875184529183206007015493945073ffffffffffffffffffffffffffffffffffffffff1692909190610e39908390612443565b91506000905086606001516002811115610e5557610e55613a2b565b03610ef2578551600090815260016020526040902060050154610e92908590859073ffffffffffffffffffffffffffffffffffffffff168461246c565b606086015186516000908152600160208190526040909120600b01805490917fffffffffffffffffffffffffffffffffffffffffffffffffffffffffffffff0090911690836002811115610ee857610ee8613a2b565b02179055506111dd565b600186606001516002811115610f0a57610f0a613a2b565b14610f41576040517f6e718ca000000000000000000000000000000000000000000000000000000000815260040160405180910390fd5b6111dd8760016000896000015181526020019081526020016000206040518061018001604052908160008201548152602001600182018054610f82906140d0565b80601f0160208091040260200160405190810160405280929190818152602001828054610fae906140d0565b8015610ffb5780601f10610fd057610100808354040283529160200191610ffb565b820191906000526020600020905b815481529060010190602001808311610fde57829003601f168201915b5050509183525050600282015473ffffffffffffffffffffffffffffffffffffffff90811660208301526003830154166040820152600482018054606090920191611045906140d0565b80601f0160208091040260200160405190810160405280929190818152602001828054611071906140d0565b80156110be5780601f10611093576101008083540402835291602001916110be565b820191906000526020600020905b8154815290600101906020018083116110a157829003601f168201915b5050509183525050600582015473ffffffffffffffffffffffffffffffffffffffff166020820152600682015460408201526007820154606082015260088201546080820152600982015460a0820152600a8201805460c090920191611123906140d0565b80601f016020809104026020016040519081016040528092919081815260200182805461114f906140d0565b801561119c5780601f106111715761010080835404028352916020019161119c565b820191906000526020600020905b81548152906001019060200180831161117f57829003601f168201915b5050509183525050600b82015460209091019060ff1660028111156111c3576111c3613a2b565b60028111156111d4576111d4613a2b565b90525083612657565b600194505050505061120e60017f9b779b17422d0df92223018b32b4d1fa46e071723d6817e2486d003becc55f0055565b92915050565b61121c611eca565b60085473ffffffffffffffffffffffffffffffffffffffff16331461126f576040517f8e4c8aa6000000000000000000000000000000000000000000000000000000008152336004820152602401610909565b6007546040517fef0e239b0000000000000000000000000000000000000000000000000000000081526004810184905260009173ffffffffffffffffffffffffffffffffffffffff169063ef0e239b90602401608060405180830381865afa1580156112df573d6000803e3d6000fd5b505050506040513d601f19601f820116820180604052508101906113039190614123565b50600084815260056020908152604080832073ffffffffffffffffffffffffffffffffffffffff87168452909152812054919250819003611370576040517f6806da6800000000000000000000000000000000000000000000000000000000815260040160405180910390fd5b600084815260056020908152604080832073ffffffffffffffffffffffffffffffffffffffff8716808552908352908320929092558301516113b39190836123c2565b8273ffffffffffffffffffffffffffffffffffffffff16847fe3d4066ff5850a350375c03e4752870f2c3526e35f0e28508108f3b4ac13b0cd84602001518460405161142192919073ffffffffffffffffffffffffffffffffffffffff929092168252602082015260400190565b60405180910390a35050610a3660017f9b779b17422d0df92223018b32b4d1fa46e071723d6817e2486d003becc55f0055565b61145c61229e565b73ffffffffffffffffffffffffffffffffffffffff81166114c1576040517f8e4c8aa600000000000000000000000000000000000000000000000000000000815273ffffffffffffffffffffffffffffffffffffffff82166004820152602401610909565b600980547fffffffffffffffffffffffff00000000000000000000000000000000000000001673ffffffffffffffffffffffffffffffffffffffff83169081179091556040517f7aed1d3e8155a07ccf395e44ea3109a0e2d6c9b29bbbe9f142d9790596f4dc8090600090a250565b7ff0c57e16840df040f15088dc2f81fe391c3923bec73e23a9662efc9c229c6a00805468010000000000000000810460ff16159067ffffffffffffffff1660008115801561157b5750825b905060008267ffffffffffffffff1660011480156115985750303b155b9050811580156115a6575080155b156115dd576040517ff92ee8a900000000000000000000000000000000000000000000000000000000815260040160405180910390fd5b84547fffffffffffffffffffffffffffffffffffffffffffffffff0000000000000000166001178555831561163e5784547fffffffffffffffffffffffffffffffffffffffffffffff00ffffffffffffffff16680100000000000000001785555b61164661290a565b61164e612912565b61165786612922565b600160005583156116bd5784547fffffffffffffffffffffffffffffffffffffffffffffff00ffffffffffffffff168555604051600181527fc7f505b2f371ae2175ee4913f4499e1f2633a7b5936321eed1cdaeb6115181d29060200160405180910390a15b505050505050565b6116cd611eca565b60095473ffffffffffffffffffffffffffffffffffffffff163314611720576040517f8e4c8aa6000000000000000000000000000000000000000000000000000000008152336004820152602401610909565b60808201516000906117329083612443565b60608501516007546040517fef0e239b0000000000000000000000000000000000000000000000000000000081526004810189905292945090925060009173ffffffffffffffffffffffffffffffffffffffff9091169063ef0e239b90602401608060405180830381865afa1580156117af573d6000803e3d6000fd5b505050506040513d601f19601f820116820180604052508101906117d39190614123565b5085516000888152600a6020908152604080832073ffffffffffffffffffffffffffffffffffffffff8881168552908352818420941683529290529081205491925061181f8583612443565b885160008b8152600a6020908152604080832073ffffffffffffffffffffffffffffffffffffffff808c168552908352818420941683529290522081905591506118669050565b6000604051806101800160405280600054815260200189604001518152602001856040015173ffffffffffffffffffffffffffffffffffffffff168152602001896060015173ffffffffffffffffffffffffffffffffffffffff168152602001604051806020016040528060008152508152602001896000015173ffffffffffffffffffffffffffffffffffffffff168152602001896080015181526020018881526020018960200151815260200142815260200160405180602001604052806000815250815260200160028081111561194257611942613a2b565b8152509050600160008082825461195991906141dd565b9250508190555060016003600082825461197391906141dd565b90915550508051600090815260016020818152604090922083518155918301518392918201906119a3908261423e565b50604082015160028201805473ffffffffffffffffffffffffffffffffffffffff9283167fffffffffffffffffffffffff000000000000000000000000000000000000000091821617909155606084015160038401805491909316911617905560808201516004820190611a17908261423e565b5060a08201516005820180547fffffffffffffffffffffffff00000000000000000000000000000000000000001673ffffffffffffffffffffffffffffffffffffffff90921691909117905560c0820151600682015560e0820151600782015561010082015160088201556101208201516009820155610140820151600a820190611aa2908261423e565b50610160820151600b820180547fffffffffffffffffffffffffffffffffffffffffffffffffffffffffffffff00166001836002811115611ae557611ae5613a2b565b0217905550505060a081015173ffffffffffffffffffffffffffffffffffffffff166000908152600260209081526040808320845181546001810183559185529290932090920155517ffe31e11aad0d4767904c798dd8326e02ff3f34ade391dc074800a8b71d34a7ec90611b5b908390613a95565b60405180910390a1505050505050611b9260017f9b779b17422d0df92223018b32b4d1fa46e071723d6817e2486d003becc55f0055565b505050565b611b9f61229e565b73ffffffffffffffffffffffffffffffffffffffff8116611c04576040517f8e4c8aa600000000000000000000000000000000000000000000000000000000815273ffffffffffffffffffffffffffffffffffffffff82166004820152602401610909565b600880547fffffffffffffffffffffffff00000000000000000000000000000000000000001673ffffffffffffffffffffffffffffffffffffffff83169081179091556040517f2c1c11af44aa5608f1dca38c00275c30ea091e02417d36e70e9a1538689c433d90600090a250565b611c7b61229e565b73ffffffffffffffffffffffffffffffffffffffff8116611ce0576040517f8e4c8aa600000000000000000000000000000000000000000000000000000000815273ffffffffffffffffffffffffffffffffffffffff82166004820152602401610909565b6006805473ffffffffffffffffffffffffffffffffffffffff83167fffffffffffffffffffffffff0000000000000000000000000000000000000000918216811790925560078054909116821790556040517f12fd82a8fae6400d0456d521504e56c94dd90726268fd158b0584ec682e1b5b190600090a250565b611d63611eca565b60085473ffffffffffffffffffffffffffffffffffffffff163314611db6576040517fcbd9d2e0000000000000000000000000000000000000000000000000000000008152336004820152602401610909565b611dc4600460058484612933565b610a3660017f9b779b17422d0df92223018b32b4d1fa46e071723d6817e2486d003becc55f0055565b73ffffffffffffffffffffffffffffffffffffffff8116600090815260026020908152604091829020805483518184028101840190945280845260609392830182828015611e5a57602002820191906000526020600020905b815481526020019060010190808311611e46575b50505050509050919050565b611e6e61229e565b73ffffffffffffffffffffffffffffffffffffffff8116611ebe576040517f1e4fbdf700000000000000000000000000000000000000000000000000000000815260006004820152602401610909565b611ec78161232c565b50565b7f9b779b17422d0df92223018b32b4d1fa46e071723d6817e2486d003becc55f0080547ffffffffffffffffffffffffffffffffffffffffffffffffffffffffffffffffe01611f45576040517f3ee5aeb500000000000000000000000000000000000000000000000000000000815260040160405180910390fd5b60029055565b611f6c73ffffffffffffffffffffffffffffffffffffffff841683836123c2565b6040805173ffffffffffffffffffffffffffffffffffffffff8581168252602082018490528416917f4b0c3d1fc51b8d48eaf8e0c0a8554a1bdfa3ccd89dff5f774bb84d1d901bc30b910160405180910390a2505050565b60017f9b779b17422d0df92223018b32b4d1fa46e071723d6817e2486d003becc55f0055565b3073ffffffffffffffffffffffffffffffffffffffff7f00000000000000000000000000000000000000000000000000000000000000001614806120b757507f000000000000000000000000000000000000000000000000000000000000000073ffffffffffffffffffffffffffffffffffffffff1661209e7f360894a13ba1a3210667c828492db98dca3e2076cc3735a920a3ca505d382bbc5473ffffffffffffffffffffffffffffffffffffffff1690565b73ffffffffffffffffffffffffffffffffffffffff1614155b15610a7b576040517fe07c8dba00000000000000000000000000000000000000000000000000000000815260040160405180910390fd5b611ec761229e565b8173ffffffffffffffffffffffffffffffffffffffff166352d1902d6040518163ffffffff1660e01b8152600401602060405180830381865afa92505050801561217b575060408051601f3d9081017fffffffffffffffffffffffffffffffffffffffffffffffffffffffffffffffe016820190925261217891810190614357565b60015b6121c9576040517f4c9c8ce300000000000000000000000000000000000000000000000000000000815273ffffffffffffffffffffffffffffffffffffffff83166004820152602401610909565b7f360894a13ba1a3210667c828492db98dca3e2076cc3735a920a3ca505d382bbc8114612225576040517faa1d49a400000000000000000000000000000000000000000000000000000000815260048101829052602401610909565b611b928383612dd0565b3073ffffffffffffffffffffffffffffffffffffffff7f00000000000000000000000000000000000000000000000000000000000000001614610a7b576040517fe07c8dba00000000000000000000000000000000000000000000000000000000815260040160405180910390fd5b336122dd7f9016d09d72d40fdae2fd8ceac6b6234c7706214fd39c1cd1e609a0528c1993005473ffffffffffffffffffffffffffffffffffffffff1690565b73ffffffffffffffffffffffffffffffffffffffff1614610a7b576040517f118cdaa7000000000000000000000000000000000000000000000000000000008152336004820152602401610909565b7f9016d09d72d40fdae2fd8ceac6b6234c7706214fd39c1cd1e609a0528c19930080547fffffffffffffffffffffffff0000000000000000000000000000000000000000811673ffffffffffffffffffffffffffffffffffffffff848116918217845560405192169182907f8be0079c531659141344cd1fd0a4f28419497f9722a3daafe3b4186f6b6457e090600090a3505050565b60405173ffffffffffffffffffffffffffffffffffffffff838116602483015260448201839052611b9291859182169063a9059cbb906064015b604051602081830303815290604052915060e01b6020820180517bffffffffffffffffffffffffffffffffffffffffffffffffffffffff8381831617835250505050612e33565b6000808383018481101561245e576000809250925050612465565b6001925090505b9250929050565b83516000908152600b6020908152604080832073ffffffffffffffffffffffffffffffffffffffff8088168552908352818420908616845290915281205481906124b69084612443565b87516000908152600a6020908152604080832073ffffffffffffffffffffffffffffffffffffffff8b81168552908352818420908a168452909152902054919350915082612533576040517fc0d7d3cc00000000000000000000000000000000000000000000000000000000815260016004820152602401610909565b818082101561256e576040517f1eb8e4e900000000000000000000000000000000000000000000000000000000815260040160405180910390fd5b60008061257b8488612ec9565b91509150816125b9576040517fc0d7d3cc00000000000000000000000000000000000000000000000000000000815260026004820152602401610909565b89516000908152600a6020908152604080832073ffffffffffffffffffffffffffffffffffffffff8d8116808652918452828520908d168086529084528285208690558e518552600b8452828520918552908352818420818552835292819020869055518981527fc26e84de705d2bfd99e3fa9d482912f6918366d3bbde41683ecfbc118b40efbd910160405180910390a250505050505050505050565b815160009081526001602090815260408083206007015486845260058352818420606087015173ffffffffffffffffffffffffffffffffffffffff16855290925282205482916126a79190612443565b606086015186516000908152600160209081526040808320600501548b8452600a835281842073ffffffffffffffffffffffffffffffffffffffff95861685528352818420941683529290522054919350915082612734576040517fc0d7d3cc00000000000000000000000000000000000000000000000000000000815260036004820152602401610909565b600086815260056020908152604080832060608901805173ffffffffffffffffffffffffffffffffffffffff908116865291845282852087905560c08a01518b8652600485528386209151909216855290925282205482916127969190612443565b91509150816127d3576040517fc0d7d3cc000000000000000000000000000000000000000000000000000000008152600481810152602401610909565b6000806127e08589612ec9565b915091508161281e576040517fc0d7d3cc00000000000000000000000000000000000000000000000000000000815260056004820152602401610909565b60008a815260046020908152604080832060608d01805173ffffffffffffffffffffffffffffffffffffffff90811686529184528285208890555160a08e01518f8652600a8552838620918316865290845282852091168452909152902081905561014089015189516000908152600160205260409020600a01906128a3908261423e565b5088516000908152600160208190526040808320600b0180547fffffffffffffffffffffffffffffffffffffffffffffffffffffffffffffff001690921790915560808b01518b5183529120600401906128fd908261423e565b5050505050505050505050565b610a7b612eeb565b61291a612eeb565b610a7b612f52565b61292a612eeb565b611ec781612f5a565b60006129426020830183613f6c565b73ffffffffffffffffffffffffffffffffffffffff161480612989575060006129716040830160208401613f6c565b73ffffffffffffffffffffffffffffffffffffffff16145b156129c0576040517f1eb00b0600000000000000000000000000000000000000000000000000000000815260040160405180910390fd5b80604001356000036129fe576040517fe346d81d00000000000000000000000000000000000000000000000000000000815260040160405180910390fd5b6000828152602085815260408220908290612a1b90850185613f6c565b73ffffffffffffffffffffffffffffffffffffffff1681526020808201929092526040908101600090812054868252878452918120919350918290612a6290860186613f6c565b73ffffffffffffffffffffffffffffffffffffffff16815260208101919091526040016000908120549150612a9782846141dd565b90508360400135811015612ae457604080517f29b1c81100000000000000000000000000000000000000000000000000000000815260048101839052908501356024820152604401610909565b600081612af5856040880135614370565b612aff91906143b6565b9050600082612b12856040890135614370565b612b1c91906143b6565b90506000612b2a82846141dd565b90508660400135811015612b58576000612b488260408a01356143f1565b9050612b5481856141dd565b9350505b612b6283876143f1565b600089815260208c8152604082209190612b7e908b018b613f6c565b73ffffffffffffffffffffffffffffffffffffffff168152602081019190915260400160002055612baf82866143f1565b600089815260208b8152604082209190612bcb908b018b613f6c565b73ffffffffffffffffffffffffffffffffffffffff1681526020810191909152604001600090812091909155612c10612c0a60808a0160608b01613f6c565b89612f62565b90508415612d1957600080612c2a878b60400135856131d3565b91509150818d60008d815260200190815260200160002060008c6020016020810190612c569190613f6c565b73ffffffffffffffffffffffffffffffffffffffff1673ffffffffffffffffffffffffffffffffffffffff1681526020019081526020016000206000828254612c9f91906141dd565b909155505060008b815260208d81526040808320849390929091612cc891908f01908f01613f6c565b73ffffffffffffffffffffffffffffffffffffffff1673ffffffffffffffffffffffffffffffffffffffff1681526020019081526020016000206000828254612d1191906141dd565b909155505050505b612d296080890160608a01613f6c565b73ffffffffffffffffffffffffffffffffffffffff16897f527621353620f34f430c80603e6f08e61362d3e365d229288b14e89b4ffb1c32612d6e60208c018c613f6c565b612d7e60408d0160208e01613f6c565b6040805173ffffffffffffffffffffffffffffffffffffffff938416815292909116602083015281018b9052606081018a90526080810185905260a00160405180910390a35050505050505050505050565b612dd98261320b565b60405173ffffffffffffffffffffffffffffffffffffffff8316907fbc7cd75a20ee27fd9adebab32041f755214dbc6bffa90cc0225b39da2e5c2d3b90600090a2805115612e2b57611b9282826132da565b610a3661335d565b6000612e5573ffffffffffffffffffffffffffffffffffffffff841683613395565b90508051600014158015612e7a575080806020019051810190612e789190614404565b155b15611b92576040517f5274afe700000000000000000000000000000000000000000000000000000000815273ffffffffffffffffffffffffffffffffffffffff84166004820152602401610909565b60008083831115612edf57506000905080612465565b50600193919092039150565b7ff0c57e16840df040f15088dc2f81fe391c3923bec73e23a9662efc9c229c6a005468010000000000000000900460ff16610a7b576040517fd7e6bcf800000000000000000000000000000000000000000000000000000000815260040160405180910390fd5b611fc4612eeb565b611e6e612eeb565b600080612f756040840160208501613f6c565b6040517f70a0823100000000000000000000000000000000000000000000000000000000815230600482015273ffffffffffffffffffffffffffffffffffffffff91909116906370a0823190602401602060405180830381865afa158015612fe1573d6000803e3d6000fd5b505050506040513d601f19601f820116820180604052508101906130059190614357565b905061303a84604085013561301d6020870187613f6c565b73ffffffffffffffffffffffffffffffffffffffff1691906133a3565b600073ffffffffffffffffffffffffffffffffffffffff85166130606080860186614426565b60405161306e92919061448b565b6000604051808303816000865af19150503d80600081146130ab576040519150601f19603f3d011682016040523d82523d6000602084013e6130b0565b606091505b50509050806130eb576040517fd0bbd5ad00000000000000000000000000000000000000000000000000000000815260040160405180910390fd5b61311b8560006130fe6020880188613f6c565b73ffffffffffffffffffffffffffffffffffffffff169190613459565b600061312d6040860160208701613f6c565b6040517f70a0823100000000000000000000000000000000000000000000000000000000815230600482015273ffffffffffffffffffffffffffffffffffffffff91909116906370a0823190602401602060405180830381865afa158015613199573d6000803e3d6000fd5b505050506040513d601f19601f820116820180604052508101906131bd9190614357565b90506131c983826143f1565b9695505050505050565b600080806131e18486613562565b91506131ef9050818761359f565b93506131fd90508484612ec9565b939793965092945050505050565b8073ffffffffffffffffffffffffffffffffffffffff163b600003613274576040517f4c9c8ce300000000000000000000000000000000000000000000000000000000815273ffffffffffffffffffffffffffffffffffffffff82166004820152602401610909565b7f360894a13ba1a3210667c828492db98dca3e2076cc3735a920a3ca505d382bbc80547fffffffffffffffffffffffff00000000000000000000000000000000000000001673ffffffffffffffffffffffffffffffffffffffff92909216919091179055565b60606000808473ffffffffffffffffffffffffffffffffffffffff1684604051613304919061449b565b600060405180830381855af49150503d806000811461333f576040519150601f19603f3d011682016040523d82523d6000602084013e613344565b606091505b50915091506133548583836135d2565b95945050505050565b3415610a7b576040517fb398979f00000000000000000000000000000000000000000000000000000000815260040160405180910390fd5b6060610a1483836000613661565b6040517fdd62ed3e00000000000000000000000000000000000000000000000000000000815230600482015273ffffffffffffffffffffffffffffffffffffffff83811660248301526000919085169063dd62ed3e90604401602060405180830381865afa158015613419573d6000803e3d6000fd5b505050506040513d601f19601f8201168201806040525081019061343d9190614357565b9050613453848461344e85856141dd565b61371a565b50505050565b6040517fdd62ed3e00000000000000000000000000000000000000000000000000000000815230600482015273ffffffffffffffffffffffffffffffffffffffff83811660248301526000919085169063dd62ed3e90604401602060405180830381865afa1580156134cf573d6000803e3d6000fd5b505050506040513d601f19601f820116820180604052508101906134f39190614357565b905081811015613555576040517fe570110f00000000000000000000000000000000000000000000000000000000815273ffffffffffffffffffffffffffffffffffffffff841660048201526024810182905260448101839052606401610909565b613453848484840361371a565b600080836000036135795750600190506000612465565b8383028385828161358c5761358c614387565b041461245e576000809250925050612465565b600080826000036135b557506000905080612465565b60018385816135c6576135c6614387565b04915091509250929050565b6060826135e7576135e2826137f2565b610a14565b815115801561360b575073ffffffffffffffffffffffffffffffffffffffff84163b155b1561365a576040517f9996b31500000000000000000000000000000000000000000000000000000000815273ffffffffffffffffffffffffffffffffffffffff85166004820152602401610909565b5080610a14565b60608147101561369f576040517fcd786059000000000000000000000000000000000000000000000000000000008152306004820152602401610909565b6000808573ffffffffffffffffffffffffffffffffffffffff1684866040516136c8919061449b565b60006040518083038185875af1925050503d8060008114613705576040519150601f19603f3d011682016040523d82523d6000602084013e61370a565b606091505b50915091506131c98683836135d2565b6040805173ffffffffffffffffffffffffffffffffffffffff8416602482015260448082018490528251808303909101815260649091019091526020810180517bffffffffffffffffffffffffffffffffffffffffffffffffffffffff167f095ea7b3000000000000000000000000000000000000000000000000000000001790526137a68482613834565b6134535760405173ffffffffffffffffffffffffffffffffffffffff8481166024830152600060448301526137e891869182169063095ea7b3906064016123fc565b6134538482612e33565b8051156138025780518082602001fd5b6040517f1425ea4200000000000000000000000000000000000000000000000000000000815260040160405180910390fd5b60008060008473ffffffffffffffffffffffffffffffffffffffff168460405161385e919061449b565b6000604051808303816000865af19150503d806000811461389b576040519150601f19603f3d011682016040523d82523d6000602084013e6138a0565b606091505b50915091508180156138ca5750805115806138ca5750808060200190518101906138ca9190614404565b801561335457505050505073ffffffffffffffffffffffffffffffffffffffff163b151590565b6040518061018001604052806000815260200160608152602001600073ffffffffffffffffffffffffffffffffffffffff168152602001600073ffffffffffffffffffffffffffffffffffffffff16815260200160608152602001600073ffffffffffffffffffffffffffffffffffffffff16815260200160008152602001600081526020016000815260200160008152602001606081526020016000600281111561399f5761399f613a2b565b905290565b6000602082840312156139b657600080fd5b5035919050565b60005b838110156139d85781810151838201526020016139c0565b50506000910152565b600081518084526139f98160208601602086016139bd565b601f017fffffffffffffffffffffffffffffffffffffffffffffffffffffffffffffffe0169290920160200192915050565b7f4e487b7100000000000000000000000000000000000000000000000000000000600052602160045260246000fd5b60038110613a91577f4e487b7100000000000000000000000000000000000000000000000000000000600052602160045260246000fd5b9052565b6020815281516020820152600060208301516101806040840152613abd6101a08401826139e1565b90506040840151613ae6606085018273ffffffffffffffffffffffffffffffffffffffff169052565b50606084015173ffffffffffffffffffffffffffffffffffffffff811660808501525060808401517fffffffffffffffffffffffffffffffffffffffffffffffffffffffffffffffe08483030160a0850152613b4282826139e1565b91505060a0840151613b6c60c085018273ffffffffffffffffffffffffffffffffffffffff169052565b5060c084015160e084015260e08401516101008401526101008401516101208401526101208401516101408401526101408401517fffffffffffffffffffffffffffffffffffffffffffffffffffffffffffffffe084830301610160850152613bd582826139e1565b915050610160840151613bec610180850182613a5a565b509392505050565b73ffffffffffffffffffffffffffffffffffffffff81168114611ec757600080fd5b600080600060608486031215613c2b57600080fd5b833592506020840135613c3d81613bf4565b91506040840135613c4d81613bf4565b809150509250925092565b60008060408385031215613c6b57600080fd5b8235613c7681613bf4565b946020939093013593505050565b7f4e487b7100000000000000000000000000000000000000000000000000000000600052604160045260246000fd5b6040516080810167ffffffffffffffff81118282101715613cd657613cd6613c84565b60405290565b60405160a0810167ffffffffffffffff81118282101715613cd657613cd6613c84565b60008067ffffffffffffffff841115613d1a57613d1a613c84565b506040517fffffffffffffffffffffffffffffffffffffffffffffffffffffffffffffffe0601f85018116603f0116810181811067ffffffffffffffff82111715613d6757613d67613c84565b604052838152905080828401851015613d7f57600080fd5b83836020830137600060208583010152509392505050565b60008060408385031215613daa57600080fd5b8235613db581613bf4565b9150602083013567ffffffffffffffff811115613dd157600080fd5b8301601f81018513613de257600080fd5b613df185823560208401613cff565b9150509250929050565b60008060408385031215613e0e57600080fd5b823591506020830135613e2081613bf4565b809150509250929050565b600080600060608486031215613e4057600080fd5b8335613e4b81613bf4565b92506020840135613e5b81613bf4565b929592945050506040919091013590565b602081526000610a1460208301846139e1565b600082601f830112613e9057600080fd5b610a1483833560208501613cff565b60008060408385031215613eb257600080fd5b82359150602083013567ffffffffffffffff811115613ed057600080fd5b830160808186031215613ee257600080fd5b613eea613cb3565b81358152602082013567ffffffffffffffff811115613f0857600080fd5b613f1487828501613e7f565b602083015250604082013567ffffffffffffffff811115613f3457600080fd5b613f4087828501613e7f565b6040830152506060820135915060038210613f5a57600080fd5b81606082015280925050509250929050565b600060208284031215613f7e57600080fd5b8135610a1481613bf4565b600080600060608486031215613f9e57600080fd5b83359250602084013567ffffffffffffffff811115613fbc57600080fd5b840160a08187031215613fce57600080fd5b613fd6613cdc565b8135613fe181613bf4565b815260208281013590820152604082013567ffffffffffffffff81111561400757600080fd5b61401388828501613e7f565b604083015250606082013561402781613bf4565b606082015260809182013591810191909152929592945050506040919091013590565b6000806040838503121561405d57600080fd5b82359150602083013567ffffffffffffffff81111561407b57600080fd5b830160a08186031215613e2057600080fd5b602080825282518282018190526000918401906040840190835b818110156140c55783518352602093840193909201916001016140a7565b509095945050505050565b600181811c908216806140e457607f821691505b60208210810361411d577f4e487b7100000000000000000000000000000000000000000000000000000000600052602260045260246000fd5b50919050565b600080828403608081121561413757600080fd5b606081121561414557600080fd5b506040516060810167ffffffffffffffff8111828210171561416957614169613c84565b60405283518152602084015161417e81613bf4565b6020820152604084015161419181613bf4565b6040820152606084015190925061ffff81168114613e2057600080fd5b7f4e487b7100000000000000000000000000000000000000000000000000000000600052601160045260246000fd5b8082018082111561120e5761120e6141ae565b601f821115611b9257806000526020600020601f840160051c810160208510156142175750805b601f840160051c820191505b818110156142375760008155600101614223565b5050505050565b815167ffffffffffffffff81111561425857614258613c84565b61426c8161426684546140d0565b846141f0565b6020601f8211600181146142be57600083156142885750848201515b7fffffffffffffffffffffffffffffffffffffffffffffffffffffffffffffffff600385901b1c1916600184901b178455614237565b6000848152602081207fffffffffffffffffffffffffffffffffffffffffffffffffffffffffffffffe08516915b8281101561430c57878501518255602094850194600190920191016142ec565b508482101561434857868401517fffffffffffffffffffffffffffffffffffffffffffffffffffffffffffffffff600387901b60f8161c191681555b50505050600190811b01905550565b60006020828403121561436957600080fd5b5051919050565b808202811582820484141761120e5761120e6141ae565b7f4e487b7100000000000000000000000000000000000000000000000000000000600052601260045260246000fd5b6000826143ec577f4e487b7100000000000000000000000000000000000000000000000000000000600052601260045260246000fd5b500490565b8181038181111561120e5761120e6141ae565b60006020828403121561441657600080fd5b81518015158114610a1457600080fd5b60008083357fffffffffffffffffffffffffffffffffffffffffffffffffffffffffffffffe184360301811261445b57600080fd5b83018035915067ffffffffffffffff82111561447657600080fd5b60200191503681900382131561246557600080fd5b8183823760009101908152919050565b600082516144ad8184602087016139bd565b919091019291505056fea2646970667358221220b46866f9762e5f4d5f2d9d92e8c94a2ee3afee7f4997e608d77965ce1410486764736f6c634300081c0033","linkReferences":{}},"methodIdentifiers":{"UPGRADE_INTERFACE_VERSION()":"ad3cb1cc","_fulfillableRegistry()":"0c4393b9","_fulfillmentIdCount()":"f5f2e793","_manager()":"f0329f6b","_router()":"edae876f","beneficiaryWithdraw(uint256,address)":"936a83e5","depositERC20(uint256,(address,uint256,string,address,uint256),uint256)":"ce30c9de","getERC20DepositsFor(address,address,uint256)":"c3dc058d","getERC20FeesFor(address,uint256)":"4efe6f34","getERC20RefundsFor(address,address,uint256)":"a9aa44b0","initialize(address)":"c4d66de8","owner()":"8da5cb5b","proxiableUUID()":"52d1902d","record(uint256)":"2c16cd8a","recordsOf(address)":"e5b7e2b4","registerFulfillment(uint256,(uint256,string,string,uint8))":"b4b9bb7c","renounceOwnership()":"715018a6","setFulfillableRegistry(address)":"dbc85c5a","setManager(address)":"d0ebdbe7","setRouter(address)":"c0d78655","swapPoolsToStable(uint256,(address,address,uint256,address,bytes))":"e535aa37","transferOwnership(address)":"f2fde38b","upgradeToAndCall(address,bytes)":"4f1ef286","withdrawAccumulatedFees(uint256,address)":"b726962e","withdrawERC20Refund(uint256,address,address)":"48d20d16"},"id":2}