{"abi":[{"type":"constructor","inputs":[],"stateMutability":"nonpayable"},{"type":"function","name":"UPGRADE_INTERFACE_VERSION","inputs":[],"outputs":[{"name":"","type":"string","internalType":"string"}],"stateMutability":"view"},{"type":"function","name":"_erc20Escrow","inputs":[],"outputs":[{"name":"","type":"address","internalType":"address payable"}],"stateMutability":"view"},{"type":"function","name":"_escrow","inputs":[],"outputs":[{"name":"","type":"address","internalType":"address payable"}],"stateMutability":"view"},{"type":"function","name":"_fulfillableRegistry","inputs":[],"outputs":[{"name":"","type":"address","internalType":"address"}],"stateMutability":"view"},{"type":"function","name":"_tokenRegistry","inputs":[],"outputs":[{"name":"","type":"address","internalType":"address"}],"stateMutability":"view"},{"type":"function","name":"initialize","inputs":[{"name":"initialOwner","type":"address","internalType":"address"}],"outputs":[],"stateMutability":"nonpayable"},{"type":"function","name":"owner","inputs":[],"outputs":[{"name":"","type":"address","internalType":"address"}],"stateMutability":"view"},{"type":"function","name":"pause","inputs":[],"outputs":[],"stateMutability":"nonpayable"},{"type":"function","name":"paused","inputs":[],"outputs":[{"name":"","type":"bool","internalType":"bool"}],"stateMutability":"view"},{"type":"function","name":"proxiableUUID","inputs":[],"outputs":[{"name":"","type":"bytes32","internalType":"bytes32"}],"stateMutability":"view"},{"type":"function","name":"renounceOwnership","inputs":[],"outputs":[],"stateMutability":"nonpayable"},{"type":"function","name":"requestERC20Service","inputs":[{"name":"serviceID","type":"uint256","internalType":"uint256"},{"name":"request","type":"tuple","internalType":"struct ERC20FulFillmentRequest","components":[{"name":"payer","type":"address","internalType":"address"},{"name":"fiatAmount","type":"uint256","internalType":"uint256"},{"name":"serviceRef","type":"string","internalType":"string"},{"name":"token","type":"address","internalType":"address"},{"name":"tokenAmount","type":"uint256","internalType":"uint256"}]}],"outputs":[{"name":"","type":"bool","internalType":"bool"}],"stateMutability":"nonpayable"},{"type":"function","name":"requestService","inputs":[{"name":"serviceID","type":"uint256","internalType":"uint256"},{"name":"request","type":"tuple","internalType":"struct FulFillmentRequest","components":[{"name":"payer","type":"address","internalType":"address"},{"name":"weiAmount","type":"uint256","internalType":"uint256"},{"name":"fiatAmount","type":"uint256","internalType":"uint256"},{"name":"serviceRef","type":"string","internalType":"string"}]}],"outputs":[{"name":"","type":"bool","internalType":"bool"}],"stateMutability":"payable"},{"type":"function","name":"setERC20Escrow","inputs":[{"name":"erc20Escrow_","type":"address","internalType":"address payable"}],"outputs":[],"stateMutability":"nonpayable"},{"type":"function","name":"setEscrow","inputs":[{"name":"escrow_","type":"address","internalType":"address payable"}],"outputs":[],"stateMutability":"nonpayable"},{"type":"function","name":"setFulfillableRegistry","inputs":[{"name":"fulfillableRegistry_","type":"address","internalType":"address"}],"outputs":[],"stateMutability":"nonpayable"},{"type":"function","name":"setTokenRegistry","inputs":[{"name":"tokenRegistry_","type":"address","internalType":"address"}],"outputs":[],"stateMutability":"nonpayable"},{"type":"function","name":"transferOwnership","inputs":[{"name":"newOwner","type":"address","internalType":"address"}],"outputs":[],"stateMutability":"nonpayable"},{"type":"function","name":"unpause","inputs":[],"outputs":[],"stateMutability":"nonpayable"},{"type":"function","name":"upgradeToAndCall","inputs":[{"name":"newImplementation","type":"address","internalType":"address"},{"name":"data","type":"bytes","internalType":"bytes"}],"outputs":[],"stateMutability":"payable"},{"type":"function","name":"withdrawERC20Refund","inputs":[{"name":"serviceID","type":"uint256","internalType":"uint256"},{"name":"recordId","type":"uint256","internalType":"uint256"}],"outputs":[],"stateMutability":"nonpayable"},{"type":"function","name":"withdrawRefund","inputs":[{"name":"serviceID","type":"uint256","internalType":"uint256"},{"name":"recordId","type":"uint256","internalType":"uint256"}],"outputs":[],"stateMutability":"nonpayable"},{"type":"event","name":"ERC20EscrowUpdated","inputs":[{"name":"erc20Escrow","type":"address","indexed":true,"internalType":"address"}],"anonymous":false},{"type":"event","name":"ERC20ServiceRequested","inputs":[{"name":"serviceID","type":"uint256","indexed":false,"internalType":"uint256"},{"name":"request","type":"tuple","indexed":false,"internalType":"struct ERC20FulFillmentRequest","components":[{"name":"payer","type":"address","internalType":"address"},{"name":"fiatAmount","type":"uint256","internalType":"uint256"},{"name":"serviceRef","type":"string","internalType":"string"},{"name":"token","type":"address","internalType":"address"},{"name":"tokenAmount","type":"uint256","internalType":"uint256"}]}],"anonymous":false},{"type":"event","name":"EscrowUpdated","inputs":[{"name":"escrow","type":"address","indexed":true,"internalType":"address"}],"anonymous":false},{"type":"event","name":"FulfillableRegistryUpdated","inputs":[{"name":"fulfillableRegistry","type":"address","indexed":true,"internalType":"address"}],"anonymous":false},{"type":"event","name":"Initialized","inputs":[{"name":"version","type":"uint64","indexed":false,"internalType":"uint64"}],"anonymous":false},{"type":"event","name":"OwnershipTransferred","inputs":[{"name":"previousOwner","type":"address","indexed":true,"internalType":"address"},{"name":"newOwner","type":"address","indexed":true,"internalType":"address"}],"anonymous":false},{"type":"event","name":"Paused","inputs":[{"name":"account","type":"address","indexed":false,"internalType":"address"}],"anonymous":false},{"type":"event","name":"RefValidationFailed","inputs":[{"name":"serviceID","type":"uint256","indexed":false,"internalType":"uint256"},{"name":"serviceRef","type":"string","indexed":false,"internalType":"string"}],"anonymous":false},{"type":"event","name":"ServiceRequested","inputs":[{"name":"serviceID","type":"uint256","indexed":false,"internalType":"uint256"},{"name":"request","type":"tuple","indexed":false,"internalType":"struct FulFillmentRequest","components":[{"name":"payer","type":"address","internalType":"address"},{"name":"weiAmount","type":"uint256","internalType":"uint256"},{"name":"fiatAmount","type":"uint256","internalType":"uint256"},{"name":"serviceRef","type":"string","internalType":"string"}]},{"name":"serviceFeeAmount","type":"uint256","indexed":false,"internalType":"uint256"}],"anonymous":false},{"type":"event","name":"TokenRegistryUpdated","inputs":[{"name":"tokenRegistry","type":"address","indexed":true,"internalType":"address"}],"anonymous":false},{"type":"event","name":"Unpaused","inputs":[{"name":"account","type":"address","indexed":false,"internalType":"address"}],"anonymous":false},{"type":"event","name":"Upgraded","inputs":[{"name":"implementation","type":"address","indexed":true,"internalType":"address"}],"anonymous":false},{"type":"error","name":"AddressEmptyCode","inputs":[{"name":"target","type":"address","internalType":"address"}]},{"type":"error","name":"AddressInsufficientBalance","inputs":[{"name":"account","type":"address","internalType":"address"}]},{"type":"error","name":"ERC1967InvalidImplementation","inputs":[{"name":"implementation","type":"address","internalType":"address"}]},{"type":"error","name":"ERC1967NonPayable","inputs":[]},{"type":"error","name":"EnforcedPause","inputs":[]},{"type":"error","name":"ExpectedPause","inputs":[]},{"type":"error","name":"FailedInnerCall","inputs":[]},{"type":"error","name":"InsufficientAmount","inputs":[]},{"type":"error","name":"InvalidAddress","inputs":[{"name":"address_","type":"address","internalType":"address"}]},{"type":"error","name":"InvalidFiatAmount","inputs":[]},{"type":"error","name":"InvalidInitialization","inputs":[]},{"type":"error","name":"InvalidRef","inputs":[]},{"type":"error","name":"NotInitializing","inputs":[]},{"type":"error","name":"OwnableInvalidOwner","inputs":[{"name":"owner","type":"address","internalType":"address"}]},{"type":"error","name":"OwnableUnauthorizedAccount","inputs":[{"name":"account","type":"address","internalType":"address"}]},{"type":"error","name":"PayerMismatch","inputs":[{"name":"payer","type":"address","internalType":"address"},{"name":"sender","type":"address","internalType":"address"}]},{"type":"error","name":"SafeERC20FailedOperation","inputs":[{"name":"token","type":"address","internalType":"address"}]},{"type":"error","name":"UUPSUnauthorizedCallContext","inputs":[]},{"type":"error","name":"UUPSUnsupportedProxiableUUID","inputs":[{"name":"slot","type":"bytes32","internalType":"bytes32"}]},{"type":"error","name":"UnsupportedToken","inputs":[{"name":"token","type":"address","internalType":"address"}]}],"bytecode":{"object":"0x60a06040523060805234801561001457600080fd5b5061001d610022565b6100d4565b7ff0c57e16840df040f15088dc2f81fe391c3923bec73e23a9662efc9c229c6a00805468010000000000000000900460ff16156100725760405163f92ee8a960e01b815260040160405180910390fd5b80546001600160401b03908116146100d15780546001600160401b0319166001600160401b0390811782556040519081527fc7f505b2f371ae2175ee4913f4499e1f2633a7b5936321eed1cdaeb6115181d29060200160405180910390a15b50565b608051612e616100fd6000396000818161133c0152818161136501526115860152612e616000f3fe6080604052600436106101755760003560e01c80638da5cb5b116100cb578063c4d66de81161007f578063e2f6ad2511610059578063e2f6ad2514610478578063ede6a9a014610498578063f2fde38b146104c557600080fd5b8063c4d66de814610418578063dbc85c5a14610438578063ddb7d5df1461045857600080fd5b8063ad3cb1cc116100b0578063ad3cb1cc14610382578063be03f65c146103d8578063c10c3546146103f857600080fd5b80638da5cb5b14610318578063aa6694b11461036257600080fd5b80634f1ef2861161012d578063715018a611610107578063715018a6146102db5780638456cb59146102f05780638d5e694f1461030557600080fd5b80634f1ef2861461026257806352d1902d146102755780635c975abb1461029857600080fd5b806335a5af921161015e57806335a5af92146101fe5780633754e87f146102205780633f4ba83a1461024d57600080fd5b80630619c07a1461017a5780630c4393b9146101d1575b600080fd5b34801561018657600080fd5b506002546101a79073ffffffffffffffffffffffffffffffffffffffff1681565b60405173ffffffffffffffffffffffffffffffffffffffff90911681526020015b60405180910390f35b3480156101dd57600080fd5b506000546101a79073ffffffffffffffffffffffffffffffffffffffff1681565b34801561020a57600080fd5b5061021e61021936600461249a565b6104e5565b005b34801561022c57600080fd5b506003546101a79073ffffffffffffffffffffffffffffffffffffffff1681565b34801561025957600080fd5b5061021e6105c6565b61021e61027036600461264d565b6105d8565b34801561028157600080fd5b5061028a6105f7565b6040519081526020016101c8565b3480156102a457600080fd5b507fcd5ed15c6e187e77e9aee88184c21f4f2182ab5827cb3b7e07fbedcd63f033005460ff165b60405190151581526020016101c8565b3480156102e757600080fd5b5061021e610626565b3480156102fc57600080fd5b5061021e610638565b6102cb6103133660046126d1565b610648565b34801561032457600080fd5b507f9016d09d72d40fdae2fd8ceac6b6234c7706214fd39c1cd1e609a0528c1993005473ffffffffffffffffffffffffffffffffffffffff166101a7565b34801561036e57600080fd5b5061021e61037d366004612775565b6107eb565b34801561038e57600080fd5b506103cb6040518060400160405280600581526020017f352e302e3000000000000000000000000000000000000000000000000000000081525081565b6040516101c89190612805565b3480156103e457600080fd5b5061021e6103f336600461249a565b6109d3565b34801561040457600080fd5b5061021e61041336600461249a565b610aaf565b34801561042457600080fd5b5061021e61043336600461249a565b610b8b565b34801561044457600080fd5b5061021e61045336600461249a565b610d1b565b34801561046457600080fd5b5061021e610473366004612775565b610df5565b34801561048457600080fd5b506102cb610493366004612818565b610f98565b3480156104a457600080fd5b506001546101a79073ffffffffffffffffffffffffffffffffffffffff1681565b3480156104d157600080fd5b5061021e6104e036600461249a565b611195565b6104ed6111f9565b73ffffffffffffffffffffffffffffffffffffffff8116610557576040517f8e4c8aa600000000000000000000000000000000000000000000000000000000815273ffffffffffffffffffffffffffffffffffffffff821660048201526024015b60405180910390fd5b600180547fffffffffffffffffffffffff00000000000000000000000000000000000000001673ffffffffffffffffffffffffffffffffffffffff83169081179091556040517f6e6ac0f8d11e6cdb54912074bf573e81cf445de6f137e4bd86ff31e396c8285690600090a250565b6105ce6111f9565b6105d6611287565b565b6105e0611324565b6105e982611428565b6105f38282611430565b5050565b600061060161156e565b507f360894a13ba1a3210667c828492db98dca3e2076cc3735a920a3ca505d382bbc90565b61062e6111f9565b6105d660006115dd565b6106406111f9565b6105d6611673565b60006106526116ec565b815173ffffffffffffffffffffffffffffffffffffffff1633146106c35781516040517f35b13a3900000000000000000000000000000000000000000000000000000000815273ffffffffffffffffffffffffffffffffffffffff909116600482015233602482015260440161054e565b6000546106e9908490849073ffffffffffffffffffffffffffffffffffffffff16611748565b50600080546001546107179173ffffffffffffffffffffffffffffffffffffffff908116911686843461194c565b6002546040517f6928c27100000000000000000000000000000000000000000000000000000000815291925073ffffffffffffffffffffffffffffffffffffffff1690636928c271903490610774908890889087906004016128d1565b6000604051808303818588803b15801561078d57600080fd5b505af11580156107a1573d6000803e3d6000fd5b50505050507f5373ceb5889d7ecc59292760c565a6540b99dd95c5fafb5a360ebfa6e405dca18484836040516107d9939291906128d1565b60405180910390a15060019392505050565b6003546040517f2c16cd8a0000000000000000000000000000000000000000000000000000000081526004810183905260009173ffffffffffffffffffffffffffffffffffffffff1690632c16cd8a90602401600060405180830381865afa15801561085b573d6000803e3d6000fd5b505050506040513d6000823e601f3d9081017fffffffffffffffffffffffffffffffffffffffffffffffffffffffffffffffe01682016040526108a191908101906129a4565b90508060a0015173ffffffffffffffffffffffffffffffffffffffff163373ffffffffffffffffffffffffffffffffffffffff16146109305760a08101516040517f35b13a3900000000000000000000000000000000000000000000000000000000815273ffffffffffffffffffffffffffffffffffffffff909116600482015233602482015260440161054e565b6003546040517faa6694b1000000000000000000000000000000000000000000000000000000008152600481018590526024810184905273ffffffffffffffffffffffffffffffffffffffff9091169063aa6694b1906044015b6020604051808303816000875af11580156109a9573d6000803e3d6000fd5b505050506040513d601f19601f820116820180604052508101906109cd9190612aea565b50505050565b6109db6111f9565b73ffffffffffffffffffffffffffffffffffffffff8116610a40576040517f8e4c8aa600000000000000000000000000000000000000000000000000000000815273ffffffffffffffffffffffffffffffffffffffff8216600482015260240161054e565b600380547fffffffffffffffffffffffff00000000000000000000000000000000000000001673ffffffffffffffffffffffffffffffffffffffff83169081179091556040517fd39b3956f908ed0515c7b777552c15a185e9d13c9dd97db53a16bb661ab0b8d890600090a250565b610ab76111f9565b73ffffffffffffffffffffffffffffffffffffffff8116610b1c576040517f8e4c8aa600000000000000000000000000000000000000000000000000000000815273ffffffffffffffffffffffffffffffffffffffff8216600482015260240161054e565b600280547fffffffffffffffffffffffff00000000000000000000000000000000000000001673ffffffffffffffffffffffffffffffffffffffff83169081179091556040517f43ab431641dd45dd0661cad4b820e826d7c526af92e3121e1242d721f82ab3ad90600090a250565b7ff0c57e16840df040f15088dc2f81fe391c3923bec73e23a9662efc9c229c6a00805468010000000000000000810460ff16159067ffffffffffffffff16600081158015610bd65750825b905060008267ffffffffffffffff166001148015610bf35750303b155b905081158015610c01575080155b15610c38576040517ff92ee8a900000000000000000000000000000000000000000000000000000000815260040160405180910390fd5b84547fffffffffffffffffffffffffffffffffffffffffffffffff00000000000000001660011785558315610c995784547fffffffffffffffffffffffffffffffffffffffffffffff00ffffffffffffffff16680100000000000000001785555b610ca1611b13565b610ca9611b1b565b610cb286611b2b565b8315610d135784547fffffffffffffffffffffffffffffffffffffffffffffff00ffffffffffffffff168555604051600181527fc7f505b2f371ae2175ee4913f4499e1f2633a7b5936321eed1cdaeb6115181d29060200160405180910390a15b505050505050565b610d236111f9565b73ffffffffffffffffffffffffffffffffffffffff8116610d88576040517f8e4c8aa600000000000000000000000000000000000000000000000000000000815273ffffffffffffffffffffffffffffffffffffffff8216600482015260240161054e565b600080547fffffffffffffffffffffffff00000000000000000000000000000000000000001673ffffffffffffffffffffffffffffffffffffffff8316908117825560405190917f12fd82a8fae6400d0456d521504e56c94dd90726268fd158b0584ec682e1b5b191a250565b6002546040517f2c16cd8a0000000000000000000000000000000000000000000000000000000081526004810183905260009173ffffffffffffffffffffffffffffffffffffffff1690632c16cd8a90602401600060405180830381865afa158015610e65573d6000803e3d6000fd5b505050506040513d6000823e601f3d9081017fffffffffffffffffffffffffffffffffffffffffffffffffffffffffffffffe0168201604052610eab9190810190612b0c565b9050806080015173ffffffffffffffffffffffffffffffffffffffff163373ffffffffffffffffffffffffffffffffffffffff1614610f3a5760808101516040517f35b13a3900000000000000000000000000000000000000000000000000000000815273ffffffffffffffffffffffffffffffffffffffff909116600482015233602482015260440161054e565b6002546040517fddb7d5df000000000000000000000000000000000000000000000000000000008152600481018590526024810184905273ffffffffffffffffffffffffffffffffffffffff9091169063ddb7d5df9060440161098a565b6000610fa26116ec565b815173ffffffffffffffffffffffffffffffffffffffff1633146110135781516040517f35b13a3900000000000000000000000000000000000000000000000000000000815273ffffffffffffffffffffffffffffffffffffffff909116600482015233602482015260440161054e565b600054600154611040918591859173ffffffffffffffffffffffffffffffffffffffff9081169116611b3c565b5060008054600154606085015160808601516110789373ffffffffffffffffffffffffffffffffffffffff908116931691889161194c565b90506000611093828560800151611e1390919063ffffffff16565b60035460608701519193506110c5925073ffffffffffffffffffffffffffffffffffffffff9182169133911684611e3c565b6003546040517fce30c9de00000000000000000000000000000000000000000000000000000000815273ffffffffffffffffffffffffffffffffffffffff9091169063ce30c9de9061111f90889088908790600401612cb5565b600060405180830381600087803b15801561113957600080fd5b505af115801561114d573d6000803e3d6000fd5b505050507fcffa77ca666af7f5f48cb67286d2851dd1a316733e8bf15cd1bee264a83742ad8585604051611182929190612cde565b60405180910390a1506001949350505050565b61119d6111f9565b73ffffffffffffffffffffffffffffffffffffffff81166111ed576040517f1e4fbdf70000000000000000000000000000000000000000000000000000000081526000600482015260240161054e565b6111f6816115dd565b50565b336112387f9016d09d72d40fdae2fd8ceac6b6234c7706214fd39c1cd1e609a0528c1993005473ffffffffffffffffffffffffffffffffffffffff1690565b73ffffffffffffffffffffffffffffffffffffffff16146105d6576040517f118cdaa700000000000000000000000000000000000000000000000000000000815233600482015260240161054e565b61128f611ed1565b7fcd5ed15c6e187e77e9aee88184c21f4f2182ab5827cb3b7e07fbedcd63f0330080547fffffffffffffffffffffffffffffffffffffffffffffffffffffffffffffff001681557f5db9ee0a495bf2e6ff9c91a7834c1ba4fdd244a5e8aa4e537bd38aeae4b073aa335b60405173ffffffffffffffffffffffffffffffffffffffff909116815260200160405180910390a150565b3073ffffffffffffffffffffffffffffffffffffffff7f00000000000000000000000000000000000000000000000000000000000000001614806113f157507f000000000000000000000000000000000000000000000000000000000000000073ffffffffffffffffffffffffffffffffffffffff166113d87f360894a13ba1a3210667c828492db98dca3e2076cc3735a920a3ca505d382bbc5473ffffffffffffffffffffffffffffffffffffffff1690565b73ffffffffffffffffffffffffffffffffffffffff1614155b156105d6576040517fe07c8dba00000000000000000000000000000000000000000000000000000000815260040160405180910390fd5b6111f66111f9565b8173ffffffffffffffffffffffffffffffffffffffff166352d1902d6040518163ffffffff1660e01b8152600401602060405180830381865afa9250505080156114b5575060408051601f3d9081017fffffffffffffffffffffffffffffffffffffffffffffffffffffffffffffffe01682019092526114b291810190612cf7565b60015b611503576040517f4c9c8ce300000000000000000000000000000000000000000000000000000000815273ffffffffffffffffffffffffffffffffffffffff8316600482015260240161054e565b7f360894a13ba1a3210667c828492db98dca3e2076cc3735a920a3ca505d382bbc811461155f576040517faa1d49a40000000000000000000000000000000000000000000000000000000081526004810182905260240161054e565b6115698383611f2c565b505050565b3073ffffffffffffffffffffffffffffffffffffffff7f000000000000000000000000000000000000000000000000000000000000000016146105d6576040517fe07c8dba00000000000000000000000000000000000000000000000000000000815260040160405180910390fd5b7f9016d09d72d40fdae2fd8ceac6b6234c7706214fd39c1cd1e609a0528c19930080547fffffffffffffffffffffffff0000000000000000000000000000000000000000811673ffffffffffffffffffffffffffffffffffffffff848116918217845560405192169182907f8be0079c531659141344cd1fd0a4f28419497f9722a3daafe3b4186f6b6457e090600090a3505050565b61167b6116ec565b7fcd5ed15c6e187e77e9aee88184c21f4f2182ab5827cb3b7e07fbedcd63f0330080547fffffffffffffffffffffffffffffffffffffffffffffffffffffffffffffff001660011781557f62e78cea01bee320cd4e420270b5ea74000d11b0c9f74754ebdbfc544b05a258336112f9565b7fcd5ed15c6e187e77e9aee88184c21f4f2182ab5827cb3b7e07fbedcd63f033005460ff16156105d6576040517fd93c066500000000000000000000000000000000000000000000000000000000815260040160405180910390fd5b60408051606081018252600080825260208201819052918101919091523460000361179f576040517f5945ea5600000000000000000000000000000000000000000000000000000000815260040160405180910390fd5b82604001516000036117dd576040517faaf0371a00000000000000000000000000000000000000000000000000000000815260040160405180910390fd5b6040517fef0e239b0000000000000000000000000000000000000000000000000000000081526004810185905260009073ffffffffffffffffffffffffffffffffffffffff84169063ef0e239b90602401608060405180830381865afa15801561184b573d6000803e3d6000fd5b505050506040513d601f19601f8201168201806040525081019061186f9190612d22565b5060608501516040517fd4a2470300000000000000000000000000000000000000000000000000000000815291925073ffffffffffffffffffffffffffffffffffffffff85169163d4a24703916118cb91899190600401612dac565b602060405180830381865afa1580156118e8573d6000803e3d6000fd5b505050506040513d601f19601f8201168201806040525081019061190c9190612aea565b611942576040517fe97d945b00000000000000000000000000000000000000000000000000000000815260040160405180910390fd5b90505b9392505050565b6040517fef0e239b00000000000000000000000000000000000000000000000000000000815260048101849052600090819073ffffffffffffffffffffffffffffffffffffffff88169063ef0e239b90602401608060405180830381865afa1580156119bc573d6000803e3d6000fd5b505050506040513d601f19601f820116820180604052508101906119e09190612d22565b9150600090506119f48461ffff8416611f8f565b915060009050611a068261270f611e13565b9150611a16905081612710611fcc565b6040517f2b6eaf1a00000000000000000000000000000000000000000000000000000000815273ffffffffffffffffffffffffffffffffffffffff898116600483015291965060009250908a1690632b6eaf1a90602401602060405180830381865afa158015611a8a573d6000803e3d6000fd5b505050506040513d601f19601f82011682018060405250810190611aae9190612dc5565b905061ffff811615611b06576000611aca8761ffff8416611f8f565b915060009050611adc8261270f611e13565b915060009050611aee82612710611fcc565b915060009050611afe8983611e13565b995050505050505b5050505095945050505050565b6105d6611fff565b611b23611fff565b6105d6612066565b611b33611fff565b6111f6816120b7565b60408051606081018252600080825260208201819052918101919091528360800151600003611b97576040517f5945ea5600000000000000000000000000000000000000000000000000000000815260040160405180910390fd5b8360200151600003611bd5576040517faaf0371a00000000000000000000000000000000000000000000000000000000815260040160405180910390fd5b60608401516040517fb5af090f00000000000000000000000000000000000000000000000000000000815273ffffffffffffffffffffffffffffffffffffffff91821660048201529083169063b5af090f90602401602060405180830381865afa158015611c47573d6000803e3d6000fd5b505050506040513d601f19601f82011682018060405250810190611c6b9190612aea565b611cbf5760608401516040517fbf16aab600000000000000000000000000000000000000000000000000000000815273ffffffffffffffffffffffffffffffffffffffff909116600482015260240161054e565b6040517fef0e239b0000000000000000000000000000000000000000000000000000000081526004810186905260009073ffffffffffffffffffffffffffffffffffffffff85169063ef0e239b90602401608060405180830381865afa158015611d2d573d6000803e3d6000fd5b505050506040513d601f19601f82011682018060405250810190611d519190612d22565b5090508373ffffffffffffffffffffffffffffffffffffffff1663d4a247038787604001516040518363ffffffff1660e01b8152600401611d93929190612dac565b602060405180830381865afa158015611db0573d6000803e3d6000fd5b505050506040513d601f19601f82011682018060405250810190611dd49190612aea565b611e0a576040517fe97d945b00000000000000000000000000000000000000000000000000000000815260040160405180910390fd5b95945050505050565b60008083830184811015611e2e576000809250925050611e35565b6001925090505b9250929050565b6040805173ffffffffffffffffffffffffffffffffffffffff85811660248301528416604482015260648082018490528251808303909101815260849091019091526020810180517bffffffffffffffffffffffffffffffffffffffffffffffffffffffff167f23b872dd000000000000000000000000000000000000000000000000000000001790526109cd9085906120bf565b7fcd5ed15c6e187e77e9aee88184c21f4f2182ab5827cb3b7e07fbedcd63f033005460ff166105d6576040517f8dfc202b00000000000000000000000000000000000000000000000000000000815260040160405180910390fd5b611f3582612155565b60405173ffffffffffffffffffffffffffffffffffffffff8316907fbc7cd75a20ee27fd9adebab32041f755214dbc6bffa90cc0225b39da2e5c2d3b90600090a2805115611f87576115698282612224565b6105f361229e565b60008083600003611fa65750600190506000611e35565b83830283858281611fb957611fb9612de0565b0414611e2e576000809250925050611e35565b60008082600003611fe257506000905080611e35565b6001838581611ff357611ff3612de0565b04915091509250929050565b7ff0c57e16840df040f15088dc2f81fe391c3923bec73e23a9662efc9c229c6a005468010000000000000000900460ff166105d6576040517fd7e6bcf800000000000000000000000000000000000000000000000000000000815260040160405180910390fd5b61206e611fff565b7fcd5ed15c6e187e77e9aee88184c21f4f2182ab5827cb3b7e07fbedcd63f0330080547fffffffffffffffffffffffffffffffffffffffffffffffffffffffffffffff00169055565b61119d611fff565b60006120e173ffffffffffffffffffffffffffffffffffffffff8416836122d6565b905080516000141580156121065750808060200190518101906121049190612aea565b155b15611569576040517f5274afe700000000000000000000000000000000000000000000000000000000815273ffffffffffffffffffffffffffffffffffffffff8416600482015260240161054e565b8073ffffffffffffffffffffffffffffffffffffffff163b6000036121be576040517f4c9c8ce300000000000000000000000000000000000000000000000000000000815273ffffffffffffffffffffffffffffffffffffffff8216600482015260240161054e565b7f360894a13ba1a3210667c828492db98dca3e2076cc3735a920a3ca505d382bbc80547fffffffffffffffffffffffff00000000000000000000000000000000000000001673ffffffffffffffffffffffffffffffffffffffff92909216919091179055565b60606000808473ffffffffffffffffffffffffffffffffffffffff168460405161224e9190612e0f565b600060405180830381855af49150503d8060008114612289576040519150601f19603f3d011682016040523d82523d6000602084013e61228e565b606091505b5091509150611e0a8583836122e4565b34156105d6576040517fb398979f00000000000000000000000000000000000000000000000000000000815260040160405180910390fd5b606061194583836000612373565b6060826122f9576122f482612436565b611945565b815115801561231d575073ffffffffffffffffffffffffffffffffffffffff84163b155b1561236c576040517f9996b31500000000000000000000000000000000000000000000000000000000815273ffffffffffffffffffffffffffffffffffffffff8516600482015260240161054e565b5080611945565b6060814710156123b1576040517fcd78605900000000000000000000000000000000000000000000000000000000815230600482015260240161054e565b6000808573ffffffffffffffffffffffffffffffffffffffff1684866040516123da9190612e0f565b60006040518083038185875af1925050503d8060008114612417576040519150601f19603f3d011682016040523d82523d6000602084013e61241c565b606091505b509150915061242c8683836122e4565b9695505050505050565b8051156124465780518082602001fd5b6040517f1425ea4200000000000000000000000000000000000000000000000000000000815260040160405180910390fd5b73ffffffffffffffffffffffffffffffffffffffff811681146111f657600080fd5b6000602082840312156124ac57600080fd5b813561194581612478565b7f4e487b7100000000000000000000000000000000000000000000000000000000600052604160045260246000fd5b6040516080810167ffffffffffffffff81118282101715612509576125096124b7565b60405290565b60405160a0810167ffffffffffffffff81118282101715612509576125096124b7565b604051610180810167ffffffffffffffff81118282101715612509576125096124b7565b604051610160810167ffffffffffffffff81118282101715612509576125096124b7565b604051601f82017fffffffffffffffffffffffffffffffffffffffffffffffffffffffffffffffe016810167ffffffffffffffff811182821017156125c1576125c16124b7565b604052919050565b600067ffffffffffffffff8211156125e3576125e36124b7565b50601f017fffffffffffffffffffffffffffffffffffffffffffffffffffffffffffffffe01660200190565b600061262261261d846125c9565b61257a565b905082815283838301111561263657600080fd5b828260208301376000602084830101529392505050565b6000806040838503121561266057600080fd5b823561266b81612478565b9150602083013567ffffffffffffffff81111561268757600080fd5b8301601f8101851361269857600080fd5b6126a78582356020840161260f565b9150509250929050565b600082601f8301126126c257600080fd5b6119458383356020850161260f565b600080604083850312156126e457600080fd5b82359150602083013567ffffffffffffffff81111561270257600080fd5b83016080818603121561271457600080fd5b61271c6124e6565b813561272781612478565b81526020828101359082015260408083013590820152606082013567ffffffffffffffff81111561275757600080fd5b612763878285016126b1565b60608301525080925050509250929050565b6000806040838503121561278857600080fd5b50508035926020909101359150565b60005b838110156127b257818101518382015260200161279a565b50506000910152565b600081518084526127d3816020860160208601612797565b601f017fffffffffffffffffffffffffffffffffffffffffffffffffffffffffffffffe0169290920160200192915050565b60208152600061194560208301846127bb565b6000806040838503121561282b57600080fd5b82359150602083013567ffffffffffffffff81111561284957600080fd5b830160a0818603121561285b57600080fd5b61286361250f565b813561286e81612478565b815260208281013590820152604082013567ffffffffffffffff81111561289457600080fd5b6128a0878285016126b1565b60408301525060608201356128b481612478565b606082015260809182013591810191909152919491935090915050565b8381526060602082015273ffffffffffffffffffffffffffffffffffffffff835116606082015260208301516080820152604083015160a082015260006060840151608060c084015261292760e08401826127bb565b915050826040830152949350505050565b600082601f83011261294957600080fd5b815161295761261d826125c9565b81815284602083860101111561296c57600080fd5b61297d826020830160208701612797565b949350505050565b805161299081612478565b919050565b80516004811061299057600080fd5b6000602082840312156129b657600080fd5b815167ffffffffffffffff8111156129cd57600080fd5b820161018081850312156129e057600080fd5b6129e8612532565b81518152602082015167ffffffffffffffff811115612a0657600080fd5b612a1286828501612938565b602083015250612a2460408301612985565b6040820152612a3560608301612985565b6060820152608082015167ffffffffffffffff811115612a5457600080fd5b612a6086828501612938565b608083015250612a7260a08301612985565b60a082015260c0828101519082015260e080830151908201526101008083015190820152610120808301519082015261014082015167ffffffffffffffff811115612abc57600080fd5b612ac886828501612938565b61014083015250612adc6101608301612995565b610160820152949350505050565b600060208284031215612afc57600080fd5b8151801515811461194557600080fd5b600060208284031215612b1e57600080fd5b815167ffffffffffffffff811115612b3557600080fd5b82016101608185031215612b4857600080fd5b612b50612556565b81518152602082015167ffffffffffffffff811115612b6e57600080fd5b612b7a86828501612938565b602083015250612b8c60408301612985565b6040820152606082015167ffffffffffffffff811115612bab57600080fd5b612bb786828501612938565b606083015250612bc960808301612985565b608082015260a0828101519082015260c0808301519082015260e08083015190820152610100808301519082015261012082015167ffffffffffffffff811115612c1257600080fd5b612c1e86828501612938565b61012083015250612c326101408301612995565b610140820152949350505050565b73ffffffffffffffffffffffffffffffffffffffff8151168252602081015160208301526000604082015160a06040850152612c7f60a08501826127bb565b905073ffffffffffffffffffffffffffffffffffffffff6060840151166060850152608083015160808501528091505092915050565b838152606060208201526000612cce6060830185612c40565b9050826040830152949350505050565b82815260406020820152600061297d6040830184612c40565b600060208284031215612d0957600080fd5b5051919050565b805161ffff8116811461299057600080fd5b6000808284036080811215612d3657600080fd5b6060811215612d4457600080fd5b506040516060810167ffffffffffffffff81118282101715612d6857612d686124b7565b604052835181526020840151612d7d81612478565b60208201526040840151612d9081612478565b60408201529150612da360608401612d10565b90509250929050565b82815260406020820152600061297d60408301846127bb565b600060208284031215612dd757600080fd5b61194582612d10565b7f4e487b7100000000000000000000000000000000000000000000000000000000600052601260045260246000fd5b60008251612e21818460208701612797565b919091019291505056fea26469706673582212202e43257b76b7f35a7568a5ecef2012ed7da95782b022e06563df8356b900c72664736f6c634300081c0033","linkReferences":{}},"methodIdentifiers":{"UPGRADE_INTERFACE_VERSION()":"ad3cb1cc","_erc20Escrow()":"3754e87f","_escrow()":"0619c07a","_fulfillableRegistry()":"0c4393b9","_tokenRegistry()":"ede6a9a0","initialize(address)":"c4d66de8","owner()":"8da5cb5b","pause()":"8456cb59","paused()":"5c975abb","proxiableUUID()":"52d1902d","renounceOwnership()":"715018a6","requestERC20Service(uint256,(address,uint256,string,address,uint256))":"e2f6ad25","requestService(uint256,(address,uint256,uint256,string))":"8d5e694f","setERC20Escrow(address)":"be03f65c","setEscrow(address)":"c10c3546","setFulfillableRegistry(address)":"dbc85c5a","setTokenRegistry(address)":"35a5af92","transferOwnership(address)":"f2fde38b","unpause()":"3f4ba83a","upgradeToAndCall(address,bytes)":"4f1ef286","withdrawERC20Refund(uint256,uint256)":"aa6694b1","withdrawRefund(uint256,uint256)":"ddb7d5df"},"id":10}