{"abi":[{"type":"function","name":"UPGRADE_INTERFACE_VERSION","inputs":[],"outputs":[{"name":"","type":"string","internalType":"string"}],"stateMutability":"view"},{"type":"function","name":"_fulfillableRegistry","inputs":[],"outputs":[{"name":"","type":"address","internalType":"address"}],"stateMutability":"view"},{"type":"function","name":"_fulfillmentIdCount","inputs":[],"outputs":[{"name":"","type":"uint256","internalType":"uint256"}],"stateMutability":"view"},{"type":"function","name":"_manager","inputs":[],"outputs":[{"name":"","type":"address","internalType":"address"}],"stateMutability":"view"},{"type":"function","name":"_router","inputs":[],"outputs":[{"name":"","type":"address","internalType":"address"}],"stateMutability":"view"},{"type":"function","name":"beneficiaryWithdraw","inputs":[{"name":"serviceID","type":"uint256","internalType":"uint256"},{"name":"token","type":"address","internalType":"address"}],"outputs":[],"stateMutability":"nonpayable"},{"type":"function","name":"depositERC20","inputs":[{"name":"serviceID","type":"uint256","internalType":"uint256"},{"name":"fulfillmentRequest","type":"tuple","internalType":"struct ERC20FulFillmentRequest","components":[{"name":"payer","type":"address","internalType":"address"},{"name":"fiatAmount","type":"uint256","internalType":"uint256"},{"name":"serviceRef","type":"string","internalType":"string"},{"name":"token","type":"address","internalType":"address"},{"name":"tokenAmount","type":"uint256","internalType":"uint256"}]},{"name":"feeAmount","type":"uint256","internalType":"uint256"}],"outputs":[],"stateMutability":"nonpayable"},{"type":"function","name":"getERC20DepositsFor","inputs":[{"name":"token","type":"address","internalType":"address"},{"name":"payer","type":"address","internalType":"address"},{"name":"serviceID","type":"uint256","internalType":"uint256"}],"outputs":[{"name":"amount","type":"uint256","internalType":"uint256"}],"stateMutability":"view"},{"type":"function","name":"getERC20FeesFor","inputs":[{"name":"token","type":"address","internalType":"address"},{"name":"serviceID","type":"uint256","internalType":"uint256"}],"outputs":[{"name":"amount","type":"uint256","internalType":"uint256"}],"stateMutability":"view"},{"type":"function","name":"getERC20RefundsFor","inputs":[{"name":"token","type":"address","internalType":"address"},{"name":"refundee","type":"address","internalType":"address"},{"name":"serviceID","type":"uint256","internalType":"uint256"}],"outputs":[{"name":"amount","type":"uint256","internalType":"uint256"}],"stateMutability":"view"},{"type":"function","name":"getReleaseablePools","inputs":[{"name":"serviceId","type":"uint256","internalType":"uint256"},{"name":"token","type":"address","internalType":"address"}],"outputs":[{"name":"","type":"uint256","internalType":"uint256"}],"stateMutability":"view"},{"type":"function","name":"initialize","inputs":[{"name":"initialOwner","type":"address","internalType":"address"}],"outputs":[],"stateMutability":"nonpayable"},{"type":"function","name":"owner","inputs":[],"outputs":[{"name":"","type":"address","internalType":"address"}],"stateMutability":"view"},{"type":"function","name":"proxiableUUID","inputs":[],"outputs":[{"name":"","type":"bytes32","internalType":"bytes32"}],"stateMutability":"view"},{"type":"function","name":"record","inputs":[{"name":"id","type":"uint256","internalType":"uint256"}],"outputs":[{"name":"","type":"tuple","internalType":"struct ERC20FulFillmentRecord","components":[{"name":"id","type":"uint256","internalType":"uint256"},{"name":"serviceRef","type":"string","internalType":"string"},{"name":"fulfiller","type":"address","internalType":"address"},{"name":"token","type":"address","internalType":"address"},{"name":"externalID","type":"string","internalType":"string"},{"name":"payer","type":"address","internalType":"address"},{"name":"tokenAmount","type":"uint256","internalType":"uint256"},{"name":"feeAmount","type":"uint256","internalType":"uint256"},{"name":"fiatAmount","type":"uint256","internalType":"uint256"},{"name":"entryTime","type":"uint256","internalType":"uint256"},{"name":"receiptURI","type":"string","internalType":"string"},{"name":"status","type":"uint8","internalType":"enum FulFillmentResultState"}]}],"stateMutability":"view"},{"type":"function","name":"recordsOf","inputs":[{"name":"payer","type":"address","internalType":"address"}],"outputs":[{"name":"","type":"uint256[]","internalType":"uint256[]"}],"stateMutability":"view"},{"type":"function","name":"registerFulfillment","inputs":[{"name":"serviceID","type":"uint256","internalType":"uint256"},{"name":"fulfillment","type":"tuple","internalType":"struct FulFillmentResult","components":[{"name":"id","type":"uint256","internalType":"uint256"},{"name":"externalID","type":"string","internalType":"string"},{"name":"receiptURI","type":"string","internalType":"string"},{"name":"status","type":"uint8","internalType":"enum FulFillmentResultState"}]}],"outputs":[{"name":"","type":"bool","internalType":"bool"}],"stateMutability":"nonpayable"},{"type":"function","name":"renounceOwnership","inputs":[],"outputs":[],"stateMutability":"nonpayable"},{"type":"function","name":"setFulfillableRegistry","inputs":[{"name":"fulfillableRegistry_","type":"address","internalType":"address"}],"outputs":[],"stateMutability":"nonpayable"},{"type":"function","name":"setManager","inputs":[{"name":"manager_","type":"address","internalType":"address"}],"outputs":[],"stateMutability":"nonpayable"},{"type":"function","name":"setRouter","inputs":[{"name":"router_","type":"address","internalType":"address"}],"outputs":[],"stateMutability":"nonpayable"},{"type":"function","name":"subtractPoolsAndFees","inputs":[{"name":"serviceId","type":"uint256","internalType":"uint256"},{"name":"token","type":"address","internalType":"address"},{"name":"amount","type":"uint256","internalType":"uint256"},{"name":"fees","type":"uint256","internalType":"uint256"}],"outputs":[],"stateMutability":"nonpayable"},{"type":"function","name":"swapPoolsToStable","inputs":[{"name":"serviceId","type":"uint256","internalType":"uint256"},{"name":"recordId","type":"uint256","internalType":"uint256"},{"name":"swapData","type":"tuple","internalType":"struct SwapData","components":[{"name":"toToken","type":"address","internalType":"address"},{"name":"amount","type":"uint256","internalType":"uint256"},{"name":"callTo","type":"address","internalType":"address payable"},{"name":"callData","type":"bytes","internalType":"bytes"}]}],"outputs":[],"stateMutability":"nonpayable"},{"type":"function","name":"transferOwnership","inputs":[{"name":"newOwner","type":"address","internalType":"address"}],"outputs":[],"stateMutability":"nonpayable"},{"type":"function","name":"upgradeToAndCall","inputs":[{"name":"newImplementation","type":"address","internalType":"address"},{"name":"data","type":"bytes","internalType":"bytes"}],"outputs":[],"stateMutability":"payable"},{"type":"function","name":"withdrawAccumulatedFees","inputs":[{"name":"serviceId","type":"uint256","internalType":"uint256"},{"name":"token","type":"address","internalType":"address"}],"outputs":[],"stateMutability":"nonpayable"},{"type":"function","name":"withdrawERC20Refund","inputs":[{"name":"serviceID","type":"uint256","internalType":"uint256"},{"name":"recordId","type":"uint256","internalType":"uint256"}],"outputs":[{"name":"","type":"bool","internalType":"bool"}],"stateMutability":"nonpayable"},{"type":"function","name":"withdrawFulfillerPoolAndFees","inputs":[{"name":"token","type":"address","internalType":"address"},{"name":"amount","type":"uint256","internalType":"uint256"},{"name":"fees","type":"uint256","internalType":"uint256"},{"name":"beneficiary","type":"address","internalType":"address"},{"name":"feesBeneficiary","type":"address","internalType":"address"}],"outputs":[],"stateMutability":"nonpayable"},{"type":"event","name":"ERC20DepositReceived","inputs":[{"name":"record","type":"tuple","indexed":false,"internalType":"struct ERC20FulFillmentRecord","components":[{"name":"id","type":"uint256","internalType":"uint256"},{"name":"serviceRef","type":"string","internalType":"string"},{"name":"fulfiller","type":"address","internalType":"address"},{"name":"token","type":"address","internalType":"address"},{"name":"externalID","type":"string","internalType":"string"},{"name":"payer","type":"address","internalType":"address"},{"name":"tokenAmount","type":"uint256","internalType":"uint256"},{"name":"feeAmount","type":"uint256","internalType":"uint256"},{"name":"fiatAmount","type":"uint256","internalType":"uint256"},{"name":"entryTime","type":"uint256","internalType":"uint256"},{"name":"receiptURI","type":"string","internalType":"string"},{"name":"status","type":"uint8","internalType":"enum FulFillmentResultState"}]}],"anonymous":false},{"type":"event","name":"ERC20FeesWithdrawn","inputs":[{"name":"serviceId","type":"uint256","indexed":true,"internalType":"uint256"},{"name":"token","type":"address","indexed":true,"internalType":"address"},{"name":"beneficiary","type":"address","indexed":false,"internalType":"address"},{"name":"amount","type":"uint256","indexed":false,"internalType":"uint256"}],"anonymous":false},{"type":"event","name":"ERC20RefundAuthorized","inputs":[{"name":"payee","type":"address","indexed":true,"internalType":"address"},{"name":"weiAmount","type":"uint256","indexed":false,"internalType":"uint256"}],"anonymous":false},{"type":"event","name":"ERC20RefundWithdrawn","inputs":[{"name":"token","type":"address","indexed":true,"internalType":"address"},{"name":"payee","type":"address","indexed":true,"internalType":"address"},{"name":"weiAmount","type":"uint256","indexed":false,"internalType":"uint256"},{"name":"recordId","type":"uint256","indexed":false,"internalType":"uint256"}],"anonymous":false},{"type":"event","name":"FulfillableRegistryUpdated","inputs":[{"name":"fulfillableRegistry","type":"address","indexed":true,"internalType":"address"}],"anonymous":false},{"type":"event","name":"FulfillerPoolAndFeesWithdrawn","inputs":[{"name":"token","type":"address","indexed":false,"internalType":"address"},{"name":"amount","type":"uint256","indexed":false,"internalType":"uint256"},{"name":"fees","type":"uint256","indexed":false,"internalType":"uint256"},{"name":"beneficiary","type":"address","indexed":false,"internalType":"address"},{"name":"feesBeneficiary","type":"address","indexed":false,"internalType":"address"}],"anonymous":false},{"type":"event","name":"Initialized","inputs":[{"name":"version","type":"uint64","indexed":false,"internalType":"uint64"}],"anonymous":false},{"type":"event","name":"ManagerUpdated","inputs":[{"name":"manager","type":"address","indexed":true,"internalType":"address"}],"anonymous":false},{"type":"event","name":"OwnershipTransferred","inputs":[{"name":"previousOwner","type":"address","indexed":true,"internalType":"address"},{"name":"newOwner","type":"address","indexed":true,"internalType":"address"}],"anonymous":false},{"type":"event","name":"PoolsAndFeesSubtracted","inputs":[{"name":"serviceId","type":"uint256","indexed":false,"internalType":"uint256"},{"name":"token","type":"address","indexed":false,"internalType":"address"},{"name":"amount","type":"uint256","indexed":false,"internalType":"uint256"},{"name":"fees","type":"uint256","indexed":false,"internalType":"uint256"}],"anonymous":false},{"type":"event","name":"PoolsSwappedToStable","inputs":[{"name":"serviceId","type":"uint256","indexed":true,"internalType":"uint256"},{"name":"aggregator","type":"address","indexed":true,"internalType":"address"},{"name":"fromToken","type":"address","indexed":false,"internalType":"address"},{"name":"toToken","type":"address","indexed":false,"internalType":"address"},{"name":"releaseableAmount","type":"uint256","indexed":false,"internalType":"uint256"},{"name":"feesAmount","type":"uint256","indexed":false,"internalType":"uint256"},{"name":"receivedStable","type":"uint256","indexed":false,"internalType":"uint256"}],"anonymous":false},{"type":"event","name":"RouterUpdated","inputs":[{"name":"router","type":"address","indexed":true,"internalType":"address"}],"anonymous":false},{"type":"event","name":"Upgraded","inputs":[{"name":"implementation","type":"address","indexed":true,"internalType":"address"}],"anonymous":false},{"type":"error","name":"AddressEmptyCode","inputs":[{"name":"target","type":"address","internalType":"address"}]},{"type":"error","name":"AddressInsufficientBalance","inputs":[{"name":"account","type":"address","internalType":"address"}]},{"type":"error","name":"AggregatorCallFailed","inputs":[]},{"type":"error","name":"ERC1967InvalidImplementation","inputs":[{"name":"implementation","type":"address","internalType":"address"}]},{"type":"error","name":"ERC1967NonPayable","inputs":[]},{"type":"error","name":"FailedInnerCall","inputs":[]},{"type":"error","name":"FulfillmentAlreadyRegistered","inputs":[]},{"type":"error","name":"FulfillmentRecordDoesNotExist","inputs":[]},{"type":"error","name":"InsufficientBalance","inputs":[{"name":"required","type":"uint256","internalType":"uint256"},{"name":"balance","type":"uint256","internalType":"uint256"}]},{"type":"error","name":"InsufficientCombinedBalance","inputs":[{"name":"totalAvailable","type":"uint256","internalType":"uint256"},{"name":"amount","type":"uint256","internalType":"uint256"}]},{"type":"error","name":"InvalidAddress","inputs":[{"name":"addr","type":"address","internalType":"address"}]},{"type":"error","name":"InvalidCaller","inputs":[{"name":"caller","type":"address","internalType":"address"}]},{"type":"error","name":"InvalidInitialization","inputs":[]},{"type":"error","name":"InvalidSwapAmount","inputs":[]},{"type":"error","name":"InvalidTokenAddress","inputs":[]},{"type":"error","name":"NoBalanceToRelease","inputs":[]},{"type":"error","name":"NoFeesToWithdraw","inputs":[]},{"type":"error","name":"NoRefunds","inputs":[{"name":"refundee","type":"address","internalType":"address"}]},{"type":"error","name":"NotInitializing","inputs":[]},{"type":"error","name":"Overflow","inputs":[{"name":"reason","type":"uint8","internalType":"uint8"}]},{"type":"error","name":"OwnableInvalidOwner","inputs":[{"name":"owner","type":"address","internalType":"address"}]},{"type":"error","name":"OwnableUnauthorizedAccount","inputs":[{"name":"account","type":"address","internalType":"address"}]},{"type":"error","name":"ReentrancyGuardReentrantCall","inputs":[]},{"type":"error","name":"RefundsTooBig","inputs":[]},{"type":"error","name":"SafeERC20FailedDecreaseAllowance","inputs":[{"name":"spender","type":"address","internalType":"address"},{"name":"currentAllowance","type":"uint256","internalType":"uint256"},{"name":"requestedDecrease","type":"uint256","internalType":"uint256"}]},{"type":"error","name":"SafeERC20FailedOperation","inputs":[{"name":"token","type":"address","internalType":"address"}]},{"type":"error","name":"UUPSUnauthorizedCallContext","inputs":[]},{"type":"error","name":"UUPSUnsupportedProxiableUUID","inputs":[{"name":"slot","type":"bytes32","internalType":"bytes32"}]},{"type":"error","name":"UnsupportedFulfillmentStatus","inputs":[]}],"bytecode":{"object":"0x60a06040523060805234801561001457600080fd5b5061001d610022565b6100d4565b7ff0c57e16840df040f15088dc2f81fe391c3923bec73e23a9662efc9c229c6a00805468010000000000000000900460ff16156100725760405163f92ee8a960e01b815260040160405180910390fd5b80546001600160401b03908116146100d15780546001600160401b0319166001600160401b0390811782556040519081527fc7f505b2f371ae2175ee4913f4499e1f2633a7b5936321eed1cdaeb6115181d29060200160405180910390a15b50565b608051614d186100fd6000396000818161272a0152818161275301526129fd0152614d186000f3fe6080604052600436106101b75760003560e01c8063ad3cb1cc116100ec578063d0ebdbe71161008a578063edae876f11610064578063edae876f1461060c578063f0329f6b14610639578063f2fde38b14610666578063f5f2e7931461068657600080fd5b8063d0ebdbe71461059f578063dbc85c5a146105bf578063e5b7e2b4146105df57600080fd5b8063c0d78655116100c6578063c0d78655146104e5578063c3dc058d14610505578063c4d66de81461055f578063ce30c9de1461057f57600080fd5b8063ad3cb1cc1461044f578063b4b9bb7c146104a5578063b726962e146104c557600080fd5b806352d1902d116101595780638da5cb5b116101335780638da5cb5b1461035b578063936a83e5146103a5578063a9aa44b0146103c5578063aa6694b11461041f57600080fd5b806352d1902d1461031157806366e11f5714610326578063715018a61461034657600080fd5b80634926dc2c116101955780634926dc2c146102625780634efe6f34146102825780634f1ef286146102de57806350367f81146102f157600080fd5b80630c4393b9146101bc5780631a016c8b146102135780632c16cd8a14610235575b600080fd5b3480156101c857600080fd5b506006546101e99073ffffffffffffffffffffffffffffffffffffffff1681565b60405173ffffffffffffffffffffffffffffffffffffffff90911681526020015b60405180910390f35b34801561021f57600080fd5b5061023361022e366004614198565b61069c565b005b34801561024157600080fd5b506102556102503660046141ef565b610747565b60405161020a91906142e0565b34801561026e57600080fd5b5061023361027d366004614461565b6109dc565b34801561028e57600080fd5b506102d061029d3660046144c0565b600090815260056020908152604080832073ffffffffffffffffffffffffffffffffffffffff9094168352929052205490565b60405190815260200161020a565b6102336102ec3660046145ff565b610ada565b3480156102fd57600080fd5b5061023361030c366004614663565b610af9565b34801561031d57600080fd5b506102d0610bbb565b34801561033257600080fd5b506102d06103413660046146a0565b610bea565b34801561035257600080fd5b50610233610c21565b34801561036757600080fd5b507f9016d09d72d40fdae2fd8ceac6b6234c7706214fd39c1cd1e609a0528c1993005473ffffffffffffffffffffffffffffffffffffffff166101e9565b3480156103b157600080fd5b506102336103c03660046146a0565b610c35565b3480156103d157600080fd5b506102d06103e03660046146d0565b6000908152600b6020908152604080832073ffffffffffffffffffffffffffffffffffffffff9586168452825280832093909416825291909152205490565b34801561042b57600080fd5b5061043f61043a366004614711565b610e02565b604051901515815260200161020a565b34801561045b57600080fd5b506104986040518060400160405280600581526020017f352e302e3000000000000000000000000000000000000000000000000000000081525081565b60405161020a9190614733565b3480156104b157600080fd5b5061043f6104c0366004614766565b610e42565b3480156104d157600080fd5b506102336104e03660046146a0565b611406565b3480156104f157600080fd5b50610233610500366004614833565b611646565b34801561051157600080fd5b506102d06105203660046146d0565b6000908152600a6020908152604080832073ffffffffffffffffffffffffffffffffffffffff9586168452825280832093909416825291909152205490565b34801561056b57600080fd5b5061023361057a366004614833565b611722565b34801561058b57600080fd5b5061023361059a366004614850565b6118b7565b3480156105ab57600080fd5b506102336105ba366004614833565b611d85565b3480156105cb57600080fd5b506102336105da366004614833565b611e61565b3480156105eb57600080fd5b506105ff6105fa366004614833565b611f49565b60405161020a9190614911565b34801561061857600080fd5b506009546101e99073ffffffffffffffffffffffffffffffffffffffff1681565b34801561064557600080fd5b506008546101e99073ffffffffffffffffffffffffffffffffffffffff1681565b34801561067257600080fd5b50610233610681366004614833565b611fc2565b34801561069257600080fd5b506102d060005481565b6106a4612026565b60085473ffffffffffffffffffffffffffffffffffffffff1633146106fc576040517fcbd9d2e00000000000000000000000000000000000000000000000000000000081523360048201526024015b60405180910390fd5b600061070783610747565b9050610718600460058685856120a7565b5061074260017f9b779b17422d0df92223018b32b4d1fa46e071723d6817e2486d003becc55f0055565b505050565b61074f6140e5565b600082815260016020818152604092839020835161018081019094528054845291820180549184019161078190614954565b80601f01602080910402602001604051908101604052809291908181526020018280546107ad90614954565b80156107fa5780601f106107cf576101008083540402835291602001916107fa565b820191906000526020600020905b8154815290600101906020018083116107dd57829003601f168201915b5050509183525050600282015473ffffffffffffffffffffffffffffffffffffffff9081166020830152600383015416604082015260048201805460609092019161084490614954565b80601f016020809104026020016040519081016040528092919081815260200182805461087090614954565b80156108bd5780601f10610892576101008083540402835291602001916108bd565b820191906000526020600020905b8154815290600101906020018083116108a057829003601f168201915b5050509183525050600582015473ffffffffffffffffffffffffffffffffffffffff166020820152600682015460408201526007820154606082015260088201546080820152600982015460a0820152600a8201805460c09092019161092290614954565b80601f016020809104026020016040519081016040528092919081815260200182805461094e90614954565b801561099b5780601f106109705761010080835404028352916020019161099b565b820191906000526020600020905b81548152906001019060200180831161097e57829003601f168201915b5050509183525050600b82015460209091019060ff1660038111156109c2576109c2614276565b60038111156109d3576109d3614276565b90525092915050565b60085473ffffffffffffffffffffffffffffffffffffffff163314610a2f576040517fcbd9d2e00000000000000000000000000000000000000000000000000000000081523360048201526024016106f3565b610a37612026565b610a448585858585612492565b6040805173ffffffffffffffffffffffffffffffffffffffff87811682526020820187905281830186905284811660608301528316608082015290517f98d934fe8fc75cd69945d5121bc8a475733b68ad9fd573b3cb32dc796b7b6b7f9181900360a00190a1610ad360017f9b779b17422d0df92223018b32b4d1fa46e071723d6817e2486d003becc55f0055565b5050505050565b610ae2612712565b610aeb82612816565b610af5828261281e565b5050565b60085473ffffffffffffffffffffffffffffffffffffffff163314610b4c576040517fcbd9d2e00000000000000000000000000000000000000000000000000000000081523360048201526024016106f3565b610b5884848484612957565b6040805185815273ffffffffffffffffffffffffffffffffffffffff85166020820152908101839052606081018290527ff1fe585819f415cf2a8c312f286baa84e52fea1526c729fbf54e8885e60112509060800160405180910390a150505050565b6000610bc56129e5565b507f360894a13ba1a3210667c828492db98dca3e2076cc3735a920a3ca505d382bbc90565b600082815260046020908152604080832073ffffffffffffffffffffffffffffffffffffffff851684529091529020545b92915050565b610c29612a54565b610c336000612ae2565b565b610c3d612026565b60085473ffffffffffffffffffffffffffffffffffffffff163314610c90576040517f8e4c8aa60000000000000000000000000000000000000000000000000000000081523360048201526024016106f3565b600082815260046020908152604080832073ffffffffffffffffffffffffffffffffffffffff851684529091528120549003610cf8576040517f6e7e9ea500000000000000000000000000000000000000000000000000000000815260040160405180910390fd5b6007546040517fef0e239b0000000000000000000000000000000000000000000000000000000081526004810184905260009173ffffffffffffffffffffffffffffffffffffffff169063ef0e239b90602401608060405180830381865afa158015610d68573d6000803e3d6000fd5b505050506040513d601f19601f82011682018060405250810190610d8c91906149a7565b50600084815260046020908152604080832073ffffffffffffffffffffffffffffffffffffffff87168085529083529083208054939055908301519293509091610dd7919083612b78565b5050610af560017f9b779b17422d0df92223018b32b4d1fa46e071723d6817e2486d003becc55f0055565b6000610e0c612026565b610e168383612bf9565b506001610c1b60017f9b779b17422d0df92223018b32b4d1fa46e071723d6817e2486d003becc55f0055565b6000610e4c612026565b60085473ffffffffffffffffffffffffffffffffffffffff163314610e9f576040517f8e4c8aa60000000000000000000000000000000000000000000000000000000081523360048201526024016106f3565b81516000908152600160205260408120549003610ee8576040517f54446f7100000000000000000000000000000000000000000000000000000000815260040160405180910390fd5b600282516000908152600160205260409020600b015460ff166003811115610f1257610f12614276565b14610f49576040517fcdc7646400000000000000000000000000000000000000000000000000000000815260040160405180910390fd5b6007546040517fef0e239b0000000000000000000000000000000000000000000000000000000081526004810185905260009173ffffffffffffffffffffffffffffffffffffffff169063ef0e239b90602401608060405180830381865afa158015610fb9573d6000803e3d6000fd5b505050506040513d601f19601f82011682018060405250810190610fdd91906149a7565b508351600090815260016020526040808220600301548651835281832060060154875184529183206007015493945073ffffffffffffffffffffffffffffffffffffffff16929091906110319083906130f1565b9150600090508660600151600381111561104d5761104d614276565b036110ea57855160009081526001602052604090206005015461108a908590859073ffffffffffffffffffffffffffffffffffffffff168461311a565b606086015186516000908152600160208190526040909120600b01805490917fffffffffffffffffffffffffffffffffffffffffffffffffffffffffffffff00909116908360038111156110e0576110e0614276565b02179055506113d5565b60018660600151600381111561110257611102614276565b14611139576040517f6e718ca000000000000000000000000000000000000000000000000000000000815260040160405180910390fd5b6113d5876001600089600001518152602001908152602001600020604051806101800160405290816000820154815260200160018201805461117a90614954565b80601f01602080910402602001604051908101604052809291908181526020018280546111a690614954565b80156111f35780601f106111c8576101008083540402835291602001916111f3565b820191906000526020600020905b8154815290600101906020018083116111d657829003601f168201915b5050509183525050600282015473ffffffffffffffffffffffffffffffffffffffff9081166020830152600383015416604082015260048201805460609092019161123d90614954565b80601f016020809104026020016040519081016040528092919081815260200182805461126990614954565b80156112b65780601f1061128b576101008083540402835291602001916112b6565b820191906000526020600020905b81548152906001019060200180831161129957829003601f168201915b5050509183525050600582015473ffffffffffffffffffffffffffffffffffffffff166020820152600682015460408201526007820154606082015260088201546080820152600982015460a0820152600a8201805460c09092019161131b90614954565b80601f016020809104026020016040519081016040528092919081815260200182805461134790614954565b80156113945780601f1061136957610100808354040283529160200191611394565b820191906000526020600020905b81548152906001019060200180831161137757829003601f168201915b5050509183525050600b82015460209091019060ff1660038111156113bb576113bb614276565b60038111156113cc576113cc614276565b905250836132e7565b6001945050505050610c1b60017f9b779b17422d0df92223018b32b4d1fa46e071723d6817e2486d003becc55f0055565b61140e612026565b60085473ffffffffffffffffffffffffffffffffffffffff163314611461576040517f8e4c8aa60000000000000000000000000000000000000000000000000000000081523360048201526024016106f3565b6007546040517fef0e239b0000000000000000000000000000000000000000000000000000000081526004810184905260009173ffffffffffffffffffffffffffffffffffffffff169063ef0e239b90602401608060405180830381865afa1580156114d1573d6000803e3d6000fd5b505050506040513d601f19601f820116820180604052508101906114f591906149a7565b50600084815260056020908152604080832073ffffffffffffffffffffffffffffffffffffffff87168452909152812054919250819003611562576040517f6806da6800000000000000000000000000000000000000000000000000000000815260040160405180910390fd5b600084815260056020908152604080832073ffffffffffffffffffffffffffffffffffffffff8716808552908352908320929092558301516115a5919083612b78565b8273ffffffffffffffffffffffffffffffffffffffff16847fe3d4066ff5850a350375c03e4752870f2c3526e35f0e28508108f3b4ac13b0cd84602001518460405161161392919073ffffffffffffffffffffffffffffffffffffffff929092168252602082015260400190565b60405180910390a35050610af560017f9b779b17422d0df92223018b32b4d1fa46e071723d6817e2486d003becc55f0055565b61164e612a54565b73ffffffffffffffffffffffffffffffffffffffff81166116b3576040517f8e4c8aa600000000000000000000000000000000000000000000000000000000815273ffffffffffffffffffffffffffffffffffffffff821660048201526024016106f3565b600980547fffffffffffffffffffffffff00000000000000000000000000000000000000001673ffffffffffffffffffffffffffffffffffffffff83169081179091556040517f7aed1d3e8155a07ccf395e44ea3109a0e2d6c9b29bbbe9f142d9790596f4dc8090600090a250565b7ff0c57e16840df040f15088dc2f81fe391c3923bec73e23a9662efc9c229c6a00805468010000000000000000810460ff16159067ffffffffffffffff1660008115801561176d5750825b905060008267ffffffffffffffff16600114801561178a5750303b155b905081158015611798575080155b156117cf576040517ff92ee8a900000000000000000000000000000000000000000000000000000000815260040160405180910390fd5b84547fffffffffffffffffffffffffffffffffffffffffffffffff000000000000000016600117855583156118305784547fffffffffffffffffffffffffffffffffffffffffffffff00ffffffffffffffff16680100000000000000001785555b61183861359a565b6118406135a2565b611849866135b2565b600160005583156118af5784547fffffffffffffffffffffffffffffffffffffffffffffff00ffffffffffffffff168555604051600181527fc7f505b2f371ae2175ee4913f4499e1f2633a7b5936321eed1cdaeb6115181d29060200160405180910390a15b505050505050565b6118bf612026565b60095473ffffffffffffffffffffffffffffffffffffffff163314611912576040517f8e4c8aa60000000000000000000000000000000000000000000000000000000081523360048201526024016106f3565b608082015160009061192490836130f1565b60608501516007546040517fef0e239b0000000000000000000000000000000000000000000000000000000081526004810189905292945090925060009173ffffffffffffffffffffffffffffffffffffffff9091169063ef0e239b90602401608060405180830381865afa1580156119a1573d6000803e3d6000fd5b505050506040513d601f19601f820116820180604052508101906119c591906149a7565b5085516000888152600a6020908152604080832073ffffffffffffffffffffffffffffffffffffffff88811685529083528184209416835292905290812054919250611a1185836130f1565b885160008b8152600a6020908152604080832073ffffffffffffffffffffffffffffffffffffffff808c16855290835281842094168352929052208190559150611a589050565b6000604051806101800160405280600054815260200189604001518152602001856040015173ffffffffffffffffffffffffffffffffffffffff168152602001896060015173ffffffffffffffffffffffffffffffffffffffff168152602001604051806020016040528060008152508152602001896000015173ffffffffffffffffffffffffffffffffffffffff168152602001896080015181526020018881526020018960200151815260200142815260200160405180602001604052806000815250815260200160026003811115611b3557611b35614276565b81525090506001600080828254611b4c9190614a61565b92505081905550600160036000828254611b669190614a61565b9091555050805160009081526001602081815260409092208351815591830151839291820190611b969082614abb565b50604082015160028201805473ffffffffffffffffffffffffffffffffffffffff9283167fffffffffffffffffffffffff000000000000000000000000000000000000000091821617909155606084015160038401805491909316911617905560808201516004820190611c0a9082614abb565b5060a08201516005820180547fffffffffffffffffffffffff00000000000000000000000000000000000000001673ffffffffffffffffffffffffffffffffffffffff90921691909117905560c0820151600682015560e0820151600782015561010082015160088201556101208201516009820155610140820151600a820190611c959082614abb565b50610160820151600b820180547fffffffffffffffffffffffffffffffffffffffffffffffffffffffffffffff00166001836003811115611cd857611cd8614276565b0217905550505060a081015173ffffffffffffffffffffffffffffffffffffffff166000908152600260209081526040808320845181546001810183559185529290932090920155517ffe31e11aad0d4767904c798dd8326e02ff3f34ade391dc074800a8b71d34a7ec90611d4e9083906142e0565b60405180910390a150505050505061074260017f9b779b17422d0df92223018b32b4d1fa46e071723d6817e2486d003becc55f0055565b611d8d612a54565b73ffffffffffffffffffffffffffffffffffffffff8116611df2576040517f8e4c8aa600000000000000000000000000000000000000000000000000000000815273ffffffffffffffffffffffffffffffffffffffff821660048201526024016106f3565b600880547fffffffffffffffffffffffff00000000000000000000000000000000000000001673ffffffffffffffffffffffffffffffffffffffff83169081179091556040517f2c1c11af44aa5608f1dca38c00275c30ea091e02417d36e70e9a1538689c433d90600090a250565b611e69612a54565b73ffffffffffffffffffffffffffffffffffffffff8116611ece576040517f8e4c8aa600000000000000000000000000000000000000000000000000000000815273ffffffffffffffffffffffffffffffffffffffff821660048201526024016106f3565b6006805473ffffffffffffffffffffffffffffffffffffffff83167fffffffffffffffffffffffff0000000000000000000000000000000000000000918216811790925560078054909116821790556040517f12fd82a8fae6400d0456d521504e56c94dd90726268fd158b0584ec682e1b5b190600090a250565b73ffffffffffffffffffffffffffffffffffffffff8116600090815260026020908152604091829020805483518184028101840190945280845260609392830182828015611fb657602002820191906000526020600020905b815481526020019060010190808311611fa2575b50505050509050919050565b611fca612a54565b73ffffffffffffffffffffffffffffffffffffffff811661201a576040517f1e4fbdf7000000000000000000000000000000000000000000000000000000008152600060048201526024016106f3565b61202381612ae2565b50565b7f9b779b17422d0df92223018b32b4d1fa46e071723d6817e2486d003becc55f0080547ffffffffffffffffffffffffffffffffffffffffffffffffffffffffffffffffe016120a1576040517f3ee5aeb500000000000000000000000000000000000000000000000000000000815260040160405180910390fd5b60029055565b606081015173ffffffffffffffffffffffffffffffffffffffff1615806120f0575060006120d86020840184614833565b73ffffffffffffffffffffffffffffffffffffffff16145b15612127576040517f1eb00b0600000000000000000000000000000000000000000000000000000000815260040160405180910390fd5b8160200135600003612165576040517fe346d81d00000000000000000000000000000000000000000000000000000000815260040160405180910390fd5b60008381526020868152604080832060608501805173ffffffffffffffffffffffffffffffffffffffff9081168652918452828520548886528985528386209151909216855290925282205490916121bd8284614a61565b9050846020013581101561220a576040517f29b1c81100000000000000000000000000000000000000000000000000000000815260048101829052602086013560248201526044016106f3565b612218838560c001516135c3565b6122229084614bd4565b600087815260208a81526040808320606089015173ffffffffffffffffffffffffffffffffffffffff16845290915290205560e08401516122649083906135c3565b61226e9083614bd4565b6000878152602089815260408083206060808a015173ffffffffffffffffffffffffffffffffffffffff16855292528083209390935590916122c4916122b991908901908901614833565b8660600151886135db565b90506000806122dc88602001358860c001518561382b565b60008b815260208e8152604082209395509193508492916122ff908c018c614833565b73ffffffffffffffffffffffffffffffffffffffff1673ffffffffffffffffffffffffffffffffffffffff16815260200190815260200160002060008282546123489190614a61565b9091555050600089815260208b8152604082208392909161236b908c018c614833565b73ffffffffffffffffffffffffffffffffffffffff1673ffffffffffffffffffffffffffffffffffffffff16815260200190815260200160002060008282546123b49190614a61565b909155506123ca90506060890160408a01614833565b73ffffffffffffffffffffffffffffffffffffffff16897f527621353620f34f430c80603e6f08e61362d3e365d229288b14e89b4ffb1c3289606001518b600001602081019061241a9190614833565b6040805173ffffffffffffffffffffffffffffffffffffffff938416815292909116602083015281018a9052606081018990526080810187905260a00160405180910390a35050505050505050505050565b60017f9b779b17422d0df92223018b32b4d1fa46e071723d6817e2486d003becc55f0055565b73ffffffffffffffffffffffffffffffffffffffff85166124e2576040517f8e4c8aa6000000000000000000000000000000000000000000000000000000008152600060048201526024016106f3565b73ffffffffffffffffffffffffffffffffffffffff82161580612519575073ffffffffffffffffffffffffffffffffffffffff8116155b15612553576040517f8e4c8aa6000000000000000000000000000000000000000000000000000000008152600060048201526024016106f3565b83156126eb5760006125658486614a61565b6040517f70a0823100000000000000000000000000000000000000000000000000000000815230600482015290915073ffffffffffffffffffffffffffffffffffffffff8716906370a0823190602401602060405180830381865afa1580156125d2573d6000803e3d6000fd5b505050506040513d601f19601f820116820180604052508101906125f69190614be7565b8111156126c8576040517f70a08231000000000000000000000000000000000000000000000000000000008152306004820152819073ffffffffffffffffffffffffffffffffffffffff8816906370a0823190602401602060405180830381865afa158015612669573d6000803e3d6000fd5b505050506040513d601f19601f8201168201806040525081019061268d9190614be7565b6040517fcf479181000000000000000000000000000000000000000000000000000000008152600481019290925260248201526044016106f3565b6126e973ffffffffffffffffffffffffffffffffffffffff87168487612b78565b505b8215610ad357610ad373ffffffffffffffffffffffffffffffffffffffff86168285612b78565b3073ffffffffffffffffffffffffffffffffffffffff7f00000000000000000000000000000000000000000000000000000000000000001614806127df57507f000000000000000000000000000000000000000000000000000000000000000073ffffffffffffffffffffffffffffffffffffffff166127c67f360894a13ba1a3210667c828492db98dca3e2076cc3735a920a3ca505d382bbc5473ffffffffffffffffffffffffffffffffffffffff1690565b73ffffffffffffffffffffffffffffffffffffffff1614155b15610c33576040517fe07c8dba00000000000000000000000000000000000000000000000000000000815260040160405180910390fd5b612023612a54565b8173ffffffffffffffffffffffffffffffffffffffff166352d1902d6040518163ffffffff1660e01b8152600401602060405180830381865afa9250505080156128a3575060408051601f3d9081017fffffffffffffffffffffffffffffffffffffffffffffffffffffffffffffffe01682019092526128a091810190614be7565b60015b6128f1576040517f4c9c8ce300000000000000000000000000000000000000000000000000000000815273ffffffffffffffffffffffffffffffffffffffff831660048201526024016106f3565b7f360894a13ba1a3210667c828492db98dca3e2076cc3735a920a3ca505d382bbc811461294d576040517faa1d49a4000000000000000000000000000000000000000000000000000000008152600481018290526024016106f3565b6107428383613863565b600084815260046020908152604080832073ffffffffffffffffffffffffffffffffffffffff8716845290915281208054849290612996908490614bd4565b9091555050600084815260056020908152604080832073ffffffffffffffffffffffffffffffffffffffff87168452909152812080548392906129da908490614bd4565b909155505050505050565b3073ffffffffffffffffffffffffffffffffffffffff7f00000000000000000000000000000000000000000000000000000000000000001614610c33576040517fe07c8dba00000000000000000000000000000000000000000000000000000000815260040160405180910390fd5b33612a937f9016d09d72d40fdae2fd8ceac6b6234c7706214fd39c1cd1e609a0528c1993005473ffffffffffffffffffffffffffffffffffffffff1690565b73ffffffffffffffffffffffffffffffffffffffff1614610c33576040517f118cdaa70000000000000000000000000000000000000000000000000000000081523360048201526024016106f3565b7f9016d09d72d40fdae2fd8ceac6b6234c7706214fd39c1cd1e609a0528c19930080547fffffffffffffffffffffffff0000000000000000000000000000000000000000811673ffffffffffffffffffffffffffffffffffffffff848116918217845560405192169182907f8be0079c531659141344cd1fd0a4f28419497f9722a3daafe3b4186f6b6457e090600090a3505050565b60405173ffffffffffffffffffffffffffffffffffffffff83811660248301526044820183905261074291859182169063a9059cbb906064015b604051602081830303815290604052915060e01b6020820180517bffffffffffffffffffffffffffffffffffffffffffffffffffffffff83818316178352505050506138c6565b60095473ffffffffffffffffffffffffffffffffffffffff163314612c4c576040517f8e4c8aa60000000000000000000000000000000000000000000000000000000081523360048201526024016106f3565b600081815260016020818152604080842081516101808101909252805482529283018054919392840191612c7f90614954565b80601f0160208091040260200160405190810160405280929190818152602001828054612cab90614954565b8015612cf85780601f10612ccd57610100808354040283529160200191612cf8565b820191906000526020600020905b815481529060010190602001808311612cdb57829003601f168201915b5050509183525050600282015473ffffffffffffffffffffffffffffffffffffffff90811660208301526003830154166040820152600482018054606090920191612d4290614954565b80601f0160208091040260200160405190810160405280929190818152602001828054612d6e90614954565b8015612dbb5780601f10612d9057610100808354040283529160200191612dbb565b820191906000526020600020905b815481529060010190602001808311612d9e57829003601f168201915b5050509183525050600582015473ffffffffffffffffffffffffffffffffffffffff166020820152600682015460408201526007820154606082015260088201546080820152600982015460a0820152600a8201805460c090920191612e2090614954565b80601f0160208091040260200160405190810160405280929190818152602001828054612e4c90614954565b8015612e995780601f10612e6e57610100808354040283529160200191612e99565b820191906000526020600020905b815481529060010190602001808311612e7c57829003601f168201915b5050509183525050600b82015460209091019060ff166003811115612ec057612ec0614276565b6003811115612ed157612ed1614276565b9052508051909150600003612f12576040517f54446f7100000000000000000000000000000000000000000000000000000000815260040160405180910390fd5b606081015160a08201516000858152600b6020908152604080832073ffffffffffffffffffffffffffffffffffffffff958616845282528083209490931682529290925281205460e083015160c0840151919291612f6f916130f1565b91505081811115612fac576040517f1eb8e4e900000000000000000000000000000000000000000000000000000000815260040160405180910390fd5b6000612fb8838361395c565b606086015160a087015160008a8152600b6020908152604080832073ffffffffffffffffffffffffffffffffffffffff95861684528252808320949093168252929092529020819055915061300a9050565b6000858152600160205260409020600b0180547fffffffffffffffffffffffffffffffffffffffffffffffffffffffffffffff0016600317905560a084015160608501516130719173ffffffffffffffffffffffffffffffffffffffff9091169084612b78565b8360a0015173ffffffffffffffffffffffffffffffffffffffff16846060015173ffffffffffffffffffffffffffffffffffffffff167f53e8f7e8ed4fc8a54cbbe101fcbd61bb97ff9a45c719390450e609027442970184886040516130e1929190918252602082015260400190565b60405180910390a3505050505050565b6000808383018481101561310c576000809250925050613113565b6001925090505b9250929050565b83516000908152600b6020908152604080832073ffffffffffffffffffffffffffffffffffffffff8781168086529184528285209087168086529084528285205489518652600a855283862092865291845282852090855290925290912054808311156131b3576040517f1eb8e4e900000000000000000000000000000000000000000000000000000000815260040160405180910390fd5b6000806131c084866130f1565b91509150816131fe576040517fc0d7d3cc000000000000000000000000000000000000000000000000000000008152600160048201526024016106f3565b60008061320b858861395c565b9150915081613249576040517fc0d7d3cc000000000000000000000000000000000000000000000000000000008152600260048201526024016106f3565b89516000908152600a6020908152604080832073ffffffffffffffffffffffffffffffffffffffff8d8116808652918452828520908d168086529084528285208690558e518552600b8452828520918552908352818420818552835292819020869055518981527fc26e84de705d2bfd99e3fa9d482912f6918366d3bbde41683ecfbc118b40efbd910160405180910390a250505050505050505050565b815160009081526001602090815260408083206007015486845260058352818420606087015173ffffffffffffffffffffffffffffffffffffffff168552909252822054829161333791906130f1565b606086015186516000908152600160209081526040808320600501548b8452600a835281842073ffffffffffffffffffffffffffffffffffffffff958616855283528184209416835292905220549193509150826133c4576040517fc0d7d3cc000000000000000000000000000000000000000000000000000000008152600360048201526024016106f3565b600086815260056020908152604080832060608901805173ffffffffffffffffffffffffffffffffffffffff908116865291845282852087905560c08a01518b86526004855283862091519092168552909252822054829161342691906130f1565b9150915081613463576040517fc0d7d3cc0000000000000000000000000000000000000000000000000000000081526004818101526024016106f3565b600080613470858961395c565b91509150816134ae576040517fc0d7d3cc000000000000000000000000000000000000000000000000000000008152600560048201526024016106f3565b60008a815260046020908152604080832060608d01805173ffffffffffffffffffffffffffffffffffffffff90811686529184528285208890555160a08e01518f8652600a8552838620918316865290845282852091168452909152902081905561014089015189516000908152600160205260409020600a01906135339082614abb565b5088516000908152600160208190526040808320600b0180547fffffffffffffffffffffffffffffffffffffffffffffffffffffffffffffff001690921790915560808b01518b51835291206004019061358d9082614abb565b5050505050505050505050565b610c3361397e565b6135aa61397e565b610c336139e5565b6135ba61397e565b612023816139ed565b60008183106135d257816135d4565b825b9392505050565b6000806135eb6020840184614833565b6040517f70a0823100000000000000000000000000000000000000000000000000000000815230600482015273ffffffffffffffffffffffffffffffffffffffff91909116906370a0823190602401602060405180830381865afa158015613657573d6000803e3d6000fd5b505050506040513d601f19601f8201168201806040525081019061367b9190614be7565b90506136a273ffffffffffffffffffffffffffffffffffffffff85168660208601356139f5565b600073ffffffffffffffffffffffffffffffffffffffff86166136c86060860186614c00565b6040516136d6929190614c65565b6000604051808303816000865af19150503d8060008114613713576040519150601f19603f3d011682016040523d82523d6000602084013e613718565b606091505b5050905080613753576040517fd0bbd5ad00000000000000000000000000000000000000000000000000000000815260040160405180910390fd5b61377573ffffffffffffffffffffffffffffffffffffffff8616876000613aab565b60006137846020860186614833565b6040517f70a0823100000000000000000000000000000000000000000000000000000000815230600482015273ffffffffffffffffffffffffffffffffffffffff91909116906370a0823190602401602060405180830381865afa1580156137f0573d6000803e3d6000fd5b505050506040513d601f19601f820116820180604052508101906138149190614be7565b90506138208382614bd4565b979650505050505050565b600080806138398486613bb4565b915061384790508187613bf1565b93506138559050848461395c565b939793965092945050505050565b61386c82613c24565b60405173ffffffffffffffffffffffffffffffffffffffff8316907fbc7cd75a20ee27fd9adebab32041f755214dbc6bffa90cc0225b39da2e5c2d3b90600090a28051156138be576107428282613cf3565b610af5613d76565b60006138e873ffffffffffffffffffffffffffffffffffffffff841683613dae565b9050805160001415801561390d57508080602001905181019061390b9190614c75565b155b15610742576040517f5274afe700000000000000000000000000000000000000000000000000000000815273ffffffffffffffffffffffffffffffffffffffff841660048201526024016106f3565b6000808383111561397257506000905080613113565b50600193919092039150565b7ff0c57e16840df040f15088dc2f81fe391c3923bec73e23a9662efc9c229c6a005468010000000000000000900460ff16610c33576040517fd7e6bcf800000000000000000000000000000000000000000000000000000000815260040160405180910390fd5b61246c61397e565b611fca61397e565b6040517fdd62ed3e00000000000000000000000000000000000000000000000000000000815230600482015273ffffffffffffffffffffffffffffffffffffffff83811660248301526000919085169063dd62ed3e90604401602060405180830381865afa158015613a6b573d6000803e3d6000fd5b505050506040513d601f19601f82011682018060405250810190613a8f9190614be7565b9050613aa58484613aa08585614a61565b613dbc565b50505050565b6040517fdd62ed3e00000000000000000000000000000000000000000000000000000000815230600482015273ffffffffffffffffffffffffffffffffffffffff83811660248301526000919085169063dd62ed3e90604401602060405180830381865afa158015613b21573d6000803e3d6000fd5b505050506040513d601f19601f82011682018060405250810190613b459190614be7565b905081811015613ba7576040517fe570110f00000000000000000000000000000000000000000000000000000000815273ffffffffffffffffffffffffffffffffffffffff8416600482015260248101829052604481018390526064016106f3565b613aa58484848403613dbc565b60008083600003613bcb5750600190506000613113565b83830283858281613bde57613bde614c97565b041461310c576000809250925050613113565b60008082600003613c0757506000905080613113565b6001838581613c1857613c18614c97565b04915091509250929050565b8073ffffffffffffffffffffffffffffffffffffffff163b600003613c8d576040517f4c9c8ce300000000000000000000000000000000000000000000000000000000815273ffffffffffffffffffffffffffffffffffffffff821660048201526024016106f3565b7f360894a13ba1a3210667c828492db98dca3e2076cc3735a920a3ca505d382bbc80547fffffffffffffffffffffffff00000000000000000000000000000000000000001673ffffffffffffffffffffffffffffffffffffffff92909216919091179055565b60606000808473ffffffffffffffffffffffffffffffffffffffff1684604051613d1d9190614cc6565b600060405180830381855af49150503d8060008114613d58576040519150601f19603f3d011682016040523d82523d6000602084013e613d5d565b606091505b5091509150613d6d858383613e94565b95945050505050565b3415610c33576040517fb398979f00000000000000000000000000000000000000000000000000000000815260040160405180910390fd5b60606135d483836000613f23565b6040805173ffffffffffffffffffffffffffffffffffffffff8416602482015260448082018490528251808303909101815260649091019091526020810180517bffffffffffffffffffffffffffffffffffffffffffffffffffffffff167f095ea7b300000000000000000000000000000000000000000000000000000000179052613e488482613fe6565b613aa55760405173ffffffffffffffffffffffffffffffffffffffff848116602483015260006044830152613e8a91869182169063095ea7b390606401612bb2565b613aa584826138c6565b606082613ea957613ea4826140a3565b6135d4565b8151158015613ecd575073ffffffffffffffffffffffffffffffffffffffff84163b155b15613f1c576040517f9996b31500000000000000000000000000000000000000000000000000000000815273ffffffffffffffffffffffffffffffffffffffff851660048201526024016106f3565b5092915050565b606081471015613f61576040517fcd7860590000000000000000000000000000000000000000000000000000000081523060048201526024016106f3565b6000808573ffffffffffffffffffffffffffffffffffffffff168486604051613f8a9190614cc6565b60006040518083038185875af1925050503d8060008114613fc7576040519150601f19603f3d011682016040523d82523d6000602084013e613fcc565b606091505b5091509150613fdc868383613e94565b9695505050505050565b60008060008473ffffffffffffffffffffffffffffffffffffffff16846040516140109190614cc6565b6000604051808303816000865af19150503d806000811461404d576040519150601f19603f3d011682016040523d82523d6000602084013e614052565b606091505b509150915081801561407c57508051158061407c57508080602001905181019061407c9190614c75565b8015613d6d57505050505073ffffffffffffffffffffffffffffffffffffffff163b151590565b8051156140b35780518082602001fd5b6040517f1425ea4200000000000000000000000000000000000000000000000000000000815260040160405180910390fd5b6040518061018001604052806000815260200160608152602001600073ffffffffffffffffffffffffffffffffffffffff168152602001600073ffffffffffffffffffffffffffffffffffffffff16815260200160608152602001600073ffffffffffffffffffffffffffffffffffffffff16815260200160008152602001600081526020016000815260200160008152602001606081526020016000600381111561419357614193614276565b905290565b6000806000606084860312156141ad57600080fd5b8335925060208401359150604084013567ffffffffffffffff8111156141d257600080fd5b8401608081870312156141e457600080fd5b809150509250925092565b60006020828403121561420157600080fd5b5035919050565b60005b8381101561422357818101518382015260200161420b565b50506000910152565b60008151808452614244816020860160208601614208565b601f017fffffffffffffffffffffffffffffffffffffffffffffffffffffffffffffffe0169290920160200192915050565b7f4e487b7100000000000000000000000000000000000000000000000000000000600052602160045260246000fd5b600481106142dc577f4e487b7100000000000000000000000000000000000000000000000000000000600052602160045260246000fd5b9052565b60208152815160208201526000602083015161018060408401526143086101a084018261422c565b90506040840151614331606085018273ffffffffffffffffffffffffffffffffffffffff169052565b50606084015173ffffffffffffffffffffffffffffffffffffffff811660808501525060808401517fffffffffffffffffffffffffffffffffffffffffffffffffffffffffffffffe08483030160a085015261438d828261422c565b91505060a08401516143b760c085018273ffffffffffffffffffffffffffffffffffffffff169052565b5060c084015160e084015260e08401516101008401526101008401516101208401526101208401516101408401526101408401517fffffffffffffffffffffffffffffffffffffffffffffffffffffffffffffffe084830301610160850152614420828261422c565b9150506101608401516144376101808501826142a5565b509392505050565b73ffffffffffffffffffffffffffffffffffffffff8116811461202357600080fd5b600080600080600060a0868803121561447957600080fd5b85356144848161443f565b9450602086013593506040860135925060608601356144a28161443f565b915060808601356144b28161443f565b809150509295509295909350565b600080604083850312156144d357600080fd5b82356144de8161443f565b946020939093013593505050565b7f4e487b7100000000000000000000000000000000000000000000000000000000600052604160045260246000fd5b6040516080810167ffffffffffffffff8111828210171561453e5761453e6144ec565b60405290565b60405160a0810167ffffffffffffffff8111828210171561453e5761453e6144ec565b60008067ffffffffffffffff841115614582576145826144ec565b506040517fffffffffffffffffffffffffffffffffffffffffffffffffffffffffffffffe0601f85018116603f0116810181811067ffffffffffffffff821117156145cf576145cf6144ec565b6040528381529050808284018510156145e757600080fd5b83836020830137600060208583010152509392505050565b6000806040838503121561461257600080fd5b823561461d8161443f565b9150602083013567ffffffffffffffff81111561463957600080fd5b8301601f8101851361464a57600080fd5b61465985823560208401614567565b9150509250929050565b6000806000806080858703121561467957600080fd5b84359350602085013561468b8161443f565b93969395505050506040820135916060013590565b600080604083850312156146b357600080fd5b8235915060208301356146c58161443f565b809150509250929050565b6000806000606084860312156146e557600080fd5b83356146f08161443f565b925060208401356147008161443f565b929592945050506040919091013590565b6000806040838503121561472457600080fd5b50508035926020909101359150565b6020815260006135d4602083018461422c565b600082601f83011261475757600080fd5b6135d483833560208501614567565b6000806040838503121561477957600080fd5b82359150602083013567ffffffffffffffff81111561479757600080fd5b8301608081860312156147a957600080fd5b6147b161451b565b81358152602082013567ffffffffffffffff8111156147cf57600080fd5b6147db87828501614746565b602083015250604082013567ffffffffffffffff8111156147fb57600080fd5b61480787828501614746565b604083015250606082013591506004821061482157600080fd5b81606082015280925050509250929050565b60006020828403121561484557600080fd5b81356135d48161443f565b60008060006060848603121561486557600080fd5b83359250602084013567ffffffffffffffff81111561488357600080fd5b840160a0818703121561489557600080fd5b61489d614544565b81356148a88161443f565b815260208281013590820152604082013567ffffffffffffffff8111156148ce57600080fd5b6148da88828501614746565b60408301525060608201356148ee8161443f565b606082015260809182013591810191909152929592945050506040919091013590565b602080825282518282018190526000918401906040840190835b8181101561494957835183526020938401939092019160010161492b565b509095945050505050565b600181811c9082168061496857607f821691505b6020821081036149a1577f4e487b7100000000000000000000000000000000000000000000000000000000600052602260045260246000fd5b50919050565b60008082840360808112156149bb57600080fd5b60608112156149c957600080fd5b506040516060810167ffffffffffffffff811182821017156149ed576149ed6144ec565b604052835181526020840151614a028161443f565b60208201526040840151614a158161443f565b6040820152606084015190925061ffff811681146146c557600080fd5b7f4e487b7100000000000000000000000000000000000000000000000000000000600052601160045260246000fd5b80820180821115610c1b57610c1b614a32565b601f82111561074257806000526020600020601f840160051c81016020851015614a9b5750805b601f840160051c820191505b81811015610ad35760008155600101614aa7565b815167ffffffffffffffff811115614ad557614ad56144ec565b614ae981614ae38454614954565b84614a74565b6020601f821160018114614b3b5760008315614b055750848201515b7fffffffffffffffffffffffffffffffffffffffffffffffffffffffffffffffff600385901b1c1916600184901b178455610ad3565b6000848152602081207fffffffffffffffffffffffffffffffffffffffffffffffffffffffffffffffe08516915b82811015614b895787850151825560209485019460019092019101614b69565b5084821015614bc557868401517fffffffffffffffffffffffffffffffffffffffffffffffffffffffffffffffff600387901b60f8161c191681555b50505050600190811b01905550565b81810381811115610c1b57610c1b614a32565b600060208284031215614bf957600080fd5b5051919050565b60008083357fffffffffffffffffffffffffffffffffffffffffffffffffffffffffffffffe1843603018112614c3557600080fd5b83018035915067ffffffffffffffff821115614c5057600080fd5b60200191503681900382131561311357600080fd5b8183823760009101908152919050565b600060208284031215614c8757600080fd5b815180151581146135d457600080fd5b7f4e487b7100000000000000000000000000000000000000000000000000000000600052601260045260246000fd5b60008251614cd8818460208701614208565b919091019291505056fea2646970667358221220d28907241fbd1279f5b3c16651cb4508072f1042a6f407acecf91068c5c4566564736f6c634300081c0033","linkReferences":{}},"methodIdentifiers":{"UPGRADE_INTERFACE_VERSION()":"ad3cb1cc","_fulfillableRegistry()":"0c4393b9","_fulfillmentIdCount()":"f5f2e793","_manager()":"f0329f6b","_router()":"edae876f","beneficiaryWithdraw(uint256,address)":"936a83e5","depositERC20(uint256,(address,uint256,string,address,uint256),uint256)":"ce30c9de","getERC20DepositsFor(address,address,uint256)":"c3dc058d","getERC20FeesFor(address,uint256)":"4efe6f34","getERC20RefundsFor(address,address,uint256)":"a9aa44b0","getReleaseablePools(uint256,address)":"66e11f57","initialize(address)":"c4d66de8","owner()":"8da5cb5b","proxiableUUID()":"52d1902d","record(uint256)":"2c16cd8a","recordsOf(address)":"e5b7e2b4","registerFulfillment(uint256,(uint256,string,string,uint8))":"b4b9bb7c","renounceOwnership()":"715018a6","setFulfillableRegistry(address)":"dbc85c5a","setManager(address)":"d0ebdbe7","setRouter(address)":"c0d78655","subtractPoolsAndFees(uint256,address,uint256,uint256)":"50367f81","swapPoolsToStable(uint256,uint256,(address,uint256,address,bytes))":"1a016c8b","transferOwnership(address)":"f2fde38b","upgradeToAndCall(address,bytes)":"4f1ef286","withdrawAccumulatedFees(uint256,address)":"b726962e","withdrawERC20Refund(uint256,uint256)":"aa6694b1","withdrawFulfillerPoolAndFees(address,uint256,uint256,address,address)":"4926dc2c"},"id":2}