{"abi":[{"type":"constructor","inputs":[],"stateMutability":"nonpayable"},{"type":"function","name":"UPGRADE_INTERFACE_VERSION","inputs":[],"outputs":[{"name":"","type":"string","internalType":"string"}],"stateMutability":"view"},{"type":"function","name":"_accumulatedFees","inputs":[{"name":"","type":"uint256","internalType":"uint256"}],"outputs":[{"name":"","type":"uint256","internalType":"uint256"}],"stateMutability":"view"},{"type":"function","name":"_authorized_refunds","inputs":[{"name":"","type":"uint256","internalType":"uint256"},{"name":"","type":"address","internalType":"address"}],"outputs":[{"name":"","type":"uint256","internalType":"uint256"}],"stateMutability":"view"},{"type":"function","name":"_deposits","inputs":[{"name":"","type":"uint256","internalType":"uint256"},{"name":"","type":"address","internalType":"address"}],"outputs":[{"name":"","type":"uint256","internalType":"uint256"}],"stateMutability":"view"},{"type":"function","name":"_fulfillableRegistry","inputs":[],"outputs":[{"name":"","type":"address","internalType":"address"}],"stateMutability":"view"},{"type":"function","name":"_manager","inputs":[],"outputs":[{"name":"","type":"address","internalType":"address"}],"stateMutability":"view"},{"type":"function","name":"_releaseablePool","inputs":[{"name":"","type":"uint256","internalType":"uint256"}],"outputs":[{"name":"","type":"uint256","internalType":"uint256"}],"stateMutability":"view"},{"type":"function","name":"_router","inputs":[],"outputs":[{"name":"","type":"address","internalType":"address"}],"stateMutability":"view"},{"type":"function","name":"beneficiaryWithdraw","inputs":[{"name":"serviceID","type":"uint256","internalType":"uint256"}],"outputs":[],"stateMutability":"nonpayable"},{"type":"function","name":"deposit","inputs":[{"name":"serviceID","type":"uint256","internalType":"uint256"},{"name":"fulfillmentRequest","type":"tuple","internalType":"struct FulFillmentRequest","components":[{"name":"payer","type":"address","internalType":"address"},{"name":"weiAmount","type":"uint256","internalType":"uint256"},{"name":"fiatAmount","type":"uint256","internalType":"uint256"},{"name":"serviceRef","type":"string","internalType":"string"}]},{"name":"feeAmount","type":"uint256","internalType":"uint256"}],"outputs":[],"stateMutability":"payable"},{"type":"function","name":"getDepositsFor","inputs":[{"name":"payer","type":"address","internalType":"address"},{"name":"serviceID","type":"uint256","internalType":"uint256"}],"outputs":[{"name":"amount","type":"uint256","internalType":"uint256"}],"stateMutability":"view"},{"type":"function","name":"getNativeFeesFor","inputs":[{"name":"serviceId","type":"uint256","internalType":"uint256"}],"outputs":[{"name":"amount","type":"uint256","internalType":"uint256"}],"stateMutability":"view"},{"type":"function","name":"getRefundsFor","inputs":[{"name":"payer","type":"address","internalType":"address"},{"name":"serviceID","type":"uint256","internalType":"uint256"}],"outputs":[{"name":"amount","type":"uint256","internalType":"uint256"}],"stateMutability":"view"},{"type":"function","name":"initialize","inputs":[{"name":"initialOwner","type":"address","internalType":"address"}],"outputs":[],"stateMutability":"nonpayable"},{"type":"function","name":"owner","inputs":[],"outputs":[{"name":"","type":"address","internalType":"address"}],"stateMutability":"view"},{"type":"function","name":"proxiableUUID","inputs":[],"outputs":[{"name":"","type":"bytes32","internalType":"bytes32"}],"stateMutability":"view"},{"type":"function","name":"record","inputs":[{"name":"id","type":"uint256","internalType":"uint256"}],"outputs":[{"name":"","type":"tuple","internalType":"struct FulFillmentRecord","components":[{"name":"id","type":"uint256","internalType":"uint256"},{"name":"serviceRef","type":"string","internalType":"string"},{"name":"fulfiller","type":"address","internalType":"address"},{"name":"externalID","type":"string","internalType":"string"},{"name":"payer","type":"address","internalType":"address"},{"name":"weiAmount","type":"uint256","internalType":"uint256"},{"name":"feeAmount","type":"uint256","internalType":"uint256"},{"name":"fiatAmount","type":"uint256","internalType":"uint256"},{"name":"entryTime","type":"uint256","internalType":"uint256"},{"name":"receiptURI","type":"string","internalType":"string"},{"name":"status","type":"uint8","internalType":"enum FulFillmentResultState"}]}],"stateMutability":"view"},{"type":"function","name":"recordsOf","inputs":[{"name":"payer","type":"address","internalType":"address"}],"outputs":[{"name":"","type":"uint256[]","internalType":"uint256[]"}],"stateMutability":"view"},{"type":"function","name":"registerFulfillment","inputs":[{"name":"serviceID","type":"uint256","internalType":"uint256"},{"name":"fulfillment","type":"tuple","internalType":"struct FulFillmentResult","components":[{"name":"id","type":"uint256","internalType":"uint256"},{"name":"externalID","type":"string","internalType":"string"},{"name":"receiptURI","type":"string","internalType":"string"},{"name":"status","type":"uint8","internalType":"enum FulFillmentResultState"}]}],"outputs":[{"name":"","type":"bool","internalType":"bool"}],"stateMutability":"nonpayable"},{"type":"function","name":"renounceOwnership","inputs":[],"outputs":[],"stateMutability":"nonpayable"},{"type":"function","name":"setFulfillableRegistry","inputs":[{"name":"fulfillableRegistry_","type":"address","internalType":"address"}],"outputs":[],"stateMutability":"nonpayable"},{"type":"function","name":"setManager","inputs":[{"name":"manager_","type":"address","internalType":"address"}],"outputs":[],"stateMutability":"nonpayable"},{"type":"function","name":"setRouter","inputs":[{"name":"router_","type":"address","internalType":"address"}],"outputs":[],"stateMutability":"nonpayable"},{"type":"function","name":"transferOwnership","inputs":[{"name":"newOwner","type":"address","internalType":"address"}],"outputs":[],"stateMutability":"nonpayable"},{"type":"function","name":"upgradeToAndCall","inputs":[{"name":"newImplementation","type":"address","internalType":"address"},{"name":"data","type":"bytes","internalType":"bytes"}],"outputs":[],"stateMutability":"payable"},{"type":"function","name":"withdrawAccumulatedFees","inputs":[{"name":"serviceId","type":"uint256","internalType":"uint256"}],"outputs":[],"stateMutability":"nonpayable"},{"type":"function","name":"withdrawRefund","inputs":[{"name":"serviceID","type":"uint256","internalType":"uint256"},{"name":"refundee","type":"address","internalType":"address payable"}],"outputs":[{"name":"","type":"bool","internalType":"bool"}],"stateMutability":"nonpayable"},{"type":"event","name":"DepositReceived","inputs":[{"name":"record","type":"tuple","indexed":false,"internalType":"struct FulFillmentRecord","components":[{"name":"id","type":"uint256","internalType":"uint256"},{"name":"serviceRef","type":"string","internalType":"string"},{"name":"fulfiller","type":"address","internalType":"address"},{"name":"externalID","type":"string","internalType":"string"},{"name":"payer","type":"address","internalType":"address"},{"name":"weiAmount","type":"uint256","internalType":"uint256"},{"name":"feeAmount","type":"uint256","internalType":"uint256"},{"name":"fiatAmount","type":"uint256","internalType":"uint256"},{"name":"entryTime","type":"uint256","internalType":"uint256"},{"name":"receiptURI","type":"string","internalType":"string"},{"name":"status","type":"uint8","internalType":"enum FulFillmentResultState"}]}],"anonymous":false},{"type":"event","name":"FeeUpdated","inputs":[{"name":"serviceID","type":"uint256","indexed":false,"internalType":"uint256"},{"name":"amount","type":"uint256","indexed":false,"internalType":"uint256"}],"anonymous":false},{"type":"event","name":"FeesWithdrawn","inputs":[{"name":"serviceId","type":"uint256","indexed":true,"internalType":"uint256"},{"name":"beneficiary","type":"address","indexed":false,"internalType":"address"},{"name":"amount","type":"uint256","indexed":false,"internalType":"uint256"}],"anonymous":false},{"type":"event","name":"FulfillableRegistryUpdated","inputs":[{"name":"fulfillableRegistry","type":"address","indexed":true,"internalType":"address"}],"anonymous":false},{"type":"event","name":"Initialized","inputs":[{"name":"version","type":"uint64","indexed":false,"internalType":"uint64"}],"anonymous":false},{"type":"event","name":"ManagerUpdated","inputs":[{"name":"manager","type":"address","indexed":true,"internalType":"address"}],"anonymous":false},{"type":"event","name":"OwnershipTransferred","inputs":[{"name":"previousOwner","type":"address","indexed":true,"internalType":"address"},{"name":"newOwner","type":"address","indexed":true,"internalType":"address"}],"anonymous":false},{"type":"event","name":"RefundAuthorized","inputs":[{"name":"payee","type":"address","indexed":true,"internalType":"address"},{"name":"weiAmount","type":"uint256","indexed":false,"internalType":"uint256"}],"anonymous":false},{"type":"event","name":"RefundWithdrawn","inputs":[{"name":"payee","type":"address","indexed":true,"internalType":"address"},{"name":"weiAmount","type":"uint256","indexed":false,"internalType":"uint256"}],"anonymous":false},{"type":"event","name":"RouterUpdated","inputs":[{"name":"router","type":"address","indexed":true,"internalType":"address"}],"anonymous":false},{"type":"event","name":"Upgraded","inputs":[{"name":"implementation","type":"address","indexed":true,"internalType":"address"}],"anonymous":false},{"type":"error","name":"AddressEmptyCode","inputs":[{"name":"target","type":"address","internalType":"address"}]},{"type":"error","name":"AddressInsufficientBalance","inputs":[{"name":"account","type":"address","internalType":"address"}]},{"type":"error","name":"ERC1967InvalidImplementation","inputs":[{"name":"implementation","type":"address","internalType":"address"}]},{"type":"error","name":"ERC1967NonPayable","inputs":[]},{"type":"error","name":"FailedInnerCall","inputs":[]},{"type":"error","name":"FulfillmentAlreadyRegistered","inputs":[]},{"type":"error","name":"FulfillmentRecordDoesNotExist","inputs":[]},{"type":"error","name":"InvalidAddress","inputs":[{"name":"address_","type":"address","internalType":"address"}]},{"type":"error","name":"InvalidInitialization","inputs":[]},{"type":"error","name":"InvalidManager","inputs":[{"name":"manager","type":"address","internalType":"address"}]},{"type":"error","name":"InvalidRouter","inputs":[{"name":"router_","type":"address","internalType":"address"}]},{"type":"error","name":"NoBalanceToRelease","inputs":[]},{"type":"error","name":"NoFeesToWithdraw","inputs":[]},{"type":"error","name":"NoRefunds","inputs":[{"name":"refundee","type":"address","internalType":"address"},{"name":"serviceID","type":"uint256","internalType":"uint256"}]},{"type":"error","name":"NotInitializing","inputs":[]},{"type":"error","name":"Overflow","inputs":[{"name":"reason","type":"uint8","internalType":"uint8"}]},{"type":"error","name":"OwnableInvalidOwner","inputs":[{"name":"owner","type":"address","internalType":"address"}]},{"type":"error","name":"OwnableUnauthorizedAccount","inputs":[{"name":"account","type":"address","internalType":"address"}]},{"type":"error","name":"ReentrancyGuardReentrantCall","inputs":[]},{"type":"error","name":"RefundsTooBig","inputs":[]},{"type":"error","name":"UUPSUnauthorizedCallContext","inputs":[]},{"type":"error","name":"UUPSUnsupportedProxiableUUID","inputs":[{"name":"slot","type":"bytes32","internalType":"bytes32"}]},{"type":"error","name":"UnsupportedStatus","inputs":[{"name":"status","type":"uint8","internalType":"enum FulFillmentResultState"}]}],"bytecode":{"object":"0x60a060405230608052348015610013575f5ffd5b5061001c610021565b6100d3565b7ff0c57e16840df040f15088dc2f81fe391c3923bec73e23a9662efc9c229c6a00805468010000000000000000900460ff16156100715760405163f92ee8a960e01b815260040160405180910390fd5b80546001600160401b03908116146100d05780546001600160401b0319166001600160401b0390811782556040519081527fc7f505b2f371ae2175ee4913f4499e1f2633a7b5936321eed1cdaeb6115181d29060200160405180910390a15b50565b6080516130116100f95f395f8181611d1601528181611d3f0152611f5b01526130115ff3fe6080604052600436106101a4575f3560e01c8063b4b9bb7c116100e7578063dbc85c5a11610087578063e5b7e2b411610062578063e5b7e2b4146105b3578063edae876f146105df578063f0329f6b1461060b578063f2fde38b14610637575f5ffd5b8063dbc85c5a14610533578063e428c80214610552578063e53025ed14610588575f5ffd5b8063c4d66de8116100c2578063c4d66de81461048a578063cebae810146104a9578063d0ebdbe7146104c8578063d4b59fed146104e7575f5ffd5b8063b4b9bb7c1461042d578063b7aeb6ef1461044c578063c0d786551461046b575f5ffd5b8063596e250d11610152578063857e57f61161012d578063857e57f6146103395780638da5cb5b14610364578063ad3cb1cc146103ad578063ae4d49ba14610402575f5ffd5b8063596e250d146102dc5780636928c27114610312578063715018a614610325575f5ffd5b80634248d5b8116101825780634248d5b8146102845780634f1ef286146102b357806352d1902d146102c8575f5ffd5b80630b28a076146101a85780630c4393b9146102075780632c16cd8a14610258575b5f5ffd5b3480156101b3575f5ffd5b506101f46101c236600461278f565b5f908152600b6020908152604080832073ffffffffffffffffffffffffffffffffffffffff9094168352929052205490565b6040519081526020015b60405180910390f35b348015610212575f5ffd5b506006546102339073ffffffffffffffffffffffffffffffffffffffff1681565b60405173ffffffffffffffffffffffffffffffffffffffff90911681526020016101fe565b348015610263575f5ffd5b506102776102723660046127b9565b610656565b6040516101fe9190612882565b34801561028f575f5ffd5b506102a361029e3660046129bc565b6108d7565b60405190151581526020016101fe565b6102c66102c1366004612ad5565b610a2d565b005b3480156102d3575f5ffd5b506101f4610a4c565b3480156102e7575f5ffd5b506101f46102f63660046129bc565b600b60209081525f928352604080842090915290825290205481565b6102c6610320366004612b53565b610a7a565b348015610330575f5ffd5b506102c6610eca565b348015610344575f5ffd5b506101f46103533660046127b9565b5f9081526009602052604090205490565b34801561036f575f5ffd5b507f9016d09d72d40fdae2fd8ceac6b6234c7706214fd39c1cd1e609a0528c1993005473ffffffffffffffffffffffffffffffffffffffff16610233565b3480156103b8575f5ffd5b506103f56040518060400160405280600581526020017f352e302e3000000000000000000000000000000000000000000000000000000081525081565b6040516101fe9190612bf9565b34801561040d575f5ffd5b506101f461041c3660046127b9565b60086020525f908152604090205481565b348015610438575f5ffd5b506102a3610447366004612c0b565b610edd565b348015610457575f5ffd5b506102c66104663660046127b9565b611355565b348015610476575f5ffd5b506102c6610485366004612cd1565b611547565b348015610495575f5ffd5b506102c66104a4366004612cd1565b611622565b3480156104b4575f5ffd5b506102c66104c33660046127b9565b6117b4565b3480156104d3575f5ffd5b506102c66104e2366004612cd1565b61194b565b3480156104f2575f5ffd5b506101f461050136600461278f565b5f908152600a6020908152604080832073ffffffffffffffffffffffffffffffffffffffff9094168352929052205490565b34801561053e575f5ffd5b506102c661054d366004612cd1565b611a26565b34801561055d575f5ffd5b506101f461056c3660046129bc565b600a60209081525f928352604080842090915290825290205481565b348015610593575f5ffd5b506101f46105a23660046127b9565b60096020525f908152604090205481565b3480156105be575f5ffd5b506105d26105cd366004612cd1565b611b0d565b6040516101fe9190612cec565b3480156105ea575f5ffd5b506005546102339073ffffffffffffffffffffffffffffffffffffffff1681565b348015610616575f5ffd5b506004546102339073ffffffffffffffffffffffffffffffffffffffff1681565b348015610642575f5ffd5b506102c6610651366004612cd1565b611b83565b61065e6126e0565b5f82815260016020818152604092839020835161016081019094528054845291820180549184019161068f90612d2e565b80601f01602080910402602001604051908101604052809291908181526020018280546106bb90612d2e565b80156107065780601f106106dd57610100808354040283529160200191610706565b820191905f5260205f20905b8154815290600101906020018083116106e957829003601f168201915b5050509183525050600282015473ffffffffffffffffffffffffffffffffffffffff16602082015260038201805460409092019161074390612d2e565b80601f016020809104026020016040519081016040528092919081815260200182805461076f90612d2e565b80156107ba5780601f10610791576101008083540402835291602001916107ba565b820191905f5260205f20905b81548152906001019060200180831161079d57829003601f168201915b5050509183525050600482015473ffffffffffffffffffffffffffffffffffffffff166020820152600582015460408201526006820154606082015260078201546080820152600882015460a082015260098201805460c09092019161081f90612d2e565b80601f016020809104026020016040519081016040528092919081815260200182805461084b90612d2e565b80156108965780601f1061086d57610100808354040283529160200191610896565b820191905f5260205f20905b81548152906001019060200180831161087957829003601f168201915b5050509183525050600a82015460209091019060ff1660028111156108bd576108bd61281c565b60028111156108ce576108ce61281c565b90525092915050565b5f6108e0611be3565b60055473ffffffffffffffffffffffffffffffffffffffff163314610938576040517fd7f733340000000000000000000000000000000000000000000000000000000081523360048201526024015b60405180910390fd5b5f838152600b6020908152604080832073ffffffffffffffffffffffffffffffffffffffff86168452909152812054908190036109c0576040517fd89b7b0400000000000000000000000000000000000000000000000000000000815273ffffffffffffffffffffffffffffffffffffffff841660048201526024810185905260440161092f565b5f848152600b6020908152604080832073ffffffffffffffffffffffffffffffffffffffff871684529091528120556109f98382611c64565b6001915050610a2760017f9b779b17422d0df92223018b32b4d1fa46e071723d6817e2486d003becc55f0055565b92915050565b610a35611cfe565b610a3e82611e02565b610a488282611e0a565b5050565b5f610a55611f43565b507f360894a13ba1a3210667c828492db98dca3e2076cc3735a920a3ca505d382bbc90565b610a82611be3565b60055473ffffffffffffffffffffffffffffffffffffffff163314610ad5576040517fd7f7333400000000000000000000000000000000000000000000000000000000815233600482015260240161092f565b6007546040517fef0e239b000000000000000000000000000000000000000000000000000000008152600481018590525f9173ffffffffffffffffffffffffffffffffffffffff169063ef0e239b90602401608060405180830381865afa158015610b42573d5f5f3e3d5ffd5b505050506040513d601f19601f82011682018060405250810190610b669190612d7f565b5083515f868152600a6020908152604080832073ffffffffffffffffffffffffffffffffffffffff90941683529290529081205491925034919080610bab8484611fb2565b9150915081610be9576040517fc0d7d3cc0000000000000000000000000000000000000000000000000000000081526006600482015260240161092f565b86515f898152600a6020908152604080832073ffffffffffffffffffffffffffffffffffffffff94851684528252808320859055805161016081018252835481526060808d0151828501528a83015186168284015282518085018452858152908201528b519094166080850152818b015160a085015260c084018a9052808b015160e085015242610100850152805191820190528181526101208301529061014081016002815250905060015f5f828254610ca49190612e06565b92505081905550600160035f828254610cbd9190612e06565b909155505080515f9081526001602081815260409092208351815591830151839291820190610cec9082612e89565b5060408201516002820180547fffffffffffffffffffffffff00000000000000000000000000000000000000001673ffffffffffffffffffffffffffffffffffffffff90921691909117905560608201516003820190610d4c9082612e89565b5060808201516004820180547fffffffffffffffffffffffff00000000000000000000000000000000000000001673ffffffffffffffffffffffffffffffffffffffff90921691909117905560a0820151600582015560c0820151600682015560e0820151600782015561010082015160088201556101208201516009820190610dd69082612e89565b50610140820151600a820180547fffffffffffffffffffffffffffffffffffffffffffffffffffffffffffffff00166001836002811115610e1957610e1961281c565b02179055505050608081015173ffffffffffffffffffffffffffffffffffffffff165f908152600260209081526040808320845181546001810183559185529290932090920155517f600d16f62674ed495bf7267a98a253325b6f464cbc486bf1b9a66e101551e4e590610e8e908390612882565b60405180910390a1505050505050610ec560017f9b779b17422d0df92223018b32b4d1fa46e071723d6817e2486d003becc55f0055565b505050565b610ed2611fd9565b610edb5f612067565b565b5f610ee6611be3565b60045473ffffffffffffffffffffffffffffffffffffffff163314610f39576040517f294f8a1700000000000000000000000000000000000000000000000000000000815233600482015260240161092f565b81515f908152600160205260408120549003610f81576040517f54446f7100000000000000000000000000000000000000000000000000000000815260040160405180910390fd5b600282515f908152600160205260409020600a015460ff166002811115610faa57610faa61281c565b14610fe1576040517fcdc7646400000000000000000000000000000000000000000000000000000000815260040160405180910390fd5b81515f90815260016020818152604080842060040154878552600a835281852073ffffffffffffffffffffffffffffffffffffffff9091168086529083528185205487518652939092528084206005015486518552908420600601549193909161104c908390611fb2565b91505f9050866060015160028111156110675761106761281c565b036110d6576110778785836120fc565b606086015186515f908152600160208190526040909120600a01805490917fffffffffffffffffffffffffffffffffffffffffffffffffffffffffffffff00909116908360028111156110cc576110cc61281c565b0217905550611324565b6001866060015160028111156110ee576110ee61281c565b1461112b5785606001516040517fab8cc2a800000000000000000000000000000000000000000000000000000000815260040161092f9190612fa0565b85515f908152600160209081526040808320600601548a8452600990925282205482916111589190611fb2565b9150915081611196576040517fc0d7d3cc0000000000000000000000000000000000000000000000000000000081526003600482015260240161092f565b5f898152600960209081526040808320849055600890915281205481906111bd9087611fb2565b91509150816111fa576040517fc0d7d3cc00000000000000000000000000000000000000000000000000000000815260048181015260240161092f565b5f806112068988612293565b9150915081611244576040517fc0d7d3cc0000000000000000000000000000000000000000000000000000000081526005600482015260240161092f565b5f8d8152600860209081526040808320869055600a825280832073ffffffffffffffffffffffffffffffffffffffff8e16845282528083208490558e8101518f51845260019092529091206009019061129d9082612e89565b5060608c01518c515f908152600160208190526040909120600a01805490917fffffffffffffffffffffffffffffffffffffffffffffffffffffffffffffff00909116908360028111156112f3576112f361281c565b02179055506020808d01518d515f908152600190925260409091206003019061131c9082612e89565b505050505050505b6001945050505050610a2760017f9b779b17422d0df92223018b32b4d1fa46e071723d6817e2486d003becc55f0055565b61135d611be3565b60045473ffffffffffffffffffffffffffffffffffffffff1633146113b0576040517f294f8a1700000000000000000000000000000000000000000000000000000000815233600482015260240161092f565b6007546040517fef0e239b000000000000000000000000000000000000000000000000000000008152600481018390525f9173ffffffffffffffffffffffffffffffffffffffff169063ef0e239b90602401608060405180830381865afa15801561141d573d5f5f3e3d5ffd5b505050506040513d601f19601f820116820180604052508101906114419190612d7f565b505f8381526009602052604081205491925081900361148c576040517f6806da6800000000000000000000000000000000000000000000000000000000815260040160405180910390fd5b5f8381526009602090815260408220919091558201516114c29073ffffffffffffffffffffffffffffffffffffffff16826122b3565b6020808301516040805173ffffffffffffffffffffffffffffffffffffffff909216825291810183905284917f538e1189c5c6413ddd9194fe5e947ef693ea737bd368a9e0aca4c286854c9bd8910160405180910390a2505061154460017f9b779b17422d0df92223018b32b4d1fa46e071723d6817e2486d003becc55f0055565b50565b61154f611fd9565b73ffffffffffffffffffffffffffffffffffffffff81166115b4576040517f8e4c8aa600000000000000000000000000000000000000000000000000000000815273ffffffffffffffffffffffffffffffffffffffff8216600482015260240161092f565b600580547fffffffffffffffffffffffff00000000000000000000000000000000000000001673ffffffffffffffffffffffffffffffffffffffff83169081179091556040517f7aed1d3e8155a07ccf395e44ea3109a0e2d6c9b29bbbe9f142d9790596f4dc80905f90a250565b7ff0c57e16840df040f15088dc2f81fe391c3923bec73e23a9662efc9c229c6a00805468010000000000000000810460ff16159067ffffffffffffffff165f8115801561166c5750825b90505f8267ffffffffffffffff1660011480156116885750303b155b905081158015611696575080155b156116cd576040517ff92ee8a900000000000000000000000000000000000000000000000000000000815260040160405180910390fd5b84547fffffffffffffffffffffffffffffffffffffffffffffffff0000000000000000166001178555831561172e5784547fffffffffffffffffffffffffffffffffffffffffffffff00ffffffffffffffff16680100000000000000001785555b611736612385565b61173e61238d565b6117478661239d565b60015f5583156117ac5784547fffffffffffffffffffffffffffffffffffffffffffffff00ffffffffffffffff168555604051600181527fc7f505b2f371ae2175ee4913f4499e1f2633a7b5936321eed1cdaeb6115181d29060200160405180910390a15b505050505050565b6117bc611be3565b60045473ffffffffffffffffffffffffffffffffffffffff16331461180f576040517f294f8a1700000000000000000000000000000000000000000000000000000000815233600482015260240161092f565b6007546040517fef0e239b000000000000000000000000000000000000000000000000000000008152600481018390525f9173ffffffffffffffffffffffffffffffffffffffff169063ef0e239b90602401608060405180830381865afa15801561187c573d5f5f3e3d5ffd5b505050506040513d601f19601f820116820180604052508101906118a09190612d7f565b505f83815260086020526040812054919250036118e9576040517f6e7e9ea500000000000000000000000000000000000000000000000000000000815260040160405180910390fd5b5f828152600860209081526040822080549290558201516119209073ffffffffffffffffffffffffffffffffffffffff16826122b3565b505061154460017f9b779b17422d0df92223018b32b4d1fa46e071723d6817e2486d003becc55f0055565b611953611fd9565b73ffffffffffffffffffffffffffffffffffffffff81166119b8576040517f8e4c8aa600000000000000000000000000000000000000000000000000000000815273ffffffffffffffffffffffffffffffffffffffff8216600482015260240161092f565b600480547fffffffffffffffffffffffff00000000000000000000000000000000000000001673ffffffffffffffffffffffffffffffffffffffff83169081179091556040517f2c1c11af44aa5608f1dca38c00275c30ea091e02417d36e70e9a1538689c433d905f90a250565b611a2e611fd9565b73ffffffffffffffffffffffffffffffffffffffff8116611a93576040517f8e4c8aa600000000000000000000000000000000000000000000000000000000815273ffffffffffffffffffffffffffffffffffffffff8216600482015260240161092f565b6006805473ffffffffffffffffffffffffffffffffffffffff83167fffffffffffffffffffffffff0000000000000000000000000000000000000000918216811790925560078054909116821790556040517f12fd82a8fae6400d0456d521504e56c94dd90726268fd158b0584ec682e1b5b1905f90a250565b73ffffffffffffffffffffffffffffffffffffffff81165f90815260026020908152604091829020805483518184028101840190945280845260609392830182828015611b7757602002820191905f5260205f20905b815481526020019060010190808311611b63575b50505050509050919050565b611b8b611fd9565b73ffffffffffffffffffffffffffffffffffffffff8116611bda576040517f1e4fbdf70000000000000000000000000000000000000000000000000000000081525f600482015260240161092f565b61154481612067565b7f9b779b17422d0df92223018b32b4d1fa46e071723d6817e2486d003becc55f0080547ffffffffffffffffffffffffffffffffffffffffffffffffffffffffffffffffe01611c5e576040517f3ee5aeb500000000000000000000000000000000000000000000000000000000815260040160405180910390fd5b60029055565b611c8473ffffffffffffffffffffffffffffffffffffffff8316826122b3565b8173ffffffffffffffffffffffffffffffffffffffff167f3d97f39b86d061200a7834082f5926e58ec10fd85a9d6930f497729d5e6cc35c82604051611ccc91815260200190565b60405180910390a25050565b60017f9b779b17422d0df92223018b32b4d1fa46e071723d6817e2486d003becc55f0055565b3073ffffffffffffffffffffffffffffffffffffffff7f0000000000000000000000000000000000000000000000000000000000000000161480611dcb57507f000000000000000000000000000000000000000000000000000000000000000073ffffffffffffffffffffffffffffffffffffffff16611db27f360894a13ba1a3210667c828492db98dca3e2076cc3735a920a3ca505d382bbc5473ffffffffffffffffffffffffffffffffffffffff1690565b73ffffffffffffffffffffffffffffffffffffffff1614155b15610edb576040517fe07c8dba00000000000000000000000000000000000000000000000000000000815260040160405180910390fd5b611544611fd9565b8173ffffffffffffffffffffffffffffffffffffffff166352d1902d6040518163ffffffff1660e01b8152600401602060405180830381865afa925050508015611e8f575060408051601f3d9081017fffffffffffffffffffffffffffffffffffffffffffffffffffffffffffffffe0168201909252611e8c91810190612fae565b60015b611edd576040517f4c9c8ce300000000000000000000000000000000000000000000000000000000815273ffffffffffffffffffffffffffffffffffffffff8316600482015260240161092f565b7f360894a13ba1a3210667c828492db98dca3e2076cc3735a920a3ca505d382bbc8114611f39576040517faa1d49a40000000000000000000000000000000000000000000000000000000081526004810182905260240161092f565b610ec583836123ae565b3073ffffffffffffffffffffffffffffffffffffffff7f00000000000000000000000000000000000000000000000000000000000000001614610edb576040517fe07c8dba00000000000000000000000000000000000000000000000000000000815260040160405180910390fd5b5f8083830184811015611fcb575f5f9250925050611fd2565b6001925090505b9250929050565b336120187f9016d09d72d40fdae2fd8ceac6b6234c7706214fd39c1cd1e609a0528c1993005473ffffffffffffffffffffffffffffffffffffffff1690565b73ffffffffffffffffffffffffffffffffffffffff1614610edb576040517f118cdaa700000000000000000000000000000000000000000000000000000000815233600482015260240161092f565b7f9016d09d72d40fdae2fd8ceac6b6234c7706214fd39c1cd1e609a0528c19930080547fffffffffffffffffffffffff0000000000000000000000000000000000000000811673ffffffffffffffffffffffffffffffffffffffff848116918217845560405192169182907f8be0079c531659141344cd1fd0a4f28419497f9722a3daafe3b4186f6b6457e0905f90a3505050565b5f838152600b6020908152604080832073ffffffffffffffffffffffffffffffffffffffff861680855290835281842054878552600a8452828520918552925282205490918061214c8486611fb2565b915091508161218a576040517fc0d7d3cc0000000000000000000000000000000000000000000000000000000081526001600482015260240161092f565b80808410156121c5576040517f1eb8e4e900000000000000000000000000000000000000000000000000000000815260040160405180910390fd5b5f806121d18689612293565b915091508161220f576040517fc0d7d3cc0000000000000000000000000000000000000000000000000000000081526002600482015260240161092f565b5f8a8152600a6020908152604080832073ffffffffffffffffffffffffffffffffffffffff8d168085529083528184208590558d8452600b8352818420818552835292819020869055518a81527f7fd36617a06b55977ffa06f8dc94b5ec0650c2b7b353fa22c7d0f211284dc749910160405180910390a250505050505050505050565b5f5f838311156122a757505f905080611fd2565b50600193919092039150565b804710156122ef576040517fcd78605900000000000000000000000000000000000000000000000000000000815230600482015260240161092f565b5f8273ffffffffffffffffffffffffffffffffffffffff16826040515f6040518083038185875af1925050503d805f8114612345576040519150601f19603f3d011682016040523d82523d5f602084013e61234a565b606091505b5050905080610ec5576040517f1425ea4200000000000000000000000000000000000000000000000000000000815260040160405180910390fd5b610edb612410565b612395612410565b610edb612477565b6123a5612410565b6115448161247f565b6123b782612487565b60405173ffffffffffffffffffffffffffffffffffffffff8316907fbc7cd75a20ee27fd9adebab32041f755214dbc6bffa90cc0225b39da2e5c2d3b905f90a280511561240857610ec58282612555565b610a486125d4565b7ff0c57e16840df040f15088dc2f81fe391c3923bec73e23a9662efc9c229c6a005468010000000000000000900460ff16610edb576040517fd7e6bcf800000000000000000000000000000000000000000000000000000000815260040160405180910390fd5b611cd8612410565b611b8b612410565b8073ffffffffffffffffffffffffffffffffffffffff163b5f036124ef576040517f4c9c8ce300000000000000000000000000000000000000000000000000000000815273ffffffffffffffffffffffffffffffffffffffff8216600482015260240161092f565b7f360894a13ba1a3210667c828492db98dca3e2076cc3735a920a3ca505d382bbc80547fffffffffffffffffffffffff00000000000000000000000000000000000000001673ffffffffffffffffffffffffffffffffffffffff92909216919091179055565b60605f5f8473ffffffffffffffffffffffffffffffffffffffff168460405161257e9190612fc5565b5f60405180830381855af49150503d805f81146125b6576040519150601f19603f3d011682016040523d82523d5f602084013e6125bb565b606091505b50915091506125cb85838361260c565b95945050505050565b3415610edb576040517fb398979f00000000000000000000000000000000000000000000000000000000815260040160405180910390fd5b6060826126215761261c8261269e565b612697565b8151158015612645575073ffffffffffffffffffffffffffffffffffffffff84163b155b15612694576040517f9996b31500000000000000000000000000000000000000000000000000000000815273ffffffffffffffffffffffffffffffffffffffff8516600482015260240161092f565b50805b9392505050565b8051156126ae5780518082602001fd5b6040517f1425ea4200000000000000000000000000000000000000000000000000000000815260040160405180910390fd5b6040518061016001604052805f8152602001606081526020015f73ffffffffffffffffffffffffffffffffffffffff168152602001606081526020015f73ffffffffffffffffffffffffffffffffffffffff1681526020015f81526020015f81526020015f81526020015f8152602001606081526020015f60028111156127695761276961281c565b905290565b73ffffffffffffffffffffffffffffffffffffffff81168114611544575f5ffd5b5f5f604083850312156127a0575f5ffd5b82356127ab8161276e565b946020939093013593505050565b5f602082840312156127c9575f5ffd5b5035919050565b5f81518084528060208401602086015e5f6020828601015260207fffffffffffffffffffffffffffffffffffffffffffffffffffffffffffffffe0601f83011685010191505092915050565b7f4e487b71000000000000000000000000000000000000000000000000000000005f52602160045260245ffd5b6003811061287e577f4e487b71000000000000000000000000000000000000000000000000000000005f52602160045260245ffd5b9052565b60208152815160208201525f602083015161016060408401526128a96101808401826127d0565b905060408401516128d2606085018273ffffffffffffffffffffffffffffffffffffffff169052565b5060608401517fffffffffffffffffffffffffffffffffffffffffffffffffffffffffffffffe084830301608085015261290c82826127d0565b915050608084015161293660a085018273ffffffffffffffffffffffffffffffffffffffff169052565b5060a084015160c084015260c084015160e084015260e08401516101008401526101008401516101208401526101208401517fffffffffffffffffffffffffffffffffffffffffffffffffffffffffffffffe08483030161014085015261299d82826127d0565b9150506101408401516129b4610160850182612849565b509392505050565b5f5f604083850312156129cd575f5ffd5b8235915060208301356129df8161276e565b809150509250929050565b7f4e487b71000000000000000000000000000000000000000000000000000000005f52604160045260245ffd5b6040516080810167ffffffffffffffff81118282101715612a3a57612a3a6129ea565b60405290565b5f5f67ffffffffffffffff841115612a5a57612a5a6129ea565b506040517fffffffffffffffffffffffffffffffffffffffffffffffffffffffffffffffe0601f85018116603f0116810181811067ffffffffffffffff82111715612aa757612aa76129ea565b604052838152905080828401851015612abe575f5ffd5b838360208301375f60208583010152509392505050565b5f5f60408385031215612ae6575f5ffd5b8235612af18161276e565b9150602083013567ffffffffffffffff811115612b0c575f5ffd5b8301601f81018513612b1c575f5ffd5b612b2b85823560208401612a40565b9150509250929050565b5f82601f830112612b44575f5ffd5b61269783833560208501612a40565b5f5f5f60608486031215612b65575f5ffd5b83359250602084013567ffffffffffffffff811115612b82575f5ffd5b840160808187031215612b93575f5ffd5b612b9b612a17565b8135612ba68161276e565b81526020828101359082015260408083013590820152606082013567ffffffffffffffff811115612bd5575f5ffd5b612be188828501612b35565b60608301525093969395505050506040919091013590565b602081525f61269760208301846127d0565b5f5f60408385031215612c1c575f5ffd5b82359150602083013567ffffffffffffffff811115612c39575f5ffd5b830160808186031215612c4a575f5ffd5b612c52612a17565b81358152602082013567ffffffffffffffff811115612c6f575f5ffd5b612c7b87828501612b35565b602083015250604082013567ffffffffffffffff811115612c9a575f5ffd5b612ca687828501612b35565b6040830152506060820135915060038210612cbf575f5ffd5b81606082015280925050509250929050565b5f60208284031215612ce1575f5ffd5b81356126978161276e565b602080825282518282018190525f918401906040840190835b81811015612d23578351835260209384019390920191600101612d05565b509095945050505050565b600181811c90821680612d4257607f821691505b602082108103612d79577f4e487b71000000000000000000000000000000000000000000000000000000005f52602260045260245ffd5b50919050565b5f5f8284036080811215612d91575f5ffd5b6060811215612d9e575f5ffd5b506040516060810167ffffffffffffffff81118282101715612dc257612dc26129ea565b604052835181526020840151612dd78161276e565b60208201526040840151612dea8161276e565b6040820152606084015190925061ffff811681146129df575f5ffd5b80820180821115610a27577f4e487b71000000000000000000000000000000000000000000000000000000005f52601160045260245ffd5b601f821115610ec557805f5260205f20601f840160051c81016020851015612e635750805b601f840160051c820191505b81811015612e82575f8155600101612e6f565b5050505050565b815167ffffffffffffffff811115612ea357612ea36129ea565b612eb781612eb18454612d2e565b84612e3e565b6020601f821160018114612f08575f8315612ed25750848201515b7fffffffffffffffffffffffffffffffffffffffffffffffffffffffffffffffff600385901b1c1916600184901b178455612e82565b5f848152602081207fffffffffffffffffffffffffffffffffffffffffffffffffffffffffffffffe08516915b82811015612f555787850151825560209485019460019092019101612f35565b5084821015612f9157868401517fffffffffffffffffffffffffffffffffffffffffffffffffffffffffffffffff600387901b60f8161c191681555b50505050600190811b01905550565b60208101610a278284612849565b5f60208284031215612fbe575f5ffd5b5051919050565b5f82518060208501845e5f92019182525091905056fea2646970667358221220f0f875d382dbe184c3df4d0e92c9bcad89425b40cac00648c10d20c58a11cc1364736f6c634300081c0033","linkReferences":{}},"methodIdentifiers":{"UPGRADE_INTERFACE_VERSION()":"ad3cb1cc","_accumulatedFees(uint256)":"e53025ed","_authorized_refunds(uint256,address)":"596e250d","_deposits(uint256,address)":"e428c802","_fulfillableRegistry()":"0c4393b9","_manager()":"f0329f6b","_releaseablePool(uint256)":"ae4d49ba","_router()":"edae876f","beneficiaryWithdraw(uint256)":"cebae810","deposit(uint256,(address,uint256,uint256,string),uint256)":"6928c271","getDepositsFor(address,uint256)":"d4b59fed","getNativeFeesFor(uint256)":"857e57f6","getRefundsFor(address,uint256)":"0b28a076","initialize(address)":"c4d66de8","owner()":"8da5cb5b","proxiableUUID()":"52d1902d","record(uint256)":"2c16cd8a","recordsOf(address)":"e5b7e2b4","registerFulfillment(uint256,(uint256,string,string,uint8))":"b4b9bb7c","renounceOwnership()":"715018a6","setFulfillableRegistry(address)":"dbc85c5a","setManager(address)":"d0ebdbe7","setRouter(address)":"c0d78655","transferOwnership(address)":"f2fde38b","upgradeToAndCall(address,bytes)":"4f1ef286","withdrawAccumulatedFees(uint256)":"b7aeb6ef","withdrawRefund(uint256,address)":"4248d5b8"},"id":1}