{"abi":[{"type":"constructor","inputs":[],"stateMutability":"nonpayable"},{"type":"function","name":"UPGRADE_INTERFACE_VERSION","inputs":[],"outputs":[{"name":"","type":"string","internalType":"string"}],"stateMutability":"view"},{"type":"function","name":"_swapFeeBasisPoints","inputs":[{"name":"","type":"address","internalType":"address"}],"outputs":[{"name":"","type":"uint16","internalType":"uint16"}],"stateMutability":"view"},{"type":"function","name":"addToken","inputs":[{"name":"token","type":"address","internalType":"address"},{"name":"swapFeeBasisPoints","type":"uint16","internalType":"uint16"}],"outputs":[],"stateMutability":"nonpayable"},{"type":"function","name":"initialize","inputs":[{"name":"initialOwner","type":"address","internalType":"address"}],"outputs":[],"stateMutability":"nonpayable"},{"type":"function","name":"isTokenWhitelisted","inputs":[{"name":"token","type":"address","internalType":"address"}],"outputs":[{"name":"","type":"bool","internalType":"bool"}],"stateMutability":"view"},{"type":"function","name":"owner","inputs":[],"outputs":[{"name":"","type":"address","internalType":"address"}],"stateMutability":"view"},{"type":"function","name":"proxiableUUID","inputs":[],"outputs":[{"name":"","type":"bytes32","internalType":"bytes32"}],"stateMutability":"view"},{"type":"function","name":"removeToken","inputs":[{"name":"token","type":"address","internalType":"address"}],"outputs":[],"stateMutability":"nonpayable"},{"type":"function","name":"renounceOwnership","inputs":[],"outputs":[],"stateMutability":"nonpayable"},{"type":"function","name":"transferOwnership","inputs":[{"name":"newOwner","type":"address","internalType":"address"}],"outputs":[],"stateMutability":"nonpayable"},{"type":"function","name":"updateSwapFeeBasisPoints","inputs":[{"name":"token","type":"address","internalType":"address"},{"name":"swapFeeBasisPoints","type":"uint16","internalType":"uint16"}],"outputs":[],"stateMutability":"nonpayable"},{"type":"function","name":"upgradeToAndCall","inputs":[{"name":"newImplementation","type":"address","internalType":"address"},{"name":"data","type":"bytes","internalType":"bytes"}],"outputs":[],"stateMutability":"payable"},{"type":"event","name":"Initialized","inputs":[{"name":"version","type":"uint64","indexed":false,"internalType":"uint64"}],"anonymous":false},{"type":"event","name":"OwnershipTransferred","inputs":[{"name":"previousOwner","type":"address","indexed":true,"internalType":"address"},{"name":"newOwner","type":"address","indexed":true,"internalType":"address"}],"anonymous":false},{"type":"event","name":"SwapFeeBasisPointsUpdated","inputs":[{"name":"token","type":"address","indexed":true,"internalType":"address"},{"name":"swapFeeBasisPoints","type":"uint16","indexed":false,"internalType":"uint16"}],"anonymous":false},{"type":"event","name":"TokenAdded","inputs":[{"name":"token","type":"address","indexed":true,"internalType":"address"},{"name":"swapFeeBasisPoints","type":"uint16","indexed":false,"internalType":"uint16"}],"anonymous":false},{"type":"event","name":"TokenRemoved","inputs":[{"name":"token","type":"address","indexed":true,"internalType":"address"}],"anonymous":false},{"type":"event","name":"Upgraded","inputs":[{"name":"implementation","type":"address","indexed":true,"internalType":"address"}],"anonymous":false},{"type":"error","name":"AddressEmptyCode","inputs":[{"name":"target","type":"address","internalType":"address"}]},{"type":"error","name":"ERC1967InvalidImplementation","inputs":[{"name":"implementation","type":"address","internalType":"address"}]},{"type":"error","name":"ERC1967NonPayable","inputs":[]},{"type":"error","name":"FailedInnerCall","inputs":[]},{"type":"error","name":"InvalidInitialization","inputs":[]},{"type":"error","name":"InvalidSwapFeeBasisPoints","inputs":[{"name":"swapFeeBasisPoints","type":"uint16","internalType":"uint16"}]},{"type":"error","name":"NotInitializing","inputs":[]},{"type":"error","name":"OwnableInvalidOwner","inputs":[{"name":"owner","type":"address","internalType":"address"}]},{"type":"error","name":"OwnableUnauthorizedAccount","inputs":[{"name":"account","type":"address","internalType":"address"}]},{"type":"error","name":"TokenAlreadyWhitelisted","inputs":[{"name":"token","type":"address","internalType":"address"}]},{"type":"error","name":"TokenNotWhitelisted","inputs":[{"name":"token","type":"address","internalType":"address"}]},{"type":"error","name":"UUPSUnauthorizedCallContext","inputs":[]},{"type":"error","name":"UUPSUnsupportedProxiableUUID","inputs":[{"name":"slot","type":"bytes32","internalType":"bytes32"}]}],"bytecode":{"object":"0x60a06040523060805234801561001457600080fd5b5061001d610022565b6100d4565b7ff0c57e16840df040f15088dc2f81fe391c3923bec73e23a9662efc9c229c6a00805468010000000000000000900460ff16156100725760405163f92ee8a960e01b815260040160405180910390fd5b80546001600160401b03908116146100d15780546001600160401b0319166001600160401b0390811782556040519081527fc7f505b2f371ae2175ee4913f4499e1f2633a7b5936321eed1cdaeb6115181d29060200160405180910390a15b50565b60805161121f6100fd60003960008181610879015281816108a20152610ac3015261121f6000f3fe6080604052600436106100c75760003560e01c8063ad3cb1cc11610074578063c4d66de81161004e578063c4d66de8146102a2578063db415390146102c2578063f2fde38b146102e257600080fd5b8063ad3cb1cc146101d6578063b5af090f1461022c578063ba593d641461028257600080fd5b80635fa7b584116100a55780635fa7b5841461014d578063715018a61461016d5780638da5cb5b1461018257600080fd5b80632b6eaf1a146100cc5780634f1ef2861461011557806352d1902d1461012a575b600080fd5b3480156100d857600080fd5b506100fd6100e7366004610fb0565b60016020526000908152604090205461ffff1681565b60405161ffff90911681526020015b60405180910390f35b610128610123366004610ffa565b610302565b005b34801561013657600080fd5b5061013f610321565b60405190815260200161010c565b34801561015957600080fd5b50610128610168366004610fb0565b610350565b34801561017957600080fd5b50610128610448565b34801561018e57600080fd5b507f9016d09d72d40fdae2fd8ceac6b6234c7706214fd39c1cd1e609a0528c1993005460405173ffffffffffffffffffffffffffffffffffffffff909116815260200161010c565b3480156101e257600080fd5b5061021f6040518060400160405280600581526020017f352e302e3000000000000000000000000000000000000000000000000000000081525081565b60405161010c9190611125565b34801561023857600080fd5b50610272610247366004610fb0565b73ffffffffffffffffffffffffffffffffffffffff1660009081526020819052604090205460ff1690565b604051901515815260200161010c565b34801561028e57600080fd5b5061012861029d366004611176565b61045c565b3480156102ae57600080fd5b506101286102bd366004610fb0565b610540565b3480156102ce57600080fd5b506101286102dd366004611176565b6106c8565b3480156102ee57600080fd5b506101286102fd366004610fb0565b6107fd565b61030a610861565b61031382610965565b61031d828261096d565b5050565b600061032b610aab565b507f360894a13ba1a3210667c828492db98dca3e2076cc3735a920a3ca505d382bbc90565b610358610b1a565b73ffffffffffffffffffffffffffffffffffffffff811660009081526020819052604090205460ff166103d4576040517fea3bff2e00000000000000000000000000000000000000000000000000000000815273ffffffffffffffffffffffffffffffffffffffff821660048201526024015b60405180910390fd5b73ffffffffffffffffffffffffffffffffffffffff811660008181526020819052604080822080547fffffffffffffffffffffffffffffffffffffffffffffffffffffffffffffff00169055517f4c910b69fe65a61f7531b9c5042b2329ca7179c77290aa7e2eb3afa3c8511fd39190a250565b610450610b1a565b61045a6000610ba8565b565b610464610b1a565b6127108161ffff161180610476575060005b156104b3576040517f6549fb6200000000000000000000000000000000000000000000000000000000815261ffff821660048201526024016103cb565b73ffffffffffffffffffffffffffffffffffffffff821660008181526001602090815260409182902080547fffffffffffffffffffffffffffffffffffffffffffffffffffffffffffff00001661ffff861690811790915591519182527f6a786e029c46ac3c92cf35cc6085623298a1e6d641dbaf41ff12ed64709a356291015b60405180910390a25050565b7ff0c57e16840df040f15088dc2f81fe391c3923bec73e23a9662efc9c229c6a00805468010000000000000000810460ff16159067ffffffffffffffff1660008115801561058b5750825b905060008267ffffffffffffffff1660011480156105a85750303b155b9050811580156105b6575080155b156105ed576040517ff92ee8a900000000000000000000000000000000000000000000000000000000815260040160405180910390fd5b84547fffffffffffffffffffffffffffffffffffffffffffffffff0000000000000000166001178555831561064e5784547fffffffffffffffffffffffffffffffffffffffffffffff00ffffffffffffffff16680100000000000000001785555b610656610c3e565b61065f86610c46565b83156106c05784547fffffffffffffffffffffffffffffffffffffffffffffff00ffffffffffffffff168555604051600181527fc7f505b2f371ae2175ee4913f4499e1f2633a7b5936321eed1cdaeb6115181d29060200160405180910390a15b505050505050565b6106d0610b1a565b73ffffffffffffffffffffffffffffffffffffffff821660009081526020819052604090205460ff1615610748576040517f01e2357500000000000000000000000000000000000000000000000000000000815273ffffffffffffffffffffffffffffffffffffffff831660048201526024016103cb565b73ffffffffffffffffffffffffffffffffffffffff8216600081815260208181526040808320805460017fffffffffffffffffffffffffffffffffffffffffffffffffffffffffffffff00909116811790915582529182902080547fffffffffffffffffffffffffffffffffffffffffffffffffffffffffffff00001661ffff861690811790915591519182527f78fc75a90b2d2aeb8c1d0cb138b1c62ac8390fae9e60666d4a7400fa263d47ea9101610534565b610805610b1a565b73ffffffffffffffffffffffffffffffffffffffff8116610855576040517f1e4fbdf7000000000000000000000000000000000000000000000000000000008152600060048201526024016103cb565b61085e81610ba8565b50565b3073ffffffffffffffffffffffffffffffffffffffff7f000000000000000000000000000000000000000000000000000000000000000016148061092e57507f000000000000000000000000000000000000000000000000000000000000000073ffffffffffffffffffffffffffffffffffffffff166109157f360894a13ba1a3210667c828492db98dca3e2076cc3735a920a3ca505d382bbc5473ffffffffffffffffffffffffffffffffffffffff1690565b73ffffffffffffffffffffffffffffffffffffffff1614155b1561045a576040517fe07c8dba00000000000000000000000000000000000000000000000000000000815260040160405180910390fd5b61085e610b1a565b8173ffffffffffffffffffffffffffffffffffffffff166352d1902d6040518163ffffffff1660e01b8152600401602060405180830381865afa9250505080156109f2575060408051601f3d9081017fffffffffffffffffffffffffffffffffffffffffffffffffffffffffffffffe01682019092526109ef918101906111b4565b60015b610a40576040517f4c9c8ce300000000000000000000000000000000000000000000000000000000815273ffffffffffffffffffffffffffffffffffffffff831660048201526024016103cb565b7f360894a13ba1a3210667c828492db98dca3e2076cc3735a920a3ca505d382bbc8114610a9c576040517faa1d49a4000000000000000000000000000000000000000000000000000000008152600481018290526024016103cb565b610aa68383610c57565b505050565b3073ffffffffffffffffffffffffffffffffffffffff7f0000000000000000000000000000000000000000000000000000000000000000161461045a576040517fe07c8dba00000000000000000000000000000000000000000000000000000000815260040160405180910390fd5b33610b597f9016d09d72d40fdae2fd8ceac6b6234c7706214fd39c1cd1e609a0528c1993005473ffffffffffffffffffffffffffffffffffffffff1690565b73ffffffffffffffffffffffffffffffffffffffff161461045a576040517f118cdaa70000000000000000000000000000000000000000000000000000000081523360048201526024016103cb565b7f9016d09d72d40fdae2fd8ceac6b6234c7706214fd39c1cd1e609a0528c19930080547fffffffffffffffffffffffff0000000000000000000000000000000000000000811673ffffffffffffffffffffffffffffffffffffffff848116918217845560405192169182907f8be0079c531659141344cd1fd0a4f28419497f9722a3daafe3b4186f6b6457e090600090a3505050565b61045a610cba565b610c4e610cba565b61085e81610d21565b610c6082610d29565b60405173ffffffffffffffffffffffffffffffffffffffff8316907fbc7cd75a20ee27fd9adebab32041f755214dbc6bffa90cc0225b39da2e5c2d3b90600090a2805115610cb257610aa68282610df8565b61031d610e7b565b7ff0c57e16840df040f15088dc2f81fe391c3923bec73e23a9662efc9c229c6a005468010000000000000000900460ff1661045a576040517fd7e6bcf800000000000000000000000000000000000000000000000000000000815260040160405180910390fd5b610805610cba565b8073ffffffffffffffffffffffffffffffffffffffff163b600003610d92576040517f4c9c8ce300000000000000000000000000000000000000000000000000000000815273ffffffffffffffffffffffffffffffffffffffff821660048201526024016103cb565b7f360894a13ba1a3210667c828492db98dca3e2076cc3735a920a3ca505d382bbc80547fffffffffffffffffffffffff00000000000000000000000000000000000000001673ffffffffffffffffffffffffffffffffffffffff92909216919091179055565b60606000808473ffffffffffffffffffffffffffffffffffffffff1684604051610e2291906111cd565b600060405180830381855af49150503d8060008114610e5d576040519150601f19603f3d011682016040523d82523d6000602084013e610e62565b606091505b5091509150610e72858383610eb3565b95945050505050565b341561045a576040517fb398979f00000000000000000000000000000000000000000000000000000000815260040160405180910390fd5b606082610ec857610ec382610f45565b610f3e565b8151158015610eec575073ffffffffffffffffffffffffffffffffffffffff84163b155b15610f3b576040517f9996b31500000000000000000000000000000000000000000000000000000000815273ffffffffffffffffffffffffffffffffffffffff851660048201526024016103cb565b50805b9392505050565b805115610f555780518082602001fd5b6040517f1425ea4200000000000000000000000000000000000000000000000000000000815260040160405180910390fd5b803573ffffffffffffffffffffffffffffffffffffffff81168114610fab57600080fd5b919050565b600060208284031215610fc257600080fd5b610f3e82610f87565b7f4e487b7100000000000000000000000000000000000000000000000000000000600052604160045260246000fd5b6000806040838503121561100d57600080fd5b61101683610f87565b9150602083013567ffffffffffffffff81111561103257600080fd5b8301601f8101851361104357600080fd5b803567ffffffffffffffff81111561105d5761105d610fcb565b6040517fffffffffffffffffffffffffffffffffffffffffffffffffffffffffffffffe0603f7fffffffffffffffffffffffffffffffffffffffffffffffffffffffffffffffe0601f8501160116810181811067ffffffffffffffff821117156110c9576110c9610fcb565b6040528181528282016020018710156110e157600080fd5b816020840160208301376000602083830101528093505050509250929050565b60005b8381101561111c578181015183820152602001611104565b50506000910152565b6020815260008251806020840152611144816040850160208701611101565b601f017fffffffffffffffffffffffffffffffffffffffffffffffffffffffffffffffe0169190910160400192915050565b6000806040838503121561118957600080fd5b61119283610f87565b9150602083013561ffff811681146111a957600080fd5b809150509250929050565b6000602082840312156111c657600080fd5b5051919050565b600082516111df818460208701611101565b919091019291505056fea2646970667358221220dc5c0d21e2b8d23d87b558b8ae24a36b7f470479554151d7fd61bab59e079ed464736f6c634300081c0033","linkReferences":{}},"methodIdentifiers":{"UPGRADE_INTERFACE_VERSION()":"ad3cb1cc","_swapFeeBasisPoints(address)":"2b6eaf1a","addToken(address,uint16)":"db415390","initialize(address)":"c4d66de8","isTokenWhitelisted(address)":"b5af090f","owner()":"8da5cb5b","proxiableUUID()":"52d1902d","removeToken(address)":"5fa7b584","renounceOwnership()":"715018a6","transferOwnership(address)":"f2fde38b","updateSwapFeeBasisPoints(address,uint16)":"ba593d64","upgradeToAndCall(address,bytes)":"4f1ef286"},"id":19}