{"abi":[{"type":"constructor","inputs":[],"stateMutability":"nonpayable"},{"type":"function","name":"MAX_FULFILLMENT_FEE_BASIS_POINTS","inputs":[],"outputs":[{"name":"","type":"uint16","internalType":"uint16"}],"stateMutability":"view"},{"type":"function","name":"UPGRADE_INTERFACE_VERSION","inputs":[],"outputs":[{"name":"","type":"string","internalType":"string"}],"stateMutability":"view"},{"type":"function","name":"_fulfillerServiceCount","inputs":[{"name":"","type":"address","internalType":"address"}],"outputs":[{"name":"","type":"uint256","internalType":"uint256"}],"stateMutability":"view"},{"type":"function","name":"_fulfillerServices","inputs":[{"name":"","type":"address","internalType":"address"},{"name":"","type":"uint256","internalType":"uint256"}],"outputs":[{"name":"","type":"bool","internalType":"bool"}],"stateMutability":"view"},{"type":"function","name":"_manager","inputs":[],"outputs":[{"name":"","type":"address","internalType":"address"}],"stateMutability":"view"},{"type":"function","name":"_serviceCount","inputs":[],"outputs":[{"name":"","type":"uint256","internalType":"uint256"}],"stateMutability":"view"},{"type":"function","name":"_serviceFulfillmentFeeBasisPoints","inputs":[{"name":"","type":"uint256","internalType":"uint256"}],"outputs":[{"name":"","type":"uint16","internalType":"uint16"}],"stateMutability":"view"},{"type":"function","name":"_serviceRefCount","inputs":[{"name":"","type":"uint256","internalType":"uint256"}],"outputs":[{"name":"","type":"uint256","internalType":"uint256"}],"stateMutability":"view"},{"type":"function","name":"_serviceRefs","inputs":[{"name":"","type":"uint256","internalType":"uint256"},{"name":"","type":"uint256","internalType":"uint256"}],"outputs":[{"name":"","type":"string","internalType":"string"}],"stateMutability":"view"},{"type":"function","name":"_serviceRegistry","inputs":[{"name":"","type":"uint256","internalType":"uint256"}],"outputs":[{"name":"serviceId","type":"uint256","internalType":"uint256"},{"name":"beneficiary","type":"address","internalType":"address payable"},{"name":"fulfiller","type":"address","internalType":"address"}],"stateMutability":"view"},{"type":"function","name":"addFulfiller","inputs":[{"name":"fulfiller","type":"address","internalType":"address"},{"name":"serviceID","type":"uint256","internalType":"uint256"}],"outputs":[],"stateMutability":"nonpayable"},{"type":"function","name":"addService","inputs":[{"name":"serviceId","type":"uint256","internalType":"uint256"},{"name":"service","type":"tuple","internalType":"struct Service","components":[{"name":"serviceId","type":"uint256","internalType":"uint256"},{"name":"beneficiary","type":"address","internalType":"address payable"},{"name":"fulfiller","type":"address","internalType":"address"}]},{"name":"fulfillmentFeeBasisPoints","type":"uint16","internalType":"uint16"}],"outputs":[{"name":"","type":"bool","internalType":"bool"}],"stateMutability":"nonpayable"},{"type":"function","name":"addServiceRef","inputs":[{"name":"serviceId","type":"uint256","internalType":"uint256"},{"name":"ref","type":"string","internalType":"string"}],"outputs":[],"stateMutability":"nonpayable"},{"type":"function","name":"canFulfillerFulfill","inputs":[{"name":"fulfiller","type":"address","internalType":"address"},{"name":"serviceId","type":"uint256","internalType":"uint256"}],"outputs":[{"name":"","type":"bool","internalType":"bool"}],"stateMutability":"view"},{"type":"function","name":"getService","inputs":[{"name":"serviceId","type":"uint256","internalType":"uint256"}],"outputs":[{"name":"","type":"tuple","internalType":"struct Service","components":[{"name":"serviceId","type":"uint256","internalType":"uint256"},{"name":"beneficiary","type":"address","internalType":"address payable"},{"name":"fulfiller","type":"address","internalType":"address"}]},{"name":"","type":"uint16","internalType":"uint16"}],"stateMutability":"view"},{"type":"function","name":"initialize","inputs":[{"name":"initialOwner","type":"address","internalType":"address"}],"outputs":[],"stateMutability":"nonpayable"},{"type":"function","name":"isRefValid","inputs":[{"name":"serviceId","type":"uint256","internalType":"uint256"},{"name":"ref","type":"string","internalType":"string"}],"outputs":[{"name":"","type":"bool","internalType":"bool"}],"stateMutability":"view"},{"type":"function","name":"owner","inputs":[],"outputs":[{"name":"","type":"address","internalType":"address"}],"stateMutability":"view"},{"type":"function","name":"proxiableUUID","inputs":[],"outputs":[{"name":"","type":"bytes32","internalType":"bytes32"}],"stateMutability":"view"},{"type":"function","name":"removeServiceAddress","inputs":[{"name":"serviceId","type":"uint256","internalType":"uint256"}],"outputs":[],"stateMutability":"nonpayable"},{"type":"function","name":"renounceOwnership","inputs":[],"outputs":[],"stateMutability":"nonpayable"},{"type":"function","name":"setManager","inputs":[{"name":"manager_","type":"address","internalType":"address"}],"outputs":[],"stateMutability":"nonpayable"},{"type":"function","name":"transferOwnership","inputs":[{"name":"newOwner","type":"address","internalType":"address"}],"outputs":[],"stateMutability":"nonpayable"},{"type":"function","name":"updateServiceBeneficiary","inputs":[{"name":"serviceId","type":"uint256","internalType":"uint256"},{"name":"newBeneficiary","type":"address","internalType":"address payable"}],"outputs":[],"stateMutability":"nonpayable"},{"type":"function","name":"updateServiceFulfiller","inputs":[{"name":"serviceId","type":"uint256","internalType":"uint256"},{"name":"newFulfiller","type":"address","internalType":"address"}],"outputs":[],"stateMutability":"nonpayable"},{"type":"function","name":"updateServicefeeAmountBasisPoints","inputs":[{"name":"serviceId","type":"uint256","internalType":"uint256"},{"name":"newfeeAmountBasisPoints","type":"uint16","internalType":"uint16"}],"outputs":[],"stateMutability":"nonpayable"},{"type":"function","name":"upgradeToAndCall","inputs":[{"name":"newImplementation","type":"address","internalType":"address"},{"name":"data","type":"bytes","internalType":"bytes"}],"outputs":[],"stateMutability":"payable"},{"type":"event","name":"FulfillerAdded","inputs":[{"name":"fulfiller","type":"address","indexed":false,"internalType":"address"},{"name":"serviceID","type":"uint256","indexed":false,"internalType":"uint256"}],"anonymous":false},{"type":"event","name":"Initialized","inputs":[{"name":"version","type":"uint64","indexed":false,"internalType":"uint64"}],"anonymous":false},{"type":"event","name":"ManagerUpdated","inputs":[{"name":"manager","type":"address","indexed":true,"internalType":"address"}],"anonymous":false},{"type":"event","name":"OwnershipTransferred","inputs":[{"name":"previousOwner","type":"address","indexed":true,"internalType":"address"},{"name":"newOwner","type":"address","indexed":true,"internalType":"address"}],"anonymous":false},{"type":"event","name":"ServiceAdded","inputs":[{"name":"serviceID","type":"uint256","indexed":false,"internalType":"uint256"},{"name":"fulfiller","type":"address","indexed":true,"internalType":"address"}],"anonymous":false},{"type":"event","name":"ServiceBeneficiaryUpdated","inputs":[{"name":"serviceID","type":"uint256","indexed":false,"internalType":"uint256"},{"name":"beneficiary","type":"address","indexed":false,"internalType":"address"}],"anonymous":false},{"type":"event","name":"ServiceFulfillerUpdated","inputs":[{"name":"serviceID","type":"uint256","indexed":false,"internalType":"uint256"},{"name":"fulfiller","type":"address","indexed":false,"internalType":"address"}],"anonymous":false},{"type":"event","name":"ServiceFulfillmentFeeSet","inputs":[{"name":"serviceID","type":"uint256","indexed":false,"internalType":"uint256"},{"name":"fulfillmentFeeBasisPoints","type":"uint16","indexed":false,"internalType":"uint16"}],"anonymous":false},{"type":"event","name":"ServiceRefAdded","inputs":[{"name":"serviceID","type":"uint256","indexed":false,"internalType":"uint256"},{"name":"ref","type":"string","indexed":false,"internalType":"string"}],"anonymous":false},{"type":"event","name":"ServiceRemoved","inputs":[{"name":"serviceID","type":"uint256","indexed":false,"internalType":"uint256"}],"anonymous":false},{"type":"event","name":"Upgraded","inputs":[{"name":"implementation","type":"address","indexed":true,"internalType":"address"}],"anonymous":false},{"type":"error","name":"AddressEmptyCode","inputs":[{"name":"target","type":"address","internalType":"address"}]},{"type":"error","name":"ERC1967InvalidImplementation","inputs":[{"name":"implementation","type":"address","internalType":"address"}]},{"type":"error","name":"ERC1967NonPayable","inputs":[]},{"type":"error","name":"FailedInnerCall","inputs":[]},{"type":"error","name":"InvalidAddress","inputs":[{"name":"_address","type":"address","internalType":"address"}]},{"type":"error","name":"InvalidInitialization","inputs":[]},{"type":"error","name":"InvalidfeeAmountBasisPoints","inputs":[{"name":"feeAmountBasisPoints","type":"uint16","internalType":"uint16"}]},{"type":"error","name":"NotInitializing","inputs":[]},{"type":"error","name":"OwnableInvalidOwner","inputs":[{"name":"owner","type":"address","internalType":"address"}]},{"type":"error","name":"OwnableUnauthorizedAccount","inputs":[{"name":"account","type":"address","internalType":"address"}]},{"type":"error","name":"ServiceAlreadyExists","inputs":[{"name":"serviceID","type":"uint256","internalType":"uint256"}]},{"type":"error","name":"ServiceDoesNotExist","inputs":[{"name":"serviceID","type":"uint256","internalType":"uint256"}]},{"type":"error","name":"UUPSUnauthorizedCallContext","inputs":[]},{"type":"error","name":"UUPSUnsupportedProxiableUUID","inputs":[{"name":"slot","type":"bytes32","internalType":"bytes32"}]}],"bytecode":{"object":"0x60a06040523060805234801561001457600080fd5b5061001d610022565b6100d4565b7ff0c57e16840df040f15088dc2f81fe391c3923bec73e23a9662efc9c229c6a00805468010000000000000000900460ff16156100725760405163f92ee8a960e01b815260040160405180910390fd5b80546001600160401b03908116146100d15780546001600160401b0319166001600160401b0390811782556040519081527fc7f505b2f371ae2175ee4913f4499e1f2633a7b5936321eed1cdaeb6115181d29060200160405180910390a15b50565b6080516122d36100fd600039600081816115360152818161155f015261178001526122d36000f3fe6080604052600436106101ac5760003560e01c80638ba6bf84116100ec578063d0ebdbe71161008a578063ef0e239b11610064578063ef0e239b146105c0578063f0329f6b14610629578063f2fde38b14610656578063fb31fe801461067657600080fd5b8063d0ebdbe714610553578063d4a2470314610573578063eddef58e1461059357600080fd5b8063a9a6b305116100c6578063a9a6b30514610443578063ad3cb1cc146104ca578063b34755ac14610513578063c4d66de81461053357600080fd5b80638ba6bf84146103a25780638da5cb5b146103b85780639f6606971461042357600080fd5b80634f1ef286116101595780636c07360a116101335780636c07360a146102fc578063715018a61461034057806379a22c20146103555780638b82ba781461038257600080fd5b80634f1ef286146102b45780634f38e258146102c757806352d1902d146102e757600080fd5b80633f8a7fe01161018a5780633f8a7fe01461022c5780634c770b581461024c5780634eeebbd71461028757600080fd5b80630cf4e14c146101b15780631147883f146101d35780631b9c660b146101fc575b600080fd5b3480156101bd57600080fd5b506101d16101cc366004611bca565b610696565b005b3480156101df57600080fd5b506101e960065481565b6040519081526020015b60405180910390f35b34801561020857600080fd5b5061021c610217366004611c18565b6107cd565b60405190151581526020016101f3565b34801561023857600080fd5b506101d1610247366004611d0b565b610808565b34801561025857600080fd5b5061021c610267366004611c18565b600460209081526000928352604080842090915290825290205460ff1681565b34801561029357600080fd5b506101e96102a2366004611d66565b60056020526000908152604090205481565b6101d16102c2366004611d83565b610946565b3480156102d357600080fd5b5061021c6102e2366004611dbd565b610965565b3480156102f357600080fd5b506101e9610b33565b34801561030857600080fd5b5061032d610317366004611e72565b60026020526000908152604090205461ffff1681565b60405161ffff90911681526020016101f3565b34801561034c57600080fd5b506101d1610b62565b34801561036157600080fd5b50610375610370366004611e8b565b610b76565b6040516101f39190611f1b565b34801561038e57600080fd5b506101d161039d366004611f2e565b610c1b565b3480156103ae57600080fd5b5061032d61271081565b3480156103c457600080fd5b507f9016d09d72d40fdae2fd8ceac6b6234c7706214fd39c1cd1e609a0528c1993005473ffffffffffffffffffffffffffffffffffffffff165b60405173ffffffffffffffffffffffffffffffffffffffff90911681526020016101f3565b34801561042f57600080fd5b506101d161043e366004611e72565b610d09565b34801561044f57600080fd5b5061049861045e366004611e72565b600060208190529081526040902080546001820154600290920154909173ffffffffffffffffffffffffffffffffffffffff908116911683565b6040805193845273ffffffffffffffffffffffffffffffffffffffff92831660208501529116908201526060016101f3565b3480156104d657600080fd5b506103756040518060400160405280600581526020017f352e302e3000000000000000000000000000000000000000000000000000000081525081565b34801561051f57600080fd5b506101d161052e366004611c18565b610da4565b34801561053f57600080fd5b506101d161054e366004611d66565b610eda565b34801561055f57600080fd5b506101d161056e366004611d66565b611062565b34801561057f57600080fd5b5061021c61058e366004611d0b565b61113e565b34801561059f57600080fd5b506101e96105ae366004611e72565b60036020526000908152604090205481565b3480156105cc57600080fd5b506105e06105db366004611e72565b6111f9565b604080518351815260208085015173ffffffffffffffffffffffffffffffffffffffff90811691830191909152938201519093169083015261ffff1660608201526080016101f3565b34801561063557600080fd5b506007546103fe9073ffffffffffffffffffffffffffffffffffffffff1681565b34801561066257600080fd5b506101d1610671366004611d66565b6112d9565b34801561068257600080fd5b506101d1610691366004611f2e565b61133d565b61069e611490565b60008281526020819052604090206002015473ffffffffffffffffffffffffffffffffffffffff16610704576040517ff0367891000000000000000000000000000000000000000000000000000000008152600481018390526024015b60405180910390fd5b61271061ffff82161180610716575060005b15610753576040517f12bfb11500000000000000000000000000000000000000000000000000000000815261ffff821660048201526024016106fb565b60008281526002602090815260409182902080547fffffffffffffffffffffffffffffffffffffffffffffffffffffffffffff00001661ffff85169081179091558251858152918201527f85840a9d35b5de84014fcdba5ea1b1198cd5a1de1bf18c962406c49d23611bea91015b60405180910390a15050565b73ffffffffffffffffffffffffffffffffffffffff8216600090815260046020908152604080832084845290915290205460ff165b92915050565b60075473ffffffffffffffffffffffffffffffffffffffff16331461085b576040517f8e4c8aa60000000000000000000000000000000000000000000000000000000081523360048201526024016106fb565b60008281526020819052604090206002015473ffffffffffffffffffffffffffffffffffffffff166108bc576040517ff0367891000000000000000000000000000000000000000000000000000000008152600481018390526024016106fb565b600082815260036020908152604080832054600183528184208185529092529091206108e88382611fff565b50600083815260036020526040812080549161090383612147565b91905055507f3d22cb787e98f99f58d9865d1e965daea18c8a54e5c3554983fb80eb4d6cdf8d838360405161093992919061217f565b60405180910390a1505050565b61094e61151e565b61095782611622565b610961828261162a565b5050565b60075460009073ffffffffffffffffffffffffffffffffffffffff1633146109bb576040517f8e4c8aa60000000000000000000000000000000000000000000000000000000081523360048201526024016106fb565b60008481526020819052604090206002015473ffffffffffffffffffffffffffffffffffffffff1615610a1d576040517ff4d3daa7000000000000000000000000000000000000000000000000000000008152600481018590526024016106fb565b600084815260208181526040808320865181558287015160018201805473ffffffffffffffffffffffffffffffffffffffff9283167fffffffffffffffffffffffff00000000000000000000000000000000000000009182161790915583890151600293840180549190931691161790559091528120805461ffff85167fffffffffffffffffffffffffffffffffffffffffffffffffffffffffffff00009091161790556006805491610acf83612147565b9190505550826040015173ffffffffffffffffffffffffffffffffffffffff167fff6cb4f77c0e74b5150dcce6b081605e74c6ac834288a634eecb40278f532de185604051610b2091815260200190565b60405180910390a25060015b9392505050565b6000610b3d611768565b507f360894a13ba1a3210667c828492db98dca3e2076cc3735a920a3ca505d382bbc90565b610b6a611490565b610b7460006117d7565b565b600160209081526000928352604080842090915290825290208054610b9a90611f5e565b80601f0160208091040260200160405190810160405280929190818152602001828054610bc690611f5e565b8015610c135780601f10610be857610100808354040283529160200191610c13565b820191906000526020600020905b815481529060010190602001808311610bf657829003601f168201915b505050505081565b610c23611490565b60008281526020819052604090206002015473ffffffffffffffffffffffffffffffffffffffff16610c84576040517ff0367891000000000000000000000000000000000000000000000000000000008152600481018390526024016106fb565b6000828152602081815260409182902060010180547fffffffffffffffffffffffff00000000000000000000000000000000000000001673ffffffffffffffffffffffffffffffffffffffff85169081179091558251858152918201527f7bd964778153a6020aa8affac0ee17eb8010f8773f90096178c7690bfb80f93691016107c1565b610d11611490565b60008181526020819052604081208181556001810180547fffffffffffffffffffffffff00000000000000000000000000000000000000009081169091556002909101805490911690556006805491610d69836121a0565b90915550506040518181527f419a91c001167ea76233ed548fd1a02c21b5b63f8b6eaa7dd5747aac879148929060200160405180910390a150565b610dac611490565b73ffffffffffffffffffffffffffffffffffffffff8216600090815260046020908152604080832084845290915290205460ff1615610e1a576040517ff4d3daa7000000000000000000000000000000000000000000000000000000008152600481018290526024016106fb565b73ffffffffffffffffffffffffffffffffffffffff82166000818152600460209081526040808320858452825280832080547fffffffffffffffffffffffffffffffffffffffffffffffffffffffffffffff0016600117905592825260059052908120805491610e8983612147565b90915550506040805173ffffffffffffffffffffffffffffffffffffffff84168152602081018390527ffbfe2ea6c1f3e71357b116d3d22f11f52e35640a7711fa48949a83806d6e9fd291016107c1565b7ff0c57e16840df040f15088dc2f81fe391c3923bec73e23a9662efc9c229c6a00805468010000000000000000810460ff16159067ffffffffffffffff16600081158015610f255750825b905060008267ffffffffffffffff166001148015610f425750303b155b905081158015610f50575080155b15610f87576040517ff92ee8a900000000000000000000000000000000000000000000000000000000815260040160405180910390fd5b84547fffffffffffffffffffffffffffffffffffffffffffffffff00000000000000001660011785558315610fe85784547fffffffffffffffffffffffffffffffffffffffffffffff00ffffffffffffffff16680100000000000000001785555b610ff061186d565b610ff986611875565b831561105a5784547fffffffffffffffffffffffffffffffffffffffffffffff00ffffffffffffffff168555604051600181527fc7f505b2f371ae2175ee4913f4499e1f2633a7b5936321eed1cdaeb6115181d29060200160405180910390a15b505050505050565b61106a611490565b73ffffffffffffffffffffffffffffffffffffffff81166110cf576040517f8e4c8aa600000000000000000000000000000000000000000000000000000000815273ffffffffffffffffffffffffffffffffffffffff821660048201526024016106fb565b600780547fffffffffffffffffffffffff00000000000000000000000000000000000000001673ffffffffffffffffffffffffffffffffffffffff83169081179091556040517f2c1c11af44aa5608f1dca38c00275c30ea091e02417d36e70e9a1538689c433d90600090a250565b600082815260036020526040812054815b818110156111ee578360405160200161116891906121d5565b604080517fffffffffffffffffffffffffffffffffffffffffffffffffffffffffffffffe0818403018152828252805160209182012060008981526001835283812086825283529290922091926111c09291016121f1565b60405160208183030381529060405280519060200120036111e657600192505050610802565b60010161114f565b506000949350505050565b604080516060810182526000808252602082018190529181019190915260008281526020819052604081206002015473ffffffffffffffffffffffffffffffffffffffff16611277576040517ff0367891000000000000000000000000000000000000000000000000000000008152600481018490526024016106fb565b505060009081526020818152604080832060028084529382902054825160608101845282548152600183015473ffffffffffffffffffffffffffffffffffffffff90811695820195909552949091015490921690830152909161ffff90911690565b6112e1611490565b73ffffffffffffffffffffffffffffffffffffffff8116611331576040517f1e4fbdf7000000000000000000000000000000000000000000000000000000008152600060048201526024016106fb565b61133a816117d7565b50565b611345611490565b73ffffffffffffffffffffffffffffffffffffffff81166113aa576040517f8e4c8aa600000000000000000000000000000000000000000000000000000000815273ffffffffffffffffffffffffffffffffffffffff821660048201526024016106fb565b60008281526020819052604090206002015473ffffffffffffffffffffffffffffffffffffffff1661140b576040517ff0367891000000000000000000000000000000000000000000000000000000008152600481018390526024016106fb565b6000828152602081815260409182902060020180547fffffffffffffffffffffffff00000000000000000000000000000000000000001673ffffffffffffffffffffffffffffffffffffffff85169081179091558251858152918201527f54de289ae1a4d5208ffcf4486ace708e85bd33826931299723cc9bcb5f69ca6891016107c1565b336114cf7f9016d09d72d40fdae2fd8ceac6b6234c7706214fd39c1cd1e609a0528c1993005473ffffffffffffffffffffffffffffffffffffffff1690565b73ffffffffffffffffffffffffffffffffffffffff1614610b74576040517f118cdaa70000000000000000000000000000000000000000000000000000000081523360048201526024016106fb565b3073ffffffffffffffffffffffffffffffffffffffff7f00000000000000000000000000000000000000000000000000000000000000001614806115eb57507f000000000000000000000000000000000000000000000000000000000000000073ffffffffffffffffffffffffffffffffffffffff166115d27f360894a13ba1a3210667c828492db98dca3e2076cc3735a920a3ca505d382bbc5473ffffffffffffffffffffffffffffffffffffffff1690565b73ffffffffffffffffffffffffffffffffffffffff1614155b15610b74576040517fe07c8dba00000000000000000000000000000000000000000000000000000000815260040160405180910390fd5b61133a611490565b8173ffffffffffffffffffffffffffffffffffffffff166352d1902d6040518163ffffffff1660e01b8152600401602060405180830381865afa9250505080156116af575060408051601f3d9081017fffffffffffffffffffffffffffffffffffffffffffffffffffffffffffffffe01682019092526116ac91810190612284565b60015b6116fd576040517f4c9c8ce300000000000000000000000000000000000000000000000000000000815273ffffffffffffffffffffffffffffffffffffffff831660048201526024016106fb565b7f360894a13ba1a3210667c828492db98dca3e2076cc3735a920a3ca505d382bbc8114611759576040517faa1d49a4000000000000000000000000000000000000000000000000000000008152600481018290526024016106fb565b6117638383611886565b505050565b3073ffffffffffffffffffffffffffffffffffffffff7f00000000000000000000000000000000000000000000000000000000000000001614610b74576040517fe07c8dba00000000000000000000000000000000000000000000000000000000815260040160405180910390fd5b7f9016d09d72d40fdae2fd8ceac6b6234c7706214fd39c1cd1e609a0528c19930080547fffffffffffffffffffffffff0000000000000000000000000000000000000000811673ffffffffffffffffffffffffffffffffffffffff848116918217845560405192169182907f8be0079c531659141344cd1fd0a4f28419497f9722a3daafe3b4186f6b6457e090600090a3505050565b610b746118e9565b61187d6118e9565b61133a81611950565b61188f82611958565b60405173ffffffffffffffffffffffffffffffffffffffff8316907fbc7cd75a20ee27fd9adebab32041f755214dbc6bffa90cc0225b39da2e5c2d3b90600090a28051156118e1576117638282611a27565b610961611aaa565b7ff0c57e16840df040f15088dc2f81fe391c3923bec73e23a9662efc9c229c6a005468010000000000000000900460ff16610b74576040517fd7e6bcf800000000000000000000000000000000000000000000000000000000815260040160405180910390fd5b6112e16118e9565b8073ffffffffffffffffffffffffffffffffffffffff163b6000036119c1576040517f4c9c8ce300000000000000000000000000000000000000000000000000000000815273ffffffffffffffffffffffffffffffffffffffff821660048201526024016106fb565b7f360894a13ba1a3210667c828492db98dca3e2076cc3735a920a3ca505d382bbc80547fffffffffffffffffffffffff00000000000000000000000000000000000000001673ffffffffffffffffffffffffffffffffffffffff92909216919091179055565b60606000808473ffffffffffffffffffffffffffffffffffffffff1684604051611a5191906121d5565b600060405180830381855af49150503d8060008114611a8c576040519150601f19603f3d011682016040523d82523d6000602084013e611a91565b606091505b5091509150611aa1858383611ae2565b95945050505050565b3415610b74576040517fb398979f00000000000000000000000000000000000000000000000000000000815260040160405180910390fd5b606082611af757611af282611b71565b610b2c565b8151158015611b1b575073ffffffffffffffffffffffffffffffffffffffff84163b155b15611b6a576040517f9996b31500000000000000000000000000000000000000000000000000000000815273ffffffffffffffffffffffffffffffffffffffff851660048201526024016106fb565b5080610b2c565b805115611b815780518082602001fd5b6040517f1425ea4200000000000000000000000000000000000000000000000000000000815260040160405180910390fd5b803561ffff81168114611bc557600080fd5b919050565b60008060408385031215611bdd57600080fd5b82359150611bed60208401611bb3565b90509250929050565b73ffffffffffffffffffffffffffffffffffffffff8116811461133a57600080fd5b60008060408385031215611c2b57600080fd5b8235611c3681611bf6565b946020939093013593505050565b7f4e487b7100000000000000000000000000000000000000000000000000000000600052604160045260246000fd5b60008067ffffffffffffffff841115611c8e57611c8e611c44565b506040517fffffffffffffffffffffffffffffffffffffffffffffffffffffffffffffffe0601f85018116603f0116810181811067ffffffffffffffff82111715611cdb57611cdb611c44565b604052838152905080828401851015611cf357600080fd5b83836020830137600060208583010152509392505050565b60008060408385031215611d1e57600080fd5b82359150602083013567ffffffffffffffff811115611d3c57600080fd5b8301601f81018513611d4d57600080fd5b611d5c85823560208401611c73565b9150509250929050565b600060208284031215611d7857600080fd5b8135610b2c81611bf6565b60008060408385031215611d9657600080fd5b8235611da181611bf6565b9150602083013567ffffffffffffffff811115611d3c57600080fd5b600080600083850360a0811215611dd357600080fd5b8435935060607fffffffffffffffffffffffffffffffffffffffffffffffffffffffffffffffe082011215611e0757600080fd5b506040516060810167ffffffffffffffff81118282101715611e2b57611e2b611c44565b604090815260208601358252850135611e4381611bf6565b60208201526060850135611e5681611bf6565b60408201529150611e6960808501611bb3565b90509250925092565b600060208284031215611e8457600080fd5b5035919050565b60008060408385031215611e9e57600080fd5b50508035926020909101359150565b60005b83811015611ec8578181015183820152602001611eb0565b50506000910152565b60008151808452611ee9816020860160208601611ead565b601f017fffffffffffffffffffffffffffffffffffffffffffffffffffffffffffffffe0169290920160200192915050565b602081526000610b2c6020830184611ed1565b60008060408385031215611f4157600080fd5b823591506020830135611f5381611bf6565b809150509250929050565b600181811c90821680611f7257607f821691505b602082108103611fab577f4e487b7100000000000000000000000000000000000000000000000000000000600052602260045260246000fd5b50919050565b601f82111561176357806000526020600020601f840160051c81016020851015611fd85750805b601f840160051c820191505b81811015611ff85760008155600101611fe4565b5050505050565b815167ffffffffffffffff81111561201957612019611c44565b61202d816120278454611f5e565b84611fb1565b6020601f82116001811461207f57600083156120495750848201515b7fffffffffffffffffffffffffffffffffffffffffffffffffffffffffffffffff600385901b1c1916600184901b178455611ff8565b6000848152602081207fffffffffffffffffffffffffffffffffffffffffffffffffffffffffffffffe08516915b828110156120cd57878501518255602094850194600190920191016120ad565b508482101561210957868401517fffffffffffffffffffffffffffffffffffffffffffffffffffffffffffffffff600387901b60f8161c191681555b50505050600190811b01905550565b7f4e487b7100000000000000000000000000000000000000000000000000000000600052601160045260246000fd5b60007fffffffffffffffffffffffffffffffffffffffffffffffffffffffffffffffff820361217857612178612118565b5060010190565b8281526040602082015260006121986040830184611ed1565b949350505050565b6000816121af576121af612118565b507fffffffffffffffffffffffffffffffffffffffffffffffffffffffffffffffff0190565b600082516121e7818460208701611ead565b9190910192915050565b60008083546121ff81611f5e565b600182168015612216576001811461224957612279565b7fffffffffffffffffffffffffffffffffffffffffffffffffffffffffffffff0083168652811515820286019350612279565b86600052602060002060005b8381101561227157815488820152600190910190602001612255565b505081860193505b509195945050505050565b60006020828403121561229657600080fd5b505191905056fea2646970667358221220ff8c0a9e5b1ac61a18a4e16356b80c6e99e0c2d8765fd76f722862d9f6d23eb964736f6c634300081c0033","linkReferences":{}},"methodIdentifiers":{"MAX_FULFILLMENT_FEE_BASIS_POINTS()":"8ba6bf84","UPGRADE_INTERFACE_VERSION()":"ad3cb1cc","_fulfillerServiceCount(address)":"4eeebbd7","_fulfillerServices(address,uint256)":"4c770b58","_manager()":"f0329f6b","_serviceCount()":"1147883f","_serviceFulfillmentFeeBasisPoints(uint256)":"6c07360a","_serviceRefCount(uint256)":"eddef58e","_serviceRefs(uint256,uint256)":"79a22c20","_serviceRegistry(uint256)":"a9a6b305","addFulfiller(address,uint256)":"b34755ac","addService(uint256,(uint256,address,address),uint16)":"4f38e258","addServiceRef(uint256,string)":"3f8a7fe0","canFulfillerFulfill(address,uint256)":"1b9c660b","getService(uint256)":"ef0e239b","initialize(address)":"c4d66de8","isRefValid(uint256,string)":"d4a24703","owner()":"8da5cb5b","proxiableUUID()":"52d1902d","removeServiceAddress(uint256)":"9f660697","renounceOwnership()":"715018a6","setManager(address)":"d0ebdbe7","transferOwnership(address)":"f2fde38b","updateServiceBeneficiary(uint256,address)":"8b82ba78","updateServiceFulfiller(uint256,address)":"fb31fe80","updateServicefeeAmountBasisPoints(uint256,uint16)":"0cf4e14c","upgradeToAndCall(address,bytes)":"4f1ef286"},"id":21}