{"abi":[{"type":"function","name":"MAX_FULFILLMENT_FEE_BASIS_POINTS","inputs":[],"outputs":[{"name":"","type":"uint16","internalType":"uint16"}],"stateMutability":"view"},{"type":"function","name":"UPGRADE_INTERFACE_VERSION","inputs":[],"outputs":[{"name":"","type":"string","internalType":"string"}],"stateMutability":"view"},{"type":"function","name":"_fulfillerServiceCount","inputs":[{"name":"","type":"address","internalType":"address"}],"outputs":[{"name":"","type":"uint256","internalType":"uint256"}],"stateMutability":"view"},{"type":"function","name":"_fulfillerServices","inputs":[{"name":"","type":"address","internalType":"address"},{"name":"","type":"uint256","internalType":"uint256"}],"outputs":[{"name":"","type":"bool","internalType":"bool"}],"stateMutability":"view"},{"type":"function","name":"_manager","inputs":[],"outputs":[{"name":"","type":"address","internalType":"address"}],"stateMutability":"view"},{"type":"function","name":"_serviceCount","inputs":[],"outputs":[{"name":"","type":"uint256","internalType":"uint256"}],"stateMutability":"view"},{"type":"function","name":"_serviceFulfillmentFeeBasisPoints","inputs":[{"name":"","type":"uint256","internalType":"uint256"}],"outputs":[{"name":"","type":"uint16","internalType":"uint16"}],"stateMutability":"view"},{"type":"function","name":"_serviceRefCount","inputs":[{"name":"","type":"uint256","internalType":"uint256"}],"outputs":[{"name":"","type":"uint256","internalType":"uint256"}],"stateMutability":"view"},{"type":"function","name":"_serviceRefs","inputs":[{"name":"","type":"uint256","internalType":"uint256"},{"name":"","type":"uint256","internalType":"uint256"}],"outputs":[{"name":"","type":"string","internalType":"string"}],"stateMutability":"view"},{"type":"function","name":"_serviceRegistry","inputs":[{"name":"","type":"uint256","internalType":"uint256"}],"outputs":[{"name":"serviceId","type":"uint256","internalType":"uint256"},{"name":"beneficiary","type":"address","internalType":"address payable"},{"name":"fulfiller","type":"address","internalType":"address"}],"stateMutability":"view"},{"type":"function","name":"addFulfiller","inputs":[{"name":"fulfiller","type":"address","internalType":"address"},{"name":"serviceID","type":"uint256","internalType":"uint256"}],"outputs":[],"stateMutability":"nonpayable"},{"type":"function","name":"addService","inputs":[{"name":"serviceId","type":"uint256","internalType":"uint256"},{"name":"service","type":"tuple","internalType":"struct Service","components":[{"name":"serviceId","type":"uint256","internalType":"uint256"},{"name":"beneficiary","type":"address","internalType":"address payable"},{"name":"fulfiller","type":"address","internalType":"address"}]},{"name":"fulfillmentFeeBasisPoints","type":"uint16","internalType":"uint16"}],"outputs":[{"name":"","type":"bool","internalType":"bool"}],"stateMutability":"nonpayable"},{"type":"function","name":"addServiceRef","inputs":[{"name":"serviceId","type":"uint256","internalType":"uint256"},{"name":"ref","type":"string","internalType":"string"}],"outputs":[],"stateMutability":"nonpayable"},{"type":"function","name":"addServiceRefV2","inputs":[{"name":"service","type":"tuple","internalType":"struct Service","components":[{"name":"serviceId","type":"uint256","internalType":"uint256"},{"name":"beneficiary","type":"address","internalType":"address payable"},{"name":"fulfiller","type":"address","internalType":"address"}]},{"name":"ref","type":"string","internalType":"string"},{"name":"fulfillmentFeeBasisPoints","type":"uint16","internalType":"uint16"}],"outputs":[],"stateMutability":"nonpayable"},{"type":"function","name":"canFulfillerFulfill","inputs":[{"name":"fulfiller","type":"address","internalType":"address"},{"name":"serviceId","type":"uint256","internalType":"uint256"}],"outputs":[{"name":"","type":"bool","internalType":"bool"}],"stateMutability":"view"},{"type":"function","name":"getService","inputs":[{"name":"serviceId","type":"uint256","internalType":"uint256"}],"outputs":[{"name":"","type":"tuple","internalType":"struct Service","components":[{"name":"serviceId","type":"uint256","internalType":"uint256"},{"name":"beneficiary","type":"address","internalType":"address payable"},{"name":"fulfiller","type":"address","internalType":"address"}]},{"name":"","type":"uint16","internalType":"uint16"}],"stateMutability":"view"},{"type":"function","name":"initialize","inputs":[{"name":"initialOwner","type":"address","internalType":"address"}],"outputs":[],"stateMutability":"nonpayable"},{"type":"function","name":"isRefValid","inputs":[{"name":"serviceId","type":"uint256","internalType":"uint256"},{"name":"ref","type":"string","internalType":"string"}],"outputs":[{"name":"","type":"bool","internalType":"bool"}],"stateMutability":"view"},{"type":"function","name":"owner","inputs":[],"outputs":[{"name":"","type":"address","internalType":"address"}],"stateMutability":"view"},{"type":"function","name":"proxiableUUID","inputs":[],"outputs":[{"name":"","type":"bytes32","internalType":"bytes32"}],"stateMutability":"view"},{"type":"function","name":"removeServiceAddress","inputs":[{"name":"serviceId","type":"uint256","internalType":"uint256"}],"outputs":[],"stateMutability":"nonpayable"},{"type":"function","name":"renounceOwnership","inputs":[],"outputs":[],"stateMutability":"nonpayable"},{"type":"function","name":"setManager","inputs":[{"name":"manager_","type":"address","internalType":"address"}],"outputs":[],"stateMutability":"nonpayable"},{"type":"function","name":"transferOwnership","inputs":[{"name":"newOwner","type":"address","internalType":"address"}],"outputs":[],"stateMutability":"nonpayable"},{"type":"function","name":"updateServiceBeneficiary","inputs":[{"name":"serviceId","type":"uint256","internalType":"uint256"},{"name":"newBeneficiary","type":"address","internalType":"address payable"}],"outputs":[],"stateMutability":"nonpayable"},{"type":"function","name":"updateServiceBeneficiaryV1_1","inputs":[{"name":"serviceId","type":"uint256","internalType":"uint256"},{"name":"newBeneficiary","type":"address","internalType":"address payable"}],"outputs":[],"stateMutability":"nonpayable"},{"type":"function","name":"updateServiceFulfiller","inputs":[{"name":"serviceId","type":"uint256","internalType":"uint256"},{"name":"newFulfiller","type":"address","internalType":"address"}],"outputs":[],"stateMutability":"nonpayable"},{"type":"function","name":"updateServiceFulfillerV1_1","inputs":[{"name":"serviceId","type":"uint256","internalType":"uint256"},{"name":"newFulfiller","type":"address","internalType":"address"}],"outputs":[],"stateMutability":"nonpayable"},{"type":"function","name":"updateServicefeeAmountBasisPoints","inputs":[{"name":"serviceId","type":"uint256","internalType":"uint256"},{"name":"newfeeAmountBasisPoints","type":"uint16","internalType":"uint16"}],"outputs":[],"stateMutability":"nonpayable"},{"type":"function","name":"updateServicefeeAmountBasisPointsV1_1","inputs":[{"name":"serviceId","type":"uint256","internalType":"uint256"},{"name":"newfeeAmountBasisPoints","type":"uint16","internalType":"uint16"}],"outputs":[],"stateMutability":"nonpayable"},{"type":"function","name":"upgradeToAndCall","inputs":[{"name":"newImplementation","type":"address","internalType":"address"},{"name":"data","type":"bytes","internalType":"bytes"}],"outputs":[],"stateMutability":"payable"},{"type":"event","name":"FulfillerAdded","inputs":[{"name":"fulfiller","type":"address","indexed":false,"internalType":"address"},{"name":"serviceID","type":"uint256","indexed":false,"internalType":"uint256"}],"anonymous":false},{"type":"event","name":"Initialized","inputs":[{"name":"version","type":"uint64","indexed":false,"internalType":"uint64"}],"anonymous":false},{"type":"event","name":"ManagerUpdated","inputs":[{"name":"manager","type":"address","indexed":true,"internalType":"address"}],"anonymous":false},{"type":"event","name":"OwnershipTransferred","inputs":[{"name":"previousOwner","type":"address","indexed":true,"internalType":"address"},{"name":"newOwner","type":"address","indexed":true,"internalType":"address"}],"anonymous":false},{"type":"event","name":"ServiceAdded","inputs":[{"name":"serviceID","type":"uint256","indexed":false,"internalType":"uint256"},{"name":"fulfiller","type":"address","indexed":true,"internalType":"address"}],"anonymous":false},{"type":"event","name":"ServiceBeneficiaryUpdated","inputs":[{"name":"serviceID","type":"uint256","indexed":false,"internalType":"uint256"},{"name":"beneficiary","type":"address","indexed":false,"internalType":"address"}],"anonymous":false},{"type":"event","name":"ServiceFulfillerUpdated","inputs":[{"name":"serviceID","type":"uint256","indexed":false,"internalType":"uint256"},{"name":"fulfiller","type":"address","indexed":false,"internalType":"address"}],"anonymous":false},{"type":"event","name":"ServiceFulfillmentFeeSet","inputs":[{"name":"serviceID","type":"uint256","indexed":false,"internalType":"uint256"},{"name":"fulfillmentFeeBasisPoints","type":"uint16","indexed":false,"internalType":"uint16"}],"anonymous":false},{"type":"event","name":"ServiceRefAdded","inputs":[{"name":"serviceID","type":"uint256","indexed":false,"internalType":"uint256"},{"name":"ref","type":"string","indexed":false,"internalType":"string"}],"anonymous":false},{"type":"event","name":"ServiceRemoved","inputs":[{"name":"serviceID","type":"uint256","indexed":false,"internalType":"uint256"}],"anonymous":false},{"type":"event","name":"Upgraded","inputs":[{"name":"implementation","type":"address","indexed":true,"internalType":"address"}],"anonymous":false},{"type":"error","name":"AddressEmptyCode","inputs":[{"name":"target","type":"address","internalType":"address"}]},{"type":"error","name":"ERC1967InvalidImplementation","inputs":[{"name":"implementation","type":"address","internalType":"address"}]},{"type":"error","name":"ERC1967NonPayable","inputs":[]},{"type":"error","name":"FailedInnerCall","inputs":[]},{"type":"error","name":"InvalidAddress","inputs":[{"name":"_address","type":"address","internalType":"address"}]},{"type":"error","name":"InvalidCaller","inputs":[{"name":"caller","type":"address","internalType":"address"}]},{"type":"error","name":"InvalidInitialization","inputs":[]},{"type":"error","name":"InvalidService","inputs":[{"name":"service","type":"tuple","internalType":"struct Service","components":[{"name":"serviceId","type":"uint256","internalType":"uint256"},{"name":"beneficiary","type":"address","internalType":"address payable"},{"name":"fulfiller","type":"address","internalType":"address"}]}]},{"type":"error","name":"InvalidfeeAmountBasisPoints","inputs":[{"name":"feeAmountBasisPoints","type":"uint16","internalType":"uint16"}]},{"type":"error","name":"NotInitializing","inputs":[]},{"type":"error","name":"OwnableInvalidOwner","inputs":[{"name":"owner","type":"address","internalType":"address"}]},{"type":"error","name":"OwnableUnauthorizedAccount","inputs":[{"name":"account","type":"address","internalType":"address"}]},{"type":"error","name":"ServiceAlreadyExists","inputs":[{"name":"serviceID","type":"uint256","internalType":"uint256"}]},{"type":"error","name":"ServiceDoesNotExist","inputs":[{"name":"serviceID","type":"uint256","internalType":"uint256"}]},{"type":"error","name":"UUPSUnauthorizedCallContext","inputs":[]},{"type":"error","name":"UUPSUnsupportedProxiableUUID","inputs":[{"name":"slot","type":"bytes32","internalType":"bytes32"}]}],"bytecode":{"object":"0x60a06040523060805234801561001457600080fd5b5061001d610022565b6100d4565b7ff0c57e16840df040f15088dc2f81fe391c3923bec73e23a9662efc9c229c6a00805468010000000000000000900460ff16156100725760405163f92ee8a960e01b815260040160405180910390fd5b80546001600160401b03908116146100d15780546001600160401b0319166001600160401b0390811782556040519081527fc7f505b2f371ae2175ee4913f4499e1f2633a7b5936321eed1cdaeb6115181d29060200160405180910390a15b50565b6080516129726100fd60003960008181611aab01528181611ad40152611cf501526129726000f3fe6080604052600436106101d85760003560e01c80638da5cb5b11610102578063d0ebdbe711610095578063ef0e239b11610064578063ef0e239b1461066c578063f0329f6b1461069a578063f2fde38b146106c7578063fb31fe80146106e757600080fd5b8063d0ebdbe7146105df578063d4a24703146105ff578063d848f68a1461061f578063eddef58e1461063f57600080fd5b8063aa75fba8116100d1578063aa75fba814610536578063ad3cb1cc14610556578063b34755ac1461059f578063c4d66de8146105bf57600080fd5b80638da5cb5b146104045780639c27778d1461046f5780639f6606971461048f578063a9a6b305146104af57600080fd5b80634f38e2581161017a578063715018a611610149578063715018a61461038c57806379a22c20146103a15780638b82ba78146103ce5780638ba6bf84146103ee57600080fd5b80634f38e258146102f357806352d1902d146103135780635d14d827146103285780636c07360a1461034857600080fd5b80633f8a7fe0116101b65780633f8a7fe0146102585780634c770b58146102785780634eeebbd7146102b35780634f1ef286146102e057600080fd5b80630cf4e14c146101dd5780631147883f146101ff5780631b9c660b14610228575b600080fd5b3480156101e957600080fd5b506101fd6101f836600461213f565b610707565b005b34801561020b57600080fd5b5061021560065481565b6040519081526020015b60405180910390f35b34801561023457600080fd5b5061024861024336600461218d565b61083e565b604051901515815260200161021f565b34801561026457600080fd5b506101fd6102733660046122a0565b610879565b34801561028457600080fd5b5061024861029336600461218d565b600460209081526000928352604080842090915290825290205460ff1681565b3480156102bf57600080fd5b506102156102ce3660046122e7565b60056020526000908152604090205481565b6101fd6102ee366004612304565b6109b7565b3480156102ff57600080fd5b5061024861030e3660046123cb565b6109d6565b34801561031f57600080fd5b50610215610ba4565b34801561033457600080fd5b506101fd610343366004612408565b610bd3565b34801561035457600080fd5b50610379610363366004612438565b60026020526000908152604090205461ffff1681565b60405161ffff909116815260200161021f565b34801561039857600080fd5b506101fd610d51565b3480156103ad57600080fd5b506103c16103bc366004612451565b610d65565b60405161021f91906124e1565b3480156103da57600080fd5b506101fd6103e9366004612408565b610e0a565b3480156103fa57600080fd5b5061037961271081565b34801561041057600080fd5b507f9016d09d72d40fdae2fd8ceac6b6234c7706214fd39c1cd1e609a0528c1993005473ffffffffffffffffffffffffffffffffffffffff165b60405173ffffffffffffffffffffffffffffffffffffffff909116815260200161021f565b34801561047b57600080fd5b506101fd61048a3660046124f4565b610e12565b34801561049b57600080fd5b506101fd6104aa366004612438565b611152565b3480156104bb57600080fd5b506105046104ca366004612438565b600060208190529081526040902080546001820154600290920154909173ffffffffffffffffffffffffffffffffffffffff908116911683565b6040805193845273ffffffffffffffffffffffffffffffffffffffff928316602085015291169082015260600161021f565b34801561054257600080fd5b506101fd61055136600461213f565b6111ed565b34801561056257600080fd5b506103c16040518060400160405280600581526020017f352e302e3000000000000000000000000000000000000000000000000000000081525081565b3480156105ab57600080fd5b506101fd6105ba36600461218d565b611285565b3480156105cb57600080fd5b506101fd6105da3660046122e7565b6113bb565b3480156105eb57600080fd5b506101fd6105fa3660046122e7565b611543565b34801561060b57600080fd5b5061024861061a3660046122a0565b61161f565b34801561062b57600080fd5b506101fd61063a366004612408565b6116da565b34801561064b57600080fd5b5061021561065a366004612438565b60036020526000908152604090205481565b34801561067857600080fd5b5061068c610687366004612438565b6118bd565b60405161021f92919061254a565b3480156106a657600080fd5b5060075461044a9073ffffffffffffffffffffffffffffffffffffffff1681565b3480156106d357600080fd5b506101fd6106e23660046122e7565b61199d565b3480156106f357600080fd5b506101fd610702366004612408565b611a01565b61070f611a05565b60008281526020819052604090206002015473ffffffffffffffffffffffffffffffffffffffff16610775576040517ff0367891000000000000000000000000000000000000000000000000000000008152600481018390526024015b60405180910390fd5b61271061ffff82161180610787575060005b156107c4576040517f12bfb11500000000000000000000000000000000000000000000000000000000815261ffff8216600482015260240161076c565b60008281526002602090815260409182902080547fffffffffffffffffffffffffffffffffffffffffffffffffffffffffffff00001661ffff85169081179091558251858152918201527f85840a9d35b5de84014fcdba5ea1b1198cd5a1de1bf18c962406c49d23611bea91015b60405180910390a15050565b73ffffffffffffffffffffffffffffffffffffffff8216600090815260046020908152604080832084845290915290205460ff165b92915050565b60075473ffffffffffffffffffffffffffffffffffffffff1633146108cc576040517f8e4c8aa600000000000000000000000000000000000000000000000000000000815233600482015260240161076c565b60008281526020819052604090206002015473ffffffffffffffffffffffffffffffffffffffff1661092d576040517ff03678910000000000000000000000000000000000000000000000000000000081526004810183905260240161076c565b60008281526003602090815260408083205460018352818420818552909252909120610959838261264d565b50600083815260036020526040812080549161097483612795565b91905055507f3d22cb787e98f99f58d9865d1e965daea18c8a54e5c3554983fb80eb4d6cdf8d83836040516109aa9291906127cd565b60405180910390a1505050565b6109bf611a93565b6109c882611b97565b6109d28282611b9f565b5050565b60075460009073ffffffffffffffffffffffffffffffffffffffff163314610a2c576040517f8e4c8aa600000000000000000000000000000000000000000000000000000000815233600482015260240161076c565b60008481526020819052604090206002015473ffffffffffffffffffffffffffffffffffffffff1615610a8e576040517ff4d3daa70000000000000000000000000000000000000000000000000000000081526004810185905260240161076c565b600084815260208181526040808320865181558287015160018201805473ffffffffffffffffffffffffffffffffffffffff9283167fffffffffffffffffffffffff00000000000000000000000000000000000000009182161790915583890151600293840180549190931691161790559091528120805461ffff85167fffffffffffffffffffffffffffffffffffffffffffffffffffffffffffff00009091161790556006805491610b4083612795565b9190505550826040015173ffffffffffffffffffffffffffffffffffffffff167fff6cb4f77c0e74b5150dcce6b081605e74c6ac834288a634eecb40278f532de185604051610b9191815260200190565b60405180910390a25060015b9392505050565b6000610bae611cdd565b507f360894a13ba1a3210667c828492db98dca3e2076cc3735a920a3ca505d382bbc90565b7f9016d09d72d40fdae2fd8ceac6b6234c7706214fd39c1cd1e609a0528c1993005473ffffffffffffffffffffffffffffffffffffffff163314801590610c32575060075473ffffffffffffffffffffffffffffffffffffffff163314155b15610c6b576040517fcbd9d2e000000000000000000000000000000000000000000000000000000000815233600482015260240161076c565b60008281526020819052604090206002015473ffffffffffffffffffffffffffffffffffffffff16610ccc576040517ff03678910000000000000000000000000000000000000000000000000000000081526004810183905260240161076c565b6000828152602081815260409182902060010180547fffffffffffffffffffffffff00000000000000000000000000000000000000001673ffffffffffffffffffffffffffffffffffffffff85169081179091558251858152918201527f7bd964778153a6020aa8affac0ee17eb8010f8773f90096178c7690bfb80f9369101610832565b610d59611a05565b610d636000611d4c565b565b600160209081526000928352604080842090915290825290208054610d89906125ac565b80601f0160208091040260200160405190810160405280929190818152602001828054610db5906125ac565b8015610e025780601f10610dd757610100808354040283529160200191610e02565b820191906000526020600020905b815481529060010190602001808311610de557829003601f168201915b505050505081565b610c6b611a05565b7f9016d09d72d40fdae2fd8ceac6b6234c7706214fd39c1cd1e609a0528c1993005473ffffffffffffffffffffffffffffffffffffffff163314801590610e71575060075473ffffffffffffffffffffffffffffffffffffffff163314155b15610eaa576040517fcbd9d2e000000000000000000000000000000000000000000000000000000000815233600482015260240161076c565b82511580610ed05750604083015173ffffffffffffffffffffffffffffffffffffffff16155b80610ef35750602083015173ffffffffffffffffffffffffffffffffffffffff16155b15610f2c57826040517f2bab252a00000000000000000000000000000000000000000000000000000000815260040161076c91906127ee565b61271061ffff82161180610f3e575060005b15610f7b576040517f12bfb11500000000000000000000000000000000000000000000000000000000815261ffff8216600482015260240161076c565b825160009081526020819052604090206002015473ffffffffffffffffffffffffffffffffffffffff166110be57825160009081526020818152604080832086518082558388015160018301805473ffffffffffffffffffffffffffffffffffffffff9283167fffffffffffffffffffffffff000000000000000000000000000000000000000091821617909155848a01516002948501805491909316911617905584529091528120805461ffff84167fffffffffffffffffffffffffffffffffffffffffffffffffffffffffffff0000909116179055600680549161106083612795565b9190505550826040015173ffffffffffffffffffffffffffffffffffffffff167fff6cb4f77c0e74b5150dcce6b081605e74c6ac834288a634eecb40278f532de184600001516040516110b591815260200190565b60405180910390a25b825160009081526003602090815260408083205486518452600183528184208185529092529091206110f0848261264d565b508351600090815260036020526040812080549161110d83612795565b909155505083516040517f3d22cb787e98f99f58d9865d1e965daea18c8a54e5c3554983fb80eb4d6cdf8d916111449186906127cd565b60405180910390a150505050565b61115a611a05565b60008181526020819052604081208181556001810180547fffffffffffffffffffffffff000000000000000000000000000000000000000090811690915560029091018054909116905560068054916111b28361283f565b90915550506040518181527f419a91c001167ea76233ed548fd1a02c21b5b63f8b6eaa7dd5747aac879148929060200160405180910390a150565b7f9016d09d72d40fdae2fd8ceac6b6234c7706214fd39c1cd1e609a0528c1993005473ffffffffffffffffffffffffffffffffffffffff16331480159061124c575060075473ffffffffffffffffffffffffffffffffffffffff163314155b1561070f576040517fcbd9d2e000000000000000000000000000000000000000000000000000000000815233600482015260240161076c565b61128d611a05565b73ffffffffffffffffffffffffffffffffffffffff8216600090815260046020908152604080832084845290915290205460ff16156112fb576040517ff4d3daa70000000000000000000000000000000000000000000000000000000081526004810182905260240161076c565b73ffffffffffffffffffffffffffffffffffffffff82166000818152600460209081526040808320858452825280832080547fffffffffffffffffffffffffffffffffffffffffffffffffffffffffffffff001660011790559282526005905290812080549161136a83612795565b90915550506040805173ffffffffffffffffffffffffffffffffffffffff84168152602081018390527ffbfe2ea6c1f3e71357b116d3d22f11f52e35640a7711fa48949a83806d6e9fd29101610832565b7ff0c57e16840df040f15088dc2f81fe391c3923bec73e23a9662efc9c229c6a00805468010000000000000000810460ff16159067ffffffffffffffff166000811580156114065750825b905060008267ffffffffffffffff1660011480156114235750303b155b905081158015611431575080155b15611468576040517ff92ee8a900000000000000000000000000000000000000000000000000000000815260040160405180910390fd5b84547fffffffffffffffffffffffffffffffffffffffffffffffff000000000000000016600117855583156114c95784547fffffffffffffffffffffffffffffffffffffffffffffff00ffffffffffffffff16680100000000000000001785555b6114d1611de2565b6114da86611dea565b831561153b5784547fffffffffffffffffffffffffffffffffffffffffffffff00ffffffffffffffff168555604051600181527fc7f505b2f371ae2175ee4913f4499e1f2633a7b5936321eed1cdaeb6115181d29060200160405180910390a15b505050505050565b61154b611a05565b73ffffffffffffffffffffffffffffffffffffffff81166115b0576040517f8e4c8aa600000000000000000000000000000000000000000000000000000000815273ffffffffffffffffffffffffffffffffffffffff8216600482015260240161076c565b600780547fffffffffffffffffffffffff00000000000000000000000000000000000000001673ffffffffffffffffffffffffffffffffffffffff83169081179091556040517f2c1c11af44aa5608f1dca38c00275c30ea091e02417d36e70e9a1538689c433d90600090a250565b600082815260036020526040812054815b818110156116cf57836040516020016116499190612874565b604080517fffffffffffffffffffffffffffffffffffffffffffffffffffffffffffffffe0818403018152828252805160209182012060008981526001835283812086825283529290922091926116a1929101612890565b60405160208183030381529060405280519060200120036116c757600192505050610873565b600101611630565b506000949350505050565b7f9016d09d72d40fdae2fd8ceac6b6234c7706214fd39c1cd1e609a0528c1993005473ffffffffffffffffffffffffffffffffffffffff163314801590611739575060075473ffffffffffffffffffffffffffffffffffffffff163314155b15611772576040517fcbd9d2e000000000000000000000000000000000000000000000000000000000815233600482015260240161076c565b73ffffffffffffffffffffffffffffffffffffffff81166117d7576040517f8e4c8aa600000000000000000000000000000000000000000000000000000000815273ffffffffffffffffffffffffffffffffffffffff8216600482015260240161076c565b60008281526020819052604090206002015473ffffffffffffffffffffffffffffffffffffffff16611838576040517ff03678910000000000000000000000000000000000000000000000000000000081526004810183905260240161076c565b6000828152602081815260409182902060020180547fffffffffffffffffffffffff00000000000000000000000000000000000000001673ffffffffffffffffffffffffffffffffffffffff85169081179091558251858152918201527f54de289ae1a4d5208ffcf4486ace708e85bd33826931299723cc9bcb5f69ca689101610832565b604080516060810182526000808252602082018190529181019190915260008281526020819052604081206002015473ffffffffffffffffffffffffffffffffffffffff1661193b576040517ff03678910000000000000000000000000000000000000000000000000000000081526004810184905260240161076c565b505060009081526020818152604080832060028084529382902054825160608101845282548152600183015473ffffffffffffffffffffffffffffffffffffffff90811695820195909552949091015490921690830152909161ffff90911690565b6119a5611a05565b73ffffffffffffffffffffffffffffffffffffffff81166119f5576040517f1e4fbdf70000000000000000000000000000000000000000000000000000000081526000600482015260240161076c565b6119fe81611d4c565b50565b6117725b33611a447f9016d09d72d40fdae2fd8ceac6b6234c7706214fd39c1cd1e609a0528c1993005473ffffffffffffffffffffffffffffffffffffffff1690565b73ffffffffffffffffffffffffffffffffffffffff1614610d63576040517f118cdaa700000000000000000000000000000000000000000000000000000000815233600482015260240161076c565b3073ffffffffffffffffffffffffffffffffffffffff7f0000000000000000000000000000000000000000000000000000000000000000161480611b6057507f000000000000000000000000000000000000000000000000000000000000000073ffffffffffffffffffffffffffffffffffffffff16611b477f360894a13ba1a3210667c828492db98dca3e2076cc3735a920a3ca505d382bbc5473ffffffffffffffffffffffffffffffffffffffff1690565b73ffffffffffffffffffffffffffffffffffffffff1614155b15610d63576040517fe07c8dba00000000000000000000000000000000000000000000000000000000815260040160405180910390fd5b6119fe611a05565b8173ffffffffffffffffffffffffffffffffffffffff166352d1902d6040518163ffffffff1660e01b8152600401602060405180830381865afa925050508015611c24575060408051601f3d9081017fffffffffffffffffffffffffffffffffffffffffffffffffffffffffffffffe0168201909252611c2191810190612923565b60015b611c72576040517f4c9c8ce300000000000000000000000000000000000000000000000000000000815273ffffffffffffffffffffffffffffffffffffffff8316600482015260240161076c565b7f360894a13ba1a3210667c828492db98dca3e2076cc3735a920a3ca505d382bbc8114611cce576040517faa1d49a40000000000000000000000000000000000000000000000000000000081526004810182905260240161076c565b611cd88383611dfb565b505050565b3073ffffffffffffffffffffffffffffffffffffffff7f00000000000000000000000000000000000000000000000000000000000000001614610d63576040517fe07c8dba00000000000000000000000000000000000000000000000000000000815260040160405180910390fd5b7f9016d09d72d40fdae2fd8ceac6b6234c7706214fd39c1cd1e609a0528c19930080547fffffffffffffffffffffffff0000000000000000000000000000000000000000811673ffffffffffffffffffffffffffffffffffffffff848116918217845560405192169182907f8be0079c531659141344cd1fd0a4f28419497f9722a3daafe3b4186f6b6457e090600090a3505050565b610d63611e5e565b611df2611e5e565b6119fe81611ec5565b611e0482611ecd565b60405173ffffffffffffffffffffffffffffffffffffffff8316907fbc7cd75a20ee27fd9adebab32041f755214dbc6bffa90cc0225b39da2e5c2d3b90600090a2805115611e5657611cd88282611f9c565b6109d261201f565b7ff0c57e16840df040f15088dc2f81fe391c3923bec73e23a9662efc9c229c6a005468010000000000000000900460ff16610d63576040517fd7e6bcf800000000000000000000000000000000000000000000000000000000815260040160405180910390fd5b6119a5611e5e565b8073ffffffffffffffffffffffffffffffffffffffff163b600003611f36576040517f4c9c8ce300000000000000000000000000000000000000000000000000000000815273ffffffffffffffffffffffffffffffffffffffff8216600482015260240161076c565b7f360894a13ba1a3210667c828492db98dca3e2076cc3735a920a3ca505d382bbc80547fffffffffffffffffffffffff00000000000000000000000000000000000000001673ffffffffffffffffffffffffffffffffffffffff92909216919091179055565b60606000808473ffffffffffffffffffffffffffffffffffffffff1684604051611fc69190612874565b600060405180830381855af49150503d8060008114612001576040519150601f19603f3d011682016040523d82523d6000602084013e612006565b606091505b5091509150612016858383612057565b95945050505050565b3415610d63576040517fb398979f00000000000000000000000000000000000000000000000000000000815260040160405180910390fd5b60608261206c57612067826120e6565b610b9d565b8151158015612090575073ffffffffffffffffffffffffffffffffffffffff84163b155b156120df576040517f9996b31500000000000000000000000000000000000000000000000000000000815273ffffffffffffffffffffffffffffffffffffffff8516600482015260240161076c565b5080610b9d565b8051156120f65780518082602001fd5b6040517f1425ea4200000000000000000000000000000000000000000000000000000000815260040160405180910390fd5b803561ffff8116811461213a57600080fd5b919050565b6000806040838503121561215257600080fd5b8235915061216260208401612128565b90509250929050565b73ffffffffffffffffffffffffffffffffffffffff811681146119fe57600080fd5b600080604083850312156121a057600080fd5b82356121ab8161216b565b946020939093013593505050565b7f4e487b7100000000000000000000000000000000000000000000000000000000600052604160045260246000fd5b60008067ffffffffffffffff841115612203576122036121b9565b506040517fffffffffffffffffffffffffffffffffffffffffffffffffffffffffffffffe0601f85018116603f0116810181811067ffffffffffffffff82111715612250576122506121b9565b60405283815290508082840185101561226857600080fd5b83836020830137600060208583010152509392505050565b600082601f83011261229157600080fd5b610b9d838335602085016121e8565b600080604083850312156122b357600080fd5b82359150602083013567ffffffffffffffff8111156122d157600080fd5b6122dd85828601612280565b9150509250929050565b6000602082840312156122f957600080fd5b8135610b9d8161216b565b6000806040838503121561231757600080fd5b82356123228161216b565b9150602083013567ffffffffffffffff81111561233e57600080fd5b8301601f8101851361234f57600080fd5b6122dd858235602084016121e8565b60006060828403121561237057600080fd5b6040516060810167ffffffffffffffff81118282101715612393576123936121b9565b6040528235815290508060208301356123ab8161216b565b602082015260408301356123be8161216b565b6040919091015292915050565b600080600060a084860312156123e057600080fd5b833592506123f1856020860161235e565b91506123ff60808501612128565b90509250925092565b6000806040838503121561241b57600080fd5b82359150602083013561242d8161216b565b809150509250929050565b60006020828403121561244a57600080fd5b5035919050565b6000806040838503121561246457600080fd5b50508035926020909101359150565b60005b8381101561248e578181015183820152602001612476565b50506000910152565b600081518084526124af816020860160208601612473565b601f017fffffffffffffffffffffffffffffffffffffffffffffffffffffffffffffffe0169290920160200192915050565b602081526000610b9d6020830184612497565b600080600060a0848603121561250957600080fd5b612513858561235e565b9250606084013567ffffffffffffffff81111561252f57600080fd5b61253b86828701612280565b9250506123ff60808501612128565b6080810161259b82858051825273ffffffffffffffffffffffffffffffffffffffff602082015116602083015273ffffffffffffffffffffffffffffffffffffffff60408201511660408301525050565b61ffff831660608301529392505050565b600181811c908216806125c057607f821691505b6020821081036125f9577f4e487b7100000000000000000000000000000000000000000000000000000000600052602260045260246000fd5b50919050565b601f821115611cd857806000526020600020601f840160051c810160208510156126265750805b601f840160051c820191505b818110156126465760008155600101612632565b5050505050565b815167ffffffffffffffff811115612667576126676121b9565b61267b8161267584546125ac565b846125ff565b6020601f8211600181146126cd57600083156126975750848201515b7fffffffffffffffffffffffffffffffffffffffffffffffffffffffffffffffff600385901b1c1916600184901b178455612646565b6000848152602081207fffffffffffffffffffffffffffffffffffffffffffffffffffffffffffffffe08516915b8281101561271b57878501518255602094850194600190920191016126fb565b508482101561275757868401517fffffffffffffffffffffffffffffffffffffffffffffffffffffffffffffffff600387901b60f8161c191681555b50505050600190811b01905550565b7f4e487b7100000000000000000000000000000000000000000000000000000000600052601160045260246000fd5b60007fffffffffffffffffffffffffffffffffffffffffffffffffffffffffffffffff82036127c6576127c6612766565b5060010190565b8281526040602082015260006127e66040830184612497565b949350505050565b6060810161087382848051825273ffffffffffffffffffffffffffffffffffffffff602082015116602083015273ffffffffffffffffffffffffffffffffffffffff60408201511660408301525050565b60008161284e5761284e612766565b507fffffffffffffffffffffffffffffffffffffffffffffffffffffffffffffffff0190565b60008251612886818460208701612473565b9190910192915050565b600080835461289e816125ac565b6001821680156128b557600181146128e857612918565b7fffffffffffffffffffffffffffffffffffffffffffffffffffffffffffffff0083168652811515820286019350612918565b86600052602060002060005b83811015612910578154888201526001909101906020016128f4565b505081860193505b509195945050505050565b60006020828403121561293557600080fd5b505191905056fea2646970667358221220be321e78255217e8de1d79e87d41f9751dc273d0fff864cad3b2f32b086deda064736f6c634300081c0033","linkReferences":{}},"methodIdentifiers":{"MAX_FULFILLMENT_FEE_BASIS_POINTS()":"8ba6bf84","UPGRADE_INTERFACE_VERSION()":"ad3cb1cc","_fulfillerServiceCount(address)":"4eeebbd7","_fulfillerServices(address,uint256)":"4c770b58","_manager()":"f0329f6b","_serviceCount()":"1147883f","_serviceFulfillmentFeeBasisPoints(uint256)":"6c07360a","_serviceRefCount(uint256)":"eddef58e","_serviceRefs(uint256,uint256)":"79a22c20","_serviceRegistry(uint256)":"a9a6b305","addFulfiller(address,uint256)":"b34755ac","addService(uint256,(uint256,address,address),uint16)":"4f38e258","addServiceRef(uint256,string)":"3f8a7fe0","addServiceRefV2((uint256,address,address),string,uint16)":"9c27778d","canFulfillerFulfill(address,uint256)":"1b9c660b","getService(uint256)":"ef0e239b","initialize(address)":"c4d66de8","isRefValid(uint256,string)":"d4a24703","owner()":"8da5cb5b","proxiableUUID()":"52d1902d","removeServiceAddress(uint256)":"9f660697","renounceOwnership()":"715018a6","setManager(address)":"d0ebdbe7","transferOwnership(address)":"f2fde38b","updateServiceBeneficiary(uint256,address)":"8b82ba78","updateServiceBeneficiaryV1_1(uint256,address)":"5d14d827","updateServiceFulfiller(uint256,address)":"fb31fe80","updateServiceFulfillerV1_1(uint256,address)":"d848f68a","updateServicefeeAmountBasisPoints(uint256,uint16)":"0cf4e14c","updateServicefeeAmountBasisPointsV1_1(uint256,uint16)":"aa75fba8","upgradeToAndCall(address,bytes)":"4f1ef286"},"id":23}