{"abi":[{"type":"function","name":"MAX_FULFILLMENT_FEE_BASIS_POINTS","inputs":[],"outputs":[{"name":"","type":"uint16","internalType":"uint16"}],"stateMutability":"view"},{"type":"function","name":"UPGRADE_INTERFACE_VERSION","inputs":[],"outputs":[{"name":"","type":"string","internalType":"string"}],"stateMutability":"view"},{"type":"function","name":"_fulfillerServiceCount","inputs":[{"name":"","type":"address","internalType":"address"}],"outputs":[{"name":"","type":"uint256","internalType":"uint256"}],"stateMutability":"view"},{"type":"function","name":"_fulfillerServices","inputs":[{"name":"","type":"address","internalType":"address"},{"name":"","type":"uint256","internalType":"uint256"}],"outputs":[{"name":"","type":"bool","internalType":"bool"}],"stateMutability":"view"},{"type":"function","name":"_manager","inputs":[],"outputs":[{"name":"","type":"address","internalType":"address"}],"stateMutability":"view"},{"type":"function","name":"_serviceCount","inputs":[],"outputs":[{"name":"","type":"uint256","internalType":"uint256"}],"stateMutability":"view"},{"type":"function","name":"_serviceFulfillmentFeeBasisPoints","inputs":[{"name":"","type":"uint256","internalType":"uint256"}],"outputs":[{"name":"","type":"uint16","internalType":"uint16"}],"stateMutability":"view"},{"type":"function","name":"_serviceRefCount","inputs":[{"name":"","type":"uint256","internalType":"uint256"}],"outputs":[{"name":"","type":"uint256","internalType":"uint256"}],"stateMutability":"view"},{"type":"function","name":"_serviceRefs","inputs":[{"name":"","type":"uint256","internalType":"uint256"},{"name":"","type":"uint256","internalType":"uint256"}],"outputs":[{"name":"","type":"string","internalType":"string"}],"stateMutability":"view"},{"type":"function","name":"_serviceRegistry","inputs":[{"name":"","type":"uint256","internalType":"uint256"}],"outputs":[{"name":"serviceId","type":"uint256","internalType":"uint256"},{"name":"beneficiary","type":"address","internalType":"address payable"},{"name":"fulfiller","type":"address","internalType":"address"}],"stateMutability":"view"},{"type":"function","name":"addFulfiller","inputs":[{"name":"fulfiller","type":"address","internalType":"address"},{"name":"serviceID","type":"uint256","internalType":"uint256"}],"outputs":[],"stateMutability":"nonpayable"},{"type":"function","name":"addService","inputs":[{"name":"serviceId","type":"uint256","internalType":"uint256"},{"name":"service","type":"tuple","internalType":"struct Service","components":[{"name":"serviceId","type":"uint256","internalType":"uint256"},{"name":"beneficiary","type":"address","internalType":"address payable"},{"name":"fulfiller","type":"address","internalType":"address"}]},{"name":"fulfillmentFeeBasisPoints","type":"uint16","internalType":"uint16"}],"outputs":[{"name":"","type":"bool","internalType":"bool"}],"stateMutability":"nonpayable"},{"type":"function","name":"addServiceRef","inputs":[{"name":"serviceId","type":"uint256","internalType":"uint256"},{"name":"ref","type":"string","internalType":"string"}],"outputs":[],"stateMutability":"nonpayable"},{"type":"function","name":"canFulfillerFulfill","inputs":[{"name":"fulfiller","type":"address","internalType":"address"},{"name":"serviceId","type":"uint256","internalType":"uint256"}],"outputs":[{"name":"","type":"bool","internalType":"bool"}],"stateMutability":"view"},{"type":"function","name":"getService","inputs":[{"name":"serviceId","type":"uint256","internalType":"uint256"}],"outputs":[{"name":"","type":"tuple","internalType":"struct Service","components":[{"name":"serviceId","type":"uint256","internalType":"uint256"},{"name":"beneficiary","type":"address","internalType":"address payable"},{"name":"fulfiller","type":"address","internalType":"address"}]},{"name":"","type":"uint16","internalType":"uint16"}],"stateMutability":"view"},{"type":"function","name":"initialize","inputs":[{"name":"initialOwner","type":"address","internalType":"address"}],"outputs":[],"stateMutability":"nonpayable"},{"type":"function","name":"isRefValid","inputs":[{"name":"serviceId","type":"uint256","internalType":"uint256"},{"name":"ref","type":"string","internalType":"string"}],"outputs":[{"name":"","type":"bool","internalType":"bool"}],"stateMutability":"view"},{"type":"function","name":"owner","inputs":[],"outputs":[{"name":"","type":"address","internalType":"address"}],"stateMutability":"view"},{"type":"function","name":"proxiableUUID","inputs":[],"outputs":[{"name":"","type":"bytes32","internalType":"bytes32"}],"stateMutability":"view"},{"type":"function","name":"removeServiceAddress","inputs":[{"name":"serviceId","type":"uint256","internalType":"uint256"}],"outputs":[],"stateMutability":"nonpayable"},{"type":"function","name":"renounceOwnership","inputs":[],"outputs":[],"stateMutability":"nonpayable"},{"type":"function","name":"setManager","inputs":[{"name":"manager_","type":"address","internalType":"address"}],"outputs":[],"stateMutability":"nonpayable"},{"type":"function","name":"transferOwnership","inputs":[{"name":"newOwner","type":"address","internalType":"address"}],"outputs":[],"stateMutability":"nonpayable"},{"type":"function","name":"updateServiceBeneficiary","inputs":[{"name":"serviceId","type":"uint256","internalType":"uint256"},{"name":"newBeneficiary","type":"address","internalType":"address payable"}],"outputs":[],"stateMutability":"nonpayable"},{"type":"function","name":"updateServiceBeneficiaryV1_1","inputs":[{"name":"serviceId","type":"uint256","internalType":"uint256"},{"name":"newBeneficiary","type":"address","internalType":"address payable"}],"outputs":[],"stateMutability":"nonpayable"},{"type":"function","name":"updateServiceFulfiller","inputs":[{"name":"serviceId","type":"uint256","internalType":"uint256"},{"name":"newFulfiller","type":"address","internalType":"address"}],"outputs":[],"stateMutability":"nonpayable"},{"type":"function","name":"updateServiceFulfillerV1_1","inputs":[{"name":"serviceId","type":"uint256","internalType":"uint256"},{"name":"newFulfiller","type":"address","internalType":"address"}],"outputs":[],"stateMutability":"nonpayable"},{"type":"function","name":"updateServicefeeAmountBasisPoints","inputs":[{"name":"serviceId","type":"uint256","internalType":"uint256"},{"name":"newfeeAmountBasisPoints","type":"uint16","internalType":"uint16"}],"outputs":[],"stateMutability":"nonpayable"},{"type":"function","name":"updateServicefeeAmountBasisPointsV1_1","inputs":[{"name":"serviceId","type":"uint256","internalType":"uint256"},{"name":"newfeeAmountBasisPoints","type":"uint16","internalType":"uint16"}],"outputs":[],"stateMutability":"nonpayable"},{"type":"function","name":"upgradeToAndCall","inputs":[{"name":"newImplementation","type":"address","internalType":"address"},{"name":"data","type":"bytes","internalType":"bytes"}],"outputs":[],"stateMutability":"payable"},{"type":"event","name":"FulfillerAdded","inputs":[{"name":"fulfiller","type":"address","indexed":false,"internalType":"address"},{"name":"serviceID","type":"uint256","indexed":false,"internalType":"uint256"}],"anonymous":false},{"type":"event","name":"Initialized","inputs":[{"name":"version","type":"uint64","indexed":false,"internalType":"uint64"}],"anonymous":false},{"type":"event","name":"ManagerUpdated","inputs":[{"name":"manager","type":"address","indexed":true,"internalType":"address"}],"anonymous":false},{"type":"event","name":"OwnershipTransferred","inputs":[{"name":"previousOwner","type":"address","indexed":true,"internalType":"address"},{"name":"newOwner","type":"address","indexed":true,"internalType":"address"}],"anonymous":false},{"type":"event","name":"ServiceAdded","inputs":[{"name":"serviceID","type":"uint256","indexed":false,"internalType":"uint256"},{"name":"fulfiller","type":"address","indexed":true,"internalType":"address"}],"anonymous":false},{"type":"event","name":"ServiceBeneficiaryUpdated","inputs":[{"name":"serviceID","type":"uint256","indexed":false,"internalType":"uint256"},{"name":"beneficiary","type":"address","indexed":false,"internalType":"address"}],"anonymous":false},{"type":"event","name":"ServiceFulfillerUpdated","inputs":[{"name":"serviceID","type":"uint256","indexed":false,"internalType":"uint256"},{"name":"fulfiller","type":"address","indexed":false,"internalType":"address"}],"anonymous":false},{"type":"event","name":"ServiceFulfillmentFeeSet","inputs":[{"name":"serviceID","type":"uint256","indexed":false,"internalType":"uint256"},{"name":"fulfillmentFeeBasisPoints","type":"uint16","indexed":false,"internalType":"uint16"}],"anonymous":false},{"type":"event","name":"ServiceRefAdded","inputs":[{"name":"serviceID","type":"uint256","indexed":false,"internalType":"uint256"},{"name":"ref","type":"string","indexed":false,"internalType":"string"}],"anonymous":false},{"type":"event","name":"ServiceRemoved","inputs":[{"name":"serviceID","type":"uint256","indexed":false,"internalType":"uint256"}],"anonymous":false},{"type":"event","name":"Upgraded","inputs":[{"name":"implementation","type":"address","indexed":true,"internalType":"address"}],"anonymous":false},{"type":"error","name":"AddressEmptyCode","inputs":[{"name":"target","type":"address","internalType":"address"}]},{"type":"error","name":"ERC1967InvalidImplementation","inputs":[{"name":"implementation","type":"address","internalType":"address"}]},{"type":"error","name":"ERC1967NonPayable","inputs":[]},{"type":"error","name":"FailedInnerCall","inputs":[]},{"type":"error","name":"InvalidAddress","inputs":[{"name":"_address","type":"address","internalType":"address"}]},{"type":"error","name":"InvalidCaller","inputs":[{"name":"caller","type":"address","internalType":"address"}]},{"type":"error","name":"InvalidInitialization","inputs":[]},{"type":"error","name":"InvalidfeeAmountBasisPoints","inputs":[{"name":"feeAmountBasisPoints","type":"uint16","internalType":"uint16"}]},{"type":"error","name":"NotInitializing","inputs":[]},{"type":"error","name":"OwnableInvalidOwner","inputs":[{"name":"owner","type":"address","internalType":"address"}]},{"type":"error","name":"OwnableUnauthorizedAccount","inputs":[{"name":"account","type":"address","internalType":"address"}]},{"type":"error","name":"ServiceAlreadyExists","inputs":[{"name":"serviceID","type":"uint256","internalType":"uint256"}]},{"type":"error","name":"ServiceDoesNotExist","inputs":[{"name":"serviceID","type":"uint256","internalType":"uint256"}]},{"type":"error","name":"UUPSUnauthorizedCallContext","inputs":[]},{"type":"error","name":"UUPSUnsupportedProxiableUUID","inputs":[{"name":"slot","type":"bytes32","internalType":"bytes32"}]}],"bytecode":{"object":"0x60a06040523060805234801561001457600080fd5b5061001d610022565b6100d4565b7ff0c57e16840df040f15088dc2f81fe391c3923bec73e23a9662efc9c229c6a00805468010000000000000000900460ff16156100725760405163f92ee8a960e01b815260040160405180910390fd5b80546001600160401b03908116146100d15780546001600160401b0319166001600160401b0390811782556040519081527fc7f505b2f371ae2175ee4913f4499e1f2633a7b5936321eed1cdaeb6115181d29060200160405180910390a15b50565b6080516125186100fd6000396000818161177b015281816117a401526119c501526125186000f3fe6080604052600436106101cd5760003560e01c80638da5cb5b116100f7578063d0ebdbe711610095578063ef0e239b11610064578063ef0e239b14610641578063f0329f6b146106aa578063f2fde38b146106d7578063fb31fe80146106f757600080fd5b8063d0ebdbe7146105b4578063d4a24703146105d4578063d848f68a146105f4578063eddef58e1461061457600080fd5b8063aa75fba8116100d1578063aa75fba81461050b578063ad3cb1cc1461052b578063b34755ac14610574578063c4d66de81461059457600080fd5b80638da5cb5b146103f95780639f66069714610464578063a9a6b3051461048457600080fd5b80634f38e2581161016f578063715018a61161013e578063715018a61461038157806379a22c20146103965780638b82ba78146103c35780638ba6bf84146103e357600080fd5b80634f38e258146102e857806352d1902d146103085780635d14d8271461031d5780636c07360a1461033d57600080fd5b80633f8a7fe0116101ab5780633f8a7fe01461024d5780634c770b581461026d5780634eeebbd7146102a85780634f1ef286146102d557600080fd5b80630cf4e14c146101d25780631147883f146101f45780631b9c660b1461021d575b600080fd5b3480156101de57600080fd5b506101f26101ed366004611e0f565b610717565b005b34801561020057600080fd5b5061020a60065481565b6040519081526020015b60405180910390f35b34801561022957600080fd5b5061023d610238366004611e5d565b61084e565b6040519015158152602001610214565b34801561025957600080fd5b506101f2610268366004611f50565b610889565b34801561027957600080fd5b5061023d610288366004611e5d565b600460209081526000928352604080842090915290825290205460ff1681565b3480156102b457600080fd5b5061020a6102c3366004611fab565b60056020526000908152604090205481565b6101f26102e3366004611fc8565b6109c7565b3480156102f457600080fd5b5061023d610303366004612002565b6109e6565b34801561031457600080fd5b5061020a610bb4565b34801561032957600080fd5b506101f26103383660046120b7565b610be3565b34801561034957600080fd5b5061036e6103583660046120e7565b60026020526000908152604090205461ffff1681565b60405161ffff9091168152602001610214565b34801561038d57600080fd5b506101f2610d61565b3480156103a257600080fd5b506103b66103b1366004612100565b610d75565b6040516102149190612190565b3480156103cf57600080fd5b506101f26103de3660046120b7565b610e1a565b3480156103ef57600080fd5b5061036e61271081565b34801561040557600080fd5b507f9016d09d72d40fdae2fd8ceac6b6234c7706214fd39c1cd1e609a0528c1993005473ffffffffffffffffffffffffffffffffffffffff165b60405173ffffffffffffffffffffffffffffffffffffffff9091168152602001610214565b34801561047057600080fd5b506101f261047f3660046120e7565b610e22565b34801561049057600080fd5b506104d961049f3660046120e7565b600060208190529081526040902080546001820154600290920154909173ffffffffffffffffffffffffffffffffffffffff908116911683565b6040805193845273ffffffffffffffffffffffffffffffffffffffff9283166020850152911690820152606001610214565b34801561051757600080fd5b506101f2610526366004611e0f565b610ebd565b34801561053757600080fd5b506103b66040518060400160405280600581526020017f352e302e3000000000000000000000000000000000000000000000000000000081525081565b34801561058057600080fd5b506101f261058f366004611e5d565b610f55565b3480156105a057600080fd5b506101f26105af366004611fab565b61108b565b3480156105c057600080fd5b506101f26105cf366004611fab565b611213565b3480156105e057600080fd5b5061023d6105ef366004611f50565b6112ef565b34801561060057600080fd5b506101f261060f3660046120b7565b6113aa565b34801561062057600080fd5b5061020a61062f3660046120e7565b60036020526000908152604090205481565b34801561064d57600080fd5b5061066161065c3660046120e7565b61158d565b604080518351815260208085015173ffffffffffffffffffffffffffffffffffffffff90811691830191909152938201519093169083015261ffff166060820152608001610214565b3480156106b657600080fd5b5060075461043f9073ffffffffffffffffffffffffffffffffffffffff1681565b3480156106e357600080fd5b506101f26106f2366004611fab565b61166d565b34801561070357600080fd5b506101f26107123660046120b7565b6116d1565b61071f6116d5565b60008281526020819052604090206002015473ffffffffffffffffffffffffffffffffffffffff16610785576040517ff0367891000000000000000000000000000000000000000000000000000000008152600481018390526024015b60405180910390fd5b61271061ffff82161180610797575060005b156107d4576040517f12bfb11500000000000000000000000000000000000000000000000000000000815261ffff8216600482015260240161077c565b60008281526002602090815260409182902080547fffffffffffffffffffffffffffffffffffffffffffffffffffffffffffff00001661ffff85169081179091558251858152918201527f85840a9d35b5de84014fcdba5ea1b1198cd5a1de1bf18c962406c49d23611bea91015b60405180910390a15050565b73ffffffffffffffffffffffffffffffffffffffff8216600090815260046020908152604080832084845290915290205460ff165b92915050565b60075473ffffffffffffffffffffffffffffffffffffffff1633146108dc576040517f8e4c8aa600000000000000000000000000000000000000000000000000000000815233600482015260240161077c565b60008281526020819052604090206002015473ffffffffffffffffffffffffffffffffffffffff1661093d576040517ff03678910000000000000000000000000000000000000000000000000000000081526004810183905260240161077c565b600082815260036020908152604080832054600183528184208185529092529091206109698382612244565b5060008381526003602052604081208054916109848361238c565b91905055507f3d22cb787e98f99f58d9865d1e965daea18c8a54e5c3554983fb80eb4d6cdf8d83836040516109ba9291906123c4565b60405180910390a1505050565b6109cf611763565b6109d882611867565b6109e2828261186f565b5050565b60075460009073ffffffffffffffffffffffffffffffffffffffff163314610a3c576040517f8e4c8aa600000000000000000000000000000000000000000000000000000000815233600482015260240161077c565b60008481526020819052604090206002015473ffffffffffffffffffffffffffffffffffffffff1615610a9e576040517ff4d3daa70000000000000000000000000000000000000000000000000000000081526004810185905260240161077c565b600084815260208181526040808320865181558287015160018201805473ffffffffffffffffffffffffffffffffffffffff9283167fffffffffffffffffffffffff00000000000000000000000000000000000000009182161790915583890151600293840180549190931691161790559091528120805461ffff85167fffffffffffffffffffffffffffffffffffffffffffffffffffffffffffff00009091161790556006805491610b508361238c565b9190505550826040015173ffffffffffffffffffffffffffffffffffffffff167fff6cb4f77c0e74b5150dcce6b081605e74c6ac834288a634eecb40278f532de185604051610ba191815260200190565b60405180910390a25060015b9392505050565b6000610bbe6119ad565b507f360894a13ba1a3210667c828492db98dca3e2076cc3735a920a3ca505d382bbc90565b7f9016d09d72d40fdae2fd8ceac6b6234c7706214fd39c1cd1e609a0528c1993005473ffffffffffffffffffffffffffffffffffffffff163314801590610c42575060075473ffffffffffffffffffffffffffffffffffffffff163314155b15610c7b576040517fcbd9d2e000000000000000000000000000000000000000000000000000000000815233600482015260240161077c565b60008281526020819052604090206002015473ffffffffffffffffffffffffffffffffffffffff16610cdc576040517ff03678910000000000000000000000000000000000000000000000000000000081526004810183905260240161077c565b6000828152602081815260409182902060010180547fffffffffffffffffffffffff00000000000000000000000000000000000000001673ffffffffffffffffffffffffffffffffffffffff85169081179091558251858152918201527f7bd964778153a6020aa8affac0ee17eb8010f8773f90096178c7690bfb80f9369101610842565b610d696116d5565b610d736000611a1c565b565b600160209081526000928352604080842090915290825290208054610d99906121a3565b80601f0160208091040260200160405190810160405280929190818152602001828054610dc5906121a3565b8015610e125780601f10610de757610100808354040283529160200191610e12565b820191906000526020600020905b815481529060010190602001808311610df557829003601f168201915b505050505081565b610c7b6116d5565b610e2a6116d5565b60008181526020819052604081208181556001810180547fffffffffffffffffffffffff00000000000000000000000000000000000000009081169091556002909101805490911690556006805491610e82836123e5565b90915550506040518181527f419a91c001167ea76233ed548fd1a02c21b5b63f8b6eaa7dd5747aac879148929060200160405180910390a150565b7f9016d09d72d40fdae2fd8ceac6b6234c7706214fd39c1cd1e609a0528c1993005473ffffffffffffffffffffffffffffffffffffffff163314801590610f1c575060075473ffffffffffffffffffffffffffffffffffffffff163314155b1561071f576040517fcbd9d2e000000000000000000000000000000000000000000000000000000000815233600482015260240161077c565b610f5d6116d5565b73ffffffffffffffffffffffffffffffffffffffff8216600090815260046020908152604080832084845290915290205460ff1615610fcb576040517ff4d3daa70000000000000000000000000000000000000000000000000000000081526004810182905260240161077c565b73ffffffffffffffffffffffffffffffffffffffff82166000818152600460209081526040808320858452825280832080547fffffffffffffffffffffffffffffffffffffffffffffffffffffffffffffff001660011790559282526005905290812080549161103a8361238c565b90915550506040805173ffffffffffffffffffffffffffffffffffffffff84168152602081018390527ffbfe2ea6c1f3e71357b116d3d22f11f52e35640a7711fa48949a83806d6e9fd29101610842565b7ff0c57e16840df040f15088dc2f81fe391c3923bec73e23a9662efc9c229c6a00805468010000000000000000810460ff16159067ffffffffffffffff166000811580156110d65750825b905060008267ffffffffffffffff1660011480156110f35750303b155b905081158015611101575080155b15611138576040517ff92ee8a900000000000000000000000000000000000000000000000000000000815260040160405180910390fd5b84547fffffffffffffffffffffffffffffffffffffffffffffffff000000000000000016600117855583156111995784547fffffffffffffffffffffffffffffffffffffffffffffff00ffffffffffffffff16680100000000000000001785555b6111a1611ab2565b6111aa86611aba565b831561120b5784547fffffffffffffffffffffffffffffffffffffffffffffff00ffffffffffffffff168555604051600181527fc7f505b2f371ae2175ee4913f4499e1f2633a7b5936321eed1cdaeb6115181d29060200160405180910390a15b505050505050565b61121b6116d5565b73ffffffffffffffffffffffffffffffffffffffff8116611280576040517f8e4c8aa600000000000000000000000000000000000000000000000000000000815273ffffffffffffffffffffffffffffffffffffffff8216600482015260240161077c565b600780547fffffffffffffffffffffffff00000000000000000000000000000000000000001673ffffffffffffffffffffffffffffffffffffffff83169081179091556040517f2c1c11af44aa5608f1dca38c00275c30ea091e02417d36e70e9a1538689c433d90600090a250565b600082815260036020526040812054815b8181101561139f5783604051602001611319919061241a565b604080517fffffffffffffffffffffffffffffffffffffffffffffffffffffffffffffffe081840301815282825280516020918201206000898152600183528381208682528352929092209192611371929101612436565b604051602081830303815290604052805190602001200361139757600192505050610883565b600101611300565b506000949350505050565b7f9016d09d72d40fdae2fd8ceac6b6234c7706214fd39c1cd1e609a0528c1993005473ffffffffffffffffffffffffffffffffffffffff163314801590611409575060075473ffffffffffffffffffffffffffffffffffffffff163314155b15611442576040517fcbd9d2e000000000000000000000000000000000000000000000000000000000815233600482015260240161077c565b73ffffffffffffffffffffffffffffffffffffffff81166114a7576040517f8e4c8aa600000000000000000000000000000000000000000000000000000000815273ffffffffffffffffffffffffffffffffffffffff8216600482015260240161077c565b60008281526020819052604090206002015473ffffffffffffffffffffffffffffffffffffffff16611508576040517ff03678910000000000000000000000000000000000000000000000000000000081526004810183905260240161077c565b6000828152602081815260409182902060020180547fffffffffffffffffffffffff00000000000000000000000000000000000000001673ffffffffffffffffffffffffffffffffffffffff85169081179091558251858152918201527f54de289ae1a4d5208ffcf4486ace708e85bd33826931299723cc9bcb5f69ca689101610842565b604080516060810182526000808252602082018190529181019190915260008281526020819052604081206002015473ffffffffffffffffffffffffffffffffffffffff1661160b576040517ff03678910000000000000000000000000000000000000000000000000000000081526004810184905260240161077c565b505060009081526020818152604080832060028084529382902054825160608101845282548152600183015473ffffffffffffffffffffffffffffffffffffffff90811695820195909552949091015490921690830152909161ffff90911690565b6116756116d5565b73ffffffffffffffffffffffffffffffffffffffff81166116c5576040517f1e4fbdf70000000000000000000000000000000000000000000000000000000081526000600482015260240161077c565b6116ce81611a1c565b50565b6114425b336117147f9016d09d72d40fdae2fd8ceac6b6234c7706214fd39c1cd1e609a0528c1993005473ffffffffffffffffffffffffffffffffffffffff1690565b73ffffffffffffffffffffffffffffffffffffffff1614610d73576040517f118cdaa700000000000000000000000000000000000000000000000000000000815233600482015260240161077c565b3073ffffffffffffffffffffffffffffffffffffffff7f000000000000000000000000000000000000000000000000000000000000000016148061183057507f000000000000000000000000000000000000000000000000000000000000000073ffffffffffffffffffffffffffffffffffffffff166118177f360894a13ba1a3210667c828492db98dca3e2076cc3735a920a3ca505d382bbc5473ffffffffffffffffffffffffffffffffffffffff1690565b73ffffffffffffffffffffffffffffffffffffffff1614155b15610d73576040517fe07c8dba00000000000000000000000000000000000000000000000000000000815260040160405180910390fd5b6116ce6116d5565b8173ffffffffffffffffffffffffffffffffffffffff166352d1902d6040518163ffffffff1660e01b8152600401602060405180830381865afa9250505080156118f4575060408051601f3d9081017fffffffffffffffffffffffffffffffffffffffffffffffffffffffffffffffe01682019092526118f1918101906124c9565b60015b611942576040517f4c9c8ce300000000000000000000000000000000000000000000000000000000815273ffffffffffffffffffffffffffffffffffffffff8316600482015260240161077c565b7f360894a13ba1a3210667c828492db98dca3e2076cc3735a920a3ca505d382bbc811461199e576040517faa1d49a40000000000000000000000000000000000000000000000000000000081526004810182905260240161077c565b6119a88383611acb565b505050565b3073ffffffffffffffffffffffffffffffffffffffff7f00000000000000000000000000000000000000000000000000000000000000001614610d73576040517fe07c8dba00000000000000000000000000000000000000000000000000000000815260040160405180910390fd5b7f9016d09d72d40fdae2fd8ceac6b6234c7706214fd39c1cd1e609a0528c19930080547fffffffffffffffffffffffff0000000000000000000000000000000000000000811673ffffffffffffffffffffffffffffffffffffffff848116918217845560405192169182907f8be0079c531659141344cd1fd0a4f28419497f9722a3daafe3b4186f6b6457e090600090a3505050565b610d73611b2e565b611ac2611b2e565b6116ce81611b95565b611ad482611b9d565b60405173ffffffffffffffffffffffffffffffffffffffff8316907fbc7cd75a20ee27fd9adebab32041f755214dbc6bffa90cc0225b39da2e5c2d3b90600090a2805115611b26576119a88282611c6c565b6109e2611cef565b7ff0c57e16840df040f15088dc2f81fe391c3923bec73e23a9662efc9c229c6a005468010000000000000000900460ff16610d73576040517fd7e6bcf800000000000000000000000000000000000000000000000000000000815260040160405180910390fd5b611675611b2e565b8073ffffffffffffffffffffffffffffffffffffffff163b600003611c06576040517f4c9c8ce300000000000000000000000000000000000000000000000000000000815273ffffffffffffffffffffffffffffffffffffffff8216600482015260240161077c565b7f360894a13ba1a3210667c828492db98dca3e2076cc3735a920a3ca505d382bbc80547fffffffffffffffffffffffff00000000000000000000000000000000000000001673ffffffffffffffffffffffffffffffffffffffff92909216919091179055565b60606000808473ffffffffffffffffffffffffffffffffffffffff1684604051611c96919061241a565b600060405180830381855af49150503d8060008114611cd1576040519150601f19603f3d011682016040523d82523d6000602084013e611cd6565b606091505b5091509150611ce6858383611d27565b95945050505050565b3415610d73576040517fb398979f00000000000000000000000000000000000000000000000000000000815260040160405180910390fd5b606082611d3c57611d3782611db6565b610bad565b8151158015611d60575073ffffffffffffffffffffffffffffffffffffffff84163b155b15611daf576040517f9996b31500000000000000000000000000000000000000000000000000000000815273ffffffffffffffffffffffffffffffffffffffff8516600482015260240161077c565b5080610bad565b805115611dc65780518082602001fd5b6040517f1425ea4200000000000000000000000000000000000000000000000000000000815260040160405180910390fd5b803561ffff81168114611e0a57600080fd5b919050565b60008060408385031215611e2257600080fd5b82359150611e3260208401611df8565b90509250929050565b73ffffffffffffffffffffffffffffffffffffffff811681146116ce57600080fd5b60008060408385031215611e7057600080fd5b8235611e7b81611e3b565b946020939093013593505050565b7f4e487b7100000000000000000000000000000000000000000000000000000000600052604160045260246000fd5b60008067ffffffffffffffff841115611ed357611ed3611e89565b506040517fffffffffffffffffffffffffffffffffffffffffffffffffffffffffffffffe0601f85018116603f0116810181811067ffffffffffffffff82111715611f2057611f20611e89565b604052838152905080828401851015611f3857600080fd5b83836020830137600060208583010152509392505050565b60008060408385031215611f6357600080fd5b82359150602083013567ffffffffffffffff811115611f8157600080fd5b8301601f81018513611f9257600080fd5b611fa185823560208401611eb8565b9150509250929050565b600060208284031215611fbd57600080fd5b8135610bad81611e3b565b60008060408385031215611fdb57600080fd5b8235611fe681611e3b565b9150602083013567ffffffffffffffff811115611f8157600080fd5b600080600083850360a081121561201857600080fd5b8435935060607fffffffffffffffffffffffffffffffffffffffffffffffffffffffffffffffe08201121561204c57600080fd5b506040516060810167ffffffffffffffff8111828210171561207057612070611e89565b60409081526020860135825285013561208881611e3b565b6020820152606085013561209b81611e3b565b604082015291506120ae60808501611df8565b90509250925092565b600080604083850312156120ca57600080fd5b8235915060208301356120dc81611e3b565b809150509250929050565b6000602082840312156120f957600080fd5b5035919050565b6000806040838503121561211357600080fd5b50508035926020909101359150565b60005b8381101561213d578181015183820152602001612125565b50506000910152565b6000815180845261215e816020860160208601612122565b601f017fffffffffffffffffffffffffffffffffffffffffffffffffffffffffffffffe0169290920160200192915050565b602081526000610bad6020830184612146565b600181811c908216806121b757607f821691505b6020821081036121f0577f4e487b7100000000000000000000000000000000000000000000000000000000600052602260045260246000fd5b50919050565b601f8211156119a857806000526020600020601f840160051c8101602085101561221d5750805b601f840160051c820191505b8181101561223d5760008155600101612229565b5050505050565b815167ffffffffffffffff81111561225e5761225e611e89565b6122728161226c84546121a3565b846121f6565b6020601f8211600181146122c4576000831561228e5750848201515b7fffffffffffffffffffffffffffffffffffffffffffffffffffffffffffffffff600385901b1c1916600184901b17845561223d565b6000848152602081207fffffffffffffffffffffffffffffffffffffffffffffffffffffffffffffffe08516915b8281101561231257878501518255602094850194600190920191016122f2565b508482101561234e57868401517fffffffffffffffffffffffffffffffffffffffffffffffffffffffffffffffff600387901b60f8161c191681555b50505050600190811b01905550565b7f4e487b7100000000000000000000000000000000000000000000000000000000600052601160045260246000fd5b60007fffffffffffffffffffffffffffffffffffffffffffffffffffffffffffffffff82036123bd576123bd61235d565b5060010190565b8281526040602082015260006123dd6040830184612146565b949350505050565b6000816123f4576123f461235d565b507fffffffffffffffffffffffffffffffffffffffffffffffffffffffffffffffff0190565b6000825161242c818460208701612122565b9190910192915050565b6000808354612444816121a3565b60018216801561245b576001811461248e576124be565b7fffffffffffffffffffffffffffffffffffffffffffffffffffffffffffffff00831686528115158202860193506124be565b86600052602060002060005b838110156124b65781548882015260019091019060200161249a565b505081860193505b509195945050505050565b6000602082840312156124db57600080fd5b505191905056fea26469706673582212204d93db92cf3d7359e2b8cc0d8e3988362e316ffc07b23ec971e442ffd9a57ef064736f6c634300081c0033","linkReferences":{}},"methodIdentifiers":{"MAX_FULFILLMENT_FEE_BASIS_POINTS()":"8ba6bf84","UPGRADE_INTERFACE_VERSION()":"ad3cb1cc","_fulfillerServiceCount(address)":"4eeebbd7","_fulfillerServices(address,uint256)":"4c770b58","_manager()":"f0329f6b","_serviceCount()":"1147883f","_serviceFulfillmentFeeBasisPoints(uint256)":"6c07360a","_serviceRefCount(uint256)":"eddef58e","_serviceRefs(uint256,uint256)":"79a22c20","_serviceRegistry(uint256)":"a9a6b305","addFulfiller(address,uint256)":"b34755ac","addService(uint256,(uint256,address,address),uint16)":"4f38e258","addServiceRef(uint256,string)":"3f8a7fe0","canFulfillerFulfill(address,uint256)":"1b9c660b","getService(uint256)":"ef0e239b","initialize(address)":"c4d66de8","isRefValid(uint256,string)":"d4a24703","owner()":"8da5cb5b","proxiableUUID()":"52d1902d","removeServiceAddress(uint256)":"9f660697","renounceOwnership()":"715018a6","setManager(address)":"d0ebdbe7","transferOwnership(address)":"f2fde38b","updateServiceBeneficiary(uint256,address)":"8b82ba78","updateServiceBeneficiaryV1_1(uint256,address)":"5d14d827","updateServiceFulfiller(uint256,address)":"fb31fe80","updateServiceFulfillerV1_1(uint256,address)":"d848f68a","updateServicefeeAmountBasisPoints(uint256,uint16)":"0cf4e14c","updateServicefeeAmountBasisPointsV1_1(uint256,uint16)":"aa75fba8","upgradeToAndCall(address,bytes)":"4f1ef286"},"id":22}