{"abi":[{"type":"constructor","inputs":[],"stateMutability":"nonpayable"},{"type":"function","name":"UPGRADE_INTERFACE_VERSION","inputs":[],"outputs":[{"name":"","type":"string","internalType":"string"}],"stateMutability":"view"},{"type":"function","name":"_fulfillableRegistry","inputs":[],"outputs":[{"name":"","type":"address","internalType":"address"}],"stateMutability":"view"},{"type":"function","name":"_manager","inputs":[],"outputs":[{"name":"","type":"address","internalType":"address"}],"stateMutability":"view"},{"type":"function","name":"_router","inputs":[],"outputs":[{"name":"","type":"address","internalType":"address"}],"stateMutability":"view"},{"type":"function","name":"beneficiaryWithdraw","inputs":[{"name":"serviceID","type":"uint256","internalType":"uint256"},{"name":"token","type":"address","internalType":"address"}],"outputs":[],"stateMutability":"nonpayable"},{"type":"function","name":"depositERC20","inputs":[{"name":"serviceID","type":"uint256","internalType":"uint256"},{"name":"fulfillmentRequest","type":"tuple","internalType":"struct ERC20FulFillmentRequest","components":[{"name":"payer","type":"address","internalType":"address"},{"name":"fiatAmount","type":"uint256","internalType":"uint256"},{"name":"serviceRef","type":"string","internalType":"string"},{"name":"token","type":"address","internalType":"address"},{"name":"tokenAmount","type":"uint256","internalType":"uint256"}]},{"name":"feeAmount","type":"uint256","internalType":"uint256"}],"outputs":[],"stateMutability":"nonpayable"},{"type":"function","name":"getERC20DepositsFor","inputs":[{"name":"token","type":"address","internalType":"address"},{"name":"payer","type":"address","internalType":"address"},{"name":"serviceID","type":"uint256","internalType":"uint256"}],"outputs":[{"name":"amount","type":"uint256","internalType":"uint256"}],"stateMutability":"view"},{"type":"function","name":"getERC20FeesFor","inputs":[{"name":"token","type":"address","internalType":"address"},{"name":"serviceID","type":"uint256","internalType":"uint256"}],"outputs":[{"name":"amount","type":"uint256","internalType":"uint256"}],"stateMutability":"view"},{"type":"function","name":"getERC20RefundsFor","inputs":[{"name":"token","type":"address","internalType":"address"},{"name":"refundee","type":"address","internalType":"address"},{"name":"serviceID","type":"uint256","internalType":"uint256"}],"outputs":[{"name":"amount","type":"uint256","internalType":"uint256"}],"stateMutability":"view"},{"type":"function","name":"initialize","inputs":[],"outputs":[],"stateMutability":"nonpayable"},{"type":"function","name":"owner","inputs":[],"outputs":[{"name":"","type":"address","internalType":"address"}],"stateMutability":"view"},{"type":"function","name":"proxiableUUID","inputs":[],"outputs":[{"name":"","type":"bytes32","internalType":"bytes32"}],"stateMutability":"view"},{"type":"function","name":"record","inputs":[{"name":"id","type":"uint256","internalType":"uint256"}],"outputs":[{"name":"","type":"tuple","internalType":"struct ERC20FulFillmentRecord","components":[{"name":"id","type":"uint256","internalType":"uint256"},{"name":"serviceRef","type":"string","internalType":"string"},{"name":"fulfiller","type":"address","internalType":"address"},{"name":"token","type":"address","internalType":"address"},{"name":"externalID","type":"string","internalType":"string"},{"name":"payer","type":"address","internalType":"address"},{"name":"tokenAmount","type":"uint256","internalType":"uint256"},{"name":"feeAmount","type":"uint256","internalType":"uint256"},{"name":"fiatAmount","type":"uint256","internalType":"uint256"},{"name":"entryTime","type":"uint256","internalType":"uint256"},{"name":"receiptURI","type":"string","internalType":"string"},{"name":"status","type":"uint8","internalType":"enum FulFillmentResultState"}]}],"stateMutability":"view"},{"type":"function","name":"recordsOf","inputs":[{"name":"payer","type":"address","internalType":"address"}],"outputs":[{"name":"","type":"uint256[]","internalType":"uint256[]"}],"stateMutability":"view"},{"type":"function","name":"registerFulfillment","inputs":[{"name":"serviceID","type":"uint256","internalType":"uint256"},{"name":"fulfillment","type":"tuple","internalType":"struct FulFillmentResult","components":[{"name":"id","type":"uint256","internalType":"uint256"},{"name":"externalID","type":"string","internalType":"string"},{"name":"receiptURI","type":"string","internalType":"string"},{"name":"status","type":"uint8","internalType":"enum FulFillmentResultState"}]}],"outputs":[{"name":"","type":"bool","internalType":"bool"}],"stateMutability":"nonpayable"},{"type":"function","name":"renounceOwnership","inputs":[],"outputs":[],"stateMutability":"nonpayable"},{"type":"function","name":"setFulfillableRegistry","inputs":[{"name":"fulfillableRegistry_","type":"address","internalType":"address"}],"outputs":[],"stateMutability":"nonpayable"},{"type":"function","name":"setManager","inputs":[{"name":"manager_","type":"address","internalType":"address"}],"outputs":[],"stateMutability":"nonpayable"},{"type":"function","name":"setRouter","inputs":[{"name":"router_","type":"address","internalType":"address"}],"outputs":[],"stateMutability":"nonpayable"},{"type":"function","name":"transferOwnership","inputs":[{"name":"newOwner","type":"address","internalType":"address"}],"outputs":[],"stateMutability":"nonpayable"},{"type":"function","name":"upgradeToAndCall","inputs":[{"name":"newImplementation","type":"address","internalType":"address"},{"name":"data","type":"bytes","internalType":"bytes"}],"outputs":[],"stateMutability":"payable"},{"type":"function","name":"withdrawAccumulatedFees","inputs":[{"name":"serviceId","type":"uint256","internalType":"uint256"},{"name":"token","type":"address","internalType":"address"}],"outputs":[],"stateMutability":"nonpayable"},{"type":"function","name":"withdrawERC20Refund","inputs":[{"name":"serviceID","type":"uint256","internalType":"uint256"},{"name":"token","type":"address","internalType":"address"},{"name":"refundee","type":"address","internalType":"address"}],"outputs":[{"name":"","type":"bool","internalType":"bool"}],"stateMutability":"nonpayable"},{"type":"event","name":"ERC20DepositReceived","inputs":[{"name":"record","type":"tuple","indexed":false,"internalType":"struct ERC20FulFillmentRecord","components":[{"name":"id","type":"uint256","internalType":"uint256"},{"name":"serviceRef","type":"string","internalType":"string"},{"name":"fulfiller","type":"address","internalType":"address"},{"name":"token","type":"address","internalType":"address"},{"name":"externalID","type":"string","internalType":"string"},{"name":"payer","type":"address","internalType":"address"},{"name":"tokenAmount","type":"uint256","internalType":"uint256"},{"name":"feeAmount","type":"uint256","internalType":"uint256"},{"name":"fiatAmount","type":"uint256","internalType":"uint256"},{"name":"entryTime","type":"uint256","internalType":"uint256"},{"name":"receiptURI","type":"string","internalType":"string"},{"name":"status","type":"uint8","internalType":"enum FulFillmentResultState"}]}],"anonymous":false},{"type":"event","name":"ERC20FeesWithdrawn","inputs":[{"name":"serviceId","type":"uint256","indexed":true,"internalType":"uint256"},{"name":"token","type":"address","indexed":true,"internalType":"address"},{"name":"beneficiary","type":"address","indexed":false,"internalType":"address"},{"name":"amount","type":"uint256","indexed":false,"internalType":"uint256"}],"anonymous":false},{"type":"event","name":"ERC20RefundAuthorized","inputs":[{"name":"payee","type":"address","indexed":true,"internalType":"address"},{"name":"weiAmount","type":"uint256","indexed":false,"internalType":"uint256"}],"anonymous":false},{"type":"event","name":"ERC20RefundWithdrawn","inputs":[{"name":"token","type":"address","indexed":false,"internalType":"address"},{"name":"payee","type":"address","indexed":true,"internalType":"address"},{"name":"weiAmount","type":"uint256","indexed":false,"internalType":"uint256"}],"anonymous":false},{"type":"event","name":"FulfillableRegistryUpdated","inputs":[{"name":"fulfillableRegistry","type":"address","indexed":true,"internalType":"address"}],"anonymous":false},{"type":"event","name":"Initialized","inputs":[{"name":"version","type":"uint64","indexed":false,"internalType":"uint64"}],"anonymous":false},{"type":"event","name":"ManagerUpdated","inputs":[{"name":"manager","type":"address","indexed":true,"internalType":"address"}],"anonymous":false},{"type":"event","name":"OwnershipTransferred","inputs":[{"name":"previousOwner","type":"address","indexed":true,"internalType":"address"},{"name":"newOwner","type":"address","indexed":true,"internalType":"address"}],"anonymous":false},{"type":"event","name":"RouterUpdated","inputs":[{"name":"router","type":"address","indexed":true,"internalType":"address"}],"anonymous":false},{"type":"event","name":"Upgraded","inputs":[{"name":"implementation","type":"address","indexed":true,"internalType":"address"}],"anonymous":false},{"type":"error","name":"AddressEmptyCode","inputs":[{"name":"target","type":"address","internalType":"address"}]},{"type":"error","name":"AddressInsufficientBalance","inputs":[{"name":"account","type":"address","internalType":"address"}]},{"type":"error","name":"ERC1967InvalidImplementation","inputs":[{"name":"implementation","type":"address","internalType":"address"}]},{"type":"error","name":"ERC1967NonPayable","inputs":[]},{"type":"error","name":"FailedInnerCall","inputs":[]},{"type":"error","name":"FulfillmentAlreadyRegistered","inputs":[]},{"type":"error","name":"FulfillmentRecordDoesNotExist","inputs":[]},{"type":"error","name":"InvalidAddress","inputs":[{"name":"addr","type":"address","internalType":"address"}]},{"type":"error","name":"InvalidInitialization","inputs":[]},{"type":"error","name":"NoBalanceToRelease","inputs":[]},{"type":"error","name":"NoFeesToWithdraw","inputs":[]},{"type":"error","name":"NoRefunds","inputs":[{"name":"refundee","type":"address","internalType":"address"}]},{"type":"error","name":"NotInitializing","inputs":[]},{"type":"error","name":"Overflow","inputs":[{"name":"reason","type":"uint8","internalType":"uint8"}]},{"type":"error","name":"OwnableInvalidOwner","inputs":[{"name":"owner","type":"address","internalType":"address"}]},{"type":"error","name":"OwnableUnauthorizedAccount","inputs":[{"name":"account","type":"address","internalType":"address"}]},{"type":"error","name":"ReentrancyGuardReentrantCall","inputs":[]},{"type":"error","name":"RefundsTooBig","inputs":[]},{"type":"error","name":"SafeERC20FailedOperation","inputs":[{"name":"token","type":"address","internalType":"address"}]},{"type":"error","name":"UUPSUnauthorizedCallContext","inputs":[]},{"type":"error","name":"UUPSUnsupportedProxiableUUID","inputs":[{"name":"slot","type":"bytes32","internalType":"bytes32"}]},{"type":"error","name":"UnsupportedFulfillmentStatus","inputs":[]}],"bytecode":{"object":"0x60a060405230608052348015610013575f5ffd5b5061001c610021565b6100d3565b7ff0c57e16840df040f15088dc2f81fe391c3923bec73e23a9662efc9c229c6a00805468010000000000000000900460ff16156100715760405163f92ee8a960e01b815260040160405180910390fd5b80546001600160401b03908116146100d05780546001600160401b0319166001600160401b0390811782556040519081527fc7f505b2f371ae2175ee4913f4499e1f2633a7b5936321eed1cdaeb6115181d29060200160405180910390a15b50565b6080516136c16100f95f395f8181611eb301528181611edc01526120f801526136c15ff3fe608060405260043610610178575f3560e01c8063ad3cb1cc116100d1578063d0ebdbe71161007c578063edae876f11610057578063edae876f1461052b578063f0329f6b14610557578063f2fde38b14610583575f5ffd5b8063d0ebdbe7146104c1578063dbc85c5a146104e0578063e5b7e2b4146104ff575f5ffd5b8063c0d78655116100ac578063c0d786551461042b578063c3dc058d1461044a578063ce30c9de146104a2575f5ffd5b8063ad3cb1cc14610398578063b4b9bb7c146103ed578063b726962e1461040c575f5ffd5b806352d1902d116101315780638da5cb5b1161010c5780638da5cb5b146102d8578063936a83e514610321578063a9aa44b014610340575f5ffd5b806352d1902d1461029c578063715018a6146102b05780638129fc1c146102c4575f5ffd5b806348d20d161161016157806348d20d16146101fe5780634efe6f341461022d5780634f1ef28614610287575f5ffd5b80630c4393b91461017c5780632c16cd8a146101d2575b5f5ffd5b348015610187575f5ffd5b506006546101a89073ffffffffffffffffffffffffffffffffffffffff1681565b60405173ffffffffffffffffffffffffffffffffffffffff90911681526020015b60405180910390f35b3480156101dd575f5ffd5b506101f16101ec366004612d3b565b6105a2565b6040516101c99190612e04565b348015610209575f5ffd5b5061021d610218366004612f83565b610830565b60405190151581526020016101c9565b348015610238575f5ffd5b50610279610247366004612fc2565b5f90815260056020908152604080832073ffffffffffffffffffffffffffffffffffffffff9094168352929052205490565b6040519081526020016101c9565b61029a6102953660046130fa565b610998565b005b3480156102a7575f5ffd5b506102796109b7565b3480156102bb575f5ffd5b5061029a6109e5565b3480156102cf575f5ffd5b5061029a6109f8565b3480156102e3575f5ffd5b507f9016d09d72d40fdae2fd8ceac6b6234c7706214fd39c1cd1e609a0528c1993005473ffffffffffffffffffffffffffffffffffffffff166101a8565b34801561032c575f5ffd5b5061029a61033b36600461315a565b610b89565b34801561034b575f5ffd5b5061027961035a366004613188565b5f908152600b6020908152604080832073ffffffffffffffffffffffffffffffffffffffff9586168452825280832093909416825291909152205490565b3480156103a3575f5ffd5b506103e06040518060400160405280600581526020017f352e302e3000000000000000000000000000000000000000000000000000000081525081565b6040516101c991906131c6565b3480156103f8575f5ffd5b5061021d6104073660046131f6565b610d51565b348015610417575f5ffd5b5061029a61042636600461315a565b611307565b348015610436575f5ffd5b5061029a6104453660046132bc565b611542565b348015610455575f5ffd5b50610279610464366004613188565b5f908152600a6020908152604080832073ffffffffffffffffffffffffffffffffffffffff9586168452825280832093909416825291909152205490565b3480156104ad575f5ffd5b5061029a6104bc3660046132d7565b61161d565b3480156104cc575f5ffd5b5061029a6104db3660046132bc565b611ae0565b3480156104eb575f5ffd5b5061029a6104fa3660046132bc565b611bbb565b34801561050a575f5ffd5b5061051e6105193660046132bc565b611ca2565b6040516101c99190613392565b348015610536575f5ffd5b506009546101a89073ffffffffffffffffffffffffffffffffffffffff1681565b348015610562575f5ffd5b506008546101a89073ffffffffffffffffffffffffffffffffffffffff1681565b34801561058e575f5ffd5b5061029a61059d3660046132bc565b611d18565b6105aa612c91565b5f8281526001602081815260409283902083516101808101909452805484529182018054918401916105db906133d4565b80601f0160208091040260200160405190810160405280929190818152602001828054610607906133d4565b80156106525780601f1061062957610100808354040283529160200191610652565b820191905f5260205f20905b81548152906001019060200180831161063557829003601f168201915b5050509183525050600282015473ffffffffffffffffffffffffffffffffffffffff9081166020830152600383015416604082015260048201805460609092019161069c906133d4565b80601f01602080910402602001604051908101604052809291908181526020018280546106c8906133d4565b80156107135780601f106106ea57610100808354040283529160200191610713565b820191905f5260205f20905b8154815290600101906020018083116106f657829003601f168201915b5050509183525050600582015473ffffffffffffffffffffffffffffffffffffffff166020820152600682015460408201526007820154606082015260088201546080820152600982015460a0820152600a8201805460c090920191610778906133d4565b80601f01602080910402602001604051908101604052809291908181526020018280546107a4906133d4565b80156107ef5780601f106107c6576101008083540402835291602001916107ef565b820191905f5260205f20905b8154815290600101906020018083116107d257829003601f168201915b5050509183525050600b82015460209091019060ff16600281111561081657610816612d9e565b600281111561082757610827612d9e565b90525092915050565b5f610839611d7b565b60095473ffffffffffffffffffffffffffffffffffffffff163314610891576040517f8e4c8aa60000000000000000000000000000000000000000000000000000000081523360048201526024015b60405180910390fd5b5f848152600b6020908152604080832073ffffffffffffffffffffffffffffffffffffffff878116855290835281842090861684529091528120549081900361091e576040517fb4741e1a00000000000000000000000000000000000000000000000000000000815273ffffffffffffffffffffffffffffffffffffffff84166004820152602401610888565b610929848483611dfc565b50505f838152600b6020908152604080832073ffffffffffffffffffffffffffffffffffffffff86811685529083528184209085168452909152812055600161099160017f9b779b17422d0df92223018b32b4d1fa46e071723d6817e2486d003becc55f0055565b9392505050565b6109a0611e9b565b6109a982611f9f565b6109b38282611fa7565b5050565b5f6109c06120e0565b507f360894a13ba1a3210667c828492db98dca3e2076cc3735a920a3ca505d382bbc90565b6109ed61214f565b6109f65f6121dd565b565b7ff0c57e16840df040f15088dc2f81fe391c3923bec73e23a9662efc9c229c6a00805468010000000000000000810460ff16159067ffffffffffffffff165f81158015610a425750825b90505f8267ffffffffffffffff166001148015610a5e5750303b155b905081158015610a6c575080155b15610aa3576040517ff92ee8a900000000000000000000000000000000000000000000000000000000815260040160405180910390fd5b84547fffffffffffffffffffffffffffffffffffffffffffffffff00000000000000001660011785558315610b045784547fffffffffffffffffffffffffffffffffffffffffffffff00ffffffffffffffff16680100000000000000001785555b610b0d33612272565b610b15612283565b610b1d61228b565b60015f558315610b825784547fffffffffffffffffffffffffffffffffffffffffffffff00ffffffffffffffff168555604051600181527fc7f505b2f371ae2175ee4913f4499e1f2633a7b5936321eed1cdaeb6115181d29060200160405180910390a15b5050505050565b610b91611d7b565b60085473ffffffffffffffffffffffffffffffffffffffff163314610be4576040517f8e4c8aa6000000000000000000000000000000000000000000000000000000008152336004820152602401610888565b5f82815260046020908152604080832073ffffffffffffffffffffffffffffffffffffffff851684529091528120549003610c4b576040517f6e7e9ea500000000000000000000000000000000000000000000000000000000815260040160405180910390fd5b6007546040517fef0e239b000000000000000000000000000000000000000000000000000000008152600481018490525f9173ffffffffffffffffffffffffffffffffffffffff169063ef0e239b90602401608060405180830381865afa158015610cb8573d5f5f3e3d5ffd5b505050506040513d601f19601f82011682018060405250810190610cdc9190613425565b505f84815260046020908152604080832073ffffffffffffffffffffffffffffffffffffffff87168085529083529083208054939055908301519293509091610d2691908361229b565b50506109b360017f9b779b17422d0df92223018b32b4d1fa46e071723d6817e2486d003becc55f0055565b5f610d5a611d7b565b60085473ffffffffffffffffffffffffffffffffffffffff163314610dad576040517f8e4c8aa6000000000000000000000000000000000000000000000000000000008152336004820152602401610888565b81515f908152600160205260408120549003610df5576040517f54446f7100000000000000000000000000000000000000000000000000000000815260040160405180910390fd5b600282515f908152600160205260409020600b015460ff166002811115610e1e57610e1e612d9e565b14610e55576040517fcdc7646400000000000000000000000000000000000000000000000000000000815260040160405180910390fd5b6007546040517fef0e239b000000000000000000000000000000000000000000000000000000008152600481018590525f9173ffffffffffffffffffffffffffffffffffffffff169063ef0e239b90602401608060405180830381865afa158015610ec2573d5f5f3e3d5ffd5b505050506040513d601f19601f82011682018060405250810190610ee69190613425565b5083515f90815260016020526040808220600301548651835281832060060154875184529183206007015493945073ffffffffffffffffffffffffffffffffffffffff1692909190610f39908390612328565b91505f905086606001516002811115610f5457610f54612d9e565b03610fef5785515f90815260016020526040902060050154610f90908590859073ffffffffffffffffffffffffffffffffffffffff168461234f565b606086015186515f908152600160208190526040909120600b01805490917fffffffffffffffffffffffffffffffffffffffffffffffffffffffffffffff0090911690836002811115610fe557610fe5612d9e565b02179055506112d0565b60018660600151600281111561100757611007612d9e565b1461103e576040517f6e718ca000000000000000000000000000000000000000000000000000000000815260040160405180910390fd5b6112d08760015f895f015181526020019081526020015f20604051806101800160405290815f820154815260200160018201805461107b906133d4565b80601f01602080910402602001604051908101604052809291908181526020018280546110a7906133d4565b80156110f25780601f106110c9576101008083540402835291602001916110f2565b820191905f5260205f20905b8154815290600101906020018083116110d557829003601f168201915b5050509183525050600282015473ffffffffffffffffffffffffffffffffffffffff9081166020830152600383015416604082015260048201805460609092019161113c906133d4565b80601f0160208091040260200160405190810160405280929190818152602001828054611168906133d4565b80156111b35780601f1061118a576101008083540402835291602001916111b3565b820191905f5260205f20905b81548152906001019060200180831161119657829003601f168201915b5050509183525050600582015473ffffffffffffffffffffffffffffffffffffffff166020820152600682015460408201526007820154606082015260088201546080820152600982015460a0820152600a8201805460c090920191611218906133d4565b80601f0160208091040260200160405190810160405280929190818152602001828054611244906133d4565b801561128f5780601f106112665761010080835404028352916020019161128f565b820191905f5260205f20905b81548152906001019060200180831161127257829003601f168201915b5050509183525050600b82015460209091019060ff1660028111156112b6576112b6612d9e565b60028111156112c7576112c7612d9e565b90525083612536565b600194505050505061130160017f9b779b17422d0df92223018b32b4d1fa46e071723d6817e2486d003becc55f0055565b92915050565b61130f611d7b565b60085473ffffffffffffffffffffffffffffffffffffffff163314611362576040517f8e4c8aa6000000000000000000000000000000000000000000000000000000008152336004820152602401610888565b6007546040517fef0e239b000000000000000000000000000000000000000000000000000000008152600481018490525f9173ffffffffffffffffffffffffffffffffffffffff169063ef0e239b90602401608060405180830381865afa1580156113cf573d5f5f3e3d5ffd5b505050506040513d601f19601f820116820180604052508101906113f39190613425565b505f84815260056020908152604080832073ffffffffffffffffffffffffffffffffffffffff8716845290915281205491925081900361145f576040517f6806da6800000000000000000000000000000000000000000000000000000000815260040160405180910390fd5b5f84815260056020908152604080832073ffffffffffffffffffffffffffffffffffffffff8716808552908352908320929092558301516114a191908361229b565b8273ffffffffffffffffffffffffffffffffffffffff16847fe3d4066ff5850a350375c03e4752870f2c3526e35f0e28508108f3b4ac13b0cd84602001518460405161150f92919073ffffffffffffffffffffffffffffffffffffffff929092168252602082015260400190565b60405180910390a350506109b360017f9b779b17422d0df92223018b32b4d1fa46e071723d6817e2486d003becc55f0055565b61154a61214f565b73ffffffffffffffffffffffffffffffffffffffff81166115af576040517f8e4c8aa600000000000000000000000000000000000000000000000000000000815273ffffffffffffffffffffffffffffffffffffffff82166004820152602401610888565b600980547fffffffffffffffffffffffff00000000000000000000000000000000000000001673ffffffffffffffffffffffffffffffffffffffff83169081179091556040517f7aed1d3e8155a07ccf395e44ea3109a0e2d6c9b29bbbe9f142d9790596f4dc80905f90a250565b611625611d7b565b60095473ffffffffffffffffffffffffffffffffffffffff163314611678576040517f8e4c8aa6000000000000000000000000000000000000000000000000000000008152336004820152602401610888565b60808201515f906116899083612328565b60608501516007546040517fef0e239b000000000000000000000000000000000000000000000000000000008152600481018990529294509092505f9173ffffffffffffffffffffffffffffffffffffffff9091169063ef0e239b90602401608060405180830381865afa158015611703573d5f5f3e3d5ffd5b505050506040513d601f19601f820116820180604052508101906117279190613425565b5085515f888152600a6020908152604080832073ffffffffffffffffffffffffffffffffffffffff888116855290835281842094168352929052908120549192506117728583612328565b88515f8b8152600a6020908152604080832073ffffffffffffffffffffffffffffffffffffffff808c168552908352818420941683529290522081905591506117b89050565b5f6040518061018001604052805f54815260200189604001518152602001856040015173ffffffffffffffffffffffffffffffffffffffff168152602001896060015173ffffffffffffffffffffffffffffffffffffffff16815260200160405180602001604052805f8152508152602001895f015173ffffffffffffffffffffffffffffffffffffffff168152602001896080015181526020018881526020018960200151815260200142815260200160405180602001604052805f815250815260200160028081111561188f5761188f612d9e565b815250905060015f5f8282546118a591906134ac565b92505081905550600160035f8282546118be91906134ac565b909155505080515f90815260016020818152604090922083518155918301518392918201906118ed9082613528565b50604082015160028201805473ffffffffffffffffffffffffffffffffffffffff9283167fffffffffffffffffffffffff0000000000000000000000000000000000000000918216179091556060840151600384018054919093169116179055608082015160048201906119619082613528565b5060a08201516005820180547fffffffffffffffffffffffff00000000000000000000000000000000000000001673ffffffffffffffffffffffffffffffffffffffff90921691909117905560c0820151600682015560e0820151600782015561010082015160088201556101208201516009820155610140820151600a8201906119ec9082613528565b50610160820151600b820180547fffffffffffffffffffffffffffffffffffffffffffffffffffffffffffffff00166001836002811115611a2f57611a2f612d9e565b0217905550505060a081015173ffffffffffffffffffffffffffffffffffffffff165f908152600260209081526040808320845181546001810183559185529290932090920155517ffe31e11aad0d4767904c798dd8326e02ff3f34ade391dc074800a8b71d34a7ec90611aa4908390612e04565b60405180910390a1505050505050611adb60017f9b779b17422d0df92223018b32b4d1fa46e071723d6817e2486d003becc55f0055565b505050565b611ae861214f565b73ffffffffffffffffffffffffffffffffffffffff8116611b4d576040517f8e4c8aa600000000000000000000000000000000000000000000000000000000815273ffffffffffffffffffffffffffffffffffffffff82166004820152602401610888565b600880547fffffffffffffffffffffffff00000000000000000000000000000000000000001673ffffffffffffffffffffffffffffffffffffffff83169081179091556040517f2c1c11af44aa5608f1dca38c00275c30ea091e02417d36e70e9a1538689c433d905f90a250565b611bc361214f565b73ffffffffffffffffffffffffffffffffffffffff8116611c28576040517f8e4c8aa600000000000000000000000000000000000000000000000000000000815273ffffffffffffffffffffffffffffffffffffffff82166004820152602401610888565b6006805473ffffffffffffffffffffffffffffffffffffffff83167fffffffffffffffffffffffff0000000000000000000000000000000000000000918216811790925560078054909116821790556040517f12fd82a8fae6400d0456d521504e56c94dd90726268fd158b0584ec682e1b5b1905f90a250565b73ffffffffffffffffffffffffffffffffffffffff81165f90815260026020908152604091829020805483518184028101840190945280845260609392830182828015611d0c57602002820191905f5260205f20905b815481526020019060010190808311611cf8575b50505050509050919050565b611d2061214f565b73ffffffffffffffffffffffffffffffffffffffff8116611d6f576040517f1e4fbdf70000000000000000000000000000000000000000000000000000000081525f6004820152602401610888565b611d78816121dd565b50565b7f9b779b17422d0df92223018b32b4d1fa46e071723d6817e2486d003becc55f0080547ffffffffffffffffffffffffffffffffffffffffffffffffffffffffffffffffe01611df6576040517f3ee5aeb500000000000000000000000000000000000000000000000000000000815260040160405180910390fd5b60029055565b611e1d73ffffffffffffffffffffffffffffffffffffffff8416838361229b565b6040805173ffffffffffffffffffffffffffffffffffffffff8581168252602082018490528416917f4b0c3d1fc51b8d48eaf8e0c0a8554a1bdfa3ccd89dff5f774bb84d1d901bc30b910160405180910390a2505050565b60017f9b779b17422d0df92223018b32b4d1fa46e071723d6817e2486d003becc55f0055565b3073ffffffffffffffffffffffffffffffffffffffff7f0000000000000000000000000000000000000000000000000000000000000000161480611f6857507f000000000000000000000000000000000000000000000000000000000000000073ffffffffffffffffffffffffffffffffffffffff16611f4f7f360894a13ba1a3210667c828492db98dca3e2076cc3735a920a3ca505d382bbc5473ffffffffffffffffffffffffffffffffffffffff1690565b73ffffffffffffffffffffffffffffffffffffffff1614155b156109f6576040517fe07c8dba00000000000000000000000000000000000000000000000000000000815260040160405180910390fd5b611d7861214f565b8173ffffffffffffffffffffffffffffffffffffffff166352d1902d6040518163ffffffff1660e01b8152600401602060405180830381865afa92505050801561202c575060408051601f3d9081017fffffffffffffffffffffffffffffffffffffffffffffffffffffffffffffffe01682019092526120299181019061363f565b60015b61207a576040517f4c9c8ce300000000000000000000000000000000000000000000000000000000815273ffffffffffffffffffffffffffffffffffffffff83166004820152602401610888565b7f360894a13ba1a3210667c828492db98dca3e2076cc3735a920a3ca505d382bbc81146120d6576040517faa1d49a400000000000000000000000000000000000000000000000000000000815260048101829052602401610888565b611adb83836127e2565b3073ffffffffffffffffffffffffffffffffffffffff7f000000000000000000000000000000000000000000000000000000000000000016146109f6576040517fe07c8dba00000000000000000000000000000000000000000000000000000000815260040160405180910390fd5b3361218e7f9016d09d72d40fdae2fd8ceac6b6234c7706214fd39c1cd1e609a0528c1993005473ffffffffffffffffffffffffffffffffffffffff1690565b73ffffffffffffffffffffffffffffffffffffffff16146109f6576040517f118cdaa7000000000000000000000000000000000000000000000000000000008152336004820152602401610888565b7f9016d09d72d40fdae2fd8ceac6b6234c7706214fd39c1cd1e609a0528c19930080547fffffffffffffffffffffffff0000000000000000000000000000000000000000811673ffffffffffffffffffffffffffffffffffffffff848116918217845560405192169182907f8be0079c531659141344cd1fd0a4f28419497f9722a3daafe3b4186f6b6457e0905f90a3505050565b61227a612844565b611d78816128ab565b6109f6612844565b612293612844565b6109f66128b3565b6040805173ffffffffffffffffffffffffffffffffffffffff8416602482015260448082018490528251808303909101815260649091019091526020810180517bffffffffffffffffffffffffffffffffffffffffffffffffffffffff167fa9059cbb00000000000000000000000000000000000000000000000000000000179052611adb9084906128bb565b5f8083830184811015612341575f5f9250925050612348565b6001925090505b9250929050565b83515f908152600b6020908152604080832073ffffffffffffffffffffffffffffffffffffffff8088168552908352818420908616845290915281205481906123989084612328565b87515f908152600a6020908152604080832073ffffffffffffffffffffffffffffffffffffffff8b81168552908352818420908a168452909152902054919350915082612414576040517fc0d7d3cc00000000000000000000000000000000000000000000000000000000815260016004820152602401610888565b818082101561244f576040517f1eb8e4e900000000000000000000000000000000000000000000000000000000815260040160405180910390fd5b5f8061245b848861294f565b9150915081612499576040517fc0d7d3cc00000000000000000000000000000000000000000000000000000000815260026004820152602401610888565b89515f908152600a6020908152604080832073ffffffffffffffffffffffffffffffffffffffff8d8116808652918452828520908d168086529084528285208690558e518552600b8452828520918552908352818420818552835292819020869055518981527fc26e84de705d2bfd99e3fa9d482912f6918366d3bbde41683ecfbc118b40efbd910160405180910390a250505050505050505050565b81515f9081526001602090815260408083206007015486845260058352818420606087015173ffffffffffffffffffffffffffffffffffffffff16855290925282205482916125859190612328565b606086015186515f908152600160209081526040808320600501548b8452600a835281842073ffffffffffffffffffffffffffffffffffffffff95861685528352818420941683529290522054919350915082612611576040517fc0d7d3cc00000000000000000000000000000000000000000000000000000000815260036004820152602401610888565b5f86815260056020908152604080832060608901805173ffffffffffffffffffffffffffffffffffffffff908116865291845282852087905560c08a01518b8652600485528386209151909216855290925282205482916126729190612328565b91509150816126af576040517fc0d7d3cc000000000000000000000000000000000000000000000000000000008152600481810152602401610888565b5f806126bb858961294f565b91509150816126f9576040517fc0d7d3cc00000000000000000000000000000000000000000000000000000000815260056004820152602401610888565b5f8a815260046020908152604080832060608d01805173ffffffffffffffffffffffffffffffffffffffff90811686529184528285208890555160a08e01518f8652600a8552838620918316865290845282852091168452909152902081905561014089015189515f908152600160205260409020600a019061277c9082613528565b5088515f908152600160208190526040808320600b0180547fffffffffffffffffffffffffffffffffffffffffffffffffffffffffffffff001690921790915560808b01518b5183529120600401906127d59082613528565b5050505050505050505050565b6127eb8261296f565b60405173ffffffffffffffffffffffffffffffffffffffff8316907fbc7cd75a20ee27fd9adebab32041f755214dbc6bffa90cc0225b39da2e5c2d3b905f90a280511561283c57611adb8282612a3d565b6109b3612abc565b7ff0c57e16840df040f15088dc2f81fe391c3923bec73e23a9662efc9c229c6a005468010000000000000000900460ff166109f6576040517fd7e6bcf800000000000000000000000000000000000000000000000000000000815260040160405180910390fd5b611d20612844565b611e75612844565b5f6128dc73ffffffffffffffffffffffffffffffffffffffff841683612af4565b905080515f141580156129005750808060200190518101906128fe9190613656565b155b15611adb576040517f5274afe700000000000000000000000000000000000000000000000000000000815273ffffffffffffffffffffffffffffffffffffffff84166004820152602401610888565b5f5f8383111561296357505f905080612348565b50600193919092039150565b8073ffffffffffffffffffffffffffffffffffffffff163b5f036129d7576040517f4c9c8ce300000000000000000000000000000000000000000000000000000000815273ffffffffffffffffffffffffffffffffffffffff82166004820152602401610888565b7f360894a13ba1a3210667c828492db98dca3e2076cc3735a920a3ca505d382bbc80547fffffffffffffffffffffffff00000000000000000000000000000000000000001673ffffffffffffffffffffffffffffffffffffffff92909216919091179055565b60605f5f8473ffffffffffffffffffffffffffffffffffffffff1684604051612a669190613675565b5f60405180830381855af49150503d805f8114612a9e576040519150601f19603f3d011682016040523d82523d5f602084013e612aa3565b606091505b5091509150612ab3858383612b01565b95945050505050565b34156109f6576040517fb398979f00000000000000000000000000000000000000000000000000000000815260040160405180910390fd5b606061099183835f612b90565b606082612b1657612b1182612c4f565b610991565b8151158015612b3a575073ffffffffffffffffffffffffffffffffffffffff84163b155b15612b89576040517f9996b31500000000000000000000000000000000000000000000000000000000815273ffffffffffffffffffffffffffffffffffffffff85166004820152602401610888565b5080610991565b606081471015612bce576040517fcd786059000000000000000000000000000000000000000000000000000000008152306004820152602401610888565b5f5f8573ffffffffffffffffffffffffffffffffffffffff168486604051612bf69190613675565b5f6040518083038185875af1925050503d805f8114612c30576040519150601f19603f3d011682016040523d82523d5f602084013e612c35565b606091505b5091509150612c45868383612b01565b9695505050505050565b805115612c5f5780518082602001fd5b6040517f1425ea4200000000000000000000000000000000000000000000000000000000815260040160405180910390fd5b6040518061018001604052805f8152602001606081526020015f73ffffffffffffffffffffffffffffffffffffffff1681526020015f73ffffffffffffffffffffffffffffffffffffffff168152602001606081526020015f73ffffffffffffffffffffffffffffffffffffffff1681526020015f81526020015f81526020015f81526020015f8152602001606081526020015f6002811115612d3657612d36612d9e565b905290565b5f60208284031215612d4b575f5ffd5b5035919050565b5f81518084528060208401602086015e5f6020828601015260207fffffffffffffffffffffffffffffffffffffffffffffffffffffffffffffffe0601f83011685010191505092915050565b7f4e487b71000000000000000000000000000000000000000000000000000000005f52602160045260245ffd5b60038110612e00577f4e487b71000000000000000000000000000000000000000000000000000000005f52602160045260245ffd5b9052565b60208152815160208201525f60208301516101806040840152612e2b6101a0840182612d52565b90506040840151612e54606085018273ffffffffffffffffffffffffffffffffffffffff169052565b50606084015173ffffffffffffffffffffffffffffffffffffffff811660808501525060808401517fffffffffffffffffffffffffffffffffffffffffffffffffffffffffffffffe08483030160a0850152612eb08282612d52565b91505060a0840151612eda60c085018273ffffffffffffffffffffffffffffffffffffffff169052565b5060c084015160e084015260e08401516101008401526101008401516101208401526101208401516101408401526101408401517fffffffffffffffffffffffffffffffffffffffffffffffffffffffffffffffe084830301610160850152612f438282612d52565b915050610160840151612f5a610180850182612dcb565b509392505050565b73ffffffffffffffffffffffffffffffffffffffff81168114611d78575f5ffd5b5f5f5f60608486031215612f95575f5ffd5b833592506020840135612fa781612f62565b91506040840135612fb781612f62565b809150509250925092565b5f5f60408385031215612fd3575f5ffd5b8235612fde81612f62565b946020939093013593505050565b7f4e487b71000000000000000000000000000000000000000000000000000000005f52604160045260245ffd5b6040516080810167ffffffffffffffff8111828210171561303c5761303c612fec565b60405290565b60405160a0810167ffffffffffffffff8111828210171561303c5761303c612fec565b5f5f67ffffffffffffffff84111561307f5761307f612fec565b506040517fffffffffffffffffffffffffffffffffffffffffffffffffffffffffffffffe0601f85018116603f0116810181811067ffffffffffffffff821117156130cc576130cc612fec565b6040528381529050808284018510156130e3575f5ffd5b838360208301375f60208583010152509392505050565b5f5f6040838503121561310b575f5ffd5b823561311681612f62565b9150602083013567ffffffffffffffff811115613131575f5ffd5b8301601f81018513613141575f5ffd5b61315085823560208401613065565b9150509250929050565b5f5f6040838503121561316b575f5ffd5b82359150602083013561317d81612f62565b809150509250929050565b5f5f5f6060848603121561319a575f5ffd5b83356131a581612f62565b925060208401356131b581612f62565b929592945050506040919091013590565b602081525f6109916020830184612d52565b5f82601f8301126131e7575f5ffd5b61099183833560208501613065565b5f5f60408385031215613207575f5ffd5b82359150602083013567ffffffffffffffff811115613224575f5ffd5b830160808186031215613235575f5ffd5b61323d613019565b81358152602082013567ffffffffffffffff81111561325a575f5ffd5b613266878285016131d8565b602083015250604082013567ffffffffffffffff811115613285575f5ffd5b613291878285016131d8565b60408301525060608201359150600382106132aa575f5ffd5b81606082015280925050509250929050565b5f602082840312156132cc575f5ffd5b813561099181612f62565b5f5f5f606084860312156132e9575f5ffd5b83359250602084013567ffffffffffffffff811115613306575f5ffd5b840160a08187031215613317575f5ffd5b61331f613042565b813561332a81612f62565b815260208281013590820152604082013567ffffffffffffffff81111561334f575f5ffd5b61335b888285016131d8565b604083015250606082013561336f81612f62565b606082015260809182013591810191909152929592945050506040919091013590565b602080825282518282018190525f918401906040840190835b818110156133c95783518352602093840193909201916001016133ab565b509095945050505050565b600181811c908216806133e857607f821691505b60208210810361341f577f4e487b71000000000000000000000000000000000000000000000000000000005f52602260045260245ffd5b50919050565b5f5f8284036080811215613437575f5ffd5b6060811215613444575f5ffd5b506040516060810167ffffffffffffffff8111828210171561346857613468612fec565b60405283518152602084015161347d81612f62565b6020820152604084015161349081612f62565b6040820152606084015190925061ffff8116811461317d575f5ffd5b80820180821115611301577f4e487b71000000000000000000000000000000000000000000000000000000005f52601160045260245ffd5b601f821115611adb57805f5260205f20601f840160051c810160208510156135095750805b601f840160051c820191505b81811015610b82575f8155600101613515565b815167ffffffffffffffff81111561354257613542612fec565b6135568161355084546133d4565b846134e4565b6020601f8211600181146135a7575f83156135715750848201515b7fffffffffffffffffffffffffffffffffffffffffffffffffffffffffffffffff600385901b1c1916600184901b178455610b82565b5f848152602081207fffffffffffffffffffffffffffffffffffffffffffffffffffffffffffffffe08516915b828110156135f457878501518255602094850194600190920191016135d4565b508482101561363057868401517fffffffffffffffffffffffffffffffffffffffffffffffffffffffffffffffff600387901b60f8161c191681555b50505050600190811b01905550565b5f6020828403121561364f575f5ffd5b5051919050565b5f60208284031215613666575f5ffd5b81518015158114610991575f5ffd5b5f82518060208501845e5f92019182525091905056fea264697066735822122029b39b8d1f0949d71901d5cfb8bc1993a86fa11fa6b1b68abb2ad0c43280443364736f6c634300081c0033","linkReferences":{}},"methodIdentifiers":{"UPGRADE_INTERFACE_VERSION()":"ad3cb1cc","_fulfillableRegistry()":"0c4393b9","_manager()":"f0329f6b","_router()":"edae876f","beneficiaryWithdraw(uint256,address)":"936a83e5","depositERC20(uint256,(address,uint256,string,address,uint256),uint256)":"ce30c9de","getERC20DepositsFor(address,address,uint256)":"c3dc058d","getERC20FeesFor(address,uint256)":"4efe6f34","getERC20RefundsFor(address,address,uint256)":"a9aa44b0","initialize()":"8129fc1c","owner()":"8da5cb5b","proxiableUUID()":"52d1902d","record(uint256)":"2c16cd8a","recordsOf(address)":"e5b7e2b4","registerFulfillment(uint256,(uint256,string,string,uint8))":"b4b9bb7c","renounceOwnership()":"715018a6","setFulfillableRegistry(address)":"dbc85c5a","setManager(address)":"d0ebdbe7","setRouter(address)":"c0d78655","transferOwnership(address)":"f2fde38b","upgradeToAndCall(address,bytes)":"4f1ef286","withdrawAccumulatedFees(uint256,address)":"b726962e","withdrawERC20Refund(uint256,address,address)":"48d20d16"},"id":0}