{"abi":[{"type":"function","name":"UPGRADE_INTERFACE_VERSION","inputs":[],"outputs":[{"name":"","type":"string","internalType":"string"}],"stateMutability":"view"},{"type":"function","name":"_erc20Escrow","inputs":[],"outputs":[{"name":"","type":"address","internalType":"address payable"}],"stateMutability":"view"},{"type":"function","name":"_escrow","inputs":[],"outputs":[{"name":"","type":"address","internalType":"address payable"}],"stateMutability":"view"},{"type":"function","name":"_fulfillableRegistry","inputs":[],"outputs":[{"name":"","type":"address","internalType":"address"}],"stateMutability":"view"},{"type":"function","name":"_tokenRegistry","inputs":[],"outputs":[{"name":"","type":"address","internalType":"address"}],"stateMutability":"view"},{"type":"function","name":"initialize","inputs":[{"name":"initialOwner","type":"address","internalType":"address"}],"outputs":[],"stateMutability":"nonpayable"},{"type":"function","name":"isUpgrade","inputs":[],"outputs":[{"name":"","type":"bool","internalType":"bool"}],"stateMutability":"view"},{"type":"function","name":"owner","inputs":[],"outputs":[{"name":"","type":"address","internalType":"address"}],"stateMutability":"view"},{"type":"function","name":"pause","inputs":[],"outputs":[],"stateMutability":"nonpayable"},{"type":"function","name":"paused","inputs":[],"outputs":[{"name":"","type":"bool","internalType":"bool"}],"stateMutability":"view"},{"type":"function","name":"proxiableUUID","inputs":[],"outputs":[{"name":"","type":"bytes32","internalType":"bytes32"}],"stateMutability":"view"},{"type":"function","name":"renounceOwnership","inputs":[],"outputs":[],"stateMutability":"nonpayable"},{"type":"function","name":"requestERC20Service","inputs":[{"name":"serviceID","type":"uint256","internalType":"uint256"},{"name":"request","type":"tuple","internalType":"struct ERC20FulFillmentRequest","components":[{"name":"payer","type":"address","internalType":"address"},{"name":"fiatAmount","type":"uint256","internalType":"uint256"},{"name":"serviceRef","type":"string","internalType":"string"},{"name":"token","type":"address","internalType":"address"},{"name":"tokenAmount","type":"uint256","internalType":"uint256"}]}],"outputs":[{"name":"","type":"bool","internalType":"bool"}],"stateMutability":"nonpayable"},{"type":"function","name":"requestService","inputs":[{"name":"serviceID","type":"uint256","internalType":"uint256"},{"name":"request","type":"tuple","internalType":"struct FulFillmentRequest","components":[{"name":"payer","type":"address","internalType":"address"},{"name":"weiAmount","type":"uint256","internalType":"uint256"},{"name":"fiatAmount","type":"uint256","internalType":"uint256"},{"name":"serviceRef","type":"string","internalType":"string"}]}],"outputs":[{"name":"","type":"bool","internalType":"bool"}],"stateMutability":"payable"},{"type":"function","name":"setERC20Escrow","inputs":[{"name":"erc20Escrow_","type":"address","internalType":"address payable"}],"outputs":[],"stateMutability":"nonpayable"},{"type":"function","name":"setEscrow","inputs":[{"name":"escrow_","type":"address","internalType":"address payable"}],"outputs":[],"stateMutability":"nonpayable"},{"type":"function","name":"setFulfillableRegistry","inputs":[{"name":"fulfillableRegistry_","type":"address","internalType":"address"}],"outputs":[],"stateMutability":"nonpayable"},{"type":"function","name":"setTokenRegistry","inputs":[{"name":"tokenRegistry_","type":"address","internalType":"address"}],"outputs":[],"stateMutability":"nonpayable"},{"type":"function","name":"transferOwnership","inputs":[{"name":"newOwner","type":"address","internalType":"address"}],"outputs":[],"stateMutability":"nonpayable"},{"type":"function","name":"unpause","inputs":[],"outputs":[],"stateMutability":"nonpayable"},{"type":"function","name":"upgradeToAndCall","inputs":[{"name":"newImplementation","type":"address","internalType":"address"},{"name":"data","type":"bytes","internalType":"bytes"}],"outputs":[],"stateMutability":"payable"},{"type":"function","name":"withdrawERC20Refund","inputs":[{"name":"serviceID","type":"uint256","internalType":"uint256"},{"name":"token","type":"address","internalType":"address"},{"name":"refundee","type":"address","internalType":"address"}],"outputs":[],"stateMutability":"nonpayable"},{"type":"function","name":"withdrawRefund","inputs":[{"name":"serviceID","type":"uint256","internalType":"uint256"},{"name":"refundee","type":"address","internalType":"address payable"}],"outputs":[],"stateMutability":"nonpayable"},{"type":"event","name":"ERC20EscrowUpdated","inputs":[{"name":"erc20Escrow","type":"address","indexed":true,"internalType":"address"}],"anonymous":false},{"type":"event","name":"ERC20ServiceRequested","inputs":[{"name":"serviceID","type":"uint256","indexed":false,"internalType":"uint256"},{"name":"request","type":"tuple","indexed":false,"internalType":"struct ERC20FulFillmentRequest","components":[{"name":"payer","type":"address","internalType":"address"},{"name":"fiatAmount","type":"uint256","internalType":"uint256"},{"name":"serviceRef","type":"string","internalType":"string"},{"name":"token","type":"address","internalType":"address"},{"name":"tokenAmount","type":"uint256","internalType":"uint256"}]}],"anonymous":false},{"type":"event","name":"EscrowUpdated","inputs":[{"name":"escrow","type":"address","indexed":true,"internalType":"address"}],"anonymous":false},{"type":"event","name":"FulfillableRegistryUpdated","inputs":[{"name":"fulfillableRegistry","type":"address","indexed":true,"internalType":"address"}],"anonymous":false},{"type":"event","name":"Initialized","inputs":[{"name":"version","type":"uint64","indexed":false,"internalType":"uint64"}],"anonymous":false},{"type":"event","name":"OwnershipTransferred","inputs":[{"name":"previousOwner","type":"address","indexed":true,"internalType":"address"},{"name":"newOwner","type":"address","indexed":true,"internalType":"address"}],"anonymous":false},{"type":"event","name":"Paused","inputs":[{"name":"account","type":"address","indexed":false,"internalType":"address"}],"anonymous":false},{"type":"event","name":"RefValidationFailed","inputs":[{"name":"serviceID","type":"uint256","indexed":false,"internalType":"uint256"},{"name":"serviceRef","type":"string","indexed":false,"internalType":"string"}],"anonymous":false},{"type":"event","name":"ServiceRequested","inputs":[{"name":"serviceID","type":"uint256","indexed":false,"internalType":"uint256"},{"name":"request","type":"tuple","indexed":false,"internalType":"struct FulFillmentRequest","components":[{"name":"payer","type":"address","internalType":"address"},{"name":"weiAmount","type":"uint256","internalType":"uint256"},{"name":"fiatAmount","type":"uint256","internalType":"uint256"},{"name":"serviceRef","type":"string","internalType":"string"}]},{"name":"serviceFeeAmount","type":"uint256","indexed":false,"internalType":"uint256"}],"anonymous":false},{"type":"event","name":"TokenRegistryUpdated","inputs":[{"name":"tokenRegistry","type":"address","indexed":true,"internalType":"address"}],"anonymous":false},{"type":"event","name":"Unpaused","inputs":[{"name":"account","type":"address","indexed":false,"internalType":"address"}],"anonymous":false},{"type":"event","name":"Upgraded","inputs":[{"name":"implementation","type":"address","indexed":true,"internalType":"address"}],"anonymous":false},{"type":"error","name":"AddressEmptyCode","inputs":[{"name":"target","type":"address","internalType":"address"}]},{"type":"error","name":"AddressInsufficientBalance","inputs":[{"name":"account","type":"address","internalType":"address"}]},{"type":"error","name":"ERC1967InvalidImplementation","inputs":[{"name":"implementation","type":"address","internalType":"address"}]},{"type":"error","name":"ERC1967NonPayable","inputs":[]},{"type":"error","name":"EnforcedPause","inputs":[]},{"type":"error","name":"ExpectedPause","inputs":[]},{"type":"error","name":"FailedInnerCall","inputs":[]},{"type":"error","name":"InsufficientAmount","inputs":[]},{"type":"error","name":"InvalidAddress","inputs":[{"name":"address_","type":"address","internalType":"address"}]},{"type":"error","name":"InvalidFiatAmount","inputs":[]},{"type":"error","name":"InvalidInitialization","inputs":[]},{"type":"error","name":"InvalidRef","inputs":[]},{"type":"error","name":"NotInitializing","inputs":[]},{"type":"error","name":"OwnableInvalidOwner","inputs":[{"name":"owner","type":"address","internalType":"address"}]},{"type":"error","name":"OwnableUnauthorizedAccount","inputs":[{"name":"account","type":"address","internalType":"address"}]},{"type":"error","name":"PayerMismatch","inputs":[{"name":"payer","type":"address","internalType":"address"},{"name":"sender","type":"address","internalType":"address"}]},{"type":"error","name":"SafeERC20FailedOperation","inputs":[{"name":"token","type":"address","internalType":"address"}]},{"type":"error","name":"UUPSUnauthorizedCallContext","inputs":[]},{"type":"error","name":"UUPSUnsupportedProxiableUUID","inputs":[{"name":"slot","type":"bytes32","internalType":"bytes32"}]},{"type":"error","name":"UnsupportedToken","inputs":[{"name":"token","type":"address","internalType":"address"}]}],"bytecode":{"object":"0x60a060405230608052348015610013575f5ffd5b5061001c610021565b6100d3565b7ff0c57e16840df040f15088dc2f81fe391c3923bec73e23a9662efc9c229c6a00805468010000000000000000900460ff16156100715760405163f92ee8a960e01b815260040160405180910390fd5b80546001600160401b03908116146100d05780546001600160401b0319166001600160401b0390811782556040519081527fc7f505b2f371ae2175ee4913f4499e1f2633a7b5936321eed1cdaeb6115181d29060200160405180910390a15b50565b6080516129506100f95f395f81816111c9015281816111f2015261140e01526129505ff3fe608060405260043610610178575f3560e01c80638456cb59116100d1578063c4d66de81161007c578063e38a303b11610057578063e38a303b14610487578063ede6a9a01461049b578063f2fde38b146104c7575f5ffd5b8063c4d66de81461042a578063dbc85c5a14610449578063e2f6ad2514610468575f5ffd5b8063ad3cb1cc116100ac578063ad3cb1cc14610397578063be03f65c146103ec578063c10c35461461040b575f5ffd5b80638456cb59146103275780638d5e694f1461033b5780638da5cb5b1461034e575f5ffd5b80634248d5b81161013157806352d1902d1161010c57806352d1902d146102af5780635c975abb146102d1578063715018a614610313575f5ffd5b80634248d5b81461025e57806348d20d161461027d5780634f1ef2861461029c575f5ffd5b806335a5af921161016157806335a5af92146101fd5780633754e87f1461021e5780633f4ba83a1461024a575f5ffd5b80630619c07a1461017c5780630c4393b9146101d2575b5f5ffd5b348015610187575f5ffd5b506002546101a89073ffffffffffffffffffffffffffffffffffffffff1681565b60405173ffffffffffffffffffffffffffffffffffffffff90911681526020015b60405180910390f35b3480156101dd575f5ffd5b505f546101a89073ffffffffffffffffffffffffffffffffffffffff1681565b348015610208575f5ffd5b5061021c6102173660046122ec565b6104e6565b005b348015610229575f5ffd5b506003546101a89073ffffffffffffffffffffffffffffffffffffffff1681565b348015610255575f5ffd5b5061021c6105c6565b348015610269575f5ffd5b5061021c610278366004612307565b6105d8565b348015610288575f5ffd5b5061021c610297366004612335565b6106e4565b61021c6102aa366004612482565b6107f9565b3480156102ba575f5ffd5b506102c3610818565b6040519081526020016101c9565b3480156102dc575f5ffd5b507fcd5ed15c6e187e77e9aee88184c21f4f2182ab5827cb3b7e07fbedcd63f033005460ff165b60405190151581526020016101c9565b34801561031e575f5ffd5b5061021c610846565b348015610332575f5ffd5b5061021c610857565b610303610349366004612500565b610867565b348015610359575f5ffd5b507f9016d09d72d40fdae2fd8ceac6b6234c7706214fd39c1cd1e609a0528c1993005473ffffffffffffffffffffffffffffffffffffffff166101a8565b3480156103a2575f5ffd5b506103df6040518060400160405280600581526020017f352e302e3000000000000000000000000000000000000000000000000000000081525081565b6040516101c991906125eb565b3480156103f7575f5ffd5b5061021c6104063660046122ec565b610a03565b348015610416575f5ffd5b5061021c6104253660046122ec565b610ade565b348015610435575f5ffd5b5061021c6104443660046122ec565b610bb9565b348015610454575f5ffd5b5061021c6104633660046122ec565b610d47565b348015610473575f5ffd5b506103036104823660046125fd565b610e20565b348015610492575f5ffd5b50610303611014565b3480156104a6575f5ffd5b506001546101a89073ffffffffffffffffffffffffffffffffffffffff1681565b3480156104d2575f5ffd5b5061021c6104e13660046122ec565b611023565b6104ee611086565b73ffffffffffffffffffffffffffffffffffffffff8116610558576040517f8e4c8aa600000000000000000000000000000000000000000000000000000000815273ffffffffffffffffffffffffffffffffffffffff821660048201526024015b60405180910390fd5b600180547fffffffffffffffffffffffff00000000000000000000000000000000000000001673ffffffffffffffffffffffffffffffffffffffff83169081179091556040517f6e6ac0f8d11e6cdb54912074bf573e81cf445de6f137e4bd86ff31e396c82856905f90a250565b6105ce611086565b6105d6611114565b565b3373ffffffffffffffffffffffffffffffffffffffff821614610645576040517f35b13a3900000000000000000000000000000000000000000000000000000000815273ffffffffffffffffffffffffffffffffffffffff8216600482015233602482015260440161054f565b6002546040517f4248d5b80000000000000000000000000000000000000000000000000000000081526004810184905273ffffffffffffffffffffffffffffffffffffffff838116602483015290911690634248d5b8906044016020604051808303815f875af11580156106bb573d5f5f3e3d5ffd5b505050506040513d601f19601f820116820180604052508101906106df91906126b1565b505050565b3373ffffffffffffffffffffffffffffffffffffffff821614610751576040517f35b13a3900000000000000000000000000000000000000000000000000000000815273ffffffffffffffffffffffffffffffffffffffff8216600482015233602482015260440161054f565b6003546040517f48d20d160000000000000000000000000000000000000000000000000000000081526004810185905273ffffffffffffffffffffffffffffffffffffffff84811660248301528381166044830152909116906348d20d16906064016020604051808303815f875af11580156107cf573d5f5f3e3d5ffd5b505050506040513d601f19601f820116820180604052508101906107f391906126b1565b50505050565b6108016111b1565b61080a826112b5565b61081482826112bd565b5050565b5f6108216113f6565b507f360894a13ba1a3210667c828492db98dca3e2076cc3735a920a3ca505d382bbc90565b61084e611086565b6105d65f611465565b61085f611086565b6105d66114fa565b5f610870611573565b815173ffffffffffffffffffffffffffffffffffffffff1633146108e15781516040517f35b13a3900000000000000000000000000000000000000000000000000000000815273ffffffffffffffffffffffffffffffffffffffff909116600482015233602482015260440161054f565b5f54610906908490849073ffffffffffffffffffffffffffffffffffffffff166115cf565b505f80546001546109339173ffffffffffffffffffffffffffffffffffffffff90811691168684346117cb565b6002546040517f6928c27100000000000000000000000000000000000000000000000000000000815291925073ffffffffffffffffffffffffffffffffffffffff1690636928c271903490610990908890889087906004016126d0565b5f604051808303818588803b1580156109a7575f5ffd5b505af11580156109b9573d5f5f3e3d5ffd5b50505050507f5373ceb5889d7ecc59292760c565a6540b99dd95c5fafb5a360ebfa6e405dca18484836040516109f1939291906126d0565b60405180910390a15060019392505050565b610a0b611086565b73ffffffffffffffffffffffffffffffffffffffff8116610a70576040517f8e4c8aa600000000000000000000000000000000000000000000000000000000815273ffffffffffffffffffffffffffffffffffffffff8216600482015260240161054f565b600380547fffffffffffffffffffffffff00000000000000000000000000000000000000001673ffffffffffffffffffffffffffffffffffffffff83169081179091556040517fd39b3956f908ed0515c7b777552c15a185e9d13c9dd97db53a16bb661ab0b8d8905f90a250565b610ae6611086565b73ffffffffffffffffffffffffffffffffffffffff8116610b4b576040517f8e4c8aa600000000000000000000000000000000000000000000000000000000815273ffffffffffffffffffffffffffffffffffffffff8216600482015260240161054f565b600280547fffffffffffffffffffffffff00000000000000000000000000000000000000001673ffffffffffffffffffffffffffffffffffffffff83169081179091556040517f43ab431641dd45dd0661cad4b820e826d7c526af92e3121e1242d721f82ab3ad905f90a250565b7ff0c57e16840df040f15088dc2f81fe391c3923bec73e23a9662efc9c229c6a00805468010000000000000000810460ff16159067ffffffffffffffff165f81158015610c035750825b90505f8267ffffffffffffffff166001148015610c1f5750303b155b905081158015610c2d575080155b15610c64576040517ff92ee8a900000000000000000000000000000000000000000000000000000000815260040160405180910390fd5b84547fffffffffffffffffffffffffffffffffffffffffffffffff00000000000000001660011785558315610cc55784547fffffffffffffffffffffffffffffffffffffffffffffff00ffffffffffffffff16680100000000000000001785555b610ccd611986565b610cd561198e565b610cde8661199e565b8315610d3f5784547fffffffffffffffffffffffffffffffffffffffffffffff00ffffffffffffffff168555604051600181527fc7f505b2f371ae2175ee4913f4499e1f2633a7b5936321eed1cdaeb6115181d29060200160405180910390a15b505050505050565b610d4f611086565b73ffffffffffffffffffffffffffffffffffffffff8116610db4576040517f8e4c8aa600000000000000000000000000000000000000000000000000000000815273ffffffffffffffffffffffffffffffffffffffff8216600482015260240161054f565b5f80547fffffffffffffffffffffffff00000000000000000000000000000000000000001673ffffffffffffffffffffffffffffffffffffffff8316908117825560405190917f12fd82a8fae6400d0456d521504e56c94dd90726268fd158b0584ec682e1b5b191a250565b5f610e29611573565b815173ffffffffffffffffffffffffffffffffffffffff163314610e9a5781516040517f35b13a3900000000000000000000000000000000000000000000000000000000815273ffffffffffffffffffffffffffffffffffffffff909116600482015233602482015260440161054f565b5f54600154610ec6918591859173ffffffffffffffffffffffffffffffffffffffff90811691166119af565b505f805460015460608501516080860151610efd9373ffffffffffffffffffffffffffffffffffffffff90811693169188916117cb565b90505f610f17828560800151611c7c90919063ffffffff16565b6003546060870151919350610f49925073ffffffffffffffffffffffffffffffffffffffff9182169133911684611ca3565b6003546040517fce30c9de00000000000000000000000000000000000000000000000000000000815273ffffffffffffffffffffffffffffffffffffffff9091169063ce30c9de90610fa3908890889087906004016127aa565b5f604051808303815f87803b158015610fba575f5ffd5b505af1158015610fcc573d5f5f3e3d5ffd5b505050507fcffa77ca666af7f5f48cb67286d2851dd1a316733e8bf15cd1bee264a83742ad85856040516110019291906127d2565b60405180910390a1506001949350505050565b5f61101d611086565b50600190565b61102b611086565b73ffffffffffffffffffffffffffffffffffffffff811661107a576040517f1e4fbdf70000000000000000000000000000000000000000000000000000000081525f600482015260240161054f565b61108381611465565b50565b336110c57f9016d09d72d40fdae2fd8ceac6b6234c7706214fd39c1cd1e609a0528c1993005473ffffffffffffffffffffffffffffffffffffffff1690565b73ffffffffffffffffffffffffffffffffffffffff16146105d6576040517f118cdaa700000000000000000000000000000000000000000000000000000000815233600482015260240161054f565b61111c611d38565b7fcd5ed15c6e187e77e9aee88184c21f4f2182ab5827cb3b7e07fbedcd63f0330080547fffffffffffffffffffffffffffffffffffffffffffffffffffffffffffffff001681557f5db9ee0a495bf2e6ff9c91a7834c1ba4fdd244a5e8aa4e537bd38aeae4b073aa335b60405173ffffffffffffffffffffffffffffffffffffffff909116815260200160405180910390a150565b3073ffffffffffffffffffffffffffffffffffffffff7f000000000000000000000000000000000000000000000000000000000000000016148061127e57507f000000000000000000000000000000000000000000000000000000000000000073ffffffffffffffffffffffffffffffffffffffff166112657f360894a13ba1a3210667c828492db98dca3e2076cc3735a920a3ca505d382bbc5473ffffffffffffffffffffffffffffffffffffffff1690565b73ffffffffffffffffffffffffffffffffffffffff1614155b156105d6576040517fe07c8dba00000000000000000000000000000000000000000000000000000000815260040160405180910390fd5b611083611086565b8173ffffffffffffffffffffffffffffffffffffffff166352d1902d6040518163ffffffff1660e01b8152600401602060405180830381865afa925050508015611342575060408051601f3d9081017fffffffffffffffffffffffffffffffffffffffffffffffffffffffffffffffe016820190925261133f918101906127f2565b60015b611390576040517f4c9c8ce300000000000000000000000000000000000000000000000000000000815273ffffffffffffffffffffffffffffffffffffffff8316600482015260240161054f565b7f360894a13ba1a3210667c828492db98dca3e2076cc3735a920a3ca505d382bbc81146113ec576040517faa1d49a40000000000000000000000000000000000000000000000000000000081526004810182905260240161054f565b6106df8383611d93565b3073ffffffffffffffffffffffffffffffffffffffff7f000000000000000000000000000000000000000000000000000000000000000016146105d6576040517fe07c8dba00000000000000000000000000000000000000000000000000000000815260040160405180910390fd5b7f9016d09d72d40fdae2fd8ceac6b6234c7706214fd39c1cd1e609a0528c19930080547fffffffffffffffffffffffff0000000000000000000000000000000000000000811673ffffffffffffffffffffffffffffffffffffffff848116918217845560405192169182907f8be0079c531659141344cd1fd0a4f28419497f9722a3daafe3b4186f6b6457e0905f90a3505050565b611502611573565b7fcd5ed15c6e187e77e9aee88184c21f4f2182ab5827cb3b7e07fbedcd63f0330080547fffffffffffffffffffffffffffffffffffffffffffffffffffffffffffffff001660011781557f62e78cea01bee320cd4e420270b5ea74000d11b0c9f74754ebdbfc544b05a25833611186565b7fcd5ed15c6e187e77e9aee88184c21f4f2182ab5827cb3b7e07fbedcd63f033005460ff16156105d6576040517fd93c066500000000000000000000000000000000000000000000000000000000815260040160405180910390fd5b604080516060810182525f8082526020820181905291810191909152345f03611624576040517f5945ea5600000000000000000000000000000000000000000000000000000000815260040160405180910390fd5b82604001515f03611661576040517faaf0371a00000000000000000000000000000000000000000000000000000000815260040160405180910390fd5b6040517fef0e239b000000000000000000000000000000000000000000000000000000008152600481018590525f9073ffffffffffffffffffffffffffffffffffffffff84169063ef0e239b90602401608060405180830381865afa1580156116cc573d5f5f3e3d5ffd5b505050506040513d601f19601f820116820180604052508101906116f0919061281f565b5060608501516040517fd4a2470300000000000000000000000000000000000000000000000000000000815291925073ffffffffffffffffffffffffffffffffffffffff85169163d4a247039161174c918991906004016128a6565b602060405180830381865afa158015611767573d5f5f3e3d5ffd5b505050506040513d601f19601f8201168201806040525081019061178b91906126b1565b6117c1576040517fe97d945b00000000000000000000000000000000000000000000000000000000815260040160405180910390fd5b90505b9392505050565b6040517fef0e239b000000000000000000000000000000000000000000000000000000008152600481018490525f90819073ffffffffffffffffffffffffffffffffffffffff88169063ef0e239b90602401608060405180830381865afa158015611838573d5f5f3e3d5ffd5b505050506040513d601f19601f8201168201806040525081019061185c919061281f565b91505f905061186f8461ffff8416611df5565b91505f90506118808261270f611c7c565b9150611890905081612710611e2e565b6040517f2b6eaf1a00000000000000000000000000000000000000000000000000000000815273ffffffffffffffffffffffffffffffffffffffff89811660048301529196505f9250908a1690632b6eaf1a90602401602060405180830381865afa158015611901573d5f5f3e3d5ffd5b505050506040513d601f19601f8201168201806040525081019061192591906128be565b905061ffff811615611979575f6119408761ffff8416611df5565b91505f90506119518261270f611c7c565b91505f905061196282612710611e2e565b91505f90506119718983611c7c565b995050505050505b5050505095945050505050565b6105d6611e5e565b611996611e5e565b6105d6611ec5565b6119a6611e5e565b61108381611f16565b604080516060810182525f808252602082018190529181019190915283608001515f03611a08576040517f5945ea5600000000000000000000000000000000000000000000000000000000815260040160405180910390fd5b83602001515f03611a45576040517faaf0371a00000000000000000000000000000000000000000000000000000000815260040160405180910390fd5b60608401516040517fb5af090f00000000000000000000000000000000000000000000000000000000815273ffffffffffffffffffffffffffffffffffffffff91821660048201529083169063b5af090f90602401602060405180830381865afa158015611ab5573d5f5f3e3d5ffd5b505050506040513d601f19601f82011682018060405250810190611ad991906126b1565b611b2d5760608401516040517fbf16aab600000000000000000000000000000000000000000000000000000000815273ffffffffffffffffffffffffffffffffffffffff909116600482015260240161054f565b6040517fef0e239b000000000000000000000000000000000000000000000000000000008152600481018690525f9073ffffffffffffffffffffffffffffffffffffffff85169063ef0e239b90602401608060405180830381865afa158015611b98573d5f5f3e3d5ffd5b505050506040513d601f19601f82011682018060405250810190611bbc919061281f565b5090508373ffffffffffffffffffffffffffffffffffffffff1663d4a247038787604001516040518363ffffffff1660e01b8152600401611bfe9291906128a6565b602060405180830381865afa158015611c19573d5f5f3e3d5ffd5b505050506040513d601f19601f82011682018060405250810190611c3d91906126b1565b611c73576040517fe97d945b00000000000000000000000000000000000000000000000000000000815260040160405180910390fd5b95945050505050565b5f8083830184811015611c95575f5f9250925050611c9c565b6001925090505b9250929050565b6040805173ffffffffffffffffffffffffffffffffffffffff85811660248301528416604482015260648082018490528251808303909101815260849091019091526020810180517bffffffffffffffffffffffffffffffffffffffffffffffffffffffff167f23b872dd000000000000000000000000000000000000000000000000000000001790526107f3908590611f1e565b7fcd5ed15c6e187e77e9aee88184c21f4f2182ab5827cb3b7e07fbedcd63f033005460ff166105d6576040517f8dfc202b00000000000000000000000000000000000000000000000000000000815260040160405180910390fd5b611d9c82611fb2565b60405173ffffffffffffffffffffffffffffffffffffffff8316907fbc7cd75a20ee27fd9adebab32041f755214dbc6bffa90cc0225b39da2e5c2d3b905f90a2805115611ded576106df8282612080565b6108146120f6565b5f5f835f03611e095750600190505f611c9c565b83830283858281611e1c57611e1c6128d7565b0414611c95575f5f9250925050611c9c565b5f5f825f03611e4157505f905080611c9c565b6001838581611e5257611e526128d7565b04915091509250929050565b7ff0c57e16840df040f15088dc2f81fe391c3923bec73e23a9662efc9c229c6a005468010000000000000000900460ff166105d6576040517fd7e6bcf800000000000000000000000000000000000000000000000000000000815260040160405180910390fd5b611ecd611e5e565b7fcd5ed15c6e187e77e9aee88184c21f4f2182ab5827cb3b7e07fbedcd63f0330080547fffffffffffffffffffffffffffffffffffffffffffffffffffffffffffffff00169055565b61102b611e5e565b5f611f3f73ffffffffffffffffffffffffffffffffffffffff84168361212e565b905080515f14158015611f63575080806020019051810190611f6191906126b1565b155b156106df576040517f5274afe700000000000000000000000000000000000000000000000000000000815273ffffffffffffffffffffffffffffffffffffffff8416600482015260240161054f565b8073ffffffffffffffffffffffffffffffffffffffff163b5f0361201a576040517f4c9c8ce300000000000000000000000000000000000000000000000000000000815273ffffffffffffffffffffffffffffffffffffffff8216600482015260240161054f565b7f360894a13ba1a3210667c828492db98dca3e2076cc3735a920a3ca505d382bbc80547fffffffffffffffffffffffff00000000000000000000000000000000000000001673ffffffffffffffffffffffffffffffffffffffff92909216919091179055565b60605f5f8473ffffffffffffffffffffffffffffffffffffffff16846040516120a99190612904565b5f60405180830381855af49150503d805f81146120e1576040519150601f19603f3d011682016040523d82523d5f602084013e6120e6565b606091505b5091509150611c7385838361213b565b34156105d6576040517fb398979f00000000000000000000000000000000000000000000000000000000815260040160405180910390fd5b60606117c483835f6121ca565b6060826121505761214b82612289565b6117c4565b8151158015612174575073ffffffffffffffffffffffffffffffffffffffff84163b155b156121c3576040517f9996b31500000000000000000000000000000000000000000000000000000000815273ffffffffffffffffffffffffffffffffffffffff8516600482015260240161054f565b50806117c4565b606081471015612208576040517fcd78605900000000000000000000000000000000000000000000000000000000815230600482015260240161054f565b5f5f8573ffffffffffffffffffffffffffffffffffffffff1684866040516122309190612904565b5f6040518083038185875af1925050503d805f811461226a576040519150601f19603f3d011682016040523d82523d5f602084013e61226f565b606091505b509150915061227f86838361213b565b9695505050505050565b8051156122995780518082602001fd5b6040517f1425ea4200000000000000000000000000000000000000000000000000000000815260040160405180910390fd5b73ffffffffffffffffffffffffffffffffffffffff81168114611083575f5ffd5b5f602082840312156122fc575f5ffd5b81356117c4816122cb565b5f5f60408385031215612318575f5ffd5b82359150602083013561232a816122cb565b809150509250929050565b5f5f5f60608486031215612347575f5ffd5b833592506020840135612359816122cb565b91506040840135612369816122cb565b809150509250925092565b7f4e487b71000000000000000000000000000000000000000000000000000000005f52604160045260245ffd5b6040516080810167ffffffffffffffff811182821017156123c4576123c4612374565b60405290565b60405160a0810167ffffffffffffffff811182821017156123c4576123c4612374565b5f5f67ffffffffffffffff84111561240757612407612374565b506040517fffffffffffffffffffffffffffffffffffffffffffffffffffffffffffffffe0601f85018116603f0116810181811067ffffffffffffffff8211171561245457612454612374565b60405283815290508082840185101561246b575f5ffd5b838360208301375f60208583010152509392505050565b5f5f60408385031215612493575f5ffd5b823561249e816122cb565b9150602083013567ffffffffffffffff8111156124b9575f5ffd5b8301601f810185136124c9575f5ffd5b6124d8858235602084016123ed565b9150509250929050565b5f82601f8301126124f1575f5ffd5b6117c4838335602085016123ed565b5f5f60408385031215612511575f5ffd5b82359150602083013567ffffffffffffffff81111561252e575f5ffd5b83016080818603121561253f575f5ffd5b6125476123a1565b8135612552816122cb565b81526020828101359082015260408083013590820152606082013567ffffffffffffffff811115612581575f5ffd5b61258d878285016124e2565b60608301525080925050509250929050565b5f81518084528060208401602086015e5f6020828601015260207fffffffffffffffffffffffffffffffffffffffffffffffffffffffffffffffe0601f83011685010191505092915050565b602081525f6117c4602083018461259f565b5f5f6040838503121561260e575f5ffd5b82359150602083013567ffffffffffffffff81111561262b575f5ffd5b830160a0818603121561263c575f5ffd5b6126446123ca565b813561264f816122cb565b815260208281013590820152604082013567ffffffffffffffff811115612674575f5ffd5b612680878285016124e2565b6040830152506060820135612694816122cb565b606082015260809182013591810191909152919491935090915050565b5f602082840312156126c1575f5ffd5b815180151581146117c4575f5ffd5b8381526060602082015273ffffffffffffffffffffffffffffffffffffffff835116606082015260208301516080820152604083015160a08201525f6060840151608060c084015261272560e084018261259f565b915050826040830152949350505050565b73ffffffffffffffffffffffffffffffffffffffff8151168252602081015160208301525f604082015160a0604085015261277460a085018261259f565b905073ffffffffffffffffffffffffffffffffffffffff6060840151166060850152608083015160808501528091505092915050565b838152606060208201525f6127c26060830185612736565b9050826040830152949350505050565b828152604060208201525f6127ea6040830184612736565b949350505050565b5f60208284031215612802575f5ffd5b5051919050565b805161ffff8116811461281a575f5ffd5b919050565b5f5f8284036080811215612831575f5ffd5b606081121561283e575f5ffd5b506040516060810167ffffffffffffffff8111828210171561286257612862612374565b604052835181526020840151612877816122cb565b6020820152604084015161288a816122cb565b6040820152915061289d60608401612809565b90509250929050565b828152604060208201525f6127ea604083018461259f565b5f602082840312156128ce575f5ffd5b6117c482612809565b7f4e487b71000000000000000000000000000000000000000000000000000000005f52601260045260245ffd5b5f82518060208501845e5f92019182525091905056fea2646970667358221220ba85bc398655d5cf66163788ffcbe17e49856772a2bfb58d97b4e59a392cb3f264736f6c634300081c0033","linkReferences":{}},"methodIdentifiers":{"UPGRADE_INTERFACE_VERSION()":"ad3cb1cc","_erc20Escrow()":"3754e87f","_escrow()":"0619c07a","_fulfillableRegistry()":"0c4393b9","_tokenRegistry()":"ede6a9a0","initialize(address)":"c4d66de8","isUpgrade()":"e38a303b","owner()":"8da5cb5b","pause()":"8456cb59","paused()":"5c975abb","proxiableUUID()":"52d1902d","renounceOwnership()":"715018a6","requestERC20Service(uint256,(address,uint256,string,address,uint256))":"e2f6ad25","requestService(uint256,(address,uint256,uint256,string))":"8d5e694f","setERC20Escrow(address)":"be03f65c","setEscrow(address)":"c10c3546","setFulfillableRegistry(address)":"dbc85c5a","setTokenRegistry(address)":"35a5af92","transferOwnership(address)":"f2fde38b","unpause()":"3f4ba83a","upgradeToAndCall(address,bytes)":"4f1ef286","withdrawERC20Refund(uint256,address,address)":"48d20d16","withdrawRefund(uint256,address)":"4248d5b8"},"id":19}